{
	"Contracts/Teknofest.sol": {
		"ChainLance": {
			"abi": [
				{
					"inputs": [],
					"stateMutability": "nonpayable",
					"type": "constructor"
				},
				{
					"anonymous": false,
					"inputs": [
						{
							"indexed": true,
							"internalType": "address",
							"name": "acountAddress",
							"type": "address"
						},
						{
							"components": [
								{
									"internalType": "bool",
									"name": "isEmployer",
									"type": "bool"
								},
								{
									"internalType": "bool",
									"name": "isEmployee",
									"type": "bool"
								},
								{
									"internalType": "bool",
									"name": "isMiddleman",
									"type": "bool"
								},
								{
									"internalType": "bool",
									"name": "registered",
									"type": "bool"
								}
							],
							"indexed": false,
							"internalType": "struct ChainLance.Account",
							"name": "account",
							"type": "tuple"
						}
					],
					"name": "accountCreated",
					"type": "event"
				},
				{
					"anonymous": false,
					"inputs": [
						{
							"indexed": true,
							"internalType": "address",
							"name": "applicant",
							"type": "address"
						},
						{
							"components": [
								{
									"internalType": "uint256",
									"name": "nonce",
									"type": "uint256"
								},
								{
									"internalType": "address",
									"name": "employer",
									"type": "address"
								},
								{
									"internalType": "uint256",
									"name": "numOfCandidates",
									"type": "uint256"
								},
								{
									"internalType": "uint256",
									"name": "amountToStake",
									"type": "uint256"
								},
								{
									"internalType": "bool",
									"name": "isSealed",
									"type": "bool"
								}
							],
							"indexed": false,
							"internalType": "struct ChainLance.OfferedWork",
							"name": "offeredWork",
							"type": "tuple"
						}
					],
					"name": "appliedToWork",
					"type": "event"
				},
				{
					"anonymous": false,
					"inputs": [
						{
							"components": [
								{
									"internalType": "uint256",
									"name": "nonce",
									"type": "uint256"
								},
								{
									"internalType": "address",
									"name": "employer",
									"type": "address"
								},
								{
									"internalType": "address",
									"name": "employee",
									"type": "address"
								},
								{
									"internalType": "address",
									"name": "middleman",
									"type": "address"
								},
								{
									"internalType": "uint256",
									"name": "amountForEmployee",
									"type": "uint256"
								},
								{
									"internalType": "uint256",
									"name": "askedMiddlemanNumber",
									"type": "uint256"
								},
								{
									"internalType": "bool",
									"name": "employeeDone",
									"type": "bool"
								},
								{
									"internalType": "bool",
									"name": "employerValidate",
									"type": "bool"
								},
								{
									"internalType": "bool",
									"name": "disputeRaised",
									"type": "bool"
								},
								{
									"internalType": "bool",
									"name": "resolveCheck",
									"type": "bool"
								}
							],
							"indexed": false,
							"internalType": "struct ChainLance.Agreement",
							"name": "agreement",
							"type": "tuple"
						},
						{
							"indexed": false,
							"internalType": "address",
							"name": "middleman",
							"type": "address"
						}
					],
					"name": "askedMiddleman",
					"type": "event"
				},
				{
					"anonymous": false,
					"inputs": [
						{
							"components": [
								{
									"internalType": "uint256",
									"name": "nonce",
									"type": "uint256"
								},
								{
									"internalType": "address",
									"name": "employer",
									"type": "address"
								},
								{
									"internalType": "address",
									"name": "employee",
									"type": "address"
								},
								{
									"internalType": "address",
									"name": "middleman",
									"type": "address"
								},
								{
									"internalType": "uint256",
									"name": "amountForEmployee",
									"type": "uint256"
								},
								{
									"internalType": "uint256",
									"name": "askedMiddlemanNumber",
									"type": "uint256"
								},
								{
									"internalType": "bool",
									"name": "employeeDone",
									"type": "bool"
								},
								{
									"internalType": "bool",
									"name": "employerValidate",
									"type": "bool"
								},
								{
									"internalType": "bool",
									"name": "disputeRaised",
									"type": "bool"
								},
								{
									"internalType": "bool",
									"name": "resolveCheck",
									"type": "bool"
								}
							],
							"indexed": false,
							"internalType": "struct ChainLance.Agreement",
							"name": "agreement",
							"type": "tuple"
						}
					],
					"name": "disputeRaised",
					"type": "event"
				},
				{
					"anonymous": false,
					"inputs": [
						{
							"components": [
								{
									"internalType": "uint256",
									"name": "nonce",
									"type": "uint256"
								},
								{
									"internalType": "address",
									"name": "employer",
									"type": "address"
								},
								{
									"internalType": "address",
									"name": "employee",
									"type": "address"
								},
								{
									"internalType": "address",
									"name": "middleman",
									"type": "address"
								},
								{
									"internalType": "uint256",
									"name": "amountForEmployee",
									"type": "uint256"
								},
								{
									"internalType": "uint256",
									"name": "askedMiddlemanNumber",
									"type": "uint256"
								},
								{
									"internalType": "bool",
									"name": "employeeDone",
									"type": "bool"
								},
								{
									"internalType": "bool",
									"name": "employerValidate",
									"type": "bool"
								},
								{
									"internalType": "bool",
									"name": "disputeRaised",
									"type": "bool"
								},
								{
									"internalType": "bool",
									"name": "resolveCheck",
									"type": "bool"
								}
							],
							"indexed": false,
							"internalType": "struct ChainLance.Agreement",
							"name": "agreement",
							"type": "tuple"
						}
					],
					"name": "disputeResolved",
					"type": "event"
				},
				{
					"anonymous": false,
					"inputs": [
						{
							"indexed": false,
							"internalType": "bool",
							"name": "employeeDone",
							"type": "bool"
						}
					],
					"name": "employeeDone",
					"type": "event"
				},
				{
					"anonymous": false,
					"inputs": [
						{
							"indexed": false,
							"internalType": "bool",
							"name": "employerValidated",
							"type": "bool"
						}
					],
					"name": "employerValidated",
					"type": "event"
				},
				{
					"anonymous": false,
					"inputs": [
						{
							"components": [
								{
									"internalType": "uint256",
									"name": "nonce",
									"type": "uint256"
								},
								{
									"internalType": "address",
									"name": "employer",
									"type": "address"
								},
								{
									"internalType": "address",
									"name": "employee",
									"type": "address"
								},
								{
									"internalType": "address",
									"name": "middleman",
									"type": "address"
								},
								{
									"internalType": "uint256",
									"name": "amountForEmployee",
									"type": "uint256"
								},
								{
									"internalType": "uint256",
									"name": "askedMiddlemanNumber",
									"type": "uint256"
								},
								{
									"internalType": "bool",
									"name": "employeeDone",
									"type": "bool"
								},
								{
									"internalType": "bool",
									"name": "employerValidate",
									"type": "bool"
								},
								{
									"internalType": "bool",
									"name": "disputeRaised",
									"type": "bool"
								},
								{
									"internalType": "bool",
									"name": "resolveCheck",
									"type": "bool"
								}
							],
							"indexed": false,
							"internalType": "struct ChainLance.Agreement",
							"name": "agreement",
							"type": "tuple"
						}
					],
					"name": "middlemanValidated",
					"type": "event"
				},
				{
					"anonymous": false,
					"inputs": [
						{
							"indexed": true,
							"internalType": "bytes32",
							"name": "agreementHash",
							"type": "bytes32"
						},
						{
							"components": [
								{
									"internalType": "uint256",
									"name": "nonce",
									"type": "uint256"
								},
								{
									"internalType": "address",
									"name": "employer",
									"type": "address"
								},
								{
									"internalType": "address",
									"name": "employee",
									"type": "address"
								},
								{
									"internalType": "address",
									"name": "middleman",
									"type": "address"
								},
								{
									"internalType": "uint256",
									"name": "amountForEmployee",
									"type": "uint256"
								},
								{
									"internalType": "uint256",
									"name": "askedMiddlemanNumber",
									"type": "uint256"
								},
								{
									"internalType": "bool",
									"name": "employeeDone",
									"type": "bool"
								},
								{
									"internalType": "bool",
									"name": "employerValidate",
									"type": "bool"
								},
								{
									"internalType": "bool",
									"name": "disputeRaised",
									"type": "bool"
								},
								{
									"internalType": "bool",
									"name": "resolveCheck",
									"type": "bool"
								}
							],
							"indexed": false,
							"internalType": "struct ChainLance.Agreement",
							"name": "agreement",
							"type": "tuple"
						}
					],
					"name": "reqruitedEmployee",
					"type": "event"
				},
				{
					"anonymous": false,
					"inputs": [
						{
							"indexed": false,
							"internalType": "address",
							"name": "suggested",
							"type": "address"
						},
						{
							"indexed": false,
							"internalType": "address",
							"name": "middleman",
							"type": "address"
						},
						{
							"components": [
								{
									"internalType": "uint256",
									"name": "nonce",
									"type": "uint256"
								},
								{
									"internalType": "address",
									"name": "employer",
									"type": "address"
								},
								{
									"internalType": "address",
									"name": "employee",
									"type": "address"
								},
								{
									"internalType": "address",
									"name": "middleman",
									"type": "address"
								},
								{
									"internalType": "uint256",
									"name": "amountForEmployee",
									"type": "uint256"
								},
								{
									"internalType": "uint256",
									"name": "askedMiddlemanNumber",
									"type": "uint256"
								},
								{
									"internalType": "bool",
									"name": "employeeDone",
									"type": "bool"
								},
								{
									"internalType": "bool",
									"name": "employerValidate",
									"type": "bool"
								},
								{
									"internalType": "bool",
									"name": "disputeRaised",
									"type": "bool"
								},
								{
									"internalType": "bool",
									"name": "resolveCheck",
									"type": "bool"
								}
							],
							"indexed": false,
							"internalType": "struct ChainLance.Agreement",
							"name": "agreement",
							"type": "tuple"
						}
					],
					"name": "suggestedMiddleman",
					"type": "event"
				},
				{
					"anonymous": false,
					"inputs": [
						{
							"components": [
								{
									"internalType": "uint256",
									"name": "nonce",
									"type": "uint256"
								},
								{
									"internalType": "address",
									"name": "employer",
									"type": "address"
								},
								{
									"internalType": "uint256",
									"name": "numOfCandidates",
									"type": "uint256"
								},
								{
									"internalType": "uint256",
									"name": "amountToStake",
									"type": "uint256"
								},
								{
									"internalType": "bool",
									"name": "isSealed",
									"type": "bool"
								}
							],
							"indexed": false,
							"internalType": "struct ChainLance.OfferedWork",
							"name": "offeredWork",
							"type": "tuple"
						}
					],
					"name": "workDeleted",
					"type": "event"
				},
				{
					"anonymous": false,
					"inputs": [
						{
							"indexed": false,
							"internalType": "bytes32",
							"name": "workHash",
							"type": "bytes32"
						},
						{
							"components": [
								{
									"internalType": "uint256",
									"name": "nonce",
									"type": "uint256"
								},
								{
									"internalType": "address",
									"name": "employer",
									"type": "address"
								},
								{
									"internalType": "uint256",
									"name": "numOfCandidates",
									"type": "uint256"
								},
								{
									"internalType": "uint256",
									"name": "amountToStake",
									"type": "uint256"
								},
								{
									"internalType": "bool",
									"name": "isSealed",
									"type": "bool"
								}
							],
							"indexed": false,
							"internalType": "struct ChainLance.OfferedWork",
							"name": "offeredWork",
							"type": "tuple"
						}
					],
					"name": "workOffered",
					"type": "event"
				},
				{
					"stateMutability": "payable",
					"type": "fallback"
				},
				{
					"inputs": [],
					"name": "AIaddress",
					"outputs": [
						{
							"internalType": "address payable",
							"name": "",
							"type": "address"
						}
					],
					"stateMutability": "view",
					"type": "function"
				},
				{
					"inputs": [
						{
							"internalType": "address",
							"name": "",
							"type": "address"
						}
					],
					"name": "accounts",
					"outputs": [
						{
							"internalType": "bool",
							"name": "isEmployer",
							"type": "bool"
						},
						{
							"internalType": "bool",
							"name": "isEmployee",
							"type": "bool"
						},
						{
							"internalType": "bool",
							"name": "isMiddleman",
							"type": "bool"
						},
						{
							"internalType": "bool",
							"name": "registered",
							"type": "bool"
						}
					],
					"stateMutability": "view",
					"type": "function"
				},
				{
					"inputs": [
						{
							"internalType": "bytes32",
							"name": "",
							"type": "bytes32"
						}
					],
					"name": "agreements",
					"outputs": [
						{
							"internalType": "uint256",
							"name": "nonce",
							"type": "uint256"
						},
						{
							"internalType": "address",
							"name": "employer",
							"type": "address"
						},
						{
							"internalType": "address",
							"name": "employee",
							"type": "address"
						},
						{
							"internalType": "address",
							"name": "middleman",
							"type": "address"
						},
						{
							"internalType": "uint256",
							"name": "amountForEmployee",
							"type": "uint256"
						},
						{
							"internalType": "uint256",
							"name": "askedMiddlemanNumber",
							"type": "uint256"
						},
						{
							"internalType": "bool",
							"name": "employeeDone",
							"type": "bool"
						},
						{
							"internalType": "bool",
							"name": "employerValidate",
							"type": "bool"
						},
						{
							"internalType": "bool",
							"name": "disputeRaised",
							"type": "bool"
						},
						{
							"internalType": "bool",
							"name": "resolveCheck",
							"type": "bool"
						}
					],
					"stateMutability": "view",
					"type": "function"
				},
				{
					"inputs": [
						{
							"internalType": "bytes32",
							"name": "which_",
							"type": "bytes32"
						}
					],
					"name": "applyOfferedWork",
					"outputs": [],
					"stateMutability": "nonpayable",
					"type": "function"
				},
				{
					"inputs": [],
					"name": "balanceRecieved",
					"outputs": [
						{
							"internalType": "uint256",
							"name": "",
							"type": "uint256"
						}
					],
					"stateMutability": "view",
					"type": "function"
				},
				{
					"inputs": [
						{
							"internalType": "bytes32",
							"name": "which_",
							"type": "bytes32"
						}
					],
					"name": "deleteWork",
					"outputs": [],
					"stateMutability": "nonpayable",
					"type": "function"
				},
				{
					"inputs": [
						{
							"internalType": "bytes32",
							"name": "whichAgreement_",
							"type": "bytes32"
						},
						{
							"internalType": "uint256",
							"name": "whichMiddleman_",
							"type": "uint256"
						}
					],
					"name": "getAskedMiddleman",
					"outputs": [
						{
							"internalType": "address",
							"name": "",
							"type": "address"
						}
					],
					"stateMutability": "view",
					"type": "function"
				},
				{
					"inputs": [
						{
							"internalType": "bytes32",
							"name": "offeredWorkHash_",
							"type": "bytes32"
						},
						{
							"internalType": "uint256",
							"name": "candidateNumber_",
							"type": "uint256"
						}
					],
					"name": "getCandidates",
					"outputs": [
						{
							"internalType": "address",
							"name": "",
							"type": "address"
						}
					],
					"stateMutability": "view",
					"type": "function"
				},
				{
					"inputs": [
						{
							"internalType": "bytes32",
							"name": "whichAgreement_",
							"type": "bytes32"
						}
					],
					"name": "getMiddleman",
					"outputs": [
						{
							"internalType": "address",
							"name": "",
							"type": "address"
						}
					],
					"stateMutability": "view",
					"type": "function"
				},
				{
					"inputs": [
						{
							"internalType": "bytes32",
							"name": "whichAgreement_",
							"type": "bytes32"
						},
						{
							"internalType": "uint256",
							"name": "whichMiddleman_",
							"type": "uint256"
						}
					],
					"name": "middleManValidate",
					"outputs": [],
					"stateMutability": "nonpayable",
					"type": "function"
				},
				{
					"inputs": [
						{
							"internalType": "bool",
							"name": "isEmployee_",
							"type": "bool"
						},
						{
							"internalType": "bool",
							"name": "isEmployer_",
							"type": "bool"
						},
						{
							"internalType": "bool",
							"name": "isMiddleman_",
							"type": "bool"
						}
					],
					"name": "newAccount",
					"outputs": [],
					"stateMutability": "nonpayable",
					"type": "function"
				},
				{
					"inputs": [],
					"name": "numOfAgreements",
					"outputs": [
						{
							"internalType": "uint256",
							"name": "",
							"type": "uint256"
						}
					],
					"stateMutability": "view",
					"type": "function"
				},
				{
					"inputs": [],
					"name": "numOfWorks",
					"outputs": [
						{
							"internalType": "uint256",
							"name": "",
							"type": "uint256"
						}
					],
					"stateMutability": "view",
					"type": "function"
				},
				{
					"inputs": [],
					"name": "offerWork",
					"outputs": [],
					"stateMutability": "payable",
					"type": "function"
				},
				{
					"inputs": [
						{
							"internalType": "bytes32",
							"name": "",
							"type": "bytes32"
						}
					],
					"name": "offeredWorks",
					"outputs": [
						{
							"internalType": "uint256",
							"name": "nonce",
							"type": "uint256"
						},
						{
							"internalType": "address",
							"name": "employer",
							"type": "address"
						},
						{
							"internalType": "uint256",
							"name": "numOfCandidates",
							"type": "uint256"
						},
						{
							"internalType": "uint256",
							"name": "amountToStake",
							"type": "uint256"
						},
						{
							"internalType": "bool",
							"name": "isSealed",
							"type": "bool"
						}
					],
					"stateMutability": "view",
					"type": "function"
				},
				{
					"inputs": [
						{
							"internalType": "bytes32",
							"name": "whichAgreement_",
							"type": "bytes32"
						}
					],
					"name": "raiseDispute",
					"outputs": [],
					"stateMutability": "nonpayable",
					"type": "function"
				},
				{
					"inputs": [
						{
							"internalType": "bytes32",
							"name": "whichOffer_",
							"type": "bytes32"
						},
						{
							"internalType": "uint256",
							"name": "whichCandidate_",
							"type": "uint256"
						}
					],
					"name": "reqruitEmployee",
					"outputs": [],
					"stateMutability": "nonpayable",
					"type": "function"
				},
				{
					"inputs": [
						{
							"internalType": "bytes32",
							"name": "whichAgreement_",
							"type": "bytes32"
						},
						{
							"internalType": "address",
							"name": "beneficiary",
							"type": "address"
						}
					],
					"name": "resolveDispluteAI",
					"outputs": [],
					"stateMutability": "nonpayable",
					"type": "function"
				},
				{
					"inputs": [
						{
							"internalType": "bytes32",
							"name": "whichAgreement_",
							"type": "bytes32"
						},
						{
							"internalType": "uint256",
							"name": "employeePercent",
							"type": "uint256"
						},
						{
							"internalType": "uint256",
							"name": "employerPercent",
							"type": "uint256"
						}
					],
					"name": "resolveDispluteMiddleman",
					"outputs": [],
					"stateMutability": "nonpayable",
					"type": "function"
				},
				{
					"inputs": [
						{
							"internalType": "bytes32",
							"name": "whichAgreement_",
							"type": "bytes32"
						}
					],
					"name": "setEmployeeDone",
					"outputs": [],
					"stateMutability": "nonpayable",
					"type": "function"
				},
				{
					"inputs": [
						{
							"internalType": "bytes32",
							"name": "whichAgreement_",
							"type": "bytes32"
						}
					],
					"name": "setEmployerValidate",
					"outputs": [],
					"stateMutability": "nonpayable",
					"type": "function"
				},
				{
					"inputs": [
						{
							"internalType": "bytes32",
							"name": "whichAgreement_",
							"type": "bytes32"
						},
						{
							"internalType": "address",
							"name": "middleman_",
							"type": "address"
						}
					],
					"name": "suggestMiddleman",
					"outputs": [],
					"stateMutability": "nonpayable",
					"type": "function"
				},
				{
					"stateMutability": "payable",
					"type": "receive"
				}
			],
			"devdoc": {
				"kind": "dev",
				"methods": {},
				"version": 1
			},
			"evm": {
				"assembly": "    /* \"Contracts/Teknofest.sol\":60:12699  contract ChainLance {... */\n  mstore(0x40, 0x80)\n    /* \"Contracts/Teknofest.sol\":1875:1939  constructor() {... */\n  callvalue\n  dup1\n  iszero\n  tag_1\n  jumpi\n  0x00\n  dup1\n  revert\ntag_1:\n  pop\n    /* \"Contracts/Teknofest.sol\":1900:1909  AIaddress */\n  0x01\n    /* \"Contracts/Teknofest.sol\":1900:1931  AIaddress = payable(msg.sender) */\n  dup1\n  sload\n  not(sub(shl(0xa0, 0x01), 0x01))\n  and\n    /* \"Contracts/Teknofest.sol\":1920:1930  msg.sender */\n  caller\n    /* \"Contracts/Teknofest.sol\":1900:1931  AIaddress = payable(msg.sender) */\n  or\n  swap1\n  sstore\n    /* \"Contracts/Teknofest.sol\":60:12699  contract ChainLance {... */\n  dataSize(sub_0)\n  dup1\n  dataOffset(sub_0)\n  0x00\n  codecopy\n  0x00\n  return\nstop\n\nsub_0: assembly {\n        /* \"Contracts/Teknofest.sol\":60:12699  contract ChainLance {... */\n      mstore(0x40, 0x80)\n      jumpi(tag_1, lt(calldatasize, 0x04))\n      shr(0xe0, calldataload(0x00))\n      dup1\n      0xccdb5756\n      gt\n      tag_25\n      jumpi\n      dup1\n      0xe14f5b7d\n      gt\n      tag_26\n      jumpi\n      dup1\n      0xe14f5b7d\n      eq\n      tag_19\n      jumpi\n      dup1\n      0xe6306847\n      eq\n      tag_20\n      jumpi\n      dup1\n      0xe7decd80\n      eq\n      tag_21\n      jumpi\n      dup1\n      0xebf1f2a0\n      eq\n      tag_22\n      jumpi\n      dup1\n      0xef32fc51\n      eq\n      tag_23\n      jumpi\n      dup1\n      0xf130a9a7\n      eq\n      tag_24\n      jumpi\n      stop\n    tag_26:\n      dup1\n      0xccdb5756\n      eq\n      tag_14\n      jumpi\n      dup1\n      0xd27dc261\n      eq\n      tag_15\n      jumpi\n      dup1\n      0xd4c06b8d\n      eq\n      tag_16\n      jumpi\n      dup1\n      0xd84bcafa\n      eq\n      tag_17\n      jumpi\n      dup1\n      0xdc0b716f\n      eq\n      tag_18\n      jumpi\n      stop\n    tag_25:\n      dup1\n      0x693648fe\n      gt\n      tag_27\n      jumpi\n      dup1\n      0x693648fe\n      eq\n      tag_8\n      jumpi\n      dup1\n      0x6d58a991\n      eq\n      tag_9\n      jumpi\n      dup1\n      0x880b5212\n      eq\n      tag_10\n      jumpi\n      dup1\n      0x9e1f68c7\n      eq\n      tag_11\n      jumpi\n      dup1\n      0xa0e1b1b2\n      eq\n      tag_12\n      jumpi\n      dup1\n      0xc0d58835\n      eq\n      tag_13\n      jumpi\n      stop\n    tag_27:\n      dup1\n      0x12386b3c\n      eq\n      tag_3\n      jumpi\n      dup1\n      0x15201bc9\n      eq\n      tag_4\n      jumpi\n      dup1\n      0x1cefaf22\n      eq\n      tag_5\n      jumpi\n      dup1\n      0x368db4f4\n      eq\n      tag_6\n      jumpi\n      dup1\n      0x5e5c06e2\n      eq\n      tag_7\n      jumpi\n      stop\n    tag_1:\n      jumpi(tag_2, calldatasize)\n      stop\n    tag_2:\n      stop\n        /* \"Contracts/Teknofest.sol\":8576:8933  function middleManValidate(bytes32 whichAgreement_, uint whichMiddleman_) public {... */\n    tag_3:\n      callvalue\n      dup1\n      iszero\n      tag_32\n      jumpi\n      0x00\n      dup1\n      revert\n    tag_32:\n      pop\n      tag_2\n      tag_34\n      calldatasize\n      0x04\n      tag_35\n      jump\t// in\n    tag_34:\n      tag_36\n      jump\t// in\n        /* \"Contracts/Teknofest.sol\":11715:12619  function resolveDispluteAI(bytes32 whichAgreement_, address beneficiary) public {... */\n    tag_4:\n      callvalue\n      dup1\n      iszero\n      tag_37\n      jumpi\n      0x00\n      dup1\n      revert\n    tag_37:\n      pop\n      tag_2\n      tag_39\n      calldatasize\n      0x04\n      tag_40\n      jump\t// in\n    tag_39:\n      tag_41\n      jump\t// in\n        /* \"Contracts/Teknofest.sol\":123:155  address payable public AIaddress */\n    tag_5:\n      callvalue\n      dup1\n      iszero\n      tag_42\n      jumpi\n      0x00\n      dup1\n      revert\n    tag_42:\n      pop\n      sload(0x01)\n      tag_43\n      swap1\n      sub(shl(0xa0, 0x01), 0x01)\n      and\n      dup2\n      jump\n    tag_43:\n      mload(0x40)\n      sub(shl(0xa0, 0x01), 0x01)\n        /* \"#utility.yul\":1145:1177   */\n      swap1\n      swap2\n      and\n        /* \"#utility.yul\":1127:1178   */\n      dup2\n      mstore\n        /* \"#utility.yul\":1115:1117   */\n      0x20\n        /* \"#utility.yul\":1100:1118   */\n      add\n        /* \"Contracts/Teknofest.sol\":123:155  address payable public AIaddress */\n    tag_45:\n      mload(0x40)\n      dup1\n      swap2\n      sub\n      swap1\n      return\n        /* \"Contracts/Teknofest.sol\":9224:9829  function setEmployerValidate(bytes32 whichAgreement_) public {... */\n    tag_6:\n      callvalue\n      dup1\n      iszero\n      tag_47\n      jumpi\n      0x00\n      dup1\n      revert\n    tag_47:\n      pop\n      tag_2\n      tag_49\n      calldatasize\n      0x04\n      tag_50\n      jump\t// in\n    tag_49:\n      tag_51\n      jump\t// in\n        /* \"Contracts/Teknofest.sol\":225:268  mapping(address => Account) public accounts */\n    tag_7:\n      callvalue\n      dup1\n      iszero\n      tag_52\n      jumpi\n      0x00\n      dup1\n      revert\n    tag_52:\n      pop\n      tag_53\n      tag_54\n      calldatasize\n      0x04\n      tag_55\n      jump\t// in\n    tag_54:\n      mstore(0x20, 0x04)\n      0x00\n      swap1\n      dup2\n      mstore\n      0x40\n      swap1\n      keccak256\n      sload\n      0xff\n      dup1\n      dup3\n      and\n      swap2\n      0x0100\n      dup2\n      div\n      dup3\n      and\n      swap2\n      0x010000\n      dup3\n      div\n      dup2\n      and\n      swap2\n      0x01000000\n      swap1\n      div\n      and\n      dup5\n      jump\n    tag_53:\n      0x40\n      dup1\n      mload\n        /* \"#utility.yul\":1939:1953   */\n      swap5\n      iszero\n        /* \"#utility.yul\":1932:1954   */\n      iszero\n        /* \"#utility.yul\":1914:1955   */\n      dup6\n      mstore\n        /* \"#utility.yul\":1998:2012   */\n      swap3\n      iszero\n        /* \"#utility.yul\":1991:2013   */\n      iszero\n        /* \"#utility.yul\":1986:1988   */\n      0x20\n        /* \"#utility.yul\":1971:1989   */\n      dup6\n      add\n        /* \"#utility.yul\":1964:2014   */\n      mstore\n        /* \"#utility.yul\":2057:2071   */\n      swap1\n      iszero\n        /* \"#utility.yul\":2050:2072   */\n      iszero\n        /* \"#utility.yul\":2030:2048   */\n      swap2\n      dup4\n      add\n        /* \"#utility.yul\":2023:2073   */\n      swap2\n      swap1\n      swap2\n      mstore\n        /* \"#utility.yul\":2116:2130   */\n      iszero\n        /* \"#utility.yul\":2109:2131   */\n      iszero\n        /* \"#utility.yul\":2104:2106   */\n      0x60\n        /* \"#utility.yul\":2089:2107   */\n      dup3\n      add\n        /* \"#utility.yul\":2082:2132   */\n      mstore\n        /* \"#utility.yul\":1901:1904   */\n      0x80\n        /* \"#utility.yul\":1886:1905   */\n      add\n        /* \"Contracts/Teknofest.sol\":225:268  mapping(address => Account) public accounts */\n      tag_45\n        /* \"#utility.yul\":1707:2138   */\n      jump\n        /* \"Contracts/Teknofest.sol\":275:326  mapping(bytes32 => OfferedWork) public offeredWorks */\n    tag_8:\n      callvalue\n      dup1\n      iszero\n      tag_59\n      jumpi\n      0x00\n      dup1\n      revert\n    tag_59:\n      pop\n      tag_60\n      tag_61\n      calldatasize\n      0x04\n      tag_50\n      jump\t// in\n    tag_61:\n      mstore(0x20, 0x05)\n      0x00\n      swap1\n      dup2\n      mstore\n      0x40\n      swap1\n      keccak256\n      dup1\n      sload\n      0x01\n      dup3\n      add\n      sload\n      0x02\n      dup4\n      add\n      sload\n      0x03\n      dup5\n      add\n      sload\n      0x04\n      swap1\n      swap5\n      add\n      sload\n      swap3\n      swap4\n      sub(shl(0xa0, 0x01), 0x01)\n      swap1\n      swap3\n      and\n      swap3\n      swap1\n      swap2\n      swap1\n      0xff\n      and\n      dup6\n      jump\n    tag_60:\n      0x40\n      dup1\n      mload\n        /* \"#utility.yul\":2396:2421   */\n      swap6\n      dup7\n      mstore\n      sub(shl(0xa0, 0x01), 0x01)\n        /* \"#utility.yul\":2457:2489   */\n      swap1\n      swap5\n      and\n        /* \"#utility.yul\":2452:2454   */\n      0x20\n        /* \"#utility.yul\":2437:2455   */\n      dup7\n      add\n        /* \"#utility.yul\":2430:2490   */\n      mstore\n        /* \"#utility.yul\":2506:2524   */\n      swap3\n      dup5\n      add\n        /* \"#utility.yul\":2499:2533   */\n      swap2\n      swap1\n      swap2\n      mstore\n        /* \"#utility.yul\":2564:2566   */\n      0x60\n        /* \"#utility.yul\":2549:2567   */\n      dup4\n      add\n        /* \"#utility.yul\":2542:2576   */\n      mstore\n        /* \"#utility.yul\":2620:2634   */\n      iszero\n        /* \"#utility.yul\":2613:2635   */\n      iszero\n        /* \"#utility.yul\":2607:2610   */\n      0x80\n        /* \"#utility.yul\":2592:2611   */\n      dup3\n      add\n        /* \"#utility.yul\":2585:2636   */\n      mstore\n        /* \"#utility.yul\":2383:2386   */\n      0xa0\n        /* \"#utility.yul\":2368:2387   */\n      add\n        /* \"Contracts/Teknofest.sol\":275:326  mapping(bytes32 => OfferedWork) public offeredWorks */\n      tag_45\n        /* \"#utility.yul\":2143:2642   */\n      jump\n        /* \"Contracts/Teknofest.sol\":5312:5658  function applyOfferedWork(bytes32 which_) public onlyEmployee {... */\n    tag_9:\n      callvalue\n      dup1\n      iszero\n      tag_65\n      jumpi\n      0x00\n      dup1\n      revert\n    tag_65:\n      pop\n      tag_2\n      tag_67\n      calldatasize\n      0x04\n      tag_50\n      jump\t// in\n    tag_67:\n      tag_68\n      jump\t// in\n        /* \"Contracts/Teknofest.sol\":4142:4731  function offerWork() public payable onlyEmployer {... */\n    tag_10:\n      tag_2\n      tag_70\n      jump\t// in\n        /* \"Contracts/Teknofest.sol\":386:433  mapping(bytes32 => Agreement) public agreements */\n    tag_11:\n      callvalue\n      dup1\n      iszero\n      tag_71\n      jumpi\n      0x00\n      dup1\n      revert\n    tag_71:\n      pop\n      tag_72\n      tag_73\n      calldatasize\n      0x04\n      tag_50\n      jump\t// in\n    tag_73:\n      0x06\n      0x20\n      dup2\n      swap1\n      mstore\n      0x00\n      swap2\n      dup3\n      mstore\n      0x40\n      swap1\n      swap2\n      keccak256\n      dup1\n      sload\n      0x01\n      dup3\n      add\n      sload\n      0x02\n      dup4\n      add\n      sload\n      0x03\n      dup5\n      add\n      sload\n      0x04\n      dup6\n      add\n      sload\n      0x05\n      dup7\n      add\n      sload\n      swap6\n      swap1\n      swap7\n      add\n      sload\n      swap4\n      swap6\n      sub(shl(0xa0, 0x01), 0x01)\n      swap4\n      dup5\n      and\n      swap6\n      swap3\n      dup5\n      and\n      swap5\n      swap2\n      swap1\n      swap4\n      and\n      swap3\n      swap2\n      swap1\n      0xff\n      dup1\n      dup3\n      and\n      swap2\n      0x0100\n      dup2\n      div\n      dup3\n      and\n      swap2\n      0x010000\n      dup3\n      div\n      dup2\n      and\n      swap2\n      0x01000000\n      swap1\n      div\n      and\n      dup11\n      jump\n    tag_72:\n      0x40\n      dup1\n      mload\n        /* \"#utility.yul\":3022:3047   */\n      swap11\n      dup12\n      mstore\n      sub(shl(0xa0, 0x01), 0x01)\n        /* \"#utility.yul\":3083:3115   */\n      swap10\n      dup11\n      and\n        /* \"#utility.yul\":3078:3080   */\n      0x20\n        /* \"#utility.yul\":3063:3081   */\n      dup13\n      add\n        /* \"#utility.yul\":3056:3116   */\n      mstore\n        /* \"#utility.yul\":3152:3184   */\n      swap8\n      dup10\n      and\n        /* \"#utility.yul\":3132:3150   */\n      swap8\n      dup11\n      add\n        /* \"#utility.yul\":3125:3185   */\n      swap8\n      swap1\n      swap8\n      mstore\n        /* \"#utility.yul\":3221:3253   */\n      swap7\n      swap1\n      swap5\n      and\n        /* \"#utility.yul\":3216:3218   */\n      0x60\n        /* \"#utility.yul\":3201:3219   */\n      dup9\n      add\n        /* \"#utility.yul\":3194:3254   */\n      mstore\n        /* \"#utility.yul\":3285:3288   */\n      0x80\n        /* \"#utility.yul\":3270:3289   */\n      dup8\n      add\n        /* \"#utility.yul\":3263:3298   */\n      swap3\n      swap1\n      swap3\n      mstore\n        /* \"#utility.yul\":3103:3106   */\n      0xa0\n        /* \"#utility.yul\":3314:3333   */\n      dup7\n      add\n        /* \"#utility.yul\":3307:3342   */\n      mstore\n        /* \"#utility.yul\":3386:3400   */\n      iszero\n        /* \"#utility.yul\":3379:3401   */\n      iszero\n        /* \"#utility.yul\":3373:3376   */\n      0xc0\n        /* \"#utility.yul\":3358:3377   */\n      dup6\n      add\n        /* \"#utility.yul\":3351:3402   */\n      mstore\n        /* \"#utility.yul\":3446:3460   */\n      iszero\n        /* \"#utility.yul\":3439:3461   */\n      iszero\n        /* \"#utility.yul\":3433:3436   */\n      0xe0\n        /* \"#utility.yul\":3418:3437   */\n      dup5\n      add\n        /* \"#utility.yul\":3411:3462   */\n      mstore\n        /* \"#utility.yul\":3506:3520   */\n      swap1\n      iszero\n        /* \"#utility.yul\":3499:3521   */\n      iszero\n        /* \"#utility.yul\":3493:3496   */\n      0x0100\n        /* \"#utility.yul\":3478:3497   */\n      dup4\n      add\n        /* \"#utility.yul\":3471:3522   */\n      mstore\n        /* \"#utility.yul\":3566:3580   */\n      iszero\n        /* \"#utility.yul\":3559:3581   */\n      iszero\n        /* \"#utility.yul\":3553:3556   */\n      0x0120\n        /* \"#utility.yul\":3538:3557   */\n      dup3\n      add\n        /* \"#utility.yul\":3531:3582   */\n      mstore\n        /* \"#utility.yul\":3009:3012   */\n      0x0140\n        /* \"#utility.yul\":2994:3013   */\n      add\n        /* \"Contracts/Teknofest.sol\":386:433  mapping(bytes32 => Agreement) public agreements */\n      tag_45\n        /* \"#utility.yul\":2647:3588   */\n      jump\n        /* \"Contracts/Teknofest.sol\":8941:9216  function setEmployeeDone(bytes32 whichAgreement_) public {... */\n    tag_12:\n      callvalue\n      dup1\n      iszero\n      tag_77\n      jumpi\n      0x00\n      dup1\n      revert\n    tag_77:\n      pop\n      tag_2\n      tag_79\n      calldatasize\n      0x04\n      tag_50\n      jump\t// in\n    tag_79:\n      tag_80\n      jump\t// in\n        /* \"Contracts/Teknofest.sol\":3310:4134  function newAccount(bool isEmployee_, bool isEmployer_,bool isMiddleman_) public {... */\n    tag_13:\n      callvalue\n      dup1\n      iszero\n      tag_81\n      jumpi\n      0x00\n      dup1\n      revert\n    tag_81:\n      pop\n      tag_2\n      tag_83\n      calldatasize\n      0x04\n      tag_84\n      jump\t// in\n    tag_83:\n      tag_85\n      jump\t// in\n        /* \"Contracts/Teknofest.sol\":8429:8568  function getMiddleman(bytes32 whichAgreement_) public view returns(address) {... */\n    tag_14:\n      callvalue\n      dup1\n      iszero\n      tag_86\n      jumpi\n      0x00\n      dup1\n      revert\n    tag_86:\n      pop\n      tag_43\n      tag_88\n      calldatasize\n      0x04\n      tag_50\n      jump\t// in\n    tag_88:\n        /* \"Contracts/Teknofest.sol\":8496:8503  address */\n      0x00\n        /* \"Contracts/Teknofest.sol\":8523:8550  agreements[whichAgreement_] */\n      swap1\n      dup2\n      mstore\n        /* \"Contracts/Teknofest.sol\":8523:8533  agreements */\n      0x06\n        /* \"Contracts/Teknofest.sol\":8523:8550  agreements[whichAgreement_] */\n      0x20\n      mstore\n      0x40\n      swap1\n      keccak256\n        /* \"Contracts/Teknofest.sol\":8523:8560  agreements[whichAgreement_].middleman */\n      0x03\n      add\n      sload\n      sub(shl(0xa0, 0x01), 0x01)\n      and\n      swap1\n        /* \"Contracts/Teknofest.sol\":8429:8568  function getMiddleman(bytes32 whichAgreement_) public view returns(address) {... */\n      jump\n        /* \"Contracts/Teknofest.sol\":162:184  uint public numOfWorks */\n    tag_15:\n      callvalue\n      dup1\n      iszero\n      tag_92\n      jumpi\n      0x00\n      dup1\n      revert\n    tag_92:\n      pop\n      tag_93\n      sload(0x02)\n      dup2\n      jump\n    tag_93:\n      mload(0x40)\n        /* \"#utility.yul\":4433:4458   */\n      swap1\n      dup2\n      mstore\n        /* \"#utility.yul\":4421:4423   */\n      0x20\n        /* \"#utility.yul\":4406:4424   */\n      add\n        /* \"Contracts/Teknofest.sol\":162:184  uint public numOfWorks */\n      tag_45\n        /* \"#utility.yul\":4287:4464   */\n      jump\n        /* \"Contracts/Teknofest.sol\":89:116  uint public balanceRecieved */\n    tag_16:\n      callvalue\n      dup1\n      iszero\n      tag_97\n      jumpi\n      0x00\n      dup1\n      revert\n    tag_97:\n      pop\n      tag_93\n      sload(0x00)\n      dup2\n      jump\n        /* \"Contracts/Teknofest.sol\":6813:7740  function suggestMiddleman(bytes32 whichAgreement_, address middleman_) public {... */\n    tag_17:\n      callvalue\n      dup1\n      iszero\n      tag_101\n      jumpi\n      0x00\n      dup1\n      revert\n    tag_101:\n      pop\n      tag_2\n      tag_103\n      calldatasize\n      0x04\n      tag_40\n      jump\t// in\n    tag_103:\n      tag_104\n      jump\t// in\n        /* \"Contracts/Teknofest.sol\":10555:11647  function resolveDispluteMiddleman(bytes32 whichAgreement_, uint employeePercent, uint employerPercent) public {... */\n    tag_18:\n      callvalue\n      dup1\n      iszero\n      tag_105\n      jumpi\n      0x00\n      dup1\n      revert\n    tag_105:\n      pop\n      tag_2\n      tag_107\n      calldatasize\n      0x04\n      tag_108\n      jump\t// in\n    tag_107:\n      tag_109\n      jump\t// in\n        /* \"Contracts/Teknofest.sol\":9837:10173  function raiseDispute(bytes32 whichAgreement_) public {... */\n    tag_19:\n      callvalue\n      dup1\n      iszero\n      tag_110\n      jumpi\n      0x00\n      dup1\n      revert\n    tag_110:\n      pop\n      tag_2\n      tag_112\n      calldatasize\n      0x04\n      tag_50\n      jump\t// in\n    tag_112:\n      tag_113\n      jump\t// in\n        /* \"Contracts/Teknofest.sol\":5666:5961  function getCandidates(bytes32 offeredWorkHash_, uint candidateNumber_) public view returns(address){... */\n    tag_20:\n      callvalue\n      dup1\n      iszero\n      tag_114\n      jumpi\n      0x00\n      dup1\n      revert\n    tag_114:\n      pop\n      tag_43\n      tag_116\n      calldatasize\n      0x04\n      tag_35\n      jump\t// in\n    tag_116:\n      tag_117\n      jump\t// in\n        /* \"Contracts/Teknofest.sol\":8243:8421  function getAskedMiddleman(bytes32 whichAgreement_, uint whichMiddleman_) public view returns(address) {... */\n    tag_21:\n      callvalue\n      dup1\n      iszero\n      tag_119\n      jumpi\n      0x00\n      dup1\n      revert\n    tag_119:\n      pop\n      tag_43\n      tag_121\n      calldatasize\n      0x04\n      tag_35\n      jump\t// in\n    tag_121:\n        /* \"Contracts/Teknofest.sol\":8337:8344  address */\n      0x00\n        /* \"Contracts/Teknofest.sol\":8364:8396  askedMiddlemans[whichAgreement_] */\n      swap2\n      dup3\n      mstore\n        /* \"Contracts/Teknofest.sol\":8364:8379  askedMiddlemans */\n      0x0a\n        /* \"Contracts/Teknofest.sol\":8364:8396  askedMiddlemans[whichAgreement_] */\n      0x20\n      swap1\n      dup2\n      mstore\n      0x40\n      dup1\n      dup5\n      keccak256\n        /* \"Contracts/Teknofest.sol\":8364:8413  askedMiddlemans[whichAgreement_][whichMiddleman_] */\n      swap3\n      dup5\n      mstore\n      swap2\n      swap1\n      mstore\n      swap1\n      keccak256\n      sload\n      sub(shl(0xa0, 0x01), 0x01)\n      and\n      swap1\n        /* \"Contracts/Teknofest.sol\":8243:8421  function getAskedMiddleman(bytes32 whichAgreement_, uint whichMiddleman_) public view returns(address) {... */\n      jump\n        /* \"Contracts/Teknofest.sol\":4739:5304  function deleteWork(bytes32 which_) public onlyEmployer {... */\n    tag_22:\n      callvalue\n      dup1\n      iszero\n      tag_124\n      jumpi\n      0x00\n      dup1\n      revert\n    tag_124:\n      pop\n      tag_2\n      tag_126\n      calldatasize\n      0x04\n      tag_50\n      jump\t// in\n    tag_126:\n      tag_127\n      jump\t// in\n        /* \"Contracts/Teknofest.sol\":191:218  uint public numOfAgreements */\n    tag_23:\n      callvalue\n      dup1\n      iszero\n      tag_128\n      jumpi\n      0x00\n      dup1\n      revert\n    tag_128:\n      pop\n      tag_93\n      sload(0x03)\n      dup2\n      jump\n        /* \"Contracts/Teknofest.sol\":5969:6805  function reqruitEmployee(bytes32 whichOffer_, uint whichCandidate_) public onlyEmployer {... */\n    tag_24:\n      callvalue\n      dup1\n      iszero\n      tag_132\n      jumpi\n      0x00\n      dup1\n      revert\n    tag_132:\n      pop\n      tag_2\n      tag_134\n      calldatasize\n      0x04\n      tag_35\n      jump\t// in\n    tag_134:\n      tag_135\n      jump\t// in\n        /* \"Contracts/Teknofest.sol\":8576:8933  function middleManValidate(bytes32 whichAgreement_, uint whichMiddleman_) public {... */\n    tag_36:\n        /* \"Contracts/Teknofest.sol\":8676:8708  askedMiddlemans[whichAgreement_] */\n      0x00\n      dup3\n      dup2\n      mstore\n        /* \"Contracts/Teknofest.sol\":8676:8691  askedMiddlemans */\n      0x0a\n        /* \"Contracts/Teknofest.sol\":8676:8708  askedMiddlemans[whichAgreement_] */\n      0x20\n      swap1\n      dup2\n      mstore\n      0x40\n      dup1\n      dup4\n      keccak256\n        /* \"Contracts/Teknofest.sol\":8676:8725  askedMiddlemans[whichAgreement_][whichMiddleman_] */\n      dup5\n      dup5\n      mstore\n      swap1\n      swap2\n      mstore\n      swap1\n      keccak256\n      sload\n      sub(shl(0xa0, 0x01), 0x01)\n      and\n        /* \"Contracts/Teknofest.sol\":8729:8739  msg.sender */\n      caller\n        /* \"Contracts/Teknofest.sol\":8676:8739  askedMiddlemans[whichAgreement_][whichMiddleman_] == msg.sender */\n      eq\n        /* \"Contracts/Teknofest.sol\":8668:8799  require(askedMiddlemans[whichAgreement_][whichMiddleman_] == msg.sender, \"You are not asked to be the middleman of this agreement\") */\n      tag_137\n      jumpi\n      mload(0x40)\n      shl(0xe5, 0x461bcd)\n      dup2\n      mstore\n        /* \"#utility.yul\":5142:5144   */\n      0x20\n        /* \"Contracts/Teknofest.sol\":8668:8799  require(askedMiddlemans[whichAgreement_][whichMiddleman_] == msg.sender, \"You are not asked to be the middleman of this agreement\") */\n      0x04\n      dup3\n      add\n        /* \"#utility.yul\":5124:5145   */\n      mstore\n        /* \"#utility.yul\":5181:5183   */\n      0x37\n        /* \"#utility.yul\":5161:5179   */\n      0x24\n      dup3\n      add\n        /* \"#utility.yul\":5154:5184   */\n      mstore\n        /* \"#utility.yul\":5220:5254   */\n      0x596f7520617265206e6f742061736b656420746f20626520746865206d696464\n        /* \"#utility.yul\":5200:5218   */\n      0x44\n      dup3\n      add\n        /* \"#utility.yul\":5193:5255   */\n      mstore\n        /* \"#utility.yul\":5291:5316   */\n      0x6c656d616e206f6620746869732061677265656d656e74000000000000000000\n        /* \"#utility.yul\":5271:5289   */\n      0x64\n      dup3\n      add\n        /* \"#utility.yul\":5264:5317   */\n      mstore\n        /* \"#utility.yul\":5334:5353   */\n      0x84\n      add\n        /* \"Contracts/Teknofest.sol\":8668:8799  require(askedMiddlemans[whichAgreement_][whichMiddleman_] == msg.sender, \"You are not asked to be the middleman of this agreement\") */\n    tag_138:\n      mload(0x40)\n      dup1\n      swap2\n      sub\n      swap1\n      revert\n    tag_137:\n        /* \"Contracts/Teknofest.sol\":8810:8837  agreements[whichAgreement_] */\n      0x00\n      dup3\n      dup2\n      mstore\n        /* \"Contracts/Teknofest.sol\":8810:8820  agreements */\n      0x06\n        /* \"Contracts/Teknofest.sol\":8810:8837  agreements[whichAgreement_] */\n      0x20\n      mstore\n      0x40\n      swap1\n      dup2\n      swap1\n      keccak256\n        /* \"Contracts/Teknofest.sol\":8810:8847  agreements[whichAgreement_].middleman */\n      0x03\n      dup2\n      add\n        /* \"Contracts/Teknofest.sol\":8810:8860  agreements[whichAgreement_].middleman = msg.sender */\n      dup1\n      sload\n      not(sub(shl(0xa0, 0x01), 0x01))\n      and\n        /* \"Contracts/Teknofest.sol\":8850:8860  msg.sender */\n      caller\n        /* \"Contracts/Teknofest.sol\":8810:8860  agreements[whichAgreement_].middleman = msg.sender */\n      or\n      swap1\n      sstore\n        /* \"Contracts/Teknofest.sol\":8878:8925  middlemanValidated(agreements[whichAgreement_]) */\n      swap1\n      mload\n      0x8e2794fe81d3de94f11720da5c041740f288e2259807db54455a9450a2b9d9d3\n      swap2\n      tag_140\n      swap2\n      tag_141\n      jump\t// in\n    tag_140:\n      mload(0x40)\n      dup1\n      swap2\n      sub\n      swap1\n      log1\n        /* \"Contracts/Teknofest.sol\":8576:8933  function middleManValidate(bytes32 whichAgreement_, uint whichMiddleman_) public {... */\n      pop\n      pop\n      jump\t// out\n        /* \"Contracts/Teknofest.sol\":11715:12619  function resolveDispluteAI(bytes32 whichAgreement_, address beneficiary) public {... */\n    tag_41:\n        /* \"Contracts/Teknofest.sol\":11828:11837  AIaddress */\n      and(sub(shl(0xa0, 0x01), 0x01), sload(0x01))\n        /* \"Contracts/Teknofest.sol\":11814:11824  msg.sender */\n      caller\n        /* \"Contracts/Teknofest.sol\":11814:11837  msg.sender == AIaddress */\n      eq\n        /* \"Contracts/Teknofest.sol\":11806:11885  require(msg.sender == AIaddress, \"You are not allowed to resolve this dispute\") */\n      tag_143\n      jumpi\n      mload(0x40)\n      shl(0xe5, 0x461bcd)\n      dup2\n      mstore\n      0x04\n      add\n      tag_138\n      swap1\n      tag_145\n      jump\t// in\n    tag_143:\n        /* \"Contracts/Teknofest.sol\":11904:11931  agreements[whichAgreement_] */\n      0x00\n      dup3\n      dup2\n      mstore\n        /* \"Contracts/Teknofest.sol\":11904:11914  agreements */\n      0x06\n        /* \"Contracts/Teknofest.sol\":11904:11931  agreements[whichAgreement_] */\n      0x20\n      dup2\n      swap1\n      mstore\n      0x40\n      swap1\n      swap2\n      keccak256\n        /* \"Contracts/Teknofest.sol\":11904:11945  agreements[whichAgreement_].disputeRaised */\n      add\n      sload\n      0x010000\n      swap1\n      div\n      0xff\n      and\n        /* \"Contracts/Teknofest.sol\":11904:11953  agreements[whichAgreement_].disputeRaised == true */\n      iszero\n      iszero\n        /* \"Contracts/Teknofest.sol\":11949:11953  true */\n      0x01\n        /* \"Contracts/Teknofest.sol\":11904:11953  agreements[whichAgreement_].disputeRaised == true */\n      eq\n        /* \"Contracts/Teknofest.sol\":11896:12001  require(agreements[whichAgreement_].disputeRaised == true, \"There is no dispute raied in this agreement\") */\n      tag_146\n      jumpi\n      mload(0x40)\n      shl(0xe5, 0x461bcd)\n      dup2\n      mstore\n      0x04\n      add\n      tag_138\n      swap1\n      tag_148\n      jump\t// in\n    tag_146:\n        /* \"Contracts/Teknofest.sol\":12035:12062  agreements[whichAgreement_] */\n      0x00\n      dup3\n      dup2\n      mstore\n        /* \"Contracts/Teknofest.sol\":12035:12045  agreements */\n      0x06\n        /* \"Contracts/Teknofest.sol\":12035:12062  agreements[whichAgreement_] */\n      0x20\n      mstore\n      0x40\n      swap1\n      keccak256\n        /* \"Contracts/Teknofest.sol\":12035:12071  agreements[whichAgreement_].employee */\n      0x02\n      add\n      sload\n      sub(shl(0xa0, 0x01), 0x01)\n        /* \"Contracts/Teknofest.sol\":12020:12071  beneficiary == agreements[whichAgreement_].employee */\n      dup3\n      dup2\n      and\n        /* \"Contracts/Teknofest.sol\":12035:12071  agreements[whichAgreement_].employee */\n      swap2\n      and\n        /* \"Contracts/Teknofest.sol\":12020:12071  beneficiary == agreements[whichAgreement_].employee */\n      eq\n      dup1\n        /* \"Contracts/Teknofest.sol\":12020:12126  beneficiary == agreements[whichAgreement_].employee || beneficiary == agreements[whichAgreement_].employer */\n      tag_149\n      jumpi\n      pop\n        /* \"Contracts/Teknofest.sol\":12090:12117  agreements[whichAgreement_] */\n      0x00\n      dup3\n      dup2\n      mstore\n        /* \"Contracts/Teknofest.sol\":12090:12100  agreements */\n      0x06\n        /* \"Contracts/Teknofest.sol\":12090:12117  agreements[whichAgreement_] */\n      0x20\n      mstore\n      0x40\n      swap1\n      keccak256\n        /* \"Contracts/Teknofest.sol\":12090:12126  agreements[whichAgreement_].employer */\n      0x01\n      add\n      sload\n      sub(shl(0xa0, 0x01), 0x01)\n        /* \"Contracts/Teknofest.sol\":12075:12126  beneficiary == agreements[whichAgreement_].employer */\n      dup3\n      dup2\n      and\n        /* \"Contracts/Teknofest.sol\":12090:12126  agreements[whichAgreement_].employer */\n      swap2\n      and\n        /* \"Contracts/Teknofest.sol\":12075:12126  beneficiary == agreements[whichAgreement_].employer */\n      eq\n        /* \"Contracts/Teknofest.sol\":12020:12126  beneficiary == agreements[whichAgreement_].employee || beneficiary == agreements[whichAgreement_].employer */\n    tag_149:\n        /* \"Contracts/Teknofest.sol\":12012:12199  require(beneficiary == agreements[whichAgreement_].employee || beneficiary == agreements[whichAgreement_].employer, \"The beneficiary is not an employee nor an employer of this agreement\") */\n      tag_150\n      jumpi\n      mload(0x40)\n      shl(0xe5, 0x461bcd)\n      dup2\n      mstore\n        /* \"#utility.yul\":7831:7833   */\n      0x20\n        /* \"Contracts/Teknofest.sol\":12012:12199  require(beneficiary == agreements[whichAgreement_].employee || beneficiary == agreements[whichAgreement_].employer, \"The beneficiary is not an employee nor an employer of this agreement\") */\n      0x04\n      dup3\n      add\n        /* \"#utility.yul\":7813:7834   */\n      mstore\n        /* \"#utility.yul\":7870:7872   */\n      0x44\n        /* \"#utility.yul\":7850:7868   */\n      0x24\n      dup3\n      add\n        /* \"#utility.yul\":7843:7873   */\n      dup2\n      swap1\n      mstore\n        /* \"#utility.yul\":7909:7943   */\n      0x5468652062656e6566696369617279206973206e6f7420616e20656d706c6f79\n        /* \"#utility.yul\":7889:7907   */\n      swap1\n      dup3\n      add\n        /* \"#utility.yul\":7882:7944   */\n      mstore\n        /* \"#utility.yul\":7980:8014   */\n      0x6565206e6f7220616e20656d706c6f796572206f662074686973206167726565\n        /* \"#utility.yul\":7960:7978   */\n      0x64\n      dup3\n      add\n        /* \"#utility.yul\":7953:8015   */\n      mstore\n      shl(0xe2, 0x1b595b9d)\n        /* \"#utility.yul\":8031:8050   */\n      0x84\n      dup3\n      add\n        /* \"#utility.yul\":8024:8059   */\n      mstore\n        /* \"#utility.yul\":8076:8095   */\n      0xa4\n      add\n        /* \"Contracts/Teknofest.sol\":12012:12199  require(beneficiary == agreements[whichAgreement_].employee || beneficiary == agreements[whichAgreement_].employer, \"The beneficiary is not an employee nor an employer of this agreement\") */\n      tag_138\n        /* \"#utility.yul\":7629:8101   */\n      jump\n        /* \"Contracts/Teknofest.sol\":12012:12199  require(beneficiary == agreements[whichAgreement_].employee || beneficiary == agreements[whichAgreement_].employer, \"The beneficiary is not an employee nor an employer of this agreement\") */\n    tag_150:\n        /* \"Contracts/Teknofest.sol\":12218:12245  agreements[whichAgreement_] */\n      0x00\n      dup3\n      dup2\n      mstore\n        /* \"Contracts/Teknofest.sol\":12218:12228  agreements */\n      0x06\n        /* \"Contracts/Teknofest.sol\":12218:12245  agreements[whichAgreement_] */\n      0x20\n      dup2\n      swap1\n      mstore\n      0x40\n      swap1\n      swap2\n      keccak256\n        /* \"Contracts/Teknofest.sol\":12218:12258  agreements[whichAgreement_].resolveCheck */\n      add\n      sload\n      0x01000000\n      swap1\n      div\n      0xff\n      and\n        /* \"Contracts/Teknofest.sol\":12218:12267  agreements[whichAgreement_].resolveCheck == false */\n      iszero\n        /* \"Contracts/Teknofest.sol\":12210:12302  require(agreements[whichAgreement_].resolveCheck == false, \"This dispute has been resolved\") */\n      tag_153\n      jumpi\n      mload(0x40)\n      shl(0xe5, 0x461bcd)\n      dup2\n      mstore\n        /* \"#utility.yul\":8308:8310   */\n      0x20\n        /* \"Contracts/Teknofest.sol\":12210:12302  require(agreements[whichAgreement_].resolveCheck == false, \"This dispute has been resolved\") */\n      0x04\n      dup3\n      add\n        /* \"#utility.yul\":8290:8311   */\n      mstore\n        /* \"#utility.yul\":8347:8349   */\n      0x1e\n        /* \"#utility.yul\":8327:8345   */\n      0x24\n      dup3\n      add\n        /* \"#utility.yul\":8320:8350   */\n      mstore\n        /* \"#utility.yul\":8386:8418   */\n      0x54686973206469737075746520686173206265656e207265736f6c7665640000\n        /* \"#utility.yul\":8366:8384   */\n      0x44\n      dup3\n      add\n        /* \"#utility.yul\":8359:8419   */\n      mstore\n        /* \"#utility.yul\":8436:8454   */\n      0x64\n      add\n        /* \"Contracts/Teknofest.sol\":12210:12302  require(agreements[whichAgreement_].resolveCheck == false, \"This dispute has been resolved\") */\n      tag_138\n        /* \"#utility.yul\":8106:8460   */\n      jump\n        /* \"Contracts/Teknofest.sol\":12210:12302  require(agreements[whichAgreement_].resolveCheck == false, \"This dispute has been resolved\") */\n    tag_153:\n        /* \"Contracts/Teknofest.sol\":12323:12350  agreements[whichAgreement_] */\n      0x00\n      dup3\n      dup2\n      mstore\n        /* \"Contracts/Teknofest.sol\":12323:12333  agreements */\n      0x06\n        /* \"Contracts/Teknofest.sol\":12323:12350  agreements[whichAgreement_] */\n      0x20\n      dup2\n      swap1\n      mstore\n      0x40\n      dup1\n      dup4\n      keccak256\n        /* \"Contracts/Teknofest.sol\":12323:12363  agreements[whichAgreement_].resolveCheck */\n      swap2\n      dup3\n      add\n        /* \"Contracts/Teknofest.sol\":12323:12370  agreements[whichAgreement_].resolveCheck = true */\n      dup1\n      sload\n      not(0xff000000)\n      and\n      0x01000000\n      or\n      swap1\n      sstore\n        /* \"Contracts/Teknofest.sol\":12404:12449  agreements[whichAgreement_].amountForEmployee */\n      0x04\n      swap1\n      swap2\n      add\n      sload\n        /* \"Contracts/Teknofest.sol\":12460:12504  payable(beneficiary).transfer(amountToStake) */\n      swap1\n      mload\n        /* \"Contracts/Teknofest.sol\":12404:12449  agreements[whichAgreement_].amountForEmployee */\n      swap1\n      swap2\n      sub(shl(0xa0, 0x01), 0x01)\n        /* \"Contracts/Teknofest.sol\":12460:12489  payable(beneficiary).transfer */\n      dup5\n      and\n      swap2\n        /* \"Contracts/Teknofest.sol\":12460:12504  payable(beneficiary).transfer(amountToStake) */\n      dup4\n      iszero\n      0x08fc\n      mul\n      swap2\n        /* \"Contracts/Teknofest.sol\":12404:12449  agreements[whichAgreement_].amountForEmployee */\n      dup5\n      swap2\n        /* \"Contracts/Teknofest.sol\":12460:12504  payable(beneficiary).transfer(amountToStake) */\n      swap1\n      dup2\n        /* \"Contracts/Teknofest.sol\":12323:12350  agreements[whichAgreement_] */\n      dup2\n        /* \"Contracts/Teknofest.sol\":12460:12504  payable(beneficiary).transfer(amountToStake) */\n      dup2\n        /* \"Contracts/Teknofest.sol\":12404:12449  agreements[whichAgreement_].amountForEmployee */\n      dup6\n        /* \"Contracts/Teknofest.sol\":12460:12489  payable(beneficiary).transfer */\n      dup9\n        /* \"Contracts/Teknofest.sol\":12460:12504  payable(beneficiary).transfer(amountToStake) */\n      dup9\n      call\n      swap4\n      pop\n      pop\n      pop\n      pop\n      iszero\n      dup1\n      iszero\n      tag_157\n      jumpi\n      returndatasize\n      0x00\n      dup1\n      returndatacopy\n      revert(0x00, returndatasize)\n    tag_157:\n      pop\n        /* \"Contracts/Teknofest.sol\":12536:12549  amountToStake */\n      dup1\n        /* \"Contracts/Teknofest.sol\":12517:12532  balanceRecieved */\n      0x00\n      dup1\n        /* \"Contracts/Teknofest.sol\":12517:12549  balanceRecieved -= amountToStake */\n      dup3\n      dup3\n      sload\n      tag_158\n      swap2\n      swap1\n      tag_159\n      jump\t// in\n    tag_158:\n      swap1\n      swap2\n      sstore\n      pop\n      pop\n        /* \"Contracts/Teknofest.sol\":12583:12610  agreements[whichAgreement_] */\n      0x00\n      dup4\n      dup2\n      mstore\n        /* \"Contracts/Teknofest.sol\":12583:12593  agreements */\n      0x06\n        /* \"Contracts/Teknofest.sol\":12583:12610  agreements[whichAgreement_] */\n      0x20\n      mstore\n      0x40\n      swap1\n      dup2\n      swap1\n      keccak256\n        /* \"Contracts/Teknofest.sol\":12567:12611  disputeResolved(agreements[whichAgreement_]) */\n      swap1\n      mload\n      0x4414e2410dc3f703de3e5e59f569037a7a0cad3ba316efa45884d1ecb9eb87b6\n      swap2\n      tag_160\n      swap2\n      tag_141\n      jump\t// in\n    tag_160:\n      mload(0x40)\n      dup1\n      swap2\n      sub\n      swap1\n      log1\n        /* \"Contracts/Teknofest.sol\":11795:12619  {... */\n      pop\n        /* \"Contracts/Teknofest.sol\":11715:12619  function resolveDispluteAI(bytes32 whichAgreement_, address beneficiary) public {... */\n      pop\n      pop\n      jump\t// out\n        /* \"Contracts/Teknofest.sol\":9224:9829  function setEmployerValidate(bytes32 whichAgreement_) public {... */\n    tag_51:\n        /* \"Contracts/Teknofest.sol\":9304:9331  agreements[whichAgreement_] */\n      0x00\n      dup2\n      dup2\n      mstore\n        /* \"Contracts/Teknofest.sol\":9304:9314  agreements */\n      0x06\n        /* \"Contracts/Teknofest.sol\":9304:9331  agreements[whichAgreement_] */\n      0x20\n      mstore\n      0x40\n      swap1\n      keccak256\n        /* \"Contracts/Teknofest.sol\":9304:9340  agreements[whichAgreement_].employer */\n      0x01\n      add\n      sload\n      sub(shl(0xa0, 0x01), 0x01)\n      and\n        /* \"Contracts/Teknofest.sol\":9344:9354  msg.sender */\n      caller\n        /* \"Contracts/Teknofest.sol\":9304:9354  agreements[whichAgreement_].employer == msg.sender */\n      eq\n        /* \"Contracts/Teknofest.sol\":9296:9401  require(agreements[whichAgreement_].employer == msg.sender, \"You are not the employer of this agreement\") */\n      tag_162\n      jumpi\n      mload(0x40)\n      shl(0xe5, 0x461bcd)\n      dup2\n      mstore\n        /* \"#utility.yul\":8932:8934   */\n      0x20\n        /* \"Contracts/Teknofest.sol\":9296:9401  require(agreements[whichAgreement_].employer == msg.sender, \"You are not the employer of this agreement\") */\n      0x04\n      dup3\n      add\n        /* \"#utility.yul\":8914:8935   */\n      mstore\n        /* \"#utility.yul\":8971:8973   */\n      0x2a\n        /* \"#utility.yul\":8951:8969   */\n      0x24\n      dup3\n      add\n        /* \"#utility.yul\":8944:8974   */\n      mstore\n        /* \"#utility.yul\":9010:9044   */\n      0x596f7520617265206e6f742074686520656d706c6f796572206f662074686973\n        /* \"#utility.yul\":8990:9008   */\n      0x44\n      dup3\n      add\n        /* \"#utility.yul\":8983:9045   */\n      mstore\n      shl(0xb2, 0x081859dc99595b595b9d)\n        /* \"#utility.yul\":9061:9079   */\n      0x64\n      dup3\n      add\n        /* \"#utility.yul\":9054:9094   */\n      mstore\n        /* \"#utility.yul\":9111:9130   */\n      0x84\n      add\n        /* \"Contracts/Teknofest.sol\":9296:9401  require(agreements[whichAgreement_].employer == msg.sender, \"You are not the employer of this agreement\") */\n      tag_138\n        /* \"#utility.yul\":8730:9136   */\n      jump\n        /* \"Contracts/Teknofest.sol\":9296:9401  require(agreements[whichAgreement_].employer == msg.sender, \"You are not the employer of this agreement\") */\n    tag_162:\n        /* \"Contracts/Teknofest.sol\":9420:9447  agreements[whichAgreement_] */\n      0x00\n      dup2\n      dup2\n      mstore\n        /* \"Contracts/Teknofest.sol\":9420:9430  agreements */\n      0x06\n        /* \"Contracts/Teknofest.sol\":9420:9447  agreements[whichAgreement_] */\n      0x20\n      dup2\n      swap1\n      mstore\n      0x40\n      swap1\n      swap2\n      keccak256\n        /* \"Contracts/Teknofest.sol\":9420:9460  agreements[whichAgreement_].employeeDone */\n      add\n      sload\n      0xff\n      and\n        /* \"Contracts/Teknofest.sol\":9420:9468  agreements[whichAgreement_].employeeDone == true */\n      iszero\n      iszero\n        /* \"Contracts/Teknofest.sol\":9420:9460  agreements[whichAgreement_].employeeDone */\n      0x01\n        /* \"Contracts/Teknofest.sol\":9420:9468  agreements[whichAgreement_].employeeDone == true */\n      eq\n        /* \"Contracts/Teknofest.sol\":9412:9516  require(agreements[whichAgreement_].employeeDone == true, \"The employee is not done with this task yet\") */\n      tag_165\n      jumpi\n      mload(0x40)\n      shl(0xe5, 0x461bcd)\n      dup2\n      mstore\n        /* \"#utility.yul\":9343:9345   */\n      0x20\n        /* \"Contracts/Teknofest.sol\":9412:9516  require(agreements[whichAgreement_].employeeDone == true, \"The employee is not done with this task yet\") */\n      0x04\n      dup3\n      add\n        /* \"#utility.yul\":9325:9346   */\n      mstore\n        /* \"#utility.yul\":9382:9384   */\n      0x2b\n        /* \"#utility.yul\":9362:9380   */\n      0x24\n      dup3\n      add\n        /* \"#utility.yul\":9355:9385   */\n      mstore\n        /* \"#utility.yul\":9421:9455   */\n      0x54686520656d706c6f796565206973206e6f7420646f6e652077697468207468\n        /* \"#utility.yul\":9401:9419   */\n      0x44\n      dup3\n      add\n        /* \"#utility.yul\":9394:9456   */\n      mstore\n      shl(0xaa, 0x1a5cc81d185cdac81e595d)\n        /* \"#utility.yul\":9472:9490   */\n      0x64\n      dup3\n      add\n        /* \"#utility.yul\":9465:9506   */\n      mstore\n        /* \"#utility.yul\":9523:9542   */\n      0x84\n      add\n        /* \"Contracts/Teknofest.sol\":9412:9516  require(agreements[whichAgreement_].employeeDone == true, \"The employee is not done with this task yet\") */\n      tag_138\n        /* \"#utility.yul\":9141:9548   */\n      jump\n        /* \"Contracts/Teknofest.sol\":9412:9516  require(agreements[whichAgreement_].employeeDone == true, \"The employee is not done with this task yet\") */\n    tag_165:\n        /* \"Contracts/Teknofest.sol\":9529:9556  agreements[whichAgreement_] */\n      0x00\n      dup2\n      dup2\n      mstore\n        /* \"Contracts/Teknofest.sol\":9529:9539  agreements */\n      0x06\n        /* \"Contracts/Teknofest.sol\":9529:9556  agreements[whichAgreement_] */\n      0x20\n      dup2\n      swap1\n      mstore\n      0x40\n      dup1\n      dup4\n      keccak256\n        /* \"Contracts/Teknofest.sol\":9529:9573  agreements[whichAgreement_].employerValidate */\n      swap2\n      dup3\n      add\n        /* \"Contracts/Teknofest.sol\":9529:9580  agreements[whichAgreement_].employerValidate = true */\n      dup1\n      sload\n      not(0xff00)\n      and\n      0x0100\n      or\n      swap1\n      sstore\n        /* \"Contracts/Teknofest.sol\":9612:9657  agreements[whichAgreement_].amountForEmployee */\n      0x04\n      dup3\n      add\n      sload\n        /* \"Contracts/Teknofest.sol\":9676:9712  agreements[whichAgreement_].employee */\n      0x02\n      swap1\n      swap3\n      add\n      sload\n        /* \"Contracts/Teknofest.sol\":9668:9737  payable(agreements[whichAgreement_].employee).transfer(amountToStake) */\n      swap1\n      mload\n        /* \"Contracts/Teknofest.sol\":9612:9657  agreements[whichAgreement_].amountForEmployee */\n      swap2\n      swap3\n      sub(shl(0xa0, 0x01), 0x01)\n        /* \"Contracts/Teknofest.sol\":9676:9712  agreements[whichAgreement_].employee */\n      swap1\n      swap2\n      and\n      swap2\n        /* \"Contracts/Teknofest.sol\":9668:9737  payable(agreements[whichAgreement_].employee).transfer(amountToStake) */\n      dup4\n      iszero\n      0x08fc\n      mul\n      swap2\n        /* \"Contracts/Teknofest.sol\":9612:9657  agreements[whichAgreement_].amountForEmployee */\n      dup5\n      swap2\n        /* \"Contracts/Teknofest.sol\":9668:9737  payable(agreements[whichAgreement_].employee).transfer(amountToStake) */\n      swap1\n      dup2\n        /* \"Contracts/Teknofest.sol\":9529:9556  agreements[whichAgreement_] */\n      dup2\n        /* \"Contracts/Teknofest.sol\":9668:9737  payable(agreements[whichAgreement_].employee).transfer(amountToStake) */\n      dup2\n        /* \"Contracts/Teknofest.sol\":9612:9657  agreements[whichAgreement_].amountForEmployee */\n      dup6\n        /* \"Contracts/Teknofest.sol\":9676:9712  agreements[whichAgreement_].employee */\n      dup9\n        /* \"Contracts/Teknofest.sol\":9668:9737  payable(agreements[whichAgreement_].employee).transfer(amountToStake) */\n      dup9\n      call\n      swap4\n      pop\n      pop\n      pop\n      pop\n      iszero\n      dup1\n      iszero\n      tag_169\n      jumpi\n      returndatasize\n      0x00\n      dup1\n      returndatacopy\n      revert(0x00, returndatasize)\n    tag_169:\n      pop\n        /* \"Contracts/Teknofest.sol\":9767:9780  amountToStake */\n      dup1\n        /* \"Contracts/Teknofest.sol\":9748:9763  balanceRecieved */\n      0x00\n      dup1\n        /* \"Contracts/Teknofest.sol\":9748:9780  balanceRecieved -= amountToStake */\n      dup3\n      dup3\n      sload\n      tag_170\n      swap2\n      swap1\n      tag_159\n      jump\t// in\n    tag_170:\n      swap1\n      swap2\n      sstore\n      pop\n      pop\n        /* \"Contracts/Teknofest.sol\":9798:9821  employerValidated(true) */\n      mload(0x40)\n        /* \"Contracts/Teknofest.sol\":9816:9820  true */\n      0x01\n        /* \"#utility.yul\":9693:9734   */\n      dup2\n      mstore\n        /* \"Contracts/Teknofest.sol\":9798:9821  employerValidated(true) */\n      0xa4ede5d74c01c87599cae178018f06f538ed1c40ac51ee85cbe677e1f7501741\n      swap1\n        /* \"#utility.yul\":9681:9683   */\n      0x20\n        /* \"#utility.yul\":9666:9684   */\n      add\n        /* \"Contracts/Teknofest.sol\":9798:9821  employerValidated(true) */\n      tag_140\n        /* \"#utility.yul\":9553:9740   */\n      jump\n        /* \"Contracts/Teknofest.sol\":5312:5658  function applyOfferedWork(bytes32 which_) public onlyEmployee {... */\n    tag_68:\n        /* \"Contracts/Teknofest.sol\":3134:3144  msg.sender */\n      caller\n        /* \"Contracts/Teknofest.sol\":3125:3145  accounts[msg.sender] */\n      0x00\n      swap1\n      dup2\n      mstore\n        /* \"Contracts/Teknofest.sol\":3125:3133  accounts */\n      0x04\n        /* \"Contracts/Teknofest.sol\":3125:3145  accounts[msg.sender] */\n      0x20\n      mstore\n      0x40\n      swap1\n      keccak256\n        /* \"Contracts/Teknofest.sol\":3125:3156  accounts[msg.sender].isEmployee */\n      sload\n      0xff\n      0x0100\n      swap1\n      swap2\n      div\n      and\n        /* \"Contracts/Teknofest.sol\":3125:3164  accounts[msg.sender].isEmployee == true */\n      iszero\n      iszero\n        /* \"Contracts/Teknofest.sol\":3125:3156  accounts[msg.sender].isEmployee */\n      0x01\n        /* \"Contracts/Teknofest.sol\":3125:3164  accounts[msg.sender].isEmployee == true */\n      eq\n        /* \"Contracts/Teknofest.sol\":3117:3206  require(accounts[msg.sender].isEmployee == true, \"You need to be an employee to do that\") */\n      tag_174\n      jumpi\n      mload(0x40)\n      shl(0xe5, 0x461bcd)\n      dup2\n      mstore\n        /* \"#utility.yul\":9947:9949   */\n      0x20\n        /* \"Contracts/Teknofest.sol\":3117:3206  require(accounts[msg.sender].isEmployee == true, \"You need to be an employee to do that\") */\n      0x04\n      dup3\n      add\n        /* \"#utility.yul\":9929:9950   */\n      mstore\n        /* \"#utility.yul\":9986:9988   */\n      0x25\n        /* \"#utility.yul\":9966:9984   */\n      0x24\n      dup3\n      add\n        /* \"#utility.yul\":9959:9989   */\n      mstore\n        /* \"#utility.yul\":10025:10059   */\n      0x596f75206e65656420746f20626520616e20656d706c6f79656520746f20646f\n        /* \"#utility.yul\":10005:10023   */\n      0x44\n      dup3\n      add\n        /* \"#utility.yul\":9998:10060   */\n      mstore\n      shl(0xda, 0x081d1a185d)\n        /* \"#utility.yul\":10076:10094   */\n      0x64\n      dup3\n      add\n        /* \"#utility.yul\":10069:10104   */\n      mstore\n        /* \"#utility.yul\":10121:10140   */\n      0x84\n      add\n        /* \"Contracts/Teknofest.sol\":3117:3206  require(accounts[msg.sender].isEmployee == true, \"You need to be an employee to do that\") */\n      tag_138\n        /* \"#utility.yul\":9745:10146   */\n      jump\n        /* \"Contracts/Teknofest.sol\":3117:3206  require(accounts[msg.sender].isEmployee == true, \"You need to be an employee to do that\") */\n    tag_174:\n        /* \"Contracts/Teknofest.sol\":5393:5413  offeredWorks[which_] */\n      0x00\n      dup2\n      dup2\n      mstore\n        /* \"Contracts/Teknofest.sol\":5393:5405  offeredWorks */\n      0x05\n        /* \"Contracts/Teknofest.sol\":5393:5413  offeredWorks[which_] */\n      0x20\n      mstore\n      0x40\n      swap1\n      keccak256\n        /* \"Contracts/Teknofest.sol\":5393:5422  offeredWorks[which_].isSealed */\n      0x04\n      add\n      sload\n      0xff\n      and\n        /* \"Contracts/Teknofest.sol\":5393:5431  offeredWorks[which_].isSealed == false */\n      iszero\n        /* \"Contracts/Teknofest.sol\":5385:5456  require(offeredWorks[which_].isSealed == false, \"This task is now off\") */\n      tag_178\n      jumpi\n      mload(0x40)\n      shl(0xe5, 0x461bcd)\n      dup2\n      mstore\n      0x04\n      add\n      tag_138\n      swap1\n      tag_180\n      jump\t// in\n    tag_178:\n        /* \"Contracts/Teknofest.sol\":5467:5487  offeredWorks[which_] */\n      0x00\n      dup2\n      dup2\n      mstore\n        /* \"Contracts/Teknofest.sol\":5467:5479  offeredWorks */\n      0x05\n        /* \"Contracts/Teknofest.sol\":5467:5487  offeredWorks[which_] */\n      0x20\n      mstore\n      0x40\n      dup2\n      keccak256\n        /* \"Contracts/Teknofest.sol\":5467:5503  offeredWorks[which_].numOfCandidates */\n      0x02\n      add\n        /* \"Contracts/Teknofest.sol\":5467:5505  offeredWorks[which_].numOfCandidates++ */\n      dup1\n      sload\n      swap2\n      tag_181\n      dup4\n      tag_182\n      jump\t// in\n    tag_181:\n      swap1\n      swap2\n      sstore\n      pop\n      pop\n        /* \"Contracts/Teknofest.sol\":5516:5534  candidates[which_] */\n      0x00\n      dup2\n      dup2\n      mstore\n        /* \"Contracts/Teknofest.sol\":5516:5526  candidates */\n      0x07\n        /* \"Contracts/Teknofest.sol\":5516:5534  candidates[which_] */\n      0x20\n      swap1\n      dup2\n      mstore\n      0x40\n      dup1\n      dup4\n      keccak256\n        /* \"Contracts/Teknofest.sol\":5535:5547  offeredWorks */\n      0x05\n        /* \"Contracts/Teknofest.sol\":5535:5555  offeredWorks[which_] */\n      dup1\n      dup5\n      mstore\n      dup3\n      dup6\n      keccak256\n        /* \"Contracts/Teknofest.sol\":5535:5571  offeredWorks[which_].numOfCandidates */\n      0x02\n      dup2\n      add\n      sload\n        /* \"Contracts/Teknofest.sol\":5516:5572  candidates[which_][offeredWorks[which_].numOfCandidates] */\n      dup7\n      mstore\n      swap2\n      dup5\n      mstore\n      dup3\n      dup6\n      keccak256\n        /* \"Contracts/Teknofest.sol\":5516:5585  candidates[which_][offeredWorks[which_].numOfCandidates] = msg.sender */\n      dup1\n      sload\n      not(sub(shl(0xa0, 0x01), 0x01))\n      and\n        /* \"Contracts/Teknofest.sol\":5575:5585  msg.sender */\n      caller\n        /* \"Contracts/Teknofest.sol\":5516:5585  candidates[which_][offeredWorks[which_].numOfCandidates] = msg.sender */\n      swap1\n      dup2\n      or\n      swap1\n      swap2\n      sstore\n        /* \"Contracts/Teknofest.sol\":5629:5649  offeredWorks[which_] */\n      swap5\n      dup7\n      swap1\n      mstore\n      swap1\n      swap3\n      mstore\n        /* \"Contracts/Teknofest.sol\":5603:5650  appliedToWork(msg.sender, offeredWorks[which_]) */\n      mload\n      0x125d2a0bdb8a3a40e7436cc2059497256bd2245b87d54dd0355626f896915b6a\n      swap2\n      tag_183\n      swap2\n      tag_184\n      jump\t// in\n    tag_183:\n      mload(0x40)\n      dup1\n      swap2\n      sub\n      swap1\n      log2\n        /* \"Contracts/Teknofest.sol\":5312:5658  function applyOfferedWork(bytes32 which_) public onlyEmployee {... */\n      pop\n      jump\t// out\n        /* \"Contracts/Teknofest.sol\":4142:4731  function offerWork() public payable onlyEmployer {... */\n    tag_70:\n        /* \"Contracts/Teknofest.sol\":2985:2995  msg.sender */\n      caller\n        /* \"Contracts/Teknofest.sol\":2976:2996  accounts[msg.sender] */\n      0x00\n      swap1\n      dup2\n      mstore\n        /* \"Contracts/Teknofest.sol\":2976:2984  accounts */\n      0x04\n        /* \"Contracts/Teknofest.sol\":2976:2996  accounts[msg.sender] */\n      0x20\n      mstore\n      0x40\n      swap1\n      keccak256\n        /* \"Contracts/Teknofest.sol\":2976:3007  accounts[msg.sender].isEmployer */\n      sload\n      0xff\n      and\n        /* \"Contracts/Teknofest.sol\":2976:3015  accounts[msg.sender].isEmployer == true */\n      iszero\n      iszero\n        /* \"Contracts/Teknofest.sol\":2976:3007  accounts[msg.sender].isEmployer */\n      0x01\n        /* \"Contracts/Teknofest.sol\":2976:3015  accounts[msg.sender].isEmployer == true */\n      eq\n        /* \"Contracts/Teknofest.sol\":2968:3057  require(accounts[msg.sender].isEmployer == true, \"You need to be an employer to do that\") */\n      tag_186\n      jumpi\n      mload(0x40)\n      shl(0xe5, 0x461bcd)\n      dup2\n      mstore\n      0x04\n      add\n      tag_138\n      swap1\n      tag_188\n      jump\t// in\n    tag_186:\n        /* \"Contracts/Teknofest.sol\":4223:4231  10 ** 12 */\n      0xe8d4a51000\n        /* \"Contracts/Teknofest.sol\":4210:4219  msg.value */\n      callvalue\n        /* \"Contracts/Teknofest.sol\":4210:4231  msg.value >= 10 ** 12 */\n      lt\n      iszero\n        /* \"Contracts/Teknofest.sol\":4202:4261  require(msg.value >= 10 ** 12, \"Insufficient stake amount\") */\n      tag_190\n      jumpi\n      mload(0x40)\n      shl(0xe5, 0x461bcd)\n      dup2\n      mstore\n        /* \"#utility.yul\":11796:11798   */\n      0x20\n        /* \"Contracts/Teknofest.sol\":4202:4261  require(msg.value >= 10 ** 12, \"Insufficient stake amount\") */\n      0x04\n      dup3\n      add\n        /* \"#utility.yul\":11778:11799   */\n      mstore\n        /* \"#utility.yul\":11835:11837   */\n      0x19\n        /* \"#utility.yul\":11815:11833   */\n      0x24\n      dup3\n      add\n        /* \"#utility.yul\":11808:11838   */\n      mstore\n        /* \"#utility.yul\":11874:11901   */\n      0x496e73756666696369656e74207374616b6520616d6f756e7400000000000000\n        /* \"#utility.yul\":11854:11872   */\n      0x44\n      dup3\n      add\n        /* \"#utility.yul\":11847:11902   */\n      mstore\n        /* \"#utility.yul\":11919:11937   */\n      0x64\n      add\n        /* \"Contracts/Teknofest.sol\":4202:4261  require(msg.value >= 10 ** 12, \"Insufficient stake amount\") */\n      tag_138\n        /* \"#utility.yul\":11594:11943   */\n      jump\n        /* \"Contracts/Teknofest.sol\":4202:4261  require(msg.value >= 10 ** 12, \"Insufficient stake amount\") */\n    tag_190:\n        /* \"Contracts/Teknofest.sol\":4274:4304  OfferedWork memory offeredWork */\n      tag_193\n      mload(0x40)\n      dup1\n      0xa0\n      add\n      0x40\n      mstore\n      dup1\n      0x00\n      dup2\n      mstore\n      0x20\n      add\n      and(sub(shl(0xa0, 0x01), 0x01), 0x00)\n      dup2\n      mstore\n      0x20\n      add\n      0x00\n      dup2\n      mstore\n      0x20\n      add\n      0x00\n      dup2\n      mstore\n      0x20\n      add\n      iszero(iszero(0x00))\n      dup2\n      mstore\n      pop\n      swap1\n      jump\n    tag_193:\n        /* \"Contracts/Teknofest.sol\":4338:4348  msg.sender */\n      caller\n        /* \"Contracts/Teknofest.sol\":4315:4335  offeredWork.employer */\n      0x20\n      dup3\n      add\n        /* \"Contracts/Teknofest.sol\":4315:4348  offeredWork.employer = msg.sender */\n      mstore\n        /* \"Contracts/Teknofest.sol\":4375:4384  msg.value */\n      callvalue\n        /* \"Contracts/Teknofest.sol\":4395:4420  offeredWork.amountToStake */\n      0x60\n      dup3\n      add\n        /* \"Contracts/Teknofest.sol\":4395:4429  offeredWork.amountToStake = staked */\n      dup2\n      swap1\n      mstore\n        /* \"Contracts/Teknofest.sol\":4361:4372  uint staked */\n      0x00\n        /* \"Contracts/Teknofest.sol\":4440:4465  balanceRecieved += staked */\n      dup1\n      sload\n        /* \"Contracts/Teknofest.sol\":4375:4384  msg.value */\n      dup3\n      swap2\n        /* \"Contracts/Teknofest.sol\":4361:4372  uint staked */\n      swap1\n      dup2\n      swap1\n        /* \"Contracts/Teknofest.sol\":4440:4465  balanceRecieved += staked */\n      tag_195\n      swap1\n        /* \"Contracts/Teknofest.sol\":4375:4384  msg.value */\n      dup5\n      swap1\n        /* \"Contracts/Teknofest.sol\":4440:4465  balanceRecieved += staked */\n      tag_196\n      jump\t// in\n    tag_195:\n      swap1\n      swap2\n      sstore\n      pop\n      pop\n        /* \"Contracts/Teknofest.sol\":4486:4496  numOfWorks */\n      0x02\n        /* \"Contracts/Teknofest.sol\":4486:4498  numOfWorks++ */\n      dup1\n      sload\n      swap1\n        /* \"Contracts/Teknofest.sol\":4486:4496  numOfWorks */\n      0x00\n        /* \"Contracts/Teknofest.sol\":4486:4498  numOfWorks++ */\n      tag_197\n      dup4\n      tag_182\n      jump\t// in\n    tag_197:\n      swap1\n      swap2\n      sstore\n      pop\n      pop\n        /* \"Contracts/Teknofest.sol\":4529:4539  numOfWorks */\n      sload(0x02)\n        /* \"Contracts/Teknofest.sol\":4509:4539  offeredWork.nonce = numOfWorks */\n      dup3\n      mstore\n        /* \"Contracts/Teknofest.sol\":4586:4609  abi.encode(offeredWork) */\n      mload(0x40)\n        /* \"Contracts/Teknofest.sol\":4509:4526  offeredWork.nonce */\n      0x00\n      swap1\n        /* \"Contracts/Teknofest.sol\":4586:4609  abi.encode(offeredWork) */\n      tag_198\n      swap1\n        /* \"Contracts/Teknofest.sol\":4509:4520  offeredWork */\n      dup5\n      swap1\n        /* \"Contracts/Teknofest.sol\":4586:4609  abi.encode(offeredWork) */\n      0x20\n      add\n      tag_199\n      jump\t// in\n    tag_198:\n      0x40\n      dup1\n      mload\n      dup1\n      dup4\n      sub\n      not(0x1f)\n      add\n      dup2\n      mstore\n      dup3\n      dup3\n      mstore\n        /* \"Contracts/Teknofest.sol\":4576:4610  keccak256(abi.encode(offeredWork)) */\n      dup1\n      mload\n        /* \"Contracts/Teknofest.sol\":4586:4609  abi.encode(offeredWork) */\n      0x20\n        /* \"Contracts/Teknofest.sol\":4576:4610  keccak256(abi.encode(offeredWork)) */\n      swap2\n      dup3\n      add\n      keccak256\n        /* \"Contracts/Teknofest.sol\":4621:4650  offeredWorks[offeredWorkHash] */\n      0x00\n      dup2\n      dup2\n      mstore\n        /* \"Contracts/Teknofest.sol\":4621:4633  offeredWorks */\n      0x05\n        /* \"Contracts/Teknofest.sol\":4621:4650  offeredWorks[offeredWorkHash] */\n      dup4\n      mstore\n      dup4\n      swap1\n      keccak256\n        /* \"Contracts/Teknofest.sol\":4621:4664  offeredWorks[offeredWorkHash] = offeredWork */\n      dup8\n      mload\n      dup2\n      sstore\n      swap2\n      dup8\n      add\n      mload\n      0x01\n      dup4\n      add\n      dup1\n      sload\n      not(sub(shl(0xa0, 0x01), 0x01))\n      and\n      sub(shl(0xa0, 0x01), 0x01)\n      swap1\n      swap3\n      and\n      swap2\n      swap1\n      swap2\n      or\n      swap1\n      sstore\n      swap2\n      dup7\n      add\n      mload\n      0x02\n      dup3\n      add\n      sstore\n      0x60\n      dup7\n      add\n      mload\n      0x03\n      dup3\n      add\n      sstore\n      0x80\n      dup7\n      add\n      mload\n      0x04\n      swap1\n      swap2\n      add\n      dup1\n      sload\n      not(0xff)\n      and\n      swap2\n      iszero\n      iszero\n      swap2\n      swap1\n      swap2\n      or\n      swap1\n      sstore\n        /* \"Contracts/Teknofest.sol\":4576:4610  keccak256(abi.encode(offeredWork)) */\n      swap2\n      pop\n        /* \"Contracts/Teknofest.sol\":4682:4723  workOffered(offeredWorkHash, offeredWork) */\n      0x6aaaee1f7978f24b816a48f45856820482005d4a498a03b7ee0d253d5620d7e4\n      swap1\n      tag_160\n      swap1\n        /* \"Contracts/Teknofest.sol\":4576:4610  keccak256(abi.encode(offeredWork)) */\n      dup4\n      swap1\n        /* \"Contracts/Teknofest.sol\":4621:4664  offeredWorks[offeredWorkHash] = offeredWork */\n      dup7\n      swap1\n        /* \"Contracts/Teknofest.sol\":4682:4723  workOffered(offeredWorkHash, offeredWork) */\n      tag_201\n      jump\t// in\n        /* \"Contracts/Teknofest.sol\":8941:9216  function setEmployeeDone(bytes32 whichAgreement_) public {... */\n    tag_80:\n        /* \"Contracts/Teknofest.sol\":9017:9044  agreements[whichAgreement_] */\n      0x00\n      dup2\n      dup2\n      mstore\n        /* \"Contracts/Teknofest.sol\":9017:9027  agreements */\n      0x06\n        /* \"Contracts/Teknofest.sol\":9017:9044  agreements[whichAgreement_] */\n      0x20\n      mstore\n      0x40\n      swap1\n      keccak256\n        /* \"Contracts/Teknofest.sol\":9017:9053  agreements[whichAgreement_].employee */\n      0x02\n      add\n      sload\n      sub(shl(0xa0, 0x01), 0x01)\n      and\n        /* \"Contracts/Teknofest.sol\":9057:9067  msg.sender */\n      caller\n        /* \"Contracts/Teknofest.sol\":9017:9067  agreements[whichAgreement_].employee == msg.sender */\n      eq\n        /* \"Contracts/Teknofest.sol\":9009:9114  require(agreements[whichAgreement_].employee == msg.sender, \"You are not the employee of this agreement\") */\n      tag_203\n      jumpi\n      mload(0x40)\n      shl(0xe5, 0x461bcd)\n      dup2\n      mstore\n        /* \"#utility.yul\":13242:13244   */\n      0x20\n        /* \"Contracts/Teknofest.sol\":9009:9114  require(agreements[whichAgreement_].employee == msg.sender, \"You are not the employee of this agreement\") */\n      0x04\n      dup3\n      add\n        /* \"#utility.yul\":13224:13245   */\n      mstore\n        /* \"#utility.yul\":13281:13283   */\n      0x2a\n        /* \"#utility.yul\":13261:13279   */\n      0x24\n      dup3\n      add\n        /* \"#utility.yul\":13254:13284   */\n      mstore\n        /* \"#utility.yul\":13320:13354   */\n      0x596f7520617265206e6f742074686520656d706c6f796565206f662074686973\n        /* \"#utility.yul\":13300:13318   */\n      0x44\n      dup3\n      add\n        /* \"#utility.yul\":13293:13355   */\n      mstore\n      shl(0xb2, 0x081859dc99595b595b9d)\n        /* \"#utility.yul\":13371:13389   */\n      0x64\n      dup3\n      add\n        /* \"#utility.yul\":13364:13404   */\n      mstore\n        /* \"#utility.yul\":13421:13440   */\n      0x84\n      add\n        /* \"Contracts/Teknofest.sol\":9009:9114  require(agreements[whichAgreement_].employee == msg.sender, \"You are not the employee of this agreement\") */\n      tag_138\n        /* \"#utility.yul\":13040:13446   */\n      jump\n        /* \"Contracts/Teknofest.sol\":9009:9114  require(agreements[whichAgreement_].employee == msg.sender, \"You are not the employee of this agreement\") */\n    tag_203:\n        /* \"Contracts/Teknofest.sol\":9125:9152  agreements[whichAgreement_] */\n      0x00\n      dup2\n      dup2\n      mstore\n        /* \"Contracts/Teknofest.sol\":9125:9135  agreements */\n      0x06\n        /* \"Contracts/Teknofest.sol\":9125:9152  agreements[whichAgreement_] */\n      0x20\n      dup2\n      dup2\n      mstore\n      0x40\n      swap3\n      dup4\n      swap1\n      keccak256\n        /* \"Contracts/Teknofest.sol\":9125:9165  agreements[whichAgreement_].employeeDone */\n      swap1\n      swap2\n      add\n        /* \"Contracts/Teknofest.sol\":9125:9172  agreements[whichAgreement_].employeeDone = true */\n      dup1\n      sload\n      not(0xff)\n      and\n        /* \"Contracts/Teknofest.sol\":9168:9172  true */\n      0x01\n        /* \"Contracts/Teknofest.sol\":9125:9172  agreements[whichAgreement_].employeeDone = true */\n      swap1\n      dup2\n      or\n      swap1\n      swap2\n      sstore\n        /* \"Contracts/Teknofest.sol\":9190:9208  employeeDone(true) */\n      swap2\n      mload\n        /* \"#utility.yul\":9693:9734   */\n      swap2\n      dup3\n      mstore\n        /* \"Contracts/Teknofest.sol\":9190:9208  employeeDone(true) */\n      0x6b5b92d1755824b841015b7514f1ac495070c0c43a54e1910906802b69d8ef1a\n      swap2\n        /* \"#utility.yul\":9666:9684   */\n      add\n        /* \"Contracts/Teknofest.sol\":9190:9208  employeeDone(true) */\n    tag_206:\n      mload(0x40)\n      dup1\n      swap2\n      sub\n      swap1\n      log1\n        /* \"Contracts/Teknofest.sol\":8941:9216  function setEmployeeDone(bytes32 whichAgreement_) public {... */\n      pop\n      jump\t// out\n        /* \"Contracts/Teknofest.sol\":3310:4134  function newAccount(bool isEmployee_, bool isEmployer_,bool isMiddleman_) public {... */\n    tag_85:\n        /* \"Contracts/Teknofest.sol\":3402:3419  uint accountBools */\n      0x00\n        /* \"Contracts/Teknofest.sol\":3436:3447  isEmployee_ */\n      dup4\n        /* \"Contracts/Teknofest.sol\":3432:3490  if (isEmployee_) {... */\n      iszero\n      tag_208\n      jumpi\n        /* \"Contracts/Teknofest.sol\":3464:3478  accountBools++ */\n      dup1\n      tag_209\n      dup2\n      tag_182\n      jump\t// in\n    tag_209:\n      swap2\n      pop\n      pop\n        /* \"Contracts/Teknofest.sol\":3432:3490  if (isEmployee_) {... */\n    tag_208:\n        /* \"Contracts/Teknofest.sol\":3504:3515  isEmployer_ */\n      dup3\n        /* \"Contracts/Teknofest.sol\":3500:3558  if (isEmployer_) {... */\n      iszero\n      tag_210\n      jumpi\n        /* \"Contracts/Teknofest.sol\":3532:3546  accountBools++ */\n      dup1\n      tag_211\n      dup2\n      tag_182\n      jump\t// in\n    tag_211:\n      swap2\n      pop\n      pop\n        /* \"Contracts/Teknofest.sol\":3500:3558  if (isEmployer_) {... */\n    tag_210:\n        /* \"Contracts/Teknofest.sol\":3572:3584  isMiddleman_ */\n      dup2\n        /* \"Contracts/Teknofest.sol\":3568:3627  if (isMiddleman_) {... */\n      iszero\n      tag_212\n      jumpi\n        /* \"Contracts/Teknofest.sol\":3601:3615  accountBools++ */\n      dup1\n      tag_213\n      dup2\n      tag_182\n      jump\t// in\n    tag_213:\n      swap2\n      pop\n      pop\n        /* \"Contracts/Teknofest.sol\":3568:3627  if (isMiddleman_) {... */\n    tag_212:\n        /* \"Contracts/Teknofest.sol\":3647:3659  accountBools */\n      dup1\n        /* \"Contracts/Teknofest.sol\":3663:3664  1 */\n      0x01\n        /* \"Contracts/Teknofest.sol\":3647:3664  accountBools == 1 */\n      eq\n        /* \"Contracts/Teknofest.sol\":3639:3693  require(accountBools == 1, \"Please choose one option\") */\n      tag_214\n      jumpi\n      mload(0x40)\n      shl(0xe5, 0x461bcd)\n      dup2\n      mstore\n        /* \"#utility.yul\":13653:13655   */\n      0x20\n        /* \"Contracts/Teknofest.sol\":3639:3693  require(accountBools == 1, \"Please choose one option\") */\n      0x04\n      dup3\n      add\n        /* \"#utility.yul\":13635:13656   */\n      mstore\n        /* \"#utility.yul\":13692:13694   */\n      0x18\n        /* \"#utility.yul\":13672:13690   */\n      0x24\n      dup3\n      add\n        /* \"#utility.yul\":13665:13695   */\n      mstore\n        /* \"#utility.yul\":13731:13757   */\n      0x506c656173652063686f6f7365206f6e65206f7074696f6e0000000000000000\n        /* \"#utility.yul\":13711:13729   */\n      0x44\n      dup3\n      add\n        /* \"#utility.yul\":13704:13758   */\n      mstore\n        /* \"#utility.yul\":13775:13793   */\n      0x64\n      add\n        /* \"Contracts/Teknofest.sol\":3639:3693  require(accountBools == 1, \"Please choose one option\") */\n      tag_138\n        /* \"#utility.yul\":13451:13799   */\n      jump\n        /* \"Contracts/Teknofest.sol\":3639:3693  require(accountBools == 1, \"Please choose one option\") */\n    tag_214:\n        /* \"Contracts/Teknofest.sol\":3721:3731  msg.sender */\n      caller\n        /* \"Contracts/Teknofest.sol\":3712:3732  accounts[msg.sender] */\n      0x00\n      swap1\n      dup2\n      mstore\n        /* \"Contracts/Teknofest.sol\":3712:3720  accounts */\n      0x04\n        /* \"Contracts/Teknofest.sol\":3712:3732  accounts[msg.sender] */\n      0x20\n      mstore\n      0x40\n      swap1\n      keccak256\n        /* \"Contracts/Teknofest.sol\":3712:3743  accounts[msg.sender].registered */\n      sload\n      0x01000000\n      swap1\n      div\n      0xff\n      and\n        /* \"Contracts/Teknofest.sol\":3712:3752  accounts[msg.sender].registered == false */\n      iszero\n        /* \"Contracts/Teknofest.sol\":3704:3783  require(accounts[msg.sender].registered == false, \"You are already registered\") */\n      tag_217\n      jumpi\n      mload(0x40)\n      shl(0xe5, 0x461bcd)\n      dup2\n      mstore\n        /* \"#utility.yul\":14006:14008   */\n      0x20\n        /* \"Contracts/Teknofest.sol\":3704:3783  require(accounts[msg.sender].registered == false, \"You are already registered\") */\n      0x04\n      dup3\n      add\n        /* \"#utility.yul\":13988:14009   */\n      mstore\n        /* \"#utility.yul\":14045:14047   */\n      0x1a\n        /* \"#utility.yul\":14025:14043   */\n      0x24\n      dup3\n      add\n        /* \"#utility.yul\":14018:14048   */\n      mstore\n        /* \"#utility.yul\":14084:14112   */\n      0x596f752061726520616c72656164792072656769737465726564000000000000\n        /* \"#utility.yul\":14064:14082   */\n      0x44\n      dup3\n      add\n        /* \"#utility.yul\":14057:14113   */\n      mstore\n        /* \"#utility.yul\":14130:14148   */\n      0x64\n      add\n        /* \"Contracts/Teknofest.sol\":3704:3783  require(accounts[msg.sender].registered == false, \"You are already registered\") */\n      tag_138\n        /* \"#utility.yul\":13804:14154   */\n      jump\n        /* \"Contracts/Teknofest.sol\":3704:3783  require(accounts[msg.sender].registered == false, \"You are already registered\") */\n    tag_217:\n      0x40\n      dup1\n      mload\n      0x80\n      dup1\n      dup3\n      add\n      dup4\n      mstore\n        /* \"Contracts/Teknofest.sol\":3829:3863  account.isMiddleman = isMiddleman_ */\n      dup5\n      iszero\n      iszero\n      dup3\n      dup5\n      add\n      swap1\n      dup2\n      mstore\n        /* \"Contracts/Teknofest.sol\":3874:3906  account.isEmployer = isEmployer_ */\n      dup7\n      iszero\n      iszero\n      dup4\n      mstore\n        /* \"Contracts/Teknofest.sol\":3917:3949  account.isEmployee = isEmployee_ */\n      dup8\n      iszero\n      iszero\n      0x20\n      dup1\n      dup6\n      add\n      swap2\n      dup3\n      mstore\n        /* \"Contracts/Teknofest.sol\":4026:4030  true */\n      0x01\n      0x60\n      dup1\n      dup8\n      add\n        /* \"Contracts/Teknofest.sol\":4005:4030  account.registered = true */\n      swap2\n      dup3\n      mstore\n        /* \"Contracts/Teknofest.sol\":4050:4060  msg.sender */\n      caller\n      0x00\n        /* \"Contracts/Teknofest.sol\":4041:4061  accounts[msg.sender] */\n      dup2\n      dup2\n      mstore\n        /* \"Contracts/Teknofest.sol\":4041:4049  accounts */\n      0x04\n        /* \"Contracts/Teknofest.sol\":4041:4061  accounts[msg.sender] */\n      dup6\n      mstore\n      dup10\n      swap1\n      keccak256\n        /* \"Contracts/Teknofest.sol\":4041:4071  accounts[msg.sender] = account */\n      dup9\n      mload\n      dup2\n      sload\n      dup8\n      mload\n      dup10\n      mload\n      dup8\n      mload\n      iszero\n      iszero\n      0x01000000\n      mul\n      not(0xff000000)\n      swap2\n      iszero\n      iszero\n      0x010000\n      mul\n      swap2\n      swap1\n      swap2\n      and\n      not(0xffff0000)\n      swap3\n      iszero\n      iszero\n      0x0100\n      mul\n      not(0xff00)\n      swap6\n      iszero\n      iszero\n      swap6\n      dup7\n      and\n      not(0xffff)\n      swap1\n      swap6\n      and\n      swap5\n      swap1\n      swap5\n      or\n      swap4\n      swap1\n      swap4\n      or\n      swap2\n      swap1\n      swap2\n      and\n      swap2\n      swap1\n      swap2\n      or\n      or\n      swap1\n      swap2\n      sstore\n        /* \"Contracts/Teknofest.sol\":4091:4126  accountCreated(msg.sender, account) */\n      dup10\n      mload\n        /* \"#utility.yul\":14354:14402   */\n      swap1\n      dup2\n      mstore\n        /* \"#utility.yul\":14454:14478   */\n      swap5\n      mload\n        /* \"#utility.yul\":14447:14479   */\n      iszero\n        /* \"#utility.yul\":14440:14480   */\n      iszero\n        /* \"#utility.yul\":14418:14438   */\n      swap4\n      dup6\n      add\n        /* \"#utility.yul\":14411:14481   */\n      swap4\n      swap1\n      swap4\n      mstore\n        /* \"#utility.yul\":14533:14557   */\n      swap4\n      mload\n        /* \"#utility.yul\":14526:14558   */\n      iszero\n        /* \"#utility.yul\":14519:14559   */\n      iszero\n        /* \"#utility.yul\":14497:14517   */\n      swap7\n      dup4\n      add\n        /* \"#utility.yul\":14490:14560   */\n      swap7\n      swap1\n      swap7\n      mstore\n        /* \"#utility.yul\":14612:14636   */\n      swap5\n      mload\n        /* \"#utility.yul\":14605:14637   */\n      iszero\n        /* \"#utility.yul\":14598:14638   */\n      iszero\n        /* \"#utility.yul\":14576:14596   */\n      swap2\n      dup2\n      add\n        /* \"#utility.yul\":14569:14639   */\n      swap2\n      swap1\n      swap2\n      mstore\n      swap2\n      swap3\n        /* \"Contracts/Teknofest.sol\":4050:4060  msg.sender */\n      swap2\n        /* \"Contracts/Teknofest.sol\":4091:4126  accountCreated(msg.sender, account) */\n      0xce3414a9430a9f7eaffc6c778a41650564295838a267ba27e9b19324936c57bd\n      swap2\n        /* \"#utility.yul\":14326:14345   */\n      add\n        /* \"Contracts/Teknofest.sol\":4091:4126  accountCreated(msg.sender, account) */\n      mload(0x40)\n      dup1\n      swap2\n      sub\n      swap1\n      log2\n        /* \"Contracts/Teknofest.sol\":3391:4134  {... */\n      pop\n      pop\n        /* \"Contracts/Teknofest.sol\":3310:4134  function newAccount(bool isEmployee_, bool isEmployer_,bool isMiddleman_) public {... */\n      pop\n      pop\n      pop\n      jump\t// out\n        /* \"Contracts/Teknofest.sol\":6813:7740  function suggestMiddleman(bytes32 whichAgreement_, address middleman_) public {... */\n    tag_104:\n        /* \"Contracts/Teknofest.sol\":6910:6937  agreements[whichAgreement_] */\n      0x00\n      dup3\n      dup2\n      mstore\n        /* \"Contracts/Teknofest.sol\":6910:6920  agreements */\n      0x06\n        /* \"Contracts/Teknofest.sol\":6910:6937  agreements[whichAgreement_] */\n      0x20\n      mstore\n      0x40\n      swap1\n      keccak256\n        /* \"Contracts/Teknofest.sol\":6910:6946  agreements[whichAgreement_].employee */\n      0x02\n      add\n      sload\n      sub(shl(0xa0, 0x01), 0x01)\n      and\n        /* \"Contracts/Teknofest.sol\":6950:6960  msg.sender */\n      caller\n        /* \"Contracts/Teknofest.sol\":6910:6960  agreements[whichAgreement_].employee == msg.sender */\n      eq\n      dup1\n        /* \"Contracts/Teknofest.sol\":6910:7014  agreements[whichAgreement_].employee == msg.sender || agreements[whichAgreement_].employer == msg.sender */\n      tag_226\n      jumpi\n      pop\n        /* \"Contracts/Teknofest.sol\":6964:6991  agreements[whichAgreement_] */\n      0x00\n      dup3\n      dup2\n      mstore\n        /* \"Contracts/Teknofest.sol\":6964:6974  agreements */\n      0x06\n        /* \"Contracts/Teknofest.sol\":6964:6991  agreements[whichAgreement_] */\n      0x20\n      mstore\n      0x40\n      swap1\n      keccak256\n        /* \"Contracts/Teknofest.sol\":6964:7000  agreements[whichAgreement_].employer */\n      0x01\n      add\n      sload\n      sub(shl(0xa0, 0x01), 0x01)\n      and\n        /* \"Contracts/Teknofest.sol\":7004:7014  msg.sender */\n      caller\n        /* \"Contracts/Teknofest.sol\":6964:7014  agreements[whichAgreement_].employer == msg.sender */\n      eq\n        /* \"Contracts/Teknofest.sol\":6910:7014  agreements[whichAgreement_].employee == msg.sender || agreements[whichAgreement_].employer == msg.sender */\n    tag_226:\n        /* \"Contracts/Teknofest.sol\":6902:7049  require(agreements[whichAgreement_].employee == msg.sender || agreements[whichAgreement_].employer == msg.sender, \"You are not allowed to suggest\") */\n      tag_227\n      jumpi\n      mload(0x40)\n      shl(0xe5, 0x461bcd)\n      dup2\n      mstore\n        /* \"#utility.yul\":14852:14854   */\n      0x20\n        /* \"Contracts/Teknofest.sol\":6902:7049  require(agreements[whichAgreement_].employee == msg.sender || agreements[whichAgreement_].employer == msg.sender, \"You are not allowed to suggest\") */\n      0x04\n      dup3\n      add\n        /* \"#utility.yul\":14834:14855   */\n      mstore\n        /* \"#utility.yul\":14891:14893   */\n      0x1e\n        /* \"#utility.yul\":14871:14889   */\n      0x24\n      dup3\n      add\n        /* \"#utility.yul\":14864:14894   */\n      mstore\n        /* \"#utility.yul\":14930:14962   */\n      0x596f7520617265206e6f7420616c6c6f77656420746f20737567676573740000\n        /* \"#utility.yul\":14910:14928   */\n      0x44\n      dup3\n      add\n        /* \"#utility.yul\":14903:14963   */\n      mstore\n        /* \"#utility.yul\":14980:14998   */\n      0x64\n      add\n        /* \"Contracts/Teknofest.sol\":6902:7049  require(agreements[whichAgreement_].employee == msg.sender || agreements[whichAgreement_].employer == msg.sender, \"You are not allowed to suggest\") */\n      tag_138\n        /* \"#utility.yul\":14650:15004   */\n      jump\n        /* \"Contracts/Teknofest.sol\":6902:7049  require(agreements[whichAgreement_].employee == msg.sender || agreements[whichAgreement_].employer == msg.sender, \"You are not allowed to suggest\") */\n    tag_227:\n        /* \"Contracts/Teknofest.sol\":7068:7102  middleManVotePool[whichAgreement_] */\n      0x00\n      dup3\n      dup2\n      mstore\n        /* \"Contracts/Teknofest.sol\":7068:7085  middleManVotePool */\n      0x08\n        /* \"Contracts/Teknofest.sol\":7068:7102  middleManVotePool[whichAgreement_] */\n      0x20\n      swap1\n      dup2\n      mstore\n      0x40\n      dup1\n      dup4\n      keccak256\n      sub(shl(0xa0, 0x01), 0x01)\n        /* \"Contracts/Teknofest.sol\":7068:7114  middleManVotePool[whichAgreement_][middleman_] */\n      dup6\n      and\n      dup5\n      mstore\n      dup3\n      mstore\n      dup1\n      dup4\n      keccak256\n        /* \"Contracts/Teknofest.sol\":7115:7125  msg.sender */\n      caller\n        /* \"Contracts/Teknofest.sol\":7068:7126  middleManVotePool[whichAgreement_][middleman_][msg.sender] */\n      dup5\n      mstore\n      swap1\n      swap2\n      mstore\n      swap1\n      keccak256\n      sload\n      0xff\n      and\n        /* \"Contracts/Teknofest.sol\":7068:7135  middleManVotePool[whichAgreement_][middleman_][msg.sender] == false */\n      iszero\n        /* \"Contracts/Teknofest.sol\":7060:7176  require(middleManVotePool[whichAgreement_][middleman_][msg.sender] == false, \"You already voted for this middleman\") */\n      tag_230\n      jumpi\n      mload(0x40)\n      shl(0xe5, 0x461bcd)\n      dup2\n      mstore\n        /* \"#utility.yul\":15211:15213   */\n      0x20\n        /* \"Contracts/Teknofest.sol\":7060:7176  require(middleManVotePool[whichAgreement_][middleman_][msg.sender] == false, \"You already voted for this middleman\") */\n      0x04\n      dup3\n      add\n        /* \"#utility.yul\":15193:15214   */\n      mstore\n        /* \"#utility.yul\":15250:15252   */\n      0x24\n        /* \"#utility.yul\":15230:15248   */\n      dup1\n      dup3\n      add\n        /* \"#utility.yul\":15223:15253   */\n      mstore\n        /* \"#utility.yul\":15289:15323   */\n      0x596f7520616c726561647920766f74656420666f722074686973206d6964646c\n        /* \"#utility.yul\":15269:15287   */\n      0x44\n      dup3\n      add\n        /* \"#utility.yul\":15262:15324   */\n      mstore\n      shl(0xe1, 0x32b6b0b7)\n        /* \"#utility.yul\":15340:15358   */\n      0x64\n      dup3\n      add\n        /* \"#utility.yul\":15333:15367   */\n      mstore\n        /* \"#utility.yul\":15384:15403   */\n      0x84\n      add\n        /* \"Contracts/Teknofest.sol\":7060:7176  require(middleManVotePool[whichAgreement_][middleman_][msg.sender] == false, \"You already voted for this middleman\") */\n      tag_138\n        /* \"#utility.yul\":15009:15409   */\n      jump\n        /* \"Contracts/Teknofest.sol\":7060:7176  require(middleManVotePool[whichAgreement_][middleman_][msg.sender] == false, \"You already voted for this middleman\") */\n    tag_230:\n        /* \"Contracts/Teknofest.sol\":7244:7245  0 */\n      0x00\n        /* \"Contracts/Teknofest.sol\":7195:7222  agreements[whichAgreement_] */\n      dup3\n      dup2\n      mstore\n        /* \"Contracts/Teknofest.sol\":7195:7205  agreements */\n      0x06\n        /* \"Contracts/Teknofest.sol\":7195:7222  agreements[whichAgreement_] */\n      0x20\n      mstore\n      0x40\n      swap1\n      keccak256\n        /* \"Contracts/Teknofest.sol\":7195:7232  agreements[whichAgreement_].middleman */\n      0x03\n      add\n      sload\n      sub(shl(0xa0, 0x01), 0x01)\n      and\n        /* \"Contracts/Teknofest.sol\":7195:7246  agreements[whichAgreement_].middleman == address(0) */\n      iszero\n        /* \"Contracts/Teknofest.sol\":7187:7279  require(agreements[whichAgreement_].middleman == address(0), \"You already have a middleman\") */\n      tag_233\n      jumpi\n      mload(0x40)\n      shl(0xe5, 0x461bcd)\n      dup2\n      mstore\n        /* \"#utility.yul\":15616:15618   */\n      0x20\n        /* \"Contracts/Teknofest.sol\":7187:7279  require(agreements[whichAgreement_].middleman == address(0), \"You already have a middleman\") */\n      0x04\n      dup3\n      add\n        /* \"#utility.yul\":15598:15619   */\n      mstore\n        /* \"#utility.yul\":15655:15657   */\n      0x1c\n        /* \"#utility.yul\":15635:15653   */\n      0x24\n      dup3\n      add\n        /* \"#utility.yul\":15628:15658   */\n      mstore\n        /* \"#utility.yul\":15694:15724   */\n      0x596f7520616c726561647920686176652061206d6964646c656d616e00000000\n        /* \"#utility.yul\":15674:15692   */\n      0x44\n      dup3\n      add\n        /* \"#utility.yul\":15667:15725   */\n      mstore\n        /* \"#utility.yul\":15742:15760   */\n      0x64\n      add\n        /* \"Contracts/Teknofest.sol\":7187:7279  require(agreements[whichAgreement_].middleman == address(0), \"You already have a middleman\") */\n      tag_138\n        /* \"#utility.yul\":15414:15766   */\n      jump\n        /* \"Contracts/Teknofest.sol\":7187:7279  require(agreements[whichAgreement_].middleman == address(0), \"You already have a middleman\") */\n    tag_233:\n      sub(shl(0xa0, 0x01), 0x01)\n        /* \"Contracts/Teknofest.sol\":7298:7318  accounts[middleman_] */\n      dup2\n      and\n      0x00\n      swap1\n      dup2\n      mstore\n        /* \"Contracts/Teknofest.sol\":7298:7306  accounts */\n      0x04\n        /* \"Contracts/Teknofest.sol\":7298:7318  accounts[middleman_] */\n      0x20\n      mstore\n      0x40\n      swap1\n      keccak256\n        /* \"Contracts/Teknofest.sol\":7298:7330  accounts[middleman_].isMiddleman */\n      sload\n      0x010000\n      swap1\n      div\n      0xff\n      and\n        /* \"Contracts/Teknofest.sol\":7290:7366  require(accounts[middleman_].isMiddleman, \"This address is not a middleman\") */\n      tag_236\n      jumpi\n      mload(0x40)\n      shl(0xe5, 0x461bcd)\n      dup2\n      mstore\n        /* \"#utility.yul\":15973:15975   */\n      0x20\n        /* \"Contracts/Teknofest.sol\":7290:7366  require(accounts[middleman_].isMiddleman, \"This address is not a middleman\") */\n      0x04\n      dup3\n      add\n        /* \"#utility.yul\":15955:15976   */\n      mstore\n        /* \"#utility.yul\":16012:16014   */\n      0x1f\n        /* \"#utility.yul\":15992:16010   */\n      0x24\n      dup3\n      add\n        /* \"#utility.yul\":15985:16015   */\n      mstore\n        /* \"#utility.yul\":16051:16084   */\n      0x546869732061646472657373206973206e6f742061206d6964646c656d616e00\n        /* \"#utility.yul\":16031:16049   */\n      0x44\n      dup3\n      add\n        /* \"#utility.yul\":16024:16085   */\n      mstore\n        /* \"#utility.yul\":16102:16120   */\n      0x64\n      add\n        /* \"Contracts/Teknofest.sol\":7290:7366  require(accounts[middleman_].isMiddleman, \"This address is not a middleman\") */\n      tag_138\n        /* \"#utility.yul\":15771:16126   */\n      jump\n        /* \"Contracts/Teknofest.sol\":7290:7366  require(accounts[middleman_].isMiddleman, \"This address is not a middleman\") */\n    tag_236:\n        /* \"Contracts/Teknofest.sol\":7379:7413  middleManVotePool[whichAgreement_] */\n      0x00\n      dup3\n      dup2\n      mstore\n        /* \"Contracts/Teknofest.sol\":7379:7396  middleManVotePool */\n      0x08\n        /* \"Contracts/Teknofest.sol\":7379:7413  middleManVotePool[whichAgreement_] */\n      0x20\n      swap1\n      dup2\n      mstore\n      0x40\n      dup1\n      dup4\n      keccak256\n      sub(shl(0xa0, 0x01), 0x01)\n        /* \"Contracts/Teknofest.sol\":7379:7425  middleManVotePool[whichAgreement_][middleman_] */\n      dup6\n      and\n      dup1\n      dup6\n      mstore\n      swap1\n      dup4\n      mstore\n      dup2\n      dup5\n      keccak256\n        /* \"Contracts/Teknofest.sol\":7426:7436  msg.sender */\n      caller\n        /* \"Contracts/Teknofest.sol\":7379:7437  middleManVotePool[whichAgreement_][middleman_][msg.sender] */\n      dup6\n      mstore\n      dup4\n      mstore\n      dup2\n      dup5\n      keccak256\n        /* \"Contracts/Teknofest.sol\":7379:7444  middleManVotePool[whichAgreement_][middleman_][msg.sender] = true */\n      dup1\n      sload\n      not(0xff)\n      and\n        /* \"Contracts/Teknofest.sol\":7440:7444  true */\n      0x01\n        /* \"Contracts/Teknofest.sol\":7379:7444  middleManVotePool[whichAgreement_][middleman_][msg.sender] = true */\n      or\n      swap1\n      sstore\n        /* \"Contracts/Teknofest.sol\":7455:7491  middleManVoteNumber[whichAgreement_] */\n      dup6\n      dup5\n      mstore\n        /* \"Contracts/Teknofest.sol\":7455:7474  middleManVoteNumber */\n      0x09\n        /* \"Contracts/Teknofest.sol\":7455:7491  middleManVoteNumber[whichAgreement_] */\n      dup4\n      mstore\n      dup2\n      dup5\n      keccak256\n        /* \"Contracts/Teknofest.sol\":7455:7503  middleManVoteNumber[whichAgreement_][middleman_] */\n      swap1\n      dup5\n      mstore\n      swap1\n      swap2\n      mstore\n      dup2\n      keccak256\n        /* \"Contracts/Teknofest.sol\":7455:7505  middleManVoteNumber[whichAgreement_][middleman_]++ */\n      dup1\n      sload\n      swap2\n      tag_239\n      dup4\n      tag_182\n      jump\t// in\n    tag_239:\n      swap1\n      swap2\n      sstore\n      pop\n      pop\n        /* \"Contracts/Teknofest.sol\":7566:7593  agreements[whichAgreement_] */\n      0x00\n      dup3\n      dup2\n      mstore\n        /* \"Contracts/Teknofest.sol\":7566:7576  agreements */\n      0x06\n        /* \"Contracts/Teknofest.sol\":7566:7593  agreements[whichAgreement_] */\n      0x20\n      mstore\n      0x40\n      swap1\n      dup2\n      swap1\n      keccak256\n        /* \"Contracts/Teknofest.sol\":7523:7594  suggestedMiddleman(msg.sender, middleman_, agreements[whichAgreement_]) */\n      swap1\n      mload\n      0xff979177845809081c92e1ba70979d86da19a33b85fbb9cee73eff3c04bb3278\n      swap2\n      tag_240\n      swap2\n        /* \"Contracts/Teknofest.sol\":7542:7552  msg.sender */\n      caller\n      swap2\n        /* \"Contracts/Teknofest.sol\":7554:7564  middleman_ */\n      dup6\n      swap2\n        /* \"Contracts/Teknofest.sol\":7523:7594  suggestedMiddleman(msg.sender, middleman_, agreements[whichAgreement_]) */\n      tag_241\n      jump\t// in\n    tag_240:\n      mload(0x40)\n      dup1\n      swap2\n      sub\n      swap1\n      log1\n        /* \"Contracts/Teknofest.sol\":7610:7646  middleManVoteNumber[whichAgreement_] */\n      0x00\n      dup3\n      dup2\n      mstore\n        /* \"Contracts/Teknofest.sol\":7610:7629  middleManVoteNumber */\n      0x09\n        /* \"Contracts/Teknofest.sol\":7610:7646  middleManVoteNumber[whichAgreement_] */\n      0x20\n      swap1\n      dup2\n      mstore\n      0x40\n      dup1\n      dup4\n      keccak256\n      sub(shl(0xa0, 0x01), 0x01)\n        /* \"Contracts/Teknofest.sol\":7610:7658  middleManVoteNumber[whichAgreement_][middleman_] */\n      dup6\n      and\n      dup5\n      mstore\n      swap1\n      swap2\n      mstore\n      swap1\n      keccak256\n      sload\n        /* \"Contracts/Teknofest.sol\":7662:7663  2 */\n      0x02\n        /* \"Contracts/Teknofest.sol\":7610:7663  middleManVoteNumber[whichAgreement_][middleman_] == 2 */\n      sub\n        /* \"Contracts/Teknofest.sol\":7607:7733  if(middleManVoteNumber[whichAgreement_][middleman_] == 2) {... */\n      tag_243\n      jumpi\n        /* \"Contracts/Teknofest.sol\":7680:7721  askMiddleman(whichAgreement_, middleman_) */\n      tag_243\n        /* \"Contracts/Teknofest.sol\":7693:7708  whichAgreement_ */\n      dup3\n        /* \"Contracts/Teknofest.sol\":7710:7720  middleman_ */\n      dup3\n        /* \"Contracts/Teknofest.sol\":7680:7692  askMiddleman */\n      tag_244\n        /* \"Contracts/Teknofest.sol\":7680:7721  askMiddleman(whichAgreement_, middleman_) */\n      jump\t// in\n    tag_243:\n        /* \"Contracts/Teknofest.sol\":6813:7740  function suggestMiddleman(bytes32 whichAgreement_, address middleman_) public {... */\n      pop\n      pop\n      jump\t// out\n        /* \"Contracts/Teknofest.sol\":10555:11647  function resolveDispluteMiddleman(bytes32 whichAgreement_, uint employeePercent, uint employerPercent) public {... */\n    tag_109:\n        /* \"Contracts/Teknofest.sol\":10698:10725  agreements[whichAgreement_] */\n      0x00\n      dup4\n      dup2\n      mstore\n        /* \"Contracts/Teknofest.sol\":10698:10708  agreements */\n      0x06\n        /* \"Contracts/Teknofest.sol\":10698:10725  agreements[whichAgreement_] */\n      0x20\n      mstore\n      0x40\n      swap1\n      keccak256\n        /* \"Contracts/Teknofest.sol\":10698:10735  agreements[whichAgreement_].middleman */\n      0x03\n      add\n      sload\n      sub(shl(0xa0, 0x01), 0x01)\n      and\n        /* \"Contracts/Teknofest.sol\":10684:10694  msg.sender */\n      caller\n        /* \"Contracts/Teknofest.sol\":10684:10735  msg.sender == agreements[whichAgreement_].middleman */\n      eq\n        /* \"Contracts/Teknofest.sol\":10676:10783  require(msg.sender == agreements[whichAgreement_].middleman, \"You are not allowed to resolve this dispute\") */\n      tag_246\n      jumpi\n      mload(0x40)\n      shl(0xe5, 0x461bcd)\n      dup2\n      mstore\n      0x04\n      add\n      tag_138\n      swap1\n      tag_145\n      jump\t// in\n    tag_246:\n        /* \"Contracts/Teknofest.sol\":10802:10829  agreements[whichAgreement_] */\n      0x00\n      dup4\n      dup2\n      mstore\n        /* \"Contracts/Teknofest.sol\":10802:10812  agreements */\n      0x06\n        /* \"Contracts/Teknofest.sol\":10802:10829  agreements[whichAgreement_] */\n      0x20\n      dup2\n      swap1\n      mstore\n      0x40\n      swap1\n      swap2\n      keccak256\n        /* \"Contracts/Teknofest.sol\":10802:10843  agreements[whichAgreement_].disputeRaised */\n      add\n      sload\n      0x010000\n      swap1\n      div\n      0xff\n      and\n        /* \"Contracts/Teknofest.sol\":10802:10851  agreements[whichAgreement_].disputeRaised == true */\n      iszero\n      iszero\n        /* \"Contracts/Teknofest.sol\":10847:10851  true */\n      0x01\n        /* \"Contracts/Teknofest.sol\":10802:10851  agreements[whichAgreement_].disputeRaised == true */\n      eq\n        /* \"Contracts/Teknofest.sol\":10794:10899  require(agreements[whichAgreement_].disputeRaised == true, \"There is no dispute raied in this agreement\") */\n      tag_248\n      jumpi\n      mload(0x40)\n      shl(0xe5, 0x461bcd)\n      dup2\n      mstore\n      0x04\n      add\n      tag_138\n      swap1\n      tag_148\n      jump\t// in\n    tag_248:\n        /* \"Contracts/Teknofest.sol\":10918:10945  agreements[whichAgreement_] */\n      0x00\n      dup4\n      dup2\n      mstore\n        /* \"Contracts/Teknofest.sol\":10918:10928  agreements */\n      0x06\n        /* \"Contracts/Teknofest.sol\":10918:10945  agreements[whichAgreement_] */\n      0x20\n      dup2\n      swap1\n      mstore\n      0x40\n      swap1\n      swap2\n      keccak256\n        /* \"Contracts/Teknofest.sol\":10918:10958  agreements[whichAgreement_].resolveCheck */\n      add\n      sload\n      0x01000000\n      swap1\n      div\n      0xff\n      and\n        /* \"Contracts/Teknofest.sol\":10918:10967  agreements[whichAgreement_].resolveCheck == false */\n      iszero\n        /* \"Contracts/Teknofest.sol\":10910:11002  require(agreements[whichAgreement_].resolveCheck == false, \"This dispute has been resolved\") */\n      tag_250\n      jumpi\n      mload(0x40)\n      shl(0xe5, 0x461bcd)\n      dup2\n      mstore\n        /* \"#utility.yul\":8308:8310   */\n      0x20\n        /* \"Contracts/Teknofest.sol\":10910:11002  require(agreements[whichAgreement_].resolveCheck == false, \"This dispute has been resolved\") */\n      0x04\n      dup3\n      add\n        /* \"#utility.yul\":8290:8311   */\n      mstore\n        /* \"#utility.yul\":8347:8349   */\n      0x1e\n        /* \"#utility.yul\":8327:8345   */\n      0x24\n      dup3\n      add\n        /* \"#utility.yul\":8320:8350   */\n      mstore\n        /* \"#utility.yul\":8386:8418   */\n      0x54686973206469737075746520686173206265656e207265736f6c7665640000\n        /* \"#utility.yul\":8366:8384   */\n      0x44\n      dup3\n      add\n        /* \"#utility.yul\":8359:8419   */\n      mstore\n        /* \"#utility.yul\":8436:8454   */\n      0x64\n      add\n        /* \"Contracts/Teknofest.sol\":10910:11002  require(agreements[whichAgreement_].resolveCheck == false, \"This dispute has been resolved\") */\n      tag_138\n        /* \"#utility.yul\":8106:8460   */\n      jump\n        /* \"Contracts/Teknofest.sol\":10910:11002  require(agreements[whichAgreement_].resolveCheck == false, \"This dispute has been resolved\") */\n    tag_250:\n        /* \"Contracts/Teknofest.sol\":11021:11054  employeePercent + employerPercent */\n      tag_252\n        /* \"Contracts/Teknofest.sol\":11039:11054  employerPercent */\n      dup2\n        /* \"Contracts/Teknofest.sol\":11021:11036  employeePercent */\n      dup4\n        /* \"Contracts/Teknofest.sol\":11021:11054  employeePercent + employerPercent */\n      tag_196\n      jump\t// in\n    tag_252:\n        /* \"Contracts/Teknofest.sol\":11058:11061  100 */\n      0x64\n        /* \"Contracts/Teknofest.sol\":11021:11061  employeePercent + employerPercent == 100 */\n      eq\n        /* \"Contracts/Teknofest.sol\":11013:11085  require(employeePercent + employerPercent == 100, \"Invalid percentages\") */\n      tag_253\n      jumpi\n      mload(0x40)\n      shl(0xe5, 0x461bcd)\n      dup2\n      mstore\n        /* \"#utility.yul\":16788:16790   */\n      0x20\n        /* \"Contracts/Teknofest.sol\":11013:11085  require(employeePercent + employerPercent == 100, \"Invalid percentages\") */\n      0x04\n      dup3\n      add\n        /* \"#utility.yul\":16770:16791   */\n      mstore\n        /* \"#utility.yul\":16827:16829   */\n      0x13\n        /* \"#utility.yul\":16807:16825   */\n      0x24\n      dup3\n      add\n        /* \"#utility.yul\":16800:16830   */\n      mstore\n      shl(0x68, 0x496e76616c69642070657263656e7461676573)\n        /* \"#utility.yul\":16846:16864   */\n      0x44\n      dup3\n      add\n        /* \"#utility.yul\":16839:16888   */\n      mstore\n        /* \"#utility.yul\":16905:16923   */\n      0x64\n      add\n        /* \"Contracts/Teknofest.sol\":11013:11085  require(employeePercent + employerPercent == 100, \"Invalid percentages\") */\n      tag_138\n        /* \"#utility.yul\":16586:16929   */\n      jump\n        /* \"Contracts/Teknofest.sol\":11013:11085  require(employeePercent + employerPercent == 100, \"Invalid percentages\") */\n    tag_253:\n        /* \"Contracts/Teknofest.sol\":11098:11125  agreements[whichAgreement_] */\n      0x00\n      dup4\n      dup2\n      mstore\n        /* \"Contracts/Teknofest.sol\":11098:11108  agreements */\n      0x06\n        /* \"Contracts/Teknofest.sol\":11098:11125  agreements[whichAgreement_] */\n      0x20\n      dup2\n      swap1\n      mstore\n      0x40\n      dup3\n      keccak256\n        /* \"Contracts/Teknofest.sol\":11098:11138  agreements[whichAgreement_].resolveCheck */\n      swap1\n      dup2\n      add\n        /* \"Contracts/Teknofest.sol\":11098:11145  agreements[whichAgreement_].resolveCheck = true */\n      dup1\n      sload\n      not(0xff000000)\n      and\n      0x01000000\n      or\n      swap1\n      sstore\n        /* \"Contracts/Teknofest.sol\":11179:11224  agreements[whichAgreement_].amountForEmployee */\n      0x04\n      add\n      sload\n      swap1\n        /* \"Contracts/Teknofest.sol\":11293:11296  100 */\n      0x64\n        /* \"Contracts/Teknofest.sol\":11258:11289  amountToStake * employeePercent */\n      tag_256\n        /* \"Contracts/Teknofest.sol\":11274:11289  employeePercent */\n      dup6\n        /* \"Contracts/Teknofest.sol\":11179:11224  agreements[whichAgreement_].amountForEmployee */\n      dup5\n        /* \"Contracts/Teknofest.sol\":11258:11289  amountToStake * employeePercent */\n      tag_257\n      jump\t// in\n    tag_256:\n        /* \"Contracts/Teknofest.sol\":11257:11296  (amountToStake * employeePercent) / 100 */\n      tag_258\n      swap2\n      swap1\n      tag_259\n      jump\t// in\n    tag_258:\n        /* \"Contracts/Teknofest.sol\":11235:11296  uint amountEmployee = (amountToStake * employeePercent) / 100 */\n      swap1\n      pop\n        /* \"Contracts/Teknofest.sol\":11307:11326  uint amountEmployer */\n      0x00\n        /* \"Contracts/Teknofest.sol\":11365:11368  100 */\n      0x64\n        /* \"Contracts/Teknofest.sol\":11330:11361  amountToStake * employerPercent */\n      tag_260\n        /* \"Contracts/Teknofest.sol\":11346:11361  employerPercent */\n      dup6\n        /* \"Contracts/Teknofest.sol\":11330:11343  amountToStake */\n      dup6\n        /* \"Contracts/Teknofest.sol\":11330:11361  amountToStake * employerPercent */\n      tag_257\n      jump\t// in\n    tag_260:\n        /* \"Contracts/Teknofest.sol\":11329:11368  (amountToStake * employerPercent) / 100 */\n      tag_261\n      swap2\n      swap1\n      tag_259\n      jump\t// in\n    tag_261:\n        /* \"Contracts/Teknofest.sol\":11389:11416  agreements[whichAgreement_] */\n      0x00\n      dup8\n      dup2\n      mstore\n        /* \"Contracts/Teknofest.sol\":11389:11399  agreements */\n      0x06\n        /* \"Contracts/Teknofest.sol\":11389:11416  agreements[whichAgreement_] */\n      0x20\n      mstore\n      0x40\n      dup1\n      dup3\n      keccak256\n        /* \"Contracts/Teknofest.sol\":11389:11425  agreements[whichAgreement_].employee */\n      0x02\n      add\n      sload\n        /* \"Contracts/Teknofest.sol\":11381:11451  payable(agreements[whichAgreement_].employee).transfer(amountEmployee) */\n      swap1\n      mload\n        /* \"Contracts/Teknofest.sol\":11307:11368  uint amountEmployer = (amountToStake * employerPercent) / 100 */\n      swap3\n      swap4\n      pop\n      sub(shl(0xa0, 0x01), 0x01)\n        /* \"Contracts/Teknofest.sol\":11389:11425  agreements[whichAgreement_].employee */\n      and\n      swap2\n        /* \"Contracts/Teknofest.sol\":11381:11451  payable(agreements[whichAgreement_].employee).transfer(amountEmployee) */\n      dup5\n      iszero\n      0x08fc\n      mul\n      swap2\n        /* \"Contracts/Teknofest.sol\":11436:11450  amountEmployee */\n      dup6\n      swap2\n        /* \"Contracts/Teknofest.sol\":11381:11451  payable(agreements[whichAgreement_].employee).transfer(amountEmployee) */\n      swap1\n      dup2\n        /* \"Contracts/Teknofest.sol\":11389:11416  agreements[whichAgreement_] */\n      dup2\n        /* \"Contracts/Teknofest.sol\":11381:11451  payable(agreements[whichAgreement_].employee).transfer(amountEmployee) */\n      dup2\n        /* \"Contracts/Teknofest.sol\":11436:11450  amountEmployee */\n      dup6\n        /* \"Contracts/Teknofest.sol\":11389:11425  agreements[whichAgreement_].employee */\n      dup9\n        /* \"Contracts/Teknofest.sol\":11381:11451  payable(agreements[whichAgreement_].employee).transfer(amountEmployee) */\n      dup9\n      call\n      swap4\n      pop\n      pop\n      pop\n      pop\n      iszero\n      dup1\n      iszero\n      tag_263\n      jumpi\n      returndatasize\n      0x00\n      dup1\n      returndatacopy\n      revert(0x00, returndatasize)\n    tag_263:\n      pop\n        /* \"Contracts/Teknofest.sol\":11470:11497  agreements[whichAgreement_] */\n      0x00\n      dup7\n      dup2\n      mstore\n        /* \"Contracts/Teknofest.sol\":11470:11480  agreements */\n      0x06\n        /* \"Contracts/Teknofest.sol\":11470:11497  agreements[whichAgreement_] */\n      0x20\n      mstore\n      0x40\n      dup1\n      dup3\n      keccak256\n        /* \"Contracts/Teknofest.sol\":11470:11506  agreements[whichAgreement_].employer */\n      0x01\n      add\n      sload\n        /* \"Contracts/Teknofest.sol\":11462:11532  payable(agreements[whichAgreement_].employer).transfer(amountEmployer) */\n      swap1\n      mload\n      sub(shl(0xa0, 0x01), 0x01)\n        /* \"Contracts/Teknofest.sol\":11470:11506  agreements[whichAgreement_].employer */\n      swap1\n      swap2\n      and\n      swap2\n        /* \"Contracts/Teknofest.sol\":11462:11532  payable(agreements[whichAgreement_].employer).transfer(amountEmployer) */\n      dup4\n      iszero\n      0x08fc\n      mul\n      swap2\n        /* \"Contracts/Teknofest.sol\":11517:11531  amountEmployer */\n      dup5\n      swap2\n        /* \"Contracts/Teknofest.sol\":11462:11532  payable(agreements[whichAgreement_].employer).transfer(amountEmployer) */\n      dup2\n        /* \"Contracts/Teknofest.sol\":11470:11497  agreements[whichAgreement_] */\n      dup2\n        /* \"Contracts/Teknofest.sol\":11462:11532  payable(agreements[whichAgreement_].employer).transfer(amountEmployer) */\n      dup2\n        /* \"Contracts/Teknofest.sol\":11517:11531  amountEmployer */\n      dup6\n        /* \"Contracts/Teknofest.sol\":11470:11506  agreements[whichAgreement_].employer */\n      dup9\n        /* \"Contracts/Teknofest.sol\":11462:11532  payable(agreements[whichAgreement_].employer).transfer(amountEmployer) */\n      dup9\n      call\n      swap4\n      pop\n      pop\n      pop\n      pop\n      iszero\n      dup1\n      iszero\n      tag_265\n      jumpi\n      returndatasize\n      0x00\n      dup1\n      returndatacopy\n      revert(0x00, returndatasize)\n    tag_265:\n      pop\n        /* \"Contracts/Teknofest.sol\":11564:11577  amountToStake */\n      dup3\n        /* \"Contracts/Teknofest.sol\":11545:11560  balanceRecieved */\n      0x00\n      dup1\n        /* \"Contracts/Teknofest.sol\":11545:11577  balanceRecieved -= amountToStake */\n      dup3\n      dup3\n      sload\n      tag_266\n      swap2\n      swap1\n      tag_159\n      jump\t// in\n    tag_266:\n      swap1\n      swap2\n      sstore\n      pop\n      pop\n        /* \"Contracts/Teknofest.sol\":11611:11638  agreements[whichAgreement_] */\n      0x00\n      dup7\n      dup2\n      mstore\n        /* \"Contracts/Teknofest.sol\":11611:11621  agreements */\n      0x06\n        /* \"Contracts/Teknofest.sol\":11611:11638  agreements[whichAgreement_] */\n      0x20\n      mstore\n      0x40\n      swap1\n      dup2\n      swap1\n      keccak256\n        /* \"Contracts/Teknofest.sol\":11595:11639  disputeResolved(agreements[whichAgreement_]) */\n      swap1\n      mload\n      0x4414e2410dc3f703de3e5e59f569037a7a0cad3ba316efa45884d1ecb9eb87b6\n      swap2\n      tag_267\n      swap2\n      tag_141\n      jump\t// in\n    tag_267:\n      mload(0x40)\n      dup1\n      swap2\n      sub\n      swap1\n      log1\n        /* \"Contracts/Teknofest.sol\":10665:11647  {... */\n      pop\n      pop\n      pop\n        /* \"Contracts/Teknofest.sol\":10555:11647  function resolveDispluteMiddleman(bytes32 whichAgreement_, uint employeePercent, uint employerPercent) public {... */\n      pop\n      pop\n      pop\n      jump\t// out\n        /* \"Contracts/Teknofest.sol\":9837:10173  function raiseDispute(bytes32 whichAgreement_) public {... */\n    tag_113:\n        /* \"Contracts/Teknofest.sol\":9910:9937  agreements[whichAgreement_] */\n      0x00\n      dup2\n      dup2\n      mstore\n        /* \"Contracts/Teknofest.sol\":9910:9920  agreements */\n      0x06\n        /* \"Contracts/Teknofest.sol\":9910:9937  agreements[whichAgreement_] */\n      0x20\n      mstore\n      0x40\n      swap1\n      keccak256\n        /* \"Contracts/Teknofest.sol\":9910:9946  agreements[whichAgreement_].employee */\n      0x02\n      add\n      sload\n      sub(shl(0xa0, 0x01), 0x01)\n      and\n        /* \"Contracts/Teknofest.sol\":9950:9960  msg.sender */\n      caller\n        /* \"Contracts/Teknofest.sol\":9910:9960  agreements[whichAgreement_].employee == msg.sender */\n      eq\n      dup1\n        /* \"Contracts/Teknofest.sol\":9910:10014  agreements[whichAgreement_].employee == msg.sender || agreements[whichAgreement_].employer == msg.sender */\n      tag_269\n      jumpi\n      pop\n        /* \"Contracts/Teknofest.sol\":9964:9991  agreements[whichAgreement_] */\n      0x00\n      dup2\n      dup2\n      mstore\n        /* \"Contracts/Teknofest.sol\":9964:9974  agreements */\n      0x06\n        /* \"Contracts/Teknofest.sol\":9964:9991  agreements[whichAgreement_] */\n      0x20\n      mstore\n      0x40\n      swap1\n      keccak256\n        /* \"Contracts/Teknofest.sol\":9964:10000  agreements[whichAgreement_].employer */\n      0x01\n      add\n      sload\n      sub(shl(0xa0, 0x01), 0x01)\n      and\n        /* \"Contracts/Teknofest.sol\":10004:10014  msg.sender */\n      caller\n        /* \"Contracts/Teknofest.sol\":9964:10014  agreements[whichAgreement_].employer == msg.sender */\n      eq\n        /* \"Contracts/Teknofest.sol\":9910:10014  agreements[whichAgreement_].employee == msg.sender || agreements[whichAgreement_].employer == msg.sender */\n    tag_269:\n        /* \"Contracts/Teknofest.sol\":9902:10046  require(agreements[whichAgreement_].employee == msg.sender || agreements[whichAgreement_].employer == msg.sender, \"You do not posses authority\") */\n      tag_270\n      jumpi\n      mload(0x40)\n      shl(0xe5, 0x461bcd)\n      dup2\n      mstore\n        /* \"#utility.yul\":17531:17533   */\n      0x20\n        /* \"Contracts/Teknofest.sol\":9902:10046  require(agreements[whichAgreement_].employee == msg.sender || agreements[whichAgreement_].employer == msg.sender, \"You do not posses authority\") */\n      0x04\n      dup3\n      add\n        /* \"#utility.yul\":17513:17534   */\n      mstore\n        /* \"#utility.yul\":17570:17572   */\n      0x1b\n        /* \"#utility.yul\":17550:17568   */\n      0x24\n      dup3\n      add\n        /* \"#utility.yul\":17543:17573   */\n      mstore\n        /* \"#utility.yul\":17609:17638   */\n      0x596f7520646f206e6f7420706f7373657320617574686f726974790000000000\n        /* \"#utility.yul\":17589:17607   */\n      0x44\n      dup3\n      add\n        /* \"#utility.yul\":17582:17639   */\n      mstore\n        /* \"#utility.yul\":17656:17674   */\n      0x64\n      add\n        /* \"Contracts/Teknofest.sol\":9902:10046  require(agreements[whichAgreement_].employee == msg.sender || agreements[whichAgreement_].employer == msg.sender, \"You do not posses authority\") */\n      tag_138\n        /* \"#utility.yul\":17329:17680   */\n      jump\n        /* \"Contracts/Teknofest.sol\":9902:10046  require(agreements[whichAgreement_].employee == msg.sender || agreements[whichAgreement_].employer == msg.sender, \"You do not posses authority\") */\n    tag_270:\n        /* \"Contracts/Teknofest.sol\":10059:10086  agreements[whichAgreement_] */\n      0x00\n      dup2\n      dup2\n      mstore\n        /* \"Contracts/Teknofest.sol\":10059:10069  agreements */\n      0x06\n        /* \"Contracts/Teknofest.sol\":10059:10086  agreements[whichAgreement_] */\n      0x20\n      dup2\n      swap1\n      mstore\n      0x40\n      swap2\n      dup3\n      swap1\n      keccak256\n        /* \"Contracts/Teknofest.sol\":10059:10100  agreements[whichAgreement_].disputeRaised */\n      swap1\n      dup2\n      add\n        /* \"Contracts/Teknofest.sol\":10059:10107  agreements[whichAgreement_].disputeRaised = true */\n      dup1\n      sload\n      not(0xff0000)\n      and\n      0x010000\n      or\n      swap1\n      sstore\n        /* \"Contracts/Teknofest.sol\":10123:10165  disputeRaised(agreements[whichAgreement_]) */\n      swap1\n      mload\n      0x89c904236423d143f6a6f9c32ec2df98d5f84d015fb8d98e5b49aceaa47936cc\n      swap2\n      tag_206\n      swap2\n      tag_141\n      jump\t// in\n        /* \"Contracts/Teknofest.sol\":5666:5961  function getCandidates(bytes32 offeredWorkHash_, uint candidateNumber_) public view returns(address){... */\n    tag_117:\n        /* \"Contracts/Teknofest.sol\":5758:5765  address */\n      0x00\n        /* \"Contracts/Teknofest.sol\":5785:5815  offeredWorks[offeredWorkHash_] */\n      dup3\n      dup2\n      mstore\n        /* \"Contracts/Teknofest.sol\":5785:5797  offeredWorks */\n      0x05\n        /* \"Contracts/Teknofest.sol\":5785:5815  offeredWorks[offeredWorkHash_] */\n      0x20\n      mstore\n      0x40\n      dup2\n      keccak256\n        /* \"Contracts/Teknofest.sol\":5785:5824  offeredWorks[offeredWorkHash_].employer */\n      0x01\n      add\n      sload\n      sub(shl(0xa0, 0x01), 0x01)\n      and\n        /* \"Contracts/Teknofest.sol\":5828:5838  msg.sender */\n      caller\n        /* \"Contracts/Teknofest.sol\":5785:5838  offeredWorks[offeredWorkHash_].employer == msg.sender */\n      eq\n        /* \"Contracts/Teknofest.sol\":5777:5887  require(offeredWorks[offeredWorkHash_].employer == msg.sender,\"You are not the employer of this offered Work\") */\n      tag_275\n      jumpi\n      mload(0x40)\n      shl(0xe5, 0x461bcd)\n      dup2\n      mstore\n        /* \"#utility.yul\":17887:17889   */\n      0x20\n        /* \"Contracts/Teknofest.sol\":5777:5887  require(offeredWorks[offeredWorkHash_].employer == msg.sender,\"You are not the employer of this offered Work\") */\n      0x04\n      dup3\n      add\n        /* \"#utility.yul\":17869:17890   */\n      mstore\n        /* \"#utility.yul\":17926:17928   */\n      0x2d\n        /* \"#utility.yul\":17906:17924   */\n      0x24\n      dup3\n      add\n        /* \"#utility.yul\":17899:17929   */\n      mstore\n        /* \"#utility.yul\":17965:17999   */\n      0x596f7520617265206e6f742074686520656d706c6f796572206f662074686973\n        /* \"#utility.yul\":17945:17963   */\n      0x44\n      dup3\n      add\n        /* \"#utility.yul\":17938:18000   */\n      mstore\n      shl(0x98, 0x206f66666572656420576f726b)\n        /* \"#utility.yul\":18016:18034   */\n      0x64\n      dup3\n      add\n        /* \"#utility.yul\":18009:18052   */\n      mstore\n        /* \"#utility.yul\":18069:18088   */\n      0x84\n      add\n        /* \"Contracts/Teknofest.sol\":5777:5887  require(offeredWorks[offeredWorkHash_].employer == msg.sender,\"You are not the employer of this offered Work\") */\n      tag_138\n        /* \"#utility.yul\":17685:18094   */\n      jump\n        /* \"Contracts/Teknofest.sol\":5777:5887  require(offeredWorks[offeredWorkHash_].employer == msg.sender,\"You are not the employer of this offered Work\") */\n    tag_275:\n      pop\n        /* \"Contracts/Teknofest.sol\":5907:5935  candidates[offeredWorkHash_] */\n      0x00\n      dup3\n      dup2\n      mstore\n        /* \"Contracts/Teknofest.sol\":5907:5917  candidates */\n      0x07\n        /* \"Contracts/Teknofest.sol\":5907:5935  candidates[offeredWorkHash_] */\n      0x20\n      swap1\n      dup2\n      mstore\n      0x40\n      dup1\n      dup4\n      keccak256\n        /* \"Contracts/Teknofest.sol\":5907:5953  candidates[offeredWorkHash_][candidateNumber_] */\n      dup5\n      dup5\n      mstore\n      swap1\n      swap2\n      mstore\n      swap1\n      keccak256\n      sload\n      sub(shl(0xa0, 0x01), 0x01)\n      and\n        /* \"Contracts/Teknofest.sol\":5666:5961  function getCandidates(bytes32 offeredWorkHash_, uint candidateNumber_) public view returns(address){... */\n    tag_274:\n      swap3\n      swap2\n      pop\n      pop\n      jump\t// out\n        /* \"Contracts/Teknofest.sol\":4739:5304  function deleteWork(bytes32 which_) public onlyEmployer {... */\n    tag_127:\n        /* \"Contracts/Teknofest.sol\":2985:2995  msg.sender */\n      caller\n        /* \"Contracts/Teknofest.sol\":2976:2996  accounts[msg.sender] */\n      0x00\n      swap1\n      dup2\n      mstore\n        /* \"Contracts/Teknofest.sol\":2976:2984  accounts */\n      0x04\n        /* \"Contracts/Teknofest.sol\":2976:2996  accounts[msg.sender] */\n      0x20\n      mstore\n      0x40\n      swap1\n      keccak256\n        /* \"Contracts/Teknofest.sol\":2976:3007  accounts[msg.sender].isEmployer */\n      sload\n      0xff\n      and\n        /* \"Contracts/Teknofest.sol\":2976:3015  accounts[msg.sender].isEmployer == true */\n      iszero\n      iszero\n        /* \"Contracts/Teknofest.sol\":2976:3007  accounts[msg.sender].isEmployer */\n      0x01\n        /* \"Contracts/Teknofest.sol\":2976:3015  accounts[msg.sender].isEmployer == true */\n      eq\n        /* \"Contracts/Teknofest.sol\":2968:3057  require(accounts[msg.sender].isEmployer == true, \"You need to be an employer to do that\") */\n      tag_280\n      jumpi\n      mload(0x40)\n      shl(0xe5, 0x461bcd)\n      dup2\n      mstore\n      0x04\n      add\n      tag_138\n      swap1\n      tag_188\n      jump\t// in\n    tag_280:\n        /* \"Contracts/Teknofest.sol\":4814:4834  offeredWorks[which_] */\n      0x00\n      dup2\n      dup2\n      mstore\n        /* \"Contracts/Teknofest.sol\":4814:4826  offeredWorks */\n      0x05\n        /* \"Contracts/Teknofest.sol\":4814:4834  offeredWorks[which_] */\n      0x20\n      mstore\n      0x40\n      swap1\n      keccak256\n        /* \"Contracts/Teknofest.sol\":4814:4843  offeredWorks[which_].employer */\n      0x01\n      add\n      sload\n      sub(shl(0xa0, 0x01), 0x01)\n      and\n        /* \"Contracts/Teknofest.sol\":4847:4857  msg.sender */\n      caller\n        /* \"Contracts/Teknofest.sol\":4814:4857  offeredWorks[which_].employer == msg.sender */\n      eq\n        /* \"Contracts/Teknofest.sol\":4806:4899  require(offeredWorks[which_].employer == msg.sender, \"You are not the employer of this work\") */\n      tag_283\n      jumpi\n      mload(0x40)\n      shl(0xe5, 0x461bcd)\n      dup2\n      mstore\n      0x04\n      add\n      tag_138\n      swap1\n      tag_285\n      jump\t// in\n    tag_283:\n        /* \"Contracts/Teknofest.sol\":4918:4938  offeredWorks[which_] */\n      0x00\n      dup2\n      dup2\n      mstore\n        /* \"Contracts/Teknofest.sol\":4918:4930  offeredWorks */\n      0x05\n        /* \"Contracts/Teknofest.sol\":4918:4938  offeredWorks[which_] */\n      0x20\n      mstore\n      0x40\n      swap1\n      keccak256\n        /* \"Contracts/Teknofest.sol\":4918:4947  offeredWorks[which_].isSealed */\n      0x04\n      add\n      sload\n      0xff\n      and\n        /* \"Contracts/Teknofest.sol\":4918:4956  offeredWorks[which_].isSealed == false */\n      iszero\n        /* \"Contracts/Teknofest.sol\":4910:4981  require(offeredWorks[which_].isSealed == false, \"This task is now off\") */\n      tag_286\n      jumpi\n      mload(0x40)\n      shl(0xe5, 0x461bcd)\n      dup2\n      mstore\n      0x04\n      add\n      tag_138\n      swap1\n      tag_180\n      jump\t// in\n    tag_286:\n        /* \"Contracts/Teknofest.sol\":5019:5039  offeredWorks[which_] */\n      0x00\n      dup2\n      dup2\n      mstore\n        /* \"Contracts/Teknofest.sol\":5019:5031  offeredWorks */\n      0x05\n        /* \"Contracts/Teknofest.sol\":5019:5039  offeredWorks[which_] */\n      0x20\n      mstore\n      0x40\n      dup2\n      keccak256\n        /* \"Contracts/Teknofest.sol\":5019:5053  offeredWorks[which_].amountToStake */\n      0x03\n      add\n      sload\n        /* \"Contracts/Teknofest.sol\":5000:5015  balanceRecieved */\n      swap1\n      sload\n        /* \"Contracts/Teknofest.sol\":5000:5053  balanceRecieved >= offeredWorks[which_].amountToStake */\n      lt\n      iszero\n        /* \"Contracts/Teknofest.sol\":4992:5076  require(balanceRecieved >= offeredWorks[which_].amountToStake, \"Not enough balance\") */\n      tag_288\n      jumpi\n      mload(0x40)\n      shl(0xe5, 0x461bcd)\n      dup2\n      mstore\n        /* \"#utility.yul\":18707:18709   */\n      0x20\n        /* \"Contracts/Teknofest.sol\":4992:5076  require(balanceRecieved >= offeredWorks[which_].amountToStake, \"Not enough balance\") */\n      0x04\n      dup3\n      add\n        /* \"#utility.yul\":18689:18710   */\n      mstore\n        /* \"#utility.yul\":18746:18748   */\n      0x12\n        /* \"#utility.yul\":18726:18744   */\n      0x24\n      dup3\n      add\n        /* \"#utility.yul\":18719:18749   */\n      mstore\n      shl(0x70, 0x4e6f7420656e6f7567682062616c616e6365)\n        /* \"#utility.yul\":18765:18783   */\n      0x44\n      dup3\n      add\n        /* \"#utility.yul\":18758:18806   */\n      mstore\n        /* \"#utility.yul\":18823:18841   */\n      0x64\n      add\n        /* \"Contracts/Teknofest.sol\":4992:5076  require(balanceRecieved >= offeredWorks[which_].amountToStake, \"Not enough balance\") */\n      tag_138\n        /* \"#utility.yul\":18505:18847   */\n      jump\n        /* \"Contracts/Teknofest.sol\":4992:5076  require(balanceRecieved >= offeredWorks[which_].amountToStake, \"Not enough balance\") */\n    tag_288:\n        /* \"Contracts/Teknofest.sol\":5089:5107  uint amountToStake */\n      0x00\n        /* \"Contracts/Teknofest.sol\":5110:5130  offeredWorks[which_] */\n      dup2\n      dup2\n      mstore\n        /* \"Contracts/Teknofest.sol\":5110:5122  offeredWorks */\n      0x05\n        /* \"Contracts/Teknofest.sol\":5110:5130  offeredWorks[which_] */\n      0x20\n      mstore\n      0x40\n      dup1\n      dup3\n      keccak256\n        /* \"Contracts/Teknofest.sol\":5110:5144  offeredWorks[which_].amountToStake */\n      0x03\n      dup2\n      add\n      sload\n        /* \"Contracts/Teknofest.sol\":5155:5184  offeredWorks[which_].isSealed */\n      0x04\n      swap1\n      swap2\n      add\n        /* \"Contracts/Teknofest.sol\":5155:5191  offeredWorks[which_].isSealed = true */\n      dup1\n      sload\n      not(0xff)\n      and\n        /* \"Contracts/Teknofest.sol\":5187:5191  true */\n      0x01\n        /* \"Contracts/Teknofest.sol\":5155:5191  offeredWorks[which_].isSealed = true */\n      or\n      swap1\n      sstore\n        /* \"Contracts/Teknofest.sol\":5202:5245  payable(msg.sender).transfer(amountToStake) */\n      swap1\n      mload\n        /* \"Contracts/Teknofest.sol\":5110:5144  offeredWorks[which_].amountToStake */\n      swap1\n      swap2\n        /* \"Contracts/Teknofest.sol\":5210:5220  msg.sender */\n      caller\n      swap2\n        /* \"Contracts/Teknofest.sol\":5202:5245  payable(msg.sender).transfer(amountToStake) */\n      dup4\n      iszero\n      0x08fc\n      mul\n      swap2\n        /* \"Contracts/Teknofest.sol\":5110:5144  offeredWorks[which_].amountToStake */\n      dup5\n      swap2\n        /* \"Contracts/Teknofest.sol\":5202:5245  payable(msg.sender).transfer(amountToStake) */\n      swap1\n      dup2\n        /* \"Contracts/Teknofest.sol\":5089:5107  uint amountToStake */\n      dup2\n        /* \"Contracts/Teknofest.sol\":5202:5245  payable(msg.sender).transfer(amountToStake) */\n      dup2\n        /* \"Contracts/Teknofest.sol\":5110:5144  offeredWorks[which_].amountToStake */\n      dup6\n        /* \"Contracts/Teknofest.sol\":5210:5220  msg.sender */\n      dup9\n        /* \"Contracts/Teknofest.sol\":5202:5245  payable(msg.sender).transfer(amountToStake) */\n      dup9\n      call\n      swap4\n      pop\n      pop\n      pop\n      pop\n      iszero\n      dup1\n      iszero\n      tag_292\n      jumpi\n      returndatasize\n      0x00\n      dup1\n      returndatacopy\n      revert(0x00, returndatasize)\n    tag_292:\n      pop\n        /* \"Contracts/Teknofest.sol\":5275:5295  offeredWorks[which_] */\n      0x00\n      dup3\n      dup2\n      mstore\n        /* \"Contracts/Teknofest.sol\":5275:5287  offeredWorks */\n      0x05\n        /* \"Contracts/Teknofest.sol\":5275:5295  offeredWorks[which_] */\n      0x20\n      mstore\n      0x40\n      swap1\n      dup2\n      swap1\n      keccak256\n        /* \"Contracts/Teknofest.sol\":5263:5296  workDeleted(offeredWorks[which_]) */\n      swap1\n      mload\n      0x3f53cc6a10041fe7e6b257ec942b9a75b4b9feb7a16948c05b4b7e5e62a1be3c\n      swap2\n      tag_140\n      swap2\n      tag_184\n      jump\t// in\n        /* \"Contracts/Teknofest.sol\":5969:6805  function reqruitEmployee(bytes32 whichOffer_, uint whichCandidate_) public onlyEmployer {... */\n    tag_135:\n        /* \"Contracts/Teknofest.sol\":2985:2995  msg.sender */\n      caller\n        /* \"Contracts/Teknofest.sol\":2976:2996  accounts[msg.sender] */\n      0x00\n      swap1\n      dup2\n      mstore\n        /* \"Contracts/Teknofest.sol\":2976:2984  accounts */\n      0x04\n        /* \"Contracts/Teknofest.sol\":2976:2996  accounts[msg.sender] */\n      0x20\n      mstore\n      0x40\n      swap1\n      keccak256\n        /* \"Contracts/Teknofest.sol\":2976:3007  accounts[msg.sender].isEmployer */\n      sload\n      0xff\n      and\n        /* \"Contracts/Teknofest.sol\":2976:3015  accounts[msg.sender].isEmployer == true */\n      iszero\n      iszero\n        /* \"Contracts/Teknofest.sol\":2976:3007  accounts[msg.sender].isEmployer */\n      0x01\n        /* \"Contracts/Teknofest.sol\":2976:3015  accounts[msg.sender].isEmployer == true */\n      eq\n        /* \"Contracts/Teknofest.sol\":2968:3057  require(accounts[msg.sender].isEmployer == true, \"You need to be an employer to do that\") */\n      tag_295\n      jumpi\n      mload(0x40)\n      shl(0xe5, 0x461bcd)\n      dup2\n      mstore\n      0x04\n      add\n      tag_138\n      swap1\n      tag_188\n      jump\t// in\n    tag_295:\n        /* \"Contracts/Teknofest.sol\":6076:6101  offeredWorks[whichOffer_] */\n      0x00\n      dup3\n      dup2\n      mstore\n        /* \"Contracts/Teknofest.sol\":6076:6088  offeredWorks */\n      0x05\n        /* \"Contracts/Teknofest.sol\":6076:6101  offeredWorks[whichOffer_] */\n      0x20\n      mstore\n      0x40\n      swap1\n      keccak256\n        /* \"Contracts/Teknofest.sol\":6076:6110  offeredWorks[whichOffer_].employer */\n      0x01\n      add\n      sload\n      sub(shl(0xa0, 0x01), 0x01)\n      and\n        /* \"Contracts/Teknofest.sol\":6114:6124  msg.sender */\n      caller\n        /* \"Contracts/Teknofest.sol\":6076:6124  offeredWorks[whichOffer_].employer == msg.sender */\n      eq\n        /* \"Contracts/Teknofest.sol\":6068:6166  require(offeredWorks[whichOffer_].employer == msg.sender, \"You are not the employer of this work\") */\n      tag_298\n      jumpi\n      mload(0x40)\n      shl(0xe5, 0x461bcd)\n      dup2\n      mstore\n      0x04\n      add\n      tag_138\n      swap1\n      tag_285\n      jump\t// in\n    tag_298:\n        /* \"Contracts/Teknofest.sol\":6185:6210  offeredWorks[whichOffer_] */\n      0x00\n      dup3\n      dup2\n      mstore\n        /* \"Contracts/Teknofest.sol\":6185:6197  offeredWorks */\n      0x05\n        /* \"Contracts/Teknofest.sol\":6185:6210  offeredWorks[whichOffer_] */\n      0x20\n      mstore\n      0x40\n      swap1\n      keccak256\n        /* \"Contracts/Teknofest.sol\":6185:6219  offeredWorks[whichOffer_].isSealed */\n      0x04\n      add\n      sload\n      0xff\n      and\n        /* \"Contracts/Teknofest.sol\":6185:6228  offeredWorks[whichOffer_].isSealed == false */\n      iszero\n        /* \"Contracts/Teknofest.sol\":6177:6253  require(offeredWorks[whichOffer_].isSealed == false, \"This task is now off\") */\n      tag_300\n      jumpi\n      mload(0x40)\n      shl(0xe5, 0x461bcd)\n      dup2\n      mstore\n      0x04\n      add\n      tag_138\n      swap1\n      tag_180\n      jump\t// in\n    tag_300:\n      0x40\n      dup1\n      mload\n      0x0140\n      dup2\n      add\n      dup3\n      mstore\n      0x00\n      dup1\n      dup3\n      mstore\n      dup2\n      dup4\n      add\n      dup2\n      dup2\n      mstore\n      0x60\n      dup4\n      add\n      dup3\n      swap1\n      mstore\n      0x80\n      dup4\n      add\n      dup3\n      dup2\n      mstore\n      0xa0\n      dup5\n      add\n      dup4\n      swap1\n      mstore\n      0xc0\n      dup5\n      add\n      dup4\n      swap1\n      mstore\n      0xe0\n      dup5\n      add\n      dup4\n      swap1\n      mstore\n      0x0100\n      dup5\n      add\n      dup4\n      swap1\n      mstore\n      0x0120\n      dup5\n      add\n      dup4\n      swap1\n      mstore\n        /* \"Contracts/Teknofest.sol\":6332:6342  msg.sender */\n      caller\n      0x20\n      dup1\n      dup7\n      add\n        /* \"Contracts/Teknofest.sol\":6311:6342  agreement.employer = msg.sender */\n      swap2\n      swap1\n      swap2\n      mstore\n        /* \"Contracts/Teknofest.sol\":6375:6398  candidates[whichOffer_] */\n      dup8\n      dup5\n      mstore\n        /* \"Contracts/Teknofest.sol\":6375:6385  candidates */\n      0x07\n        /* \"Contracts/Teknofest.sol\":6375:6398  candidates[whichOffer_] */\n      dup2\n      mstore\n      dup6\n      dup5\n      keccak256\n        /* \"Contracts/Teknofest.sol\":6375:6415  candidates[whichOffer_][whichCandidate_] */\n      dup8\n      dup6\n      mstore\n      dup2\n      mstore\n      dup6\n      dup5\n      keccak256\n      sload\n      sub(shl(0xa0, 0x01), 0x01)\n      and\n        /* \"Contracts/Teknofest.sol\":6353:6415  agreement.employee =  candidates[whichOffer_][whichCandidate_] */\n      swap1\n      swap3\n      mstore\n        /* \"Contracts/Teknofest.sol\":6456:6481  offeredWorks[whichOffer_] */\n      dup7\n      dup4\n      mstore\n        /* \"Contracts/Teknofest.sol\":6456:6468  offeredWorks */\n      0x05\n        /* \"Contracts/Teknofest.sol\":6456:6481  offeredWorks[whichOffer_] */\n      swap1\n      swap2\n      mstore\n      swap3\n      dup2\n      keccak256\n        /* \"Contracts/Teknofest.sol\":6456:6495  offeredWorks[whichOffer_].amountToStake */\n      0x03\n      swap1\n      dup2\n      add\n      sload\n        /* \"Contracts/Teknofest.sol\":6426:6495  agreement.amountForEmployee = offeredWorks[whichOffer_].amountToStake */\n      swap1\n      swap4\n      mstore\n        /* \"Contracts/Teknofest.sol\":6506:6523  numOfAgreements++ */\n      dup3\n      sload\n      swap2\n      swap3\n        /* \"Contracts/Teknofest.sol\":6456:6495  offeredWorks[whichOffer_].amountToStake */\n      swap1\n        /* \"Contracts/Teknofest.sol\":6506:6523  numOfAgreements++ */\n      tag_304\n      dup4\n      tag_182\n      jump\t// in\n    tag_304:\n      swap1\n      swap2\n      sstore\n      pop\n      pop\n        /* \"Contracts/Teknofest.sol\":6552:6567  numOfAgreements */\n      sload(0x03)\n        /* \"Contracts/Teknofest.sol\":6534:6567  agreement.nonce = numOfAgreements */\n      dup2\n      mstore\n        /* \"Contracts/Teknofest.sol\":6614:6635  abi.encode(agreement) */\n      mload(0x40)\n        /* \"Contracts/Teknofest.sol\":6534:6549  agreement.nonce */\n      0x00\n      swap1\n        /* \"Contracts/Teknofest.sol\":6614:6635  abi.encode(agreement) */\n      tag_305\n      swap1\n        /* \"Contracts/Teknofest.sol\":6534:6543  agreement */\n      dup4\n      swap1\n        /* \"Contracts/Teknofest.sol\":6614:6635  abi.encode(agreement) */\n      0x20\n      add\n      tag_306\n      jump\t// in\n    tag_305:\n      mload(0x40)\n      0x20\n      dup2\n      dup4\n      sub\n      sub\n      dup2\n      mstore\n      swap1\n      0x40\n      mstore\n        /* \"Contracts/Teknofest.sol\":6604:6636  keccak256(abi.encode(agreement)) */\n      dup1\n      mload\n      swap1\n      0x20\n      add\n      keccak256\n        /* \"Contracts/Teknofest.sol\":6580:6636  bytes32 agreementHash = keccak256(abi.encode(agreement)) */\n      swap1\n      pop\n        /* \"Contracts/Teknofest.sol\":6675:6684  agreement */\n      dup2\n        /* \"Contracts/Teknofest.sol\":6647:6657  agreements */\n      0x06\n        /* \"Contracts/Teknofest.sol\":6647:6672  agreements[agreementHash] */\n      0x00\n        /* \"Contracts/Teknofest.sol\":6658:6671  agreementHash */\n      dup4\n        /* \"Contracts/Teknofest.sol\":6647:6672  agreements[agreementHash] */\n      dup2\n      mstore\n      0x20\n      add\n      swap1\n      dup2\n      mstore\n      0x20\n      add\n      0x00\n      keccak256\n        /* \"Contracts/Teknofest.sol\":6647:6684  agreements[agreementHash] = agreement */\n      0x00\n      dup3\n      add\n      mload\n      dup2\n      0x00\n      add\n      sstore\n      0x20\n      dup3\n      add\n      mload\n      dup2\n      0x01\n      add\n      exp(0x0100, 0x00)\n      dup2\n      sload\n      dup2\n      sub(shl(0xa0, 0x01), 0x01)\n      mul\n      not\n      and\n      swap1\n      dup4\n      sub(shl(0xa0, 0x01), 0x01)\n      and\n      mul\n      or\n      swap1\n      sstore\n      pop\n      0x40\n      dup3\n      add\n      mload\n      dup2\n      0x02\n      add\n      exp(0x0100, 0x00)\n      dup2\n      sload\n      dup2\n      sub(shl(0xa0, 0x01), 0x01)\n      mul\n      not\n      and\n      swap1\n      dup4\n      sub(shl(0xa0, 0x01), 0x01)\n      and\n      mul\n      or\n      swap1\n      sstore\n      pop\n      0x60\n      dup3\n      add\n      mload\n      dup2\n      0x03\n      add\n      exp(0x0100, 0x00)\n      dup2\n      sload\n      dup2\n      sub(shl(0xa0, 0x01), 0x01)\n      mul\n      not\n      and\n      swap1\n      dup4\n      sub(shl(0xa0, 0x01), 0x01)\n      and\n      mul\n      or\n      swap1\n      sstore\n      pop\n      0x80\n      dup3\n      add\n      mload\n      dup2\n      0x04\n      add\n      sstore\n      0xa0\n      dup3\n      add\n      mload\n      dup2\n      0x05\n      add\n      sstore\n      0xc0\n      dup3\n      add\n      mload\n      dup2\n      0x06\n      add\n      exp(0x0100, 0x00)\n      dup2\n      sload\n      dup2\n      0xff\n      mul\n      not\n      and\n      swap1\n      dup4\n      iszero\n      iszero\n      mul\n      or\n      swap1\n      sstore\n      pop\n      0xe0\n      dup3\n      add\n      mload\n      dup2\n      0x06\n      add\n      exp(0x0100, 0x01)\n      dup2\n      sload\n      dup2\n      0xff\n      mul\n      not\n      and\n      swap1\n      dup4\n      iszero\n      iszero\n      mul\n      or\n      swap1\n      sstore\n      pop\n      0x0100\n      dup3\n      add\n      mload\n      dup2\n      0x06\n      add\n      exp(0x0100, 0x02)\n      dup2\n      sload\n      dup2\n      0xff\n      mul\n      not\n      and\n      swap1\n      dup4\n      iszero\n      iszero\n      mul\n      or\n      swap1\n      sstore\n      pop\n      0x0120\n      dup3\n      add\n      mload\n      dup2\n      0x06\n      add\n      exp(0x0100, 0x03)\n      dup2\n      sload\n      dup2\n      0xff\n      mul\n      not\n      and\n      swap1\n      dup4\n      iszero\n      iszero\n      mul\n      or\n      swap1\n      sstore\n      pop\n      swap1\n      pop\n      pop\n        /* \"Contracts/Teknofest.sol\":6732:6736  true */\n      0x01\n        /* \"Contracts/Teknofest.sol\":6695:6707  offeredWorks */\n      0x05\n        /* \"Contracts/Teknofest.sol\":6695:6720  offeredWorks[whichOffer_] */\n      0x00\n        /* \"Contracts/Teknofest.sol\":6708:6719  whichOffer_ */\n      dup7\n        /* \"Contracts/Teknofest.sol\":6695:6720  offeredWorks[whichOffer_] */\n      dup2\n      mstore\n      0x20\n      add\n      swap1\n      dup2\n      mstore\n      0x20\n      add\n      0x00\n      keccak256\n        /* \"Contracts/Teknofest.sol\":6695:6729  offeredWorks[whichOffer_].isSealed */\n      0x04\n      add\n      0x00\n        /* \"Contracts/Teknofest.sol\":6695:6736  offeredWorks[whichOffer_].isSealed = true */\n      0x0100\n      exp\n      dup2\n      sload\n      dup2\n      0xff\n      mul\n      not\n      and\n      swap1\n      dup4\n      iszero\n      iszero\n      mul\n      or\n      swap1\n      sstore\n      pop\n        /* \"Contracts/Teknofest.sol\":6772:6785  agreementHash */\n      dup1\n        /* \"Contracts/Teknofest.sol\":6754:6797  reqruitedEmployee(agreementHash, agreement) */\n      0x48c881a7c1d926662d0098effc11da375e1ff734560dbb1c516952f7b8d87304\n        /* \"Contracts/Teknofest.sol\":6787:6796  agreement */\n      dup4\n        /* \"Contracts/Teknofest.sol\":6754:6797  reqruitedEmployee(agreementHash, agreement) */\n      mload(0x40)\n      tag_307\n      swap2\n      swap1\n      tag_306\n      jump\t// in\n    tag_307:\n      mload(0x40)\n      dup1\n      swap2\n      sub\n      swap1\n      log2\n        /* \"Contracts/Teknofest.sol\":6057:6805  {... */\n      pop\n      pop\n        /* \"Contracts/Teknofest.sol\":5969:6805  function reqruitEmployee(bytes32 whichOffer_, uint whichCandidate_) public onlyEmployer {... */\n      pop\n      pop\n      jump\t// out\n        /* \"Contracts/Teknofest.sol\":7748:8235  function askMiddleman(bytes32 whichAgreement_, address middleman_) private {... */\n    tag_244:\n        /* \"Contracts/Teknofest.sol\":7842:7869  agreements[whichAgreement_] */\n      0x00\n      dup3\n      dup2\n      mstore\n        /* \"Contracts/Teknofest.sol\":7842:7852  agreements */\n      0x06\n        /* \"Contracts/Teknofest.sol\":7842:7869  agreements[whichAgreement_] */\n      0x20\n      mstore\n      0x40\n      swap1\n      keccak256\n        /* \"Contracts/Teknofest.sol\":7842:7878  agreements[whichAgreement_].employee */\n      0x02\n      add\n      sload\n      sub(shl(0xa0, 0x01), 0x01)\n      and\n        /* \"Contracts/Teknofest.sol\":7882:7892  msg.sender */\n      caller\n        /* \"Contracts/Teknofest.sol\":7842:7892  agreements[whichAgreement_].employee == msg.sender */\n      eq\n      dup1\n        /* \"Contracts/Teknofest.sol\":7842:7946  agreements[whichAgreement_].employee == msg.sender || agreements[whichAgreement_].employer == msg.sender */\n      tag_309\n      jumpi\n      pop\n        /* \"Contracts/Teknofest.sol\":7896:7923  agreements[whichAgreement_] */\n      0x00\n      dup3\n      dup2\n      mstore\n        /* \"Contracts/Teknofest.sol\":7896:7906  agreements */\n      0x06\n        /* \"Contracts/Teknofest.sol\":7896:7923  agreements[whichAgreement_] */\n      0x20\n      mstore\n      0x40\n      swap1\n      keccak256\n        /* \"Contracts/Teknofest.sol\":7896:7932  agreements[whichAgreement_].employer */\n      0x01\n      add\n      sload\n      sub(shl(0xa0, 0x01), 0x01)\n      and\n        /* \"Contracts/Teknofest.sol\":7936:7946  msg.sender */\n      caller\n        /* \"Contracts/Teknofest.sol\":7896:7946  agreements[whichAgreement_].employer == msg.sender */\n      eq\n        /* \"Contracts/Teknofest.sol\":7842:7946  agreements[whichAgreement_].employee == msg.sender || agreements[whichAgreement_].employer == msg.sender */\n    tag_309:\n        /* \"Contracts/Teknofest.sol\":7834:7987  require(agreements[whichAgreement_].employee == msg.sender || agreements[whichAgreement_].employer == msg.sender, \"You are not allowed to set middleman\") */\n      tag_310\n      jumpi\n      mload(0x40)\n      shl(0xe5, 0x461bcd)\n      dup2\n      mstore\n        /* \"#utility.yul\":20278:20280   */\n      0x20\n        /* \"Contracts/Teknofest.sol\":7834:7987  require(agreements[whichAgreement_].employee == msg.sender || agreements[whichAgreement_].employer == msg.sender, \"You are not allowed to set middleman\") */\n      0x04\n      dup3\n      add\n        /* \"#utility.yul\":20260:20281   */\n      mstore\n        /* \"#utility.yul\":20317:20319   */\n      0x24\n        /* \"#utility.yul\":20297:20315   */\n      dup1\n      dup3\n      add\n        /* \"#utility.yul\":20290:20320   */\n      mstore\n        /* \"#utility.yul\":20356:20390   */\n      0x596f7520617265206e6f7420616c6c6f77656420746f20736574206d6964646c\n        /* \"#utility.yul\":20336:20354   */\n      0x44\n      dup3\n      add\n        /* \"#utility.yul\":20329:20391   */\n      mstore\n      shl(0xe1, 0x32b6b0b7)\n        /* \"#utility.yul\":20407:20425   */\n      0x64\n      dup3\n      add\n        /* \"#utility.yul\":20400:20434   */\n      mstore\n        /* \"#utility.yul\":20451:20470   */\n      0x84\n      add\n        /* \"Contracts/Teknofest.sol\":7834:7987  require(agreements[whichAgreement_].employee == msg.sender || agreements[whichAgreement_].employer == msg.sender, \"You are not allowed to set middleman\") */\n      tag_138\n        /* \"#utility.yul\":20076:20476   */\n      jump\n        /* \"Contracts/Teknofest.sol\":7834:7987  require(agreements[whichAgreement_].employee == msg.sender || agreements[whichAgreement_].employer == msg.sender, \"You are not allowed to set middleman\") */\n    tag_310:\n        /* \"Contracts/Teknofest.sol\":7998:8025  agreements[whichAgreement_] */\n      0x00\n      dup3\n      dup2\n      mstore\n        /* \"Contracts/Teknofest.sol\":7998:8008  agreements */\n      0x06\n        /* \"Contracts/Teknofest.sol\":7998:8025  agreements[whichAgreement_] */\n      0x20\n      mstore\n      0x40\n      dup2\n      keccak256\n        /* \"Contracts/Teknofest.sol\":7998:8046  agreements[whichAgreement_].askedMiddlemanNumber */\n      0x05\n      add\n        /* \"Contracts/Teknofest.sol\":7998:8048  agreements[whichAgreement_].askedMiddlemanNumber++ */\n      dup1\n      sload\n      swap2\n      tag_313\n      dup4\n      tag_182\n      jump\t// in\n    tag_313:\n      swap1\n      swap2\n      sstore\n      pop\n      pop\n        /* \"Contracts/Teknofest.sol\":8059:8091  askedMiddlemans[whichAgreement_] */\n      0x00\n      dup3\n      dup2\n      mstore\n        /* \"Contracts/Teknofest.sol\":8059:8074  askedMiddlemans */\n      0x0a\n        /* \"Contracts/Teknofest.sol\":8059:8091  askedMiddlemans[whichAgreement_] */\n      0x20\n      swap1\n      dup2\n      mstore\n      0x40\n      dup1\n      dup4\n      keccak256\n        /* \"Contracts/Teknofest.sol\":8092:8102  agreements */\n      0x06\n        /* \"Contracts/Teknofest.sol\":8092:8119  agreements[whichAgreement_] */\n      dup1\n      dup5\n      mstore\n      dup3\n      dup6\n      keccak256\n        /* \"Contracts/Teknofest.sol\":8092:8140  agreements[whichAgreement_].askedMiddlemanNumber */\n      0x05\n      dup2\n      add\n      sload\n        /* \"Contracts/Teknofest.sol\":8059:8141  askedMiddlemans[whichAgreement_][agreements[whichAgreement_].askedMiddlemanNumber] */\n      dup7\n      mstore\n      swap2\n      dup5\n      mstore\n      dup3\n      dup6\n      keccak256\n        /* \"Contracts/Teknofest.sol\":8059:8154  askedMiddlemans[whichAgreement_][agreements[whichAgreement_].askedMiddlemanNumber] = middleman_ */\n      dup1\n      sload\n      not(sub(shl(0xa0, 0x01), 0x01))\n      and\n      sub(shl(0xa0, 0x01), 0x01)\n      dup9\n      and\n      or\n      swap1\n      sstore\n        /* \"Contracts/Teknofest.sol\":8187:8214  agreements[whichAgreement_] */\n      swap4\n      dup7\n      swap1\n      mstore\n      swap3\n      swap1\n      swap2\n      mstore\n        /* \"Contracts/Teknofest.sol\":8172:8227  askedMiddleman(agreements[whichAgreement_], middleman_) */\n      mload\n      0xfcf44e491581609c685c7b5fa8839ade41e28403a552a59db096f0bee4715c5d\n      swap2\n      tag_140\n      swap2\n        /* \"Contracts/Teknofest.sol\":8059:8154  askedMiddlemans[whichAgreement_][agreements[whichAgreement_].askedMiddlemanNumber] = middleman_ */\n      dup5\n      swap1\n        /* \"Contracts/Teknofest.sol\":8172:8227  askedMiddleman(agreements[whichAgreement_], middleman_) */\n      tag_315\n      jump\t// in\n        /* \"#utility.yul\":14:360   */\n    tag_35:\n        /* \"#utility.yul\":82:88   */\n      0x00\n        /* \"#utility.yul\":90:96   */\n      dup1\n        /* \"#utility.yul\":143:145   */\n      0x40\n        /* \"#utility.yul\":131:140   */\n      dup4\n        /* \"#utility.yul\":122:129   */\n      dup6\n        /* \"#utility.yul\":118:141   */\n      sub\n        /* \"#utility.yul\":114:146   */\n      slt\n        /* \"#utility.yul\":111:163   */\n      iszero\n      tag_326\n      jumpi\n        /* \"#utility.yul\":159:160   */\n      0x00\n        /* \"#utility.yul\":156:157   */\n      dup1\n        /* \"#utility.yul\":149:161   */\n      revert\n        /* \"#utility.yul\":111:163   */\n    tag_326:\n      pop\n      pop\n        /* \"#utility.yul\":204:227   */\n      dup1\n      calldataload\n      swap3\n        /* \"#utility.yul\":324:326   */\n      0x20\n        /* \"#utility.yul\":309:327   */\n      swap1\n      swap2\n      add\n        /* \"#utility.yul\":296:328   */\n      calldataload\n      swap2\n      pop\n        /* \"#utility.yul\":14:360   */\n      jump\t// out\n        /* \"#utility.yul\":365:538   */\n    tag_316:\n        /* \"#utility.yul\":433:453   */\n      dup1\n      calldataload\n      sub(shl(0xa0, 0x01), 0x01)\n        /* \"#utility.yul\":482:513   */\n      dup2\n      and\n        /* \"#utility.yul\":472:514   */\n      dup2\n      eq\n        /* \"#utility.yul\":462:532   */\n      tag_328\n      jumpi\n        /* \"#utility.yul\":528:529   */\n      0x00\n        /* \"#utility.yul\":525:526   */\n      dup1\n        /* \"#utility.yul\":518:530   */\n      revert\n        /* \"#utility.yul\":462:532   */\n    tag_328:\n        /* \"#utility.yul\":365:538   */\n      swap2\n      swap1\n      pop\n      jump\t// out\n        /* \"#utility.yul\":543:843   */\n    tag_40:\n        /* \"#utility.yul\":611:617   */\n      0x00\n        /* \"#utility.yul\":619:625   */\n      dup1\n        /* \"#utility.yul\":672:674   */\n      0x40\n        /* \"#utility.yul\":660:669   */\n      dup4\n        /* \"#utility.yul\":651:658   */\n      dup6\n        /* \"#utility.yul\":647:670   */\n      sub\n        /* \"#utility.yul\":643:675   */\n      slt\n        /* \"#utility.yul\":640:692   */\n      iszero\n      tag_330\n      jumpi\n        /* \"#utility.yul\":688:689   */\n      0x00\n        /* \"#utility.yul\":685:686   */\n      dup1\n        /* \"#utility.yul\":678:690   */\n      revert\n        /* \"#utility.yul\":640:692   */\n    tag_330:\n        /* \"#utility.yul\":733:756   */\n      dup3\n      calldataload\n      swap2\n      pop\n        /* \"#utility.yul\":799:837   */\n      tag_331\n        /* \"#utility.yul\":833:835   */\n      0x20\n        /* \"#utility.yul\":818:836   */\n      dup5\n      add\n        /* \"#utility.yul\":799:837   */\n      tag_316\n      jump\t// in\n    tag_331:\n        /* \"#utility.yul\":789:837   */\n      swap1\n      pop\n        /* \"#utility.yul\":543:843   */\n      swap3\n      pop\n      swap3\n      swap1\n      pop\n      jump\t// out\n        /* \"#utility.yul\":1189:1415   */\n    tag_50:\n        /* \"#utility.yul\":1248:1254   */\n      0x00\n        /* \"#utility.yul\":1301:1303   */\n      0x20\n        /* \"#utility.yul\":1289:1298   */\n      dup3\n        /* \"#utility.yul\":1280:1287   */\n      dup5\n        /* \"#utility.yul\":1276:1299   */\n      sub\n        /* \"#utility.yul\":1272:1304   */\n      slt\n        /* \"#utility.yul\":1269:1321   */\n      iszero\n      tag_335\n      jumpi\n        /* \"#utility.yul\":1317:1318   */\n      0x00\n        /* \"#utility.yul\":1314:1315   */\n      dup1\n        /* \"#utility.yul\":1307:1319   */\n      revert\n        /* \"#utility.yul\":1269:1321   */\n    tag_335:\n      pop\n        /* \"#utility.yul\":1362:1385   */\n      calldataload\n      swap2\n        /* \"#utility.yul\":1189:1415   */\n      swap1\n      pop\n      jump\t// out\n        /* \"#utility.yul\":1420:1606   */\n    tag_55:\n        /* \"#utility.yul\":1479:1485   */\n      0x00\n        /* \"#utility.yul\":1532:1534   */\n      0x20\n        /* \"#utility.yul\":1520:1529   */\n      dup3\n        /* \"#utility.yul\":1511:1518   */\n      dup5\n        /* \"#utility.yul\":1507:1530   */\n      sub\n        /* \"#utility.yul\":1503:1535   */\n      slt\n        /* \"#utility.yul\":1500:1552   */\n      iszero\n      tag_337\n      jumpi\n        /* \"#utility.yul\":1548:1549   */\n      0x00\n        /* \"#utility.yul\":1545:1546   */\n      dup1\n        /* \"#utility.yul\":1538:1550   */\n      revert\n        /* \"#utility.yul\":1500:1552   */\n    tag_337:\n        /* \"#utility.yul\":1571:1600   */\n      tag_338\n        /* \"#utility.yul\":1590:1599   */\n      dup3\n        /* \"#utility.yul\":1571:1600   */\n      tag_316\n      jump\t// in\n    tag_338:\n        /* \"#utility.yul\":1561:1600   */\n      swap4\n        /* \"#utility.yul\":1420:1606   */\n      swap3\n      pop\n      pop\n      pop\n      jump\t// out\n        /* \"#utility.yul\":3593:3753   */\n    tag_319:\n        /* \"#utility.yul\":3658:3678   */\n      dup1\n      calldataload\n        /* \"#utility.yul\":3714:3727   */\n      dup1\n      iszero\n        /* \"#utility.yul\":3707:3728   */\n      iszero\n        /* \"#utility.yul\":3697:3729   */\n      dup2\n      eq\n        /* \"#utility.yul\":3687:3747   */\n      tag_328\n      jumpi\n        /* \"#utility.yul\":3743:3744   */\n      0x00\n        /* \"#utility.yul\":3740:3741   */\n      dup1\n        /* \"#utility.yul\":3733:3745   */\n      revert\n        /* \"#utility.yul\":3758:4074   */\n    tag_84:\n        /* \"#utility.yul\":3826:3832   */\n      0x00\n        /* \"#utility.yul\":3834:3840   */\n      dup1\n        /* \"#utility.yul\":3842:3848   */\n      0x00\n        /* \"#utility.yul\":3895:3897   */\n      0x60\n        /* \"#utility.yul\":3883:3892   */\n      dup5\n        /* \"#utility.yul\":3874:3881   */\n      dup7\n        /* \"#utility.yul\":3870:3893   */\n      sub\n        /* \"#utility.yul\":3866:3898   */\n      slt\n        /* \"#utility.yul\":3863:3915   */\n      iszero\n      tag_346\n      jumpi\n        /* \"#utility.yul\":3911:3912   */\n      0x00\n        /* \"#utility.yul\":3908:3909   */\n      dup1\n        /* \"#utility.yul\":3901:3913   */\n      revert\n        /* \"#utility.yul\":3863:3915   */\n    tag_346:\n        /* \"#utility.yul\":3934:3960   */\n      tag_347\n        /* \"#utility.yul\":3950:3959   */\n      dup5\n        /* \"#utility.yul\":3934:3960   */\n      tag_319\n      jump\t// in\n    tag_347:\n        /* \"#utility.yul\":3924:3960   */\n      swap3\n      pop\n        /* \"#utility.yul\":3979:4014   */\n      tag_348\n        /* \"#utility.yul\":4010:4012   */\n      0x20\n        /* \"#utility.yul\":3999:4008   */\n      dup6\n        /* \"#utility.yul\":3995:4013   */\n      add\n        /* \"#utility.yul\":3979:4014   */\n      tag_319\n      jump\t// in\n    tag_348:\n        /* \"#utility.yul\":3969:4014   */\n      swap2\n      pop\n        /* \"#utility.yul\":4033:4068   */\n      tag_349\n        /* \"#utility.yul\":4064:4066   */\n      0x40\n        /* \"#utility.yul\":4053:4062   */\n      dup6\n        /* \"#utility.yul\":4049:4067   */\n      add\n        /* \"#utility.yul\":4033:4068   */\n      tag_319\n      jump\t// in\n    tag_349:\n        /* \"#utility.yul\":4023:4068   */\n      swap1\n      pop\n        /* \"#utility.yul\":3758:4074   */\n      swap3\n      pop\n      swap3\n      pop\n      swap3\n      jump\t// out\n        /* \"#utility.yul\":4469:4935   */\n    tag_108:\n        /* \"#utility.yul\":4546:4552   */\n      0x00\n        /* \"#utility.yul\":4554:4560   */\n      dup1\n        /* \"#utility.yul\":4562:4568   */\n      0x00\n        /* \"#utility.yul\":4615:4617   */\n      0x60\n        /* \"#utility.yul\":4603:4612   */\n      dup5\n        /* \"#utility.yul\":4594:4601   */\n      dup7\n        /* \"#utility.yul\":4590:4613   */\n      sub\n        /* \"#utility.yul\":4586:4618   */\n      slt\n        /* \"#utility.yul\":4583:4635   */\n      iszero\n      tag_353\n      jumpi\n        /* \"#utility.yul\":4631:4632   */\n      0x00\n        /* \"#utility.yul\":4628:4629   */\n      dup1\n        /* \"#utility.yul\":4621:4633   */\n      revert\n        /* \"#utility.yul\":4583:4635   */\n    tag_353:\n      pop\n      pop\n        /* \"#utility.yul\":4676:4699   */\n      dup2\n      calldataload\n      swap4\n        /* \"#utility.yul\":4796:4798   */\n      0x20\n        /* \"#utility.yul\":4781:4799   */\n      dup4\n      add\n        /* \"#utility.yul\":4768:4800   */\n      calldataload\n      swap4\n      pop\n        /* \"#utility.yul\":4899:4901   */\n      0x40\n        /* \"#utility.yul\":4884:4902   */\n      swap1\n      swap3\n      add\n        /* \"#utility.yul\":4871:4903   */\n      calldataload\n      swap2\n        /* \"#utility.yul\":4469:4935   */\n      swap1\n      pop\n      jump\t// out\n        /* \"#utility.yul\":5507:6539   */\n    tag_321:\n        /* \"#utility.yul\":5590:5602   */\n      dup1\n      sload\n        /* \"#utility.yul\":5578:5603   */\n      dup3\n      mstore\n        /* \"#utility.yul\":5692:5696   */\n      0x01\n        /* \"#utility.yul\":5681:5697   */\n      dup2\n      add\n        /* \"#utility.yul\":5675:5698   */\n      sload\n      sub(shl(0xa0, 0x01), 0x01)\n        /* \"#utility.yul\":5460:5496   */\n      swap1\n      dup2\n      and\n        /* \"#utility.yul\":5758:5762   */\n      0x20\n        /* \"#utility.yul\":5749:5763   */\n      dup5\n      add\n        /* \"#utility.yul\":910:954   */\n      mstore\n        /* \"#utility.yul\":5855:5859   */\n      0x02\n        /* \"#utility.yul\":5844:5860   */\n      dup3\n      add\n        /* \"#utility.yul\":5838:5861   */\n      sload\n        /* \"#utility.yul\":5460:5496   */\n      dup2\n      and\n        /* \"#utility.yul\":5923:5927   */\n      0x40\n        /* \"#utility.yul\":5914:5928   */\n      dup5\n      add\n        /* \"#utility.yul\":910:954   */\n      mstore\n        /* \"#utility.yul\":6020:6024   */\n      0x03\n        /* \"#utility.yul\":6009:6025   */\n      dup3\n      add\n        /* \"#utility.yul\":6003:6026   */\n      sload\n        /* \"#utility.yul\":5460:5496   */\n      and\n        /* \"#utility.yul\":6088:6092   */\n      0x60\n        /* \"#utility.yul\":6079:6093   */\n      dup4\n      add\n        /* \"#utility.yul\":910:954   */\n      mstore\n        /* \"#utility.yul\":6143:6147   */\n      0x04\n        /* \"#utility.yul\":6132:6148   */\n      dup2\n      add\n        /* \"#utility.yul\":6126:6149   */\n      sload\n        /* \"#utility.yul\":6119:6123   */\n      0x80\n        /* \"#utility.yul\":6110:6124   */\n      dup4\n      add\n        /* \"#utility.yul\":6103:6150   */\n      mstore\n        /* \"#utility.yul\":6199:6203   */\n      0x05\n        /* \"#utility.yul\":6188:6204   */\n      dup2\n      add\n        /* \"#utility.yul\":6182:6205   */\n      sload\n        /* \"#utility.yul\":6175:6179   */\n      0xa0\n        /* \"#utility.yul\":6166:6180   */\n      dup4\n      add\n        /* \"#utility.yul\":6159:6206   */\n      mstore\n        /* \"#utility.yul\":6249:6253   */\n      0x06\n        /* \"#utility.yul\":6238:6254   */\n      dup2\n      add\n        /* \"#utility.yul\":6232:6255   */\n      sload\n        /* \"#utility.yul\":6295:6299   */\n      0xff\n        /* \"#utility.yul\":6280:6300   */\n      dup1\n      dup3\n      and\n        /* \"#utility.yul\":1681:1694   */\n      iszero\n        /* \"#utility.yul\":1674:1695   */\n      iszero\n        /* \"#utility.yul\":6311:6315   */\n      0xc0\n        /* \"#utility.yul\":6302:6316   */\n      dup6\n      add\n        /* \"#utility.yul\":1662:1696   */\n      mstore\n        /* \"#utility.yul\":6350:6351   */\n      0x08\n        /* \"#utility.yul\":6346:6363   */\n      dup3\n      swap1\n      shr\n        /* \"#utility.yul\":6342:6370   */\n      and\n        /* \"#utility.yul\":1681:1694   */\n      iszero\n        /* \"#utility.yul\":1674:1695   */\n      iszero\n        /* \"#utility.yul\":6381:6385   */\n      0xe0\n        /* \"#utility.yul\":6372:6386   */\n      dup5\n      add\n        /* \"#utility.yul\":1662:1696   */\n      mstore\n        /* \"#utility.yul\":6396:6460   */\n      tag_365\n        /* \"#utility.yul\":6452:6458   */\n      0x0100\n        /* \"#utility.yul\":6447:6450   */\n      dup5\n        /* \"#utility.yul\":6443:6459   */\n      add\n        /* \"#utility.yul\":6436:6440   */\n      0xff\n        /* \"#utility.yul\":6424:6433   */\n      dup4\n        /* \"#utility.yul\":6420:6422   */\n      0x10\n        /* \"#utility.yul\":6416:6434   */\n      shr\n        /* \"#utility.yul\":6412:6441   */\n      and\n        /* \"#utility.yul\":1681:1694   */\n      iszero\n        /* \"#utility.yul\":1674:1695   */\n      iszero\n        /* \"#utility.yul\":1662:1696   */\n      swap1\n      mstore\n        /* \"#utility.yul\":1611:1702   */\n      jump\n        /* \"#utility.yul\":6396:6460   */\n    tag_365:\n        /* \"#utility.yul\":6469:6533   */\n      tag_366\n        /* \"#utility.yul\":6525:6531   */\n      0x0120\n        /* \"#utility.yul\":6520:6523   */\n      dup5\n        /* \"#utility.yul\":6516:6532   */\n      add\n        /* \"#utility.yul\":6509:6513   */\n      0xff\n        /* \"#utility.yul\":6497:6506   */\n      dup4\n        /* \"#utility.yul\":6493:6495   */\n      0x18\n        /* \"#utility.yul\":6489:6507   */\n      shr\n        /* \"#utility.yul\":6485:6514   */\n      and\n        /* \"#utility.yul\":1681:1694   */\n      iszero\n        /* \"#utility.yul\":1674:1695   */\n      iszero\n        /* \"#utility.yul\":1662:1696   */\n      swap1\n      mstore\n        /* \"#utility.yul\":1611:1702   */\n      jump\n        /* \"#utility.yul\":6469:6533   */\n    tag_366:\n      pop\n        /* \"#utility.yul\":5507:6539   */\n      pop\n      pop\n      jump\t// out\n        /* \"#utility.yul\":6544:6800   */\n    tag_141:\n        /* \"#utility.yul\":6727:6730   */\n      0x0140\n        /* \"#utility.yul\":6712:6731   */\n      dup2\n      add\n        /* \"#utility.yul\":6740:6794   */\n      tag_274\n        /* \"#utility.yul\":6716:6725   */\n      dup3\n        /* \"#utility.yul\":6776:6782   */\n      dup5\n        /* \"#utility.yul\":6740:6794   */\n      tag_321\n      jump\t// in\n        /* \"#utility.yul\":6805:7212   */\n    tag_145:\n        /* \"#utility.yul\":7007:7009   */\n      0x20\n        /* \"#utility.yul\":6989:7010   */\n      dup1\n      dup3\n      mstore\n        /* \"#utility.yul\":7046:7048   */\n      0x2b\n        /* \"#utility.yul\":7026:7044   */\n      swap1\n      dup3\n      add\n        /* \"#utility.yul\":7019:7049   */\n      mstore\n        /* \"#utility.yul\":7085:7119   */\n      0x596f7520617265206e6f7420616c6c6f77656420746f207265736f6c76652074\n        /* \"#utility.yul\":7080:7082   */\n      0x40\n        /* \"#utility.yul\":7065:7083   */\n      dup3\n      add\n        /* \"#utility.yul\":7058:7120   */\n      mstore\n      shl(0xa8, 0x6869732064697370757465)\n        /* \"#utility.yul\":7151:7153   */\n      0x60\n        /* \"#utility.yul\":7136:7154   */\n      dup3\n      add\n        /* \"#utility.yul\":7129:7170   */\n      mstore\n        /* \"#utility.yul\":7202:7205   */\n      0x80\n        /* \"#utility.yul\":7187:7206   */\n      add\n      swap1\n        /* \"#utility.yul\":6805:7212   */\n      jump\t// out\n        /* \"#utility.yul\":7217:7624   */\n    tag_148:\n        /* \"#utility.yul\":7419:7421   */\n      0x20\n        /* \"#utility.yul\":7401:7422   */\n      dup1\n      dup3\n      mstore\n        /* \"#utility.yul\":7458:7460   */\n      0x2b\n        /* \"#utility.yul\":7438:7456   */\n      swap1\n      dup3\n      add\n        /* \"#utility.yul\":7431:7461   */\n      mstore\n        /* \"#utility.yul\":7497:7531   */\n      0x5468657265206973206e6f206469737075746520726169656420696e20746869\n        /* \"#utility.yul\":7492:7494   */\n      0x40\n        /* \"#utility.yul\":7477:7495   */\n      dup3\n      add\n        /* \"#utility.yul\":7470:7532   */\n      mstore\n      shl(0xaa, 0x1cc81859dc99595b595b9d)\n        /* \"#utility.yul\":7563:7565   */\n      0x60\n        /* \"#utility.yul\":7548:7566   */\n      dup3\n      add\n        /* \"#utility.yul\":7541:7582   */\n      mstore\n        /* \"#utility.yul\":7614:7617   */\n      0x80\n        /* \"#utility.yul\":7599:7618   */\n      add\n      swap1\n        /* \"#utility.yul\":7217:7624   */\n      jump\t// out\n        /* \"#utility.yul\":8465:8592   */\n    tag_322:\n        /* \"#utility.yul\":8526:8536   */\n      0x4e487b71\n        /* \"#utility.yul\":8521:8524   */\n      0xe0\n        /* \"#utility.yul\":8517:8537   */\n      shl\n        /* \"#utility.yul\":8514:8515   */\n      0x00\n        /* \"#utility.yul\":8507:8538   */\n      mstore\n        /* \"#utility.yul\":8557:8561   */\n      0x11\n        /* \"#utility.yul\":8554:8555   */\n      0x04\n        /* \"#utility.yul\":8547:8562   */\n      mstore\n        /* \"#utility.yul\":8581:8585   */\n      0x24\n        /* \"#utility.yul\":8578:8579   */\n      0x00\n        /* \"#utility.yul\":8571:8586   */\n      revert\n        /* \"#utility.yul\":8597:8725   */\n    tag_159:\n        /* \"#utility.yul\":8664:8673   */\n      dup2\n      dup2\n      sub\n        /* \"#utility.yul\":8685:8696   */\n      dup2\n      dup2\n      gt\n        /* \"#utility.yul\":8682:8719   */\n      iszero\n      tag_274\n      jumpi\n        /* \"#utility.yul\":8699:8717   */\n      tag_274\n      tag_322\n      jump\t// in\n        /* \"#utility.yul\":10151:10495   */\n    tag_180:\n        /* \"#utility.yul\":10353:10355   */\n      0x20\n        /* \"#utility.yul\":10335:10356   */\n      dup1\n      dup3\n      mstore\n        /* \"#utility.yul\":10392:10394   */\n      0x14\n        /* \"#utility.yul\":10372:10390   */\n      swap1\n      dup3\n      add\n        /* \"#utility.yul\":10365:10395   */\n      mstore\n      shl(0x61, 0x2a3434b9903a30b9b59034b9903737bb9037b333)\n        /* \"#utility.yul\":10426:10428   */\n      0x40\n        /* \"#utility.yul\":10411:10429   */\n      dup3\n      add\n        /* \"#utility.yul\":10404:10454   */\n      mstore\n        /* \"#utility.yul\":10486:10488   */\n      0x60\n        /* \"#utility.yul\":10471:10489   */\n      add\n      swap1\n        /* \"#utility.yul\":10151:10495   */\n      jump\t// out\n        /* \"#utility.yul\":10500:10635   */\n    tag_182:\n        /* \"#utility.yul\":10539:10542   */\n      0x00\n        /* \"#utility.yul\":10560:10577   */\n      0x01\n      dup3\n      add\n        /* \"#utility.yul\":10557:10600   */\n      tag_384\n      jumpi\n        /* \"#utility.yul\":10580:10598   */\n      tag_384\n      tag_322\n      jump\t// in\n    tag_384:\n      pop\n        /* \"#utility.yul\":10627:10628   */\n      0x01\n        /* \"#utility.yul\":10616:10629   */\n      add\n      swap1\n        /* \"#utility.yul\":10500:10635   */\n      jump\t// out\n        /* \"#utility.yul\":10640:11183   */\n    tag_184:\n        /* \"#utility.yul\":10858:10871   */\n      dup2\n      sload\n        /* \"#utility.yul\":10840:10872   */\n      dup2\n      mstore\n        /* \"#utility.yul\":10957:10958   */\n      0x01\n        /* \"#utility.yul\":10920:10937   */\n      dup3\n      add\n        /* \"#utility.yul\":10914:10938   */\n      sload\n      sub(shl(0xa0, 0x01), 0x01)\n        /* \"#utility.yul\":10910:10960   */\n      and\n        /* \"#utility.yul\":10903:10907   */\n      0x20\n        /* \"#utility.yul\":10888:10908   */\n      dup3\n      add\n        /* \"#utility.yul\":10881:10961   */\n      mstore\n        /* \"#utility.yul\":11017:11021   */\n      0x02\n        /* \"#utility.yul\":11005:11022   */\n      dup3\n      add\n        /* \"#utility.yul\":10999:11023   */\n      sload\n        /* \"#utility.yul\":10992:10996   */\n      0x40\n        /* \"#utility.yul\":10977:10997   */\n      dup3\n      add\n        /* \"#utility.yul\":10970:11024   */\n      mstore\n        /* \"#utility.yul\":11080:11084   */\n      0x03\n        /* \"#utility.yul\":11068:11085   */\n      dup3\n      add\n        /* \"#utility.yul\":11062:11086   */\n      sload\n        /* \"#utility.yul\":11055:11059   */\n      0x60\n        /* \"#utility.yul\":11040:11060   */\n      dup3\n      add\n        /* \"#utility.yul\":11033:11087   */\n      mstore\n        /* \"#utility.yul\":11161:11165   */\n      0x04\n        /* \"#utility.yul\":11149:11166   */\n      swap1\n      swap2\n      add\n        /* \"#utility.yul\":11143:11167   */\n      sload\n        /* \"#utility.yul\":11169:11173   */\n      0xff\n        /* \"#utility.yul\":11139:11174   */\n      and\n        /* \"#utility.yul\":11132:11175   */\n      iszero\n        /* \"#utility.yul\":11125:11176   */\n      iszero\n        /* \"#utility.yul\":11118:11122   */\n      0x80\n        /* \"#utility.yul\":11103:11123   */\n      dup3\n      add\n        /* \"#utility.yul\":11096:11177   */\n      mstore\n        /* \"#utility.yul\":10827:10830   */\n      0xa0\n        /* \"#utility.yul\":10812:10831   */\n      add\n      swap1\n        /* \"#utility.yul\":10640:11183   */\n      jump\t// out\n        /* \"#utility.yul\":11188:11589   */\n    tag_188:\n        /* \"#utility.yul\":11390:11392   */\n      0x20\n        /* \"#utility.yul\":11372:11393   */\n      dup1\n      dup3\n      mstore\n        /* \"#utility.yul\":11429:11431   */\n      0x25\n        /* \"#utility.yul\":11409:11427   */\n      swap1\n      dup3\n      add\n        /* \"#utility.yul\":11402:11432   */\n      mstore\n        /* \"#utility.yul\":11468:11502   */\n      0x596f75206e65656420746f20626520616e20656d706c6f79657220746f20646f\n        /* \"#utility.yul\":11463:11465   */\n      0x40\n        /* \"#utility.yul\":11448:11466   */\n      dup3\n      add\n        /* \"#utility.yul\":11441:11503   */\n      mstore\n      shl(0xda, 0x081d1a185d)\n        /* \"#utility.yul\":11534:11536   */\n      0x60\n        /* \"#utility.yul\":11519:11537   */\n      dup3\n      add\n        /* \"#utility.yul\":11512:11547   */\n      mstore\n        /* \"#utility.yul\":11579:11582   */\n      0x80\n        /* \"#utility.yul\":11564:11583   */\n      add\n      swap1\n        /* \"#utility.yul\":11188:11589   */\n      jump\t// out\n        /* \"#utility.yul\":11948:12073   */\n    tag_196:\n        /* \"#utility.yul\":12013:12022   */\n      dup1\n      dup3\n      add\n        /* \"#utility.yul\":12034:12044   */\n      dup1\n      dup3\n      gt\n        /* \"#utility.yul\":12031:12067   */\n      iszero\n      tag_274\n      jumpi\n        /* \"#utility.yul\":12047:12065   */\n      tag_274\n      tag_322\n      jump\t// in\n        /* \"#utility.yul\":12078:12440   */\n    tag_323:\n        /* \"#utility.yul\":12155:12167   */\n      dup1\n      mload\n        /* \"#utility.yul\":12143:12168   */\n      dup3\n      mstore\n        /* \"#utility.yul\":12221:12225   */\n      0x20\n        /* \"#utility.yul\":12210:12226   */\n      dup1\n      dup3\n      add\n        /* \"#utility.yul\":12204:12227   */\n      mload\n      sub(shl(0xa0, 0x01), 0x01)\n        /* \"#utility.yul\":12200:12249   */\n      and\n        /* \"#utility.yul\":12184:12198   */\n      swap1\n      dup4\n      add\n        /* \"#utility.yul\":12177:12250   */\n      mstore\n        /* \"#utility.yul\":12299:12303   */\n      0x40\n        /* \"#utility.yul\":12288:12304   */\n      dup1\n      dup3\n      add\n        /* \"#utility.yul\":12282:12305   */\n      mload\n        /* \"#utility.yul\":12266:12280   */\n      swap1\n      dup4\n      add\n        /* \"#utility.yul\":12259:12306   */\n      mstore\n        /* \"#utility.yul\":12355:12359   */\n      0x60\n        /* \"#utility.yul\":12344:12360   */\n      dup1\n      dup3\n      add\n        /* \"#utility.yul\":12338:12361   */\n      mload\n        /* \"#utility.yul\":12322:12336   */\n      swap1\n      dup4\n      add\n        /* \"#utility.yul\":12315:12362   */\n      mstore\n        /* \"#utility.yul\":12425:12429   */\n      0x80\n        /* \"#utility.yul\":12414:12430   */\n      swap1\n      dup2\n      add\n        /* \"#utility.yul\":12408:12431   */\n      mload\n        /* \"#utility.yul\":12401:12432   */\n      iszero\n        /* \"#utility.yul\":12394:12433   */\n      iszero\n        /* \"#utility.yul\":12378:12392   */\n      swap2\n      add\n        /* \"#utility.yul\":12371:12434   */\n      mstore\n        /* \"#utility.yul\":12078:12440   */\n      jump\t// out\n        /* \"#utility.yul\":12445:12702   */\n    tag_199:\n        /* \"#utility.yul\":12635:12638   */\n      0xa0\n        /* \"#utility.yul\":12620:12639   */\n      dup2\n      add\n        /* \"#utility.yul\":12648:12696   */\n      tag_274\n        /* \"#utility.yul\":12624:12633   */\n      dup3\n        /* \"#utility.yul\":12678:12684   */\n      dup5\n        /* \"#utility.yul\":12648:12696   */\n      tag_323\n      jump\t// in\n        /* \"#utility.yul\":12707:13035   */\n    tag_201:\n        /* \"#utility.yul\":12938:12963   */\n      dup3\n      dup2\n      mstore\n        /* \"#utility.yul\":12925:12928   */\n      0xc0\n        /* \"#utility.yul\":12910:12929   */\n      dup2\n      add\n        /* \"#utility.yul\":12972:13029   */\n      tag_338\n        /* \"#utility.yul\":13025:13027   */\n      0x20\n        /* \"#utility.yul\":13010:13028   */\n      dup4\n      add\n        /* \"#utility.yul\":13002:13008   */\n      dup5\n        /* \"#utility.yul\":12972:13029   */\n      tag_323\n      jump\t// in\n        /* \"#utility.yul\":16131:16581   */\n    tag_241:\n      sub(shl(0xa0, 0x01), 0x01)\n        /* \"#utility.yul\":16401:16433   */\n      dup5\n      dup2\n      and\n        /* \"#utility.yul\":16383:16434   */\n      dup3\n      mstore\n        /* \"#utility.yul\":16470:16502   */\n      dup4\n      and\n        /* \"#utility.yul\":16465:16467   */\n      0x20\n        /* \"#utility.yul\":16450:16468   */\n      dup3\n      add\n        /* \"#utility.yul\":16443:16503   */\n      mstore\n        /* \"#utility.yul\":16370:16373   */\n      0x0180\n        /* \"#utility.yul\":16355:16374   */\n      dup2\n      add\n        /* \"#utility.yul\":16512:16575   */\n      tag_405\n        /* \"#utility.yul\":16571:16573   */\n      0x40\n        /* \"#utility.yul\":16556:16574   */\n      dup4\n      add\n        /* \"#utility.yul\":16548:16554   */\n      dup5\n        /* \"#utility.yul\":16512:16575   */\n      tag_321\n      jump\t// in\n    tag_405:\n        /* \"#utility.yul\":16131:16581   */\n      swap5\n      swap4\n      pop\n      pop\n      pop\n      pop\n      jump\t// out\n        /* \"#utility.yul\":16934:17102   */\n    tag_257:\n        /* \"#utility.yul\":17007:17016   */\n      dup1\n      dup3\n      mul\n        /* \"#utility.yul\":17038:17047   */\n      dup2\n      iszero\n        /* \"#utility.yul\":17055:17070   */\n      dup3\n      dup3\n      div\n        /* \"#utility.yul\":17049:17071   */\n      dup5\n      eq\n        /* \"#utility.yul\":17035:17072   */\n      or\n        /* \"#utility.yul\":17025:17096   */\n      tag_274\n      jumpi\n        /* \"#utility.yul\":17076:17094   */\n      tag_274\n      tag_322\n      jump\t// in\n        /* \"#utility.yul\":17107:17324   */\n    tag_259:\n        /* \"#utility.yul\":17147:17148   */\n      0x00\n        /* \"#utility.yul\":17173:17174   */\n      dup3\n        /* \"#utility.yul\":17163:17295   */\n      tag_411\n      jumpi\n        /* \"#utility.yul\":17217:17227   */\n      0x4e487b71\n        /* \"#utility.yul\":17212:17215   */\n      0xe0\n        /* \"#utility.yul\":17208:17228   */\n      shl\n        /* \"#utility.yul\":17205:17206   */\n      0x00\n        /* \"#utility.yul\":17198:17229   */\n      mstore\n        /* \"#utility.yul\":17252:17256   */\n      0x12\n        /* \"#utility.yul\":17249:17250   */\n      0x04\n        /* \"#utility.yul\":17242:17257   */\n      mstore\n        /* \"#utility.yul\":17280:17284   */\n      0x24\n        /* \"#utility.yul\":17277:17278   */\n      0x00\n        /* \"#utility.yul\":17270:17285   */\n      revert\n        /* \"#utility.yul\":17163:17295   */\n    tag_411:\n      pop\n        /* \"#utility.yul\":17309:17318   */\n      div\n      swap1\n        /* \"#utility.yul\":17107:17324   */\n      jump\t// out\n        /* \"#utility.yul\":18099:18500   */\n    tag_285:\n        /* \"#utility.yul\":18301:18303   */\n      0x20\n        /* \"#utility.yul\":18283:18304   */\n      dup1\n      dup3\n      mstore\n        /* \"#utility.yul\":18340:18342   */\n      0x25\n        /* \"#utility.yul\":18320:18338   */\n      swap1\n      dup3\n      add\n        /* \"#utility.yul\":18313:18343   */\n      mstore\n        /* \"#utility.yul\":18379:18413   */\n      0x596f7520617265206e6f742074686520656d706c6f796572206f662074686973\n        /* \"#utility.yul\":18374:18376   */\n      0x40\n        /* \"#utility.yul\":18359:18377   */\n      dup3\n      add\n        /* \"#utility.yul\":18352:18414   */\n      mstore\n      shl(0xd8, 0x20776f726b)\n        /* \"#utility.yul\":18445:18447   */\n      0x60\n        /* \"#utility.yul\":18430:18448   */\n      dup3\n      add\n        /* \"#utility.yul\":18423:18458   */\n      mstore\n        /* \"#utility.yul\":18490:18493   */\n      0x80\n        /* \"#utility.yul\":18475:18494   */\n      add\n      swap1\n        /* \"#utility.yul\":18099:18500   */\n      jump\t// out\n        /* \"#utility.yul\":18852:20071   */\n    tag_306:\n        /* \"#utility.yul\":19069:19082   */\n      dup2\n      mload\n        /* \"#utility.yul\":19051:19083   */\n      dup2\n      mstore\n        /* \"#utility.yul\":19130:19134   */\n      0x20\n        /* \"#utility.yul\":19118:19135   */\n      dup1\n      dup4\n      add\n        /* \"#utility.yul\":19112:19136   */\n      mload\n        /* \"#utility.yul\":19038:19041   */\n      0x0140\n        /* \"#utility.yul\":19023:19042   */\n      dup4\n      add\n      swap2\n        /* \"#utility.yul\":19145:19207   */\n      tag_417\n      swap1\n        /* \"#utility.yul\":19186:19206   */\n      dup5\n      add\n        /* \"#utility.yul\":19112:19136   */\n      dup3\n      sub(shl(0xa0, 0x01), 0x01)\n        /* \"#utility.yul\":922:953   */\n      and\n        /* \"#utility.yul\":910:954   */\n      swap1\n      mstore\n        /* \"#utility.yul\":848:960   */\n      jump\n        /* \"#utility.yul\":19145:19207   */\n    tag_417:\n      pop\n        /* \"#utility.yul\":19256:19260   */\n      0x40\n        /* \"#utility.yul\":19248:19254   */\n      dup4\n        /* \"#utility.yul\":19244:19261   */\n      add\n        /* \"#utility.yul\":19238:19262   */\n      mload\n        /* \"#utility.yul\":19271:19335   */\n      tag_418\n        /* \"#utility.yul\":19329:19333   */\n      0x40\n        /* \"#utility.yul\":19318:19327   */\n      dup5\n        /* \"#utility.yul\":19314:19334   */\n      add\n        /* \"#utility.yul\":19298:19312   */\n      dup3\n      sub(shl(0xa0, 0x01), 0x01)\n        /* \"#utility.yul\":922:953   */\n      and\n        /* \"#utility.yul\":910:954   */\n      swap1\n      mstore\n        /* \"#utility.yul\":848:960   */\n      jump\n        /* \"#utility.yul\":19271:19335   */\n    tag_418:\n      pop\n        /* \"#utility.yul\":19384:19388   */\n      0x60\n        /* \"#utility.yul\":19376:19382   */\n      dup4\n        /* \"#utility.yul\":19372:19389   */\n      add\n        /* \"#utility.yul\":19366:19390   */\n      mload\n        /* \"#utility.yul\":19399:19463   */\n      tag_419\n        /* \"#utility.yul\":19457:19461   */\n      0x60\n        /* \"#utility.yul\":19446:19455   */\n      dup5\n        /* \"#utility.yul\":19442:19462   */\n      add\n        /* \"#utility.yul\":19426:19440   */\n      dup3\n      sub(shl(0xa0, 0x01), 0x01)\n        /* \"#utility.yul\":922:953   */\n      and\n        /* \"#utility.yul\":910:954   */\n      swap1\n      mstore\n        /* \"#utility.yul\":848:960   */\n      jump\n        /* \"#utility.yul\":19399:19463   */\n    tag_419:\n      pop\n        /* \"#utility.yul\":19519:19523   */\n      0x80\n        /* \"#utility.yul\":19511:19517   */\n      dup4\n        /* \"#utility.yul\":19507:19524   */\n      add\n        /* \"#utility.yul\":19501:19525   */\n      mload\n        /* \"#utility.yul\":19494:19498   */\n      0x80\n        /* \"#utility.yul\":19483:19492   */\n      dup4\n        /* \"#utility.yul\":19479:19499   */\n      add\n        /* \"#utility.yul\":19472:19526   */\n      mstore\n        /* \"#utility.yul\":19582:19586   */\n      0xa0\n        /* \"#utility.yul\":19574:19580   */\n      dup4\n        /* \"#utility.yul\":19570:19587   */\n      add\n        /* \"#utility.yul\":19564:19588   */\n      mload\n        /* \"#utility.yul\":19557:19561   */\n      0xa0\n        /* \"#utility.yul\":19546:19555   */\n      dup4\n        /* \"#utility.yul\":19542:19562   */\n      add\n        /* \"#utility.yul\":19535:19589   */\n      mstore\n        /* \"#utility.yul\":19638:19642   */\n      0xc0\n        /* \"#utility.yul\":19630:19636   */\n      dup4\n        /* \"#utility.yul\":19626:19643   */\n      add\n        /* \"#utility.yul\":19620:19644   */\n      mload\n        /* \"#utility.yul\":19653:19706   */\n      tag_420\n        /* \"#utility.yul\":19700:19704   */\n      0xc0\n        /* \"#utility.yul\":19689:19698   */\n      dup5\n        /* \"#utility.yul\":19685:19705   */\n      add\n        /* \"#utility.yul\":19669:19683   */\n      dup3\n        /* \"#utility.yul\":1681:1694   */\n      iszero\n        /* \"#utility.yul\":1674:1695   */\n      iszero\n        /* \"#utility.yul\":1662:1696   */\n      swap1\n      mstore\n        /* \"#utility.yul\":1611:1702   */\n      jump\n        /* \"#utility.yul\":19653:19706   */\n    tag_420:\n      pop\n        /* \"#utility.yul\":19755:19759   */\n      0xe0\n        /* \"#utility.yul\":19747:19753   */\n      dup4\n        /* \"#utility.yul\":19743:19760   */\n      add\n        /* \"#utility.yul\":19737:19761   */\n      mload\n        /* \"#utility.yul\":19770:19823   */\n      tag_421\n        /* \"#utility.yul\":19817:19821   */\n      0xe0\n        /* \"#utility.yul\":19806:19815   */\n      dup5\n        /* \"#utility.yul\":19802:19822   */\n      add\n        /* \"#utility.yul\":19786:19800   */\n      dup3\n        /* \"#utility.yul\":1681:1694   */\n      iszero\n        /* \"#utility.yul\":1674:1695   */\n      iszero\n        /* \"#utility.yul\":1662:1696   */\n      swap1\n      mstore\n        /* \"#utility.yul\":1611:1702   */\n      jump\n        /* \"#utility.yul\":19770:19823   */\n    tag_421:\n      pop\n        /* \"#utility.yul\":19872:19878   */\n      0x0100\n        /* \"#utility.yul\":19864:19870   */\n      dup4\n        /* \"#utility.yul\":19860:19879   */\n      add\n        /* \"#utility.yul\":19854:19880   */\n      mload\n        /* \"#utility.yul\":19889:19944   */\n      tag_422\n        /* \"#utility.yul\":19936:19942   */\n      0x0100\n        /* \"#utility.yul\":19925:19934   */\n      dup5\n        /* \"#utility.yul\":19921:19943   */\n      add\n        /* \"#utility.yul\":19905:19919   */\n      dup3\n        /* \"#utility.yul\":1681:1694   */\n      iszero\n        /* \"#utility.yul\":1674:1695   */\n      iszero\n        /* \"#utility.yul\":1662:1696   */\n      swap1\n      mstore\n        /* \"#utility.yul\":1611:1702   */\n      jump\n        /* \"#utility.yul\":19889:19944   */\n    tag_422:\n      pop\n        /* \"#utility.yul\":19993:19999   */\n      0x0120\n        /* \"#utility.yul\":19985:19991   */\n      dup4\n        /* \"#utility.yul\":19981:20000   */\n      add\n        /* \"#utility.yul\":19975:20001   */\n      mload\n        /* \"#utility.yul\":20010:20065   */\n      tag_423\n        /* \"#utility.yul\":20057:20063   */\n      0x0120\n        /* \"#utility.yul\":20046:20055   */\n      dup5\n        /* \"#utility.yul\":20042:20064   */\n      add\n        /* \"#utility.yul\":20026:20040   */\n      dup3\n        /* \"#utility.yul\":1681:1694   */\n      iszero\n        /* \"#utility.yul\":1674:1695   */\n      iszero\n        /* \"#utility.yul\":1662:1696   */\n      swap1\n      mstore\n        /* \"#utility.yul\":1611:1702   */\n      jump\n        /* \"#utility.yul\":20010:20065   */\n    tag_423:\n      pop\n        /* \"#utility.yul\":18852:20071   */\n      swap3\n      swap2\n      pop\n      pop\n      jump\t// out\n        /* \"#utility.yul\":20481:20835   */\n    tag_315:\n        /* \"#utility.yul\":20692:20695   */\n      0x0160\n        /* \"#utility.yul\":20677:20696   */\n      dup2\n      add\n        /* \"#utility.yul\":20705:20759   */\n      tag_426\n        /* \"#utility.yul\":20681:20690   */\n      dup3\n        /* \"#utility.yul\":20741:20747   */\n      dup6\n        /* \"#utility.yul\":20705:20759   */\n      tag_321\n      jump\t// in\n    tag_426:\n      sub(shl(0xa0, 0x01), 0x01)\n        /* \"#utility.yul\":20796:20828   */\n      swap3\n      swap1\n      swap3\n      and\n        /* \"#utility.yul\":20790:20793   */\n      0x0140\n        /* \"#utility.yul\":20775:20794   */\n      swap2\n      swap1\n      swap2\n      add\n        /* \"#utility.yul\":20768:20829   */\n      mstore\n        /* \"#utility.yul\":20481:20835   */\n      swap2\n      swap1\n      pop\n      jump\t// out\n\n    auxdata: 0xa2646970667358221220fca5096ece98ebb8cb569cf342d6653992d5f5a8563997d041472582741d050564736f6c634300081a0033\n}\n",
				"bytecode": {
					"linkReferences": {},
					"object": "6080604052348015600e575f80fd5b50600180546001600160a01b031916331790556121f28061002e5f395ff3fe60806040526004361061012c575f3560e01c8063ccdb5756116100a4578063e14f5b7d1161006b578063e14f5b7d146104be578063e6306847146104dd578063e7decd80146104fc578063ebf1f2a01461053b578063ef32fc511461055a578063f130a9a71461056f57005b8063ccdb575614610412578063d27dc26114610449578063d4c06b8d1461046c578063d84bcafa14610480578063dc0b716f1461049f57005b8063693648fe116100f3578063693648fe146102425780636d58a991146102c9578063880b5212146102e85780639e1f68c7146102f0578063a0e1b1b2146103d4578063c0d58835146103f357005b806312386b3c1461013557806315201bc9146101545780631cefaf2214610173578063368db4f4146101af5780635e5c06e2146101ce57005b3661013357005b005b348015610140575f80fd5b5061013361014f366004611c78565b61058e565b34801561015f575f80fd5b5061013361016e366004611cb3565b610685565b34801561017e575f80fd5b50600154610192906001600160a01b031681565b6040516001600160a01b0390911681526020015b60405180910390f35b3480156101ba575f80fd5b506101336101c9366004611cdd565b6108d6565b3480156101d9575f80fd5b506102186101e8366004611cf4565b60046020525f908152604090205460ff808216916101008104821691620100008204811691630100000090041684565b604080519415158552921515602085015290151591830191909152151560608201526080016101a6565b34801561024d575f80fd5b5061029761025c366004611cdd565b60056020525f90815260409020805460018201546002830154600384015460049094015492936001600160a01b039092169290919060ff1685565b604080519586526001600160a01b0390941660208601529284019190915260608301521515608082015260a0016101a6565b3480156102d4575f80fd5b506101336102e3366004611cdd565b610a72565b610133610bb1565b3480156102fb575f80fd5b5061037561030a366004611cdd565b600660208190525f9182526040909120805460018201546002830154600384015460048501546005860154959096015493956001600160a01b0393841695928416949190931692919060ff80821691610100810482169162010000820481169163010000009004168a565b604080519a8b526001600160a01b03998a1660208c0152978916978a0197909752969094166060880152608087019290925260a0860152151560c0850152151560e08401529015156101008301521515610120820152610140016101a6565b3480156103df575f80fd5b506101336103ee366004611cdd565b610d6c565b3480156103fe575f80fd5b5061013361040d366004611d23565b610e3d565b34801561041d575f80fd5b5061019261042c366004611cdd565b5f908152600660205260409020600301546001600160a01b031690565b348015610454575f80fd5b5061045e60025481565b6040519081526020016101a6565b348015610477575f80fd5b5061045e5f5481565b34801561048b575f80fd5b5061013361049a366004611cb3565b61101b565b3480156104aa575f80fd5b506101336104b9366004611d63565b6112d8565b3480156104c9575f80fd5b506101336104d8366004611cdd565b611548565b3480156104e8575f80fd5b506101926104f7366004611c78565b611623565b348015610507575f80fd5b50610192610516366004611c78565b5f918252600a602090815260408084209284529190529020546001600160a01b031690565b348015610546575f80fd5b50610133610555366004611cdd565b6116cb565b348015610565575f80fd5b5061045e60035481565b34801561057a575f80fd5b50610133610589366004611c78565b611848565b5f828152600a602090815260408083208484529091529020546001600160a01b031633146106295760405162461bcd60e51b815260206004820152603760248201527f596f7520617265206e6f742061736b656420746f20626520746865206d69646460448201527f6c656d616e206f6620746869732061677265656d656e7400000000000000000060648201526084015b60405180910390fd5b5f82815260066020526040908190206003810180546001600160a01b0319163317905590517f8e2794fe81d3de94f11720da5c041740f288e2259807db54455a9450a2b9d9d39161067991611e1d565b60405180910390a15050565b6001546001600160a01b031633146106af5760405162461bcd60e51b815260040161062090611e2c565b5f828152600660208190526040909120015462010000900460ff1615156001146106eb5760405162461bcd60e51b815260040161062090611e77565b5f828152600660205260409020600201546001600160a01b038281169116148061073057505f828152600660205260409020600101546001600160a01b038281169116145b6107b05760405162461bcd60e51b8152602060048201526044602482018190527f5468652062656e6566696369617279206973206e6f7420616e20656d706c6f79908201527f6565206e6f7220616e20656d706c6f796572206f6620746869732061677265656064820152631b595b9d60e21b608482015260a401610620565b5f82815260066020819052604090912001546301000000900460ff16156108195760405162461bcd60e51b815260206004820152601e60248201527f54686973206469737075746520686173206265656e207265736f6c76656400006044820152606401610620565b5f828152600660208190526040808320918201805463ff00000019166301000000179055600490910154905190916001600160a01b0384169183156108fc0291849190818181858888f19350505050158015610877573d5f803e3d5ffd5b50805f808282546108889190611ed6565b90915550505f838152600660205260409081902090517f4414e2410dc3f703de3e5e59f569037a7a0cad3ba316efa45884d1ecb9eb87b6916108c991611e1d565b60405180910390a1505050565b5f818152600660205260409020600101546001600160a01b031633146109515760405162461bcd60e51b815260206004820152602a60248201527f596f7520617265206e6f742074686520656d706c6f796572206f662074686973604482015269081859dc99595b595b9d60b21b6064820152608401610620565b5f818152600660208190526040909120015460ff1615156001146109cb5760405162461bcd60e51b815260206004820152602b60248201527f54686520656d706c6f796565206973206e6f7420646f6e65207769746820746860448201526a1a5cc81d185cdac81e595d60aa1b6064820152608401610620565b5f818152600660208190526040808320918201805461ff0019166101001790556004820154600290920154905191926001600160a01b039091169183156108fc0291849190818181858888f19350505050158015610a2b573d5f803e3d5ffd5b50805f80828254610a3c9190611ed6565b9091555050604051600181527fa4ede5d74c01c87599cae178018f06f538ed1c40ac51ee85cbe677e1f750174190602001610679565b335f9081526004602052604090205460ff610100909104161515600114610ae95760405162461bcd60e51b815260206004820152602560248201527f596f75206e65656420746f20626520616e20656d706c6f79656520746f20646f604482015264081d1a185d60da1b6064820152608401610620565b5f8181526005602052604090206004015460ff1615610b1a5760405162461bcd60e51b815260040161062090611ee9565b5f818152600560205260408120600201805491610b3683611f17565b90915550505f81815260076020908152604080832060058084528285206002810154865291845282852080546001600160a01b0319163390811790915594869052909252517f125d2a0bdb8a3a40e7436cc2059497256bd2245b87d54dd0355626f896915b6a91610ba691611f2f565b60405180910390a250565b335f9081526004602052604090205460ff161515600114610be45760405162461bcd60e51b815260040161062090611f70565b64e8d4a51000341015610c395760405162461bcd60e51b815260206004820152601960248201527f496e73756666696369656e74207374616b6520616d6f756e74000000000000006044820152606401610620565b610c716040518060a001604052805f81526020015f6001600160a01b031681526020015f81526020015f81526020015f151581525090565b33602082015234606082018190525f80548291908190610c92908490611fb5565b909155505060028054905f610ca683611f17565b909155505060025482526040515f90610cc3908490602001612000565b60408051808303601f1901815282825280516020918201205f8181526005835283902087518155918701516001830180546001600160a01b0319166001600160a01b039092169190911790559186015160028201556060860151600382015560808601516004909101805460ff191691151591909117905591507f6aaaee1f7978f24b816a48f45856820482005d4a498a03b7ee0d253d5620d7e4906108c9908390869061200e565b5f818152600660205260409020600201546001600160a01b03163314610de75760405162461bcd60e51b815260206004820152602a60248201527f596f7520617265206e6f742074686520656d706c6f796565206f662074686973604482015269081859dc99595b595b9d60b21b6064820152608401610620565b5f81815260066020818152604092839020909101805460ff1916600190811790915591519182527f6b5b92d1755824b841015b7514f1ac495070c0c43a54e1910906802b69d8ef1a91015b60405180910390a150565b5f8315610e525780610e4e81611f17565b9150505b8215610e665780610e6281611f17565b9150505b8115610e7a5780610e7681611f17565b9150505b80600114610eca5760405162461bcd60e51b815260206004820152601860248201527f506c656173652063686f6f7365206f6e65206f7074696f6e00000000000000006044820152606401610620565b335f908152600460205260409020546301000000900460ff1615610f305760405162461bcd60e51b815260206004820152601a60248201527f596f752061726520616c726561647920726567697374657265640000000000006044820152606401610620565b60408051608080820183528415158284019081528615158352871515602080850191825260016060808701918252335f8181526004855289902088518154875189518751151563010000000263ff0000001991151562010000029190911663ffff0000199215156101000261ff001995151595861661ffff19909516949094179390931791909116919091171790915589519081529451151593850193909352935115159683019690965294511515918101919091529192917fce3414a9430a9f7eaffc6c778a41650564295838a267ba27e9b19324936c57bd910160405180910390a25050505050565b5f828152600660205260409020600201546001600160a01b031633148061105a57505f828152600660205260409020600101546001600160a01b031633145b6110a65760405162461bcd60e51b815260206004820152601e60248201527f596f7520617265206e6f7420616c6c6f77656420746f207375676765737400006044820152606401610620565b5f8281526008602090815260408083206001600160a01b0385168452825280832033845290915290205460ff161561112c5760405162461bcd60e51b8152602060048201526024808201527f596f7520616c726561647920766f74656420666f722074686973206d6964646c60448201526332b6b0b760e11b6064820152608401610620565b5f828152600660205260409020600301546001600160a01b0316156111935760405162461bcd60e51b815260206004820152601c60248201527f596f7520616c726561647920686176652061206d6964646c656d616e000000006044820152606401610620565b6001600160a01b0381165f9081526004602052604090205462010000900460ff166112005760405162461bcd60e51b815260206004820152601f60248201527f546869732061646472657373206973206e6f742061206d6964646c656d616e006044820152606401610620565b5f8281526008602090815260408083206001600160a01b0385168085529083528184203385528352818420805460ff1916600117905585845260098352818420908452909152812080549161125483611f17565b90915550505f828152600660205260409081902090517fff979177845809081c92e1ba70979d86da19a33b85fbb9cee73eff3c04bb3278916112999133918591612022565b60405180910390a15f8281526009602090815260408083206001600160a01b03851684529091529020546002036112d4576112d48282611b4c565b5050565b5f838152600660205260409020600301546001600160a01b031633146113105760405162461bcd60e51b815260040161062090611e2c565b5f838152600660208190526040909120015462010000900460ff16151560011461134c5760405162461bcd60e51b815260040161062090611e77565b5f83815260066020819052604090912001546301000000900460ff16156113b55760405162461bcd60e51b815260206004820152601e60248201527f54686973206469737075746520686173206265656e207265736f6c76656400006044820152606401610620565b6113bf8183611fb5565b6064146114045760405162461bcd60e51b8152602060048201526013602482015272496e76616c69642070657263656e746167657360681b6044820152606401610620565b5f8381526006602081905260408220908101805463ff00000019166301000000179055600401549060646114388584612050565b6114429190612067565b90505f60646114518585612050565b61145b9190612067565b5f878152600660205260408082206002015490519293506001600160a01b03169184156108fc0291859190818181858888f193505050501580156114a1573d5f803e3d5ffd5b505f868152600660205260408082206001015490516001600160a01b039091169183156108fc02918491818181858888f193505050501580156114e6573d5f803e3d5ffd5b50825f808282546114f79190611ed6565b90915550505f868152600660205260409081902090517f4414e2410dc3f703de3e5e59f569037a7a0cad3ba316efa45884d1ecb9eb87b69161153891611e1d565b60405180910390a1505050505050565b5f818152600660205260409020600201546001600160a01b031633148061158757505f818152600660205260409020600101546001600160a01b031633145b6115d35760405162461bcd60e51b815260206004820152601b60248201527f596f7520646f206e6f7420706f7373657320617574686f7269747900000000006044820152606401610620565b5f81815260066020819052604091829020908101805462ff000019166201000017905590517f89c904236423d143f6a6f9c32ec2df98d5f84d015fb8d98e5b49aceaa47936cc91610e3291611e1d565b5f828152600560205260408120600101546001600160a01b031633146116a15760405162461bcd60e51b815260206004820152602d60248201527f596f7520617265206e6f742074686520656d706c6f796572206f66207468697360448201526c206f66666572656420576f726b60981b6064820152608401610620565b505f8281526007602090815260408083208484529091529020546001600160a01b03165b92915050565b335f9081526004602052604090205460ff1615156001146116fe5760405162461bcd60e51b815260040161062090611f70565b5f818152600560205260409020600101546001600160a01b031633146117365760405162461bcd60e51b815260040161062090612086565b5f8181526005602052604090206004015460ff16156117675760405162461bcd60e51b815260040161062090611ee9565b5f81815260056020526040812060030154905410156117bd5760405162461bcd60e51b81526020600482015260126024820152714e6f7420656e6f7567682062616c616e636560701b6044820152606401610620565b5f8181526005602052604080822060038101546004909101805460ff1916600117905590519091339183156108fc0291849190818181858888f1935050505015801561180b573d5f803e3d5ffd5b505f828152600560205260409081902090517f3f53cc6a10041fe7e6b257ec942b9a75b4b9feb7a16948c05b4b7e5e62a1be3c9161067991611f2f565b335f9081526004602052604090205460ff16151560011461187b5760405162461bcd60e51b815260040161062090611f70565b5f828152600560205260409020600101546001600160a01b031633146118b35760405162461bcd60e51b815260040161062090612086565b5f8281526005602052604090206004015460ff16156118e45760405162461bcd60e51b815260040161062090611ee9565b60408051610140810182525f808252818301818152606083018290526080830182815260a0840183905260c0840183905260e084018390526101008401839052610120840183905233602080860191909152878452600781528584208785528152858420546001600160a01b03169092528683526005909152928120600390810154909352825491929061197783611f17565b909155505060035481526040515f906119949083906020016120cb565b6040516020818303038152906040528051906020012090508160065f8381526020019081526020015f205f820151815f01556020820151816001015f6101000a8154816001600160a01b0302191690836001600160a01b031602179055506040820151816002015f6101000a8154816001600160a01b0302191690836001600160a01b031602179055506060820151816003015f6101000a8154816001600160a01b0302191690836001600160a01b031602179055506080820151816004015560a0820151816005015560c0820151816006015f6101000a81548160ff02191690831515021790555060e08201518160060160016101000a81548160ff0219169083151502179055506101008201518160060160026101000a81548160ff0219169083151502179055506101208201518160060160036101000a81548160ff021916908315150217905550905050600160055f8681526020019081526020015f206004015f6101000a81548160ff021916908315150217905550807f48c881a7c1d926662d0098effc11da375e1ff734560dbb1c516952f7b8d8730483604051611b3e91906120cb565b60405180910390a250505050565b5f828152600660205260409020600201546001600160a01b0316331480611b8b57505f828152600660205260409020600101546001600160a01b031633145b611be35760405162461bcd60e51b8152602060048201526024808201527f596f7520617265206e6f7420616c6c6f77656420746f20736574206d6964646c60448201526332b6b0b760e11b6064820152608401610620565b5f828152600660205260408120600501805491611bff83611f17565b90915550505f828152600a6020908152604080832060068084528285206005810154865291845282852080546001600160a01b0319166001600160a01b0388161790559386905292909152517ffcf44e491581609c685c7b5fa8839ade41e28403a552a59db096f0bee4715c5d91610679918490612194565b5f8060408385031215611c89575f80fd5b50508035926020909101359150565b80356001600160a01b0381168114611cae575f80fd5b919050565b5f8060408385031215611cc4575f80fd5b82359150611cd460208401611c98565b90509250929050565b5f60208284031215611ced575f80fd5b5035919050565b5f60208284031215611d04575f80fd5b611d0d82611c98565b9392505050565b80358015158114611cae575f80fd5b5f805f60608486031215611d35575f80fd5b611d3e84611d14565b9250611d4c60208501611d14565b9150611d5a60408501611d14565b90509250925092565b5f805f60608486031215611d75575f80fd5b505081359360208301359350604090920135919050565b8054825260018101546001600160a01b039081166020840152600282015481166040840152600382015416606083015260048101546080830152600581015460a0830152600681015460ff808216151560c0850152600882901c16151560e0840152611e03610100840160ff8360101c1615159052565b611e18610120840160ff8360181c1615159052565b505050565b61014081016116c58284611d8c565b6020808252602b908201527f596f7520617265206e6f7420616c6c6f77656420746f207265736f6c7665207460408201526a686973206469737075746560a81b606082015260800190565b6020808252602b908201527f5468657265206973206e6f206469737075746520726169656420696e2074686960408201526a1cc81859dc99595b595b9d60aa1b606082015260800190565b634e487b7160e01b5f52601160045260245ffd5b818103818111156116c5576116c5611ec2565b6020808252601490820152732a3434b9903a30b9b59034b9903737bb9037b33360611b604082015260600190565b5f60018201611f2857611f28611ec2565b5060010190565b8154815260018201546001600160a01b03166020820152600282015460408201526003820154606082015260049091015460ff161515608082015260a00190565b60208082526025908201527f596f75206e65656420746f20626520616e20656d706c6f79657220746f20646f604082015264081d1a185d60da1b606082015260800190565b808201808211156116c5576116c5611ec2565b805182526020808201516001600160a01b03169083015260408082015190830152606080820151908301526080908101511515910152565b60a081016116c58284611fc8565b82815260c08101611d0d6020830184611fc8565b6001600160a01b0384811682528316602082015261018081016120486040830184611d8c565b949350505050565b80820281158282048414176116c5576116c5611ec2565b5f8261208157634e487b7160e01b5f52601260045260245ffd5b500490565b60208082526025908201527f596f7520617265206e6f742074686520656d706c6f796572206f66207468697360408201526420776f726b60d81b606082015260800190565b815181526020808301516101408301916120ef908401826001600160a01b03169052565b50604083015161210a60408401826001600160a01b03169052565b50606083015161212560608401826001600160a01b03169052565b506080830151608083015260a083015160a083015260c083015161214d60c084018215159052565b5060e083015161216160e084018215159052565b5061010083015161217761010084018215159052565b5061012083015161218d61012084018215159052565b5092915050565b61016081016121a38285611d8c565b6001600160a01b0392909216610140919091015291905056fea2646970667358221220fca5096ece98ebb8cb569cf342d6653992d5f5a8563997d041472582741d050564736f6c634300081a0033",
					"opcodes": "PUSH1 0x80 PUSH1 0x40 MSTORE CALLVALUE DUP1 ISZERO PUSH1 0xE JUMPI PUSH0 DUP1 REVERT JUMPDEST POP PUSH1 0x1 DUP1 SLOAD PUSH1 0x1 PUSH1 0x1 PUSH1 0xA0 SHL SUB NOT AND CALLER OR SWAP1 SSTORE PUSH2 0x21F2 DUP1 PUSH2 0x2E PUSH0 CODECOPY PUSH0 RETURN INVALID PUSH1 0x80 PUSH1 0x40 MSTORE PUSH1 0x4 CALLDATASIZE LT PUSH2 0x12C JUMPI PUSH0 CALLDATALOAD PUSH1 0xE0 SHR DUP1 PUSH4 0xCCDB5756 GT PUSH2 0xA4 JUMPI DUP1 PUSH4 0xE14F5B7D GT PUSH2 0x6B JUMPI DUP1 PUSH4 0xE14F5B7D EQ PUSH2 0x4BE JUMPI DUP1 PUSH4 0xE6306847 EQ PUSH2 0x4DD JUMPI DUP1 PUSH4 0xE7DECD80 EQ PUSH2 0x4FC JUMPI DUP1 PUSH4 0xEBF1F2A0 EQ PUSH2 0x53B JUMPI DUP1 PUSH4 0xEF32FC51 EQ PUSH2 0x55A JUMPI DUP1 PUSH4 0xF130A9A7 EQ PUSH2 0x56F JUMPI STOP JUMPDEST DUP1 PUSH4 0xCCDB5756 EQ PUSH2 0x412 JUMPI DUP1 PUSH4 0xD27DC261 EQ PUSH2 0x449 JUMPI DUP1 PUSH4 0xD4C06B8D EQ PUSH2 0x46C JUMPI DUP1 PUSH4 0xD84BCAFA EQ PUSH2 0x480 JUMPI DUP1 PUSH4 0xDC0B716F EQ PUSH2 0x49F JUMPI STOP JUMPDEST DUP1 PUSH4 0x693648FE GT PUSH2 0xF3 JUMPI DUP1 PUSH4 0x693648FE EQ PUSH2 0x242 JUMPI DUP1 PUSH4 0x6D58A991 EQ PUSH2 0x2C9 JUMPI DUP1 PUSH4 0x880B5212 EQ PUSH2 0x2E8 JUMPI DUP1 PUSH4 0x9E1F68C7 EQ PUSH2 0x2F0 JUMPI DUP1 PUSH4 0xA0E1B1B2 EQ PUSH2 0x3D4 JUMPI DUP1 PUSH4 0xC0D58835 EQ PUSH2 0x3F3 JUMPI STOP JUMPDEST DUP1 PUSH4 0x12386B3C EQ PUSH2 0x135 JUMPI DUP1 PUSH4 0x15201BC9 EQ PUSH2 0x154 JUMPI DUP1 PUSH4 0x1CEFAF22 EQ PUSH2 0x173 JUMPI DUP1 PUSH4 0x368DB4F4 EQ PUSH2 0x1AF JUMPI DUP1 PUSH4 0x5E5C06E2 EQ PUSH2 0x1CE JUMPI STOP JUMPDEST CALLDATASIZE PUSH2 0x133 JUMPI STOP JUMPDEST STOP JUMPDEST CALLVALUE DUP1 ISZERO PUSH2 0x140 JUMPI PUSH0 DUP1 REVERT JUMPDEST POP PUSH2 0x133 PUSH2 0x14F CALLDATASIZE PUSH1 0x4 PUSH2 0x1C78 JUMP JUMPDEST PUSH2 0x58E JUMP JUMPDEST CALLVALUE DUP1 ISZERO PUSH2 0x15F JUMPI PUSH0 DUP1 REVERT JUMPDEST POP PUSH2 0x133 PUSH2 0x16E CALLDATASIZE PUSH1 0x4 PUSH2 0x1CB3 JUMP JUMPDEST PUSH2 0x685 JUMP JUMPDEST CALLVALUE DUP1 ISZERO PUSH2 0x17E JUMPI PUSH0 DUP1 REVERT JUMPDEST POP PUSH1 0x1 SLOAD PUSH2 0x192 SWAP1 PUSH1 0x1 PUSH1 0x1 PUSH1 0xA0 SHL SUB AND DUP2 JUMP JUMPDEST PUSH1 0x40 MLOAD PUSH1 0x1 PUSH1 0x1 PUSH1 0xA0 SHL SUB SWAP1 SWAP2 AND DUP2 MSTORE PUSH1 0x20 ADD JUMPDEST PUSH1 0x40 MLOAD DUP1 SWAP2 SUB SWAP1 RETURN JUMPDEST CALLVALUE DUP1 ISZERO PUSH2 0x1BA JUMPI PUSH0 DUP1 REVERT JUMPDEST POP PUSH2 0x133 PUSH2 0x1C9 CALLDATASIZE PUSH1 0x4 PUSH2 0x1CDD JUMP JUMPDEST PUSH2 0x8D6 JUMP JUMPDEST CALLVALUE DUP1 ISZERO PUSH2 0x1D9 JUMPI PUSH0 DUP1 REVERT JUMPDEST POP PUSH2 0x218 PUSH2 0x1E8 CALLDATASIZE PUSH1 0x4 PUSH2 0x1CF4 JUMP JUMPDEST PUSH1 0x4 PUSH1 0x20 MSTORE PUSH0 SWAP1 DUP2 MSTORE PUSH1 0x40 SWAP1 KECCAK256 SLOAD PUSH1 0xFF DUP1 DUP3 AND SWAP2 PUSH2 0x100 DUP2 DIV DUP3 AND SWAP2 PUSH3 0x10000 DUP3 DIV DUP2 AND SWAP2 PUSH4 0x1000000 SWAP1 DIV AND DUP5 JUMP JUMPDEST PUSH1 0x40 DUP1 MLOAD SWAP5 ISZERO ISZERO DUP6 MSTORE SWAP3 ISZERO ISZERO PUSH1 0x20 DUP6 ADD MSTORE SWAP1 ISZERO ISZERO SWAP2 DUP4 ADD SWAP2 SWAP1 SWAP2 MSTORE ISZERO ISZERO PUSH1 0x60 DUP3 ADD MSTORE PUSH1 0x80 ADD PUSH2 0x1A6 JUMP JUMPDEST CALLVALUE DUP1 ISZERO PUSH2 0x24D JUMPI PUSH0 DUP1 REVERT JUMPDEST POP PUSH2 0x297 PUSH2 0x25C CALLDATASIZE PUSH1 0x4 PUSH2 0x1CDD JUMP JUMPDEST PUSH1 0x5 PUSH1 0x20 MSTORE PUSH0 SWAP1 DUP2 MSTORE PUSH1 0x40 SWAP1 KECCAK256 DUP1 SLOAD PUSH1 0x1 DUP3 ADD SLOAD PUSH1 0x2 DUP4 ADD SLOAD PUSH1 0x3 DUP5 ADD SLOAD PUSH1 0x4 SWAP1 SWAP5 ADD SLOAD SWAP3 SWAP4 PUSH1 0x1 PUSH1 0x1 PUSH1 0xA0 SHL SUB SWAP1 SWAP3 AND SWAP3 SWAP1 SWAP2 SWAP1 PUSH1 0xFF AND DUP6 JUMP JUMPDEST PUSH1 0x40 DUP1 MLOAD SWAP6 DUP7 MSTORE PUSH1 0x1 PUSH1 0x1 PUSH1 0xA0 SHL SUB SWAP1 SWAP5 AND PUSH1 0x20 DUP7 ADD MSTORE SWAP3 DUP5 ADD SWAP2 SWAP1 SWAP2 MSTORE PUSH1 0x60 DUP4 ADD MSTORE ISZERO ISZERO PUSH1 0x80 DUP3 ADD MSTORE PUSH1 0xA0 ADD PUSH2 0x1A6 JUMP JUMPDEST CALLVALUE DUP1 ISZERO PUSH2 0x2D4 JUMPI PUSH0 DUP1 REVERT JUMPDEST POP PUSH2 0x133 PUSH2 0x2E3 CALLDATASIZE PUSH1 0x4 PUSH2 0x1CDD JUMP JUMPDEST PUSH2 0xA72 JUMP JUMPDEST PUSH2 0x133 PUSH2 0xBB1 JUMP JUMPDEST CALLVALUE DUP1 ISZERO PUSH2 0x2FB JUMPI PUSH0 DUP1 REVERT JUMPDEST POP PUSH2 0x375 PUSH2 0x30A CALLDATASIZE PUSH1 0x4 PUSH2 0x1CDD JUMP JUMPDEST PUSH1 0x6 PUSH1 0x20 DUP2 SWAP1 MSTORE PUSH0 SWAP2 DUP3 MSTORE PUSH1 0x40 SWAP1 SWAP2 KECCAK256 DUP1 SLOAD PUSH1 0x1 DUP3 ADD SLOAD PUSH1 0x2 DUP4 ADD SLOAD PUSH1 0x3 DUP5 ADD SLOAD PUSH1 0x4 DUP6 ADD SLOAD PUSH1 0x5 DUP7 ADD SLOAD SWAP6 SWAP1 SWAP7 ADD SLOAD SWAP4 SWAP6 PUSH1 0x1 PUSH1 0x1 PUSH1 0xA0 SHL SUB SWAP4 DUP5 AND SWAP6 SWAP3 DUP5 AND SWAP5 SWAP2 SWAP1 SWAP4 AND SWAP3 SWAP2 SWAP1 PUSH1 0xFF DUP1 DUP3 AND SWAP2 PUSH2 0x100 DUP2 DIV DUP3 AND SWAP2 PUSH3 0x10000 DUP3 DIV DUP2 AND SWAP2 PUSH4 0x1000000 SWAP1 DIV AND DUP11 JUMP JUMPDEST PUSH1 0x40 DUP1 MLOAD SWAP11 DUP12 MSTORE PUSH1 0x1 PUSH1 0x1 PUSH1 0xA0 SHL SUB SWAP10 DUP11 AND PUSH1 0x20 DUP13 ADD MSTORE SWAP8 DUP10 AND SWAP8 DUP11 ADD SWAP8 SWAP1 SWAP8 MSTORE SWAP7 SWAP1 SWAP5 AND PUSH1 0x60 DUP9 ADD MSTORE PUSH1 0x80 DUP8 ADD SWAP3 SWAP1 SWAP3 MSTORE PUSH1 0xA0 DUP7 ADD MSTORE ISZERO ISZERO PUSH1 0xC0 DUP6 ADD MSTORE ISZERO ISZERO PUSH1 0xE0 DUP5 ADD MSTORE SWAP1 ISZERO ISZERO PUSH2 0x100 DUP4 ADD MSTORE ISZERO ISZERO PUSH2 0x120 DUP3 ADD MSTORE PUSH2 0x140 ADD PUSH2 0x1A6 JUMP JUMPDEST CALLVALUE DUP1 ISZERO PUSH2 0x3DF JUMPI PUSH0 DUP1 REVERT JUMPDEST POP PUSH2 0x133 PUSH2 0x3EE CALLDATASIZE PUSH1 0x4 PUSH2 0x1CDD JUMP JUMPDEST PUSH2 0xD6C JUMP JUMPDEST CALLVALUE DUP1 ISZERO PUSH2 0x3FE JUMPI PUSH0 DUP1 REVERT JUMPDEST POP PUSH2 0x133 PUSH2 0x40D CALLDATASIZE PUSH1 0x4 PUSH2 0x1D23 JUMP JUMPDEST PUSH2 0xE3D JUMP JUMPDEST CALLVALUE DUP1 ISZERO PUSH2 0x41D JUMPI PUSH0 DUP1 REVERT JUMPDEST POP PUSH2 0x192 PUSH2 0x42C CALLDATASIZE PUSH1 0x4 PUSH2 0x1CDD JUMP JUMPDEST PUSH0 SWAP1 DUP2 MSTORE PUSH1 0x6 PUSH1 0x20 MSTORE PUSH1 0x40 SWAP1 KECCAK256 PUSH1 0x3 ADD SLOAD PUSH1 0x1 PUSH1 0x1 PUSH1 0xA0 SHL SUB AND SWAP1 JUMP JUMPDEST CALLVALUE DUP1 ISZERO PUSH2 0x454 JUMPI PUSH0 DUP1 REVERT JUMPDEST POP PUSH2 0x45E PUSH1 0x2 SLOAD DUP2 JUMP JUMPDEST PUSH1 0x40 MLOAD SWAP1 DUP2 MSTORE PUSH1 0x20 ADD PUSH2 0x1A6 JUMP JUMPDEST CALLVALUE DUP1 ISZERO PUSH2 0x477 JUMPI PUSH0 DUP1 REVERT JUMPDEST POP PUSH2 0x45E PUSH0 SLOAD DUP2 JUMP JUMPDEST CALLVALUE DUP1 ISZERO PUSH2 0x48B JUMPI PUSH0 DUP1 REVERT JUMPDEST POP PUSH2 0x133 PUSH2 0x49A CALLDATASIZE PUSH1 0x4 PUSH2 0x1CB3 JUMP JUMPDEST PUSH2 0x101B JUMP JUMPDEST CALLVALUE DUP1 ISZERO PUSH2 0x4AA JUMPI PUSH0 DUP1 REVERT JUMPDEST POP PUSH2 0x133 PUSH2 0x4B9 CALLDATASIZE PUSH1 0x4 PUSH2 0x1D63 JUMP JUMPDEST PUSH2 0x12D8 JUMP JUMPDEST CALLVALUE DUP1 ISZERO PUSH2 0x4C9 JUMPI PUSH0 DUP1 REVERT JUMPDEST POP PUSH2 0x133 PUSH2 0x4D8 CALLDATASIZE PUSH1 0x4 PUSH2 0x1CDD JUMP JUMPDEST PUSH2 0x1548 JUMP JUMPDEST CALLVALUE DUP1 ISZERO PUSH2 0x4E8 JUMPI PUSH0 DUP1 REVERT JUMPDEST POP PUSH2 0x192 PUSH2 0x4F7 CALLDATASIZE PUSH1 0x4 PUSH2 0x1C78 JUMP JUMPDEST PUSH2 0x1623 JUMP JUMPDEST CALLVALUE DUP1 ISZERO PUSH2 0x507 JUMPI PUSH0 DUP1 REVERT JUMPDEST POP PUSH2 0x192 PUSH2 0x516 CALLDATASIZE PUSH1 0x4 PUSH2 0x1C78 JUMP JUMPDEST PUSH0 SWAP2 DUP3 MSTORE PUSH1 0xA PUSH1 0x20 SWAP1 DUP2 MSTORE PUSH1 0x40 DUP1 DUP5 KECCAK256 SWAP3 DUP5 MSTORE SWAP2 SWAP1 MSTORE SWAP1 KECCAK256 SLOAD PUSH1 0x1 PUSH1 0x1 PUSH1 0xA0 SHL SUB AND SWAP1 JUMP JUMPDEST CALLVALUE DUP1 ISZERO PUSH2 0x546 JUMPI PUSH0 DUP1 REVERT JUMPDEST POP PUSH2 0x133 PUSH2 0x555 CALLDATASIZE PUSH1 0x4 PUSH2 0x1CDD JUMP JUMPDEST PUSH2 0x16CB JUMP JUMPDEST CALLVALUE DUP1 ISZERO PUSH2 0x565 JUMPI PUSH0 DUP1 REVERT JUMPDEST POP PUSH2 0x45E PUSH1 0x3 SLOAD DUP2 JUMP JUMPDEST CALLVALUE DUP1 ISZERO PUSH2 0x57A JUMPI PUSH0 DUP1 REVERT JUMPDEST POP PUSH2 0x133 PUSH2 0x589 CALLDATASIZE PUSH1 0x4 PUSH2 0x1C78 JUMP JUMPDEST PUSH2 0x1848 JUMP JUMPDEST PUSH0 DUP3 DUP2 MSTORE PUSH1 0xA PUSH1 0x20 SWAP1 DUP2 MSTORE PUSH1 0x40 DUP1 DUP4 KECCAK256 DUP5 DUP5 MSTORE SWAP1 SWAP2 MSTORE SWAP1 KECCAK256 SLOAD PUSH1 0x1 PUSH1 0x1 PUSH1 0xA0 SHL SUB AND CALLER EQ PUSH2 0x629 JUMPI PUSH1 0x40 MLOAD PUSH3 0x461BCD PUSH1 0xE5 SHL DUP2 MSTORE PUSH1 0x20 PUSH1 0x4 DUP3 ADD MSTORE PUSH1 0x37 PUSH1 0x24 DUP3 ADD MSTORE PUSH32 0x596F7520617265206E6F742061736B656420746F20626520746865206D696464 PUSH1 0x44 DUP3 ADD MSTORE PUSH32 0x6C656D616E206F6620746869732061677265656D656E74000000000000000000 PUSH1 0x64 DUP3 ADD MSTORE PUSH1 0x84 ADD JUMPDEST PUSH1 0x40 MLOAD DUP1 SWAP2 SUB SWAP1 REVERT JUMPDEST PUSH0 DUP3 DUP2 MSTORE PUSH1 0x6 PUSH1 0x20 MSTORE PUSH1 0x40 SWAP1 DUP2 SWAP1 KECCAK256 PUSH1 0x3 DUP2 ADD DUP1 SLOAD PUSH1 0x1 PUSH1 0x1 PUSH1 0xA0 SHL SUB NOT AND CALLER OR SWAP1 SSTORE SWAP1 MLOAD PUSH32 0x8E2794FE81D3DE94F11720DA5C041740F288E2259807DB54455A9450A2B9D9D3 SWAP2 PUSH2 0x679 SWAP2 PUSH2 0x1E1D JUMP JUMPDEST PUSH1 0x40 MLOAD DUP1 SWAP2 SUB SWAP1 LOG1 POP POP JUMP JUMPDEST PUSH1 0x1 SLOAD PUSH1 0x1 PUSH1 0x1 PUSH1 0xA0 SHL SUB AND CALLER EQ PUSH2 0x6AF JUMPI PUSH1 0x40 MLOAD PUSH3 0x461BCD PUSH1 0xE5 SHL DUP2 MSTORE PUSH1 0x4 ADD PUSH2 0x620 SWAP1 PUSH2 0x1E2C JUMP JUMPDEST PUSH0 DUP3 DUP2 MSTORE PUSH1 0x6 PUSH1 0x20 DUP2 SWAP1 MSTORE PUSH1 0x40 SWAP1 SWAP2 KECCAK256 ADD SLOAD PUSH3 0x10000 SWAP1 DIV PUSH1 0xFF AND ISZERO ISZERO PUSH1 0x1 EQ PUSH2 0x6EB JUMPI PUSH1 0x40 MLOAD PUSH3 0x461BCD PUSH1 0xE5 SHL DUP2 MSTORE PUSH1 0x4 ADD PUSH2 0x620 SWAP1 PUSH2 0x1E77 JUMP JUMPDEST PUSH0 DUP3 DUP2 MSTORE PUSH1 0x6 PUSH1 0x20 MSTORE PUSH1 0x40 SWAP1 KECCAK256 PUSH1 0x2 ADD SLOAD PUSH1 0x1 PUSH1 0x1 PUSH1 0xA0 SHL SUB DUP3 DUP2 AND SWAP2 AND EQ DUP1 PUSH2 0x730 JUMPI POP PUSH0 DUP3 DUP2 MSTORE PUSH1 0x6 PUSH1 0x20 MSTORE PUSH1 0x40 SWAP1 KECCAK256 PUSH1 0x1 ADD SLOAD PUSH1 0x1 PUSH1 0x1 PUSH1 0xA0 SHL SUB DUP3 DUP2 AND SWAP2 AND EQ JUMPDEST PUSH2 0x7B0 JUMPI PUSH1 0x40 MLOAD PUSH3 0x461BCD PUSH1 0xE5 SHL DUP2 MSTORE PUSH1 0x20 PUSH1 0x4 DUP3 ADD MSTORE PUSH1 0x44 PUSH1 0x24 DUP3 ADD DUP2 SWAP1 MSTORE PUSH32 0x5468652062656E6566696369617279206973206E6F7420616E20656D706C6F79 SWAP1 DUP3 ADD MSTORE PUSH32 0x6565206E6F7220616E20656D706C6F796572206F662074686973206167726565 PUSH1 0x64 DUP3 ADD MSTORE PUSH4 0x1B595B9D PUSH1 0xE2 SHL PUSH1 0x84 DUP3 ADD MSTORE PUSH1 0xA4 ADD PUSH2 0x620 JUMP JUMPDEST PUSH0 DUP3 DUP2 MSTORE PUSH1 0x6 PUSH1 0x20 DUP2 SWAP1 MSTORE PUSH1 0x40 SWAP1 SWAP2 KECCAK256 ADD SLOAD PUSH4 0x1000000 SWAP1 DIV PUSH1 0xFF AND ISZERO PUSH2 0x819 JUMPI PUSH1 0x40 MLOAD PUSH3 0x461BCD PUSH1 0xE5 SHL DUP2 MSTORE PUSH1 0x20 PUSH1 0x4 DUP3 ADD MSTORE PUSH1 0x1E PUSH1 0x24 DUP3 ADD MSTORE PUSH32 0x54686973206469737075746520686173206265656E207265736F6C7665640000 PUSH1 0x44 DUP3 ADD MSTORE PUSH1 0x64 ADD PUSH2 0x620 JUMP JUMPDEST PUSH0 DUP3 DUP2 MSTORE PUSH1 0x6 PUSH1 0x20 DUP2 SWAP1 MSTORE PUSH1 0x40 DUP1 DUP4 KECCAK256 SWAP2 DUP3 ADD DUP1 SLOAD PUSH4 0xFF000000 NOT AND PUSH4 0x1000000 OR SWAP1 SSTORE PUSH1 0x4 SWAP1 SWAP2 ADD SLOAD SWAP1 MLOAD SWAP1 SWAP2 PUSH1 0x1 PUSH1 0x1 PUSH1 0xA0 SHL SUB DUP5 AND SWAP2 DUP4 ISZERO PUSH2 0x8FC MUL SWAP2 DUP5 SWAP2 SWAP1 DUP2 DUP2 DUP2 DUP6 DUP9 DUP9 CALL SWAP4 POP POP POP POP ISZERO DUP1 ISZERO PUSH2 0x877 JUMPI RETURNDATASIZE PUSH0 DUP1 RETURNDATACOPY RETURNDATASIZE PUSH0 REVERT JUMPDEST POP DUP1 PUSH0 DUP1 DUP3 DUP3 SLOAD PUSH2 0x888 SWAP2 SWAP1 PUSH2 0x1ED6 JUMP JUMPDEST SWAP1 SWAP2 SSTORE POP POP PUSH0 DUP4 DUP2 MSTORE PUSH1 0x6 PUSH1 0x20 MSTORE PUSH1 0x40 SWAP1 DUP2 SWAP1 KECCAK256 SWAP1 MLOAD PUSH32 0x4414E2410DC3F703DE3E5E59F569037A7A0CAD3BA316EFA45884D1ECB9EB87B6 SWAP2 PUSH2 0x8C9 SWAP2 PUSH2 0x1E1D JUMP JUMPDEST PUSH1 0x40 MLOAD DUP1 SWAP2 SUB SWAP1 LOG1 POP POP POP JUMP JUMPDEST PUSH0 DUP2 DUP2 MSTORE PUSH1 0x6 PUSH1 0x20 MSTORE PUSH1 0x40 SWAP1 KECCAK256 PUSH1 0x1 ADD SLOAD PUSH1 0x1 PUSH1 0x1 PUSH1 0xA0 SHL SUB AND CALLER EQ PUSH2 0x951 JUMPI PUSH1 0x40 MLOAD PUSH3 0x461BCD PUSH1 0xE5 SHL DUP2 MSTORE PUSH1 0x20 PUSH1 0x4 DUP3 ADD MSTORE PUSH1 0x2A PUSH1 0x24 DUP3 ADD MSTORE PUSH32 0x596F7520617265206E6F742074686520656D706C6F796572206F662074686973 PUSH1 0x44 DUP3 ADD MSTORE PUSH10 0x81859DC99595B595B9D PUSH1 0xB2 SHL PUSH1 0x64 DUP3 ADD MSTORE PUSH1 0x84 ADD PUSH2 0x620 JUMP JUMPDEST PUSH0 DUP2 DUP2 MSTORE PUSH1 0x6 PUSH1 0x20 DUP2 SWAP1 MSTORE PUSH1 0x40 SWAP1 SWAP2 KECCAK256 ADD SLOAD PUSH1 0xFF AND ISZERO ISZERO PUSH1 0x1 EQ PUSH2 0x9CB JUMPI PUSH1 0x40 MLOAD PUSH3 0x461BCD PUSH1 0xE5 SHL DUP2 MSTORE PUSH1 0x20 PUSH1 0x4 DUP3 ADD MSTORE PUSH1 0x2B PUSH1 0x24 DUP3 ADD MSTORE PUSH32 0x54686520656D706C6F796565206973206E6F7420646F6E652077697468207468 PUSH1 0x44 DUP3 ADD MSTORE PUSH11 0x1A5CC81D185CDAC81E595D PUSH1 0xAA SHL PUSH1 0x64 DUP3 ADD MSTORE PUSH1 0x84 ADD PUSH2 0x620 JUMP JUMPDEST PUSH0 DUP2 DUP2 MSTORE PUSH1 0x6 PUSH1 0x20 DUP2 SWAP1 MSTORE PUSH1 0x40 DUP1 DUP4 KECCAK256 SWAP2 DUP3 ADD DUP1 SLOAD PUSH2 0xFF00 NOT AND PUSH2 0x100 OR SWAP1 SSTORE PUSH1 0x4 DUP3 ADD SLOAD PUSH1 0x2 SWAP1 SWAP3 ADD SLOAD SWAP1 MLOAD SWAP2 SWAP3 PUSH1 0x1 PUSH1 0x1 PUSH1 0xA0 SHL SUB SWAP1 SWAP2 AND SWAP2 DUP4 ISZERO PUSH2 0x8FC MUL SWAP2 DUP5 SWAP2 SWAP1 DUP2 DUP2 DUP2 DUP6 DUP9 DUP9 CALL SWAP4 POP POP POP POP ISZERO DUP1 ISZERO PUSH2 0xA2B JUMPI RETURNDATASIZE PUSH0 DUP1 RETURNDATACOPY RETURNDATASIZE PUSH0 REVERT JUMPDEST POP DUP1 PUSH0 DUP1 DUP3 DUP3 SLOAD PUSH2 0xA3C SWAP2 SWAP1 PUSH2 0x1ED6 JUMP JUMPDEST SWAP1 SWAP2 SSTORE POP POP PUSH1 0x40 MLOAD PUSH1 0x1 DUP2 MSTORE PUSH32 0xA4EDE5D74C01C87599CAE178018F06F538ED1C40AC51EE85CBE677E1F7501741 SWAP1 PUSH1 0x20 ADD PUSH2 0x679 JUMP JUMPDEST CALLER PUSH0 SWAP1 DUP2 MSTORE PUSH1 0x4 PUSH1 0x20 MSTORE PUSH1 0x40 SWAP1 KECCAK256 SLOAD PUSH1 0xFF PUSH2 0x100 SWAP1 SWAP2 DIV AND ISZERO ISZERO PUSH1 0x1 EQ PUSH2 0xAE9 JUMPI PUSH1 0x40 MLOAD PUSH3 0x461BCD PUSH1 0xE5 SHL DUP2 MSTORE PUSH1 0x20 PUSH1 0x4 DUP3 ADD MSTORE PUSH1 0x25 PUSH1 0x24 DUP3 ADD MSTORE PUSH32 0x596F75206E65656420746F20626520616E20656D706C6F79656520746F20646F PUSH1 0x44 DUP3 ADD MSTORE PUSH5 0x81D1A185D PUSH1 0xDA SHL PUSH1 0x64 DUP3 ADD MSTORE PUSH1 0x84 ADD PUSH2 0x620 JUMP JUMPDEST PUSH0 DUP2 DUP2 MSTORE PUSH1 0x5 PUSH1 0x20 MSTORE PUSH1 0x40 SWAP1 KECCAK256 PUSH1 0x4 ADD SLOAD PUSH1 0xFF AND ISZERO PUSH2 0xB1A JUMPI PUSH1 0x40 MLOAD PUSH3 0x461BCD PUSH1 0xE5 SHL DUP2 MSTORE PUSH1 0x4 ADD PUSH2 0x620 SWAP1 PUSH2 0x1EE9 JUMP JUMPDEST PUSH0 DUP2 DUP2 MSTORE PUSH1 0x5 PUSH1 0x20 MSTORE PUSH1 0x40 DUP2 KECCAK256 PUSH1 0x2 ADD DUP1 SLOAD SWAP2 PUSH2 0xB36 DUP4 PUSH2 0x1F17 JUMP JUMPDEST SWAP1 SWAP2 SSTORE POP POP PUSH0 DUP2 DUP2 MSTORE PUSH1 0x7 PUSH1 0x20 SWAP1 DUP2 MSTORE PUSH1 0x40 DUP1 DUP4 KECCAK256 PUSH1 0x5 DUP1 DUP5 MSTORE DUP3 DUP6 KECCAK256 PUSH1 0x2 DUP2 ADD SLOAD DUP7 MSTORE SWAP2 DUP5 MSTORE DUP3 DUP6 KECCAK256 DUP1 SLOAD PUSH1 0x1 PUSH1 0x1 PUSH1 0xA0 SHL SUB NOT AND CALLER SWAP1 DUP2 OR SWAP1 SWAP2 SSTORE SWAP5 DUP7 SWAP1 MSTORE SWAP1 SWAP3 MSTORE MLOAD PUSH32 0x125D2A0BDB8A3A40E7436CC2059497256BD2245B87D54DD0355626F896915B6A SWAP2 PUSH2 0xBA6 SWAP2 PUSH2 0x1F2F JUMP JUMPDEST PUSH1 0x40 MLOAD DUP1 SWAP2 SUB SWAP1 LOG2 POP JUMP JUMPDEST CALLER PUSH0 SWAP1 DUP2 MSTORE PUSH1 0x4 PUSH1 0x20 MSTORE PUSH1 0x40 SWAP1 KECCAK256 SLOAD PUSH1 0xFF AND ISZERO ISZERO PUSH1 0x1 EQ PUSH2 0xBE4 JUMPI PUSH1 0x40 MLOAD PUSH3 0x461BCD PUSH1 0xE5 SHL DUP2 MSTORE PUSH1 0x4 ADD PUSH2 0x620 SWAP1 PUSH2 0x1F70 JUMP JUMPDEST PUSH5 0xE8D4A51000 CALLVALUE LT ISZERO PUSH2 0xC39 JUMPI PUSH1 0x40 MLOAD PUSH3 0x461BCD PUSH1 0xE5 SHL DUP2 MSTORE PUSH1 0x20 PUSH1 0x4 DUP3 ADD MSTORE PUSH1 0x19 PUSH1 0x24 DUP3 ADD MSTORE PUSH32 0x496E73756666696369656E74207374616B6520616D6F756E7400000000000000 PUSH1 0x44 DUP3 ADD MSTORE PUSH1 0x64 ADD PUSH2 0x620 JUMP JUMPDEST PUSH2 0xC71 PUSH1 0x40 MLOAD DUP1 PUSH1 0xA0 ADD PUSH1 0x40 MSTORE DUP1 PUSH0 DUP2 MSTORE PUSH1 0x20 ADD PUSH0 PUSH1 0x1 PUSH1 0x1 PUSH1 0xA0 SHL SUB AND DUP2 MSTORE PUSH1 0x20 ADD PUSH0 DUP2 MSTORE PUSH1 0x20 ADD PUSH0 DUP2 MSTORE PUSH1 0x20 ADD PUSH0 ISZERO ISZERO DUP2 MSTORE POP SWAP1 JUMP JUMPDEST CALLER PUSH1 0x20 DUP3 ADD MSTORE CALLVALUE PUSH1 0x60 DUP3 ADD DUP2 SWAP1 MSTORE PUSH0 DUP1 SLOAD DUP3 SWAP2 SWAP1 DUP2 SWAP1 PUSH2 0xC92 SWAP1 DUP5 SWAP1 PUSH2 0x1FB5 JUMP JUMPDEST SWAP1 SWAP2 SSTORE POP POP PUSH1 0x2 DUP1 SLOAD SWAP1 PUSH0 PUSH2 0xCA6 DUP4 PUSH2 0x1F17 JUMP JUMPDEST SWAP1 SWAP2 SSTORE POP POP PUSH1 0x2 SLOAD DUP3 MSTORE PUSH1 0x40 MLOAD PUSH0 SWAP1 PUSH2 0xCC3 SWAP1 DUP5 SWAP1 PUSH1 0x20 ADD PUSH2 0x2000 JUMP JUMPDEST PUSH1 0x40 DUP1 MLOAD DUP1 DUP4 SUB PUSH1 0x1F NOT ADD DUP2 MSTORE DUP3 DUP3 MSTORE DUP1 MLOAD PUSH1 0x20 SWAP2 DUP3 ADD KECCAK256 PUSH0 DUP2 DUP2 MSTORE PUSH1 0x5 DUP4 MSTORE DUP4 SWAP1 KECCAK256 DUP8 MLOAD DUP2 SSTORE SWAP2 DUP8 ADD MLOAD PUSH1 0x1 DUP4 ADD DUP1 SLOAD PUSH1 0x1 PUSH1 0x1 PUSH1 0xA0 SHL SUB NOT AND PUSH1 0x1 PUSH1 0x1 PUSH1 0xA0 SHL SUB SWAP1 SWAP3 AND SWAP2 SWAP1 SWAP2 OR SWAP1 SSTORE SWAP2 DUP7 ADD MLOAD PUSH1 0x2 DUP3 ADD SSTORE PUSH1 0x60 DUP7 ADD MLOAD PUSH1 0x3 DUP3 ADD SSTORE PUSH1 0x80 DUP7 ADD MLOAD PUSH1 0x4 SWAP1 SWAP2 ADD DUP1 SLOAD PUSH1 0xFF NOT AND SWAP2 ISZERO ISZERO SWAP2 SWAP1 SWAP2 OR SWAP1 SSTORE SWAP2 POP PUSH32 0x6AAAEE1F7978F24B816A48F45856820482005D4A498A03B7EE0D253D5620D7E4 SWAP1 PUSH2 0x8C9 SWAP1 DUP4 SWAP1 DUP7 SWAP1 PUSH2 0x200E JUMP JUMPDEST PUSH0 DUP2 DUP2 MSTORE PUSH1 0x6 PUSH1 0x20 MSTORE PUSH1 0x40 SWAP1 KECCAK256 PUSH1 0x2 ADD SLOAD PUSH1 0x1 PUSH1 0x1 PUSH1 0xA0 SHL SUB AND CALLER EQ PUSH2 0xDE7 JUMPI PUSH1 0x40 MLOAD PUSH3 0x461BCD PUSH1 0xE5 SHL DUP2 MSTORE PUSH1 0x20 PUSH1 0x4 DUP3 ADD MSTORE PUSH1 0x2A PUSH1 0x24 DUP3 ADD MSTORE PUSH32 0x596F7520617265206E6F742074686520656D706C6F796565206F662074686973 PUSH1 0x44 DUP3 ADD MSTORE PUSH10 0x81859DC99595B595B9D PUSH1 0xB2 SHL PUSH1 0x64 DUP3 ADD MSTORE PUSH1 0x84 ADD PUSH2 0x620 JUMP JUMPDEST PUSH0 DUP2 DUP2 MSTORE PUSH1 0x6 PUSH1 0x20 DUP2 DUP2 MSTORE PUSH1 0x40 SWAP3 DUP4 SWAP1 KECCAK256 SWAP1 SWAP2 ADD DUP1 SLOAD PUSH1 0xFF NOT AND PUSH1 0x1 SWAP1 DUP2 OR SWAP1 SWAP2 SSTORE SWAP2 MLOAD SWAP2 DUP3 MSTORE PUSH32 0x6B5B92D1755824B841015B7514F1AC495070C0C43A54E1910906802B69D8EF1A SWAP2 ADD JUMPDEST PUSH1 0x40 MLOAD DUP1 SWAP2 SUB SWAP1 LOG1 POP JUMP JUMPDEST PUSH0 DUP4 ISZERO PUSH2 0xE52 JUMPI DUP1 PUSH2 0xE4E DUP2 PUSH2 0x1F17 JUMP JUMPDEST SWAP2 POP POP JUMPDEST DUP3 ISZERO PUSH2 0xE66 JUMPI DUP1 PUSH2 0xE62 DUP2 PUSH2 0x1F17 JUMP JUMPDEST SWAP2 POP POP JUMPDEST DUP2 ISZERO PUSH2 0xE7A JUMPI DUP1 PUSH2 0xE76 DUP2 PUSH2 0x1F17 JUMP JUMPDEST SWAP2 POP POP JUMPDEST DUP1 PUSH1 0x1 EQ PUSH2 0xECA JUMPI PUSH1 0x40 MLOAD PUSH3 0x461BCD PUSH1 0xE5 SHL DUP2 MSTORE PUSH1 0x20 PUSH1 0x4 DUP3 ADD MSTORE PUSH1 0x18 PUSH1 0x24 DUP3 ADD MSTORE PUSH32 0x506C656173652063686F6F7365206F6E65206F7074696F6E0000000000000000 PUSH1 0x44 DUP3 ADD MSTORE PUSH1 0x64 ADD PUSH2 0x620 JUMP JUMPDEST CALLER PUSH0 SWAP1 DUP2 MSTORE PUSH1 0x4 PUSH1 0x20 MSTORE PUSH1 0x40 SWAP1 KECCAK256 SLOAD PUSH4 0x1000000 SWAP1 DIV PUSH1 0xFF AND ISZERO PUSH2 0xF30 JUMPI PUSH1 0x40 MLOAD PUSH3 0x461BCD PUSH1 0xE5 SHL DUP2 MSTORE PUSH1 0x20 PUSH1 0x4 DUP3 ADD MSTORE PUSH1 0x1A PUSH1 0x24 DUP3 ADD MSTORE PUSH32 0x596F752061726520616C72656164792072656769737465726564000000000000 PUSH1 0x44 DUP3 ADD MSTORE PUSH1 0x64 ADD PUSH2 0x620 JUMP JUMPDEST PUSH1 0x40 DUP1 MLOAD PUSH1 0x80 DUP1 DUP3 ADD DUP4 MSTORE DUP5 ISZERO ISZERO DUP3 DUP5 ADD SWAP1 DUP2 MSTORE DUP7 ISZERO ISZERO DUP4 MSTORE DUP8 ISZERO ISZERO PUSH1 0x20 DUP1 DUP6 ADD SWAP2 DUP3 MSTORE PUSH1 0x1 PUSH1 0x60 DUP1 DUP8 ADD SWAP2 DUP3 MSTORE CALLER PUSH0 DUP2 DUP2 MSTORE PUSH1 0x4 DUP6 MSTORE DUP10 SWAP1 KECCAK256 DUP9 MLOAD DUP2 SLOAD DUP8 MLOAD DUP10 MLOAD DUP8 MLOAD ISZERO ISZERO PUSH4 0x1000000 MUL PUSH4 0xFF000000 NOT SWAP2 ISZERO ISZERO PUSH3 0x10000 MUL SWAP2 SWAP1 SWAP2 AND PUSH4 0xFFFF0000 NOT SWAP3 ISZERO ISZERO PUSH2 0x100 MUL PUSH2 0xFF00 NOT SWAP6 ISZERO ISZERO SWAP6 DUP7 AND PUSH2 0xFFFF NOT SWAP1 SWAP6 AND SWAP5 SWAP1 SWAP5 OR SWAP4 SWAP1 SWAP4 OR SWAP2 SWAP1 SWAP2 AND SWAP2 SWAP1 SWAP2 OR OR SWAP1 SWAP2 SSTORE DUP10 MLOAD SWAP1 DUP2 MSTORE SWAP5 MLOAD ISZERO ISZERO SWAP4 DUP6 ADD SWAP4 SWAP1 SWAP4 MSTORE SWAP4 MLOAD ISZERO ISZERO SWAP7 DUP4 ADD SWAP7 SWAP1 SWAP7 MSTORE SWAP5 MLOAD ISZERO ISZERO SWAP2 DUP2 ADD SWAP2 SWAP1 SWAP2 MSTORE SWAP2 SWAP3 SWAP2 PUSH32 0xCE3414A9430A9F7EAFFC6C778A41650564295838A267BA27E9B19324936C57BD SWAP2 ADD PUSH1 0x40 MLOAD DUP1 SWAP2 SUB SWAP1 LOG2 POP POP POP POP POP JUMP JUMPDEST PUSH0 DUP3 DUP2 MSTORE PUSH1 0x6 PUSH1 0x20 MSTORE PUSH1 0x40 SWAP1 KECCAK256 PUSH1 0x2 ADD SLOAD PUSH1 0x1 PUSH1 0x1 PUSH1 0xA0 SHL SUB AND CALLER EQ DUP1 PUSH2 0x105A JUMPI POP PUSH0 DUP3 DUP2 MSTORE PUSH1 0x6 PUSH1 0x20 MSTORE PUSH1 0x40 SWAP1 KECCAK256 PUSH1 0x1 ADD SLOAD PUSH1 0x1 PUSH1 0x1 PUSH1 0xA0 SHL SUB AND CALLER EQ JUMPDEST PUSH2 0x10A6 JUMPI PUSH1 0x40 MLOAD PUSH3 0x461BCD PUSH1 0xE5 SHL DUP2 MSTORE PUSH1 0x20 PUSH1 0x4 DUP3 ADD MSTORE PUSH1 0x1E PUSH1 0x24 DUP3 ADD MSTORE PUSH32 0x596F7520617265206E6F7420616C6C6F77656420746F20737567676573740000 PUSH1 0x44 DUP3 ADD MSTORE PUSH1 0x64 ADD PUSH2 0x620 JUMP JUMPDEST PUSH0 DUP3 DUP2 MSTORE PUSH1 0x8 PUSH1 0x20 SWAP1 DUP2 MSTORE PUSH1 0x40 DUP1 DUP4 KECCAK256 PUSH1 0x1 PUSH1 0x1 PUSH1 0xA0 SHL SUB DUP6 AND DUP5 MSTORE DUP3 MSTORE DUP1 DUP4 KECCAK256 CALLER DUP5 MSTORE SWAP1 SWAP2 MSTORE SWAP1 KECCAK256 SLOAD PUSH1 0xFF AND ISZERO PUSH2 0x112C JUMPI PUSH1 0x40 MLOAD PUSH3 0x461BCD PUSH1 0xE5 SHL DUP2 MSTORE PUSH1 0x20 PUSH1 0x4 DUP3 ADD MSTORE PUSH1 0x24 DUP1 DUP3 ADD MSTORE PUSH32 0x596F7520616C726561647920766F74656420666F722074686973206D6964646C PUSH1 0x44 DUP3 ADD MSTORE PUSH4 0x32B6B0B7 PUSH1 0xE1 SHL PUSH1 0x64 DUP3 ADD MSTORE PUSH1 0x84 ADD PUSH2 0x620 JUMP JUMPDEST PUSH0 DUP3 DUP2 MSTORE PUSH1 0x6 PUSH1 0x20 MSTORE PUSH1 0x40 SWAP1 KECCAK256 PUSH1 0x3 ADD SLOAD PUSH1 0x1 PUSH1 0x1 PUSH1 0xA0 SHL SUB AND ISZERO PUSH2 0x1193 JUMPI PUSH1 0x40 MLOAD PUSH3 0x461BCD PUSH1 0xE5 SHL DUP2 MSTORE PUSH1 0x20 PUSH1 0x4 DUP3 ADD MSTORE PUSH1 0x1C PUSH1 0x24 DUP3 ADD MSTORE PUSH32 0x596F7520616C726561647920686176652061206D6964646C656D616E00000000 PUSH1 0x44 DUP3 ADD MSTORE PUSH1 0x64 ADD PUSH2 0x620 JUMP JUMPDEST PUSH1 0x1 PUSH1 0x1 PUSH1 0xA0 SHL SUB DUP2 AND PUSH0 SWAP1 DUP2 MSTORE PUSH1 0x4 PUSH1 0x20 MSTORE PUSH1 0x40 SWAP1 KECCAK256 SLOAD PUSH3 0x10000 SWAP1 DIV PUSH1 0xFF AND PUSH2 0x1200 JUMPI PUSH1 0x40 MLOAD PUSH3 0x461BCD PUSH1 0xE5 SHL DUP2 MSTORE PUSH1 0x20 PUSH1 0x4 DUP3 ADD MSTORE PUSH1 0x1F PUSH1 0x24 DUP3 ADD MSTORE PUSH32 0x546869732061646472657373206973206E6F742061206D6964646C656D616E00 PUSH1 0x44 DUP3 ADD MSTORE PUSH1 0x64 ADD PUSH2 0x620 JUMP JUMPDEST PUSH0 DUP3 DUP2 MSTORE PUSH1 0x8 PUSH1 0x20 SWAP1 DUP2 MSTORE PUSH1 0x40 DUP1 DUP4 KECCAK256 PUSH1 0x1 PUSH1 0x1 PUSH1 0xA0 SHL SUB DUP6 AND DUP1 DUP6 MSTORE SWAP1 DUP4 MSTORE DUP2 DUP5 KECCAK256 CALLER DUP6 MSTORE DUP4 MSTORE DUP2 DUP5 KECCAK256 DUP1 SLOAD PUSH1 0xFF NOT AND PUSH1 0x1 OR SWAP1 SSTORE DUP6 DUP5 MSTORE PUSH1 0x9 DUP4 MSTORE DUP2 DUP5 KECCAK256 SWAP1 DUP5 MSTORE SWAP1 SWAP2 MSTORE DUP2 KECCAK256 DUP1 SLOAD SWAP2 PUSH2 0x1254 DUP4 PUSH2 0x1F17 JUMP JUMPDEST SWAP1 SWAP2 SSTORE POP POP PUSH0 DUP3 DUP2 MSTORE PUSH1 0x6 PUSH1 0x20 MSTORE PUSH1 0x40 SWAP1 DUP2 SWAP1 KECCAK256 SWAP1 MLOAD PUSH32 0xFF979177845809081C92E1BA70979D86DA19A33B85FBB9CEE73EFF3C04BB3278 SWAP2 PUSH2 0x1299 SWAP2 CALLER SWAP2 DUP6 SWAP2 PUSH2 0x2022 JUMP JUMPDEST PUSH1 0x40 MLOAD DUP1 SWAP2 SUB SWAP1 LOG1 PUSH0 DUP3 DUP2 MSTORE PUSH1 0x9 PUSH1 0x20 SWAP1 DUP2 MSTORE PUSH1 0x40 DUP1 DUP4 KECCAK256 PUSH1 0x1 PUSH1 0x1 PUSH1 0xA0 SHL SUB DUP6 AND DUP5 MSTORE SWAP1 SWAP2 MSTORE SWAP1 KECCAK256 SLOAD PUSH1 0x2 SUB PUSH2 0x12D4 JUMPI PUSH2 0x12D4 DUP3 DUP3 PUSH2 0x1B4C JUMP JUMPDEST POP POP JUMP JUMPDEST PUSH0 DUP4 DUP2 MSTORE PUSH1 0x6 PUSH1 0x20 MSTORE PUSH1 0x40 SWAP1 KECCAK256 PUSH1 0x3 ADD SLOAD PUSH1 0x1 PUSH1 0x1 PUSH1 0xA0 SHL SUB AND CALLER EQ PUSH2 0x1310 JUMPI PUSH1 0x40 MLOAD PUSH3 0x461BCD PUSH1 0xE5 SHL DUP2 MSTORE PUSH1 0x4 ADD PUSH2 0x620 SWAP1 PUSH2 0x1E2C JUMP JUMPDEST PUSH0 DUP4 DUP2 MSTORE PUSH1 0x6 PUSH1 0x20 DUP2 SWAP1 MSTORE PUSH1 0x40 SWAP1 SWAP2 KECCAK256 ADD SLOAD PUSH3 0x10000 SWAP1 DIV PUSH1 0xFF AND ISZERO ISZERO PUSH1 0x1 EQ PUSH2 0x134C JUMPI PUSH1 0x40 MLOAD PUSH3 0x461BCD PUSH1 0xE5 SHL DUP2 MSTORE PUSH1 0x4 ADD PUSH2 0x620 SWAP1 PUSH2 0x1E77 JUMP JUMPDEST PUSH0 DUP4 DUP2 MSTORE PUSH1 0x6 PUSH1 0x20 DUP2 SWAP1 MSTORE PUSH1 0x40 SWAP1 SWAP2 KECCAK256 ADD SLOAD PUSH4 0x1000000 SWAP1 DIV PUSH1 0xFF AND ISZERO PUSH2 0x13B5 JUMPI PUSH1 0x40 MLOAD PUSH3 0x461BCD PUSH1 0xE5 SHL DUP2 MSTORE PUSH1 0x20 PUSH1 0x4 DUP3 ADD MSTORE PUSH1 0x1E PUSH1 0x24 DUP3 ADD MSTORE PUSH32 0x54686973206469737075746520686173206265656E207265736F6C7665640000 PUSH1 0x44 DUP3 ADD MSTORE PUSH1 0x64 ADD PUSH2 0x620 JUMP JUMPDEST PUSH2 0x13BF DUP2 DUP4 PUSH2 0x1FB5 JUMP JUMPDEST PUSH1 0x64 EQ PUSH2 0x1404 JUMPI PUSH1 0x40 MLOAD PUSH3 0x461BCD PUSH1 0xE5 SHL DUP2 MSTORE PUSH1 0x20 PUSH1 0x4 DUP3 ADD MSTORE PUSH1 0x13 PUSH1 0x24 DUP3 ADD MSTORE PUSH19 0x496E76616C69642070657263656E7461676573 PUSH1 0x68 SHL PUSH1 0x44 DUP3 ADD MSTORE PUSH1 0x64 ADD PUSH2 0x620 JUMP JUMPDEST PUSH0 DUP4 DUP2 MSTORE PUSH1 0x6 PUSH1 0x20 DUP2 SWAP1 MSTORE PUSH1 0x40 DUP3 KECCAK256 SWAP1 DUP2 ADD DUP1 SLOAD PUSH4 0xFF000000 NOT AND PUSH4 0x1000000 OR SWAP1 SSTORE PUSH1 0x4 ADD SLOAD SWAP1 PUSH1 0x64 PUSH2 0x1438 DUP6 DUP5 PUSH2 0x2050 JUMP JUMPDEST PUSH2 0x1442 SWAP2 SWAP1 PUSH2 0x2067 JUMP JUMPDEST SWAP1 POP PUSH0 PUSH1 0x64 PUSH2 0x1451 DUP6 DUP6 PUSH2 0x2050 JUMP JUMPDEST PUSH2 0x145B SWAP2 SWAP1 PUSH2 0x2067 JUMP JUMPDEST PUSH0 DUP8 DUP2 MSTORE PUSH1 0x6 PUSH1 0x20 MSTORE PUSH1 0x40 DUP1 DUP3 KECCAK256 PUSH1 0x2 ADD SLOAD SWAP1 MLOAD SWAP3 SWAP4 POP PUSH1 0x1 PUSH1 0x1 PUSH1 0xA0 SHL SUB AND SWAP2 DUP5 ISZERO PUSH2 0x8FC MUL SWAP2 DUP6 SWAP2 SWAP1 DUP2 DUP2 DUP2 DUP6 DUP9 DUP9 CALL SWAP4 POP POP POP POP ISZERO DUP1 ISZERO PUSH2 0x14A1 JUMPI RETURNDATASIZE PUSH0 DUP1 RETURNDATACOPY RETURNDATASIZE PUSH0 REVERT JUMPDEST POP PUSH0 DUP7 DUP2 MSTORE PUSH1 0x6 PUSH1 0x20 MSTORE PUSH1 0x40 DUP1 DUP3 KECCAK256 PUSH1 0x1 ADD SLOAD SWAP1 MLOAD PUSH1 0x1 PUSH1 0x1 PUSH1 0xA0 SHL SUB SWAP1 SWAP2 AND SWAP2 DUP4 ISZERO PUSH2 0x8FC MUL SWAP2 DUP5 SWAP2 DUP2 DUP2 DUP2 DUP6 DUP9 DUP9 CALL SWAP4 POP POP POP POP ISZERO DUP1 ISZERO PUSH2 0x14E6 JUMPI RETURNDATASIZE PUSH0 DUP1 RETURNDATACOPY RETURNDATASIZE PUSH0 REVERT JUMPDEST POP DUP3 PUSH0 DUP1 DUP3 DUP3 SLOAD PUSH2 0x14F7 SWAP2 SWAP1 PUSH2 0x1ED6 JUMP JUMPDEST SWAP1 SWAP2 SSTORE POP POP PUSH0 DUP7 DUP2 MSTORE PUSH1 0x6 PUSH1 0x20 MSTORE PUSH1 0x40 SWAP1 DUP2 SWAP1 KECCAK256 SWAP1 MLOAD PUSH32 0x4414E2410DC3F703DE3E5E59F569037A7A0CAD3BA316EFA45884D1ECB9EB87B6 SWAP2 PUSH2 0x1538 SWAP2 PUSH2 0x1E1D JUMP JUMPDEST PUSH1 0x40 MLOAD DUP1 SWAP2 SUB SWAP1 LOG1 POP POP POP POP POP POP JUMP JUMPDEST PUSH0 DUP2 DUP2 MSTORE PUSH1 0x6 PUSH1 0x20 MSTORE PUSH1 0x40 SWAP1 KECCAK256 PUSH1 0x2 ADD SLOAD PUSH1 0x1 PUSH1 0x1 PUSH1 0xA0 SHL SUB AND CALLER EQ DUP1 PUSH2 0x1587 JUMPI POP PUSH0 DUP2 DUP2 MSTORE PUSH1 0x6 PUSH1 0x20 MSTORE PUSH1 0x40 SWAP1 KECCAK256 PUSH1 0x1 ADD SLOAD PUSH1 0x1 PUSH1 0x1 PUSH1 0xA0 SHL SUB AND CALLER EQ JUMPDEST PUSH2 0x15D3 JUMPI PUSH1 0x40 MLOAD PUSH3 0x461BCD PUSH1 0xE5 SHL DUP2 MSTORE PUSH1 0x20 PUSH1 0x4 DUP3 ADD MSTORE PUSH1 0x1B PUSH1 0x24 DUP3 ADD MSTORE PUSH32 0x596F7520646F206E6F7420706F7373657320617574686F726974790000000000 PUSH1 0x44 DUP3 ADD MSTORE PUSH1 0x64 ADD PUSH2 0x620 JUMP JUMPDEST PUSH0 DUP2 DUP2 MSTORE PUSH1 0x6 PUSH1 0x20 DUP2 SWAP1 MSTORE PUSH1 0x40 SWAP2 DUP3 SWAP1 KECCAK256 SWAP1 DUP2 ADD DUP1 SLOAD PUSH3 0xFF0000 NOT AND PUSH3 0x10000 OR SWAP1 SSTORE SWAP1 MLOAD PUSH32 0x89C904236423D143F6A6F9C32EC2DF98D5F84D015FB8D98E5B49ACEAA47936CC SWAP2 PUSH2 0xE32 SWAP2 PUSH2 0x1E1D JUMP JUMPDEST PUSH0 DUP3 DUP2 MSTORE PUSH1 0x5 PUSH1 0x20 MSTORE PUSH1 0x40 DUP2 KECCAK256 PUSH1 0x1 ADD SLOAD PUSH1 0x1 PUSH1 0x1 PUSH1 0xA0 SHL SUB AND CALLER EQ PUSH2 0x16A1 JUMPI PUSH1 0x40 MLOAD PUSH3 0x461BCD PUSH1 0xE5 SHL DUP2 MSTORE PUSH1 0x20 PUSH1 0x4 DUP3 ADD MSTORE PUSH1 0x2D PUSH1 0x24 DUP3 ADD MSTORE PUSH32 0x596F7520617265206E6F742074686520656D706C6F796572206F662074686973 PUSH1 0x44 DUP3 ADD MSTORE PUSH13 0x206F66666572656420576F726B PUSH1 0x98 SHL PUSH1 0x64 DUP3 ADD MSTORE PUSH1 0x84 ADD PUSH2 0x620 JUMP JUMPDEST POP PUSH0 DUP3 DUP2 MSTORE PUSH1 0x7 PUSH1 0x20 SWAP1 DUP2 MSTORE PUSH1 0x40 DUP1 DUP4 KECCAK256 DUP5 DUP5 MSTORE SWAP1 SWAP2 MSTORE SWAP1 KECCAK256 SLOAD PUSH1 0x1 PUSH1 0x1 PUSH1 0xA0 SHL SUB AND JUMPDEST SWAP3 SWAP2 POP POP JUMP JUMPDEST CALLER PUSH0 SWAP1 DUP2 MSTORE PUSH1 0x4 PUSH1 0x20 MSTORE PUSH1 0x40 SWAP1 KECCAK256 SLOAD PUSH1 0xFF AND ISZERO ISZERO PUSH1 0x1 EQ PUSH2 0x16FE JUMPI PUSH1 0x40 MLOAD PUSH3 0x461BCD PUSH1 0xE5 SHL DUP2 MSTORE PUSH1 0x4 ADD PUSH2 0x620 SWAP1 PUSH2 0x1F70 JUMP JUMPDEST PUSH0 DUP2 DUP2 MSTORE PUSH1 0x5 PUSH1 0x20 MSTORE PUSH1 0x40 SWAP1 KECCAK256 PUSH1 0x1 ADD SLOAD PUSH1 0x1 PUSH1 0x1 PUSH1 0xA0 SHL SUB AND CALLER EQ PUSH2 0x1736 JUMPI PUSH1 0x40 MLOAD PUSH3 0x461BCD PUSH1 0xE5 SHL DUP2 MSTORE PUSH1 0x4 ADD PUSH2 0x620 SWAP1 PUSH2 0x2086 JUMP JUMPDEST PUSH0 DUP2 DUP2 MSTORE PUSH1 0x5 PUSH1 0x20 MSTORE PUSH1 0x40 SWAP1 KECCAK256 PUSH1 0x4 ADD SLOAD PUSH1 0xFF AND ISZERO PUSH2 0x1767 JUMPI PUSH1 0x40 MLOAD PUSH3 0x461BCD PUSH1 0xE5 SHL DUP2 MSTORE PUSH1 0x4 ADD PUSH2 0x620 SWAP1 PUSH2 0x1EE9 JUMP JUMPDEST PUSH0 DUP2 DUP2 MSTORE PUSH1 0x5 PUSH1 0x20 MSTORE PUSH1 0x40 DUP2 KECCAK256 PUSH1 0x3 ADD SLOAD SWAP1 SLOAD LT ISZERO PUSH2 0x17BD JUMPI PUSH1 0x40 MLOAD PUSH3 0x461BCD PUSH1 0xE5 SHL DUP2 MSTORE PUSH1 0x20 PUSH1 0x4 DUP3 ADD MSTORE PUSH1 0x12 PUSH1 0x24 DUP3 ADD MSTORE PUSH18 0x4E6F7420656E6F7567682062616C616E6365 PUSH1 0x70 SHL PUSH1 0x44 DUP3 ADD MSTORE PUSH1 0x64 ADD PUSH2 0x620 JUMP JUMPDEST PUSH0 DUP2 DUP2 MSTORE PUSH1 0x5 PUSH1 0x20 MSTORE PUSH1 0x40 DUP1 DUP3 KECCAK256 PUSH1 0x3 DUP2 ADD SLOAD PUSH1 0x4 SWAP1 SWAP2 ADD DUP1 SLOAD PUSH1 0xFF NOT AND PUSH1 0x1 OR SWAP1 SSTORE SWAP1 MLOAD SWAP1 SWAP2 CALLER SWAP2 DUP4 ISZERO PUSH2 0x8FC MUL SWAP2 DUP5 SWAP2 SWAP1 DUP2 DUP2 DUP2 DUP6 DUP9 DUP9 CALL SWAP4 POP POP POP POP ISZERO DUP1 ISZERO PUSH2 0x180B JUMPI RETURNDATASIZE PUSH0 DUP1 RETURNDATACOPY RETURNDATASIZE PUSH0 REVERT JUMPDEST POP PUSH0 DUP3 DUP2 MSTORE PUSH1 0x5 PUSH1 0x20 MSTORE PUSH1 0x40 SWAP1 DUP2 SWAP1 KECCAK256 SWAP1 MLOAD PUSH32 0x3F53CC6A10041FE7E6B257EC942B9A75B4B9FEB7A16948C05B4B7E5E62A1BE3C SWAP2 PUSH2 0x679 SWAP2 PUSH2 0x1F2F JUMP JUMPDEST CALLER PUSH0 SWAP1 DUP2 MSTORE PUSH1 0x4 PUSH1 0x20 MSTORE PUSH1 0x40 SWAP1 KECCAK256 SLOAD PUSH1 0xFF AND ISZERO ISZERO PUSH1 0x1 EQ PUSH2 0x187B JUMPI PUSH1 0x40 MLOAD PUSH3 0x461BCD PUSH1 0xE5 SHL DUP2 MSTORE PUSH1 0x4 ADD PUSH2 0x620 SWAP1 PUSH2 0x1F70 JUMP JUMPDEST PUSH0 DUP3 DUP2 MSTORE PUSH1 0x5 PUSH1 0x20 MSTORE PUSH1 0x40 SWAP1 KECCAK256 PUSH1 0x1 ADD SLOAD PUSH1 0x1 PUSH1 0x1 PUSH1 0xA0 SHL SUB AND CALLER EQ PUSH2 0x18B3 JUMPI PUSH1 0x40 MLOAD PUSH3 0x461BCD PUSH1 0xE5 SHL DUP2 MSTORE PUSH1 0x4 ADD PUSH2 0x620 SWAP1 PUSH2 0x2086 JUMP JUMPDEST PUSH0 DUP3 DUP2 MSTORE PUSH1 0x5 PUSH1 0x20 MSTORE PUSH1 0x40 SWAP1 KECCAK256 PUSH1 0x4 ADD SLOAD PUSH1 0xFF AND ISZERO PUSH2 0x18E4 JUMPI PUSH1 0x40 MLOAD PUSH3 0x461BCD PUSH1 0xE5 SHL DUP2 MSTORE PUSH1 0x4 ADD PUSH2 0x620 SWAP1 PUSH2 0x1EE9 JUMP JUMPDEST PUSH1 0x40 DUP1 MLOAD PUSH2 0x140 DUP2 ADD DUP3 MSTORE PUSH0 DUP1 DUP3 MSTORE DUP2 DUP4 ADD DUP2 DUP2 MSTORE PUSH1 0x60 DUP4 ADD DUP3 SWAP1 MSTORE PUSH1 0x80 DUP4 ADD DUP3 DUP2 MSTORE PUSH1 0xA0 DUP5 ADD DUP4 SWAP1 MSTORE PUSH1 0xC0 DUP5 ADD DUP4 SWAP1 MSTORE PUSH1 0xE0 DUP5 ADD DUP4 SWAP1 MSTORE PUSH2 0x100 DUP5 ADD DUP4 SWAP1 MSTORE PUSH2 0x120 DUP5 ADD DUP4 SWAP1 MSTORE CALLER PUSH1 0x20 DUP1 DUP7 ADD SWAP2 SWAP1 SWAP2 MSTORE DUP8 DUP5 MSTORE PUSH1 0x7 DUP2 MSTORE DUP6 DUP5 KECCAK256 DUP8 DUP6 MSTORE DUP2 MSTORE DUP6 DUP5 KECCAK256 SLOAD PUSH1 0x1 PUSH1 0x1 PUSH1 0xA0 SHL SUB AND SWAP1 SWAP3 MSTORE DUP7 DUP4 MSTORE PUSH1 0x5 SWAP1 SWAP2 MSTORE SWAP3 DUP2 KECCAK256 PUSH1 0x3 SWAP1 DUP2 ADD SLOAD SWAP1 SWAP4 MSTORE DUP3 SLOAD SWAP2 SWAP3 SWAP1 PUSH2 0x1977 DUP4 PUSH2 0x1F17 JUMP JUMPDEST SWAP1 SWAP2 SSTORE POP POP PUSH1 0x3 SLOAD DUP2 MSTORE PUSH1 0x40 MLOAD PUSH0 SWAP1 PUSH2 0x1994 SWAP1 DUP4 SWAP1 PUSH1 0x20 ADD PUSH2 0x20CB JUMP JUMPDEST PUSH1 0x40 MLOAD PUSH1 0x20 DUP2 DUP4 SUB SUB DUP2 MSTORE SWAP1 PUSH1 0x40 MSTORE DUP1 MLOAD SWAP1 PUSH1 0x20 ADD KECCAK256 SWAP1 POP DUP2 PUSH1 0x6 PUSH0 DUP4 DUP2 MSTORE PUSH1 0x20 ADD SWAP1 DUP2 MSTORE PUSH1 0x20 ADD PUSH0 KECCAK256 PUSH0 DUP3 ADD MLOAD DUP2 PUSH0 ADD SSTORE PUSH1 0x20 DUP3 ADD MLOAD DUP2 PUSH1 0x1 ADD PUSH0 PUSH2 0x100 EXP DUP2 SLOAD DUP2 PUSH1 0x1 PUSH1 0x1 PUSH1 0xA0 SHL SUB MUL NOT AND SWAP1 DUP4 PUSH1 0x1 PUSH1 0x1 PUSH1 0xA0 SHL SUB AND MUL OR SWAP1 SSTORE POP PUSH1 0x40 DUP3 ADD MLOAD DUP2 PUSH1 0x2 ADD PUSH0 PUSH2 0x100 EXP DUP2 SLOAD DUP2 PUSH1 0x1 PUSH1 0x1 PUSH1 0xA0 SHL SUB MUL NOT AND SWAP1 DUP4 PUSH1 0x1 PUSH1 0x1 PUSH1 0xA0 SHL SUB AND MUL OR SWAP1 SSTORE POP PUSH1 0x60 DUP3 ADD MLOAD DUP2 PUSH1 0x3 ADD PUSH0 PUSH2 0x100 EXP DUP2 SLOAD DUP2 PUSH1 0x1 PUSH1 0x1 PUSH1 0xA0 SHL SUB MUL NOT AND SWAP1 DUP4 PUSH1 0x1 PUSH1 0x1 PUSH1 0xA0 SHL SUB AND MUL OR SWAP1 SSTORE POP PUSH1 0x80 DUP3 ADD MLOAD DUP2 PUSH1 0x4 ADD SSTORE PUSH1 0xA0 DUP3 ADD MLOAD DUP2 PUSH1 0x5 ADD SSTORE PUSH1 0xC0 DUP3 ADD MLOAD DUP2 PUSH1 0x6 ADD PUSH0 PUSH2 0x100 EXP DUP2 SLOAD DUP2 PUSH1 0xFF MUL NOT AND SWAP1 DUP4 ISZERO ISZERO MUL OR SWAP1 SSTORE POP PUSH1 0xE0 DUP3 ADD MLOAD DUP2 PUSH1 0x6 ADD PUSH1 0x1 PUSH2 0x100 EXP DUP2 SLOAD DUP2 PUSH1 0xFF MUL NOT AND SWAP1 DUP4 ISZERO ISZERO MUL OR SWAP1 SSTORE POP PUSH2 0x100 DUP3 ADD MLOAD DUP2 PUSH1 0x6 ADD PUSH1 0x2 PUSH2 0x100 EXP DUP2 SLOAD DUP2 PUSH1 0xFF MUL NOT AND SWAP1 DUP4 ISZERO ISZERO MUL OR SWAP1 SSTORE POP PUSH2 0x120 DUP3 ADD MLOAD DUP2 PUSH1 0x6 ADD PUSH1 0x3 PUSH2 0x100 EXP DUP2 SLOAD DUP2 PUSH1 0xFF MUL NOT AND SWAP1 DUP4 ISZERO ISZERO MUL OR SWAP1 SSTORE POP SWAP1 POP POP PUSH1 0x1 PUSH1 0x5 PUSH0 DUP7 DUP2 MSTORE PUSH1 0x20 ADD SWAP1 DUP2 MSTORE PUSH1 0x20 ADD PUSH0 KECCAK256 PUSH1 0x4 ADD PUSH0 PUSH2 0x100 EXP DUP2 SLOAD DUP2 PUSH1 0xFF MUL NOT AND SWAP1 DUP4 ISZERO ISZERO MUL OR SWAP1 SSTORE POP DUP1 PUSH32 0x48C881A7C1D926662D0098EFFC11DA375E1FF734560DBB1C516952F7B8D87304 DUP4 PUSH1 0x40 MLOAD PUSH2 0x1B3E SWAP2 SWAP1 PUSH2 0x20CB JUMP JUMPDEST PUSH1 0x40 MLOAD DUP1 SWAP2 SUB SWAP1 LOG2 POP POP POP POP JUMP JUMPDEST PUSH0 DUP3 DUP2 MSTORE PUSH1 0x6 PUSH1 0x20 MSTORE PUSH1 0x40 SWAP1 KECCAK256 PUSH1 0x2 ADD SLOAD PUSH1 0x1 PUSH1 0x1 PUSH1 0xA0 SHL SUB AND CALLER EQ DUP1 PUSH2 0x1B8B JUMPI POP PUSH0 DUP3 DUP2 MSTORE PUSH1 0x6 PUSH1 0x20 MSTORE PUSH1 0x40 SWAP1 KECCAK256 PUSH1 0x1 ADD SLOAD PUSH1 0x1 PUSH1 0x1 PUSH1 0xA0 SHL SUB AND CALLER EQ JUMPDEST PUSH2 0x1BE3 JUMPI PUSH1 0x40 MLOAD PUSH3 0x461BCD PUSH1 0xE5 SHL DUP2 MSTORE PUSH1 0x20 PUSH1 0x4 DUP3 ADD MSTORE PUSH1 0x24 DUP1 DUP3 ADD MSTORE PUSH32 0x596F7520617265206E6F7420616C6C6F77656420746F20736574206D6964646C PUSH1 0x44 DUP3 ADD MSTORE PUSH4 0x32B6B0B7 PUSH1 0xE1 SHL PUSH1 0x64 DUP3 ADD MSTORE PUSH1 0x84 ADD PUSH2 0x620 JUMP JUMPDEST PUSH0 DUP3 DUP2 MSTORE PUSH1 0x6 PUSH1 0x20 MSTORE PUSH1 0x40 DUP2 KECCAK256 PUSH1 0x5 ADD DUP1 SLOAD SWAP2 PUSH2 0x1BFF DUP4 PUSH2 0x1F17 JUMP JUMPDEST SWAP1 SWAP2 SSTORE POP POP PUSH0 DUP3 DUP2 MSTORE PUSH1 0xA PUSH1 0x20 SWAP1 DUP2 MSTORE PUSH1 0x40 DUP1 DUP4 KECCAK256 PUSH1 0x6 DUP1 DUP5 MSTORE DUP3 DUP6 KECCAK256 PUSH1 0x5 DUP2 ADD SLOAD DUP7 MSTORE SWAP2 DUP5 MSTORE DUP3 DUP6 KECCAK256 DUP1 SLOAD PUSH1 0x1 PUSH1 0x1 PUSH1 0xA0 SHL SUB NOT AND PUSH1 0x1 PUSH1 0x1 PUSH1 0xA0 SHL SUB DUP9 AND OR SWAP1 SSTORE SWAP4 DUP7 SWAP1 MSTORE SWAP3 SWAP1 SWAP2 MSTORE MLOAD PUSH32 0xFCF44E491581609C685C7B5FA8839ADE41E28403A552A59DB096F0BEE4715C5D SWAP2 PUSH2 0x679 SWAP2 DUP5 SWAP1 PUSH2 0x2194 JUMP JUMPDEST PUSH0 DUP1 PUSH1 0x40 DUP4 DUP6 SUB SLT ISZERO PUSH2 0x1C89 JUMPI PUSH0 DUP1 REVERT JUMPDEST POP POP DUP1 CALLDATALOAD SWAP3 PUSH1 0x20 SWAP1 SWAP2 ADD CALLDATALOAD SWAP2 POP JUMP JUMPDEST DUP1 CALLDATALOAD PUSH1 0x1 PUSH1 0x1 PUSH1 0xA0 SHL SUB DUP2 AND DUP2 EQ PUSH2 0x1CAE JUMPI PUSH0 DUP1 REVERT JUMPDEST SWAP2 SWAP1 POP JUMP JUMPDEST PUSH0 DUP1 PUSH1 0x40 DUP4 DUP6 SUB SLT ISZERO PUSH2 0x1CC4 JUMPI PUSH0 DUP1 REVERT JUMPDEST DUP3 CALLDATALOAD SWAP2 POP PUSH2 0x1CD4 PUSH1 0x20 DUP5 ADD PUSH2 0x1C98 JUMP JUMPDEST SWAP1 POP SWAP3 POP SWAP3 SWAP1 POP JUMP JUMPDEST PUSH0 PUSH1 0x20 DUP3 DUP5 SUB SLT ISZERO PUSH2 0x1CED JUMPI PUSH0 DUP1 REVERT JUMPDEST POP CALLDATALOAD SWAP2 SWAP1 POP JUMP JUMPDEST PUSH0 PUSH1 0x20 DUP3 DUP5 SUB SLT ISZERO PUSH2 0x1D04 JUMPI PUSH0 DUP1 REVERT JUMPDEST PUSH2 0x1D0D DUP3 PUSH2 0x1C98 JUMP JUMPDEST SWAP4 SWAP3 POP POP POP JUMP JUMPDEST DUP1 CALLDATALOAD DUP1 ISZERO ISZERO DUP2 EQ PUSH2 0x1CAE JUMPI PUSH0 DUP1 REVERT JUMPDEST PUSH0 DUP1 PUSH0 PUSH1 0x60 DUP5 DUP7 SUB SLT ISZERO PUSH2 0x1D35 JUMPI PUSH0 DUP1 REVERT JUMPDEST PUSH2 0x1D3E DUP5 PUSH2 0x1D14 JUMP JUMPDEST SWAP3 POP PUSH2 0x1D4C PUSH1 0x20 DUP6 ADD PUSH2 0x1D14 JUMP JUMPDEST SWAP2 POP PUSH2 0x1D5A PUSH1 0x40 DUP6 ADD PUSH2 0x1D14 JUMP JUMPDEST SWAP1 POP SWAP3 POP SWAP3 POP SWAP3 JUMP JUMPDEST PUSH0 DUP1 PUSH0 PUSH1 0x60 DUP5 DUP7 SUB SLT ISZERO PUSH2 0x1D75 JUMPI PUSH0 DUP1 REVERT JUMPDEST POP POP DUP2 CALLDATALOAD SWAP4 PUSH1 0x20 DUP4 ADD CALLDATALOAD SWAP4 POP PUSH1 0x40 SWAP1 SWAP3 ADD CALLDATALOAD SWAP2 SWAP1 POP JUMP JUMPDEST DUP1 SLOAD DUP3 MSTORE PUSH1 0x1 DUP2 ADD SLOAD PUSH1 0x1 PUSH1 0x1 PUSH1 0xA0 SHL SUB SWAP1 DUP2 AND PUSH1 0x20 DUP5 ADD MSTORE PUSH1 0x2 DUP3 ADD SLOAD DUP2 AND PUSH1 0x40 DUP5 ADD MSTORE PUSH1 0x3 DUP3 ADD SLOAD AND PUSH1 0x60 DUP4 ADD MSTORE PUSH1 0x4 DUP2 ADD SLOAD PUSH1 0x80 DUP4 ADD MSTORE PUSH1 0x5 DUP2 ADD SLOAD PUSH1 0xA0 DUP4 ADD MSTORE PUSH1 0x6 DUP2 ADD SLOAD PUSH1 0xFF DUP1 DUP3 AND ISZERO ISZERO PUSH1 0xC0 DUP6 ADD MSTORE PUSH1 0x8 DUP3 SWAP1 SHR AND ISZERO ISZERO PUSH1 0xE0 DUP5 ADD MSTORE PUSH2 0x1E03 PUSH2 0x100 DUP5 ADD PUSH1 0xFF DUP4 PUSH1 0x10 SHR AND ISZERO ISZERO SWAP1 MSTORE JUMP JUMPDEST PUSH2 0x1E18 PUSH2 0x120 DUP5 ADD PUSH1 0xFF DUP4 PUSH1 0x18 SHR AND ISZERO ISZERO SWAP1 MSTORE JUMP JUMPDEST POP POP POP JUMP JUMPDEST PUSH2 0x140 DUP2 ADD PUSH2 0x16C5 DUP3 DUP5 PUSH2 0x1D8C JUMP JUMPDEST PUSH1 0x20 DUP1 DUP3 MSTORE PUSH1 0x2B SWAP1 DUP3 ADD MSTORE PUSH32 0x596F7520617265206E6F7420616C6C6F77656420746F207265736F6C76652074 PUSH1 0x40 DUP3 ADD MSTORE PUSH11 0x6869732064697370757465 PUSH1 0xA8 SHL PUSH1 0x60 DUP3 ADD MSTORE PUSH1 0x80 ADD SWAP1 JUMP JUMPDEST PUSH1 0x20 DUP1 DUP3 MSTORE PUSH1 0x2B SWAP1 DUP3 ADD MSTORE PUSH32 0x5468657265206973206E6F206469737075746520726169656420696E20746869 PUSH1 0x40 DUP3 ADD MSTORE PUSH11 0x1CC81859DC99595B595B9D PUSH1 0xAA SHL PUSH1 0x60 DUP3 ADD MSTORE PUSH1 0x80 ADD SWAP1 JUMP JUMPDEST PUSH4 0x4E487B71 PUSH1 0xE0 SHL PUSH0 MSTORE PUSH1 0x11 PUSH1 0x4 MSTORE PUSH1 0x24 PUSH0 REVERT JUMPDEST DUP2 DUP2 SUB DUP2 DUP2 GT ISZERO PUSH2 0x16C5 JUMPI PUSH2 0x16C5 PUSH2 0x1EC2 JUMP JUMPDEST PUSH1 0x20 DUP1 DUP3 MSTORE PUSH1 0x14 SWAP1 DUP3 ADD MSTORE PUSH20 0x2A3434B9903A30B9B59034B9903737BB9037B333 PUSH1 0x61 SHL PUSH1 0x40 DUP3 ADD MSTORE PUSH1 0x60 ADD SWAP1 JUMP JUMPDEST PUSH0 PUSH1 0x1 DUP3 ADD PUSH2 0x1F28 JUMPI PUSH2 0x1F28 PUSH2 0x1EC2 JUMP JUMPDEST POP PUSH1 0x1 ADD SWAP1 JUMP JUMPDEST DUP2 SLOAD DUP2 MSTORE PUSH1 0x1 DUP3 ADD SLOAD PUSH1 0x1 PUSH1 0x1 PUSH1 0xA0 SHL SUB AND PUSH1 0x20 DUP3 ADD MSTORE PUSH1 0x2 DUP3 ADD SLOAD PUSH1 0x40 DUP3 ADD MSTORE PUSH1 0x3 DUP3 ADD SLOAD PUSH1 0x60 DUP3 ADD MSTORE PUSH1 0x4 SWAP1 SWAP2 ADD SLOAD PUSH1 0xFF AND ISZERO ISZERO PUSH1 0x80 DUP3 ADD MSTORE PUSH1 0xA0 ADD SWAP1 JUMP JUMPDEST PUSH1 0x20 DUP1 DUP3 MSTORE PUSH1 0x25 SWAP1 DUP3 ADD MSTORE PUSH32 0x596F75206E65656420746F20626520616E20656D706C6F79657220746F20646F PUSH1 0x40 DUP3 ADD MSTORE PUSH5 0x81D1A185D PUSH1 0xDA SHL PUSH1 0x60 DUP3 ADD MSTORE PUSH1 0x80 ADD SWAP1 JUMP JUMPDEST DUP1 DUP3 ADD DUP1 DUP3 GT ISZERO PUSH2 0x16C5 JUMPI PUSH2 0x16C5 PUSH2 0x1EC2 JUMP JUMPDEST DUP1 MLOAD DUP3 MSTORE PUSH1 0x20 DUP1 DUP3 ADD MLOAD PUSH1 0x1 PUSH1 0x1 PUSH1 0xA0 SHL SUB AND SWAP1 DUP4 ADD MSTORE PUSH1 0x40 DUP1 DUP3 ADD MLOAD SWAP1 DUP4 ADD MSTORE PUSH1 0x60 DUP1 DUP3 ADD MLOAD SWAP1 DUP4 ADD MSTORE PUSH1 0x80 SWAP1 DUP2 ADD MLOAD ISZERO ISZERO SWAP2 ADD MSTORE JUMP JUMPDEST PUSH1 0xA0 DUP2 ADD PUSH2 0x16C5 DUP3 DUP5 PUSH2 0x1FC8 JUMP JUMPDEST DUP3 DUP2 MSTORE PUSH1 0xC0 DUP2 ADD PUSH2 0x1D0D PUSH1 0x20 DUP4 ADD DUP5 PUSH2 0x1FC8 JUMP JUMPDEST PUSH1 0x1 PUSH1 0x1 PUSH1 0xA0 SHL SUB DUP5 DUP2 AND DUP3 MSTORE DUP4 AND PUSH1 0x20 DUP3 ADD MSTORE PUSH2 0x180 DUP2 ADD PUSH2 0x2048 PUSH1 0x40 DUP4 ADD DUP5 PUSH2 0x1D8C JUMP JUMPDEST SWAP5 SWAP4 POP POP POP POP JUMP JUMPDEST DUP1 DUP3 MUL DUP2 ISZERO DUP3 DUP3 DIV DUP5 EQ OR PUSH2 0x16C5 JUMPI PUSH2 0x16C5 PUSH2 0x1EC2 JUMP JUMPDEST PUSH0 DUP3 PUSH2 0x2081 JUMPI PUSH4 0x4E487B71 PUSH1 0xE0 SHL PUSH0 MSTORE PUSH1 0x12 PUSH1 0x4 MSTORE PUSH1 0x24 PUSH0 REVERT JUMPDEST POP DIV SWAP1 JUMP JUMPDEST PUSH1 0x20 DUP1 DUP3 MSTORE PUSH1 0x25 SWAP1 DUP3 ADD MSTORE PUSH32 0x596F7520617265206E6F742074686520656D706C6F796572206F662074686973 PUSH1 0x40 DUP3 ADD MSTORE PUSH5 0x20776F726B PUSH1 0xD8 SHL PUSH1 0x60 DUP3 ADD MSTORE PUSH1 0x80 ADD SWAP1 JUMP JUMPDEST DUP2 MLOAD DUP2 MSTORE PUSH1 0x20 DUP1 DUP4 ADD MLOAD PUSH2 0x140 DUP4 ADD SWAP2 PUSH2 0x20EF SWAP1 DUP5 ADD DUP3 PUSH1 0x1 PUSH1 0x1 PUSH1 0xA0 SHL SUB AND SWAP1 MSTORE JUMP JUMPDEST POP PUSH1 0x40 DUP4 ADD MLOAD PUSH2 0x210A PUSH1 0x40 DUP5 ADD DUP3 PUSH1 0x1 PUSH1 0x1 PUSH1 0xA0 SHL SUB AND SWAP1 MSTORE JUMP JUMPDEST POP PUSH1 0x60 DUP4 ADD MLOAD PUSH2 0x2125 PUSH1 0x60 DUP5 ADD DUP3 PUSH1 0x1 PUSH1 0x1 PUSH1 0xA0 SHL SUB AND SWAP1 MSTORE JUMP JUMPDEST POP PUSH1 0x80 DUP4 ADD MLOAD PUSH1 0x80 DUP4 ADD MSTORE PUSH1 0xA0 DUP4 ADD MLOAD PUSH1 0xA0 DUP4 ADD MSTORE PUSH1 0xC0 DUP4 ADD MLOAD PUSH2 0x214D PUSH1 0xC0 DUP5 ADD DUP3 ISZERO ISZERO SWAP1 MSTORE JUMP JUMPDEST POP PUSH1 0xE0 DUP4 ADD MLOAD PUSH2 0x2161 PUSH1 0xE0 DUP5 ADD DUP3 ISZERO ISZERO SWAP1 MSTORE JUMP JUMPDEST POP PUSH2 0x100 DUP4 ADD MLOAD PUSH2 0x2177 PUSH2 0x100 DUP5 ADD DUP3 ISZERO ISZERO SWAP1 MSTORE JUMP JUMPDEST POP PUSH2 0x120 DUP4 ADD MLOAD PUSH2 0x218D PUSH2 0x120 DUP5 ADD DUP3 ISZERO ISZERO SWAP1 MSTORE JUMP JUMPDEST POP SWAP3 SWAP2 POP POP JUMP JUMPDEST PUSH2 0x160 DUP2 ADD PUSH2 0x21A3 DUP3 DUP6 PUSH2 0x1D8C JUMP JUMPDEST PUSH1 0x1 PUSH1 0x1 PUSH1 0xA0 SHL SUB SWAP3 SWAP1 SWAP3 AND PUSH2 0x140 SWAP2 SWAP1 SWAP2 ADD MSTORE SWAP2 SWAP1 POP JUMP INVALID LOG2 PUSH5 0x6970667358 0x22 SLT KECCAK256 0xFC 0xA5 MULMOD PUSH15 0xCE98EBB8CB569CF342D6653992D5F5 0xA8 JUMP CODECOPY SWAP8 0xD0 COINBASE SELFBALANCE 0x25 DUP3 PUSH21 0x1D050564736F6C634300081A003300000000000000 "
				},
				"gasEstimates": {
					"creation": {
						"codeDepositCost": "1738000",
						"executionCost": "26060",
						"totalCost": "1764060"
					},
					"external": {
						"": "206",
						"AIaddress()": "2393",
						"accounts(address)": "2784",
						"agreements(bytes32)": "15556",
						"applyOfferedWork(bytes32)": "68715",
						"balanceRecieved()": "2360",
						"deleteWork(bytes32)": "infinite",
						"getAskedMiddleman(bytes32,uint256)": "2624",
						"getCandidates(bytes32,uint256)": "4835",
						"getMiddleman(bytes32)": "2492",
						"middleManValidate(bytes32,uint256)": "45332",
						"newAccount(bool,bool,bool)": "infinite",
						"numOfAgreements()": "2404",
						"numOfWorks()": "2339",
						"offerWork()": "infinite",
						"offeredWorks(bytes32)": "11050",
						"raiseDispute(bytes32)": "47450",
						"reqruitEmployee(bytes32,uint256)": "infinite",
						"resolveDispluteAI(bytes32,address)": "infinite",
						"resolveDispluteMiddleman(bytes32,uint256,uint256)": "infinite",
						"setEmployeeDone(bytes32)": "27917",
						"setEmployerValidate(bytes32)": "infinite",
						"suggestMiddleman(bytes32,address)": "infinite"
					},
					"internal": {
						"askMiddleman(bytes32,address)": "infinite"
					}
				},
				"methodIdentifiers": {
					"AIaddress()": "1cefaf22",
					"accounts(address)": "5e5c06e2",
					"agreements(bytes32)": "9e1f68c7",
					"applyOfferedWork(bytes32)": "6d58a991",
					"balanceRecieved()": "d4c06b8d",
					"deleteWork(bytes32)": "ebf1f2a0",
					"getAskedMiddleman(bytes32,uint256)": "e7decd80",
					"getCandidates(bytes32,uint256)": "e6306847",
					"getMiddleman(bytes32)": "ccdb5756",
					"middleManValidate(bytes32,uint256)": "12386b3c",
					"newAccount(bool,bool,bool)": "c0d58835",
					"numOfAgreements()": "ef32fc51",
					"numOfWorks()": "d27dc261",
					"offerWork()": "880b5212",
					"offeredWorks(bytes32)": "693648fe",
					"raiseDispute(bytes32)": "e14f5b7d",
					"reqruitEmployee(bytes32,uint256)": "f130a9a7",
					"resolveDispluteAI(bytes32,address)": "15201bc9",
					"resolveDispluteMiddleman(bytes32,uint256,uint256)": "dc0b716f",
					"setEmployeeDone(bytes32)": "a0e1b1b2",
					"setEmployerValidate(bytes32)": "368db4f4",
					"suggestMiddleman(bytes32,address)": "d84bcafa"
				}
			},
			"storageLayout": {
				"storage": [
					{
						"astId": 3,
						"contract": "Contracts/Teknofest.sol:ChainLance",
						"label": "balanceRecieved",
						"offset": 0,
						"slot": "0",
						"type": "t_uint256"
					},
					{
						"astId": 5,
						"contract": "Contracts/Teknofest.sol:ChainLance",
						"label": "AIaddress",
						"offset": 0,
						"slot": "1",
						"type": "t_address_payable"
					},
					{
						"astId": 7,
						"contract": "Contracts/Teknofest.sol:ChainLance",
						"label": "numOfWorks",
						"offset": 0,
						"slot": "2",
						"type": "t_uint256"
					},
					{
						"astId": 9,
						"contract": "Contracts/Teknofest.sol:ChainLance",
						"label": "numOfAgreements",
						"offset": 0,
						"slot": "3",
						"type": "t_uint256"
					},
					{
						"astId": 14,
						"contract": "Contracts/Teknofest.sol:ChainLance",
						"label": "accounts",
						"offset": 0,
						"slot": "4",
						"type": "t_mapping(t_address,t_struct(Account)143_storage)"
					},
					{
						"astId": 19,
						"contract": "Contracts/Teknofest.sol:ChainLance",
						"label": "offeredWorks",
						"offset": 0,
						"slot": "5",
						"type": "t_mapping(t_bytes32,t_struct(OfferedWork)154_storage)"
					},
					{
						"astId": 24,
						"contract": "Contracts/Teknofest.sol:ChainLance",
						"label": "agreements",
						"offset": 0,
						"slot": "6",
						"type": "t_mapping(t_bytes32,t_struct(Agreement)175_storage)"
					},
					{
						"astId": 30,
						"contract": "Contracts/Teknofest.sol:ChainLance",
						"label": "candidates",
						"offset": 0,
						"slot": "7",
						"type": "t_mapping(t_bytes32,t_mapping(t_uint256,t_address))"
					},
					{
						"astId": 38,
						"contract": "Contracts/Teknofest.sol:ChainLance",
						"label": "middleManVotePool",
						"offset": 0,
						"slot": "8",
						"type": "t_mapping(t_bytes32,t_mapping(t_address,t_mapping(t_address,t_bool)))"
					},
					{
						"astId": 44,
						"contract": "Contracts/Teknofest.sol:ChainLance",
						"label": "middleManVoteNumber",
						"offset": 0,
						"slot": "9",
						"type": "t_mapping(t_bytes32,t_mapping(t_address,t_uint256))"
					},
					{
						"astId": 50,
						"contract": "Contracts/Teknofest.sol:ChainLance",
						"label": "askedMiddlemans",
						"offset": 0,
						"slot": "10",
						"type": "t_mapping(t_bytes32,t_mapping(t_uint256,t_address))"
					}
				],
				"types": {
					"t_address": {
						"encoding": "inplace",
						"label": "address",
						"numberOfBytes": "20"
					},
					"t_address_payable": {
						"encoding": "inplace",
						"label": "address payable",
						"numberOfBytes": "20"
					},
					"t_bool": {
						"encoding": "inplace",
						"label": "bool",
						"numberOfBytes": "1"
					},
					"t_bytes32": {
						"encoding": "inplace",
						"label": "bytes32",
						"numberOfBytes": "32"
					},
					"t_mapping(t_address,t_bool)": {
						"encoding": "mapping",
						"key": "t_address",
						"label": "mapping(address => bool)",
						"numberOfBytes": "32",
						"value": "t_bool"
					},
					"t_mapping(t_address,t_mapping(t_address,t_bool))": {
						"encoding": "mapping",
						"key": "t_address",
						"label": "mapping(address => mapping(address => bool))",
						"numberOfBytes": "32",
						"value": "t_mapping(t_address,t_bool)"
					},
					"t_mapping(t_address,t_struct(Account)143_storage)": {
						"encoding": "mapping",
						"key": "t_address",
						"label": "mapping(address => struct ChainLance.Account)",
						"numberOfBytes": "32",
						"value": "t_struct(Account)143_storage"
					},
					"t_mapping(t_address,t_uint256)": {
						"encoding": "mapping",
						"key": "t_address",
						"label": "mapping(address => uint256)",
						"numberOfBytes": "32",
						"value": "t_uint256"
					},
					"t_mapping(t_bytes32,t_mapping(t_address,t_mapping(t_address,t_bool)))": {
						"encoding": "mapping",
						"key": "t_bytes32",
						"label": "mapping(bytes32 => mapping(address => mapping(address => bool)))",
						"numberOfBytes": "32",
						"value": "t_mapping(t_address,t_mapping(t_address,t_bool))"
					},
					"t_mapping(t_bytes32,t_mapping(t_address,t_uint256))": {
						"encoding": "mapping",
						"key": "t_bytes32",
						"label": "mapping(bytes32 => mapping(address => uint256))",
						"numberOfBytes": "32",
						"value": "t_mapping(t_address,t_uint256)"
					},
					"t_mapping(t_bytes32,t_mapping(t_uint256,t_address))": {
						"encoding": "mapping",
						"key": "t_bytes32",
						"label": "mapping(bytes32 => mapping(uint256 => address))",
						"numberOfBytes": "32",
						"value": "t_mapping(t_uint256,t_address)"
					},
					"t_mapping(t_bytes32,t_struct(Agreement)175_storage)": {
						"encoding": "mapping",
						"key": "t_bytes32",
						"label": "mapping(bytes32 => struct ChainLance.Agreement)",
						"numberOfBytes": "32",
						"value": "t_struct(Agreement)175_storage"
					},
					"t_mapping(t_bytes32,t_struct(OfferedWork)154_storage)": {
						"encoding": "mapping",
						"key": "t_bytes32",
						"label": "mapping(bytes32 => struct ChainLance.OfferedWork)",
						"numberOfBytes": "32",
						"value": "t_struct(OfferedWork)154_storage"
					},
					"t_mapping(t_uint256,t_address)": {
						"encoding": "mapping",
						"key": "t_uint256",
						"label": "mapping(uint256 => address)",
						"numberOfBytes": "32",
						"value": "t_address"
					},
					"t_struct(Account)143_storage": {
						"encoding": "inplace",
						"label": "struct ChainLance.Account",
						"members": [
							{
								"astId": 136,
								"contract": "Contracts/Teknofest.sol:ChainLance",
								"label": "isEmployer",
								"offset": 0,
								"slot": "0",
								"type": "t_bool"
							},
							{
								"astId": 138,
								"contract": "Contracts/Teknofest.sol:ChainLance",
								"label": "isEmployee",
								"offset": 1,
								"slot": "0",
								"type": "t_bool"
							},
							{
								"astId": 140,
								"contract": "Contracts/Teknofest.sol:ChainLance",
								"label": "isMiddleman",
								"offset": 2,
								"slot": "0",
								"type": "t_bool"
							},
							{
								"astId": 142,
								"contract": "Contracts/Teknofest.sol:ChainLance",
								"label": "registered",
								"offset": 3,
								"slot": "0",
								"type": "t_bool"
							}
						],
						"numberOfBytes": "32"
					},
					"t_struct(Agreement)175_storage": {
						"encoding": "inplace",
						"label": "struct ChainLance.Agreement",
						"members": [
							{
								"astId": 156,
								"contract": "Contracts/Teknofest.sol:ChainLance",
								"label": "nonce",
								"offset": 0,
								"slot": "0",
								"type": "t_uint256"
							},
							{
								"astId": 158,
								"contract": "Contracts/Teknofest.sol:ChainLance",
								"label": "employer",
								"offset": 0,
								"slot": "1",
								"type": "t_address"
							},
							{
								"astId": 160,
								"contract": "Contracts/Teknofest.sol:ChainLance",
								"label": "employee",
								"offset": 0,
								"slot": "2",
								"type": "t_address"
							},
							{
								"astId": 162,
								"contract": "Contracts/Teknofest.sol:ChainLance",
								"label": "middleman",
								"offset": 0,
								"slot": "3",
								"type": "t_address"
							},
							{
								"astId": 164,
								"contract": "Contracts/Teknofest.sol:ChainLance",
								"label": "amountForEmployee",
								"offset": 0,
								"slot": "4",
								"type": "t_uint256"
							},
							{
								"astId": 166,
								"contract": "Contracts/Teknofest.sol:ChainLance",
								"label": "askedMiddlemanNumber",
								"offset": 0,
								"slot": "5",
								"type": "t_uint256"
							},
							{
								"astId": 168,
								"contract": "Contracts/Teknofest.sol:ChainLance",
								"label": "employeeDone",
								"offset": 0,
								"slot": "6",
								"type": "t_bool"
							},
							{
								"astId": 170,
								"contract": "Contracts/Teknofest.sol:ChainLance",
								"label": "employerValidate",
								"offset": 1,
								"slot": "6",
								"type": "t_bool"
							},
							{
								"astId": 172,
								"contract": "Contracts/Teknofest.sol:ChainLance",
								"label": "disputeRaised",
								"offset": 2,
								"slot": "6",
								"type": "t_bool"
							},
							{
								"astId": 174,
								"contract": "Contracts/Teknofest.sol:ChainLance",
								"label": "resolveCheck",
								"offset": 3,
								"slot": "6",
								"type": "t_bool"
							}
						],
						"numberOfBytes": "224"
					},
					"t_struct(OfferedWork)154_storage": {
						"encoding": "inplace",
						"label": "struct ChainLance.OfferedWork",
						"members": [
							{
								"astId": 145,
								"contract": "Contracts/Teknofest.sol:ChainLance",
								"label": "nonce",
								"offset": 0,
								"slot": "0",
								"type": "t_uint256"
							},
							{
								"astId": 147,
								"contract": "Contracts/Teknofest.sol:ChainLance",
								"label": "employer",
								"offset": 0,
								"slot": "1",
								"type": "t_address"
							},
							{
								"astId": 149,
								"contract": "Contracts/Teknofest.sol:ChainLance",
								"label": "numOfCandidates",
								"offset": 0,
								"slot": "2",
								"type": "t_uint256"
							},
							{
								"astId": 151,
								"contract": "Contracts/Teknofest.sol:ChainLance",
								"label": "amountToStake",
								"offset": 0,
								"slot": "3",
								"type": "t_uint256"
							},
							{
								"astId": 153,
								"contract": "Contracts/Teknofest.sol:ChainLance",
								"label": "isSealed",
								"offset": 0,
								"slot": "4",
								"type": "t_bool"
							}
						],
						"numberOfBytes": "160"
					},
					"t_uint256": {
						"encoding": "inplace",
						"label": "uint256",
						"numberOfBytes": "32"
					}
				}
			},
			"userdoc": {
				"kind": "user",
				"methods": {},
				"version": 1
			}
		}
	}
}