{
	"Contracts/SendMoneyExample.sol": {
		"SendWithdrawMoney": {
			"abi": [
				{
					"inputs": [],
					"name": "balanceRecieved",
					"outputs": [
						{
							"internalType": "uint256",
							"name": "",
							"type": "uint256"
						}
					],
					"stateMutability": "view",
					"type": "function"
				},
				{
					"inputs": [],
					"name": "deposit",
					"outputs": [],
					"stateMutability": "payable",
					"type": "function"
				},
				{
					"inputs": [],
					"name": "getContractBalance",
					"outputs": [
						{
							"internalType": "uint256",
							"name": "",
							"type": "uint256"
						}
					],
					"stateMutability": "view",
					"type": "function"
				},
				{
					"inputs": [
						{
							"internalType": "address payable",
							"name": "to",
							"type": "address"
						}
					],
					"name": "withdrawAddress",
					"outputs": [],
					"stateMutability": "nonpayable",
					"type": "function"
				},
				{
					"inputs": [],
					"name": "withdrawAll",
					"outputs": [],
					"stateMutability": "nonpayable",
					"type": "function"
				}
			],
			"devdoc": {
				"kind": "dev",
				"methods": {},
				"version": 1
			},
			"evm": {
				"assembly": "    /* \"Contracts/SendMoneyExample.sol\":67:590  contract SendWithdrawMoney {... */\n  mstore(0x40, 0x80)\n  callvalue\n  dup1\n  iszero\n  tag_1\n  jumpi\n  revert(0x00, 0x00)\ntag_1:\n  pop\n  dataSize(sub_0)\n  dup1\n  dataOffset(sub_0)\n  0x00\n  codecopy\n  0x00\n  return\nstop\n\nsub_0: assembly {\n        /* \"Contracts/SendMoneyExample.sol\":67:590  contract SendWithdrawMoney {... */\n      mstore(0x40, 0x80)\n      jumpi(tag_1, lt(calldatasize, 0x04))\n      shr(0xe0, calldataload(0x00))\n      dup1\n      0x6f9fb98a\n      eq\n      tag_2\n      jumpi\n      dup1\n      0x853828b6\n      eq\n      tag_3\n      jumpi\n      dup1\n      0xd0e30db0\n      eq\n      tag_4\n      jumpi\n      dup1\n      0xd4c06b8d\n      eq\n      tag_5\n      jumpi\n      dup1\n      0xda16ff04\n      eq\n      tag_6\n      jumpi\n    tag_1:\n      revert(0x00, 0x00)\n        /* \"Contracts/SendMoneyExample.sol\":230:333  function getContractBalance() public view returns(uint) {... */\n    tag_2:\n      callvalue\n      dup1\n      iszero\n      tag_7\n      jumpi\n      revert(0x00, 0x00)\n    tag_7:\n      pop\n        /* \"Contracts/SendMoneyExample.sol\":304:325  address(this).balance */\n      selfbalance\n        /* \"Contracts/SendMoneyExample.sol\":230:333  function getContractBalance() public view returns(uint) {... */\n    tag_8:\n      mload(0x40)\n        /* \"#utility.yul\":160:185   */\n      swap1\n      dup2\n      mstore\n        /* \"#utility.yul\":148:150   */\n      0x20\n        /* \"#utility.yul\":133:151   */\n      add\n        /* \"Contracts/SendMoneyExample.sol\":230:333  function getContractBalance() public view returns(uint) {... */\n      mload(0x40)\n      dup1\n      swap2\n      sub\n      swap1\n      return\n        /* \"Contracts/SendMoneyExample.sol\":341:475  function withdrawAll() public {... */\n    tag_3:\n      callvalue\n      dup1\n      iszero\n      tag_12\n      jumpi\n      revert(0x00, 0x00)\n    tag_12:\n      pop\n      tag_13\n      tag_14\n      jump\t// in\n    tag_13:\n      stop\n        /* \"Contracts/SendMoneyExample.sol\":141:222  function deposit() public payable {... */\n    tag_4:\n      tag_13\n      tag_16\n      jump\t// in\n        /* \"Contracts/SendMoneyExample.sol\":105:132  uint public balanceRecieved */\n    tag_5:\n      callvalue\n      dup1\n      iszero\n      tag_17\n      jumpi\n      revert(0x00, 0x00)\n    tag_17:\n      pop\n      tag_8\n      sload(0x00)\n      dup2\n      jump\n        /* \"Contracts/SendMoneyExample.sol\":483:587  function withdrawAddress(address payable to) public {... */\n    tag_6:\n      callvalue\n      dup1\n      iszero\n      tag_21\n      jumpi\n      revert(0x00, 0x00)\n    tag_21:\n      pop\n      tag_13\n      tag_23\n      calldatasize\n      0x04\n      tag_24\n      jump\t// in\n    tag_23:\n      tag_25\n      jump\t// in\n        /* \"Contracts/SendMoneyExample.sol\":341:475  function withdrawAll() public {... */\n    tag_14:\n        /* \"Contracts/SendMoneyExample.sol\":412:422  msg.sender */\n      caller\n      dup1\n        /* \"Contracts/SendMoneyExample.sol\":434:467  to.transfer(getContractBalance()) */\n      0x08fc\n        /* \"Contracts/SendMoneyExample.sol\":304:325  address(this).balance */\n      selfbalance\n        /* \"Contracts/SendMoneyExample.sol\":446:466  getContractBalance() */\n    tag_28:\n        /* \"Contracts/SendMoneyExample.sol\":434:467  to.transfer(getContractBalance()) */\n      mload(0x40)\n      dup2\n      iszero\n      swap1\n      swap3\n      mul\n      swap2\n      0x00\n      dup2\n      dup2\n      dup2\n      dup6\n      dup9\n      dup9\n      call\n      swap4\n      pop\n      pop\n      pop\n      pop\n      iszero\n      dup1\n      iszero\n      tag_30\n      jumpi\n      returndatacopy(0x00, 0x00, returndatasize)\n      revert(0x00, returndatasize)\n    tag_30:\n      pop\n        /* \"Contracts/SendMoneyExample.sol\":371:475  {... */\n      pop\n        /* \"Contracts/SendMoneyExample.sol\":341:475  function withdrawAll() public {... */\n      jump\t// out\n        /* \"Contracts/SendMoneyExample.sol\":141:222  function deposit() public payable {... */\n    tag_16:\n        /* \"Contracts/SendMoneyExample.sol\":205:214  msg.value */\n      callvalue\n        /* \"Contracts/SendMoneyExample.sol\":186:201  balanceRecieved */\n      0x00\n      0x00\n        /* \"Contracts/SendMoneyExample.sol\":186:214  balanceRecieved += msg.value */\n      dup3\n      dup3\n      sload\n      tag_32\n      swap2\n      swap1\n      tag_33\n      jump\t// in\n    tag_32:\n      swap1\n      swap2\n      sstore\n      pop\n      pop\n        /* \"Contracts/SendMoneyExample.sol\":141:222  function deposit() public payable {... */\n      jump\t// out\n        /* \"Contracts/SendMoneyExample.sol\":483:587  function withdrawAddress(address payable to) public {... */\n    tag_25:\n      sub(shl(0xa0, 0x01), 0x01)\n        /* \"Contracts/SendMoneyExample.sol\":546:557  to.transfer */\n      dup2\n      and\n        /* \"Contracts/SendMoneyExample.sol\":546:579  to.transfer(getContractBalance()) */\n      0x08fc\n        /* \"Contracts/SendMoneyExample.sol\":304:325  address(this).balance */\n      selfbalance\n        /* \"Contracts/SendMoneyExample.sol\":558:578  getContractBalance() */\n      tag_28\n        /* \"Contracts/SendMoneyExample.sol\":230:333  function getContractBalance() public view returns(uint) {... */\n      jump\n        /* \"#utility.yul\":196:490   */\n    tag_24:\n        /* \"#utility.yul\":263:269   */\n      0x00\n        /* \"#utility.yul\":316:318   */\n      0x20\n        /* \"#utility.yul\":304:313   */\n      dup3\n        /* \"#utility.yul\":295:302   */\n      dup5\n        /* \"#utility.yul\":291:314   */\n      sub\n        /* \"#utility.yul\":287:319   */\n      slt\n        /* \"#utility.yul\":284:336   */\n      iszero\n      tag_41\n      jumpi\n        /* \"#utility.yul\":332:333   */\n      0x00\n        /* \"#utility.yul\":329:330   */\n      0x00\n        /* \"#utility.yul\":322:334   */\n      revert\n        /* \"#utility.yul\":284:336   */\n    tag_41:\n        /* \"#utility.yul\":358:381   */\n      dup2\n      calldataload\n      sub(shl(0xa0, 0x01), 0x01)\n        /* \"#utility.yul\":410:441   */\n      dup2\n      and\n        /* \"#utility.yul\":400:442   */\n      dup2\n      eq\n        /* \"#utility.yul\":390:460   */\n      tag_42\n      jumpi\n        /* \"#utility.yul\":456:457   */\n      0x00\n        /* \"#utility.yul\":453:454   */\n      0x00\n        /* \"#utility.yul\":446:458   */\n      revert\n        /* \"#utility.yul\":390:460   */\n    tag_42:\n        /* \"#utility.yul\":479:484   */\n      swap4\n        /* \"#utility.yul\":196:490   */\n      swap3\n      pop\n      pop\n      pop\n      jump\t// out\n        /* \"#utility.yul\":495:717   */\n    tag_33:\n        /* \"#utility.yul\":560:569   */\n      dup1\n      dup3\n      add\n        /* \"#utility.yul\":581:591   */\n      dup1\n      dup3\n      gt\n        /* \"#utility.yul\":578:711   */\n      iszero\n      tag_44\n      jumpi\n        /* \"#utility.yul\":633:643   */\n      0x4e487b71\n        /* \"#utility.yul\":628:631   */\n      0xe0\n        /* \"#utility.yul\":624:644   */\n      shl\n        /* \"#utility.yul\":621:622   */\n      0x00\n        /* \"#utility.yul\":614:645   */\n      mstore\n        /* \"#utility.yul\":668:672   */\n      0x11\n        /* \"#utility.yul\":665:666   */\n      0x04\n        /* \"#utility.yul\":658:673   */\n      mstore\n        /* \"#utility.yul\":696:700   */\n      0x24\n        /* \"#utility.yul\":693:694   */\n      0x00\n        /* \"#utility.yul\":686:701   */\n      revert\n        /* \"#utility.yul\":578:711   */\n    tag_44:\n        /* \"#utility.yul\":495:717   */\n      swap3\n      swap2\n      pop\n      pop\n      jump\t// out\n\n    auxdata: 0xa264697066735822122063d39f8f380cd0cbb2633c14e94345c2ee6a952eda994ee0897de9fd7ba90dc264736f6c634300081c0033\n}\n",
				"bytecode": {
					"linkReferences": {},
					"object": "6080604052348015600e575f5ffd5b506101a08061001c5f395ff3fe608060405260043610610049575f3560e01c80636f9fb98a1461004d578063853828b61461006d578063d0e30db014610083578063d4c06b8d1461008b578063da16ff041461009f575b5f5ffd5b348015610058575f5ffd5b50475b60405190815260200160405180910390f35b348015610078575f5ffd5b506100816100be565b005b6100816100ee565b348015610096575f5ffd5b5061005b5f5481565b3480156100aa575f5ffd5b506100816100b9366004610118565b610105565b33806108fc475b6040518115909202915f818181858888f193505050501580156100ea573d5f5f3e3d5ffd5b5050565b345f5f8282546100fe9190610145565b9091555050565b6001600160a01b0381166108fc476100c5565b5f60208284031215610128575f5ffd5b81356001600160a01b038116811461013e575f5ffd5b9392505050565b8082018082111561016457634e487b7160e01b5f52601160045260245ffd5b9291505056fea264697066735822122063d39f8f380cd0cbb2633c14e94345c2ee6a952eda994ee0897de9fd7ba90dc264736f6c634300081c0033",
					"opcodes": "PUSH1 0x80 PUSH1 0x40 MSTORE CALLVALUE DUP1 ISZERO PUSH1 0xE JUMPI PUSH0 PUSH0 REVERT JUMPDEST POP PUSH2 0x1A0 DUP1 PUSH2 0x1C PUSH0 CODECOPY PUSH0 RETURN INVALID PUSH1 0x80 PUSH1 0x40 MSTORE PUSH1 0x4 CALLDATASIZE LT PUSH2 0x49 JUMPI PUSH0 CALLDATALOAD PUSH1 0xE0 SHR DUP1 PUSH4 0x6F9FB98A EQ PUSH2 0x4D JUMPI DUP1 PUSH4 0x853828B6 EQ PUSH2 0x6D JUMPI DUP1 PUSH4 0xD0E30DB0 EQ PUSH2 0x83 JUMPI DUP1 PUSH4 0xD4C06B8D EQ PUSH2 0x8B JUMPI DUP1 PUSH4 0xDA16FF04 EQ PUSH2 0x9F JUMPI JUMPDEST PUSH0 PUSH0 REVERT JUMPDEST CALLVALUE DUP1 ISZERO PUSH2 0x58 JUMPI PUSH0 PUSH0 REVERT JUMPDEST POP SELFBALANCE JUMPDEST PUSH1 0x40 MLOAD SWAP1 DUP2 MSTORE PUSH1 0x20 ADD PUSH1 0x40 MLOAD DUP1 SWAP2 SUB SWAP1 RETURN JUMPDEST CALLVALUE DUP1 ISZERO PUSH2 0x78 JUMPI PUSH0 PUSH0 REVERT JUMPDEST POP PUSH2 0x81 PUSH2 0xBE JUMP JUMPDEST STOP JUMPDEST PUSH2 0x81 PUSH2 0xEE JUMP JUMPDEST CALLVALUE DUP1 ISZERO PUSH2 0x96 JUMPI PUSH0 PUSH0 REVERT JUMPDEST POP PUSH2 0x5B PUSH0 SLOAD DUP2 JUMP JUMPDEST CALLVALUE DUP1 ISZERO PUSH2 0xAA JUMPI PUSH0 PUSH0 REVERT JUMPDEST POP PUSH2 0x81 PUSH2 0xB9 CALLDATASIZE PUSH1 0x4 PUSH2 0x118 JUMP JUMPDEST PUSH2 0x105 JUMP JUMPDEST CALLER DUP1 PUSH2 0x8FC SELFBALANCE JUMPDEST PUSH1 0x40 MLOAD DUP2 ISZERO SWAP1 SWAP3 MUL SWAP2 PUSH0 DUP2 DUP2 DUP2 DUP6 DUP9 DUP9 CALL SWAP4 POP POP POP POP ISZERO DUP1 ISZERO PUSH2 0xEA JUMPI RETURNDATASIZE PUSH0 PUSH0 RETURNDATACOPY RETURNDATASIZE PUSH0 REVERT JUMPDEST POP POP JUMP JUMPDEST CALLVALUE PUSH0 PUSH0 DUP3 DUP3 SLOAD PUSH2 0xFE SWAP2 SWAP1 PUSH2 0x145 JUMP JUMPDEST SWAP1 SWAP2 SSTORE POP POP JUMP JUMPDEST PUSH1 0x1 PUSH1 0x1 PUSH1 0xA0 SHL SUB DUP2 AND PUSH2 0x8FC SELFBALANCE PUSH2 0xC5 JUMP JUMPDEST PUSH0 PUSH1 0x20 DUP3 DUP5 SUB SLT ISZERO PUSH2 0x128 JUMPI PUSH0 PUSH0 REVERT JUMPDEST DUP2 CALLDATALOAD PUSH1 0x1 PUSH1 0x1 PUSH1 0xA0 SHL SUB DUP2 AND DUP2 EQ PUSH2 0x13E JUMPI PUSH0 PUSH0 REVERT JUMPDEST SWAP4 SWAP3 POP POP POP JUMP JUMPDEST DUP1 DUP3 ADD DUP1 DUP3 GT ISZERO PUSH2 0x164 JUMPI PUSH4 0x4E487B71 PUSH1 0xE0 SHL PUSH0 MSTORE PUSH1 0x11 PUSH1 0x4 MSTORE PUSH1 0x24 PUSH0 REVERT JUMPDEST SWAP3 SWAP2 POP POP JUMP INVALID LOG2 PUSH5 0x6970667358 0x22 SLT KECCAK256 PUSH4 0xD39F8F38 0xC 0xD0 0xCB 0xB2 PUSH4 0x3C14E943 GASLIMIT 0xC2 0xEE PUSH11 0x952EDA994EE0897DE9FD7B 0xA9 0xD 0xC2 PUSH5 0x736F6C6343 STOP ADDMOD SHR STOP CALLER "
				},
				"gasEstimates": {
					"creation": {
						"codeDepositCost": "83200",
						"executionCost": "127",
						"totalCost": "83327"
					},
					"external": {
						"balanceRecieved()": "2325",
						"deposit()": "24438",
						"getContractBalance()": "148",
						"withdrawAddress(address)": "infinite",
						"withdrawAll()": "infinite"
					}
				},
				"methodIdentifiers": {
					"balanceRecieved()": "d4c06b8d",
					"deposit()": "d0e30db0",
					"getContractBalance()": "6f9fb98a",
					"withdrawAddress(address)": "da16ff04",
					"withdrawAll()": "853828b6"
				}
			},
			"storageLayout": {
				"storage": [
					{
						"astId": 3,
						"contract": "Contracts/SendMoneyExample.sol:SendWithdrawMoney",
						"label": "balanceRecieved",
						"offset": 0,
						"slot": "0",
						"type": "t_uint256"
					}
				],
				"types": {
					"t_uint256": {
						"encoding": "inplace",
						"label": "uint256",
						"numberOfBytes": "32"
					}
				}
			},
			"userdoc": {
				"kind": "user",
				"methods": {},
				"version": 1
			}
		}
	}
}