{
	"Contracts/SharedWallet.sol": {
		"SharedWallet": {
			"abi": [
				{
					"inputs": [],
					"stateMutability": "nonpayable",
					"type": "constructor"
				},
				{
					"anonymous": false,
					"inputs": [
						{
							"indexed": true,
							"internalType": "address",
							"name": "changed",
							"type": "address"
						},
						{
							"indexed": true,
							"internalType": "address",
							"name": "gotChanged",
							"type": "address"
						},
						{
							"indexed": false,
							"internalType": "bool",
							"name": "setTo",
							"type": "bool"
						}
					],
					"name": "allowanceChanged",
					"type": "event"
				},
				{
					"anonymous": false,
					"inputs": [
						{
							"indexed": true,
							"internalType": "address",
							"name": "from",
							"type": "address"
						},
						{
							"indexed": false,
							"internalType": "uint256",
							"name": "amount",
							"type": "uint256"
						}
					],
					"name": "depositSent",
					"type": "event"
				},
				{
					"anonymous": false,
					"inputs": [
						{
							"indexed": true,
							"internalType": "address",
							"name": "from",
							"type": "address"
						},
						{
							"indexed": true,
							"internalType": "address",
							"name": "to",
							"type": "address"
						},
						{
							"indexed": false,
							"internalType": "uint256",
							"name": "amount",
							"type": "uint256"
						}
					],
					"name": "withdrawalSent",
					"type": "event"
				},
				{
					"inputs": [
						{
							"internalType": "uint256",
							"name": "which_",
							"type": "uint256"
						}
					],
					"name": "checkAlloweds",
					"outputs": [
						{
							"internalType": "address",
							"name": "",
							"type": "address"
						},
						{
							"internalType": "bool",
							"name": "",
							"type": "bool"
						}
					],
					"stateMutability": "view",
					"type": "function"
				},
				{
					"inputs": [],
					"name": "depositMoney",
					"outputs": [],
					"stateMutability": "payable",
					"type": "function"
				},
				{
					"inputs": [
						{
							"internalType": "address",
							"name": "from_",
							"type": "address"
						}
					],
					"name": "getBalance",
					"outputs": [
						{
							"internalType": "uint256",
							"name": "",
							"type": "uint256"
						}
					],
					"stateMutability": "view",
					"type": "function"
				},
				{
					"inputs": [
						{
							"internalType": "address",
							"name": "address_",
							"type": "address"
						}
					],
					"name": "setAllowed",
					"outputs": [],
					"stateMutability": "nonpayable",
					"type": "function"
				},
				{
					"inputs": [
						{
							"internalType": "address",
							"name": "address_",
							"type": "address"
						}
					],
					"name": "setNotAllowed",
					"outputs": [],
					"stateMutability": "nonpayable",
					"type": "function"
				},
				{
					"inputs": [
						{
							"internalType": "address payable",
							"name": "to_",
							"type": "address"
						},
						{
							"internalType": "uint256",
							"name": "amount_",
							"type": "uint256"
						}
					],
					"name": "withdrawMoney",
					"outputs": [],
					"stateMutability": "nonpayable",
					"type": "function"
				},
				{
					"stateMutability": "payable",
					"type": "receive"
				}
			],
			"devdoc": {
				"kind": "dev",
				"methods": {},
				"version": 1
			},
			"evm": {
				"assembly": "    /* \"Contracts/SharedWallet.sol\":60:3752  contract SharedWallet {... */\n  mstore(0x40, 0x80)\n    /* \"Contracts/SharedWallet.sol\":945:996  constructor() {... */\n  callvalue\n  dup1\n  iszero\n  tag_1\n  jumpi\n  0x00\n  dup1\n  revert\ntag_1:\n  pop\n    /* \"Contracts/SharedWallet.sol\":970:975  owner */\n  0x01\n    /* \"Contracts/SharedWallet.sol\":970:988  owner = msg.sender */\n  dup1\n  sload\n  not(sub(shl(0xa0, 0x01), 0x01))\n  and\n    /* \"Contracts/SharedWallet.sol\":978:988  msg.sender */\n  caller\n    /* \"Contracts/SharedWallet.sol\":970:988  owner = msg.sender */\n  or\n  swap1\n  sstore\n    /* \"Contracts/SharedWallet.sol\":60:3752  contract SharedWallet {... */\n  dataSize(sub_0)\n  dup1\n  dataOffset(sub_0)\n  0x00\n  codecopy\n  0x00\n  return\nstop\n\nsub_0: assembly {\n        /* \"Contracts/SharedWallet.sol\":60:3752  contract SharedWallet {... */\n      mstore(0x40, 0x80)\n      jumpi(tag_1, lt(calldatasize, 0x04))\n      shr(0xe0, calldataload(0x00))\n      dup1\n      0x16c05aa2\n      eq\n      tag_3\n      jumpi\n      dup1\n      0x36047015\n      eq\n      tag_4\n      jumpi\n      dup1\n      0x41ac7eb8\n      eq\n      tag_5\n      jumpi\n      dup1\n      0xc0e79a11\n      eq\n      tag_6\n      jumpi\n      dup1\n      0xf274c897\n      eq\n      tag_7\n      jumpi\n      dup1\n      0xf8b2cb4f\n      eq\n      tag_8\n      jumpi\n      0x00\n      dup1\n      revert\n    tag_1:\n      jumpi(tag_2, calldatasize)\n      stop\n    tag_2:\n      0x00\n      dup1\n      revert\n        /* \"Contracts/SharedWallet.sol\":2509:2972  function depositMoney() public payable ownerAndAllowed {... */\n    tag_3:\n      tag_11\n      tag_12\n      jump\t// in\n    tag_11:\n      stop\n        /* \"Contracts/SharedWallet.sol\":1857:2151  function setNotAllowed(address address_) public ownerAndAllowed{... */\n    tag_4:\n      callvalue\n      dup1\n      iszero\n      tag_13\n      jumpi\n      0x00\n      dup1\n      revert\n    tag_13:\n      pop\n      tag_11\n      tag_15\n      calldatasize\n      0x04\n      tag_16\n      jump\t// in\n    tag_15:\n      tag_17\n      jump\t// in\n        /* \"Contracts/SharedWallet.sol\":2159:2370  function checkAlloweds(uint which_) public view returns(address, bool){... */\n    tag_5:\n      callvalue\n      dup1\n      iszero\n      tag_18\n      jumpi\n      0x00\n      dup1\n      revert\n    tag_18:\n      pop\n      tag_19\n      tag_20\n      calldatasize\n      0x04\n      tag_21\n      jump\t// in\n    tag_20:\n        /* \"Contracts/SharedWallet.sol\":2267:2272  owner */\n      sload(0x01)\n      sub(shl(0xa0, 0x01), 0x01)\n      swap1\n      dup2\n      and\n        /* \"Contracts/SharedWallet.sol\":2215:2222  address */\n      0x00\n        /* \"Contracts/SharedWallet.sol\":2258:2273  accounts[owner] */\n      swap1\n      dup2\n      mstore\n      0x20\n      dup2\n      dup2\n      mstore\n      0x40\n      dup1\n      dup4\n      keccak256\n        /* \"Contracts/SharedWallet.sol\":2258:2295  accounts[owner].peopleAllowed[which_] */\n      swap5\n      dup4\n      mstore\n        /* \"Contracts/SharedWallet.sol\":2258:2287  accounts[owner].peopleAllowed */\n      0x06\n      dup6\n      add\n        /* \"Contracts/SharedWallet.sol\":2258:2295  accounts[owner].peopleAllowed[which_] */\n      dup3\n      mstore\n      dup1\n      dup4\n      keccak256\n      sload\n      swap1\n      swap4\n      and\n        /* \"Contracts/SharedWallet.sol\":2297:2361  accounts[owner].isAllowed[accounts[owner].peopleAllowed[which_]] */\n      dup1\n      dup4\n      mstore\n        /* \"Contracts/SharedWallet.sol\":2297:2322  accounts[owner].isAllowed */\n      0x07\n      swap1\n      swap5\n      add\n        /* \"Contracts/SharedWallet.sol\":2297:2361  accounts[owner].isAllowed[accounts[owner].peopleAllowed[which_]] */\n      swap1\n      mstore\n      keccak256\n      sload\n        /* \"Contracts/SharedWallet.sol\":2258:2295  accounts[owner].peopleAllowed[which_] */\n      swap1\n      swap2\n        /* \"Contracts/SharedWallet.sol\":2297:2361  accounts[owner].isAllowed[accounts[owner].peopleAllowed[which_]] */\n      0xff\n      swap1\n      swap2\n      and\n      swap1\n        /* \"Contracts/SharedWallet.sol\":2159:2370  function checkAlloweds(uint which_) public view returns(address, bool){... */\n      jump\n    tag_19:\n      0x40\n      dup1\n      mload\n      sub(shl(0xa0, 0x01), 0x01)\n        /* \"#utility.yul\":819:851   */\n      swap1\n      swap4\n      and\n        /* \"#utility.yul\":801:852   */\n      dup4\n      mstore\n        /* \"#utility.yul\":895:909   */\n      swap1\n      iszero\n        /* \"#utility.yul\":888:910   */\n      iszero\n        /* \"#utility.yul\":883:885   */\n      0x20\n        /* \"#utility.yul\":868:886   */\n      dup4\n      add\n        /* \"#utility.yul\":861:911   */\n      mstore\n        /* \"#utility.yul\":774:792   */\n      add\n        /* \"Contracts/SharedWallet.sol\":2159:2370  function checkAlloweds(uint which_) public view returns(address, bool){... */\n    tag_23:\n      mload(0x40)\n      dup1\n      swap2\n      sub\n      swap1\n      return\n        /* \"Contracts/SharedWallet.sol\":1542:1849  function setAllowed(address address_) public onlyOwner {... */\n    tag_6:\n      callvalue\n      dup1\n      iszero\n      tag_25\n      jumpi\n      0x00\n      dup1\n      revert\n    tag_25:\n      pop\n      tag_11\n      tag_27\n      calldatasize\n      0x04\n      tag_16\n      jump\t// in\n    tag_27:\n      tag_28\n      jump\t// in\n        /* \"Contracts/SharedWallet.sol\":2980:3590  function withdrawMoney(address payable to_, uint amount_) public ownerAndAllowed {... */\n    tag_7:\n      callvalue\n      dup1\n      iszero\n      tag_29\n      jumpi\n      0x00\n      dup1\n      revert\n    tag_29:\n      pop\n      tag_11\n      tag_31\n      calldatasize\n      0x04\n      tag_32\n      jump\t// in\n    tag_31:\n      tag_33\n      jump\t// in\n        /* \"Contracts/SharedWallet.sol\":3598:3711  function getBalance(address from_) public view returns(uint) {... */\n    tag_8:\n      callvalue\n      dup1\n      iszero\n      tag_34\n      jumpi\n      0x00\n      dup1\n      revert\n    tag_34:\n      pop\n      tag_35\n      tag_36\n      calldatasize\n      0x04\n      tag_16\n      jump\t// in\n    tag_36:\n      sub(shl(0xa0, 0x01), 0x01)\n        /* \"Contracts/SharedWallet.sol\":3677:3692  accounts[from_] */\n      and\n        /* \"Contracts/SharedWallet.sol\":3653:3657  uint */\n      0x00\n        /* \"Contracts/SharedWallet.sol\":3677:3692  accounts[from_] */\n      swap1\n      dup2\n      mstore\n      0x20\n      dup2\n      swap1\n      mstore\n      0x40\n      swap1\n      keccak256\n        /* \"Contracts/SharedWallet.sol\":3677:3703  accounts[from_].totalMoney */\n      sload\n      swap1\n        /* \"Contracts/SharedWallet.sol\":3598:3711  function getBalance(address from_) public view returns(uint) {... */\n      jump\n    tag_35:\n      mload(0x40)\n        /* \"#utility.yul\":1448:1473   */\n      swap1\n      dup2\n      mstore\n        /* \"#utility.yul\":1436:1438   */\n      0x20\n        /* \"#utility.yul\":1421:1439   */\n      add\n        /* \"Contracts/SharedWallet.sol\":3598:3711  function getBalance(address from_) public view returns(uint) {... */\n      tag_23\n        /* \"#utility.yul\":1302:1479   */\n      jump\n        /* \"Contracts/SharedWallet.sol\":2509:2972  function depositMoney() public payable ownerAndAllowed {... */\n    tag_12:\n        /* \"Contracts/SharedWallet.sol\":1293:1298  owner */\n      and(sub(shl(0xa0, 0x01), 0x01), sload(0x01))\n        /* \"Contracts/SharedWallet.sol\":1279:1289  msg.sender */\n      caller\n        /* \"Contracts/SharedWallet.sol\":1279:1298  msg.sender == owner */\n      eq\n      dup1\n        /* \"Contracts/SharedWallet.sol\":1279:1347  msg.sender == owner || accounts[owner].isAllowed[msg.sender] == true */\n      tag_41\n      jumpi\n      pop\n        /* \"Contracts/SharedWallet.sol\":1311:1316  owner */\n      0x01\n      dup1\n      sload\n      sub(shl(0xa0, 0x01), 0x01)\n      and\n        /* \"Contracts/SharedWallet.sol\":1302:1310  accounts */\n      0x00\n        /* \"Contracts/SharedWallet.sol\":1302:1317  accounts[owner] */\n      swap1\n      dup2\n      mstore\n      0x20\n      dup2\n      dup2\n      mstore\n      0x40\n      dup1\n      dup4\n      keccak256\n        /* \"Contracts/SharedWallet.sol\":1328:1338  msg.sender */\n      caller\n        /* \"Contracts/SharedWallet.sol\":1302:1339  accounts[owner].isAllowed[msg.sender] */\n      dup5\n      mstore\n        /* \"Contracts/SharedWallet.sol\":1302:1327  accounts[owner].isAllowed */\n      0x07\n      add\n        /* \"Contracts/SharedWallet.sol\":1302:1339  accounts[owner].isAllowed[msg.sender] */\n      swap1\n      swap2\n      mstore\n      swap1\n      keccak256\n      sload\n      0xff\n      and\n        /* \"Contracts/SharedWallet.sol\":1302:1347  accounts[owner].isAllowed[msg.sender] == true */\n      iszero\n      iszero\n      eq\n        /* \"Contracts/SharedWallet.sol\":1279:1347  msg.sender == owner || accounts[owner].isAllowed[msg.sender] == true */\n    tag_41:\n        /* \"Contracts/SharedWallet.sol\":1271:1397  require(msg.sender == owner || accounts[owner].isAllowed[msg.sender] == true, \"You are not the owner and you are not allowed\") */\n      tag_42\n      jumpi\n      mload(0x40)\n      shl(0xe5, 0x461bcd)\n      dup2\n      mstore\n      0x04\n      add\n      tag_43\n      swap1\n      tag_44\n      jump\t// in\n    tag_43:\n      mload(0x40)\n      dup1\n      swap2\n      sub\n      swap1\n      revert\n    tag_42:\n        /* \"Contracts/SharedWallet.sol\":2631:2636  owner */\n      and(sub(shl(0xa0, 0x01), 0x01), sload(0x01))\n        /* \"Contracts/SharedWallet.sol\":2577:2597  uint balanceRecieved */\n      0x00\n        /* \"Contracts/SharedWallet.sol\":2622:2637  accounts[owner] */\n      swap1\n      dup2\n      mstore\n      0x20\n      dup2\n      swap1\n      mstore\n      0x40\n      dup2\n      keccak256\n        /* \"Contracts/SharedWallet.sol\":2622:2667  accounts[owner].totalMoney += balanceRecieved */\n      dup1\n      sload\n        /* \"Contracts/SharedWallet.sol\":2600:2609  msg.value */\n      callvalue\n      swap3\n      dup4\n      swap3\n        /* \"Contracts/SharedWallet.sol\":2622:2637  accounts[owner] */\n      swap2\n        /* \"Contracts/SharedWallet.sol\":2622:2667  accounts[owner].totalMoney += balanceRecieved */\n      tag_46\n      swap1\n        /* \"Contracts/SharedWallet.sol\":2600:2609  msg.value */\n      dup5\n      swap1\n        /* \"Contracts/SharedWallet.sol\":2622:2667  accounts[owner].totalMoney += balanceRecieved */\n      tag_47\n      jump\t// in\n    tag_46:\n      swap1\n      swap2\n      sstore\n      pop\n      pop\n      0x40\n      dup1\n      mload\n      dup1\n      dup3\n      add\n      dup3\n      mstore\n      0x00\n      dup1\n      dup3\n      mstore\n      0x20\n      swap2\n      dup3\n      add\n      dup2\n      swap1\n      mstore\n        /* \"Contracts/SharedWallet.sol\":2743:2788  Transaction(balanceRecieved, block.timestamp) */\n      dup3\n      mload\n      dup1\n      dup5\n      add\n      dup5\n      mstore\n      dup5\n      dup2\n      mstore\n        /* \"Contracts/SharedWallet.sol\":2772:2787  block.timestamp */\n      timestamp\n        /* \"Contracts/SharedWallet.sol\":2743:2788  Transaction(balanceRecieved, block.timestamp) */\n      dup2\n      dup5\n      add\n      swap1\n      dup2\n      mstore\n        /* \"Contracts/SharedWallet.sol\":2808:2813  owner */\n      0x01\n      dup1\n      sload\n      sub(shl(0xa0, 0x01), 0x01)\n      swap1\n      dup2\n      and\n        /* \"Contracts/SharedWallet.sol\":2799:2814  accounts[owner] */\n      dup6\n      mstore\n      dup5\n      dup7\n      mstore\n      dup7\n      dup6\n      keccak256\n        /* \"Contracts/SharedWallet.sol\":2824:2853  accounts[owner].numOfDeposits */\n      dup1\n      dup4\n      add\n      sload\n        /* \"Contracts/SharedWallet.sol\":2799:2854  accounts[owner].deposits[accounts[owner].numOfDeposits] */\n      dup7\n      mstore\n        /* \"Contracts/SharedWallet.sol\":2799:2823  accounts[owner].deposits */\n      0x04\n      add\n        /* \"Contracts/SharedWallet.sol\":2799:2854  accounts[owner].deposits[accounts[owner].numOfDeposits] */\n      dup7\n      mstore\n      dup7\n      dup6\n      keccak256\n        /* \"Contracts/SharedWallet.sol\":2799:2868  accounts[owner].deposits[accounts[owner].numOfDeposits] = transaction */\n      dup5\n      mload\n      dup2\n      sstore\n      swap3\n      mload\n      swap3\n      dup3\n      add\n      swap3\n      swap1\n      swap3\n      sstore\n        /* \"Contracts/SharedWallet.sol\":2890:2895  owner */\n      dup1\n      sload\n      swap1\n      swap2\n      and\n        /* \"Contracts/SharedWallet.sol\":2881:2896  accounts[owner] */\n      dup4\n      mstore\n      swap3\n      dup3\n      swap1\n      mstore\n      swap3\n      dup2\n      keccak256\n        /* \"Contracts/SharedWallet.sol\":2881:2910  accounts[owner].numOfDeposits */\n      swap1\n      swap2\n      add\n        /* \"Contracts/SharedWallet.sol\":2881:2912  accounts[owner].numOfDeposits++ */\n      dup1\n      sload\n      swap2\n      tag_50\n      dup4\n      tag_51\n      jump\t// in\n    tag_50:\n      swap1\n      swap2\n      sstore\n      pop\n      pop\n        /* \"Contracts/SharedWallet.sol\":2930:2964  depositSent(msg.sender, msg.value) */\n      mload(0x40)\n        /* \"Contracts/SharedWallet.sol\":2954:2963  msg.value */\n      callvalue\n        /* \"#utility.yul\":1448:1473   */\n      dup2\n      mstore\n        /* \"Contracts/SharedWallet.sol\":2942:2952  msg.sender */\n      caller\n      swap1\n        /* \"Contracts/SharedWallet.sol\":2930:2964  depositSent(msg.sender, msg.value) */\n      0xa6c464a951f5ad7a3adebbc18d08d7227b11ec77ef056ce49dc6e6e2bc0affea\n      swap1\n        /* \"#utility.yul\":1436:1438   */\n      0x20\n        /* \"#utility.yul\":1421:1439   */\n      add\n        /* \"Contracts/SharedWallet.sol\":2930:2964  depositSent(msg.sender, msg.value) */\n      mload(0x40)\n      dup1\n      swap2\n      sub\n      swap1\n      log2\n        /* \"Contracts/SharedWallet.sol\":2564:2972  {... */\n      pop\n      pop\n        /* \"Contracts/SharedWallet.sol\":2509:2972  function depositMoney() public payable ownerAndAllowed {... */\n      jump\t// out\n        /* \"Contracts/SharedWallet.sol\":1857:2151  function setNotAllowed(address address_) public ownerAndAllowed{... */\n    tag_17:\n        /* \"Contracts/SharedWallet.sol\":1293:1298  owner */\n      and(sub(shl(0xa0, 0x01), 0x01), sload(0x01))\n        /* \"Contracts/SharedWallet.sol\":1279:1289  msg.sender */\n      caller\n        /* \"Contracts/SharedWallet.sol\":1279:1298  msg.sender == owner */\n      eq\n      dup1\n        /* \"Contracts/SharedWallet.sol\":1279:1347  msg.sender == owner || accounts[owner].isAllowed[msg.sender] == true */\n      tag_54\n      jumpi\n      pop\n        /* \"Contracts/SharedWallet.sol\":1311:1316  owner */\n      0x01\n      dup1\n      sload\n      sub(shl(0xa0, 0x01), 0x01)\n      and\n        /* \"Contracts/SharedWallet.sol\":1302:1310  accounts */\n      0x00\n        /* \"Contracts/SharedWallet.sol\":1302:1317  accounts[owner] */\n      swap1\n      dup2\n      mstore\n      0x20\n      dup2\n      dup2\n      mstore\n      0x40\n      dup1\n      dup4\n      keccak256\n        /* \"Contracts/SharedWallet.sol\":1328:1338  msg.sender */\n      caller\n        /* \"Contracts/SharedWallet.sol\":1302:1339  accounts[owner].isAllowed[msg.sender] */\n      dup5\n      mstore\n        /* \"Contracts/SharedWallet.sol\":1302:1327  accounts[owner].isAllowed */\n      0x07\n      add\n        /* \"Contracts/SharedWallet.sol\":1302:1339  accounts[owner].isAllowed[msg.sender] */\n      swap1\n      swap2\n      mstore\n      swap1\n      keccak256\n      sload\n      0xff\n      and\n        /* \"Contracts/SharedWallet.sol\":1302:1347  accounts[owner].isAllowed[msg.sender] == true */\n      iszero\n      iszero\n      eq\n        /* \"Contracts/SharedWallet.sol\":1279:1347  msg.sender == owner || accounts[owner].isAllowed[msg.sender] == true */\n    tag_54:\n        /* \"Contracts/SharedWallet.sol\":1271:1397  require(msg.sender == owner || accounts[owner].isAllowed[msg.sender] == true, \"You are not the owner and you are not allowed\") */\n      tag_55\n      jumpi\n      mload(0x40)\n      shl(0xe5, 0x461bcd)\n      dup2\n      mstore\n      0x04\n      add\n      tag_43\n      swap1\n      tag_44\n      jump\t// in\n    tag_55:\n        /* \"Contracts/SharedWallet.sol\":1948:1953  owner */\n      0x01\n      dup1\n      sload\n      sub(shl(0xa0, 0x01), 0x01)\n      swap1\n      dup2\n      and\n        /* \"Contracts/SharedWallet.sol\":1939:1947  accounts */\n      0x00\n        /* \"Contracts/SharedWallet.sol\":1939:1954  accounts[owner] */\n      swap1\n      dup2\n      mstore\n      0x20\n      dup2\n      dup2\n      mstore\n      0x40\n      dup1\n      dup4\n      keccak256\n        /* \"Contracts/SharedWallet.sol\":1939:1974  accounts[owner].isAllowed[address_] */\n      swap4\n      dup7\n      and\n      dup4\n      mstore\n        /* \"Contracts/SharedWallet.sol\":1939:1964  accounts[owner].isAllowed */\n      0x07\n      swap1\n      swap4\n      add\n        /* \"Contracts/SharedWallet.sol\":1939:1974  accounts[owner].isAllowed[address_] */\n      swap1\n      mstore\n      keccak256\n      sload\n      0xff\n      and\n        /* \"Contracts/SharedWallet.sol\":1939:1982  accounts[owner].isAllowed[address_] == true */\n      iszero\n      iszero\n      eq\n        /* \"Contracts/SharedWallet.sol\":1931:2021  require(accounts[owner].isAllowed[address_] == true, \"This person is already not allowed\") */\n      tag_58\n      jumpi\n      mload(0x40)\n      shl(0xe5, 0x461bcd)\n      dup2\n      mstore\n        /* \"#utility.yul\":2502:2504   */\n      0x20\n        /* \"Contracts/SharedWallet.sol\":1931:2021  require(accounts[owner].isAllowed[address_] == true, \"This person is already not allowed\") */\n      0x04\n      dup3\n      add\n        /* \"#utility.yul\":2484:2505   */\n      mstore\n        /* \"#utility.yul\":2541:2543   */\n      0x22\n        /* \"#utility.yul\":2521:2539   */\n      0x24\n      dup3\n      add\n        /* \"#utility.yul\":2514:2544   */\n      mstore\n        /* \"#utility.yul\":2580:2614   */\n      0x5468697320706572736f6e20697320616c7265616479206e6f7420616c6c6f77\n        /* \"#utility.yul\":2560:2578   */\n      0x44\n      dup3\n      add\n        /* \"#utility.yul\":2553:2615   */\n      mstore\n      shl(0xf2, 0x1959)\n        /* \"#utility.yul\":2631:2649   */\n      0x64\n      dup3\n      add\n        /* \"#utility.yul\":2624:2656   */\n      mstore\n        /* \"#utility.yul\":2673:2692   */\n      0x84\n      add\n        /* \"Contracts/SharedWallet.sol\":1931:2021  require(accounts[owner].isAllowed[address_] == true, \"This person is already not allowed\") */\n      tag_43\n        /* \"#utility.yul\":2300:2698   */\n      jump\n        /* \"Contracts/SharedWallet.sol\":1931:2021  require(accounts[owner].isAllowed[address_] == true, \"This person is already not allowed\") */\n    tag_58:\n        /* \"Contracts/SharedWallet.sol\":2051:2056  owner */\n      0x01\n      dup1\n      sload\n      sub(shl(0xa0, 0x01), 0x01)\n      swap1\n      dup2\n      and\n        /* \"Contracts/SharedWallet.sol\":2080:2085  false */\n      0x00\n        /* \"Contracts/SharedWallet.sol\":2042:2057  accounts[owner] */\n      swap1\n      dup2\n      mstore\n      0x20\n      dup2\n      dup2\n      mstore\n      0x40\n      dup1\n      dup4\n      keccak256\n        /* \"Contracts/SharedWallet.sol\":2042:2077  accounts[owner].isAllowed[address_] */\n      dup7\n      dup6\n      and\n      dup1\n      dup6\n      mstore\n        /* \"Contracts/SharedWallet.sol\":2042:2067  accounts[owner].isAllowed */\n      0x07\n      swap1\n      swap2\n      add\n        /* \"Contracts/SharedWallet.sol\":2042:2077  accounts[owner].isAllowed[address_] */\n      dup4\n      mstore\n      dup2\n      dup5\n      keccak256\n        /* \"Contracts/SharedWallet.sol\":2042:2085  accounts[owner].isAllowed[address_] = false */\n      dup1\n      sload\n      not(0xff)\n      and\n      swap1\n      sstore\n        /* \"Contracts/SharedWallet.sol\":2120:2125  owner */\n      swap5\n      sload\n        /* \"Contracts/SharedWallet.sol\":2103:2143  allowanceChanged(owner, address_, false) */\n      swap1\n      mload\n        /* \"#utility.yul\":2843:2884   */\n      swap3\n      dup4\n      mstore\n        /* \"Contracts/SharedWallet.sol\":2120:2125  owner */\n      swap1\n      swap3\n      and\n      swap2\n        /* \"Contracts/SharedWallet.sol\":2103:2143  allowanceChanged(owner, address_, false) */\n      0x28907a532a4b0d537e93c1aef854e813c1a42238572b07edc1b34c3f80e5a46b\n      swap2\n        /* \"#utility.yul\":2816:2834   */\n      add\n        /* \"Contracts/SharedWallet.sol\":2103:2143  allowanceChanged(owner, address_, false) */\n    tag_61:\n      mload(0x40)\n      dup1\n      swap2\n      sub\n      swap1\n      log3\n        /* \"Contracts/SharedWallet.sol\":1857:2151  function setNotAllowed(address address_) public ownerAndAllowed{... */\n      pop\n      jump\t// out\n        /* \"Contracts/SharedWallet.sol\":1542:1849  function setAllowed(address address_) public onlyOwner {... */\n    tag_28:\n        /* \"Contracts/SharedWallet.sol\":1174:1179  owner */\n      and(sub(shl(0xa0, 0x01), 0x01), sload(0x01))\n        /* \"Contracts/SharedWallet.sol\":1160:1170  msg.sender */\n      caller\n        /* \"Contracts/SharedWallet.sol\":1160:1179  msg.sender == owner */\n      eq\n        /* \"Contracts/SharedWallet.sol\":1152:1205  require(msg.sender == owner, \"You are not the owner\") */\n      tag_65\n      jumpi\n      mload(0x40)\n      shl(0xe5, 0x461bcd)\n      dup2\n      mstore\n        /* \"#utility.yul\":3097:3099   */\n      0x20\n        /* \"Contracts/SharedWallet.sol\":1152:1205  require(msg.sender == owner, \"You are not the owner\") */\n      0x04\n      dup3\n      add\n        /* \"#utility.yul\":3079:3100   */\n      mstore\n        /* \"#utility.yul\":3136:3138   */\n      0x15\n        /* \"#utility.yul\":3116:3134   */\n      0x24\n      dup3\n      add\n        /* \"#utility.yul\":3109:3139   */\n      mstore\n      shl(0x59, 0x2cb7ba9030b932903737ba103a34329037bbb732b9)\n        /* \"#utility.yul\":3155:3173   */\n      0x44\n      dup3\n      add\n        /* \"#utility.yul\":3148:3199   */\n      mstore\n        /* \"#utility.yul\":3216:3234   */\n      0x64\n      add\n        /* \"Contracts/SharedWallet.sol\":1152:1205  require(msg.sender == owner, \"You are not the owner\") */\n      tag_43\n        /* \"#utility.yul\":2895:3240   */\n      jump\n        /* \"Contracts/SharedWallet.sol\":1152:1205  require(msg.sender == owner, \"You are not the owner\") */\n    tag_65:\n        /* \"Contracts/SharedWallet.sol\":1619:1624  owner */\n      0x01\n      dup1\n      sload\n      sub(shl(0xa0, 0x01), 0x01)\n      swap1\n      dup2\n      and\n        /* \"Contracts/SharedWallet.sol\":1610:1618  accounts */\n      0x00\n        /* \"Contracts/SharedWallet.sol\":1610:1625  accounts[owner] */\n      swap1\n      dup2\n      mstore\n      0x20\n      dup2\n      dup2\n      mstore\n      0x40\n      dup1\n      dup4\n      keccak256\n        /* \"Contracts/SharedWallet.sol\":1640:1672  accounts[owner].numPeopleAllowed */\n      0x03\n      dup1\n      dup3\n      add\n      sload\n        /* \"Contracts/SharedWallet.sol\":1610:1673  accounts[owner].peopleAllowed[accounts[owner].numPeopleAllowed] */\n      dup6\n      mstore\n        /* \"Contracts/SharedWallet.sol\":1610:1639  accounts[owner].peopleAllowed */\n      0x06\n      swap1\n      swap2\n      add\n        /* \"Contracts/SharedWallet.sol\":1610:1673  accounts[owner].peopleAllowed[accounts[owner].numPeopleAllowed] */\n      dup4\n      mstore\n      dup2\n      dup5\n      keccak256\n        /* \"Contracts/SharedWallet.sol\":1610:1684  accounts[owner].peopleAllowed[accounts[owner].numPeopleAllowed] = address_ */\n      dup1\n      sload\n      not(sub(shl(0xa0, 0x01), 0x01))\n      and\n      dup9\n      dup8\n      and\n      or\n      swap1\n      sstore\n        /* \"Contracts/SharedWallet.sol\":1704:1709  owner */\n      swap5\n      sload\n      swap1\n      swap4\n      and\n        /* \"Contracts/SharedWallet.sol\":1695:1710  accounts[owner] */\n      dup3\n      mstore\n      dup2\n      swap1\n      mstore\n      swap1\n      dup2\n      keccak256\n        /* \"Contracts/SharedWallet.sol\":1695:1727  accounts[owner].numPeopleAllowed */\n      swap1\n      swap2\n      add\n        /* \"Contracts/SharedWallet.sol\":1695:1729  accounts[owner].numPeopleAllowed++ */\n      dup1\n      sload\n      swap2\n      tag_69\n      dup4\n      tag_51\n      jump\t// in\n    tag_69:\n      swap1\n      swap2\n      sstore\n      pop\n      pop\n        /* \"Contracts/SharedWallet.sol\":1780:1784  true */\n      0x01\n        /* \"Contracts/SharedWallet.sol\":1751:1756  owner */\n      dup1\n      sload\n      sub(shl(0xa0, 0x01), 0x01)\n      swap1\n      dup2\n      and\n        /* \"Contracts/SharedWallet.sol\":1742:1750  accounts */\n      0x00\n        /* \"Contracts/SharedWallet.sol\":1742:1757  accounts[owner] */\n      swap1\n      dup2\n      mstore\n      0x20\n      dup2\n      dup2\n      mstore\n      0x40\n      dup1\n      dup4\n      keccak256\n        /* \"Contracts/SharedWallet.sol\":1742:1777  accounts[owner].isAllowed[address_] */\n      dup7\n      dup6\n      and\n      dup1\n      dup6\n      mstore\n        /* \"Contracts/SharedWallet.sol\":1742:1767  accounts[owner].isAllowed */\n      0x07\n      swap1\n      swap2\n      add\n        /* \"Contracts/SharedWallet.sol\":1742:1777  accounts[owner].isAllowed[address_] */\n      dup4\n      mstore\n      swap3\n      dup2\n      swap1\n      keccak256\n        /* \"Contracts/SharedWallet.sol\":1742:1784  accounts[owner].isAllowed[address_] = true */\n      dup1\n      sload\n      not(0xff)\n      and\n      dup7\n      or\n      swap1\n      sstore\n        /* \"Contracts/SharedWallet.sol\":1819:1824  owner */\n      dup5\n      sload\n        /* \"Contracts/SharedWallet.sol\":1802:1841  allowanceChanged(owner, address_, true) */\n      swap1\n      mload\n        /* \"#utility.yul\":2843:2884   */\n      swap5\n      dup6\n      mstore\n        /* \"Contracts/SharedWallet.sol\":1742:1777  accounts[owner].isAllowed[address_] */\n      swap2\n      swap4\n        /* \"Contracts/SharedWallet.sol\":1819:1824  owner */\n      swap2\n      swap1\n      swap3\n      and\n      swap2\n        /* \"Contracts/SharedWallet.sol\":1802:1841  allowanceChanged(owner, address_, true) */\n      0x28907a532a4b0d537e93c1aef854e813c1a42238572b07edc1b34c3f80e5a46b\n      swap2\n        /* \"#utility.yul\":2816:2834   */\n      add\n        /* \"Contracts/SharedWallet.sol\":1802:1841  allowanceChanged(owner, address_, true) */\n      tag_61\n        /* \"#utility.yul\":2703:2890   */\n      jump\n        /* \"Contracts/SharedWallet.sol\":2980:3590  function withdrawMoney(address payable to_, uint amount_) public ownerAndAllowed {... */\n    tag_33:\n        /* \"Contracts/SharedWallet.sol\":1293:1298  owner */\n      and(sub(shl(0xa0, 0x01), 0x01), sload(0x01))\n        /* \"Contracts/SharedWallet.sol\":1279:1289  msg.sender */\n      caller\n        /* \"Contracts/SharedWallet.sol\":1279:1298  msg.sender == owner */\n      eq\n      dup1\n        /* \"Contracts/SharedWallet.sol\":1279:1347  msg.sender == owner || accounts[owner].isAllowed[msg.sender] == true */\n      tag_72\n      jumpi\n      pop\n        /* \"Contracts/SharedWallet.sol\":1311:1316  owner */\n      0x01\n      dup1\n      sload\n      sub(shl(0xa0, 0x01), 0x01)\n      and\n        /* \"Contracts/SharedWallet.sol\":1302:1310  accounts */\n      0x00\n        /* \"Contracts/SharedWallet.sol\":1302:1317  accounts[owner] */\n      swap1\n      dup2\n      mstore\n      0x20\n      dup2\n      dup2\n      mstore\n      0x40\n      dup1\n      dup4\n      keccak256\n        /* \"Contracts/SharedWallet.sol\":1328:1338  msg.sender */\n      caller\n        /* \"Contracts/SharedWallet.sol\":1302:1339  accounts[owner].isAllowed[msg.sender] */\n      dup5\n      mstore\n        /* \"Contracts/SharedWallet.sol\":1302:1327  accounts[owner].isAllowed */\n      0x07\n      add\n        /* \"Contracts/SharedWallet.sol\":1302:1339  accounts[owner].isAllowed[msg.sender] */\n      swap1\n      swap2\n      mstore\n      swap1\n      keccak256\n      sload\n      0xff\n      and\n        /* \"Contracts/SharedWallet.sol\":1302:1347  accounts[owner].isAllowed[msg.sender] == true */\n      iszero\n      iszero\n      eq\n        /* \"Contracts/SharedWallet.sol\":1279:1347  msg.sender == owner || accounts[owner].isAllowed[msg.sender] == true */\n    tag_72:\n        /* \"Contracts/SharedWallet.sol\":1271:1397  require(msg.sender == owner || accounts[owner].isAllowed[msg.sender] == true, \"You are not the owner and you are not allowed\") */\n      tag_73\n      jumpi\n      mload(0x40)\n      shl(0xe5, 0x461bcd)\n      dup2\n      mstore\n      0x04\n      add\n      tag_43\n      swap1\n      tag_44\n      jump\t// in\n    tag_73:\n        /* \"Contracts/SharedWallet.sol\":3089:3094  owner */\n      and(sub(shl(0xa0, 0x01), 0x01), sload(0x01))\n        /* \"Contracts/SharedWallet.sol\":3080:3088  accounts */\n      0x00\n        /* \"Contracts/SharedWallet.sol\":3080:3095  accounts[owner] */\n      swap1\n      dup2\n      mstore\n      0x20\n      dup2\n      swap1\n      mstore\n      0x40\n      swap1\n      keccak256\n        /* \"Contracts/SharedWallet.sol\":3080:3106  accounts[owner].totalMoney */\n      sload\n        /* \"Contracts/SharedWallet.sol\":3080:3117  accounts[owner].totalMoney >= amount_ */\n      dup2\n      gt\n      iszero\n        /* \"Contracts/SharedWallet.sol\":3072:3148  require(accounts[owner].totalMoney >= amount_, \"Your balance is not enough\") */\n      tag_76\n      jumpi\n      mload(0x40)\n      shl(0xe5, 0x461bcd)\n      dup2\n      mstore\n        /* \"#utility.yul\":3447:3449   */\n      0x20\n        /* \"Contracts/SharedWallet.sol\":3072:3148  require(accounts[owner].totalMoney >= amount_, \"Your balance is not enough\") */\n      0x04\n      dup3\n      add\n        /* \"#utility.yul\":3429:3450   */\n      mstore\n        /* \"#utility.yul\":3486:3488   */\n      0x1a\n        /* \"#utility.yul\":3466:3484   */\n      0x24\n      dup3\n      add\n        /* \"#utility.yul\":3459:3489   */\n      mstore\n        /* \"#utility.yul\":3525:3553   */\n      0x596f75722062616c616e6365206973206e6f7420656e6f756768000000000000\n        /* \"#utility.yul\":3505:3523   */\n      0x44\n      dup3\n      add\n        /* \"#utility.yul\":3498:3554   */\n      mstore\n        /* \"#utility.yul\":3571:3589   */\n      0x64\n      add\n        /* \"Contracts/SharedWallet.sol\":3072:3148  require(accounts[owner].totalMoney >= amount_, \"Your balance is not enough\") */\n      tag_43\n        /* \"#utility.yul\":3245:3595   */\n      jump\n        /* \"Contracts/SharedWallet.sol\":3072:3148  require(accounts[owner].totalMoney >= amount_, \"Your balance is not enough\") */\n    tag_76:\n        /* \"Contracts/SharedWallet.sol\":3178:3183  owner */\n      and(sub(shl(0xa0, 0x01), 0x01), sload(0x01))\n        /* \"Contracts/SharedWallet.sol\":3169:3177  accounts */\n      0x00\n        /* \"Contracts/SharedWallet.sol\":3169:3184  accounts[owner] */\n      swap1\n      dup2\n      mstore\n      0x20\n      dup2\n      swap1\n      mstore\n      0x40\n      dup2\n      keccak256\n        /* \"Contracts/SharedWallet.sol\":3169:3206  accounts[owner].totalMoney -= amount_ */\n      dup1\n      sload\n        /* \"Contracts/SharedWallet.sol\":3199:3206  amount_ */\n      dup4\n      swap3\n        /* \"Contracts/SharedWallet.sol\":3169:3177  accounts */\n      swap1\n        /* \"Contracts/SharedWallet.sol\":3169:3206  accounts[owner].totalMoney -= amount_ */\n      tag_79\n      swap1\n        /* \"Contracts/SharedWallet.sol\":3199:3206  amount_ */\n      dup5\n      swap1\n        /* \"Contracts/SharedWallet.sol\":3169:3206  accounts[owner].totalMoney -= amount_ */\n      tag_80\n      jump\t// in\n    tag_79:\n      swap1\n      swap2\n      sstore\n      pop\n      pop\n      0x40\n      dup1\n      mload\n      dup1\n      dup3\n      add\n      dup3\n      mstore\n      0x00\n      dup1\n      dup3\n      mstore\n      0x20\n      swap2\n      dup3\n      add\n      dup2\n      swap1\n      mstore\n        /* \"Contracts/SharedWallet.sol\":3274:3311  Transaction(amount_, block.timestamp) */\n      dup3\n      mload\n      dup1\n      dup5\n      add\n      dup5\n      mstore\n      dup5\n      dup2\n      mstore\n        /* \"Contracts/SharedWallet.sol\":3295:3310  block.timestamp */\n      timestamp\n        /* \"Contracts/SharedWallet.sol\":3274:3311  Transaction(amount_, block.timestamp) */\n      dup2\n      dup5\n      add\n      swap1\n      dup2\n      mstore\n        /* \"Contracts/SharedWallet.sol\":3331:3336  owner */\n      0x01\n      dup1\n      sload\n      sub(shl(0xa0, 0x01), 0x01)\n      swap1\n      dup2\n      and\n        /* \"Contracts/SharedWallet.sol\":3322:3337  accounts[owner] */\n      dup6\n      mstore\n      dup5\n      dup7\n      mstore\n      dup7\n      dup6\n      keccak256\n        /* \"Contracts/SharedWallet.sol\":3350:3382  accounts[owner].numOfWithdrawals */\n      0x02\n      dup1\n      dup3\n      add\n      sload\n        /* \"Contracts/SharedWallet.sol\":3322:3383  accounts[owner].withdrawals[accounts[owner].numOfWithdrawals] */\n      dup8\n      mstore\n        /* \"Contracts/SharedWallet.sol\":3322:3349  accounts[owner].withdrawals */\n      0x05\n      swap1\n      swap2\n      add\n        /* \"Contracts/SharedWallet.sol\":3322:3383  accounts[owner].withdrawals[accounts[owner].numOfWithdrawals] */\n      dup8\n      mstore\n      dup8\n      dup7\n      keccak256\n        /* \"Contracts/SharedWallet.sol\":3322:3397  accounts[owner].withdrawals[accounts[owner].numOfWithdrawals] = transaction */\n      dup6\n      mload\n      dup2\n      sstore\n      swap4\n      mload\n      swap4\n      dup4\n      add\n      swap4\n      swap1\n      swap4\n      sstore\n        /* \"Contracts/SharedWallet.sol\":3419:3424  owner */\n      swap1\n      sload\n      and\n        /* \"Contracts/SharedWallet.sol\":3410:3425  accounts[owner] */\n      dup4\n      mstore\n      swap3\n      dup3\n      swap1\n      mstore\n      swap3\n      dup2\n      keccak256\n        /* \"Contracts/SharedWallet.sol\":3410:3442  accounts[owner].numOfWithdrawals */\n      swap1\n      swap2\n      add\n        /* \"Contracts/SharedWallet.sol\":3410:3444  accounts[owner].numOfWithdrawals++ */\n      dup1\n      sload\n      swap2\n      tag_82\n      dup4\n      tag_51\n      jump\t// in\n    tag_82:\n      swap1\n      swap2\n      sstore\n      pop\n      pop\n        /* \"Contracts/SharedWallet.sol\":3457:3478  to_.transfer(amount_) */\n      mload(0x40)\n      sub(shl(0xa0, 0x01), 0x01)\n        /* \"Contracts/SharedWallet.sol\":3457:3469  to_.transfer */\n      dup5\n      and\n      swap1\n        /* \"Contracts/SharedWallet.sol\":3457:3478  to_.transfer(amount_) */\n      dup4\n      iszero\n      0x08fc\n      mul\n      swap1\n        /* \"Contracts/SharedWallet.sol\":3470:3477  amount_ */\n      dup5\n      swap1\n        /* \"Contracts/SharedWallet.sol\":3457:3478  to_.transfer(amount_) */\n      0x00\n      dup2\n      dup2\n      dup2\n        /* \"Contracts/SharedWallet.sol\":3470:3477  amount_ */\n      dup6\n        /* \"Contracts/SharedWallet.sol\":3457:3469  to_.transfer */\n      dup9\n        /* \"Contracts/SharedWallet.sol\":3457:3478  to_.transfer(amount_) */\n      dup9\n      call\n      swap4\n      pop\n      pop\n      pop\n      pop\n      iszero\n      dup1\n      iszero\n      tag_84\n      jumpi\n      returndatasize\n      0x00\n      dup1\n      returndatacopy\n      revert(0x00, returndatasize)\n    tag_84:\n      pop\n      sub(shl(0xa0, 0x01), 0x01)\n        /* \"Contracts/SharedWallet.sol\":3489:3502  accounts[to_] */\n      dup4\n      and\n        /* \"Contracts/SharedWallet.sol\":3489:3497  accounts */\n      0x00\n        /* \"Contracts/SharedWallet.sol\":3489:3502  accounts[to_] */\n      swap1\n      dup2\n      mstore\n      0x20\n      dup2\n      swap1\n      mstore\n      0x40\n      dup2\n      keccak256\n        /* \"Contracts/SharedWallet.sol\":3489:3524  accounts[to_].totalMoney += amount_ */\n      dup1\n      sload\n        /* \"Contracts/SharedWallet.sol\":3517:3524  amount_ */\n      dup5\n      swap3\n        /* \"Contracts/SharedWallet.sol\":3489:3497  accounts */\n      swap1\n        /* \"Contracts/SharedWallet.sol\":3489:3524  accounts[to_].totalMoney += amount_ */\n      tag_85\n      swap1\n        /* \"Contracts/SharedWallet.sol\":3517:3524  amount_ */\n      dup5\n      swap1\n        /* \"Contracts/SharedWallet.sol\":3489:3524  accounts[to_].totalMoney += amount_ */\n      tag_47\n      jump\t// in\n    tag_85:\n      swap1\n      swap2\n      sstore\n      pop\n      pop\n        /* \"Contracts/SharedWallet.sol\":3542:3582  withdrawalSent(msg.sender, to_, amount_) */\n      mload(0x40)\n        /* \"#utility.yul\":1448:1473   */\n      dup3\n      dup2\n      mstore\n      sub(shl(0xa0, 0x01), 0x01)\n        /* \"Contracts/SharedWallet.sol\":3542:3582  withdrawalSent(msg.sender, to_, amount_) */\n      dup5\n      and\n      swap1\n        /* \"Contracts/SharedWallet.sol\":3557:3567  msg.sender */\n      caller\n      swap1\n        /* \"Contracts/SharedWallet.sol\":3542:3582  withdrawalSent(msg.sender, to_, amount_) */\n      0x9afb1a228f187030aa218b66cb89a451fd8d475d506b8e7771f41faf5aeb2976\n      swap1\n        /* \"#utility.yul\":1436:1438   */\n      0x20\n        /* \"#utility.yul\":1421:1439   */\n      add\n        /* \"Contracts/SharedWallet.sol\":3542:3582  withdrawalSent(msg.sender, to_, amount_) */\n      mload(0x40)\n      dup1\n      swap2\n      sub\n      swap1\n      log3\n        /* \"Contracts/SharedWallet.sol\":3061:3590  {... */\n      pop\n        /* \"Contracts/SharedWallet.sol\":2980:3590  function withdrawMoney(address payable to_, uint amount_) public ownerAndAllowed {... */\n      pop\n      pop\n      jump\t// out\n        /* \"#utility.yul\":14:145   */\n    tag_88:\n      sub(shl(0xa0, 0x01), 0x01)\n        /* \"#utility.yul\":89:120   */\n      dup2\n      and\n        /* \"#utility.yul\":79:121   */\n      dup2\n      eq\n        /* \"#utility.yul\":69:139   */\n      tag_92\n      jumpi\n        /* \"#utility.yul\":135:136   */\n      0x00\n        /* \"#utility.yul\":132:133   */\n      dup1\n        /* \"#utility.yul\":125:137   */\n      revert\n        /* \"#utility.yul\":69:139   */\n    tag_92:\n        /* \"#utility.yul\":14:145   */\n      pop\n      jump\t// out\n        /* \"#utility.yul\":150:397   */\n    tag_16:\n        /* \"#utility.yul\":209:215   */\n      0x00\n        /* \"#utility.yul\":262:264   */\n      0x20\n        /* \"#utility.yul\":250:259   */\n      dup3\n        /* \"#utility.yul\":241:248   */\n      dup5\n        /* \"#utility.yul\":237:260   */\n      sub\n        /* \"#utility.yul\":233:265   */\n      slt\n        /* \"#utility.yul\":230:282   */\n      iszero\n      tag_94\n      jumpi\n        /* \"#utility.yul\":278:279   */\n      0x00\n        /* \"#utility.yul\":275:276   */\n      dup1\n        /* \"#utility.yul\":268:280   */\n      revert\n        /* \"#utility.yul\":230:282   */\n    tag_94:\n        /* \"#utility.yul\":317:326   */\n      dup2\n        /* \"#utility.yul\":304:327   */\n      calldataload\n        /* \"#utility.yul\":336:367   */\n      tag_95\n        /* \"#utility.yul\":361:366   */\n      dup2\n        /* \"#utility.yul\":336:367   */\n      tag_88\n      jump\t// in\n    tag_95:\n        /* \"#utility.yul\":386:391   */\n      swap4\n        /* \"#utility.yul\":150:397   */\n      swap3\n      pop\n      pop\n      pop\n      jump\t// out\n        /* \"#utility.yul\":402:628   */\n    tag_21:\n        /* \"#utility.yul\":461:467   */\n      0x00\n        /* \"#utility.yul\":514:516   */\n      0x20\n        /* \"#utility.yul\":502:511   */\n      dup3\n        /* \"#utility.yul\":493:500   */\n      dup5\n        /* \"#utility.yul\":489:512   */\n      sub\n        /* \"#utility.yul\":485:517   */\n      slt\n        /* \"#utility.yul\":482:534   */\n      iszero\n      tag_97\n      jumpi\n        /* \"#utility.yul\":530:531   */\n      0x00\n        /* \"#utility.yul\":527:528   */\n      dup1\n        /* \"#utility.yul\":520:532   */\n      revert\n        /* \"#utility.yul\":482:534   */\n    tag_97:\n      pop\n        /* \"#utility.yul\":575:598   */\n      calldataload\n      swap2\n        /* \"#utility.yul\":402:628   */\n      swap1\n      pop\n      jump\t// out\n        /* \"#utility.yul\":922:1297   */\n    tag_32:\n        /* \"#utility.yul\":998:1004   */\n      0x00\n        /* \"#utility.yul\":1006:1012   */\n      dup1\n        /* \"#utility.yul\":1059:1061   */\n      0x40\n        /* \"#utility.yul\":1047:1056   */\n      dup4\n        /* \"#utility.yul\":1038:1045   */\n      dup6\n        /* \"#utility.yul\":1034:1057   */\n      sub\n        /* \"#utility.yul\":1030:1062   */\n      slt\n        /* \"#utility.yul\":1027:1079   */\n      iszero\n      tag_100\n      jumpi\n        /* \"#utility.yul\":1075:1076   */\n      0x00\n        /* \"#utility.yul\":1072:1073   */\n      dup1\n        /* \"#utility.yul\":1065:1077   */\n      revert\n        /* \"#utility.yul\":1027:1079   */\n    tag_100:\n        /* \"#utility.yul\":1114:1123   */\n      dup3\n        /* \"#utility.yul\":1101:1124   */\n      calldataload\n        /* \"#utility.yul\":1133:1164   */\n      tag_101\n        /* \"#utility.yul\":1158:1163   */\n      dup2\n        /* \"#utility.yul\":1133:1164   */\n      tag_88\n      jump\t// in\n    tag_101:\n        /* \"#utility.yul\":1183:1188   */\n      swap5\n        /* \"#utility.yul\":1261:1263   */\n      0x20\n        /* \"#utility.yul\":1246:1264   */\n      swap4\n      swap1\n      swap4\n      add\n        /* \"#utility.yul\":1233:1265   */\n      calldataload\n      swap4\n      pop\n      pop\n      pop\n        /* \"#utility.yul\":922:1297   */\n      jump\t// out\n        /* \"#utility.yul\":1484:1893   */\n    tag_44:\n        /* \"#utility.yul\":1686:1688   */\n      0x20\n        /* \"#utility.yul\":1668:1689   */\n      dup1\n      dup3\n      mstore\n        /* \"#utility.yul\":1725:1727   */\n      0x2d\n        /* \"#utility.yul\":1705:1723   */\n      swap1\n      dup3\n      add\n        /* \"#utility.yul\":1698:1728   */\n      mstore\n        /* \"#utility.yul\":1764:1798   */\n      0x596f7520617265206e6f7420746865206f776e657220616e6420796f75206172\n        /* \"#utility.yul\":1759:1761   */\n      0x40\n        /* \"#utility.yul\":1744:1762   */\n      dup3\n      add\n        /* \"#utility.yul\":1737:1799   */\n      mstore\n      shl(0x9a, 0x19481b9bdd08185b1b1bddd959)\n        /* \"#utility.yul\":1830:1832   */\n      0x60\n        /* \"#utility.yul\":1815:1833   */\n      dup3\n      add\n        /* \"#utility.yul\":1808:1851   */\n      mstore\n        /* \"#utility.yul\":1883:1886   */\n      0x80\n        /* \"#utility.yul\":1868:1887   */\n      add\n      swap1\n        /* \"#utility.yul\":1484:1893   */\n      jump\t// out\n        /* \"#utility.yul\":1898:2025   */\n    tag_89:\n        /* \"#utility.yul\":1959:1969   */\n      0x4e487b71\n        /* \"#utility.yul\":1954:1957   */\n      0xe0\n        /* \"#utility.yul\":1950:1970   */\n      shl\n        /* \"#utility.yul\":1947:1948   */\n      0x00\n        /* \"#utility.yul\":1940:1971   */\n      mstore\n        /* \"#utility.yul\":1990:1994   */\n      0x11\n        /* \"#utility.yul\":1987:1988   */\n      0x04\n        /* \"#utility.yul\":1980:1995   */\n      mstore\n        /* \"#utility.yul\":2014:2018   */\n      0x24\n        /* \"#utility.yul\":2011:2012   */\n      0x00\n        /* \"#utility.yul\":2004:2019   */\n      revert\n        /* \"#utility.yul\":2030:2155   */\n    tag_47:\n        /* \"#utility.yul\":2095:2104   */\n      dup1\n      dup3\n      add\n        /* \"#utility.yul\":2116:2126   */\n      dup1\n      dup3\n      gt\n        /* \"#utility.yul\":2113:2149   */\n      iszero\n      tag_107\n      jumpi\n        /* \"#utility.yul\":2129:2147   */\n      tag_107\n      tag_89\n      jump\t// in\n    tag_107:\n        /* \"#utility.yul\":2030:2155   */\n      swap3\n      swap2\n      pop\n      pop\n      jump\t// out\n        /* \"#utility.yul\":2160:2295   */\n    tag_51:\n        /* \"#utility.yul\":2199:2202   */\n      0x00\n        /* \"#utility.yul\":2220:2237   */\n      0x01\n      dup3\n      add\n        /* \"#utility.yul\":2217:2260   */\n      tag_110\n      jumpi\n        /* \"#utility.yul\":2240:2258   */\n      tag_110\n      tag_89\n      jump\t// in\n    tag_110:\n      pop\n        /* \"#utility.yul\":2287:2288   */\n      0x01\n        /* \"#utility.yul\":2276:2289   */\n      add\n      swap1\n        /* \"#utility.yul\":2160:2295   */\n      jump\t// out\n        /* \"#utility.yul\":3600:3728   */\n    tag_80:\n        /* \"#utility.yul\":3667:3676   */\n      dup2\n      dup2\n      sub\n        /* \"#utility.yul\":3688:3699   */\n      dup2\n      dup2\n      gt\n        /* \"#utility.yul\":3685:3722   */\n      iszero\n      tag_107\n      jumpi\n        /* \"#utility.yul\":3702:3720   */\n      tag_107\n      tag_89\n      jump\t// in\n\n    auxdata: 0xa26469706673582212207a94822f7c7ef52bb82b368f6d9b70cc532cbffe3ad51c4b88e2603e4bd8620b64736f6c634300081a0033\n}\n",
				"bytecode": {
					"linkReferences": {},
					"object": "6080604052348015600e575f80fd5b50600180546001600160a01b031916331790556108b78061002e5f395ff3fe608060405260043610610057575f3560e01c806316c05aa214610062578063360470151461006c57806341ac7eb81461008b578063c0e79a111461010b578063f274c8971461012a578063f8b2cb4f14610149575f80fd5b3661005e57005b5f80fd5b61006a61018b565b005b348015610077575f80fd5b5061006a610086366004610779565b6102d5565b348015610096575f80fd5b506100e76100a536600461079b565b6001546001600160a01b039081165f9081526020818152604080832094835260068501825280832054909316808352600790940190522054909160ff90911690565b604080516001600160a01b0390931683529015156020830152015b60405180910390f35b348015610116575f80fd5b5061006a610125366004610779565b61042a565b348015610135575f80fd5b5061006a6101443660046107b2565b61054c565b348015610154575f80fd5b5061017d610163366004610779565b6001600160a01b03165f9081526020819052604090205490565b604051908152602001610102565b6001546001600160a01b03163314806101cd5750600180546001600160a01b03165f9081526020818152604080832033845260070190915290205460ff161515145b6101f25760405162461bcd60e51b81526004016101e9906107dc565b60405180910390fd5b6001546001600160a01b03165f9081526020819052604081208054349283929161021d90849061083d565b90915550506040805180820182525f80825260209182018190528251808401845284815242818401908152600180546001600160a01b039081168552848652868520808301548652600401865286852084518155925192820192909255805490911683529282905292812090910180549161029783610856565b909155505060405134815233907fa6c464a951f5ad7a3adebbc18d08d7227b11ec77ef056ce49dc6e6e2bc0affea9060200160405180910390a25050565b6001546001600160a01b03163314806103175750600180546001600160a01b03165f9081526020818152604080832033845260070190915290205460ff161515145b6103335760405162461bcd60e51b81526004016101e9906107dc565b600180546001600160a01b039081165f90815260208181526040808320938616835260079093019052205460ff161515146103bb5760405162461bcd60e51b815260206004820152602260248201527f5468697320706572736f6e20697320616c7265616479206e6f7420616c6c6f77604482015261195960f21b60648201526084016101e9565b600180546001600160a01b039081165f9081526020818152604080832086851680855260079091018352818420805460ff1916905594549051928352909216917f28907a532a4b0d537e93c1aef854e813c1a42238572b07edc1b34c3f80e5a46b91015b60405180910390a350565b6001546001600160a01b0316331461047c5760405162461bcd60e51b81526020600482015260156024820152742cb7ba9030b932903737ba103a34329037bbb732b960591b60448201526064016101e9565b600180546001600160a01b039081165f9081526020818152604080832060038082015485526006909101835281842080546001600160a01b031916888716179055945490931682528190529081209091018054916104d983610856565b9091555050600180546001600160a01b039081165f908152602081815260408083208685168085526007909101835292819020805460ff19168617905584549051948552919391909216917f28907a532a4b0d537e93c1aef854e813c1a42238572b07edc1b34c3f80e5a46b910161041f565b6001546001600160a01b031633148061058e5750600180546001600160a01b03165f9081526020818152604080832033845260070190915290205460ff161515145b6105aa5760405162461bcd60e51b81526004016101e9906107dc565b6001546001600160a01b03165f908152602081905260409020548111156106135760405162461bcd60e51b815260206004820152601a60248201527f596f75722062616c616e6365206973206e6f7420656e6f75676800000000000060448201526064016101e9565b6001546001600160a01b03165f908152602081905260408120805483929061063c90849061086e565b90915550506040805180820182525f80825260209182018190528251808401845284815242818401908152600180546001600160a01b039081168552848652868520600280820154875260059091018752878620855181559351938301939093559054168352928290529281209091018054916106b883610856565b90915550506040516001600160a01b0384169083156108fc029084905f818181858888f193505050501580156106f0573d5f803e3d5ffd5b506001600160a01b0383165f908152602081905260408120805484929061071890849061083d565b90915550506040518281526001600160a01b0384169033907f9afb1a228f187030aa218b66cb89a451fd8d475d506b8e7771f41faf5aeb29769060200160405180910390a3505050565b6001600160a01b0381168114610776575f80fd5b50565b5f60208284031215610789575f80fd5b813561079481610762565b9392505050565b5f602082840312156107ab575f80fd5b5035919050565b5f80604083850312156107c3575f80fd5b82356107ce81610762565b946020939093013593505050565b6020808252602d908201527f596f7520617265206e6f7420746865206f776e657220616e6420796f7520617260408201526c19481b9bdd08185b1b1bddd959609a1b606082015260800190565b634e487b7160e01b5f52601160045260245ffd5b8082018082111561085057610850610829565b92915050565b5f6001820161086757610867610829565b5060010190565b818103818111156108505761085061082956fea26469706673582212207a94822f7c7ef52bb82b368f6d9b70cc532cbffe3ad51c4b88e2603e4bd8620b64736f6c634300081a0033",
					"opcodes": "PUSH1 0x80 PUSH1 0x40 MSTORE CALLVALUE DUP1 ISZERO PUSH1 0xE JUMPI PUSH0 DUP1 REVERT JUMPDEST POP PUSH1 0x1 DUP1 SLOAD PUSH1 0x1 PUSH1 0x1 PUSH1 0xA0 SHL SUB NOT AND CALLER OR SWAP1 SSTORE PUSH2 0x8B7 DUP1 PUSH2 0x2E PUSH0 CODECOPY PUSH0 RETURN INVALID PUSH1 0x80 PUSH1 0x40 MSTORE PUSH1 0x4 CALLDATASIZE LT PUSH2 0x57 JUMPI PUSH0 CALLDATALOAD PUSH1 0xE0 SHR DUP1 PUSH4 0x16C05AA2 EQ PUSH2 0x62 JUMPI DUP1 PUSH4 0x36047015 EQ PUSH2 0x6C JUMPI DUP1 PUSH4 0x41AC7EB8 EQ PUSH2 0x8B JUMPI DUP1 PUSH4 0xC0E79A11 EQ PUSH2 0x10B JUMPI DUP1 PUSH4 0xF274C897 EQ PUSH2 0x12A JUMPI DUP1 PUSH4 0xF8B2CB4F EQ PUSH2 0x149 JUMPI PUSH0 DUP1 REVERT JUMPDEST CALLDATASIZE PUSH2 0x5E JUMPI STOP JUMPDEST PUSH0 DUP1 REVERT JUMPDEST PUSH2 0x6A PUSH2 0x18B JUMP JUMPDEST STOP JUMPDEST CALLVALUE DUP1 ISZERO PUSH2 0x77 JUMPI PUSH0 DUP1 REVERT JUMPDEST POP PUSH2 0x6A PUSH2 0x86 CALLDATASIZE PUSH1 0x4 PUSH2 0x779 JUMP JUMPDEST PUSH2 0x2D5 JUMP JUMPDEST CALLVALUE DUP1 ISZERO PUSH2 0x96 JUMPI PUSH0 DUP1 REVERT JUMPDEST POP PUSH2 0xE7 PUSH2 0xA5 CALLDATASIZE PUSH1 0x4 PUSH2 0x79B JUMP JUMPDEST PUSH1 0x1 SLOAD PUSH1 0x1 PUSH1 0x1 PUSH1 0xA0 SHL SUB SWAP1 DUP2 AND PUSH0 SWAP1 DUP2 MSTORE PUSH1 0x20 DUP2 DUP2 MSTORE PUSH1 0x40 DUP1 DUP4 KECCAK256 SWAP5 DUP4 MSTORE PUSH1 0x6 DUP6 ADD DUP3 MSTORE DUP1 DUP4 KECCAK256 SLOAD SWAP1 SWAP4 AND DUP1 DUP4 MSTORE PUSH1 0x7 SWAP1 SWAP5 ADD SWAP1 MSTORE KECCAK256 SLOAD SWAP1 SWAP2 PUSH1 0xFF SWAP1 SWAP2 AND SWAP1 JUMP JUMPDEST PUSH1 0x40 DUP1 MLOAD PUSH1 0x1 PUSH1 0x1 PUSH1 0xA0 SHL SUB SWAP1 SWAP4 AND DUP4 MSTORE SWAP1 ISZERO ISZERO PUSH1 0x20 DUP4 ADD MSTORE ADD JUMPDEST PUSH1 0x40 MLOAD DUP1 SWAP2 SUB SWAP1 RETURN JUMPDEST CALLVALUE DUP1 ISZERO PUSH2 0x116 JUMPI PUSH0 DUP1 REVERT JUMPDEST POP PUSH2 0x6A PUSH2 0x125 CALLDATASIZE PUSH1 0x4 PUSH2 0x779 JUMP JUMPDEST PUSH2 0x42A JUMP JUMPDEST CALLVALUE DUP1 ISZERO PUSH2 0x135 JUMPI PUSH0 DUP1 REVERT JUMPDEST POP PUSH2 0x6A PUSH2 0x144 CALLDATASIZE PUSH1 0x4 PUSH2 0x7B2 JUMP JUMPDEST PUSH2 0x54C JUMP JUMPDEST CALLVALUE DUP1 ISZERO PUSH2 0x154 JUMPI PUSH0 DUP1 REVERT JUMPDEST POP PUSH2 0x17D PUSH2 0x163 CALLDATASIZE PUSH1 0x4 PUSH2 0x779 JUMP JUMPDEST PUSH1 0x1 PUSH1 0x1 PUSH1 0xA0 SHL SUB AND PUSH0 SWAP1 DUP2 MSTORE PUSH1 0x20 DUP2 SWAP1 MSTORE PUSH1 0x40 SWAP1 KECCAK256 SLOAD SWAP1 JUMP JUMPDEST PUSH1 0x40 MLOAD SWAP1 DUP2 MSTORE PUSH1 0x20 ADD PUSH2 0x102 JUMP JUMPDEST PUSH1 0x1 SLOAD PUSH1 0x1 PUSH1 0x1 PUSH1 0xA0 SHL SUB AND CALLER EQ DUP1 PUSH2 0x1CD JUMPI POP PUSH1 0x1 DUP1 SLOAD PUSH1 0x1 PUSH1 0x1 PUSH1 0xA0 SHL SUB AND PUSH0 SWAP1 DUP2 MSTORE PUSH1 0x20 DUP2 DUP2 MSTORE PUSH1 0x40 DUP1 DUP4 KECCAK256 CALLER DUP5 MSTORE PUSH1 0x7 ADD SWAP1 SWAP2 MSTORE SWAP1 KECCAK256 SLOAD PUSH1 0xFF AND ISZERO ISZERO EQ JUMPDEST PUSH2 0x1F2 JUMPI PUSH1 0x40 MLOAD PUSH3 0x461BCD PUSH1 0xE5 SHL DUP2 MSTORE PUSH1 0x4 ADD PUSH2 0x1E9 SWAP1 PUSH2 0x7DC JUMP JUMPDEST PUSH1 0x40 MLOAD DUP1 SWAP2 SUB SWAP1 REVERT JUMPDEST PUSH1 0x1 SLOAD PUSH1 0x1 PUSH1 0x1 PUSH1 0xA0 SHL SUB AND PUSH0 SWAP1 DUP2 MSTORE PUSH1 0x20 DUP2 SWAP1 MSTORE PUSH1 0x40 DUP2 KECCAK256 DUP1 SLOAD CALLVALUE SWAP3 DUP4 SWAP3 SWAP2 PUSH2 0x21D SWAP1 DUP5 SWAP1 PUSH2 0x83D JUMP JUMPDEST SWAP1 SWAP2 SSTORE POP POP PUSH1 0x40 DUP1 MLOAD DUP1 DUP3 ADD DUP3 MSTORE PUSH0 DUP1 DUP3 MSTORE PUSH1 0x20 SWAP2 DUP3 ADD DUP2 SWAP1 MSTORE DUP3 MLOAD DUP1 DUP5 ADD DUP5 MSTORE DUP5 DUP2 MSTORE TIMESTAMP DUP2 DUP5 ADD SWAP1 DUP2 MSTORE PUSH1 0x1 DUP1 SLOAD PUSH1 0x1 PUSH1 0x1 PUSH1 0xA0 SHL SUB SWAP1 DUP2 AND DUP6 MSTORE DUP5 DUP7 MSTORE DUP7 DUP6 KECCAK256 DUP1 DUP4 ADD SLOAD DUP7 MSTORE PUSH1 0x4 ADD DUP7 MSTORE DUP7 DUP6 KECCAK256 DUP5 MLOAD DUP2 SSTORE SWAP3 MLOAD SWAP3 DUP3 ADD SWAP3 SWAP1 SWAP3 SSTORE DUP1 SLOAD SWAP1 SWAP2 AND DUP4 MSTORE SWAP3 DUP3 SWAP1 MSTORE SWAP3 DUP2 KECCAK256 SWAP1 SWAP2 ADD DUP1 SLOAD SWAP2 PUSH2 0x297 DUP4 PUSH2 0x856 JUMP JUMPDEST SWAP1 SWAP2 SSTORE POP POP PUSH1 0x40 MLOAD CALLVALUE DUP2 MSTORE CALLER SWAP1 PUSH32 0xA6C464A951F5AD7A3ADEBBC18D08D7227B11EC77EF056CE49DC6E6E2BC0AFFEA SWAP1 PUSH1 0x20 ADD PUSH1 0x40 MLOAD DUP1 SWAP2 SUB SWAP1 LOG2 POP POP JUMP JUMPDEST PUSH1 0x1 SLOAD PUSH1 0x1 PUSH1 0x1 PUSH1 0xA0 SHL SUB AND CALLER EQ DUP1 PUSH2 0x317 JUMPI POP PUSH1 0x1 DUP1 SLOAD PUSH1 0x1 PUSH1 0x1 PUSH1 0xA0 SHL SUB AND PUSH0 SWAP1 DUP2 MSTORE PUSH1 0x20 DUP2 DUP2 MSTORE PUSH1 0x40 DUP1 DUP4 KECCAK256 CALLER DUP5 MSTORE PUSH1 0x7 ADD SWAP1 SWAP2 MSTORE SWAP1 KECCAK256 SLOAD PUSH1 0xFF AND ISZERO ISZERO EQ JUMPDEST PUSH2 0x333 JUMPI PUSH1 0x40 MLOAD PUSH3 0x461BCD PUSH1 0xE5 SHL DUP2 MSTORE PUSH1 0x4 ADD PUSH2 0x1E9 SWAP1 PUSH2 0x7DC JUMP JUMPDEST PUSH1 0x1 DUP1 SLOAD PUSH1 0x1 PUSH1 0x1 PUSH1 0xA0 SHL SUB SWAP1 DUP2 AND PUSH0 SWAP1 DUP2 MSTORE PUSH1 0x20 DUP2 DUP2 MSTORE PUSH1 0x40 DUP1 DUP4 KECCAK256 SWAP4 DUP7 AND DUP4 MSTORE PUSH1 0x7 SWAP1 SWAP4 ADD SWAP1 MSTORE KECCAK256 SLOAD PUSH1 0xFF AND ISZERO ISZERO EQ PUSH2 0x3BB JUMPI PUSH1 0x40 MLOAD PUSH3 0x461BCD PUSH1 0xE5 SHL DUP2 MSTORE PUSH1 0x20 PUSH1 0x4 DUP3 ADD MSTORE PUSH1 0x22 PUSH1 0x24 DUP3 ADD MSTORE PUSH32 0x5468697320706572736F6E20697320616C7265616479206E6F7420616C6C6F77 PUSH1 0x44 DUP3 ADD MSTORE PUSH2 0x1959 PUSH1 0xF2 SHL PUSH1 0x64 DUP3 ADD MSTORE PUSH1 0x84 ADD PUSH2 0x1E9 JUMP JUMPDEST PUSH1 0x1 DUP1 SLOAD PUSH1 0x1 PUSH1 0x1 PUSH1 0xA0 SHL SUB SWAP1 DUP2 AND PUSH0 SWAP1 DUP2 MSTORE PUSH1 0x20 DUP2 DUP2 MSTORE PUSH1 0x40 DUP1 DUP4 KECCAK256 DUP7 DUP6 AND DUP1 DUP6 MSTORE PUSH1 0x7 SWAP1 SWAP2 ADD DUP4 MSTORE DUP2 DUP5 KECCAK256 DUP1 SLOAD PUSH1 0xFF NOT AND SWAP1 SSTORE SWAP5 SLOAD SWAP1 MLOAD SWAP3 DUP4 MSTORE SWAP1 SWAP3 AND SWAP2 PUSH32 0x28907A532A4B0D537E93C1AEF854E813C1A42238572B07EDC1B34C3F80E5A46B SWAP2 ADD JUMPDEST PUSH1 0x40 MLOAD DUP1 SWAP2 SUB SWAP1 LOG3 POP JUMP JUMPDEST PUSH1 0x1 SLOAD PUSH1 0x1 PUSH1 0x1 PUSH1 0xA0 SHL SUB AND CALLER EQ PUSH2 0x47C JUMPI PUSH1 0x40 MLOAD PUSH3 0x461BCD PUSH1 0xE5 SHL DUP2 MSTORE PUSH1 0x20 PUSH1 0x4 DUP3 ADD MSTORE PUSH1 0x15 PUSH1 0x24 DUP3 ADD MSTORE PUSH21 0x2CB7BA9030B932903737BA103A34329037BBB732B9 PUSH1 0x59 SHL PUSH1 0x44 DUP3 ADD MSTORE PUSH1 0x64 ADD PUSH2 0x1E9 JUMP JUMPDEST PUSH1 0x1 DUP1 SLOAD PUSH1 0x1 PUSH1 0x1 PUSH1 0xA0 SHL SUB SWAP1 DUP2 AND PUSH0 SWAP1 DUP2 MSTORE PUSH1 0x20 DUP2 DUP2 MSTORE PUSH1 0x40 DUP1 DUP4 KECCAK256 PUSH1 0x3 DUP1 DUP3 ADD SLOAD DUP6 MSTORE PUSH1 0x6 SWAP1 SWAP2 ADD DUP4 MSTORE DUP2 DUP5 KECCAK256 DUP1 SLOAD PUSH1 0x1 PUSH1 0x1 PUSH1 0xA0 SHL SUB NOT AND DUP9 DUP8 AND OR SWAP1 SSTORE SWAP5 SLOAD SWAP1 SWAP4 AND DUP3 MSTORE DUP2 SWAP1 MSTORE SWAP1 DUP2 KECCAK256 SWAP1 SWAP2 ADD DUP1 SLOAD SWAP2 PUSH2 0x4D9 DUP4 PUSH2 0x856 JUMP JUMPDEST SWAP1 SWAP2 SSTORE POP POP PUSH1 0x1 DUP1 SLOAD PUSH1 0x1 PUSH1 0x1 PUSH1 0xA0 SHL SUB SWAP1 DUP2 AND PUSH0 SWAP1 DUP2 MSTORE PUSH1 0x20 DUP2 DUP2 MSTORE PUSH1 0x40 DUP1 DUP4 KECCAK256 DUP7 DUP6 AND DUP1 DUP6 MSTORE PUSH1 0x7 SWAP1 SWAP2 ADD DUP4 MSTORE SWAP3 DUP2 SWAP1 KECCAK256 DUP1 SLOAD PUSH1 0xFF NOT AND DUP7 OR SWAP1 SSTORE DUP5 SLOAD SWAP1 MLOAD SWAP5 DUP6 MSTORE SWAP2 SWAP4 SWAP2 SWAP1 SWAP3 AND SWAP2 PUSH32 0x28907A532A4B0D537E93C1AEF854E813C1A42238572B07EDC1B34C3F80E5A46B SWAP2 ADD PUSH2 0x41F JUMP JUMPDEST PUSH1 0x1 SLOAD PUSH1 0x1 PUSH1 0x1 PUSH1 0xA0 SHL SUB AND CALLER EQ DUP1 PUSH2 0x58E JUMPI POP PUSH1 0x1 DUP1 SLOAD PUSH1 0x1 PUSH1 0x1 PUSH1 0xA0 SHL SUB AND PUSH0 SWAP1 DUP2 MSTORE PUSH1 0x20 DUP2 DUP2 MSTORE PUSH1 0x40 DUP1 DUP4 KECCAK256 CALLER DUP5 MSTORE PUSH1 0x7 ADD SWAP1 SWAP2 MSTORE SWAP1 KECCAK256 SLOAD PUSH1 0xFF AND ISZERO ISZERO EQ JUMPDEST PUSH2 0x5AA JUMPI PUSH1 0x40 MLOAD PUSH3 0x461BCD PUSH1 0xE5 SHL DUP2 MSTORE PUSH1 0x4 ADD PUSH2 0x1E9 SWAP1 PUSH2 0x7DC JUMP JUMPDEST PUSH1 0x1 SLOAD PUSH1 0x1 PUSH1 0x1 PUSH1 0xA0 SHL SUB AND PUSH0 SWAP1 DUP2 MSTORE PUSH1 0x20 DUP2 SWAP1 MSTORE PUSH1 0x40 SWAP1 KECCAK256 SLOAD DUP2 GT ISZERO PUSH2 0x613 JUMPI PUSH1 0x40 MLOAD PUSH3 0x461BCD PUSH1 0xE5 SHL DUP2 MSTORE PUSH1 0x20 PUSH1 0x4 DUP3 ADD MSTORE PUSH1 0x1A PUSH1 0x24 DUP3 ADD MSTORE PUSH32 0x596F75722062616C616E6365206973206E6F7420656E6F756768000000000000 PUSH1 0x44 DUP3 ADD MSTORE PUSH1 0x64 ADD PUSH2 0x1E9 JUMP JUMPDEST PUSH1 0x1 SLOAD PUSH1 0x1 PUSH1 0x1 PUSH1 0xA0 SHL SUB AND PUSH0 SWAP1 DUP2 MSTORE PUSH1 0x20 DUP2 SWAP1 MSTORE PUSH1 0x40 DUP2 KECCAK256 DUP1 SLOAD DUP4 SWAP3 SWAP1 PUSH2 0x63C SWAP1 DUP5 SWAP1 PUSH2 0x86E JUMP JUMPDEST SWAP1 SWAP2 SSTORE POP POP PUSH1 0x40 DUP1 MLOAD DUP1 DUP3 ADD DUP3 MSTORE PUSH0 DUP1 DUP3 MSTORE PUSH1 0x20 SWAP2 DUP3 ADD DUP2 SWAP1 MSTORE DUP3 MLOAD DUP1 DUP5 ADD DUP5 MSTORE DUP5 DUP2 MSTORE TIMESTAMP DUP2 DUP5 ADD SWAP1 DUP2 MSTORE PUSH1 0x1 DUP1 SLOAD PUSH1 0x1 PUSH1 0x1 PUSH1 0xA0 SHL SUB SWAP1 DUP2 AND DUP6 MSTORE DUP5 DUP7 MSTORE DUP7 DUP6 KECCAK256 PUSH1 0x2 DUP1 DUP3 ADD SLOAD DUP8 MSTORE PUSH1 0x5 SWAP1 SWAP2 ADD DUP8 MSTORE DUP8 DUP7 KECCAK256 DUP6 MLOAD DUP2 SSTORE SWAP4 MLOAD SWAP4 DUP4 ADD SWAP4 SWAP1 SWAP4 SSTORE SWAP1 SLOAD AND DUP4 MSTORE SWAP3 DUP3 SWAP1 MSTORE SWAP3 DUP2 KECCAK256 SWAP1 SWAP2 ADD DUP1 SLOAD SWAP2 PUSH2 0x6B8 DUP4 PUSH2 0x856 JUMP JUMPDEST SWAP1 SWAP2 SSTORE POP POP PUSH1 0x40 MLOAD PUSH1 0x1 PUSH1 0x1 PUSH1 0xA0 SHL SUB DUP5 AND SWAP1 DUP4 ISZERO PUSH2 0x8FC MUL SWAP1 DUP5 SWAP1 PUSH0 DUP2 DUP2 DUP2 DUP6 DUP9 DUP9 CALL SWAP4 POP POP POP POP ISZERO DUP1 ISZERO PUSH2 0x6F0 JUMPI RETURNDATASIZE PUSH0 DUP1 RETURNDATACOPY RETURNDATASIZE PUSH0 REVERT JUMPDEST POP PUSH1 0x1 PUSH1 0x1 PUSH1 0xA0 SHL SUB DUP4 AND PUSH0 SWAP1 DUP2 MSTORE PUSH1 0x20 DUP2 SWAP1 MSTORE PUSH1 0x40 DUP2 KECCAK256 DUP1 SLOAD DUP5 SWAP3 SWAP1 PUSH2 0x718 SWAP1 DUP5 SWAP1 PUSH2 0x83D JUMP JUMPDEST SWAP1 SWAP2 SSTORE POP POP PUSH1 0x40 MLOAD DUP3 DUP2 MSTORE PUSH1 0x1 PUSH1 0x1 PUSH1 0xA0 SHL SUB DUP5 AND SWAP1 CALLER SWAP1 PUSH32 0x9AFB1A228F187030AA218B66CB89A451FD8D475D506B8E7771F41FAF5AEB2976 SWAP1 PUSH1 0x20 ADD PUSH1 0x40 MLOAD DUP1 SWAP2 SUB SWAP1 LOG3 POP POP POP JUMP JUMPDEST PUSH1 0x1 PUSH1 0x1 PUSH1 0xA0 SHL SUB DUP2 AND DUP2 EQ PUSH2 0x776 JUMPI PUSH0 DUP1 REVERT JUMPDEST POP JUMP JUMPDEST PUSH0 PUSH1 0x20 DUP3 DUP5 SUB SLT ISZERO PUSH2 0x789 JUMPI PUSH0 DUP1 REVERT JUMPDEST DUP2 CALLDATALOAD PUSH2 0x794 DUP2 PUSH2 0x762 JUMP JUMPDEST SWAP4 SWAP3 POP POP POP JUMP JUMPDEST PUSH0 PUSH1 0x20 DUP3 DUP5 SUB SLT ISZERO PUSH2 0x7AB JUMPI PUSH0 DUP1 REVERT JUMPDEST POP CALLDATALOAD SWAP2 SWAP1 POP JUMP JUMPDEST PUSH0 DUP1 PUSH1 0x40 DUP4 DUP6 SUB SLT ISZERO PUSH2 0x7C3 JUMPI PUSH0 DUP1 REVERT JUMPDEST DUP3 CALLDATALOAD PUSH2 0x7CE DUP2 PUSH2 0x762 JUMP JUMPDEST SWAP5 PUSH1 0x20 SWAP4 SWAP1 SWAP4 ADD CALLDATALOAD SWAP4 POP POP POP JUMP JUMPDEST PUSH1 0x20 DUP1 DUP3 MSTORE PUSH1 0x2D SWAP1 DUP3 ADD MSTORE PUSH32 0x596F7520617265206E6F7420746865206F776E657220616E6420796F75206172 PUSH1 0x40 DUP3 ADD MSTORE PUSH13 0x19481B9BDD08185B1B1BDDD959 PUSH1 0x9A SHL PUSH1 0x60 DUP3 ADD MSTORE PUSH1 0x80 ADD SWAP1 JUMP JUMPDEST PUSH4 0x4E487B71 PUSH1 0xE0 SHL PUSH0 MSTORE PUSH1 0x11 PUSH1 0x4 MSTORE PUSH1 0x24 PUSH0 REVERT JUMPDEST DUP1 DUP3 ADD DUP1 DUP3 GT ISZERO PUSH2 0x850 JUMPI PUSH2 0x850 PUSH2 0x829 JUMP JUMPDEST SWAP3 SWAP2 POP POP JUMP JUMPDEST PUSH0 PUSH1 0x1 DUP3 ADD PUSH2 0x867 JUMPI PUSH2 0x867 PUSH2 0x829 JUMP JUMPDEST POP PUSH1 0x1 ADD SWAP1 JUMP JUMPDEST DUP2 DUP2 SUB DUP2 DUP2 GT ISZERO PUSH2 0x850 JUMPI PUSH2 0x850 PUSH2 0x829 JUMP INVALID LOG2 PUSH5 0x6970667358 0x22 SLT KECCAK256 PUSH27 0x94822F7C7EF52BB82B368F6D9B70CC532CBFFE3AD51C4B88E2603E 0x4B 0xD8 PUSH3 0xB6473 PUSH16 0x6C634300081A00330000000000000000 "
				},
				"gasEstimates": {
					"creation": {
						"codeDepositCost": "446200",
						"executionCost": "24713",
						"totalCost": "470913"
					},
					"external": {
						"checkAlloweds(uint256)": "6892",
						"depositMoney()": "109759",
						"getBalance(address)": "2619",
						"setAllowed(address)": "88022",
						"setNotAllowed(address)": "41667",
						"withdrawMoney(address,uint256)": "infinite"
					}
				},
				"methodIdentifiers": {
					"checkAlloweds(uint256)": "41ac7eb8",
					"depositMoney()": "16c05aa2",
					"getBalance(address)": "f8b2cb4f",
					"setAllowed(address)": "c0e79a11",
					"setNotAllowed(address)": "36047015",
					"withdrawMoney(address,uint256)": "f274c897"
				}
			},
			"storageLayout": {
				"storage": [
					{
						"astId": 60,
						"contract": "Contracts/SharedWallet.sol:SharedWallet",
						"label": "accounts",
						"offset": 0,
						"slot": "0",
						"type": "t_mapping(t_address,t_struct(Account)55_storage)"
					},
					{
						"astId": 62,
						"contract": "Contracts/SharedWallet.sol:SharedWallet",
						"label": "owner",
						"offset": 0,
						"slot": "1",
						"type": "t_address"
					}
				],
				"types": {
					"t_address": {
						"encoding": "inplace",
						"label": "address",
						"numberOfBytes": "20"
					},
					"t_bool": {
						"encoding": "inplace",
						"label": "bool",
						"numberOfBytes": "1"
					},
					"t_mapping(t_address,t_bool)": {
						"encoding": "mapping",
						"key": "t_address",
						"label": "mapping(address => bool)",
						"numberOfBytes": "32",
						"value": "t_bool"
					},
					"t_mapping(t_address,t_struct(Account)55_storage)": {
						"encoding": "mapping",
						"key": "t_address",
						"label": "mapping(address => struct SharedWallet.Account)",
						"numberOfBytes": "32",
						"value": "t_struct(Account)55_storage"
					},
					"t_mapping(t_uint256,t_address)": {
						"encoding": "mapping",
						"key": "t_uint256",
						"label": "mapping(uint256 => address)",
						"numberOfBytes": "32",
						"value": "t_address"
					},
					"t_mapping(t_uint256,t_struct(Transaction)28_storage)": {
						"encoding": "mapping",
						"key": "t_uint256",
						"label": "mapping(uint256 => struct SharedWallet.Transaction)",
						"numberOfBytes": "32",
						"value": "t_struct(Transaction)28_storage"
					},
					"t_struct(Account)55_storage": {
						"encoding": "inplace",
						"label": "struct SharedWallet.Account",
						"members": [
							{
								"astId": 30,
								"contract": "Contracts/SharedWallet.sol:SharedWallet",
								"label": "totalMoney",
								"offset": 0,
								"slot": "0",
								"type": "t_uint256"
							},
							{
								"astId": 32,
								"contract": "Contracts/SharedWallet.sol:SharedWallet",
								"label": "numOfDeposits",
								"offset": 0,
								"slot": "1",
								"type": "t_uint256"
							},
							{
								"astId": 34,
								"contract": "Contracts/SharedWallet.sol:SharedWallet",
								"label": "numOfWithdrawals",
								"offset": 0,
								"slot": "2",
								"type": "t_uint256"
							},
							{
								"astId": 36,
								"contract": "Contracts/SharedWallet.sol:SharedWallet",
								"label": "numPeopleAllowed",
								"offset": 0,
								"slot": "3",
								"type": "t_uint256"
							},
							{
								"astId": 41,
								"contract": "Contracts/SharedWallet.sol:SharedWallet",
								"label": "deposits",
								"offset": 0,
								"slot": "4",
								"type": "t_mapping(t_uint256,t_struct(Transaction)28_storage)"
							},
							{
								"astId": 46,
								"contract": "Contracts/SharedWallet.sol:SharedWallet",
								"label": "withdrawals",
								"offset": 0,
								"slot": "5",
								"type": "t_mapping(t_uint256,t_struct(Transaction)28_storage)"
							},
							{
								"astId": 50,
								"contract": "Contracts/SharedWallet.sol:SharedWallet",
								"label": "peopleAllowed",
								"offset": 0,
								"slot": "6",
								"type": "t_mapping(t_uint256,t_address)"
							},
							{
								"astId": 54,
								"contract": "Contracts/SharedWallet.sol:SharedWallet",
								"label": "isAllowed",
								"offset": 0,
								"slot": "7",
								"type": "t_mapping(t_address,t_bool)"
							}
						],
						"numberOfBytes": "256"
					},
					"t_struct(Transaction)28_storage": {
						"encoding": "inplace",
						"label": "struct SharedWallet.Transaction",
						"members": [
							{
								"astId": 25,
								"contract": "Contracts/SharedWallet.sol:SharedWallet",
								"label": "amount",
								"offset": 0,
								"slot": "0",
								"type": "t_uint256"
							},
							{
								"astId": 27,
								"contract": "Contracts/SharedWallet.sol:SharedWallet",
								"label": "timestamp",
								"offset": 0,
								"slot": "1",
								"type": "t_uint256"
							}
						],
						"numberOfBytes": "64"
					},
					"t_uint256": {
						"encoding": "inplace",
						"label": "uint256",
						"numberOfBytes": "32"
					}
				}
			},
			"userdoc": {
				"kind": "user",
				"methods": {},
				"version": 1
			}
		}
	}
}