{
	"Contracts/luckyNumber.sol": {
		"LuckyNumber": {
			"abi": [
				{
					"inputs": [],
					"stateMutability": "nonpayable",
					"type": "constructor"
				},
				{
					"inputs": [
						{
							"internalType": "uint256",
							"name": "_luckyNumber",
							"type": "uint256"
						}
					],
					"name": "changeLuckyNumber",
					"outputs": [],
					"stateMutability": "payable",
					"type": "function"
				},
				{
					"inputs": [],
					"name": "getLuckyNumber",
					"outputs": [
						{
							"internalType": "uint256",
							"name": "",
							"type": "uint256"
						}
					],
					"stateMutability": "view",
					"type": "function"
				},
				{
					"inputs": [],
					"name": "getOwner",
					"outputs": [
						{
							"internalType": "address",
							"name": "",
							"type": "address"
						}
					],
					"stateMutability": "view",
					"type": "function"
				},
				{
					"inputs": [
						{
							"internalType": "uint256",
							"name": "_luckyNumber",
							"type": "uint256"
						}
					],
					"name": "setLuckyNumber",
					"outputs": [],
					"stateMutability": "nonpayable",
					"type": "function"
				}
			],
			"devdoc": {
				"kind": "dev",
				"methods": {},
				"version": 1
			},
			"evm": {
				"assembly": "    /* \"Contracts/luckyNumber.sol\":60:891  contract LuckyNumber {... */\n  mstore(0x40, 0x80)\n    /* \"Contracts/luckyNumber.sol\":138:198  constructor() {... */\n  callvalue\n  dup1\n  iszero\n  tag_1\n  jumpi\n  revert(0x00, 0x00)\ntag_1:\n  pop\n    /* \"Contracts/luckyNumber.sol\":179:189  msg.sender */\n  caller\n    /* \"Contracts/luckyNumber.sol\":163:168  owner */\n  0x01\n  0x00\n    /* \"Contracts/luckyNumber.sol\":163:190  owner = payable(msg.sender) */\n  0x0100\n  exp\n  dup2\n  sload\n  dup2\n  0xffffffffffffffffffffffffffffffffffffffff\n  mul\n  not\n  and\n  swap1\n  dup4\n  0xffffffffffffffffffffffffffffffffffffffff\n  and\n  mul\n  or\n  swap1\n  sstore\n  pop\n    /* \"Contracts/luckyNumber.sol\":60:891  contract LuckyNumber {... */\n  dataSize(sub_0)\n  dup1\n  dataOffset(sub_0)\n  0x00\n  codecopy\n  0x00\n  return\nstop\n\nsub_0: assembly {\n        /* \"Contracts/luckyNumber.sol\":60:891  contract LuckyNumber {... */\n      mstore(0x40, 0x80)\n      jumpi(tag_1, lt(calldatasize, 0x04))\n      shr(0xe0, calldataload(0x00))\n      dup1\n      0x4f293734\n      eq\n      tag_2\n      jumpi\n      dup1\n      0x893d20e8\n      eq\n      tag_3\n      jumpi\n      dup1\n      0xe01049e9\n      eq\n      tag_4\n      jumpi\n      dup1\n      0xe69f19cd\n      eq\n      tag_5\n      jumpi\n    tag_1:\n      revert(0x00, 0x00)\n        /* \"Contracts/luckyNumber.sol\":443:545  function setLuckyNumber(uint _luckyNumber) public onlyOwner {... */\n    tag_2:\n      callvalue\n      dup1\n      iszero\n      tag_6\n      jumpi\n      revert(0x00, 0x00)\n    tag_6:\n      pop\n      tag_7\n      0x04\n      dup1\n      calldatasize\n      sub\n      dup2\n      add\n      swap1\n      tag_8\n      swap2\n      swap1\n      tag_9\n      jump\t// in\n    tag_8:\n      tag_10\n      jump\t// in\n    tag_7:\n      stop\n        /* \"Contracts/luckyNumber.sol\":647:727  function getOwner() public view returns(address) {... */\n    tag_3:\n      callvalue\n      dup1\n      iszero\n      tag_11\n      jumpi\n      revert(0x00, 0x00)\n    tag_11:\n      pop\n      tag_12\n      tag_13\n      jump\t// in\n    tag_12:\n      mload(0x40)\n      tag_14\n      swap2\n      swap1\n      tag_15\n      jump\t// in\n    tag_14:\n      mload(0x40)\n      dup1\n      swap2\n      sub\n      swap1\n      return\n        /* \"Contracts/luckyNumber.sol\":735:888  function changeLuckyNumber(uint _luckyNumber) external payable enoughMoney {... */\n    tag_4:\n      tag_16\n      0x04\n      dup1\n      calldatasize\n      sub\n      dup2\n      add\n      swap1\n      tag_17\n      swap2\n      swap1\n      tag_9\n      jump\t// in\n    tag_17:\n      tag_18\n      jump\t// in\n    tag_16:\n      stop\n        /* \"Contracts/luckyNumber.sol\":553:639  function getLuckyNumber() public view returns(uint) {... */\n    tag_5:\n      callvalue\n      dup1\n      iszero\n      tag_19\n      jumpi\n      revert(0x00, 0x00)\n    tag_19:\n      pop\n      tag_20\n      tag_21\n      jump\t// in\n    tag_20:\n      mload(0x40)\n      tag_22\n      swap2\n      swap1\n      tag_23\n      jump\t// in\n    tag_22:\n      mload(0x40)\n      dup1\n      swap2\n      sub\n      swap1\n      return\n        /* \"Contracts/luckyNumber.sol\":443:545  function setLuckyNumber(uint _luckyNumber) public onlyOwner {... */\n    tag_10:\n        /* \"Contracts/luckyNumber.sol\":260:265  owner */\n      0x01\n      0x00\n      swap1\n      sload\n      swap1\n      0x0100\n      exp\n      swap1\n      div\n      0xffffffffffffffffffffffffffffffffffffffff\n      and\n        /* \"Contracts/luckyNumber.sol\":246:265  msg.sender == owner */\n      0xffffffffffffffffffffffffffffffffffffffff\n      and\n        /* \"Contracts/luckyNumber.sol\":246:256  msg.sender */\n      caller\n        /* \"Contracts/luckyNumber.sol\":246:265  msg.sender == owner */\n      0xffffffffffffffffffffffffffffffffffffffff\n      and\n      eq\n        /* \"Contracts/luckyNumber.sol\":238:308  require(msg.sender == owner, \"You are not the owner of this contract\") */\n      tag_25\n      jumpi\n      mload(0x40)\n      0x08c379a000000000000000000000000000000000000000000000000000000000\n      dup2\n      mstore\n      0x04\n      add\n      tag_26\n      swap1\n      tag_27\n      jump\t// in\n    tag_26:\n      mload(0x40)\n      dup1\n      swap2\n      sub\n      swap1\n      revert\n    tag_25:\n        /* \"Contracts/luckyNumber.sol\":525:537  _luckyNumber */\n      dup1\n        /* \"Contracts/luckyNumber.sol\":514:522  myNumber */\n      0x00\n        /* \"Contracts/luckyNumber.sol\":514:537  myNumber = _luckyNumber */\n      dup2\n      swap1\n      sstore\n      pop\n        /* \"Contracts/luckyNumber.sol\":443:545  function setLuckyNumber(uint _luckyNumber) public onlyOwner {... */\n      pop\n      jump\t// out\n        /* \"Contracts/luckyNumber.sol\":647:727  function getOwner() public view returns(address) {... */\n    tag_13:\n        /* \"Contracts/luckyNumber.sol\":687:694  address */\n      0x00\n        /* \"Contracts/luckyNumber.sol\":714:719  owner */\n      0x01\n      0x00\n      swap1\n      sload\n      swap1\n      0x0100\n      exp\n      swap1\n      div\n      0xffffffffffffffffffffffffffffffffffffffff\n      and\n        /* \"Contracts/luckyNumber.sol\":707:719  return owner */\n      swap1\n      pop\n        /* \"Contracts/luckyNumber.sol\":647:727  function getOwner() public view returns(address) {... */\n      swap1\n      jump\t// out\n        /* \"Contracts/luckyNumber.sol\":735:888  function changeLuckyNumber(uint _luckyNumber) external payable enoughMoney {... */\n    tag_18:\n        /* \"Contracts/luckyNumber.sol\":390:391  1 */\n      0x01\n        /* \"Contracts/luckyNumber.sol\":378:387  msg.value */\n      callvalue\n        /* \"Contracts/luckyNumber.sol\":378:391  msg.value > 1 */\n      gt\n        /* \"Contracts/luckyNumber.sol\":370:414  require(msg.value > 1, \"Not enough balance\") */\n      tag_31\n      jumpi\n      mload(0x40)\n      0x08c379a000000000000000000000000000000000000000000000000000000000\n      dup2\n      mstore\n      0x04\n      add\n      tag_32\n      swap1\n      tag_33\n      jump\t// in\n    tag_32:\n      mload(0x40)\n      dup1\n      swap2\n      sub\n      swap1\n      revert\n    tag_31:\n        /* \"Contracts/luckyNumber.sol\":832:844  _luckyNumber */\n      dup1\n        /* \"Contracts/luckyNumber.sol\":821:829  myNumber */\n      0x00\n        /* \"Contracts/luckyNumber.sol\":821:844  myNumber = _luckyNumber */\n      dup2\n      swap1\n      sstore\n      pop\n        /* \"Contracts/luckyNumber.sol\":855:860  owner */\n      0x01\n      0x00\n      swap1\n      sload\n      swap1\n      0x0100\n      exp\n      swap1\n      div\n      0xffffffffffffffffffffffffffffffffffffffff\n      and\n        /* \"Contracts/luckyNumber.sol\":855:869  owner.transfer */\n      0xffffffffffffffffffffffffffffffffffffffff\n      and\n        /* \"Contracts/luckyNumber.sol\":855:880  owner.transfer(msg.value) */\n      0x08fc\n        /* \"Contracts/luckyNumber.sol\":870:879  msg.value */\n      callvalue\n        /* \"Contracts/luckyNumber.sol\":855:880  owner.transfer(msg.value) */\n      swap1\n      dup2\n      iszero\n      mul\n      swap1\n      mload(0x40)\n      0x00\n      mload(0x40)\n      dup1\n      dup4\n      sub\n      dup2\n      dup6\n      dup9\n      dup9\n      call\n      swap4\n      pop\n      pop\n      pop\n      pop\n      iszero\n      dup1\n      iszero\n      tag_36\n      jumpi\n      returndatacopy(0x00, 0x00, returndatasize)\n      revert(0x00, returndatasize)\n    tag_36:\n      pop\n        /* \"Contracts/luckyNumber.sol\":735:888  function changeLuckyNumber(uint _luckyNumber) external payable enoughMoney {... */\n      pop\n      jump\t// out\n        /* \"Contracts/luckyNumber.sol\":553:639  function getLuckyNumber() public view returns(uint) {... */\n    tag_21:\n        /* \"Contracts/luckyNumber.sol\":599:603  uint */\n      0x00\n        /* \"Contracts/luckyNumber.sol\":623:631  myNumber */\n      sload(0x00)\n        /* \"Contracts/luckyNumber.sol\":616:631  return myNumber */\n      swap1\n      pop\n        /* \"Contracts/luckyNumber.sol\":553:639  function getLuckyNumber() public view returns(uint) {... */\n      swap1\n      jump\t// out\n        /* \"#utility.yul\":88:205   */\n    tag_39:\n        /* \"#utility.yul\":197:198   */\n      0x00\n        /* \"#utility.yul\":194:195   */\n      0x00\n        /* \"#utility.yul\":187:199   */\n      revert\n        /* \"#utility.yul\":334:411   */\n    tag_41:\n        /* \"#utility.yul\":371:378   */\n      0x00\n        /* \"#utility.yul\":400:405   */\n      dup2\n        /* \"#utility.yul\":389:405   */\n      swap1\n      pop\n        /* \"#utility.yul\":334:411   */\n      swap2\n      swap1\n      pop\n      jump\t// out\n        /* \"#utility.yul\":417:539   */\n    tag_42:\n        /* \"#utility.yul\":490:514   */\n      tag_59\n        /* \"#utility.yul\":508:513   */\n      dup2\n        /* \"#utility.yul\":490:514   */\n      tag_41\n      jump\t// in\n    tag_59:\n        /* \"#utility.yul\":483:488   */\n      dup2\n        /* \"#utility.yul\":480:515   */\n      eq\n        /* \"#utility.yul\":470:533   */\n      tag_60\n      jumpi\n        /* \"#utility.yul\":529:530   */\n      0x00\n        /* \"#utility.yul\":526:527   */\n      0x00\n        /* \"#utility.yul\":519:531   */\n      revert\n        /* \"#utility.yul\":470:533   */\n    tag_60:\n        /* \"#utility.yul\":417:539   */\n      pop\n      jump\t// out\n        /* \"#utility.yul\":545:684   */\n    tag_43:\n        /* \"#utility.yul\":591:596   */\n      0x00\n        /* \"#utility.yul\":629:635   */\n      dup2\n        /* \"#utility.yul\":616:636   */\n      calldataload\n        /* \"#utility.yul\":607:636   */\n      swap1\n      pop\n        /* \"#utility.yul\":645:678   */\n      tag_62\n        /* \"#utility.yul\":672:677   */\n      dup2\n        /* \"#utility.yul\":645:678   */\n      tag_42\n      jump\t// in\n    tag_62:\n        /* \"#utility.yul\":545:684   */\n      swap3\n      swap2\n      pop\n      pop\n      jump\t// out\n        /* \"#utility.yul\":690:1019   */\n    tag_9:\n        /* \"#utility.yul\":749:755   */\n      0x00\n        /* \"#utility.yul\":798:800   */\n      0x20\n        /* \"#utility.yul\":786:795   */\n      dup3\n        /* \"#utility.yul\":777:784   */\n      dup5\n        /* \"#utility.yul\":773:796   */\n      sub\n        /* \"#utility.yul\":769:801   */\n      slt\n        /* \"#utility.yul\":766:885   */\n      iszero\n      tag_64\n      jumpi\n        /* \"#utility.yul\":804:883   */\n      tag_65\n      tag_39\n      jump\t// in\n    tag_65:\n        /* \"#utility.yul\":766:885   */\n    tag_64:\n        /* \"#utility.yul\":924:925   */\n      0x00\n        /* \"#utility.yul\":949:1002   */\n      tag_66\n        /* \"#utility.yul\":994:1001   */\n      dup5\n        /* \"#utility.yul\":985:991   */\n      dup3\n        /* \"#utility.yul\":974:983   */\n      dup6\n        /* \"#utility.yul\":970:992   */\n      add\n        /* \"#utility.yul\":949:1002   */\n      tag_43\n      jump\t// in\n    tag_66:\n        /* \"#utility.yul\":939:1002   */\n      swap2\n      pop\n        /* \"#utility.yul\":895:1012   */\n      pop\n        /* \"#utility.yul\":690:1019   */\n      swap3\n      swap2\n      pop\n      pop\n      jump\t// out\n        /* \"#utility.yul\":1025:1151   */\n    tag_44:\n        /* \"#utility.yul\":1062:1069   */\n      0x00\n        /* \"#utility.yul\":1102:1144   */\n      0xffffffffffffffffffffffffffffffffffffffff\n        /* \"#utility.yul\":1095:1100   */\n      dup3\n        /* \"#utility.yul\":1091:1145   */\n      and\n        /* \"#utility.yul\":1080:1145   */\n      swap1\n      pop\n        /* \"#utility.yul\":1025:1151   */\n      swap2\n      swap1\n      pop\n      jump\t// out\n        /* \"#utility.yul\":1157:1253   */\n    tag_45:\n        /* \"#utility.yul\":1194:1201   */\n      0x00\n        /* \"#utility.yul\":1223:1247   */\n      tag_69\n        /* \"#utility.yul\":1241:1246   */\n      dup3\n        /* \"#utility.yul\":1223:1247   */\n      tag_44\n      jump\t// in\n    tag_69:\n        /* \"#utility.yul\":1212:1247   */\n      swap1\n      pop\n        /* \"#utility.yul\":1157:1253   */\n      swap2\n      swap1\n      pop\n      jump\t// out\n        /* \"#utility.yul\":1259:1377   */\n    tag_46:\n        /* \"#utility.yul\":1346:1370   */\n      tag_71\n        /* \"#utility.yul\":1364:1369   */\n      dup2\n        /* \"#utility.yul\":1346:1370   */\n      tag_45\n      jump\t// in\n    tag_71:\n        /* \"#utility.yul\":1341:1344   */\n      dup3\n        /* \"#utility.yul\":1334:1371   */\n      mstore\n        /* \"#utility.yul\":1259:1377   */\n      pop\n      pop\n      jump\t// out\n        /* \"#utility.yul\":1383:1605   */\n    tag_15:\n        /* \"#utility.yul\":1476:1480   */\n      0x00\n        /* \"#utility.yul\":1514:1516   */\n      0x20\n        /* \"#utility.yul\":1503:1512   */\n      dup3\n        /* \"#utility.yul\":1499:1517   */\n      add\n        /* \"#utility.yul\":1491:1517   */\n      swap1\n      pop\n        /* \"#utility.yul\":1527:1598   */\n      tag_73\n        /* \"#utility.yul\":1595:1596   */\n      0x00\n        /* \"#utility.yul\":1584:1593   */\n      dup4\n        /* \"#utility.yul\":1580:1597   */\n      add\n        /* \"#utility.yul\":1571:1577   */\n      dup5\n        /* \"#utility.yul\":1527:1598   */\n      tag_46\n      jump\t// in\n    tag_73:\n        /* \"#utility.yul\":1383:1605   */\n      swap3\n      swap2\n      pop\n      pop\n      jump\t// out\n        /* \"#utility.yul\":1611:1729   */\n    tag_47:\n        /* \"#utility.yul\":1698:1722   */\n      tag_75\n        /* \"#utility.yul\":1716:1721   */\n      dup2\n        /* \"#utility.yul\":1698:1722   */\n      tag_41\n      jump\t// in\n    tag_75:\n        /* \"#utility.yul\":1693:1696   */\n      dup3\n        /* \"#utility.yul\":1686:1723   */\n      mstore\n        /* \"#utility.yul\":1611:1729   */\n      pop\n      pop\n      jump\t// out\n        /* \"#utility.yul\":1735:1957   */\n    tag_23:\n        /* \"#utility.yul\":1828:1832   */\n      0x00\n        /* \"#utility.yul\":1866:1868   */\n      0x20\n        /* \"#utility.yul\":1855:1864   */\n      dup3\n        /* \"#utility.yul\":1851:1869   */\n      add\n        /* \"#utility.yul\":1843:1869   */\n      swap1\n      pop\n        /* \"#utility.yul\":1879:1950   */\n      tag_77\n        /* \"#utility.yul\":1947:1948   */\n      0x00\n        /* \"#utility.yul\":1936:1945   */\n      dup4\n        /* \"#utility.yul\":1932:1949   */\n      add\n        /* \"#utility.yul\":1923:1929   */\n      dup5\n        /* \"#utility.yul\":1879:1950   */\n      tag_47\n      jump\t// in\n    tag_77:\n        /* \"#utility.yul\":1735:1957   */\n      swap3\n      swap2\n      pop\n      pop\n      jump\t// out\n        /* \"#utility.yul\":1963:2132   */\n    tag_48:\n        /* \"#utility.yul\":2047:2058   */\n      0x00\n        /* \"#utility.yul\":2081:2087   */\n      dup3\n        /* \"#utility.yul\":2076:2079   */\n      dup3\n        /* \"#utility.yul\":2069:2088   */\n      mstore\n        /* \"#utility.yul\":2121:2125   */\n      0x20\n        /* \"#utility.yul\":2116:2119   */\n      dup3\n        /* \"#utility.yul\":2112:2126   */\n      add\n        /* \"#utility.yul\":2097:2126   */\n      swap1\n      pop\n        /* \"#utility.yul\":1963:2132   */\n      swap3\n      swap2\n      pop\n      pop\n      jump\t// out\n        /* \"#utility.yul\":2138:2363   */\n    tag_49:\n        /* \"#utility.yul\":2278:2312   */\n      0x596f7520617265206e6f7420746865206f776e6572206f66207468697320636f\n        /* \"#utility.yul\":2274:2275   */\n      0x00\n        /* \"#utility.yul\":2266:2272   */\n      dup3\n        /* \"#utility.yul\":2262:2276   */\n      add\n        /* \"#utility.yul\":2255:2313   */\n      mstore\n        /* \"#utility.yul\":2347:2355   */\n      0x6e74726163740000000000000000000000000000000000000000000000000000\n        /* \"#utility.yul\":2342:2344   */\n      0x20\n        /* \"#utility.yul\":2334:2340   */\n      dup3\n        /* \"#utility.yul\":2330:2345   */\n      add\n        /* \"#utility.yul\":2323:2356   */\n      mstore\n        /* \"#utility.yul\":2138:2363   */\n      pop\n      jump\t// out\n        /* \"#utility.yul\":2369:2735   */\n    tag_50:\n        /* \"#utility.yul\":2511:2514   */\n      0x00\n        /* \"#utility.yul\":2532:2599   */\n      tag_81\n        /* \"#utility.yul\":2596:2598   */\n      0x26\n        /* \"#utility.yul\":2591:2594   */\n      dup4\n        /* \"#utility.yul\":2532:2599   */\n      tag_48\n      jump\t// in\n    tag_81:\n        /* \"#utility.yul\":2525:2599   */\n      swap2\n      pop\n        /* \"#utility.yul\":2608:2701   */\n      tag_82\n        /* \"#utility.yul\":2697:2700   */\n      dup3\n        /* \"#utility.yul\":2608:2701   */\n      tag_49\n      jump\t// in\n    tag_82:\n        /* \"#utility.yul\":2726:2728   */\n      0x40\n        /* \"#utility.yul\":2721:2724   */\n      dup3\n        /* \"#utility.yul\":2717:2729   */\n      add\n        /* \"#utility.yul\":2710:2729   */\n      swap1\n      pop\n        /* \"#utility.yul\":2369:2735   */\n      swap2\n      swap1\n      pop\n      jump\t// out\n        /* \"#utility.yul\":2741:3160   */\n    tag_27:\n        /* \"#utility.yul\":2907:2911   */\n      0x00\n        /* \"#utility.yul\":2945:2947   */\n      0x20\n        /* \"#utility.yul\":2934:2943   */\n      dup3\n        /* \"#utility.yul\":2930:2948   */\n      add\n        /* \"#utility.yul\":2922:2948   */\n      swap1\n      pop\n        /* \"#utility.yul\":2994:3003   */\n      dup2\n        /* \"#utility.yul\":2988:2992   */\n      dup2\n        /* \"#utility.yul\":2984:3004   */\n      sub\n        /* \"#utility.yul\":2980:2981   */\n      0x00\n        /* \"#utility.yul\":2969:2978   */\n      dup4\n        /* \"#utility.yul\":2965:2982   */\n      add\n        /* \"#utility.yul\":2958:3005   */\n      mstore\n        /* \"#utility.yul\":3022:3153   */\n      tag_84\n        /* \"#utility.yul\":3148:3152   */\n      dup2\n        /* \"#utility.yul\":3022:3153   */\n      tag_50\n      jump\t// in\n    tag_84:\n        /* \"#utility.yul\":3014:3153   */\n      swap1\n      pop\n        /* \"#utility.yul\":2741:3160   */\n      swap2\n      swap1\n      pop\n      jump\t// out\n        /* \"#utility.yul\":3166:3334   */\n    tag_51:\n        /* \"#utility.yul\":3306:3326   */\n      0x4e6f7420656e6f7567682062616c616e63650000000000000000000000000000\n        /* \"#utility.yul\":3302:3303   */\n      0x00\n        /* \"#utility.yul\":3294:3300   */\n      dup3\n        /* \"#utility.yul\":3290:3304   */\n      add\n        /* \"#utility.yul\":3283:3327   */\n      mstore\n        /* \"#utility.yul\":3166:3334   */\n      pop\n      jump\t// out\n        /* \"#utility.yul\":3340:3706   */\n    tag_52:\n        /* \"#utility.yul\":3482:3485   */\n      0x00\n        /* \"#utility.yul\":3503:3570   */\n      tag_87\n        /* \"#utility.yul\":3567:3569   */\n      0x12\n        /* \"#utility.yul\":3562:3565   */\n      dup4\n        /* \"#utility.yul\":3503:3570   */\n      tag_48\n      jump\t// in\n    tag_87:\n        /* \"#utility.yul\":3496:3570   */\n      swap2\n      pop\n        /* \"#utility.yul\":3579:3672   */\n      tag_88\n        /* \"#utility.yul\":3668:3671   */\n      dup3\n        /* \"#utility.yul\":3579:3672   */\n      tag_51\n      jump\t// in\n    tag_88:\n        /* \"#utility.yul\":3697:3699   */\n      0x20\n        /* \"#utility.yul\":3692:3695   */\n      dup3\n        /* \"#utility.yul\":3688:3700   */\n      add\n        /* \"#utility.yul\":3681:3700   */\n      swap1\n      pop\n        /* \"#utility.yul\":3340:3706   */\n      swap2\n      swap1\n      pop\n      jump\t// out\n        /* \"#utility.yul\":3712:4131   */\n    tag_33:\n        /* \"#utility.yul\":3878:3882   */\n      0x00\n        /* \"#utility.yul\":3916:3918   */\n      0x20\n        /* \"#utility.yul\":3905:3914   */\n      dup3\n        /* \"#utility.yul\":3901:3919   */\n      add\n        /* \"#utility.yul\":3893:3919   */\n      swap1\n      pop\n        /* \"#utility.yul\":3965:3974   */\n      dup2\n        /* \"#utility.yul\":3959:3963   */\n      dup2\n        /* \"#utility.yul\":3955:3975   */\n      sub\n        /* \"#utility.yul\":3951:3952   */\n      0x00\n        /* \"#utility.yul\":3940:3949   */\n      dup4\n        /* \"#utility.yul\":3936:3953   */\n      add\n        /* \"#utility.yul\":3929:3976   */\n      mstore\n        /* \"#utility.yul\":3993:4124   */\n      tag_90\n        /* \"#utility.yul\":4119:4123   */\n      dup2\n        /* \"#utility.yul\":3993:4124   */\n      tag_52\n      jump\t// in\n    tag_90:\n        /* \"#utility.yul\":3985:4124   */\n      swap1\n      pop\n        /* \"#utility.yul\":3712:4131   */\n      swap2\n      swap1\n      pop\n      jump\t// out\n\n    auxdata: 0xa2646970667358221220506b950d4ded9303e3dde1a812c239eed72492578918d223652a3b0de4c40f4264736f6c634300081c0033\n}\n",
				"bytecode": {
					"linkReferences": {},
					"object": "6080604052348015600e575f5ffd5b503360015f6101000a81548173ffffffffffffffffffffffffffffffffffffffff021916908373ffffffffffffffffffffffffffffffffffffffff1602179055506104718061005c5f395ff3fe60806040526004361061003e575f3560e01c80634f29373414610042578063893d20e81461006a578063e01049e914610094578063e69f19cd146100b0575b5f5ffd5b34801561004d575f5ffd5b506100686004803603810190610063919061028a565b6100da565b005b348015610075575f5ffd5b5061007e610172565b60405161008b91906102f4565b60405180910390f35b6100ae60048036038101906100a9919061028a565b61019a565b005b3480156100bb575f5ffd5b506100c461024b565b6040516100d1919061031c565b60405180910390f35b60015f9054906101000a900473ffffffffffffffffffffffffffffffffffffffff1673ffffffffffffffffffffffffffffffffffffffff163373ffffffffffffffffffffffffffffffffffffffff1614610169576040517f08c379a0000000000000000000000000000000000000000000000000000000008152600401610160906103b5565b60405180910390fd5b805f8190555050565b5f60015f9054906101000a900473ffffffffffffffffffffffffffffffffffffffff16905090565b600134116101dd576040517f08c379a00000000000000000000000000000000000000000000000000000000081526004016101d49061041d565b60405180910390fd5b805f8190555060015f9054906101000a900473ffffffffffffffffffffffffffffffffffffffff1673ffffffffffffffffffffffffffffffffffffffff166108fc3490811502906040515f60405180830381858888f19350505050158015610247573d5f5f3e3d5ffd5b5050565b5f5f54905090565b5f5ffd5b5f819050919050565b61026981610257565b8114610273575f5ffd5b50565b5f8135905061028481610260565b92915050565b5f6020828403121561029f5761029e610253565b5b5f6102ac84828501610276565b91505092915050565b5f73ffffffffffffffffffffffffffffffffffffffff82169050919050565b5f6102de826102b5565b9050919050565b6102ee816102d4565b82525050565b5f6020820190506103075f8301846102e5565b92915050565b61031681610257565b82525050565b5f60208201905061032f5f83018461030d565b92915050565b5f82825260208201905092915050565b7f596f7520617265206e6f7420746865206f776e6572206f66207468697320636f5f8201527f6e74726163740000000000000000000000000000000000000000000000000000602082015250565b5f61039f602683610335565b91506103aa82610345565b604082019050919050565b5f6020820190508181035f8301526103cc81610393565b9050919050565b7f4e6f7420656e6f7567682062616c616e636500000000000000000000000000005f82015250565b5f610407601283610335565b9150610412826103d3565b602082019050919050565b5f6020820190508181035f830152610434816103fb565b905091905056fea2646970667358221220506b950d4ded9303e3dde1a812c239eed72492578918d223652a3b0de4c40f4264736f6c634300081c0033",
					"opcodes": "PUSH1 0x80 PUSH1 0x40 MSTORE CALLVALUE DUP1 ISZERO PUSH1 0xE JUMPI PUSH0 PUSH0 REVERT JUMPDEST POP CALLER PUSH1 0x1 PUSH0 PUSH2 0x100 EXP DUP2 SLOAD DUP2 PUSH20 0xFFFFFFFFFFFFFFFFFFFFFFFFFFFFFFFFFFFFFFFF MUL NOT AND SWAP1 DUP4 PUSH20 0xFFFFFFFFFFFFFFFFFFFFFFFFFFFFFFFFFFFFFFFF AND MUL OR SWAP1 SSTORE POP PUSH2 0x471 DUP1 PUSH2 0x5C PUSH0 CODECOPY PUSH0 RETURN INVALID PUSH1 0x80 PUSH1 0x40 MSTORE PUSH1 0x4 CALLDATASIZE LT PUSH2 0x3E JUMPI PUSH0 CALLDATALOAD PUSH1 0xE0 SHR DUP1 PUSH4 0x4F293734 EQ PUSH2 0x42 JUMPI DUP1 PUSH4 0x893D20E8 EQ PUSH2 0x6A JUMPI DUP1 PUSH4 0xE01049E9 EQ PUSH2 0x94 JUMPI DUP1 PUSH4 0xE69F19CD EQ PUSH2 0xB0 JUMPI JUMPDEST PUSH0 PUSH0 REVERT JUMPDEST CALLVALUE DUP1 ISZERO PUSH2 0x4D JUMPI PUSH0 PUSH0 REVERT JUMPDEST POP PUSH2 0x68 PUSH1 0x4 DUP1 CALLDATASIZE SUB DUP2 ADD SWAP1 PUSH2 0x63 SWAP2 SWAP1 PUSH2 0x28A JUMP JUMPDEST PUSH2 0xDA JUMP JUMPDEST STOP JUMPDEST CALLVALUE DUP1 ISZERO PUSH2 0x75 JUMPI PUSH0 PUSH0 REVERT JUMPDEST POP PUSH2 0x7E PUSH2 0x172 JUMP JUMPDEST PUSH1 0x40 MLOAD PUSH2 0x8B SWAP2 SWAP1 PUSH2 0x2F4 JUMP JUMPDEST PUSH1 0x40 MLOAD DUP1 SWAP2 SUB SWAP1 RETURN JUMPDEST PUSH2 0xAE PUSH1 0x4 DUP1 CALLDATASIZE SUB DUP2 ADD SWAP1 PUSH2 0xA9 SWAP2 SWAP1 PUSH2 0x28A JUMP JUMPDEST PUSH2 0x19A JUMP JUMPDEST STOP JUMPDEST CALLVALUE DUP1 ISZERO PUSH2 0xBB JUMPI PUSH0 PUSH0 REVERT JUMPDEST POP PUSH2 0xC4 PUSH2 0x24B JUMP JUMPDEST PUSH1 0x40 MLOAD PUSH2 0xD1 SWAP2 SWAP1 PUSH2 0x31C JUMP JUMPDEST PUSH1 0x40 MLOAD DUP1 SWAP2 SUB SWAP1 RETURN JUMPDEST PUSH1 0x1 PUSH0 SWAP1 SLOAD SWAP1 PUSH2 0x100 EXP SWAP1 DIV PUSH20 0xFFFFFFFFFFFFFFFFFFFFFFFFFFFFFFFFFFFFFFFF AND PUSH20 0xFFFFFFFFFFFFFFFFFFFFFFFFFFFFFFFFFFFFFFFF AND CALLER PUSH20 0xFFFFFFFFFFFFFFFFFFFFFFFFFFFFFFFFFFFFFFFF AND EQ PUSH2 0x169 JUMPI PUSH1 0x40 MLOAD PUSH32 0x8C379A000000000000000000000000000000000000000000000000000000000 DUP2 MSTORE PUSH1 0x4 ADD PUSH2 0x160 SWAP1 PUSH2 0x3B5 JUMP JUMPDEST PUSH1 0x40 MLOAD DUP1 SWAP2 SUB SWAP1 REVERT JUMPDEST DUP1 PUSH0 DUP2 SWAP1 SSTORE POP POP JUMP JUMPDEST PUSH0 PUSH1 0x1 PUSH0 SWAP1 SLOAD SWAP1 PUSH2 0x100 EXP SWAP1 DIV PUSH20 0xFFFFFFFFFFFFFFFFFFFFFFFFFFFFFFFFFFFFFFFF AND SWAP1 POP SWAP1 JUMP JUMPDEST PUSH1 0x1 CALLVALUE GT PUSH2 0x1DD JUMPI PUSH1 0x40 MLOAD PUSH32 0x8C379A000000000000000000000000000000000000000000000000000000000 DUP2 MSTORE PUSH1 0x4 ADD PUSH2 0x1D4 SWAP1 PUSH2 0x41D JUMP JUMPDEST PUSH1 0x40 MLOAD DUP1 SWAP2 SUB SWAP1 REVERT JUMPDEST DUP1 PUSH0 DUP2 SWAP1 SSTORE POP PUSH1 0x1 PUSH0 SWAP1 SLOAD SWAP1 PUSH2 0x100 EXP SWAP1 DIV PUSH20 0xFFFFFFFFFFFFFFFFFFFFFFFFFFFFFFFFFFFFFFFF AND PUSH20 0xFFFFFFFFFFFFFFFFFFFFFFFFFFFFFFFFFFFFFFFF AND PUSH2 0x8FC CALLVALUE SWAP1 DUP2 ISZERO MUL SWAP1 PUSH1 0x40 MLOAD PUSH0 PUSH1 0x40 MLOAD DUP1 DUP4 SUB DUP2 DUP6 DUP9 DUP9 CALL SWAP4 POP POP POP POP ISZERO DUP1 ISZERO PUSH2 0x247 JUMPI RETURNDATASIZE PUSH0 PUSH0 RETURNDATACOPY RETURNDATASIZE PUSH0 REVERT JUMPDEST POP POP JUMP JUMPDEST PUSH0 PUSH0 SLOAD SWAP1 POP SWAP1 JUMP JUMPDEST PUSH0 PUSH0 REVERT JUMPDEST PUSH0 DUP2 SWAP1 POP SWAP2 SWAP1 POP JUMP JUMPDEST PUSH2 0x269 DUP2 PUSH2 0x257 JUMP JUMPDEST DUP2 EQ PUSH2 0x273 JUMPI PUSH0 PUSH0 REVERT JUMPDEST POP JUMP JUMPDEST PUSH0 DUP2 CALLDATALOAD SWAP1 POP PUSH2 0x284 DUP2 PUSH2 0x260 JUMP JUMPDEST SWAP3 SWAP2 POP POP JUMP JUMPDEST PUSH0 PUSH1 0x20 DUP3 DUP5 SUB SLT ISZERO PUSH2 0x29F JUMPI PUSH2 0x29E PUSH2 0x253 JUMP JUMPDEST JUMPDEST PUSH0 PUSH2 0x2AC DUP5 DUP3 DUP6 ADD PUSH2 0x276 JUMP JUMPDEST SWAP2 POP POP SWAP3 SWAP2 POP POP JUMP JUMPDEST PUSH0 PUSH20 0xFFFFFFFFFFFFFFFFFFFFFFFFFFFFFFFFFFFFFFFF DUP3 AND SWAP1 POP SWAP2 SWAP1 POP JUMP JUMPDEST PUSH0 PUSH2 0x2DE DUP3 PUSH2 0x2B5 JUMP JUMPDEST SWAP1 POP SWAP2 SWAP1 POP JUMP JUMPDEST PUSH2 0x2EE DUP2 PUSH2 0x2D4 JUMP JUMPDEST DUP3 MSTORE POP POP JUMP JUMPDEST PUSH0 PUSH1 0x20 DUP3 ADD SWAP1 POP PUSH2 0x307 PUSH0 DUP4 ADD DUP5 PUSH2 0x2E5 JUMP JUMPDEST SWAP3 SWAP2 POP POP JUMP JUMPDEST PUSH2 0x316 DUP2 PUSH2 0x257 JUMP JUMPDEST DUP3 MSTORE POP POP JUMP JUMPDEST PUSH0 PUSH1 0x20 DUP3 ADD SWAP1 POP PUSH2 0x32F PUSH0 DUP4 ADD DUP5 PUSH2 0x30D JUMP JUMPDEST SWAP3 SWAP2 POP POP JUMP JUMPDEST PUSH0 DUP3 DUP3 MSTORE PUSH1 0x20 DUP3 ADD SWAP1 POP SWAP3 SWAP2 POP POP JUMP JUMPDEST PUSH32 0x596F7520617265206E6F7420746865206F776E6572206F66207468697320636F PUSH0 DUP3 ADD MSTORE PUSH32 0x6E74726163740000000000000000000000000000000000000000000000000000 PUSH1 0x20 DUP3 ADD MSTORE POP JUMP JUMPDEST PUSH0 PUSH2 0x39F PUSH1 0x26 DUP4 PUSH2 0x335 JUMP JUMPDEST SWAP2 POP PUSH2 0x3AA DUP3 PUSH2 0x345 JUMP JUMPDEST PUSH1 0x40 DUP3 ADD SWAP1 POP SWAP2 SWAP1 POP JUMP JUMPDEST PUSH0 PUSH1 0x20 DUP3 ADD SWAP1 POP DUP2 DUP2 SUB PUSH0 DUP4 ADD MSTORE PUSH2 0x3CC DUP2 PUSH2 0x393 JUMP JUMPDEST SWAP1 POP SWAP2 SWAP1 POP JUMP JUMPDEST PUSH32 0x4E6F7420656E6F7567682062616C616E63650000000000000000000000000000 PUSH0 DUP3 ADD MSTORE POP JUMP JUMPDEST PUSH0 PUSH2 0x407 PUSH1 0x12 DUP4 PUSH2 0x335 JUMP JUMPDEST SWAP2 POP PUSH2 0x412 DUP3 PUSH2 0x3D3 JUMP JUMPDEST PUSH1 0x20 DUP3 ADD SWAP1 POP SWAP2 SWAP1 POP JUMP JUMPDEST PUSH0 PUSH1 0x20 DUP3 ADD SWAP1 POP DUP2 DUP2 SUB PUSH0 DUP4 ADD MSTORE PUSH2 0x434 DUP2 PUSH2 0x3FB JUMP JUMPDEST SWAP1 POP SWAP2 SWAP1 POP JUMP INVALID LOG2 PUSH5 0x6970667358 0x22 SLT KECCAK256 POP PUSH12 0x950D4DED9303E3DDE1A812C2 CODECOPY 0xEE 0xD7 0x24 SWAP3 JUMPI DUP10 XOR 0xD2 0x23 PUSH6 0x2A3B0DE4C40F TIMESTAMP PUSH5 0x736F6C6343 STOP ADDMOD SHR STOP CALLER "
				},
				"gasEstimates": {
					"creation": {
						"codeDepositCost": "227400",
						"executionCost": "24532",
						"totalCost": "251932"
					},
					"external": {
						"changeLuckyNumber(uint256)": "infinite",
						"getLuckyNumber()": "2475",
						"getOwner()": "2515",
						"setLuckyNumber(uint256)": "24661"
					}
				},
				"methodIdentifiers": {
					"changeLuckyNumber(uint256)": "e01049e9",
					"getLuckyNumber()": "e69f19cd",
					"getOwner()": "893d20e8",
					"setLuckyNumber(uint256)": "4f293734"
				}
			},
			"storageLayout": {
				"storage": [
					{
						"astId": 3,
						"contract": "Contracts/luckyNumber.sol:LuckyNumber",
						"label": "myNumber",
						"offset": 0,
						"slot": "0",
						"type": "t_uint256"
					},
					{
						"astId": 5,
						"contract": "Contracts/luckyNumber.sol:LuckyNumber",
						"label": "owner",
						"offset": 0,
						"slot": "1",
						"type": "t_address_payable"
					}
				],
				"types": {
					"t_address_payable": {
						"encoding": "inplace",
						"label": "address payable",
						"numberOfBytes": "20"
					},
					"t_uint256": {
						"encoding": "inplace",
						"label": "uint256",
						"numberOfBytes": "32"
					}
				}
			},
			"userdoc": {
				"kind": "user",
				"methods": {},
				"version": 1
			}
		}
	}
}