{
	"Contracts/Hackathon.sol": {
		"ChainLance": {
			"abi": [
				{
					"inputs": [],
					"stateMutability": "nonpayable",
					"type": "constructor"
				},
				{
					"anonymous": false,
					"inputs": [
						{
							"indexed": true,
							"internalType": "address",
							"name": "acountAddress",
							"type": "address"
						},
						{
							"indexed": false,
							"internalType": "bool",
							"name": "isEmployee_",
							"type": "bool"
						},
						{
							"indexed": false,
							"internalType": "bool",
							"name": "isEmployer_",
							"type": "bool"
						},
						{
							"indexed": false,
							"internalType": "bool",
							"name": "isMiddleman_",
							"type": "bool"
						}
					],
					"name": "accountCreated",
					"type": "event"
				},
				{
					"anonymous": false,
					"inputs": [
						{
							"indexed": true,
							"internalType": "address",
							"name": "applicant",
							"type": "address"
						},
						{
							"components": [
								{
									"internalType": "address",
									"name": "employer",
									"type": "address"
								},
								{
									"internalType": "uint256",
									"name": "numOfCandidates",
									"type": "uint256"
								},
								{
									"internalType": "uint256",
									"name": "amountToStake",
									"type": "uint256"
								},
								{
									"internalType": "bool",
									"name": "isSealed",
									"type": "bool"
								}
							],
							"indexed": false,
							"internalType": "struct ChainLance.OfferedWork",
							"name": "offeredWork",
							"type": "tuple"
						}
					],
					"name": "appliedToWork",
					"type": "event"
				},
				{
					"anonymous": false,
					"inputs": [
						{
							"components": [
								{
									"internalType": "address",
									"name": "employer",
									"type": "address"
								},
								{
									"internalType": "address",
									"name": "employee",
									"type": "address"
								},
								{
									"internalType": "address",
									"name": "middleman",
									"type": "address"
								},
								{
									"internalType": "uint256",
									"name": "amountForEmployee",
									"type": "uint256"
								},
								{
									"internalType": "uint256",
									"name": "askedMiddlemanNumber",
									"type": "uint256"
								},
								{
									"internalType": "bool",
									"name": "employeeDone",
									"type": "bool"
								},
								{
									"internalType": "bool",
									"name": "employerValidate",
									"type": "bool"
								},
								{
									"internalType": "bool",
									"name": "disputeRaised",
									"type": "bool"
								},
								{
									"internalType": "bool",
									"name": "resolveCheck",
									"type": "bool"
								}
							],
							"indexed": false,
							"internalType": "struct ChainLance.Agreement",
							"name": "agreement",
							"type": "tuple"
						},
						{
							"indexed": false,
							"internalType": "address",
							"name": "middleman",
							"type": "address"
						}
					],
					"name": "askedMiddleman",
					"type": "event"
				},
				{
					"anonymous": false,
					"inputs": [
						{
							"indexed": true,
							"internalType": "address",
							"name": "employee",
							"type": "address"
						},
						{
							"components": [
								{
									"internalType": "address",
									"name": "employer",
									"type": "address"
								},
								{
									"internalType": "address",
									"name": "employee",
									"type": "address"
								},
								{
									"internalType": "address",
									"name": "middleman",
									"type": "address"
								},
								{
									"internalType": "uint256",
									"name": "amountForEmployee",
									"type": "uint256"
								},
								{
									"internalType": "uint256",
									"name": "askedMiddlemanNumber",
									"type": "uint256"
								},
								{
									"internalType": "bool",
									"name": "employeeDone",
									"type": "bool"
								},
								{
									"internalType": "bool",
									"name": "employerValidate",
									"type": "bool"
								},
								{
									"internalType": "bool",
									"name": "disputeRaised",
									"type": "bool"
								},
								{
									"internalType": "bool",
									"name": "resolveCheck",
									"type": "bool"
								}
							],
							"indexed": false,
							"internalType": "struct ChainLance.Agreement",
							"name": "agreement",
							"type": "tuple"
						}
					],
					"name": "disputeRaised",
					"type": "event"
				},
				{
					"anonymous": false,
					"inputs": [
						{
							"components": [
								{
									"internalType": "address",
									"name": "employer",
									"type": "address"
								},
								{
									"internalType": "address",
									"name": "employee",
									"type": "address"
								},
								{
									"internalType": "address",
									"name": "middleman",
									"type": "address"
								},
								{
									"internalType": "uint256",
									"name": "amountForEmployee",
									"type": "uint256"
								},
								{
									"internalType": "uint256",
									"name": "askedMiddlemanNumber",
									"type": "uint256"
								},
								{
									"internalType": "bool",
									"name": "employeeDone",
									"type": "bool"
								},
								{
									"internalType": "bool",
									"name": "employerValidate",
									"type": "bool"
								},
								{
									"internalType": "bool",
									"name": "disputeRaised",
									"type": "bool"
								},
								{
									"internalType": "bool",
									"name": "resolveCheck",
									"type": "bool"
								}
							],
							"indexed": false,
							"internalType": "struct ChainLance.Agreement",
							"name": "agreement",
							"type": "tuple"
						}
					],
					"name": "disputeResolved",
					"type": "event"
				},
				{
					"anonymous": false,
					"inputs": [
						{
							"indexed": false,
							"internalType": "bool",
							"name": "employeeDone",
							"type": "bool"
						}
					],
					"name": "employeeDone",
					"type": "event"
				},
				{
					"anonymous": false,
					"inputs": [
						{
							"indexed": false,
							"internalType": "bool",
							"name": "employerValidated",
							"type": "bool"
						}
					],
					"name": "employerValidated",
					"type": "event"
				},
				{
					"anonymous": false,
					"inputs": [
						{
							"components": [
								{
									"internalType": "address",
									"name": "employer",
									"type": "address"
								},
								{
									"internalType": "address",
									"name": "employee",
									"type": "address"
								},
								{
									"internalType": "address",
									"name": "middleman",
									"type": "address"
								},
								{
									"internalType": "uint256",
									"name": "amountForEmployee",
									"type": "uint256"
								},
								{
									"internalType": "uint256",
									"name": "askedMiddlemanNumber",
									"type": "uint256"
								},
								{
									"internalType": "bool",
									"name": "employeeDone",
									"type": "bool"
								},
								{
									"internalType": "bool",
									"name": "employerValidate",
									"type": "bool"
								},
								{
									"internalType": "bool",
									"name": "disputeRaised",
									"type": "bool"
								},
								{
									"internalType": "bool",
									"name": "resolveCheck",
									"type": "bool"
								}
							],
							"indexed": false,
							"internalType": "struct ChainLance.Agreement",
							"name": "agreement",
							"type": "tuple"
						}
					],
					"name": "middlemanValidated",
					"type": "event"
				},
				{
					"anonymous": false,
					"inputs": [
						{
							"indexed": true,
							"internalType": "address",
							"name": "employee",
							"type": "address"
						},
						{
							"components": [
								{
									"internalType": "address",
									"name": "employer",
									"type": "address"
								},
								{
									"internalType": "address",
									"name": "employee",
									"type": "address"
								},
								{
									"internalType": "address",
									"name": "middleman",
									"type": "address"
								},
								{
									"internalType": "uint256",
									"name": "amountForEmployee",
									"type": "uint256"
								},
								{
									"internalType": "uint256",
									"name": "askedMiddlemanNumber",
									"type": "uint256"
								},
								{
									"internalType": "bool",
									"name": "employeeDone",
									"type": "bool"
								},
								{
									"internalType": "bool",
									"name": "employerValidate",
									"type": "bool"
								},
								{
									"internalType": "bool",
									"name": "disputeRaised",
									"type": "bool"
								},
								{
									"internalType": "bool",
									"name": "resolveCheck",
									"type": "bool"
								}
							],
							"indexed": false,
							"internalType": "struct ChainLance.Agreement",
							"name": "agreement",
							"type": "tuple"
						}
					],
					"name": "reqruitedEmployee",
					"type": "event"
				},
				{
					"anonymous": false,
					"inputs": [
						{
							"indexed": false,
							"internalType": "address",
							"name": "suggested",
							"type": "address"
						},
						{
							"indexed": false,
							"internalType": "address",
							"name": "middleman",
							"type": "address"
						},
						{
							"components": [
								{
									"internalType": "address",
									"name": "employer",
									"type": "address"
								},
								{
									"internalType": "address",
									"name": "employee",
									"type": "address"
								},
								{
									"internalType": "address",
									"name": "middleman",
									"type": "address"
								},
								{
									"internalType": "uint256",
									"name": "amountForEmployee",
									"type": "uint256"
								},
								{
									"internalType": "uint256",
									"name": "askedMiddlemanNumber",
									"type": "uint256"
								},
								{
									"internalType": "bool",
									"name": "employeeDone",
									"type": "bool"
								},
								{
									"internalType": "bool",
									"name": "employerValidate",
									"type": "bool"
								},
								{
									"internalType": "bool",
									"name": "disputeRaised",
									"type": "bool"
								},
								{
									"internalType": "bool",
									"name": "resolveCheck",
									"type": "bool"
								}
							],
							"indexed": false,
							"internalType": "struct ChainLance.Agreement",
							"name": "agreement",
							"type": "tuple"
						}
					],
					"name": "suggestedMiddleman",
					"type": "event"
				},
				{
					"anonymous": false,
					"inputs": [
						{
							"components": [
								{
									"internalType": "address",
									"name": "employer",
									"type": "address"
								},
								{
									"internalType": "uint256",
									"name": "numOfCandidates",
									"type": "uint256"
								},
								{
									"internalType": "uint256",
									"name": "amountToStake",
									"type": "uint256"
								},
								{
									"internalType": "bool",
									"name": "isSealed",
									"type": "bool"
								}
							],
							"indexed": false,
							"internalType": "struct ChainLance.OfferedWork",
							"name": "offeredWork",
							"type": "tuple"
						}
					],
					"name": "workDeleted",
					"type": "event"
				},
				{
					"anonymous": false,
					"inputs": [
						{
							"indexed": true,
							"internalType": "address",
							"name": "offeredBy",
							"type": "address"
						},
						{
							"components": [
								{
									"internalType": "address",
									"name": "employer",
									"type": "address"
								},
								{
									"internalType": "uint256",
									"name": "numOfCandidates",
									"type": "uint256"
								},
								{
									"internalType": "uint256",
									"name": "amountToStake",
									"type": "uint256"
								},
								{
									"internalType": "bool",
									"name": "isSealed",
									"type": "bool"
								}
							],
							"indexed": false,
							"internalType": "struct ChainLance.OfferedWork",
							"name": "offeredWork",
							"type": "tuple"
						}
					],
					"name": "workOffered",
					"type": "event"
				},
				{
					"stateMutability": "payable",
					"type": "fallback"
				},
				{
					"inputs": [],
					"name": "AIaddress",
					"outputs": [
						{
							"internalType": "address payable",
							"name": "",
							"type": "address"
						}
					],
					"stateMutability": "view",
					"type": "function"
				},
				{
					"inputs": [
						{
							"internalType": "uint256",
							"name": "",
							"type": "uint256"
						}
					],
					"name": "agreements",
					"outputs": [
						{
							"internalType": "address",
							"name": "employer",
							"type": "address"
						},
						{
							"internalType": "address",
							"name": "employee",
							"type": "address"
						},
						{
							"internalType": "address",
							"name": "middleman",
							"type": "address"
						},
						{
							"internalType": "uint256",
							"name": "amountForEmployee",
							"type": "uint256"
						},
						{
							"internalType": "uint256",
							"name": "askedMiddlemanNumber",
							"type": "uint256"
						},
						{
							"internalType": "bool",
							"name": "employeeDone",
							"type": "bool"
						},
						{
							"internalType": "bool",
							"name": "employerValidate",
							"type": "bool"
						},
						{
							"internalType": "bool",
							"name": "disputeRaised",
							"type": "bool"
						},
						{
							"internalType": "bool",
							"name": "resolveCheck",
							"type": "bool"
						}
					],
					"stateMutability": "view",
					"type": "function"
				},
				{
					"inputs": [
						{
							"internalType": "uint256",
							"name": "which_",
							"type": "uint256"
						}
					],
					"name": "applyOfferedWork",
					"outputs": [],
					"stateMutability": "nonpayable",
					"type": "function"
				},
				{
					"inputs": [],
					"name": "balanceRecieved",
					"outputs": [
						{
							"internalType": "uint256",
							"name": "",
							"type": "uint256"
						}
					],
					"stateMutability": "view",
					"type": "function"
				},
				{
					"inputs": [
						{
							"internalType": "uint256",
							"name": "which_",
							"type": "uint256"
						}
					],
					"name": "deleteWork",
					"outputs": [],
					"stateMutability": "nonpayable",
					"type": "function"
				},
				{
					"inputs": [
						{
							"internalType": "address",
							"name": "address_",
							"type": "address"
						}
					],
					"name": "getAccount",
					"outputs": [
						{
							"components": [
								{
									"internalType": "bool",
									"name": "isEmployer",
									"type": "bool"
								},
								{
									"internalType": "bool",
									"name": "isEmployee",
									"type": "bool"
								},
								{
									"internalType": "bool",
									"name": "isMiddleman",
									"type": "bool"
								},
								{
									"internalType": "bool",
									"name": "registered",
									"type": "bool"
								}
							],
							"internalType": "struct ChainLance.Account",
							"name": "",
							"type": "tuple"
						}
					],
					"stateMutability": "view",
					"type": "function"
				},
				{
					"inputs": [
						{
							"internalType": "uint256",
							"name": "which_",
							"type": "uint256"
						}
					],
					"name": "getAgreement",
					"outputs": [
						{
							"components": [
								{
									"internalType": "address",
									"name": "employer",
									"type": "address"
								},
								{
									"internalType": "address",
									"name": "employee",
									"type": "address"
								},
								{
									"internalType": "address",
									"name": "middleman",
									"type": "address"
								},
								{
									"internalType": "uint256",
									"name": "amountForEmployee",
									"type": "uint256"
								},
								{
									"internalType": "uint256",
									"name": "askedMiddlemanNumber",
									"type": "uint256"
								},
								{
									"internalType": "bool",
									"name": "employeeDone",
									"type": "bool"
								},
								{
									"internalType": "bool",
									"name": "employerValidate",
									"type": "bool"
								},
								{
									"internalType": "bool",
									"name": "disputeRaised",
									"type": "bool"
								},
								{
									"internalType": "bool",
									"name": "resolveCheck",
									"type": "bool"
								}
							],
							"internalType": "struct ChainLance.Agreement",
							"name": "",
							"type": "tuple"
						}
					],
					"stateMutability": "view",
					"type": "function"
				},
				{
					"inputs": [
						{
							"internalType": "uint256",
							"name": "whichAgreement_",
							"type": "uint256"
						},
						{
							"internalType": "uint256",
							"name": "whichMiddleman_",
							"type": "uint256"
						}
					],
					"name": "getAskedMiddleman",
					"outputs": [
						{
							"internalType": "address",
							"name": "",
							"type": "address"
						}
					],
					"stateMutability": "view",
					"type": "function"
				},
				{
					"inputs": [
						{
							"internalType": "uint256",
							"name": "offeredWorkNumber_",
							"type": "uint256"
						},
						{
							"internalType": "uint256",
							"name": "candidateNumber_",
							"type": "uint256"
						}
					],
					"name": "getCandidates",
					"outputs": [
						{
							"internalType": "address",
							"name": "",
							"type": "address"
						}
					],
					"stateMutability": "view",
					"type": "function"
				},
				{
					"inputs": [
						{
							"internalType": "uint256",
							"name": "whichAgreement_",
							"type": "uint256"
						}
					],
					"name": "getMiddleman",
					"outputs": [
						{
							"internalType": "address",
							"name": "",
							"type": "address"
						}
					],
					"stateMutability": "view",
					"type": "function"
				},
				{
					"inputs": [
						{
							"internalType": "uint256",
							"name": "whichAgreement_",
							"type": "uint256"
						},
						{
							"internalType": "uint256",
							"name": "whichMiddleman_",
							"type": "uint256"
						}
					],
					"name": "middleManValidate",
					"outputs": [],
					"stateMutability": "nonpayable",
					"type": "function"
				},
				{
					"inputs": [
						{
							"internalType": "bool",
							"name": "isEmployee_",
							"type": "bool"
						},
						{
							"internalType": "bool",
							"name": "isEmployer_",
							"type": "bool"
						},
						{
							"internalType": "bool",
							"name": "isMiddleman_",
							"type": "bool"
						}
					],
					"name": "newAccount",
					"outputs": [],
					"stateMutability": "nonpayable",
					"type": "function"
				},
				{
					"inputs": [],
					"name": "numOfAgreements",
					"outputs": [
						{
							"internalType": "uint256",
							"name": "",
							"type": "uint256"
						}
					],
					"stateMutability": "view",
					"type": "function"
				},
				{
					"inputs": [],
					"name": "numOfOfferedWorks",
					"outputs": [
						{
							"internalType": "uint256",
							"name": "",
							"type": "uint256"
						}
					],
					"stateMutability": "view",
					"type": "function"
				},
				{
					"inputs": [],
					"name": "offerWork",
					"outputs": [],
					"stateMutability": "payable",
					"type": "function"
				},
				{
					"inputs": [
						{
							"internalType": "uint256",
							"name": "",
							"type": "uint256"
						}
					],
					"name": "offeredWorks",
					"outputs": [
						{
							"internalType": "address",
							"name": "employer",
							"type": "address"
						},
						{
							"internalType": "uint256",
							"name": "numOfCandidates",
							"type": "uint256"
						},
						{
							"internalType": "uint256",
							"name": "amountToStake",
							"type": "uint256"
						},
						{
							"internalType": "bool",
							"name": "isSealed",
							"type": "bool"
						}
					],
					"stateMutability": "view",
					"type": "function"
				},
				{
					"inputs": [
						{
							"internalType": "uint256",
							"name": "whichAgreement_",
							"type": "uint256"
						}
					],
					"name": "raiseDispute",
					"outputs": [],
					"stateMutability": "nonpayable",
					"type": "function"
				},
				{
					"inputs": [
						{
							"internalType": "uint256",
							"name": "whichOffer_",
							"type": "uint256"
						},
						{
							"internalType": "uint256",
							"name": "whichCandidate_",
							"type": "uint256"
						}
					],
					"name": "reqruitEmployee",
					"outputs": [],
					"stateMutability": "nonpayable",
					"type": "function"
				},
				{
					"inputs": [
						{
							"internalType": "uint256",
							"name": "whichAgreement_",
							"type": "uint256"
						},
						{
							"internalType": "address",
							"name": "beneficiary",
							"type": "address"
						}
					],
					"name": "resolveDispluteAI",
					"outputs": [],
					"stateMutability": "nonpayable",
					"type": "function"
				},
				{
					"inputs": [
						{
							"internalType": "uint256",
							"name": "whichAgreement_",
							"type": "uint256"
						},
						{
							"internalType": "uint256",
							"name": "employeePercent",
							"type": "uint256"
						},
						{
							"internalType": "uint256",
							"name": "employerPercent",
							"type": "uint256"
						}
					],
					"name": "resolveDispluteMiddleman",
					"outputs": [],
					"stateMutability": "nonpayable",
					"type": "function"
				},
				{
					"inputs": [
						{
							"internalType": "uint256",
							"name": "whichAgreement_",
							"type": "uint256"
						}
					],
					"name": "setEmployeeDone",
					"outputs": [],
					"stateMutability": "nonpayable",
					"type": "function"
				},
				{
					"inputs": [
						{
							"internalType": "uint256",
							"name": "whichAgreement_",
							"type": "uint256"
						}
					],
					"name": "setEmployerValidate",
					"outputs": [],
					"stateMutability": "nonpayable",
					"type": "function"
				},
				{
					"inputs": [
						{
							"internalType": "uint256",
							"name": "whichAgreement_",
							"type": "uint256"
						},
						{
							"internalType": "address",
							"name": "middleman_",
							"type": "address"
						}
					],
					"name": "suggestMiddleman",
					"outputs": [],
					"stateMutability": "nonpayable",
					"type": "function"
				},
				{
					"stateMutability": "payable",
					"type": "receive"
				}
			],
			"devdoc": {
				"kind": "dev",
				"methods": {},
				"version": 1
			},
			"evm": {
				"assembly": "    /* \"Contracts/Hackathon.sol\":60:12768  contract ChainLance {... */\n  mstore(0x40, 0x80)\n    /* \"Contracts/Hackathon.sol\":1969:2033  constructor() {... */\n  callvalue\n  dup1\n  iszero\n  tag_1\n  jumpi\n  0x00\n  dup1\n  revert\ntag_1:\n  pop\n    /* \"Contracts/Hackathon.sol\":1994:2003  AIaddress */\n  0x01\n    /* \"Contracts/Hackathon.sol\":1994:2025  AIaddress = payable(msg.sender) */\n  dup1\n  sload\n  not(sub(shl(0xa0, 0x01), 0x01))\n  and\n    /* \"Contracts/Hackathon.sol\":2014:2024  msg.sender */\n  caller\n    /* \"Contracts/Hackathon.sol\":1994:2025  AIaddress = payable(msg.sender) */\n  or\n  swap1\n  sstore\n    /* \"Contracts/Hackathon.sol\":60:12768  contract ChainLance {... */\n  dataSize(sub_0)\n  dup1\n  dataOffset(sub_0)\n  0x00\n  codecopy\n  0x00\n  return\nstop\n\nsub_0: assembly {\n        /* \"Contracts/Hackathon.sol\":60:12768  contract ChainLance {... */\n      mstore(0x40, 0x80)\n      jumpi(tag_1, lt(calldatasize, 0x04))\n      shr(0xe0, calldataload(0x00))\n      dup1\n      0xa5c1674e\n      gt\n      tag_26\n      jumpi\n      dup1\n      0xd4c06b8d\n      gt\n      tag_27\n      jumpi\n      dup1\n      0xd4c06b8d\n      eq\n      tag_20\n      jumpi\n      dup1\n      0xe43caa91\n      eq\n      tag_21\n      jumpi\n      dup1\n      0xef32fc51\n      eq\n      tag_22\n      jumpi\n      dup1\n      0xfbcbc0f1\n      eq\n      tag_23\n      jumpi\n      dup1\n      0xff4db898\n      eq\n      tag_24\n      jumpi\n      dup1\n      0xff69d8df\n      eq\n      tag_25\n      jumpi\n      stop\n    tag_27:\n      dup1\n      0xa5c1674e\n      eq\n      tag_14\n      jumpi\n      dup1\n      0xb1ae266b\n      eq\n      tag_15\n      jumpi\n      dup1\n      0xbd14de96\n      eq\n      tag_16\n      jumpi\n      dup1\n      0xc0d58835\n      eq\n      tag_17\n      jumpi\n      dup1\n      0xc7a488a1\n      eq\n      tag_18\n      jumpi\n      dup1\n      0xcf3b8fc7\n      eq\n      tag_19\n      jumpi\n      stop\n    tag_26:\n      dup1\n      0x4f9f6fe6\n      gt\n      tag_28\n      jumpi\n      dup1\n      0x4f9f6fe6\n      eq\n      tag_8\n      jumpi\n      dup1\n      0x5ec448c7\n      eq\n      tag_9\n      jumpi\n      dup1\n      0x8589c725\n      eq\n      tag_10\n      jumpi\n      dup1\n      0x880b5212\n      eq\n      tag_11\n      jumpi\n      dup1\n      0x88945938\n      eq\n      tag_12\n      jumpi\n      dup1\n      0xa151bc22\n      eq\n      tag_13\n      jumpi\n      stop\n    tag_28:\n      dup1\n      0x04bf66c6\n      eq\n      tag_3\n      jumpi\n      dup1\n      0x0de37bf6\n      eq\n      tag_4\n      jumpi\n      dup1\n      0x0fe629ee\n      eq\n      tag_5\n      jumpi\n      dup1\n      0x1cefaf22\n      eq\n      tag_6\n      jumpi\n      dup1\n      0x3d6b56e9\n      eq\n      tag_7\n      jumpi\n      stop\n    tag_1:\n      jumpi(tag_2, calldatasize)\n      stop\n    tag_2:\n      stop\n        /* \"Contracts/Hackathon.sol\":6039:6766  function reqruitEmployee(uint whichOffer_, uint whichCandidate_) public onlyEmployer {... */\n    tag_3:\n      callvalue\n      dup1\n      iszero\n      tag_33\n      jumpi\n      0x00\n      dup1\n      revert\n    tag_33:\n      pop\n      tag_2\n      tag_35\n      calldatasize\n      0x04\n      tag_36\n      jump\t// in\n    tag_35:\n      tag_37\n      jump\t// in\n        /* \"Contracts/Hackathon.sol\":10630:11719  function resolveDispluteMiddleman(uint whichAgreement_, uint employeePercent, uint employerPercent) public {... */\n    tag_4:\n      callvalue\n      dup1\n      iszero\n      tag_38\n      jumpi\n      0x00\n      dup1\n      revert\n    tag_38:\n      pop\n      tag_2\n      tag_40\n      calldatasize\n      0x04\n      tag_41\n      jump\t// in\n    tag_40:\n      tag_42\n      jump\t// in\n        /* \"Contracts/Hackathon.sol\":196:225  uint public numOfOfferedWorks */\n    tag_5:\n      callvalue\n      dup1\n      iszero\n      tag_43\n      jumpi\n      0x00\n      dup1\n      revert\n    tag_43:\n      pop\n      tag_44\n      sload(0x03)\n      dup2\n      jump\n    tag_44:\n      mload(0x40)\n        /* \"#utility.yul\":982:1007   */\n      swap1\n      dup2\n      mstore\n        /* \"#utility.yul\":970:972   */\n      0x20\n        /* \"#utility.yul\":955:973   */\n      add\n        /* \"Contracts/Hackathon.sol\":196:225  uint public numOfOfferedWorks */\n    tag_46:\n      mload(0x40)\n      dup1\n      swap2\n      sub\n      swap1\n      return\n        /* \"Contracts/Hackathon.sol\":123:155  address payable public AIaddress */\n    tag_6:\n      callvalue\n      dup1\n      iszero\n      tag_48\n      jumpi\n      0x00\n      dup1\n      revert\n    tag_48:\n      pop\n      sload(0x01)\n      tag_49\n      swap1\n      sub(shl(0xa0, 0x01), 0x01)\n      and\n      dup2\n      jump\n    tag_49:\n      mload(0x40)\n      sub(shl(0xa0, 0x01), 0x01)\n        /* \"#utility.yul\":1315:1347   */\n      swap1\n      swap2\n      and\n        /* \"#utility.yul\":1297:1348   */\n      dup2\n      mstore\n        /* \"#utility.yul\":1285:1287   */\n      0x20\n        /* \"#utility.yul\":1270:1288   */\n      add\n        /* \"Contracts/Hackathon.sol\":123:155  address payable public AIaddress */\n      tag_46\n        /* \"#utility.yul\":1135:1354   */\n      jump\n        /* \"Contracts/Hackathon.sol\":8323:8498  function getAskedMiddleman(uint whichAgreement_, uint whichMiddleman_) public view returns(address) {... */\n    tag_7:\n      callvalue\n      dup1\n      iszero\n      tag_53\n      jumpi\n      0x00\n      dup1\n      revert\n    tag_53:\n      pop\n      tag_49\n      tag_55\n      calldatasize\n      0x04\n      tag_36\n      jump\t// in\n    tag_55:\n      tag_56\n      jump\t// in\n        /* \"Contracts/Hackathon.sol\":6774:6891  function getAgreement(uint which_) public view returns(Agreement memory) {... */\n    tag_8:\n      callvalue\n      dup1\n      iszero\n      tag_59\n      jumpi\n      0x00\n      dup1\n      revert\n    tag_59:\n      pop\n      tag_60\n      tag_61\n      calldatasize\n      0x04\n      tag_62\n      jump\t// in\n    tag_61:\n      tag_63\n      jump\t// in\n    tag_60:\n      mload(0x40)\n      tag_46\n      swap2\n      swap1\n      tag_65\n      jump\t// in\n        /* \"Contracts/Hackathon.sol\":232:280  mapping(uint => OfferedWork) public offeredWorks */\n    tag_9:\n      callvalue\n      dup1\n      iszero\n      tag_66\n      jumpi\n      0x00\n      dup1\n      revert\n    tag_66:\n      pop\n      tag_67\n      tag_68\n      calldatasize\n      0x04\n      tag_62\n      jump\t// in\n    tag_68:\n      mstore(0x20, 0x04)\n      0x00\n      swap1\n      dup2\n      mstore\n      0x40\n      swap1\n      keccak256\n      dup1\n      sload\n      0x01\n      dup3\n      add\n      sload\n      0x02\n      dup4\n      add\n      sload\n      0x03\n      swap1\n      swap4\n      add\n      sload\n      sub(shl(0xa0, 0x01), 0x01)\n      swap1\n      swap3\n      and\n      swap3\n      swap1\n      swap2\n      0xff\n      and\n      dup5\n      jump\n    tag_67:\n      0x40\n      dup1\n      mload\n      sub(shl(0xa0, 0x01), 0x01)\n        /* \"#utility.yul\":3216:3248   */\n      swap1\n      swap6\n      and\n        /* \"#utility.yul\":3198:3249   */\n      dup6\n      mstore\n        /* \"#utility.yul\":3280:3282   */\n      0x20\n        /* \"#utility.yul\":3265:3283   */\n      dup6\n      add\n        /* \"#utility.yul\":3258:3292   */\n      swap4\n      swap1\n      swap4\n      mstore\n        /* \"#utility.yul\":3308:3326   */\n      swap2\n      dup4\n      add\n        /* \"#utility.yul\":3301:3335   */\n      mstore\n        /* \"#utility.yul\":3378:3392   */\n      iszero\n        /* \"#utility.yul\":3371:3393   */\n      iszero\n        /* \"#utility.yul\":3366:3368   */\n      0x60\n        /* \"#utility.yul\":3351:3369   */\n      dup3\n      add\n        /* \"#utility.yul\":3344:3394   */\n      mstore\n        /* \"#utility.yul\":3185:3188   */\n      0x80\n        /* \"#utility.yul\":3170:3189   */\n      add\n        /* \"Contracts/Hackathon.sol\":232:280  mapping(uint => OfferedWork) public offeredWorks */\n      tag_46\n        /* \"#utility.yul\":2973:3400   */\n      jump\n        /* \"Contracts/Hackathon.sol\":4812:5374  function deleteWork(uint which_) public onlyEmployer {... */\n    tag_10:\n      callvalue\n      dup1\n      iszero\n      tag_72\n      jumpi\n      0x00\n      dup1\n      revert\n    tag_72:\n      pop\n      tag_2\n      tag_74\n      calldatasize\n      0x04\n      tag_62\n      jump\t// in\n    tag_74:\n      tag_75\n      jump\t// in\n        /* \"Contracts/Hackathon.sol\":4323:4804  function offerWork() public payable onlyEmployer {... */\n    tag_11:\n      tag_2\n      tag_77\n      jump\t// in\n        /* \"Contracts/Hackathon.sol\":5382:5725  function applyOfferedWork(uint which_) public onlyEmployee {... */\n    tag_12:\n      callvalue\n      dup1\n      iszero\n      tag_78\n      jumpi\n      0x00\n      dup1\n      revert\n    tag_78:\n      pop\n      tag_2\n      tag_80\n      calldatasize\n      0x04\n      tag_62\n      jump\t// in\n    tag_80:\n      tag_81\n      jump\t// in\n        /* \"Contracts/Hackathon.sol\":5733:6031  function getCandidates(uint offeredWorkNumber_, uint candidateNumber_) public view returns(address){... */\n    tag_13:\n      callvalue\n      dup1\n      iszero\n      tag_82\n      jumpi\n      0x00\n      dup1\n      revert\n    tag_82:\n      pop\n      tag_49\n      tag_84\n      calldatasize\n      0x04\n      tag_36\n      jump\t// in\n    tag_84:\n      tag_85\n      jump\t// in\n        /* \"Contracts/Hackathon.sol\":9902:10247  function raiseDispute(uint whichAgreement_) public {... */\n    tag_14:\n      callvalue\n      dup1\n      iszero\n      tag_87\n      jumpi\n      0x00\n      dup1\n      revert\n    tag_87:\n      pop\n      tag_2\n      tag_89\n      calldatasize\n      0x04\n      tag_62\n      jump\t// in\n    tag_89:\n      tag_90\n      jump\t// in\n        /* \"Contracts/Hackathon.sol\":11787:12688  function resolveDispluteAI(uint whichAgreement_, address beneficiary) public {... */\n    tag_15:\n      callvalue\n      dup1\n      iszero\n      tag_91\n      jumpi\n      0x00\n      dup1\n      revert\n    tag_91:\n      pop\n      tag_2\n      tag_93\n      calldatasize\n      0x04\n      tag_94\n      jump\t// in\n    tag_93:\n      tag_95\n      jump\t// in\n        /* \"Contracts/Hackathon.sol\":380:424  mapping(uint => Agreement) public agreements */\n    tag_16:\n      callvalue\n      dup1\n      iszero\n      tag_96\n      jumpi\n      0x00\n      dup1\n      revert\n    tag_96:\n      pop\n      tag_97\n      tag_98\n      calldatasize\n      0x04\n      tag_62\n      jump\t// in\n    tag_98:\n      0x05\n      0x20\n      dup2\n      swap1\n      mstore\n      0x00\n      swap2\n      dup3\n      mstore\n      0x40\n      swap1\n      swap2\n      keccak256\n      dup1\n      sload\n      0x01\n      dup3\n      add\n      sload\n      0x02\n      dup4\n      add\n      sload\n      0x03\n      dup5\n      add\n      sload\n      0x04\n      dup6\n      add\n      sload\n      swap5\n      swap1\n      swap6\n      add\n      sload\n      sub(shl(0xa0, 0x01), 0x01)\n      swap4\n      dup5\n      and\n      swap6\n      swap3\n      dup5\n      and\n      swap5\n      swap2\n      swap1\n      swap4\n      and\n      swap3\n      0xff\n      dup1\n      dup3\n      and\n      swap2\n      0x0100\n      dup2\n      div\n      dup3\n      and\n      swap2\n      0x010000\n      dup3\n      div\n      dup2\n      and\n      swap2\n      0x01000000\n      swap1\n      div\n      and\n      dup10\n      jump\n    tag_97:\n      0x40\n      dup1\n      mload\n      sub(shl(0xa0, 0x01), 0x01)\n        /* \"#utility.yul\":4253:4285   */\n      swap11\n      dup12\n      and\n        /* \"#utility.yul\":4235:4286   */\n      dup2\n      mstore\n        /* \"#utility.yul\":4322:4354   */\n      swap9\n      dup11\n      and\n        /* \"#utility.yul\":4317:4319   */\n      0x20\n        /* \"#utility.yul\":4302:4320   */\n      dup11\n      add\n        /* \"#utility.yul\":4295:4355   */\n      mstore\n        /* \"#utility.yul\":4391:4423   */\n      swap7\n      swap1\n      swap9\n      and\n        /* \"#utility.yul\":4371:4389   */\n      swap6\n      dup8\n      add\n        /* \"#utility.yul\":4364:4424   */\n      swap6\n      swap1\n      swap6\n      mstore\n        /* \"#utility.yul\":4455:4457   */\n      0x60\n        /* \"#utility.yul\":4440:4458   */\n      dup7\n      add\n        /* \"#utility.yul\":4433:4467   */\n      swap4\n      swap1\n      swap4\n      mstore\n        /* \"#utility.yul\":4498:4501   */\n      0x80\n        /* \"#utility.yul\":4483:4502   */\n      dup6\n      add\n        /* \"#utility.yul\":4476:4511   */\n      swap2\n      swap1\n      swap2\n      mstore\n        /* \"#utility.yul\":4555:4569   */\n      iszero\n        /* \"#utility.yul\":4548:4570   */\n      iszero\n        /* \"#utility.yul\":4273:4276   */\n      0xa0\n        /* \"#utility.yul\":4527:4546   */\n      dup5\n      add\n        /* \"#utility.yul\":4520:4571   */\n      mstore\n        /* \"#utility.yul\":4615:4629   */\n      iszero\n        /* \"#utility.yul\":4608:4630   */\n      iszero\n        /* \"#utility.yul\":4602:4605   */\n      0xc0\n        /* \"#utility.yul\":4587:4606   */\n      dup4\n      add\n        /* \"#utility.yul\":4580:4631   */\n      mstore\n        /* \"#utility.yul\":4675:4689   */\n      iszero\n        /* \"#utility.yul\":4668:4690   */\n      iszero\n        /* \"#utility.yul\":4662:4665   */\n      0xe0\n        /* \"#utility.yul\":4647:4666   */\n      dup3\n      add\n        /* \"#utility.yul\":4640:4691   */\n      mstore\n        /* \"#utility.yul\":4735:4749   */\n      swap1\n      iszero\n        /* \"#utility.yul\":4728:4750   */\n      iszero\n        /* \"#utility.yul\":4722:4725   */\n      0x0100\n        /* \"#utility.yul\":4707:4726   */\n      dup3\n      add\n        /* \"#utility.yul\":4700:4751   */\n      mstore\n        /* \"#utility.yul\":4222:4225   */\n      0x0120\n        /* \"#utility.yul\":4207:4226   */\n      add\n        /* \"Contracts/Hackathon.sol\":380:424  mapping(uint => Agreement) public agreements */\n      tag_46\n        /* \"#utility.yul\":3888:4757   */\n      jump\n        /* \"Contracts/Hackathon.sol\":3336:4189  function newAccount(bool isEmployee_, bool isEmployer_,bool isMiddleman_) public {... */\n    tag_17:\n      callvalue\n      dup1\n      iszero\n      tag_102\n      jumpi\n      0x00\n      dup1\n      revert\n    tag_102:\n      pop\n      tag_2\n      tag_104\n      calldatasize\n      0x04\n      tag_105\n      jump\t// in\n    tag_104:\n      tag_106\n      jump\t// in\n        /* \"Contracts/Hackathon.sol\":9012:9284  function setEmployeeDone(uint whichAgreement_) public {... */\n    tag_18:\n      callvalue\n      dup1\n      iszero\n      tag_107\n      jumpi\n      0x00\n      dup1\n      revert\n    tag_107:\n      pop\n      tag_2\n      tag_109\n      calldatasize\n      0x04\n      tag_62\n      jump\t// in\n    tag_109:\n      tag_110\n      jump\t// in\n        /* \"Contracts/Hackathon.sol\":8650:9004  function middleManValidate(uint whichAgreement_, uint whichMiddleman_) public {... */\n    tag_19:\n      callvalue\n      dup1\n      iszero\n      tag_111\n      jumpi\n      0x00\n      dup1\n      revert\n    tag_111:\n      pop\n      tag_2\n      tag_113\n      calldatasize\n      0x04\n      tag_36\n      jump\t// in\n    tag_113:\n      tag_114\n      jump\t// in\n        /* \"Contracts/Hackathon.sol\":89:116  uint public balanceRecieved */\n    tag_20:\n      callvalue\n      dup1\n      iszero\n      tag_115\n      jumpi\n      0x00\n      dup1\n      revert\n    tag_115:\n      pop\n      tag_44\n      sload(0x00)\n      dup2\n      jump\n        /* \"Contracts/Hackathon.sol\":9292:9894  function setEmployerValidate(uint whichAgreement_) public {... */\n    tag_21:\n      callvalue\n      dup1\n      iszero\n      tag_119\n      jumpi\n      0x00\n      dup1\n      revert\n    tag_119:\n      pop\n      tag_2\n      tag_121\n      calldatasize\n      0x04\n      tag_62\n      jump\t// in\n    tag_121:\n      tag_122\n      jump\t// in\n        /* \"Contracts/Hackathon.sol\":162:189  uint public numOfAgreements */\n    tag_22:\n      callvalue\n      dup1\n      iszero\n      tag_123\n      jumpi\n      0x00\n      dup1\n      revert\n    tag_123:\n      pop\n      tag_44\n      sload(0x02)\n      dup2\n      jump\n        /* \"Contracts/Hackathon.sol\":4197:4315  function getAccount(address address_) public view returns(Account memory) {... */\n    tag_23:\n      callvalue\n      dup1\n      iszero\n      tag_127\n      jumpi\n      0x00\n      dup1\n      revert\n    tag_127:\n      pop\n      tag_128\n      tag_129\n      calldatasize\n      0x04\n      tag_130\n      jump\t// in\n    tag_129:\n      0x40\n      dup1\n      mload\n      0x80\n      dup2\n      add\n      dup3\n      mstore\n      0x00\n      dup1\n      dup3\n      mstore\n      0x20\n      dup3\n      add\n      dup2\n      swap1\n      mstore\n      swap2\n      dup2\n      add\n      dup3\n      swap1\n      mstore\n      0x60\n      dup2\n      add\n      swap2\n      swap1\n      swap2\n      mstore\n      pop\n      sub(shl(0xa0, 0x01), 0x01)\n        /* \"Contracts/Hackathon.sol\":4289:4307  accounts[address_] */\n      and\n      0x00\n      swap1\n      dup2\n      mstore\n        /* \"Contracts/Hackathon.sol\":4289:4297  accounts */\n      0x07\n        /* \"Contracts/Hackathon.sol\":4289:4307  accounts[address_] */\n      0x20\n      swap1\n      dup2\n      mstore\n      0x40\n      swap2\n      dup3\n      swap1\n      keccak256\n        /* \"Contracts/Hackathon.sol\":4282:4307  return accounts[address_] */\n      dup3\n      mload\n      0x80\n      dup2\n      add\n      dup5\n      mstore\n      swap1\n      sload\n      0xff\n      dup1\n      dup3\n      and\n      iszero\n      iszero\n      dup4\n      mstore\n      0x0100\n      dup3\n      div\n      dup2\n      and\n      iszero\n      iszero\n      swap4\n      dup4\n      add\n      swap4\n      swap1\n      swap4\n      mstore\n      0x010000\n      dup2\n      div\n      dup4\n      and\n      iszero\n      iszero\n      swap4\n      dup3\n      add\n      swap4\n      swap1\n      swap4\n      mstore\n      0x01000000\n      swap1\n      swap3\n      div\n      and\n      iszero\n      iszero\n      0x60\n      dup3\n      add\n      mstore\n      swap1\n        /* \"Contracts/Hackathon.sol\":4197:4315  function getAccount(address address_) public view returns(Account memory) {... */\n      jump\n    tag_128:\n      mload(0x40)\n      tag_46\n      swap2\n      swap1\n        /* \"#utility.yul\":5666:5679   */\n      dup2\n      mload\n        /* \"#utility.yul\":5659:5680   */\n      iszero\n        /* \"#utility.yul\":5652:5681   */\n      iszero\n        /* \"#utility.yul\":5634:5682   */\n      dup2\n      mstore\n        /* \"#utility.yul\":5752:5756   */\n      0x20\n        /* \"#utility.yul\":5740:5757   */\n      dup1\n      dup4\n      add\n        /* \"#utility.yul\":5734:5758   */\n      mload\n        /* \"#utility.yul\":5727:5759   */\n      iszero\n        /* \"#utility.yul\":5720:5760   */\n      iszero\n        /* \"#utility.yul\":5698:5718   */\n      swap1\n      dup3\n      add\n        /* \"#utility.yul\":5691:5761   */\n      mstore\n        /* \"#utility.yul\":5831:5835   */\n      0x40\n        /* \"#utility.yul\":5819:5836   */\n      dup1\n      dup4\n      add\n        /* \"#utility.yul\":5813:5837   */\n      mload\n        /* \"#utility.yul\":5806:5838   */\n      iszero\n        /* \"#utility.yul\":5799:5839   */\n      iszero\n        /* \"#utility.yul\":5777:5797   */\n      swap1\n      dup3\n      add\n        /* \"#utility.yul\":5770:5840   */\n      mstore\n        /* \"#utility.yul\":5910:5914   */\n      0x60\n        /* \"#utility.yul\":5898:5915   */\n      swap2\n      dup3\n      add\n        /* \"#utility.yul\":5892:5916   */\n      mload\n        /* \"#utility.yul\":5885:5917   */\n      iszero\n        /* \"#utility.yul\":5878:5918   */\n      iszero\n        /* \"#utility.yul\":5856:5876   */\n      swap2\n      dup2\n      add\n        /* \"#utility.yul\":5849:5919   */\n      swap2\n      swap1\n      swap2\n      mstore\n        /* \"#utility.yul\":5621:5624   */\n      0x80\n        /* \"#utility.yul\":5606:5625   */\n      add\n      swap1\n        /* \"#utility.yul\":5439:5925   */\n      jump\n        /* \"Contracts/Hackathon.sol\":6899:7823  function suggestMiddleman(uint whichAgreement_, address middleman_) public {... */\n    tag_24:\n      callvalue\n      dup1\n      iszero\n      tag_134\n      jumpi\n      0x00\n      dup1\n      revert\n    tag_134:\n      pop\n      tag_2\n      tag_136\n      calldatasize\n      0x04\n      tag_94\n      jump\t// in\n    tag_136:\n      tag_137\n      jump\t// in\n        /* \"Contracts/Hackathon.sol\":8506:8642  function getMiddleman(uint whichAgreement_) public view returns(address) {... */\n    tag_25:\n      callvalue\n      dup1\n      iszero\n      tag_138\n      jumpi\n      0x00\n      dup1\n      revert\n    tag_138:\n      pop\n      tag_49\n      tag_140\n      calldatasize\n      0x04\n      tag_62\n      jump\t// in\n    tag_140:\n        /* \"Contracts/Hackathon.sol\":8570:8577  address */\n      0x00\n        /* \"Contracts/Hackathon.sol\":8597:8624  agreements[whichAgreement_] */\n      swap1\n      dup2\n      mstore\n        /* \"Contracts/Hackathon.sol\":8597:8607  agreements */\n      0x05\n        /* \"Contracts/Hackathon.sol\":8597:8624  agreements[whichAgreement_] */\n      0x20\n      mstore\n      0x40\n      swap1\n      keccak256\n        /* \"Contracts/Hackathon.sol\":8597:8634  agreements[whichAgreement_].middleman */\n      0x02\n      add\n      sload\n      sub(shl(0xa0, 0x01), 0x01)\n      and\n      swap1\n        /* \"Contracts/Hackathon.sol\":8506:8642  function getMiddleman(uint whichAgreement_) public view returns(address) {... */\n      jump\n        /* \"Contracts/Hackathon.sol\":6039:6766  function reqruitEmployee(uint whichOffer_, uint whichCandidate_) public onlyEmployer {... */\n    tag_37:\n        /* \"Contracts/Hackathon.sol\":3011:3021  msg.sender */\n      caller\n        /* \"Contracts/Hackathon.sol\":3002:3022  accounts[msg.sender] */\n      0x00\n      swap1\n      dup2\n      mstore\n        /* \"Contracts/Hackathon.sol\":3002:3010  accounts */\n      0x07\n        /* \"Contracts/Hackathon.sol\":3002:3022  accounts[msg.sender] */\n      0x20\n      mstore\n      0x40\n      swap1\n      keccak256\n        /* \"Contracts/Hackathon.sol\":3002:3033  accounts[msg.sender].isEmployer */\n      sload\n      0xff\n      and\n        /* \"Contracts/Hackathon.sol\":3002:3041  accounts[msg.sender].isEmployer == true */\n      iszero\n      iszero\n        /* \"Contracts/Hackathon.sol\":3002:3033  accounts[msg.sender].isEmployer */\n      0x01\n        /* \"Contracts/Hackathon.sol\":3002:3041  accounts[msg.sender].isEmployer == true */\n      eq\n        /* \"Contracts/Hackathon.sol\":2994:3083  require(accounts[msg.sender].isEmployer == true, \"You need to be an employer to do that\") */\n      tag_144\n      jumpi\n      mload(0x40)\n      shl(0xe5, 0x461bcd)\n      dup2\n      mstore\n      0x04\n      add\n      tag_145\n      swap1\n      tag_146\n      jump\t// in\n    tag_145:\n      mload(0x40)\n      dup1\n      swap2\n      sub\n      swap1\n      revert\n    tag_144:\n        /* \"Contracts/Hackathon.sol\":6143:6168  offeredWorks[whichOffer_] */\n      0x00\n      dup3\n      dup2\n      mstore\n        /* \"Contracts/Hackathon.sol\":6143:6155  offeredWorks */\n      0x04\n        /* \"Contracts/Hackathon.sol\":6143:6168  offeredWorks[whichOffer_] */\n      0x20\n      mstore\n      0x40\n      swap1\n      keccak256\n        /* \"Contracts/Hackathon.sol\":6143:6177  offeredWorks[whichOffer_].employer */\n      sload\n      sub(shl(0xa0, 0x01), 0x01)\n      and\n        /* \"Contracts/Hackathon.sol\":6181:6191  msg.sender */\n      caller\n        /* \"Contracts/Hackathon.sol\":6143:6191  offeredWorks[whichOffer_].employer == msg.sender */\n      eq\n        /* \"Contracts/Hackathon.sol\":6135:6233  require(offeredWorks[whichOffer_].employer == msg.sender, \"You are not the employer of this work\") */\n      tag_148\n      jumpi\n      mload(0x40)\n      shl(0xe5, 0x461bcd)\n      dup2\n      mstore\n      0x04\n      add\n      tag_145\n      swap1\n      tag_150\n      jump\t// in\n    tag_148:\n        /* \"Contracts/Hackathon.sol\":6252:6277  offeredWorks[whichOffer_] */\n      0x00\n      dup3\n      dup2\n      mstore\n        /* \"Contracts/Hackathon.sol\":6252:6264  offeredWorks */\n      0x04\n        /* \"Contracts/Hackathon.sol\":6252:6277  offeredWorks[whichOffer_] */\n      0x20\n      mstore\n      0x40\n      swap1\n      keccak256\n        /* \"Contracts/Hackathon.sol\":6252:6286  offeredWorks[whichOffer_].isSealed */\n      0x03\n      add\n      sload\n      0xff\n      and\n        /* \"Contracts/Hackathon.sol\":6252:6295  offeredWorks[whichOffer_].isSealed == false */\n      iszero\n        /* \"Contracts/Hackathon.sol\":6244:6320  require(offeredWorks[whichOffer_].isSealed == false, \"This task is now off\") */\n      tag_151\n      jumpi\n      mload(0x40)\n      shl(0xe5, 0x461bcd)\n      dup2\n      mstore\n      0x04\n      add\n      tag_145\n      swap1\n      tag_153\n      jump\t// in\n    tag_151:\n        /* \"Contracts/Hackathon.sol\":6341:6367  Agreement memory agreement */\n      tag_154\n      tag_155\n      jump\t// in\n    tag_154:\n        /* \"Contracts/Hackathon.sol\":6399:6409  msg.sender */\n      caller\n        /* \"Contracts/Hackathon.sol\":6378:6409  agreement.employer = msg.sender */\n      dup2\n      mstore\n        /* \"Contracts/Hackathon.sol\":6378:6396  agreement.employer */\n      0x00\n        /* \"Contracts/Hackathon.sol\":6442:6465  candidates[whichOffer_] */\n      dup4\n      dup2\n      mstore\n        /* \"Contracts/Hackathon.sol\":6442:6452  candidates */\n      0x06\n        /* \"Contracts/Hackathon.sol\":6442:6465  candidates[whichOffer_] */\n      0x20\n      swap1\n      dup2\n      mstore\n      0x40\n      dup1\n      dup4\n      keccak256\n        /* \"Contracts/Hackathon.sol\":6442:6482  candidates[whichOffer_][whichCandidate_] */\n      dup6\n      dup5\n      mstore\n      dup3\n      mstore\n      dup1\n      dup4\n      keccak256\n      sload\n      sub(shl(0xa0, 0x01), 0x01)\n      and\n        /* \"Contracts/Hackathon.sol\":6420:6438  agreement.employee */\n      dup3\n      dup6\n      add\n        /* \"Contracts/Hackathon.sol\":6420:6482  agreement.employee =  candidates[whichOffer_][whichCandidate_] */\n      mstore\n        /* \"Contracts/Hackathon.sol\":6523:6548  offeredWorks[whichOffer_] */\n      dup6\n      dup4\n      mstore\n        /* \"Contracts/Hackathon.sol\":6523:6535  offeredWorks */\n      0x04\n        /* \"Contracts/Hackathon.sol\":6523:6548  offeredWorks[whichOffer_] */\n      swap1\n      swap2\n      mstore\n      dup2\n      keccak256\n        /* \"Contracts/Hackathon.sol\":6523:6562  offeredWorks[whichOffer_].amountToStake */\n      0x02\n      swap1\n      dup2\n      add\n      sload\n        /* \"Contracts/Hackathon.sol\":6493:6520  agreement.amountForEmployee */\n      0x60\n      dup5\n      add\n        /* \"Contracts/Hackathon.sol\":6493:6562  agreement.amountForEmployee = offeredWorks[whichOffer_].amountToStake */\n      mstore\n        /* \"Contracts/Hackathon.sol\":6573:6590  numOfAgreements++ */\n      dup1\n      sload\n      swap2\n      tag_156\n      dup4\n      tag_157\n      jump\t// in\n    tag_156:\n      swap1\n      swap2\n      sstore\n      pop\n      pop\n        /* \"Contracts/Hackathon.sol\":6612:6627  numOfAgreements */\n      0x02\n      dup1\n      sload\n        /* \"Contracts/Hackathon.sol\":6601:6628  agreements[numOfAgreements] */\n      0x00\n      swap1\n      dup2\n      mstore\n        /* \"Contracts/Hackathon.sol\":6601:6611  agreements */\n      0x05\n        /* \"Contracts/Hackathon.sol\":6601:6628  agreements[numOfAgreements] */\n      0x20\n      dup2\n      dup2\n      mstore\n      0x40\n      dup1\n      dup5\n      keccak256\n        /* \"Contracts/Hackathon.sol\":6601:6640  agreements[numOfAgreements] = agreement */\n      dup7\n      mload\n      dup2\n      sload\n      not(sub(shl(0xa0, 0x01), 0x01))\n      swap1\n      dup2\n      and\n      sub(shl(0xa0, 0x01), 0x01)\n      swap3\n      dup4\n      and\n      or\n      dup4\n      sstore\n      dup9\n      dup6\n      add\n      dup1\n      mload\n      0x01\n      dup1\n      dup7\n      add\n      dup1\n      sload\n      dup6\n      and\n      swap3\n      dup7\n      and\n      swap3\n      swap1\n      swap3\n      or\n      swap1\n      swap2\n      sstore\n      dup11\n      dup7\n      add\n      mload\n      swap10\n      dup6\n      add\n      dup1\n      sload\n      swap1\n      swap4\n      and\n      swap10\n      dup5\n      and\n      swap10\n      swap1\n      swap10\n      or\n      swap1\n      swap2\n      sstore\n      0x60\n      dup10\n      add\n      mload\n      0x03\n      dup1\n      dup6\n      add\n      swap2\n      swap1\n      swap2\n      sstore\n      0x80\n      dup11\n      add\n      mload\n      0x04\n      dup1\n      dup7\n      add\n      swap2\n      swap1\n      swap2\n      sstore\n      0xa0\n      dup12\n      add\n      mload\n      swap5\n      swap1\n      swap8\n      add\n      dup1\n      sload\n      0xc0\n      dup13\n      add\n      mload\n      0xe0\n      dup14\n      add\n      mload\n      0x0100\n      dup1\n      dup16\n      add\n      mload\n      not(0xffff)\n      swap1\n      swap5\n      and\n      swap9\n      iszero\n      iszero\n      not(0xff00)\n      and\n      swap9\n      swap1\n      swap9\n      or\n      swap2\n      iszero\n      iszero\n      swap1\n      swap8\n      mul\n      or\n      not(0xffff0000)\n      and\n      0x010000\n      swap7\n      iszero\n      iszero\n      swap7\n      swap1\n      swap7\n      mul\n      not(0xff000000)\n      and\n      swap6\n      swap1\n      swap6\n      or\n      0x01000000\n      swap6\n      iszero\n      iszero\n      swap6\n      swap1\n      swap6\n      mul\n      swap5\n      swap1\n      swap5\n      or\n      swap1\n      swap4\n      sstore\n        /* \"Contracts/Hackathon.sol\":6651:6676  offeredWorks[whichOffer_] */\n      dup11\n      dup8\n      mstore\n      swap5\n      swap1\n      swap4\n      mstore\n      swap4\n      dup2\n      swap1\n      keccak256\n        /* \"Contracts/Hackathon.sol\":6651:6685  offeredWorks[whichOffer_].isSealed */\n      swap1\n      swap4\n      add\n        /* \"Contracts/Hackathon.sol\":6651:6692  offeredWorks[whichOffer_].isSealed = true */\n      dup1\n      sload\n      not(0xff)\n      and\n      swap1\n      swap5\n      or\n      swap1\n      swap4\n      sstore\n        /* \"Contracts/Hackathon.sol\":6728:6746  agreement.employee */\n      mload\n        /* \"Contracts/Hackathon.sol\":6710:6758  reqruitedEmployee(agreement.employee, agreement) */\n      swap1\n      mload\n      swap2\n      and\n      swap1\n      0x6f90f2cb171bda4337d0bf803c1d78800ec0908f0e1ae7539c944d55166506dc\n      swap1\n      tag_158\n      swap1\n        /* \"Contracts/Hackathon.sol\":6601:6640  agreements[numOfAgreements] = agreement */\n      dup5\n      swap1\n        /* \"Contracts/Hackathon.sol\":6710:6758  reqruitedEmployee(agreement.employee, agreement) */\n      tag_65\n      jump\t// in\n    tag_158:\n      mload(0x40)\n      dup1\n      swap2\n      sub\n      swap1\n      log2\n        /* \"Contracts/Hackathon.sol\":6124:6766  {... */\n      pop\n        /* \"Contracts/Hackathon.sol\":6039:6766  function reqruitEmployee(uint whichOffer_, uint whichCandidate_) public onlyEmployer {... */\n      pop\n      pop\n      jump\t// out\n        /* \"Contracts/Hackathon.sol\":10630:11719  function resolveDispluteMiddleman(uint whichAgreement_, uint employeePercent, uint employerPercent) public {... */\n    tag_42:\n        /* \"Contracts/Hackathon.sol\":10770:10797  agreements[whichAgreement_] */\n      0x00\n      dup4\n      dup2\n      mstore\n        /* \"Contracts/Hackathon.sol\":10770:10780  agreements */\n      0x05\n        /* \"Contracts/Hackathon.sol\":10770:10797  agreements[whichAgreement_] */\n      0x20\n      mstore\n      0x40\n      swap1\n      keccak256\n        /* \"Contracts/Hackathon.sol\":10770:10807  agreements[whichAgreement_].middleman */\n      0x02\n      add\n      sload\n      sub(shl(0xa0, 0x01), 0x01)\n      and\n        /* \"Contracts/Hackathon.sol\":10756:10766  msg.sender */\n      caller\n        /* \"Contracts/Hackathon.sol\":10756:10807  msg.sender == agreements[whichAgreement_].middleman */\n      eq\n        /* \"Contracts/Hackathon.sol\":10748:10855  require(msg.sender == agreements[whichAgreement_].middleman, \"You are not allowed to resolve this dispute\") */\n      tag_160\n      jumpi\n      mload(0x40)\n      shl(0xe5, 0x461bcd)\n      dup2\n      mstore\n      0x04\n      add\n      tag_145\n      swap1\n      tag_162\n      jump\t// in\n    tag_160:\n        /* \"Contracts/Hackathon.sol\":10874:10901  agreements[whichAgreement_] */\n      0x00\n      dup4\n      dup2\n      mstore\n        /* \"Contracts/Hackathon.sol\":10874:10884  agreements */\n      0x05\n        /* \"Contracts/Hackathon.sol\":10874:10901  agreements[whichAgreement_] */\n      0x20\n      dup2\n      swap1\n      mstore\n      0x40\n      swap1\n      swap2\n      keccak256\n        /* \"Contracts/Hackathon.sol\":10874:10915  agreements[whichAgreement_].disputeRaised */\n      add\n      sload\n      0x010000\n      swap1\n      div\n      0xff\n      and\n        /* \"Contracts/Hackathon.sol\":10874:10923  agreements[whichAgreement_].disputeRaised == true */\n      iszero\n      iszero\n        /* \"Contracts/Hackathon.sol\":10919:10923  true */\n      0x01\n        /* \"Contracts/Hackathon.sol\":10874:10923  agreements[whichAgreement_].disputeRaised == true */\n      eq\n        /* \"Contracts/Hackathon.sol\":10866:10971  require(agreements[whichAgreement_].disputeRaised == true, \"There is no dispute raied in this agreement\") */\n      tag_163\n      jumpi\n      mload(0x40)\n      shl(0xe5, 0x461bcd)\n      dup2\n      mstore\n      0x04\n      add\n      tag_145\n      swap1\n      tag_165\n      jump\t// in\n    tag_163:\n        /* \"Contracts/Hackathon.sol\":10990:11017  agreements[whichAgreement_] */\n      0x00\n      dup4\n      dup2\n      mstore\n        /* \"Contracts/Hackathon.sol\":10990:11000  agreements */\n      0x05\n        /* \"Contracts/Hackathon.sol\":10990:11017  agreements[whichAgreement_] */\n      0x20\n      dup2\n      swap1\n      mstore\n      0x40\n      swap1\n      swap2\n      keccak256\n        /* \"Contracts/Hackathon.sol\":10990:11030  agreements[whichAgreement_].resolveCheck */\n      add\n      sload\n      0x01000000\n      swap1\n      div\n      0xff\n      and\n        /* \"Contracts/Hackathon.sol\":10990:11039  agreements[whichAgreement_].resolveCheck == false */\n      iszero\n        /* \"Contracts/Hackathon.sol\":10982:11074  require(agreements[whichAgreement_].resolveCheck == false, \"This dispute has been resolved\") */\n      tag_166\n      jumpi\n      mload(0x40)\n      shl(0xe5, 0x461bcd)\n      dup2\n      mstore\n        /* \"#utility.yul\":8389:8391   */\n      0x20\n        /* \"Contracts/Hackathon.sol\":10982:11074  require(agreements[whichAgreement_].resolveCheck == false, \"This dispute has been resolved\") */\n      0x04\n      dup3\n      add\n        /* \"#utility.yul\":8371:8392   */\n      mstore\n        /* \"#utility.yul\":8428:8430   */\n      0x1e\n        /* \"#utility.yul\":8408:8426   */\n      0x24\n      dup3\n      add\n        /* \"#utility.yul\":8401:8431   */\n      mstore\n        /* \"#utility.yul\":8467:8499   */\n      0x54686973206469737075746520686173206265656e207265736f6c7665640000\n        /* \"#utility.yul\":8447:8465   */\n      0x44\n      dup3\n      add\n        /* \"#utility.yul\":8440:8500   */\n      mstore\n        /* \"#utility.yul\":8517:8535   */\n      0x64\n      add\n        /* \"Contracts/Hackathon.sol\":10982:11074  require(agreements[whichAgreement_].resolveCheck == false, \"This dispute has been resolved\") */\n      tag_145\n        /* \"#utility.yul\":8187:8541   */\n      jump\n        /* \"Contracts/Hackathon.sol\":10982:11074  require(agreements[whichAgreement_].resolveCheck == false, \"This dispute has been resolved\") */\n    tag_166:\n        /* \"Contracts/Hackathon.sol\":11093:11126  employeePercent + employerPercent */\n      tag_169\n        /* \"Contracts/Hackathon.sol\":11111:11126  employerPercent */\n      dup2\n        /* \"Contracts/Hackathon.sol\":11093:11108  employeePercent */\n      dup4\n        /* \"Contracts/Hackathon.sol\":11093:11126  employeePercent + employerPercent */\n      tag_170\n      jump\t// in\n    tag_169:\n        /* \"Contracts/Hackathon.sol\":11130:11133  100 */\n      0x64\n        /* \"Contracts/Hackathon.sol\":11093:11133  employeePercent + employerPercent == 100 */\n      eq\n        /* \"Contracts/Hackathon.sol\":11085:11157  require(employeePercent + employerPercent == 100, \"Invalid percentages\") */\n      tag_171\n      jumpi\n      mload(0x40)\n      shl(0xe5, 0x461bcd)\n      dup2\n      mstore\n        /* \"#utility.yul\":8878:8880   */\n      0x20\n        /* \"Contracts/Hackathon.sol\":11085:11157  require(employeePercent + employerPercent == 100, \"Invalid percentages\") */\n      0x04\n      dup3\n      add\n        /* \"#utility.yul\":8860:8881   */\n      mstore\n        /* \"#utility.yul\":8917:8919   */\n      0x13\n        /* \"#utility.yul\":8897:8915   */\n      0x24\n      dup3\n      add\n        /* \"#utility.yul\":8890:8920   */\n      mstore\n      shl(0x68, 0x496e76616c69642070657263656e7461676573)\n        /* \"#utility.yul\":8936:8954   */\n      0x44\n      dup3\n      add\n        /* \"#utility.yul\":8929:8978   */\n      mstore\n        /* \"#utility.yul\":8995:9013   */\n      0x64\n      add\n        /* \"Contracts/Hackathon.sol\":11085:11157  require(employeePercent + employerPercent == 100, \"Invalid percentages\") */\n      tag_145\n        /* \"#utility.yul\":8676:9019   */\n      jump\n        /* \"Contracts/Hackathon.sol\":11085:11157  require(employeePercent + employerPercent == 100, \"Invalid percentages\") */\n    tag_171:\n        /* \"Contracts/Hackathon.sol\":11170:11197  agreements[whichAgreement_] */\n      0x00\n      dup4\n      dup2\n      mstore\n        /* \"Contracts/Hackathon.sol\":11170:11180  agreements */\n      0x05\n        /* \"Contracts/Hackathon.sol\":11170:11197  agreements[whichAgreement_] */\n      0x20\n      dup2\n      swap1\n      mstore\n      0x40\n      dup3\n      keccak256\n        /* \"Contracts/Hackathon.sol\":11170:11210  agreements[whichAgreement_].resolveCheck */\n      swap1\n      dup2\n      add\n        /* \"Contracts/Hackathon.sol\":11170:11217  agreements[whichAgreement_].resolveCheck = true */\n      dup1\n      sload\n      not(0xff000000)\n      and\n      0x01000000\n      or\n      swap1\n      sstore\n        /* \"Contracts/Hackathon.sol\":11170:11210  agreements[whichAgreement_].resolveCheck */\n      0x03\n        /* \"Contracts/Hackathon.sol\":11251:11296  agreements[whichAgreement_].amountForEmployee */\n      add\n      sload\n      swap1\n        /* \"Contracts/Hackathon.sol\":11365:11368  100 */\n      0x64\n        /* \"Contracts/Hackathon.sol\":11330:11361  amountToStake * employeePercent */\n      tag_174\n        /* \"Contracts/Hackathon.sol\":11346:11361  employeePercent */\n      dup6\n        /* \"Contracts/Hackathon.sol\":11251:11296  agreements[whichAgreement_].amountForEmployee */\n      dup5\n        /* \"Contracts/Hackathon.sol\":11330:11361  amountToStake * employeePercent */\n      tag_175\n      jump\t// in\n    tag_174:\n        /* \"Contracts/Hackathon.sol\":11329:11368  (amountToStake * employeePercent) / 100 */\n      tag_176\n      swap2\n      swap1\n      tag_177\n      jump\t// in\n    tag_176:\n        /* \"Contracts/Hackathon.sol\":11307:11368  uint amountEmployee = (amountToStake * employeePercent) / 100 */\n      swap1\n      pop\n        /* \"Contracts/Hackathon.sol\":11379:11398  uint amountEmployer */\n      0x00\n        /* \"Contracts/Hackathon.sol\":11437:11440  100 */\n      0x64\n        /* \"Contracts/Hackathon.sol\":11402:11433  amountToStake * employerPercent */\n      tag_178\n        /* \"Contracts/Hackathon.sol\":11418:11433  employerPercent */\n      dup6\n        /* \"Contracts/Hackathon.sol\":11402:11415  amountToStake */\n      dup6\n        /* \"Contracts/Hackathon.sol\":11402:11433  amountToStake * employerPercent */\n      tag_175\n      jump\t// in\n    tag_178:\n        /* \"Contracts/Hackathon.sol\":11401:11440  (amountToStake * employerPercent) / 100 */\n      tag_179\n      swap2\n      swap1\n      tag_177\n      jump\t// in\n    tag_179:\n        /* \"Contracts/Hackathon.sol\":11461:11488  agreements[whichAgreement_] */\n      0x00\n      dup8\n      dup2\n      mstore\n        /* \"Contracts/Hackathon.sol\":11461:11471  agreements */\n      0x05\n        /* \"Contracts/Hackathon.sol\":11461:11488  agreements[whichAgreement_] */\n      0x20\n      mstore\n      0x40\n      dup1\n      dup3\n      keccak256\n        /* \"Contracts/Hackathon.sol\":11461:11497  agreements[whichAgreement_].employee */\n      0x01\n      add\n      sload\n        /* \"Contracts/Hackathon.sol\":11453:11523  payable(agreements[whichAgreement_].employee).transfer(amountEmployee) */\n      swap1\n      mload\n        /* \"Contracts/Hackathon.sol\":11379:11440  uint amountEmployer = (amountToStake * employerPercent) / 100 */\n      swap3\n      swap4\n      pop\n      sub(shl(0xa0, 0x01), 0x01)\n        /* \"Contracts/Hackathon.sol\":11461:11497  agreements[whichAgreement_].employee */\n      and\n      swap2\n        /* \"Contracts/Hackathon.sol\":11453:11523  payable(agreements[whichAgreement_].employee).transfer(amountEmployee) */\n      dup5\n      iszero\n      0x08fc\n      mul\n      swap2\n        /* \"Contracts/Hackathon.sol\":11508:11522  amountEmployee */\n      dup6\n      swap2\n        /* \"Contracts/Hackathon.sol\":11453:11523  payable(agreements[whichAgreement_].employee).transfer(amountEmployee) */\n      swap1\n      dup2\n        /* \"Contracts/Hackathon.sol\":11461:11488  agreements[whichAgreement_] */\n      dup2\n        /* \"Contracts/Hackathon.sol\":11453:11523  payable(agreements[whichAgreement_].employee).transfer(amountEmployee) */\n      dup2\n        /* \"Contracts/Hackathon.sol\":11508:11522  amountEmployee */\n      dup6\n        /* \"Contracts/Hackathon.sol\":11461:11497  agreements[whichAgreement_].employee */\n      dup9\n        /* \"Contracts/Hackathon.sol\":11453:11523  payable(agreements[whichAgreement_].employee).transfer(amountEmployee) */\n      dup9\n      call\n      swap4\n      pop\n      pop\n      pop\n      pop\n      iszero\n      dup1\n      iszero\n      tag_181\n      jumpi\n      returndatasize\n      0x00\n      dup1\n      returndatacopy\n      revert(0x00, returndatasize)\n    tag_181:\n      pop\n        /* \"Contracts/Hackathon.sol\":11542:11569  agreements[whichAgreement_] */\n      0x00\n      dup7\n      dup2\n      mstore\n        /* \"Contracts/Hackathon.sol\":11542:11552  agreements */\n      0x05\n        /* \"Contracts/Hackathon.sol\":11542:11569  agreements[whichAgreement_] */\n      0x20\n      mstore\n      0x40\n      dup1\n      dup3\n      keccak256\n        /* \"Contracts/Hackathon.sol\":11542:11578  agreements[whichAgreement_].employer */\n      sload\n        /* \"Contracts/Hackathon.sol\":11534:11604  payable(agreements[whichAgreement_].employer).transfer(amountEmployer) */\n      swap1\n      mload\n      sub(shl(0xa0, 0x01), 0x01)\n        /* \"Contracts/Hackathon.sol\":11542:11578  agreements[whichAgreement_].employer */\n      swap1\n      swap2\n      and\n      swap2\n        /* \"Contracts/Hackathon.sol\":11534:11604  payable(agreements[whichAgreement_].employer).transfer(amountEmployer) */\n      dup4\n      iszero\n      0x08fc\n      mul\n      swap2\n        /* \"Contracts/Hackathon.sol\":11589:11603  amountEmployer */\n      dup5\n      swap2\n        /* \"Contracts/Hackathon.sol\":11534:11604  payable(agreements[whichAgreement_].employer).transfer(amountEmployer) */\n      dup2\n        /* \"Contracts/Hackathon.sol\":11542:11569  agreements[whichAgreement_] */\n      dup2\n        /* \"Contracts/Hackathon.sol\":11534:11604  payable(agreements[whichAgreement_].employer).transfer(amountEmployer) */\n      dup2\n        /* \"Contracts/Hackathon.sol\":11589:11603  amountEmployer */\n      dup6\n        /* \"Contracts/Hackathon.sol\":11542:11578  agreements[whichAgreement_].employer */\n      dup9\n        /* \"Contracts/Hackathon.sol\":11534:11604  payable(agreements[whichAgreement_].employer).transfer(amountEmployer) */\n      dup9\n      call\n      swap4\n      pop\n      pop\n      pop\n      pop\n      iszero\n      dup1\n      iszero\n      tag_183\n      jumpi\n      returndatasize\n      0x00\n      dup1\n      returndatacopy\n      revert(0x00, returndatasize)\n    tag_183:\n      pop\n        /* \"Contracts/Hackathon.sol\":11636:11649  amountToStake */\n      dup3\n        /* \"Contracts/Hackathon.sol\":11617:11632  balanceRecieved */\n      0x00\n      dup1\n        /* \"Contracts/Hackathon.sol\":11617:11649  balanceRecieved -= amountToStake */\n      dup3\n      dup3\n      sload\n      tag_184\n      swap2\n      swap1\n      tag_185\n      jump\t// in\n    tag_184:\n      swap1\n      swap2\n      sstore\n      pop\n      pop\n        /* \"Contracts/Hackathon.sol\":11683:11710  agreements[whichAgreement_] */\n      0x00\n      dup7\n      dup2\n      mstore\n        /* \"Contracts/Hackathon.sol\":11683:11693  agreements */\n      0x05\n        /* \"Contracts/Hackathon.sol\":11683:11710  agreements[whichAgreement_] */\n      0x20\n      mstore\n      0x40\n      swap1\n      dup2\n      swap1\n      keccak256\n        /* \"Contracts/Hackathon.sol\":11667:11711  disputeResolved(agreements[whichAgreement_]) */\n      swap1\n      mload\n      0xe990074bc649f32546aa103bec609bbe502737d71777a6037c3014540965022d\n      swap2\n      tag_186\n      swap2\n      tag_187\n      jump\t// in\n    tag_186:\n      mload(0x40)\n      dup1\n      swap2\n      sub\n      swap1\n      log1\n        /* \"Contracts/Hackathon.sol\":10737:11719  {... */\n      pop\n      pop\n      pop\n        /* \"Contracts/Hackathon.sol\":10630:11719  function resolveDispluteMiddleman(uint whichAgreement_, uint employeePercent, uint employerPercent) public {... */\n      pop\n      pop\n      pop\n      jump\t// out\n        /* \"Contracts/Hackathon.sol\":8323:8498  function getAskedMiddleman(uint whichAgreement_, uint whichMiddleman_) public view returns(address) {... */\n    tag_56:\n        /* \"Contracts/Hackathon.sol\":8414:8421  address */\n      0x00\n        /* \"Contracts/Hackathon.sol\":8441:8473  askedMiddlemans[whichAgreement_] */\n      dup3\n      dup2\n      mstore\n        /* \"Contracts/Hackathon.sol\":8441:8456  askedMiddlemans */\n      0x0a\n        /* \"Contracts/Hackathon.sol\":8441:8473  askedMiddlemans[whichAgreement_] */\n      0x20\n      swap1\n      dup2\n      mstore\n      0x40\n      dup1\n      dup4\n      keccak256\n        /* \"Contracts/Hackathon.sol\":8441:8490  askedMiddlemans[whichAgreement_][whichMiddleman_] */\n      dup5\n      dup5\n      mstore\n      swap1\n      swap2\n      mstore\n      swap1\n      keccak256\n      sload\n      sub(shl(0xa0, 0x01), 0x01)\n      and\n        /* \"Contracts/Hackathon.sol\":8323:8498  function getAskedMiddleman(uint whichAgreement_, uint whichMiddleman_) public view returns(address) {... */\n    tag_188:\n      swap3\n      swap2\n      pop\n      pop\n      jump\t// out\n        /* \"Contracts/Hackathon.sol\":6774:6891  function getAgreement(uint which_) public view returns(Agreement memory) {... */\n    tag_63:\n        /* \"Contracts/Hackathon.sol\":6829:6845  Agreement memory */\n      tag_189\n      tag_155\n      jump\t// in\n    tag_189:\n      pop\n        /* \"Contracts/Hackathon.sol\":6865:6883  agreements[which_] */\n      0x00\n      swap1\n      dup2\n      mstore\n        /* \"Contracts/Hackathon.sol\":6865:6875  agreements */\n      0x05\n        /* \"Contracts/Hackathon.sol\":6865:6883  agreements[which_] */\n      0x20\n      dup2\n      dup2\n      mstore\n      0x40\n      swap3\n      dup4\n      swap1\n      keccak256\n        /* \"Contracts/Hackathon.sol\":6858:6883  return agreements[which_] */\n      dup4\n      mload\n      0x0120\n      dup2\n      add\n      dup6\n      mstore\n      dup2\n      sload\n      sub(shl(0xa0, 0x01), 0x01)\n      swap1\n      dup2\n      and\n      dup3\n      mstore\n      0x01\n      dup4\n      add\n      sload\n      dup2\n      and\n      swap4\n      dup3\n      add\n      swap4\n      swap1\n      swap4\n      mstore\n      0x02\n      dup3\n      add\n      sload\n      swap1\n      swap3\n      and\n      swap4\n      dup3\n      add\n      swap4\n      swap1\n      swap4\n      mstore\n      0x03\n      dup4\n      add\n      sload\n      0x60\n      dup3\n      add\n      mstore\n      0x04\n      dup4\n      add\n      sload\n      0x80\n      dup3\n      add\n      mstore\n      swap2\n      add\n      sload\n      0xff\n      dup1\n      dup3\n      and\n      iszero\n      iszero\n      0xa0\n      dup5\n      add\n      mstore\n      0x0100\n      dup1\n      dup4\n      div\n      dup3\n      and\n      iszero\n      iszero\n      0xc0\n      dup6\n      add\n      mstore\n      0x010000\n      dup4\n      div\n      dup3\n      and\n      iszero\n      iszero\n      0xe0\n      dup6\n      add\n      mstore\n      0x01000000\n      swap1\n      swap3\n      div\n      and\n      iszero\n      iszero\n      swap1\n      dup3\n      add\n      mstore\n      swap1\n        /* \"Contracts/Hackathon.sol\":6774:6891  function getAgreement(uint which_) public view returns(Agreement memory) {... */\n      jump\t// out\n        /* \"Contracts/Hackathon.sol\":4812:5374  function deleteWork(uint which_) public onlyEmployer {... */\n    tag_75:\n        /* \"Contracts/Hackathon.sol\":3011:3021  msg.sender */\n      caller\n        /* \"Contracts/Hackathon.sol\":3002:3022  accounts[msg.sender] */\n      0x00\n      swap1\n      dup2\n      mstore\n        /* \"Contracts/Hackathon.sol\":3002:3010  accounts */\n      0x07\n        /* \"Contracts/Hackathon.sol\":3002:3022  accounts[msg.sender] */\n      0x20\n      mstore\n      0x40\n      swap1\n      keccak256\n        /* \"Contracts/Hackathon.sol\":3002:3033  accounts[msg.sender].isEmployer */\n      sload\n      0xff\n      and\n        /* \"Contracts/Hackathon.sol\":3002:3041  accounts[msg.sender].isEmployer == true */\n      iszero\n      iszero\n        /* \"Contracts/Hackathon.sol\":3002:3033  accounts[msg.sender].isEmployer */\n      0x01\n        /* \"Contracts/Hackathon.sol\":3002:3041  accounts[msg.sender].isEmployer == true */\n      eq\n        /* \"Contracts/Hackathon.sol\":2994:3083  require(accounts[msg.sender].isEmployer == true, \"You need to be an employer to do that\") */\n      tag_192\n      jumpi\n      mload(0x40)\n      shl(0xe5, 0x461bcd)\n      dup2\n      mstore\n      0x04\n      add\n      tag_145\n      swap1\n      tag_146\n      jump\t// in\n    tag_192:\n        /* \"Contracts/Hackathon.sol\":4884:4904  offeredWorks[which_] */\n      0x00\n      dup2\n      dup2\n      mstore\n        /* \"Contracts/Hackathon.sol\":4884:4896  offeredWorks */\n      0x04\n        /* \"Contracts/Hackathon.sol\":4884:4904  offeredWorks[which_] */\n      0x20\n      mstore\n      0x40\n      swap1\n      keccak256\n        /* \"Contracts/Hackathon.sol\":4884:4913  offeredWorks[which_].employer */\n      sload\n      sub(shl(0xa0, 0x01), 0x01)\n      and\n        /* \"Contracts/Hackathon.sol\":4917:4927  msg.sender */\n      caller\n        /* \"Contracts/Hackathon.sol\":4884:4927  offeredWorks[which_].employer == msg.sender */\n      eq\n        /* \"Contracts/Hackathon.sol\":4876:4969  require(offeredWorks[which_].employer == msg.sender, \"You are not the employer of this work\") */\n      tag_195\n      jumpi\n      mload(0x40)\n      shl(0xe5, 0x461bcd)\n      dup2\n      mstore\n      0x04\n      add\n      tag_145\n      swap1\n      tag_150\n      jump\t// in\n    tag_195:\n        /* \"Contracts/Hackathon.sol\":4988:5008  offeredWorks[which_] */\n      0x00\n      dup2\n      dup2\n      mstore\n        /* \"Contracts/Hackathon.sol\":4988:5000  offeredWorks */\n      0x04\n        /* \"Contracts/Hackathon.sol\":4988:5008  offeredWorks[which_] */\n      0x20\n      mstore\n      0x40\n      swap1\n      keccak256\n        /* \"Contracts/Hackathon.sol\":4988:5017  offeredWorks[which_].isSealed */\n      0x03\n      add\n      sload\n      0xff\n      and\n        /* \"Contracts/Hackathon.sol\":4988:5026  offeredWorks[which_].isSealed == false */\n      iszero\n        /* \"Contracts/Hackathon.sol\":4980:5051  require(offeredWorks[which_].isSealed == false, \"This task is now off\") */\n      tag_197\n      jumpi\n      mload(0x40)\n      shl(0xe5, 0x461bcd)\n      dup2\n      mstore\n      0x04\n      add\n      tag_145\n      swap1\n      tag_153\n      jump\t// in\n    tag_197:\n        /* \"Contracts/Hackathon.sol\":5089:5109  offeredWorks[which_] */\n      0x00\n      dup2\n      dup2\n      mstore\n        /* \"Contracts/Hackathon.sol\":5089:5101  offeredWorks */\n      0x04\n        /* \"Contracts/Hackathon.sol\":5089:5109  offeredWorks[which_] */\n      0x20\n      mstore\n      0x40\n      dup2\n      keccak256\n        /* \"Contracts/Hackathon.sol\":5089:5123  offeredWorks[which_].amountToStake */\n      0x02\n      add\n      sload\n        /* \"Contracts/Hackathon.sol\":5070:5085  balanceRecieved */\n      swap1\n      sload\n        /* \"Contracts/Hackathon.sol\":5070:5123  balanceRecieved >= offeredWorks[which_].amountToStake */\n      lt\n      iszero\n        /* \"Contracts/Hackathon.sol\":5062:5146  require(balanceRecieved >= offeredWorks[which_].amountToStake, \"Not enough balance\") */\n      tag_199\n      jumpi\n      mload(0x40)\n      shl(0xe5, 0x461bcd)\n      dup2\n      mstore\n        /* \"#utility.yul\":11092:11094   */\n      0x20\n        /* \"Contracts/Hackathon.sol\":5062:5146  require(balanceRecieved >= offeredWorks[which_].amountToStake, \"Not enough balance\") */\n      0x04\n      dup3\n      add\n        /* \"#utility.yul\":11074:11095   */\n      mstore\n        /* \"#utility.yul\":11131:11133   */\n      0x12\n        /* \"#utility.yul\":11111:11129   */\n      0x24\n      dup3\n      add\n        /* \"#utility.yul\":11104:11134   */\n      mstore\n      shl(0x70, 0x4e6f7420656e6f7567682062616c616e6365)\n        /* \"#utility.yul\":11150:11168   */\n      0x44\n      dup3\n      add\n        /* \"#utility.yul\":11143:11191   */\n      mstore\n        /* \"#utility.yul\":11208:11226   */\n      0x64\n      add\n        /* \"Contracts/Hackathon.sol\":5062:5146  require(balanceRecieved >= offeredWorks[which_].amountToStake, \"Not enough balance\") */\n      tag_145\n        /* \"#utility.yul\":10890:11232   */\n      jump\n        /* \"Contracts/Hackathon.sol\":5062:5146  require(balanceRecieved >= offeredWorks[which_].amountToStake, \"Not enough balance\") */\n    tag_199:\n        /* \"Contracts/Hackathon.sol\":5159:5177  uint amountToStake */\n      0x00\n        /* \"Contracts/Hackathon.sol\":5180:5200  offeredWorks[which_] */\n      dup2\n      dup2\n      mstore\n        /* \"Contracts/Hackathon.sol\":5180:5192  offeredWorks */\n      0x04\n        /* \"Contracts/Hackathon.sol\":5180:5200  offeredWorks[which_] */\n      0x20\n      mstore\n      0x40\n      dup1\n      dup3\n      keccak256\n        /* \"Contracts/Hackathon.sol\":5180:5214  offeredWorks[which_].amountToStake */\n      0x02\n      dup2\n      add\n      sload\n        /* \"Contracts/Hackathon.sol\":5225:5254  offeredWorks[which_].isSealed */\n      0x03\n      swap1\n      swap2\n      add\n        /* \"Contracts/Hackathon.sol\":5225:5261  offeredWorks[which_].isSealed = true */\n      dup1\n      sload\n      not(0xff)\n      and\n        /* \"Contracts/Hackathon.sol\":5257:5261  true */\n      0x01\n        /* \"Contracts/Hackathon.sol\":5225:5261  offeredWorks[which_].isSealed = true */\n      or\n      swap1\n      sstore\n        /* \"Contracts/Hackathon.sol\":5272:5315  payable(msg.sender).transfer(amountToStake) */\n      swap1\n      mload\n        /* \"Contracts/Hackathon.sol\":5180:5214  offeredWorks[which_].amountToStake */\n      swap1\n      swap2\n        /* \"Contracts/Hackathon.sol\":5280:5290  msg.sender */\n      caller\n      swap2\n        /* \"Contracts/Hackathon.sol\":5272:5315  payable(msg.sender).transfer(amountToStake) */\n      dup4\n      iszero\n      0x08fc\n      mul\n      swap2\n        /* \"Contracts/Hackathon.sol\":5180:5214  offeredWorks[which_].amountToStake */\n      dup5\n      swap2\n        /* \"Contracts/Hackathon.sol\":5272:5315  payable(msg.sender).transfer(amountToStake) */\n      swap1\n      dup2\n        /* \"Contracts/Hackathon.sol\":5159:5177  uint amountToStake */\n      dup2\n        /* \"Contracts/Hackathon.sol\":5272:5315  payable(msg.sender).transfer(amountToStake) */\n      dup2\n        /* \"Contracts/Hackathon.sol\":5180:5214  offeredWorks[which_].amountToStake */\n      dup6\n        /* \"Contracts/Hackathon.sol\":5280:5290  msg.sender */\n      dup9\n        /* \"Contracts/Hackathon.sol\":5272:5315  payable(msg.sender).transfer(amountToStake) */\n      dup9\n      call\n      swap4\n      pop\n      pop\n      pop\n      pop\n      iszero\n      dup1\n      iszero\n      tag_203\n      jumpi\n      returndatasize\n      0x00\n      dup1\n      returndatacopy\n      revert(0x00, returndatasize)\n    tag_203:\n      pop\n        /* \"Contracts/Hackathon.sol\":5345:5365  offeredWorks[which_] */\n      0x00\n      dup3\n      dup2\n      mstore\n        /* \"Contracts/Hackathon.sol\":5345:5357  offeredWorks */\n      0x04\n        /* \"Contracts/Hackathon.sol\":5345:5365  offeredWorks[which_] */\n      0x20\n      mstore\n      0x40\n      swap1\n      dup2\n      swap1\n      keccak256\n        /* \"Contracts/Hackathon.sol\":5333:5366  workDeleted(offeredWorks[which_]) */\n      swap1\n      mload\n      0xe5c60e6208ca49d9d44a816d227cdb520b6a0fa42101047e8154b3c348279a81\n      swap2\n      tag_204\n      swap2\n      tag_205\n      jump\t// in\n    tag_204:\n      mload(0x40)\n      dup1\n      swap2\n      sub\n      swap1\n      log1\n        /* \"Contracts/Hackathon.sol\":4865:5374  {... */\n      pop\n        /* \"Contracts/Hackathon.sol\":4812:5374  function deleteWork(uint which_) public onlyEmployer {... */\n      pop\n      jump\t// out\n        /* \"Contracts/Hackathon.sol\":4323:4804  function offerWork() public payable onlyEmployer {... */\n    tag_77:\n        /* \"Contracts/Hackathon.sol\":3011:3021  msg.sender */\n      caller\n        /* \"Contracts/Hackathon.sol\":3002:3022  accounts[msg.sender] */\n      0x00\n      swap1\n      dup2\n      mstore\n        /* \"Contracts/Hackathon.sol\":3002:3010  accounts */\n      0x07\n        /* \"Contracts/Hackathon.sol\":3002:3022  accounts[msg.sender] */\n      0x20\n      mstore\n      0x40\n      swap1\n      keccak256\n        /* \"Contracts/Hackathon.sol\":3002:3033  accounts[msg.sender].isEmployer */\n      sload\n      0xff\n      and\n        /* \"Contracts/Hackathon.sol\":3002:3041  accounts[msg.sender].isEmployer == true */\n      iszero\n      iszero\n        /* \"Contracts/Hackathon.sol\":3002:3033  accounts[msg.sender].isEmployer */\n      0x01\n        /* \"Contracts/Hackathon.sol\":3002:3041  accounts[msg.sender].isEmployer == true */\n      eq\n        /* \"Contracts/Hackathon.sol\":2994:3083  require(accounts[msg.sender].isEmployer == true, \"You need to be an employer to do that\") */\n      tag_207\n      jumpi\n      mload(0x40)\n      shl(0xe5, 0x461bcd)\n      dup2\n      mstore\n      0x04\n      add\n      tag_145\n      swap1\n      tag_146\n      jump\t// in\n    tag_207:\n        /* \"Contracts/Hackathon.sol\":4404:4412  10 ** 12 */\n      0xe8d4a51000\n        /* \"Contracts/Hackathon.sol\":4391:4400  msg.value */\n      callvalue\n        /* \"Contracts/Hackathon.sol\":4391:4412  msg.value >= 10 ** 12 */\n      lt\n      iszero\n        /* \"Contracts/Hackathon.sol\":4383:4442  require(msg.value >= 10 ** 12, \"Insufficient stake amount\") */\n      tag_210\n      jumpi\n      mload(0x40)\n      shl(0xe5, 0x461bcd)\n      dup2\n      mstore\n        /* \"#utility.yul\":11924:11926   */\n      0x20\n        /* \"Contracts/Hackathon.sol\":4383:4442  require(msg.value >= 10 ** 12, \"Insufficient stake amount\") */\n      0x04\n      dup3\n      add\n        /* \"#utility.yul\":11906:11927   */\n      mstore\n        /* \"#utility.yul\":11963:11965   */\n      0x19\n        /* \"#utility.yul\":11943:11961   */\n      0x24\n      dup3\n      add\n        /* \"#utility.yul\":11936:11966   */\n      mstore\n        /* \"#utility.yul\":12002:12029   */\n      0x496e73756666696369656e74207374616b6520616d6f756e7400000000000000\n        /* \"#utility.yul\":11982:12000   */\n      0x44\n      dup3\n      add\n        /* \"#utility.yul\":11975:12030   */\n      mstore\n        /* \"#utility.yul\":12047:12065   */\n      0x64\n      add\n        /* \"Contracts/Hackathon.sol\":4383:4442  require(msg.value >= 10 ** 12, \"Insufficient stake amount\") */\n      tag_145\n        /* \"#utility.yul\":11722:12071   */\n      jump\n        /* \"Contracts/Hackathon.sol\":4383:4442  require(msg.value >= 10 ** 12, \"Insufficient stake amount\") */\n    tag_210:\n      0x40\n      dup1\n      mload\n      0x80\n      dup2\n      add\n      dup3\n      mstore\n      0x00\n      0x20\n      dup3\n      add\n      dup2\n      swap1\n      mstore\n      0x60\n      dup3\n      add\n      dup2\n      swap1\n      mstore\n        /* \"Contracts/Hackathon.sol\":4519:4529  msg.sender */\n      caller\n        /* \"Contracts/Hackathon.sol\":4496:4529  offeredWork.employer = msg.sender */\n      dup3\n      mstore\n        /* \"Contracts/Hackathon.sol\":4556:4565  msg.value */\n      callvalue\n      swap3\n      dup3\n      add\n        /* \"Contracts/Hackathon.sol\":4576:4610  offeredWork.amountToStake = staked */\n      dup4\n      swap1\n      mstore\n        /* \"Contracts/Hackathon.sol\":4621:4646  balanceRecieved += staked */\n      dup1\n      sload\n      swap2\n      swap3\n        /* \"Contracts/Hackathon.sol\":4556:4565  msg.value */\n      swap2\n      dup3\n      swap2\n      swap1\n      dup2\n      swap1\n        /* \"Contracts/Hackathon.sol\":4621:4646  balanceRecieved += staked */\n      tag_215\n      swap1\n        /* \"Contracts/Hackathon.sol\":4556:4565  msg.value */\n      dup5\n      swap1\n        /* \"Contracts/Hackathon.sol\":4621:4646  balanceRecieved += staked */\n      tag_170\n      jump\t// in\n    tag_215:\n      swap1\n      swap2\n      sstore\n      pop\n      pop\n        /* \"Contracts/Hackathon.sol\":4667:4684  numOfOfferedWorks */\n      0x03\n        /* \"Contracts/Hackathon.sol\":4667:4686  numOfOfferedWorks++ */\n      dup1\n      sload\n      swap1\n        /* \"Contracts/Hackathon.sol\":4667:4684  numOfOfferedWorks */\n      0x00\n        /* \"Contracts/Hackathon.sol\":4667:4686  numOfOfferedWorks++ */\n      tag_216\n      dup4\n      tag_157\n      jump\t// in\n    tag_216:\n      swap1\n      swap2\n      sstore\n      pop\n      pop\n        /* \"Contracts/Hackathon.sol\":4710:4727  numOfOfferedWorks */\n      0x03\n      dup1\n      sload\n        /* \"Contracts/Hackathon.sol\":4697:4728  offeredWorks[numOfOfferedWorks] */\n      0x00\n      swap1\n      dup2\n      mstore\n        /* \"Contracts/Hackathon.sol\":4697:4709  offeredWorks */\n      0x04\n        /* \"Contracts/Hackathon.sol\":4697:4728  offeredWorks[numOfOfferedWorks] */\n      0x20\n      swap1\n      dup2\n      mstore\n      0x40\n      swap2\n      dup3\n      swap1\n      keccak256\n        /* \"Contracts/Hackathon.sol\":4697:4742  offeredWorks[numOfOfferedWorks] = offeredWork */\n      dup6\n      mload\n      dup2\n      sload\n      not(sub(shl(0xa0, 0x01), 0x01))\n      and\n      sub(shl(0xa0, 0x01), 0x01)\n      swap1\n      swap2\n      and\n      swap1\n      dup2\n      or\n      dup3\n      sstore\n      dup7\n      dup4\n      add\n      dup1\n      mload\n      0x01\n      dup5\n      add\n      sstore\n      dup8\n      dup6\n      add\n      dup1\n      mload\n      0x02\n      dup6\n      add\n      sstore\n      0x60\n      dup1\n      dup11\n      add\n      dup1\n      mload\n      swap6\n      swap1\n      swap9\n      add\n      dup1\n      sload\n      not(0xff)\n      and\n      swap6\n      iszero\n      iszero\n      swap6\n      swap1\n      swap6\n      or\n      swap1\n      swap5\n      sstore\n        /* \"Contracts/Hackathon.sol\":4760:4796  workOffered(msg.sender, offeredWork) */\n      dup6\n      mload\n        /* \"#utility.yul\":12279:12337   */\n      swap3\n      dup4\n      mstore\n        /* \"#utility.yul\":12375:12399   */\n      swap1\n      mload\n        /* \"#utility.yul\":12353:12373   */\n      swap4\n      dup3\n      add\n        /* \"#utility.yul\":12346:12400   */\n      swap4\n      swap1\n      swap4\n      mstore\n        /* \"#utility.yul\":12438:12462   */\n      swap2\n      mload\n        /* \"#utility.yul\":12416:12436   */\n      swap3\n      dup3\n      add\n        /* \"#utility.yul\":12409:12463   */\n      swap3\n      swap1\n      swap3\n      mstore\n        /* \"#utility.yul\":12515:12539   */\n      swap2\n      mload\n        /* \"#utility.yul\":12508:12540   */\n      iszero\n        /* \"#utility.yul\":12501:12541   */\n      iszero\n        /* \"#utility.yul\":12479:12499   */\n      swap1\n      dup3\n      add\n        /* \"#utility.yul\":12472:12542   */\n      mstore\n        /* \"Contracts/Hackathon.sol\":4772:4782  msg.sender */\n      caller\n      swap1\n        /* \"Contracts/Hackathon.sol\":4760:4796  workOffered(msg.sender, offeredWork) */\n      0x895c597c2d3a11527efbca5886dfe0f80c120de0f56aeefa770e2360dfd27955\n      swap1\n        /* \"#utility.yul\":12266:12269   */\n      0x80\n        /* \"#utility.yul\":12251:12270   */\n      add\n        /* \"Contracts/Hackathon.sol\":4760:4796  workOffered(msg.sender, offeredWork) */\n      mload(0x40)\n      dup1\n      swap2\n      sub\n      swap1\n      log2\n        /* \"Contracts/Hackathon.sol\":4372:4804  {... */\n      pop\n      pop\n        /* \"Contracts/Hackathon.sol\":4323:4804  function offerWork() public payable onlyEmployer {... */\n      jump\t// out\n        /* \"Contracts/Hackathon.sol\":5382:5725  function applyOfferedWork(uint which_) public onlyEmployee {... */\n    tag_81:\n        /* \"Contracts/Hackathon.sol\":3160:3170  msg.sender */\n      caller\n        /* \"Contracts/Hackathon.sol\":3151:3171  accounts[msg.sender] */\n      0x00\n      swap1\n      dup2\n      mstore\n        /* \"Contracts/Hackathon.sol\":3151:3159  accounts */\n      0x07\n        /* \"Contracts/Hackathon.sol\":3151:3171  accounts[msg.sender] */\n      0x20\n      mstore\n      0x40\n      swap1\n      keccak256\n        /* \"Contracts/Hackathon.sol\":3151:3182  accounts[msg.sender].isEmployee */\n      sload\n      0xff\n      0x0100\n      swap1\n      swap2\n      div\n      and\n        /* \"Contracts/Hackathon.sol\":3151:3190  accounts[msg.sender].isEmployee == true */\n      iszero\n      iszero\n        /* \"Contracts/Hackathon.sol\":3151:3182  accounts[msg.sender].isEmployee */\n      0x01\n        /* \"Contracts/Hackathon.sol\":3151:3190  accounts[msg.sender].isEmployee == true */\n      eq\n        /* \"Contracts/Hackathon.sol\":3143:3232  require(accounts[msg.sender].isEmployee == true, \"You need to be an employee to do that\") */\n      tag_220\n      jumpi\n      mload(0x40)\n      shl(0xe5, 0x461bcd)\n      dup2\n      mstore\n        /* \"#utility.yul\":12755:12757   */\n      0x20\n        /* \"Contracts/Hackathon.sol\":3143:3232  require(accounts[msg.sender].isEmployee == true, \"You need to be an employee to do that\") */\n      0x04\n      dup3\n      add\n        /* \"#utility.yul\":12737:12758   */\n      mstore\n        /* \"#utility.yul\":12794:12796   */\n      0x25\n        /* \"#utility.yul\":12774:12792   */\n      0x24\n      dup3\n      add\n        /* \"#utility.yul\":12767:12797   */\n      mstore\n        /* \"#utility.yul\":12833:12867   */\n      0x596f75206e65656420746f20626520616e20656d706c6f79656520746f20646f\n        /* \"#utility.yul\":12813:12831   */\n      0x44\n      dup3\n      add\n        /* \"#utility.yul\":12806:12868   */\n      mstore\n      shl(0xda, 0x081d1a185d)\n        /* \"#utility.yul\":12884:12902   */\n      0x64\n      dup3\n      add\n        /* \"#utility.yul\":12877:12912   */\n      mstore\n        /* \"#utility.yul\":12929:12948   */\n      0x84\n      add\n        /* \"Contracts/Hackathon.sol\":3143:3232  require(accounts[msg.sender].isEmployee == true, \"You need to be an employee to do that\") */\n      tag_145\n        /* \"#utility.yul\":12553:12954   */\n      jump\n        /* \"Contracts/Hackathon.sol\":3143:3232  require(accounts[msg.sender].isEmployee == true, \"You need to be an employee to do that\") */\n    tag_220:\n        /* \"Contracts/Hackathon.sol\":5460:5480  offeredWorks[which_] */\n      0x00\n      dup2\n      dup2\n      mstore\n        /* \"Contracts/Hackathon.sol\":5460:5472  offeredWorks */\n      0x04\n        /* \"Contracts/Hackathon.sol\":5460:5480  offeredWorks[which_] */\n      0x20\n      mstore\n      0x40\n      swap1\n      keccak256\n        /* \"Contracts/Hackathon.sol\":5460:5489  offeredWorks[which_].isSealed */\n      0x03\n      add\n      sload\n      0xff\n      and\n        /* \"Contracts/Hackathon.sol\":5460:5498  offeredWorks[which_].isSealed == false */\n      iszero\n        /* \"Contracts/Hackathon.sol\":5452:5523  require(offeredWorks[which_].isSealed == false, \"This task is now off\") */\n      tag_224\n      jumpi\n      mload(0x40)\n      shl(0xe5, 0x461bcd)\n      dup2\n      mstore\n      0x04\n      add\n      tag_145\n      swap1\n      tag_153\n      jump\t// in\n    tag_224:\n        /* \"Contracts/Hackathon.sol\":5534:5554  offeredWorks[which_] */\n      0x00\n      dup2\n      dup2\n      mstore\n        /* \"Contracts/Hackathon.sol\":5534:5546  offeredWorks */\n      0x04\n        /* \"Contracts/Hackathon.sol\":5534:5554  offeredWorks[which_] */\n      0x20\n      mstore\n      0x40\n      dup2\n      keccak256\n        /* \"Contracts/Hackathon.sol\":5534:5570  offeredWorks[which_].numOfCandidates */\n      0x01\n      add\n        /* \"Contracts/Hackathon.sol\":5534:5572  offeredWorks[which_].numOfCandidates++ */\n      dup1\n      sload\n      swap2\n      tag_226\n      dup4\n      tag_157\n      jump\t// in\n    tag_226:\n      swap1\n      swap2\n      sstore\n      pop\n      pop\n        /* \"Contracts/Hackathon.sol\":5583:5601  candidates[which_] */\n      0x00\n      dup2\n      dup2\n      mstore\n        /* \"Contracts/Hackathon.sol\":5583:5593  candidates */\n      0x06\n        /* \"Contracts/Hackathon.sol\":5583:5601  candidates[which_] */\n      0x20\n      swap1\n      dup2\n      mstore\n      0x40\n      dup1\n      dup4\n      keccak256\n        /* \"Contracts/Hackathon.sol\":5602:5614  offeredWorks */\n      0x04\n        /* \"Contracts/Hackathon.sol\":5602:5622  offeredWorks[which_] */\n      dup1\n      dup5\n      mstore\n      dup3\n      dup6\n      keccak256\n        /* \"Contracts/Hackathon.sol\":5602:5638  offeredWorks[which_].numOfCandidates */\n      0x01\n      dup2\n      add\n      sload\n        /* \"Contracts/Hackathon.sol\":5583:5639  candidates[which_][offeredWorks[which_].numOfCandidates] */\n      dup7\n      mstore\n      swap2\n      dup5\n      mstore\n      dup3\n      dup6\n      keccak256\n        /* \"Contracts/Hackathon.sol\":5583:5652  candidates[which_][offeredWorks[which_].numOfCandidates] = msg.sender */\n      dup1\n      sload\n      not(sub(shl(0xa0, 0x01), 0x01))\n      and\n        /* \"Contracts/Hackathon.sol\":5642:5652  msg.sender */\n      caller\n        /* \"Contracts/Hackathon.sol\":5583:5652  candidates[which_][offeredWorks[which_].numOfCandidates] = msg.sender */\n      swap1\n      dup2\n      or\n      swap1\n      swap2\n      sstore\n        /* \"Contracts/Hackathon.sol\":5696:5716  offeredWorks[which_] */\n      swap5\n      dup7\n      swap1\n      mstore\n      swap1\n      swap3\n      mstore\n        /* \"Contracts/Hackathon.sol\":5670:5717  appliedToWork(msg.sender, offeredWorks[which_]) */\n      mload\n      0x4f3464a1af62143857ad68d2002715db4c011db3a046f5a7321e3d70ad1e5292\n      swap2\n      tag_227\n      swap2\n      tag_205\n      jump\t// in\n    tag_227:\n      mload(0x40)\n      dup1\n      swap2\n      sub\n      swap1\n      log2\n        /* \"Contracts/Hackathon.sol\":5382:5725  function applyOfferedWork(uint which_) public onlyEmployee {... */\n      pop\n      jump\t// out\n        /* \"Contracts/Hackathon.sol\":5733:6031  function getCandidates(uint offeredWorkNumber_, uint candidateNumber_) public view returns(address){... */\n    tag_85:\n        /* \"Contracts/Hackathon.sol\":5824:5831  address */\n      0x00\n        /* \"Contracts/Hackathon.sol\":5851:5883  offeredWorks[offeredWorkNumber_] */\n      dup3\n      dup2\n      mstore\n        /* \"Contracts/Hackathon.sol\":5851:5863  offeredWorks */\n      0x04\n        /* \"Contracts/Hackathon.sol\":5851:5883  offeredWorks[offeredWorkNumber_] */\n      0x20\n      mstore\n      0x40\n      dup2\n      keccak256\n        /* \"Contracts/Hackathon.sol\":5851:5892  offeredWorks[offeredWorkNumber_].employer */\n      sload\n      sub(shl(0xa0, 0x01), 0x01)\n      and\n        /* \"Contracts/Hackathon.sol\":5896:5906  msg.sender */\n      caller\n        /* \"Contracts/Hackathon.sol\":5851:5906  offeredWorks[offeredWorkNumber_].employer == msg.sender */\n      eq\n        /* \"Contracts/Hackathon.sol\":5843:5955  require(offeredWorks[offeredWorkNumber_].employer == msg.sender,\"You are not the employer of this offered Work\") */\n      tag_229\n      jumpi\n      mload(0x40)\n      shl(0xe5, 0x461bcd)\n      dup2\n      mstore\n        /* \"#utility.yul\":13161:13163   */\n      0x20\n        /* \"Contracts/Hackathon.sol\":5843:5955  require(offeredWorks[offeredWorkNumber_].employer == msg.sender,\"You are not the employer of this offered Work\") */\n      0x04\n      dup3\n      add\n        /* \"#utility.yul\":13143:13164   */\n      mstore\n        /* \"#utility.yul\":13200:13202   */\n      0x2d\n        /* \"#utility.yul\":13180:13198   */\n      0x24\n      dup3\n      add\n        /* \"#utility.yul\":13173:13203   */\n      mstore\n        /* \"#utility.yul\":13239:13273   */\n      0x596f7520617265206e6f742074686520656d706c6f796572206f662074686973\n        /* \"#utility.yul\":13219:13237   */\n      0x44\n      dup3\n      add\n        /* \"#utility.yul\":13212:13274   */\n      mstore\n      shl(0x98, 0x206f66666572656420576f726b)\n        /* \"#utility.yul\":13290:13308   */\n      0x64\n      dup3\n      add\n        /* \"#utility.yul\":13283:13326   */\n      mstore\n        /* \"#utility.yul\":13343:13362   */\n      0x84\n      add\n        /* \"Contracts/Hackathon.sol\":5843:5955  require(offeredWorks[offeredWorkNumber_].employer == msg.sender,\"You are not the employer of this offered Work\") */\n      tag_145\n        /* \"#utility.yul\":12959:13368   */\n      jump\n        /* \"Contracts/Hackathon.sol\":5843:5955  require(offeredWorks[offeredWorkNumber_].employer == msg.sender,\"You are not the employer of this offered Work\") */\n    tag_229:\n      pop\n        /* \"Contracts/Hackathon.sol\":5975:6005  candidates[offeredWorkNumber_] */\n      0x00\n      swap2\n      dup3\n      mstore\n        /* \"Contracts/Hackathon.sol\":5975:5985  candidates */\n      0x06\n        /* \"Contracts/Hackathon.sol\":5975:6005  candidates[offeredWorkNumber_] */\n      0x20\n      swap1\n      dup2\n      mstore\n      0x40\n      dup1\n      dup5\n      keccak256\n        /* \"Contracts/Hackathon.sol\":5975:6023  candidates[offeredWorkNumber_][candidateNumber_] */\n      swap3\n      dup5\n      mstore\n      swap2\n      swap1\n      mstore\n      swap1\n      keccak256\n      sload\n      sub(shl(0xa0, 0x01), 0x01)\n      and\n      swap1\n        /* \"Contracts/Hackathon.sol\":5733:6031  function getCandidates(uint offeredWorkNumber_, uint candidateNumber_) public view returns(address){... */\n      jump\t// out\n        /* \"Contracts/Hackathon.sol\":9902:10247  function raiseDispute(uint whichAgreement_) public {... */\n    tag_90:\n        /* \"Contracts/Hackathon.sol\":9972:9999  agreements[whichAgreement_] */\n      0x00\n      dup2\n      dup2\n      mstore\n        /* \"Contracts/Hackathon.sol\":9972:9982  agreements */\n      0x05\n        /* \"Contracts/Hackathon.sol\":9972:9999  agreements[whichAgreement_] */\n      0x20\n      mstore\n      0x40\n      swap1\n      keccak256\n        /* \"Contracts/Hackathon.sol\":9972:10008  agreements[whichAgreement_].employee */\n      0x01\n      add\n      sload\n      sub(shl(0xa0, 0x01), 0x01)\n      and\n        /* \"Contracts/Hackathon.sol\":10012:10022  msg.sender */\n      caller\n        /* \"Contracts/Hackathon.sol\":9972:10022  agreements[whichAgreement_].employee == msg.sender */\n      eq\n      dup1\n        /* \"Contracts/Hackathon.sol\":9972:10076  agreements[whichAgreement_].employee == msg.sender || agreements[whichAgreement_].employer == msg.sender */\n      tag_233\n      jumpi\n      pop\n        /* \"Contracts/Hackathon.sol\":10026:10053  agreements[whichAgreement_] */\n      0x00\n      dup2\n      dup2\n      mstore\n        /* \"Contracts/Hackathon.sol\":10026:10036  agreements */\n      0x05\n        /* \"Contracts/Hackathon.sol\":10026:10053  agreements[whichAgreement_] */\n      0x20\n      mstore\n      0x40\n      swap1\n      keccak256\n        /* \"Contracts/Hackathon.sol\":10026:10062  agreements[whichAgreement_].employer */\n      sload\n      sub(shl(0xa0, 0x01), 0x01)\n      and\n        /* \"Contracts/Hackathon.sol\":10066:10076  msg.sender */\n      caller\n        /* \"Contracts/Hackathon.sol\":10026:10076  agreements[whichAgreement_].employer == msg.sender */\n      eq\n        /* \"Contracts/Hackathon.sol\":9972:10076  agreements[whichAgreement_].employee == msg.sender || agreements[whichAgreement_].employer == msg.sender */\n    tag_233:\n        /* \"Contracts/Hackathon.sol\":9964:10108  require(agreements[whichAgreement_].employee == msg.sender || agreements[whichAgreement_].employer == msg.sender, \"You do not posses authority\") */\n      tag_234\n      jumpi\n      mload(0x40)\n      shl(0xe5, 0x461bcd)\n      dup2\n      mstore\n        /* \"#utility.yul\":13575:13577   */\n      0x20\n        /* \"Contracts/Hackathon.sol\":9964:10108  require(agreements[whichAgreement_].employee == msg.sender || agreements[whichAgreement_].employer == msg.sender, \"You do not posses authority\") */\n      0x04\n      dup3\n      add\n        /* \"#utility.yul\":13557:13578   */\n      mstore\n        /* \"#utility.yul\":13614:13616   */\n      0x1b\n        /* \"#utility.yul\":13594:13612   */\n      0x24\n      dup3\n      add\n        /* \"#utility.yul\":13587:13617   */\n      mstore\n        /* \"#utility.yul\":13653:13682   */\n      0x596f7520646f206e6f7420706f7373657320617574686f726974790000000000\n        /* \"#utility.yul\":13633:13651   */\n      0x44\n      dup3\n      add\n        /* \"#utility.yul\":13626:13683   */\n      mstore\n        /* \"#utility.yul\":13700:13718   */\n      0x64\n      add\n        /* \"Contracts/Hackathon.sol\":9964:10108  require(agreements[whichAgreement_].employee == msg.sender || agreements[whichAgreement_].employer == msg.sender, \"You do not posses authority\") */\n      tag_145\n        /* \"#utility.yul\":13373:13724   */\n      jump\n        /* \"Contracts/Hackathon.sol\":9964:10108  require(agreements[whichAgreement_].employee == msg.sender || agreements[whichAgreement_].employer == msg.sender, \"You do not posses authority\") */\n    tag_234:\n        /* \"Contracts/Hackathon.sol\":10121:10148  agreements[whichAgreement_] */\n      0x00\n      dup2\n      dup2\n      mstore\n        /* \"Contracts/Hackathon.sol\":10121:10131  agreements */\n      0x05\n        /* \"Contracts/Hackathon.sol\":10121:10148  agreements[whichAgreement_] */\n      0x20\n      dup2\n      swap1\n      mstore\n      0x40\n      swap2\n      dup3\n      swap1\n      keccak256\n        /* \"Contracts/Hackathon.sol\":10121:10162  agreements[whichAgreement_].disputeRaised */\n      swap1\n      dup2\n      add\n        /* \"Contracts/Hackathon.sol\":10121:10169  agreements[whichAgreement_].disputeRaised = true */\n      dup1\n      sload\n      not(0xff0000)\n      and\n      0x010000\n      or\n      swap1\n      sstore\n        /* \"Contracts/Hackathon.sol\":10185:10239  disputeRaised(msg.sender, agreements[whichAgreement_]) */\n      swap1\n      mload\n        /* \"Contracts/Hackathon.sol\":10199:10209  msg.sender */\n      caller\n      swap2\n        /* \"Contracts/Hackathon.sol\":10185:10239  disputeRaised(msg.sender, agreements[whichAgreement_]) */\n      0x105ed52343dc940b3bdbdbdcc2e60c1dc6839b1381ceaedda9dadc75ecf8f0b5\n      swap2\n      tag_227\n      swap2\n        /* \"Contracts/Hackathon.sol\":10121:10148  agreements[whichAgreement_] */\n      swap1\n        /* \"Contracts/Hackathon.sol\":10185:10239  disputeRaised(msg.sender, agreements[whichAgreement_]) */\n      tag_187\n      jump\t// in\n        /* \"Contracts/Hackathon.sol\":11787:12688  function resolveDispluteAI(uint whichAgreement_, address beneficiary) public {... */\n    tag_95:\n        /* \"Contracts/Hackathon.sol\":11897:11906  AIaddress */\n      and(sub(shl(0xa0, 0x01), 0x01), sload(0x01))\n        /* \"Contracts/Hackathon.sol\":11883:11893  msg.sender */\n      caller\n        /* \"Contracts/Hackathon.sol\":11883:11906  msg.sender == AIaddress */\n      eq\n        /* \"Contracts/Hackathon.sol\":11875:11954  require(msg.sender == AIaddress, \"You are not allowed to resolve this dispute\") */\n      tag_239\n      jumpi\n      mload(0x40)\n      shl(0xe5, 0x461bcd)\n      dup2\n      mstore\n      0x04\n      add\n      tag_145\n      swap1\n      tag_162\n      jump\t// in\n    tag_239:\n        /* \"Contracts/Hackathon.sol\":11973:12000  agreements[whichAgreement_] */\n      0x00\n      dup3\n      dup2\n      mstore\n        /* \"Contracts/Hackathon.sol\":11973:11983  agreements */\n      0x05\n        /* \"Contracts/Hackathon.sol\":11973:12000  agreements[whichAgreement_] */\n      0x20\n      dup2\n      swap1\n      mstore\n      0x40\n      swap1\n      swap2\n      keccak256\n        /* \"Contracts/Hackathon.sol\":11973:12014  agreements[whichAgreement_].disputeRaised */\n      add\n      sload\n      0x010000\n      swap1\n      div\n      0xff\n      and\n        /* \"Contracts/Hackathon.sol\":11973:12022  agreements[whichAgreement_].disputeRaised == true */\n      iszero\n      iszero\n        /* \"Contracts/Hackathon.sol\":12018:12022  true */\n      0x01\n        /* \"Contracts/Hackathon.sol\":11973:12022  agreements[whichAgreement_].disputeRaised == true */\n      eq\n        /* \"Contracts/Hackathon.sol\":11965:12070  require(agreements[whichAgreement_].disputeRaised == true, \"There is no dispute raied in this agreement\") */\n      tag_241\n      jumpi\n      mload(0x40)\n      shl(0xe5, 0x461bcd)\n      dup2\n      mstore\n      0x04\n      add\n      tag_145\n      swap1\n      tag_165\n      jump\t// in\n    tag_241:\n        /* \"Contracts/Hackathon.sol\":12104:12131  agreements[whichAgreement_] */\n      0x00\n      dup3\n      dup2\n      mstore\n        /* \"Contracts/Hackathon.sol\":12104:12114  agreements */\n      0x05\n        /* \"Contracts/Hackathon.sol\":12104:12131  agreements[whichAgreement_] */\n      0x20\n      mstore\n      0x40\n      swap1\n      keccak256\n        /* \"Contracts/Hackathon.sol\":12104:12140  agreements[whichAgreement_].employee */\n      0x01\n      add\n      sload\n      sub(shl(0xa0, 0x01), 0x01)\n        /* \"Contracts/Hackathon.sol\":12089:12140  beneficiary == agreements[whichAgreement_].employee */\n      dup3\n      dup2\n      and\n        /* \"Contracts/Hackathon.sol\":12104:12140  agreements[whichAgreement_].employee */\n      swap2\n      and\n        /* \"Contracts/Hackathon.sol\":12089:12140  beneficiary == agreements[whichAgreement_].employee */\n      eq\n      dup1\n        /* \"Contracts/Hackathon.sol\":12089:12195  beneficiary == agreements[whichAgreement_].employee || beneficiary == agreements[whichAgreement_].employer */\n      tag_243\n      jumpi\n      pop\n        /* \"Contracts/Hackathon.sol\":12159:12186  agreements[whichAgreement_] */\n      0x00\n      dup3\n      dup2\n      mstore\n        /* \"Contracts/Hackathon.sol\":12159:12169  agreements */\n      0x05\n        /* \"Contracts/Hackathon.sol\":12159:12186  agreements[whichAgreement_] */\n      0x20\n      mstore\n      0x40\n      swap1\n      keccak256\n        /* \"Contracts/Hackathon.sol\":12159:12195  agreements[whichAgreement_].employer */\n      sload\n      sub(shl(0xa0, 0x01), 0x01)\n        /* \"Contracts/Hackathon.sol\":12144:12195  beneficiary == agreements[whichAgreement_].employer */\n      dup3\n      dup2\n      and\n        /* \"Contracts/Hackathon.sol\":12159:12195  agreements[whichAgreement_].employer */\n      swap2\n      and\n        /* \"Contracts/Hackathon.sol\":12144:12195  beneficiary == agreements[whichAgreement_].employer */\n      eq\n        /* \"Contracts/Hackathon.sol\":12089:12195  beneficiary == agreements[whichAgreement_].employee || beneficiary == agreements[whichAgreement_].employer */\n    tag_243:\n        /* \"Contracts/Hackathon.sol\":12081:12268  require(beneficiary == agreements[whichAgreement_].employee || beneficiary == agreements[whichAgreement_].employer, \"The beneficiary is not an employee nor an employer of this agreement\") */\n      tag_244\n      jumpi\n      mload(0x40)\n      shl(0xe5, 0x461bcd)\n      dup2\n      mstore\n        /* \"#utility.yul\":13931:13933   */\n      0x20\n        /* \"Contracts/Hackathon.sol\":12081:12268  require(beneficiary == agreements[whichAgreement_].employee || beneficiary == agreements[whichAgreement_].employer, \"The beneficiary is not an employee nor an employer of this agreement\") */\n      0x04\n      dup3\n      add\n        /* \"#utility.yul\":13913:13934   */\n      mstore\n        /* \"#utility.yul\":13970:13972   */\n      0x44\n        /* \"#utility.yul\":13950:13968   */\n      0x24\n      dup3\n      add\n        /* \"#utility.yul\":13943:13973   */\n      dup2\n      swap1\n      mstore\n        /* \"#utility.yul\":14009:14043   */\n      0x5468652062656e6566696369617279206973206e6f7420616e20656d706c6f79\n        /* \"#utility.yul\":13989:14007   */\n      swap1\n      dup3\n      add\n        /* \"#utility.yul\":13982:14044   */\n      mstore\n        /* \"#utility.yul\":14080:14114   */\n      0x6565206e6f7220616e20656d706c6f796572206f662074686973206167726565\n        /* \"#utility.yul\":14060:14078   */\n      0x64\n      dup3\n      add\n        /* \"#utility.yul\":14053:14115   */\n      mstore\n      shl(0xe2, 0x1b595b9d)\n        /* \"#utility.yul\":14131:14150   */\n      0x84\n      dup3\n      add\n        /* \"#utility.yul\":14124:14159   */\n      mstore\n        /* \"#utility.yul\":14176:14195   */\n      0xa4\n      add\n        /* \"Contracts/Hackathon.sol\":12081:12268  require(beneficiary == agreements[whichAgreement_].employee || beneficiary == agreements[whichAgreement_].employer, \"The beneficiary is not an employee nor an employer of this agreement\") */\n      tag_145\n        /* \"#utility.yul\":13729:14201   */\n      jump\n        /* \"Contracts/Hackathon.sol\":12081:12268  require(beneficiary == agreements[whichAgreement_].employee || beneficiary == agreements[whichAgreement_].employer, \"The beneficiary is not an employee nor an employer of this agreement\") */\n    tag_244:\n        /* \"Contracts/Hackathon.sol\":12287:12314  agreements[whichAgreement_] */\n      0x00\n      dup3\n      dup2\n      mstore\n        /* \"Contracts/Hackathon.sol\":12287:12297  agreements */\n      0x05\n        /* \"Contracts/Hackathon.sol\":12287:12314  agreements[whichAgreement_] */\n      0x20\n      dup2\n      swap1\n      mstore\n      0x40\n      swap1\n      swap2\n      keccak256\n        /* \"Contracts/Hackathon.sol\":12287:12327  agreements[whichAgreement_].resolveCheck */\n      add\n      sload\n      0x01000000\n      swap1\n      div\n      0xff\n      and\n        /* \"Contracts/Hackathon.sol\":12287:12336  agreements[whichAgreement_].resolveCheck == false */\n      iszero\n        /* \"Contracts/Hackathon.sol\":12279:12371  require(agreements[whichAgreement_].resolveCheck == false, \"This dispute has been resolved\") */\n      tag_247\n      jumpi\n      mload(0x40)\n      shl(0xe5, 0x461bcd)\n      dup2\n      mstore\n        /* \"#utility.yul\":8389:8391   */\n      0x20\n        /* \"Contracts/Hackathon.sol\":12279:12371  require(agreements[whichAgreement_].resolveCheck == false, \"This dispute has been resolved\") */\n      0x04\n      dup3\n      add\n        /* \"#utility.yul\":8371:8392   */\n      mstore\n        /* \"#utility.yul\":8428:8430   */\n      0x1e\n        /* \"#utility.yul\":8408:8426   */\n      0x24\n      dup3\n      add\n        /* \"#utility.yul\":8401:8431   */\n      mstore\n        /* \"#utility.yul\":8467:8499   */\n      0x54686973206469737075746520686173206265656e207265736f6c7665640000\n        /* \"#utility.yul\":8447:8465   */\n      0x44\n      dup3\n      add\n        /* \"#utility.yul\":8440:8500   */\n      mstore\n        /* \"#utility.yul\":8517:8535   */\n      0x64\n      add\n        /* \"Contracts/Hackathon.sol\":12279:12371  require(agreements[whichAgreement_].resolveCheck == false, \"This dispute has been resolved\") */\n      tag_145\n        /* \"#utility.yul\":8187:8541   */\n      jump\n        /* \"Contracts/Hackathon.sol\":12279:12371  require(agreements[whichAgreement_].resolveCheck == false, \"This dispute has been resolved\") */\n    tag_247:\n        /* \"Contracts/Hackathon.sol\":12392:12419  agreements[whichAgreement_] */\n      0x00\n      dup3\n      dup2\n      mstore\n        /* \"Contracts/Hackathon.sol\":12392:12402  agreements */\n      0x05\n        /* \"Contracts/Hackathon.sol\":12392:12419  agreements[whichAgreement_] */\n      0x20\n      dup2\n      swap1\n      mstore\n      0x40\n      dup1\n      dup4\n      keccak256\n        /* \"Contracts/Hackathon.sol\":12392:12432  agreements[whichAgreement_].resolveCheck */\n      swap2\n      dup3\n      add\n        /* \"Contracts/Hackathon.sol\":12392:12439  agreements[whichAgreement_].resolveCheck = true */\n      dup1\n      sload\n      not(0xff000000)\n      and\n      0x01000000\n      or\n      swap1\n      sstore\n        /* \"Contracts/Hackathon.sol\":12392:12432  agreements[whichAgreement_].resolveCheck */\n      0x03\n        /* \"Contracts/Hackathon.sol\":12473:12518  agreements[whichAgreement_].amountForEmployee */\n      swap1\n      swap2\n      add\n      sload\n        /* \"Contracts/Hackathon.sol\":12529:12573  payable(beneficiary).transfer(amountToStake) */\n      swap1\n      mload\n        /* \"Contracts/Hackathon.sol\":12473:12518  agreements[whichAgreement_].amountForEmployee */\n      swap1\n      swap2\n      sub(shl(0xa0, 0x01), 0x01)\n        /* \"Contracts/Hackathon.sol\":12529:12558  payable(beneficiary).transfer */\n      dup5\n      and\n      swap2\n        /* \"Contracts/Hackathon.sol\":12529:12573  payable(beneficiary).transfer(amountToStake) */\n      dup4\n      iszero\n      0x08fc\n      mul\n      swap2\n        /* \"Contracts/Hackathon.sol\":12473:12518  agreements[whichAgreement_].amountForEmployee */\n      dup5\n      swap2\n        /* \"Contracts/Hackathon.sol\":12529:12573  payable(beneficiary).transfer(amountToStake) */\n      swap1\n      dup2\n        /* \"Contracts/Hackathon.sol\":12392:12419  agreements[whichAgreement_] */\n      dup2\n        /* \"Contracts/Hackathon.sol\":12529:12573  payable(beneficiary).transfer(amountToStake) */\n      dup2\n        /* \"Contracts/Hackathon.sol\":12473:12518  agreements[whichAgreement_].amountForEmployee */\n      dup6\n        /* \"Contracts/Hackathon.sol\":12529:12558  payable(beneficiary).transfer */\n      dup9\n        /* \"Contracts/Hackathon.sol\":12529:12573  payable(beneficiary).transfer(amountToStake) */\n      dup9\n      call\n      swap4\n      pop\n      pop\n      pop\n      pop\n      iszero\n      dup1\n      iszero\n      tag_250\n      jumpi\n      returndatasize\n      0x00\n      dup1\n      returndatacopy\n      revert(0x00, returndatasize)\n    tag_250:\n      pop\n        /* \"Contracts/Hackathon.sol\":12605:12618  amountToStake */\n      dup1\n        /* \"Contracts/Hackathon.sol\":12586:12601  balanceRecieved */\n      0x00\n      dup1\n        /* \"Contracts/Hackathon.sol\":12586:12618  balanceRecieved -= amountToStake */\n      dup3\n      dup3\n      sload\n      tag_251\n      swap2\n      swap1\n      tag_185\n      jump\t// in\n    tag_251:\n      swap1\n      swap2\n      sstore\n      pop\n      pop\n        /* \"Contracts/Hackathon.sol\":12652:12679  agreements[whichAgreement_] */\n      0x00\n      dup4\n      dup2\n      mstore\n        /* \"Contracts/Hackathon.sol\":12652:12662  agreements */\n      0x05\n        /* \"Contracts/Hackathon.sol\":12652:12679  agreements[whichAgreement_] */\n      0x20\n      mstore\n      0x40\n      swap1\n      dup2\n      swap1\n      keccak256\n        /* \"Contracts/Hackathon.sol\":12636:12680  disputeResolved(agreements[whichAgreement_]) */\n      swap1\n      mload\n      0xe990074bc649f32546aa103bec609bbe502737d71777a6037c3014540965022d\n      swap2\n      tag_252\n      swap2\n      tag_187\n      jump\t// in\n    tag_252:\n      mload(0x40)\n      dup1\n      swap2\n      sub\n      swap1\n      log1\n        /* \"Contracts/Hackathon.sol\":11864:12688  {... */\n      pop\n        /* \"Contracts/Hackathon.sol\":11787:12688  function resolveDispluteAI(uint whichAgreement_, address beneficiary) public {... */\n      pop\n      pop\n      jump\t// out\n        /* \"Contracts/Hackathon.sol\":3336:4189  function newAccount(bool isEmployee_, bool isEmployer_,bool isMiddleman_) public {... */\n    tag_106:\n        /* \"Contracts/Hackathon.sol\":3428:3445  uint accountBools */\n      0x00\n        /* \"Contracts/Hackathon.sol\":3462:3473  isEmployee_ */\n      dup4\n        /* \"Contracts/Hackathon.sol\":3458:3516  if (isEmployee_) {... */\n      iszero\n      tag_254\n      jumpi\n        /* \"Contracts/Hackathon.sol\":3490:3504  accountBools++ */\n      dup1\n      tag_255\n      dup2\n      tag_157\n      jump\t// in\n    tag_255:\n      swap2\n      pop\n      pop\n        /* \"Contracts/Hackathon.sol\":3458:3516  if (isEmployee_) {... */\n    tag_254:\n        /* \"Contracts/Hackathon.sol\":3530:3541  isEmployer_ */\n      dup3\n        /* \"Contracts/Hackathon.sol\":3526:3584  if (isEmployer_) {... */\n      iszero\n      tag_256\n      jumpi\n        /* \"Contracts/Hackathon.sol\":3558:3572  accountBools++ */\n      dup1\n      tag_257\n      dup2\n      tag_157\n      jump\t// in\n    tag_257:\n      swap2\n      pop\n      pop\n        /* \"Contracts/Hackathon.sol\":3526:3584  if (isEmployer_) {... */\n    tag_256:\n        /* \"Contracts/Hackathon.sol\":3598:3610  isMiddleman_ */\n      dup2\n        /* \"Contracts/Hackathon.sol\":3594:3653  if (isMiddleman_) {... */\n      iszero\n      tag_258\n      jumpi\n        /* \"Contracts/Hackathon.sol\":3627:3641  accountBools++ */\n      dup1\n      tag_259\n      dup2\n      tag_157\n      jump\t// in\n    tag_259:\n      swap2\n      pop\n      pop\n        /* \"Contracts/Hackathon.sol\":3594:3653  if (isMiddleman_) {... */\n    tag_258:\n        /* \"Contracts/Hackathon.sol\":3673:3685  accountBools */\n      dup1\n        /* \"Contracts/Hackathon.sol\":3689:3690  1 */\n      0x01\n        /* \"Contracts/Hackathon.sol\":3673:3690  accountBools == 1 */\n      eq\n        /* \"Contracts/Hackathon.sol\":3665:3719  require(accountBools == 1, \"Please choose one option\") */\n      tag_260\n      jumpi\n      mload(0x40)\n      shl(0xe5, 0x461bcd)\n      dup2\n      mstore\n        /* \"#utility.yul\":14408:14410   */\n      0x20\n        /* \"Contracts/Hackathon.sol\":3665:3719  require(accountBools == 1, \"Please choose one option\") */\n      0x04\n      dup3\n      add\n        /* \"#utility.yul\":14390:14411   */\n      mstore\n        /* \"#utility.yul\":14447:14449   */\n      0x18\n        /* \"#utility.yul\":14427:14445   */\n      0x24\n      dup3\n      add\n        /* \"#utility.yul\":14420:14450   */\n      mstore\n        /* \"#utility.yul\":14486:14512   */\n      0x506c656173652063686f6f7365206f6e65206f7074696f6e0000000000000000\n        /* \"#utility.yul\":14466:14484   */\n      0x44\n      dup3\n      add\n        /* \"#utility.yul\":14459:14513   */\n      mstore\n        /* \"#utility.yul\":14530:14548   */\n      0x64\n      add\n        /* \"Contracts/Hackathon.sol\":3665:3719  require(accountBools == 1, \"Please choose one option\") */\n      tag_145\n        /* \"#utility.yul\":14206:14554   */\n      jump\n        /* \"Contracts/Hackathon.sol\":3665:3719  require(accountBools == 1, \"Please choose one option\") */\n    tag_260:\n        /* \"Contracts/Hackathon.sol\":3747:3757  msg.sender */\n      caller\n        /* \"Contracts/Hackathon.sol\":3738:3758  accounts[msg.sender] */\n      0x00\n      swap1\n      dup2\n      mstore\n        /* \"Contracts/Hackathon.sol\":3738:3746  accounts */\n      0x07\n        /* \"Contracts/Hackathon.sol\":3738:3758  accounts[msg.sender] */\n      0x20\n      mstore\n      0x40\n      swap1\n      keccak256\n        /* \"Contracts/Hackathon.sol\":3738:3769  accounts[msg.sender].registered */\n      sload\n      0x01000000\n      swap1\n      div\n      0xff\n      and\n        /* \"Contracts/Hackathon.sol\":3738:3778  accounts[msg.sender].registered == false */\n      iszero\n        /* \"Contracts/Hackathon.sol\":3730:3809  require(accounts[msg.sender].registered == false, \"You are already registered\") */\n      tag_263\n      jumpi\n      mload(0x40)\n      shl(0xe5, 0x461bcd)\n      dup2\n      mstore\n        /* \"#utility.yul\":14761:14763   */\n      0x20\n        /* \"Contracts/Hackathon.sol\":3730:3809  require(accounts[msg.sender].registered == false, \"You are already registered\") */\n      0x04\n      dup3\n      add\n        /* \"#utility.yul\":14743:14764   */\n      mstore\n        /* \"#utility.yul\":14800:14802   */\n      0x1a\n        /* \"#utility.yul\":14780:14798   */\n      0x24\n      dup3\n      add\n        /* \"#utility.yul\":14773:14803   */\n      mstore\n        /* \"#utility.yul\":14839:14867   */\n      0x596f752061726520616c72656164792072656769737465726564000000000000\n        /* \"#utility.yul\":14819:14837   */\n      0x44\n      dup3\n      add\n        /* \"#utility.yul\":14812:14868   */\n      mstore\n        /* \"#utility.yul\":14885:14903   */\n      0x64\n      add\n        /* \"Contracts/Hackathon.sol\":3730:3809  require(accounts[msg.sender].registered == false, \"You are already registered\") */\n      tag_145\n        /* \"#utility.yul\":14559:14909   */\n      jump\n        /* \"Contracts/Hackathon.sol\":3730:3809  require(accounts[msg.sender].registered == false, \"You are already registered\") */\n    tag_263:\n      0x40\n      dup1\n      mload\n      0x80\n      dup1\n      dup3\n      add\n      dup4\n      mstore\n      0x00\n      dup1\n      dup4\n      mstore\n      0x20\n      dup1\n      dup5\n      add\n      dup3\n      swap1\n      mstore\n      dup4\n      dup6\n      add\n      dup3\n      swap1\n      mstore\n      0x60\n      swap4\n      dup5\n      add\n      dup3\n      swap1\n      mstore\n        /* \"Contracts/Hackathon.sol\":3874:3884  msg.sender */\n      caller\n        /* \"Contracts/Hackathon.sol\":3865:3885  accounts[msg.sender] */\n      swap2\n      dup3\n      swap1\n      mstore\n        /* \"Contracts/Hackathon.sol\":3865:3873  accounts */\n      0x07\n        /* \"Contracts/Hackathon.sol\":3865:3885  accounts[msg.sender] */\n      dup2\n      mstore\n        /* \"Contracts/Hackathon.sol\":3855:3885  account = accounts[msg.sender] */\n      dup5\n      mload\n      swap3\n      dup4\n      add\n      dup6\n      mstore\n        /* \"Contracts/Hackathon.sol\":3896:3930  account.isMiddleman = isMiddleman_ */\n      dup7\n      iszero\n      iszero\n        /* \"Contracts/Hackathon.sol\":3855:3885  account = accounts[msg.sender] */\n      dup4\n      dup7\n      add\n        /* \"Contracts/Hackathon.sol\":3896:3930  account.isMiddleman = isMiddleman_ */\n      dup2\n      swap1\n      mstore\n        /* \"Contracts/Hackathon.sol\":3941:3973  account.isEmployer = isEmployer_ */\n      dup9\n      iszero\n      iszero\n      dup1\n      dup6\n      mstore\n        /* \"Contracts/Hackathon.sol\":3984:4016  account.isEmployee = isEmployee_ */\n      dup11\n      iszero\n      iszero\n        /* \"Contracts/Hackathon.sol\":3855:3885  account = accounts[msg.sender] */\n      dup6\n      dup5\n      add\n        /* \"Contracts/Hackathon.sol\":3984:4016  account.isEmployee = isEmployee_ */\n      dup2\n      swap1\n      mstore\n        /* \"Contracts/Hackathon.sol\":3855:3885  account = accounts[msg.sender] */\n      0x01\n      dup7\n      dup9\n      add\n        /* \"Contracts/Hackathon.sol\":4072:4097  account.registered = true */\n      mstore\n        /* \"Contracts/Hackathon.sol\":4115:4181  accountCreated(msg.sender, isEmployee_, isEmployer_, isMiddleman_) */\n      dup8\n      mload\n        /* \"#utility.yul\":15098:15139   */\n      swap1\n      dup2\n      mstore\n        /* \"#utility.yul\":15155:15173   */\n      swap3\n      dup4\n      add\n        /* \"#utility.yul\":15148:15198   */\n      mstore\n        /* \"#utility.yul\":15214:15232   */\n      dup2\n      dup7\n      add\n        /* \"#utility.yul\":15207:15257   */\n      mstore\n        /* \"Contracts/Hackathon.sol\":4115:4181  accountCreated(msg.sender, isEmployee_, isEmployer_, isMiddleman_) */\n      swap4\n      mload\n        /* \"Contracts/Hackathon.sol\":3855:3885  account = accounts[msg.sender] */\n      swap2\n      swap4\n        /* \"Contracts/Hackathon.sol\":3874:3884  msg.sender */\n      swap1\n      swap3\n        /* \"Contracts/Hackathon.sol\":4115:4181  accountCreated(msg.sender, isEmployee_, isEmployer_, isMiddleman_) */\n      0xd57b2b801ec598b0ff16aa0e5b33857b32ac2725fde743b6b641d8826fda041f\n      swap3\n      swap2\n      dup3\n      swap1\n      sub\n      add\n      swap1\n      log2\n        /* \"Contracts/Hackathon.sol\":3417:4189  {... */\n      pop\n      pop\n        /* \"Contracts/Hackathon.sol\":3336:4189  function newAccount(bool isEmployee_, bool isEmployer_,bool isMiddleman_) public {... */\n      pop\n      pop\n      pop\n      jump\t// out\n        /* \"Contracts/Hackathon.sol\":9012:9284  function setEmployeeDone(uint whichAgreement_) public {... */\n    tag_110:\n        /* \"Contracts/Hackathon.sol\":9085:9112  agreements[whichAgreement_] */\n      0x00\n      dup2\n      dup2\n      mstore\n        /* \"Contracts/Hackathon.sol\":9085:9095  agreements */\n      0x05\n        /* \"Contracts/Hackathon.sol\":9085:9112  agreements[whichAgreement_] */\n      0x20\n      mstore\n      0x40\n      swap1\n      keccak256\n        /* \"Contracts/Hackathon.sol\":9085:9121  agreements[whichAgreement_].employee */\n      0x01\n      add\n      sload\n      sub(shl(0xa0, 0x01), 0x01)\n      and\n        /* \"Contracts/Hackathon.sol\":9125:9135  msg.sender */\n      caller\n        /* \"Contracts/Hackathon.sol\":9085:9135  agreements[whichAgreement_].employee == msg.sender */\n      eq\n        /* \"Contracts/Hackathon.sol\":9077:9182  require(agreements[whichAgreement_].employee == msg.sender, \"You are not the employee of this agreement\") */\n      tag_271\n      jumpi\n      mload(0x40)\n      shl(0xe5, 0x461bcd)\n      dup2\n      mstore\n        /* \"#utility.yul\":15470:15472   */\n      0x20\n        /* \"Contracts/Hackathon.sol\":9077:9182  require(agreements[whichAgreement_].employee == msg.sender, \"You are not the employee of this agreement\") */\n      0x04\n      dup3\n      add\n        /* \"#utility.yul\":15452:15473   */\n      mstore\n        /* \"#utility.yul\":15509:15511   */\n      0x2a\n        /* \"#utility.yul\":15489:15507   */\n      0x24\n      dup3\n      add\n        /* \"#utility.yul\":15482:15512   */\n      mstore\n        /* \"#utility.yul\":15548:15582   */\n      0x596f7520617265206e6f742074686520656d706c6f796565206f662074686973\n        /* \"#utility.yul\":15528:15546   */\n      0x44\n      dup3\n      add\n        /* \"#utility.yul\":15521:15583   */\n      mstore\n      shl(0xb2, 0x081859dc99595b595b9d)\n        /* \"#utility.yul\":15599:15617   */\n      0x64\n      dup3\n      add\n        /* \"#utility.yul\":15592:15632   */\n      mstore\n        /* \"#utility.yul\":15649:15668   */\n      0x84\n      add\n        /* \"Contracts/Hackathon.sol\":9077:9182  require(agreements[whichAgreement_].employee == msg.sender, \"You are not the employee of this agreement\") */\n      tag_145\n        /* \"#utility.yul\":15268:15674   */\n      jump\n        /* \"Contracts/Hackathon.sol\":9077:9182  require(agreements[whichAgreement_].employee == msg.sender, \"You are not the employee of this agreement\") */\n    tag_271:\n        /* \"Contracts/Hackathon.sol\":9193:9220  agreements[whichAgreement_] */\n      0x00\n      dup2\n      dup2\n      mstore\n        /* \"Contracts/Hackathon.sol\":9193:9203  agreements */\n      0x05\n        /* \"Contracts/Hackathon.sol\":9193:9220  agreements[whichAgreement_] */\n      0x20\n      dup2\n      dup2\n      mstore\n      0x40\n      swap3\n      dup4\n      swap1\n      keccak256\n        /* \"Contracts/Hackathon.sol\":9193:9233  agreements[whichAgreement_].employeeDone */\n      swap1\n      swap2\n      add\n        /* \"Contracts/Hackathon.sol\":9193:9240  agreements[whichAgreement_].employeeDone = true */\n      dup1\n      sload\n      not(0xff)\n      and\n        /* \"Contracts/Hackathon.sol\":9236:9240  true */\n      0x01\n        /* \"Contracts/Hackathon.sol\":9193:9240  agreements[whichAgreement_].employeeDone = true */\n      swap1\n      dup2\n      or\n      swap1\n      swap2\n      sstore\n        /* \"Contracts/Hackathon.sol\":9258:9276  employeeDone(true) */\n      swap2\n      mload\n        /* \"#utility.yul\":15819:15860   */\n      swap2\n      dup3\n      mstore\n        /* \"Contracts/Hackathon.sol\":9258:9276  employeeDone(true) */\n      0x6b5b92d1755824b841015b7514f1ac495070c0c43a54e1910906802b69d8ef1a\n      swap2\n        /* \"#utility.yul\":15792:15810   */\n      add\n        /* \"Contracts/Hackathon.sol\":9258:9276  employeeDone(true) */\n      mload(0x40)\n      dup1\n      swap2\n      sub\n      swap1\n      log1\n        /* \"Contracts/Hackathon.sol\":9012:9284  function setEmployeeDone(uint whichAgreement_) public {... */\n      pop\n      jump\t// out\n        /* \"Contracts/Hackathon.sol\":8650:9004  function middleManValidate(uint whichAgreement_, uint whichMiddleman_) public {... */\n    tag_114:\n        /* \"Contracts/Hackathon.sol\":8747:8779  askedMiddlemans[whichAgreement_] */\n      0x00\n      dup3\n      dup2\n      mstore\n        /* \"Contracts/Hackathon.sol\":8747:8762  askedMiddlemans */\n      0x0a\n        /* \"Contracts/Hackathon.sol\":8747:8779  askedMiddlemans[whichAgreement_] */\n      0x20\n      swap1\n      dup2\n      mstore\n      0x40\n      dup1\n      dup4\n      keccak256\n        /* \"Contracts/Hackathon.sol\":8747:8796  askedMiddlemans[whichAgreement_][whichMiddleman_] */\n      dup5\n      dup5\n      mstore\n      swap1\n      swap2\n      mstore\n      swap1\n      keccak256\n      sload\n      sub(shl(0xa0, 0x01), 0x01)\n      and\n        /* \"Contracts/Hackathon.sol\":8800:8810  msg.sender */\n      caller\n        /* \"Contracts/Hackathon.sol\":8747:8810  askedMiddlemans[whichAgreement_][whichMiddleman_] == msg.sender */\n      eq\n        /* \"Contracts/Hackathon.sol\":8739:8870  require(askedMiddlemans[whichAgreement_][whichMiddleman_] == msg.sender, \"You are not asked to be the middleman of this agreement\") */\n      tag_277\n      jumpi\n      mload(0x40)\n      shl(0xe5, 0x461bcd)\n      dup2\n      mstore\n        /* \"#utility.yul\":16073:16075   */\n      0x20\n        /* \"Contracts/Hackathon.sol\":8739:8870  require(askedMiddlemans[whichAgreement_][whichMiddleman_] == msg.sender, \"You are not asked to be the middleman of this agreement\") */\n      0x04\n      dup3\n      add\n        /* \"#utility.yul\":16055:16076   */\n      mstore\n        /* \"#utility.yul\":16112:16114   */\n      0x37\n        /* \"#utility.yul\":16092:16110   */\n      0x24\n      dup3\n      add\n        /* \"#utility.yul\":16085:16115   */\n      mstore\n        /* \"#utility.yul\":16151:16185   */\n      0x596f7520617265206e6f742061736b656420746f20626520746865206d696464\n        /* \"#utility.yul\":16131:16149   */\n      0x44\n      dup3\n      add\n        /* \"#utility.yul\":16124:16186   */\n      mstore\n        /* \"#utility.yul\":16222:16247   */\n      0x6c656d616e206f6620746869732061677265656d656e74000000000000000000\n        /* \"#utility.yul\":16202:16220   */\n      0x64\n      dup3\n      add\n        /* \"#utility.yul\":16195:16248   */\n      mstore\n        /* \"#utility.yul\":16265:16284   */\n      0x84\n      add\n        /* \"Contracts/Hackathon.sol\":8739:8870  require(askedMiddlemans[whichAgreement_][whichMiddleman_] == msg.sender, \"You are not asked to be the middleman of this agreement\") */\n      tag_145\n        /* \"#utility.yul\":15871:16290   */\n      jump\n        /* \"Contracts/Hackathon.sol\":8739:8870  require(askedMiddlemans[whichAgreement_][whichMiddleman_] == msg.sender, \"You are not asked to be the middleman of this agreement\") */\n    tag_277:\n        /* \"Contracts/Hackathon.sol\":8881:8908  agreements[whichAgreement_] */\n      0x00\n      dup3\n      dup2\n      mstore\n        /* \"Contracts/Hackathon.sol\":8881:8891  agreements */\n      0x05\n        /* \"Contracts/Hackathon.sol\":8881:8908  agreements[whichAgreement_] */\n      0x20\n      mstore\n      0x40\n      swap1\n      dup2\n      swap1\n      keccak256\n        /* \"Contracts/Hackathon.sol\":8881:8918  agreements[whichAgreement_].middleman */\n      0x02\n      dup2\n      add\n        /* \"Contracts/Hackathon.sol\":8881:8931  agreements[whichAgreement_].middleman = msg.sender */\n      dup1\n      sload\n      not(sub(shl(0xa0, 0x01), 0x01))\n      and\n        /* \"Contracts/Hackathon.sol\":8921:8931  msg.sender */\n      caller\n        /* \"Contracts/Hackathon.sol\":8881:8931  agreements[whichAgreement_].middleman = msg.sender */\n      or\n      swap1\n      sstore\n        /* \"Contracts/Hackathon.sol\":8949:8996  middlemanValidated(agreements[whichAgreement_]) */\n      swap1\n      mload\n      0xd217779db836ec8fbee3cbc07d88c8444ed736420f831b8cbfb107ce43bc6532\n      swap2\n      tag_204\n      swap2\n      tag_187\n      jump\t// in\n        /* \"Contracts/Hackathon.sol\":9292:9894  function setEmployerValidate(uint whichAgreement_) public {... */\n    tag_122:\n        /* \"Contracts/Hackathon.sol\":9369:9396  agreements[whichAgreement_] */\n      0x00\n      dup2\n      dup2\n      mstore\n        /* \"Contracts/Hackathon.sol\":9369:9379  agreements */\n      0x05\n        /* \"Contracts/Hackathon.sol\":9369:9396  agreements[whichAgreement_] */\n      0x20\n      mstore\n      0x40\n      swap1\n      keccak256\n        /* \"Contracts/Hackathon.sol\":9369:9405  agreements[whichAgreement_].employer */\n      sload\n      sub(shl(0xa0, 0x01), 0x01)\n      and\n        /* \"Contracts/Hackathon.sol\":9409:9419  msg.sender */\n      caller\n        /* \"Contracts/Hackathon.sol\":9369:9419  agreements[whichAgreement_].employer == msg.sender */\n      eq\n        /* \"Contracts/Hackathon.sol\":9361:9466  require(agreements[whichAgreement_].employer == msg.sender, \"You are not the employer of this agreement\") */\n      tag_282\n      jumpi\n      mload(0x40)\n      shl(0xe5, 0x461bcd)\n      dup2\n      mstore\n        /* \"#utility.yul\":16497:16499   */\n      0x20\n        /* \"Contracts/Hackathon.sol\":9361:9466  require(agreements[whichAgreement_].employer == msg.sender, \"You are not the employer of this agreement\") */\n      0x04\n      dup3\n      add\n        /* \"#utility.yul\":16479:16500   */\n      mstore\n        /* \"#utility.yul\":16536:16538   */\n      0x2a\n        /* \"#utility.yul\":16516:16534   */\n      0x24\n      dup3\n      add\n        /* \"#utility.yul\":16509:16539   */\n      mstore\n        /* \"#utility.yul\":16575:16609   */\n      0x596f7520617265206e6f742074686520656d706c6f796572206f662074686973\n        /* \"#utility.yul\":16555:16573   */\n      0x44\n      dup3\n      add\n        /* \"#utility.yul\":16548:16610   */\n      mstore\n      shl(0xb2, 0x081859dc99595b595b9d)\n        /* \"#utility.yul\":16626:16644   */\n      0x64\n      dup3\n      add\n        /* \"#utility.yul\":16619:16659   */\n      mstore\n        /* \"#utility.yul\":16676:16695   */\n      0x84\n      add\n        /* \"Contracts/Hackathon.sol\":9361:9466  require(agreements[whichAgreement_].employer == msg.sender, \"You are not the employer of this agreement\") */\n      tag_145\n        /* \"#utility.yul\":16295:16701   */\n      jump\n        /* \"Contracts/Hackathon.sol\":9361:9466  require(agreements[whichAgreement_].employer == msg.sender, \"You are not the employer of this agreement\") */\n    tag_282:\n        /* \"Contracts/Hackathon.sol\":9485:9512  agreements[whichAgreement_] */\n      0x00\n      dup2\n      dup2\n      mstore\n        /* \"Contracts/Hackathon.sol\":9485:9495  agreements */\n      0x05\n        /* \"Contracts/Hackathon.sol\":9485:9512  agreements[whichAgreement_] */\n      0x20\n      dup2\n      swap1\n      mstore\n      0x40\n      swap1\n      swap2\n      keccak256\n        /* \"Contracts/Hackathon.sol\":9485:9525  agreements[whichAgreement_].employeeDone */\n      add\n      sload\n      0xff\n      and\n        /* \"Contracts/Hackathon.sol\":9485:9533  agreements[whichAgreement_].employeeDone == true */\n      iszero\n      iszero\n        /* \"Contracts/Hackathon.sol\":9485:9525  agreements[whichAgreement_].employeeDone */\n      0x01\n        /* \"Contracts/Hackathon.sol\":9485:9533  agreements[whichAgreement_].employeeDone == true */\n      eq\n        /* \"Contracts/Hackathon.sol\":9477:9581  require(agreements[whichAgreement_].employeeDone == true, \"The employee is not done with this task yet\") */\n      tag_285\n      jumpi\n      mload(0x40)\n      shl(0xe5, 0x461bcd)\n      dup2\n      mstore\n        /* \"#utility.yul\":16908:16910   */\n      0x20\n        /* \"Contracts/Hackathon.sol\":9477:9581  require(agreements[whichAgreement_].employeeDone == true, \"The employee is not done with this task yet\") */\n      0x04\n      dup3\n      add\n        /* \"#utility.yul\":16890:16911   */\n      mstore\n        /* \"#utility.yul\":16947:16949   */\n      0x2b\n        /* \"#utility.yul\":16927:16945   */\n      0x24\n      dup3\n      add\n        /* \"#utility.yul\":16920:16950   */\n      mstore\n        /* \"#utility.yul\":16986:17020   */\n      0x54686520656d706c6f796565206973206e6f7420646f6e652077697468207468\n        /* \"#utility.yul\":16966:16984   */\n      0x44\n      dup3\n      add\n        /* \"#utility.yul\":16959:17021   */\n      mstore\n      shl(0xaa, 0x1a5cc81d185cdac81e595d)\n        /* \"#utility.yul\":17037:17055   */\n      0x64\n      dup3\n      add\n        /* \"#utility.yul\":17030:17071   */\n      mstore\n        /* \"#utility.yul\":17088:17107   */\n      0x84\n      add\n        /* \"Contracts/Hackathon.sol\":9477:9581  require(agreements[whichAgreement_].employeeDone == true, \"The employee is not done with this task yet\") */\n      tag_145\n        /* \"#utility.yul\":16706:17113   */\n      jump\n        /* \"Contracts/Hackathon.sol\":9477:9581  require(agreements[whichAgreement_].employeeDone == true, \"The employee is not done with this task yet\") */\n    tag_285:\n        /* \"Contracts/Hackathon.sol\":9594:9621  agreements[whichAgreement_] */\n      0x00\n      dup2\n      dup2\n      mstore\n        /* \"Contracts/Hackathon.sol\":9594:9604  agreements */\n      0x05\n        /* \"Contracts/Hackathon.sol\":9594:9621  agreements[whichAgreement_] */\n      0x20\n      dup2\n      swap1\n      mstore\n      0x40\n      dup1\n      dup4\n      keccak256\n        /* \"Contracts/Hackathon.sol\":9594:9638  agreements[whichAgreement_].employerValidate */\n      swap2\n      dup3\n      add\n        /* \"Contracts/Hackathon.sol\":9594:9645  agreements[whichAgreement_].employerValidate = true */\n      dup1\n      sload\n      not(0xff00)\n      and\n      0x0100\n      or\n      swap1\n      sstore\n        /* \"Contracts/Hackathon.sol\":9677:9722  agreements[whichAgreement_].amountForEmployee */\n      0x03\n      dup3\n      add\n      sload\n        /* \"Contracts/Hackathon.sol\":9641:9645  true */\n      0x01\n        /* \"Contracts/Hackathon.sol\":9741:9777  agreements[whichAgreement_].employee */\n      swap3\n      swap1\n      swap3\n      add\n      sload\n        /* \"Contracts/Hackathon.sol\":9733:9802  payable(agreements[whichAgreement_].employee).transfer(amountToStake) */\n      swap1\n      mload\n        /* \"Contracts/Hackathon.sol\":9677:9722  agreements[whichAgreement_].amountForEmployee */\n      swap2\n      swap3\n      sub(shl(0xa0, 0x01), 0x01)\n        /* \"Contracts/Hackathon.sol\":9741:9777  agreements[whichAgreement_].employee */\n      swap1\n      swap2\n      and\n      swap2\n        /* \"Contracts/Hackathon.sol\":9733:9802  payable(agreements[whichAgreement_].employee).transfer(amountToStake) */\n      dup4\n      iszero\n      0x08fc\n      mul\n      swap2\n        /* \"Contracts/Hackathon.sol\":9677:9722  agreements[whichAgreement_].amountForEmployee */\n      dup5\n      swap2\n        /* \"Contracts/Hackathon.sol\":9733:9802  payable(agreements[whichAgreement_].employee).transfer(amountToStake) */\n      swap1\n      dup2\n        /* \"Contracts/Hackathon.sol\":9594:9621  agreements[whichAgreement_] */\n      dup2\n        /* \"Contracts/Hackathon.sol\":9733:9802  payable(agreements[whichAgreement_].employee).transfer(amountToStake) */\n      dup2\n        /* \"Contracts/Hackathon.sol\":9677:9722  agreements[whichAgreement_].amountForEmployee */\n      dup6\n        /* \"Contracts/Hackathon.sol\":9741:9777  agreements[whichAgreement_].employee */\n      dup9\n        /* \"Contracts/Hackathon.sol\":9733:9802  payable(agreements[whichAgreement_].employee).transfer(amountToStake) */\n      dup9\n      call\n      swap4\n      pop\n      pop\n      pop\n      pop\n      iszero\n      dup1\n      iszero\n      tag_289\n      jumpi\n      returndatasize\n      0x00\n      dup1\n      returndatacopy\n      revert(0x00, returndatasize)\n    tag_289:\n      pop\n        /* \"Contracts/Hackathon.sol\":9832:9845  amountToStake */\n      dup1\n        /* \"Contracts/Hackathon.sol\":9813:9828  balanceRecieved */\n      0x00\n      dup1\n        /* \"Contracts/Hackathon.sol\":9813:9845  balanceRecieved -= amountToStake */\n      dup3\n      dup3\n      sload\n      tag_290\n      swap2\n      swap1\n      tag_185\n      jump\t// in\n    tag_290:\n      swap1\n      swap2\n      sstore\n      pop\n      pop\n        /* \"Contracts/Hackathon.sol\":9863:9886  employerValidated(true) */\n      mload(0x40)\n        /* \"Contracts/Hackathon.sol\":9881:9885  true */\n      0x01\n        /* \"#utility.yul\":15819:15860   */\n      dup2\n      mstore\n        /* \"Contracts/Hackathon.sol\":9863:9886  employerValidated(true) */\n      0xa4ede5d74c01c87599cae178018f06f538ed1c40ac51ee85cbe677e1f7501741\n      swap1\n        /* \"#utility.yul\":15807:15809   */\n      0x20\n        /* \"#utility.yul\":15792:15810   */\n      add\n        /* \"Contracts/Hackathon.sol\":9863:9886  employerValidated(true) */\n      tag_204\n        /* \"#utility.yul\":15679:15866   */\n      jump\n        /* \"Contracts/Hackathon.sol\":6899:7823  function suggestMiddleman(uint whichAgreement_, address middleman_) public {... */\n    tag_137:\n        /* \"Contracts/Hackathon.sol\":6993:7020  agreements[whichAgreement_] */\n      0x00\n      dup3\n      dup2\n      mstore\n        /* \"Contracts/Hackathon.sol\":6993:7003  agreements */\n      0x05\n        /* \"Contracts/Hackathon.sol\":6993:7020  agreements[whichAgreement_] */\n      0x20\n      mstore\n      0x40\n      swap1\n      keccak256\n        /* \"Contracts/Hackathon.sol\":6993:7029  agreements[whichAgreement_].employee */\n      0x01\n      add\n      sload\n      sub(shl(0xa0, 0x01), 0x01)\n      and\n        /* \"Contracts/Hackathon.sol\":7033:7043  msg.sender */\n      caller\n        /* \"Contracts/Hackathon.sol\":6993:7043  agreements[whichAgreement_].employee == msg.sender */\n      eq\n      dup1\n        /* \"Contracts/Hackathon.sol\":6993:7097  agreements[whichAgreement_].employee == msg.sender || agreements[whichAgreement_].employer == msg.sender */\n      tag_295\n      jumpi\n      pop\n        /* \"Contracts/Hackathon.sol\":7047:7074  agreements[whichAgreement_] */\n      0x00\n      dup3\n      dup2\n      mstore\n        /* \"Contracts/Hackathon.sol\":7047:7057  agreements */\n      0x05\n        /* \"Contracts/Hackathon.sol\":7047:7074  agreements[whichAgreement_] */\n      0x20\n      mstore\n      0x40\n      swap1\n      keccak256\n        /* \"Contracts/Hackathon.sol\":7047:7083  agreements[whichAgreement_].employer */\n      sload\n      sub(shl(0xa0, 0x01), 0x01)\n      and\n        /* \"Contracts/Hackathon.sol\":7087:7097  msg.sender */\n      caller\n        /* \"Contracts/Hackathon.sol\":7047:7097  agreements[whichAgreement_].employer == msg.sender */\n      eq\n        /* \"Contracts/Hackathon.sol\":6993:7097  agreements[whichAgreement_].employee == msg.sender || agreements[whichAgreement_].employer == msg.sender */\n    tag_295:\n        /* \"Contracts/Hackathon.sol\":6985:7132  require(agreements[whichAgreement_].employee == msg.sender || agreements[whichAgreement_].employer == msg.sender, \"You are not allowed to suggest\") */\n      tag_296\n      jumpi\n      mload(0x40)\n      shl(0xe5, 0x461bcd)\n      dup2\n      mstore\n        /* \"#utility.yul\":17320:17322   */\n      0x20\n        /* \"Contracts/Hackathon.sol\":6985:7132  require(agreements[whichAgreement_].employee == msg.sender || agreements[whichAgreement_].employer == msg.sender, \"You are not allowed to suggest\") */\n      0x04\n      dup3\n      add\n        /* \"#utility.yul\":17302:17323   */\n      mstore\n        /* \"#utility.yul\":17359:17361   */\n      0x1e\n        /* \"#utility.yul\":17339:17357   */\n      0x24\n      dup3\n      add\n        /* \"#utility.yul\":17332:17362   */\n      mstore\n        /* \"#utility.yul\":17398:17430   */\n      0x596f7520617265206e6f7420616c6c6f77656420746f20737567676573740000\n        /* \"#utility.yul\":17378:17396   */\n      0x44\n      dup3\n      add\n        /* \"#utility.yul\":17371:17431   */\n      mstore\n        /* \"#utility.yul\":17448:17466   */\n      0x64\n      add\n        /* \"Contracts/Hackathon.sol\":6985:7132  require(agreements[whichAgreement_].employee == msg.sender || agreements[whichAgreement_].employer == msg.sender, \"You are not allowed to suggest\") */\n      tag_145\n        /* \"#utility.yul\":17118:17472   */\n      jump\n        /* \"Contracts/Hackathon.sol\":6985:7132  require(agreements[whichAgreement_].employee == msg.sender || agreements[whichAgreement_].employer == msg.sender, \"You are not allowed to suggest\") */\n    tag_296:\n        /* \"Contracts/Hackathon.sol\":7151:7185  middleManVotePool[whichAgreement_] */\n      0x00\n      dup3\n      dup2\n      mstore\n        /* \"Contracts/Hackathon.sol\":7151:7168  middleManVotePool */\n      0x08\n        /* \"Contracts/Hackathon.sol\":7151:7185  middleManVotePool[whichAgreement_] */\n      0x20\n      swap1\n      dup2\n      mstore\n      0x40\n      dup1\n      dup4\n      keccak256\n      sub(shl(0xa0, 0x01), 0x01)\n        /* \"Contracts/Hackathon.sol\":7151:7197  middleManVotePool[whichAgreement_][middleman_] */\n      dup6\n      and\n      dup5\n      mstore\n      dup3\n      mstore\n      dup1\n      dup4\n      keccak256\n        /* \"Contracts/Hackathon.sol\":7198:7208  msg.sender */\n      caller\n        /* \"Contracts/Hackathon.sol\":7151:7209  middleManVotePool[whichAgreement_][middleman_][msg.sender] */\n      dup5\n      mstore\n      swap1\n      swap2\n      mstore\n      swap1\n      keccak256\n      sload\n      0xff\n      and\n        /* \"Contracts/Hackathon.sol\":7151:7218  middleManVotePool[whichAgreement_][middleman_][msg.sender] == false */\n      iszero\n        /* \"Contracts/Hackathon.sol\":7143:7259  require(middleManVotePool[whichAgreement_][middleman_][msg.sender] == false, \"You already voted for this middleman\") */\n      tag_299\n      jumpi\n      mload(0x40)\n      shl(0xe5, 0x461bcd)\n      dup2\n      mstore\n        /* \"#utility.yul\":17679:17681   */\n      0x20\n        /* \"Contracts/Hackathon.sol\":7143:7259  require(middleManVotePool[whichAgreement_][middleman_][msg.sender] == false, \"You already voted for this middleman\") */\n      0x04\n      dup3\n      add\n        /* \"#utility.yul\":17661:17682   */\n      mstore\n        /* \"#utility.yul\":17718:17720   */\n      0x24\n        /* \"#utility.yul\":17698:17716   */\n      dup1\n      dup3\n      add\n        /* \"#utility.yul\":17691:17721   */\n      mstore\n        /* \"#utility.yul\":17757:17791   */\n      0x596f7520616c726561647920766f74656420666f722074686973206d6964646c\n        /* \"#utility.yul\":17737:17755   */\n      0x44\n      dup3\n      add\n        /* \"#utility.yul\":17730:17792   */\n      mstore\n      shl(0xe1, 0x32b6b0b7)\n        /* \"#utility.yul\":17808:17826   */\n      0x64\n      dup3\n      add\n        /* \"#utility.yul\":17801:17835   */\n      mstore\n        /* \"#utility.yul\":17852:17871   */\n      0x84\n      add\n        /* \"Contracts/Hackathon.sol\":7143:7259  require(middleManVotePool[whichAgreement_][middleman_][msg.sender] == false, \"You already voted for this middleman\") */\n      tag_145\n        /* \"#utility.yul\":17477:17877   */\n      jump\n        /* \"Contracts/Hackathon.sol\":7143:7259  require(middleManVotePool[whichAgreement_][middleman_][msg.sender] == false, \"You already voted for this middleman\") */\n    tag_299:\n        /* \"Contracts/Hackathon.sol\":7327:7328  0 */\n      0x00\n        /* \"Contracts/Hackathon.sol\":7278:7305  agreements[whichAgreement_] */\n      dup3\n      dup2\n      mstore\n        /* \"Contracts/Hackathon.sol\":7278:7288  agreements */\n      0x05\n        /* \"Contracts/Hackathon.sol\":7278:7305  agreements[whichAgreement_] */\n      0x20\n      mstore\n      0x40\n      swap1\n      keccak256\n        /* \"Contracts/Hackathon.sol\":7278:7315  agreements[whichAgreement_].middleman */\n      0x02\n      add\n      sload\n      sub(shl(0xa0, 0x01), 0x01)\n      and\n        /* \"Contracts/Hackathon.sol\":7278:7329  agreements[whichAgreement_].middleman == address(0) */\n      iszero\n        /* \"Contracts/Hackathon.sol\":7270:7362  require(agreements[whichAgreement_].middleman == address(0), \"You already have a middleman\") */\n      tag_302\n      jumpi\n      mload(0x40)\n      shl(0xe5, 0x461bcd)\n      dup2\n      mstore\n        /* \"#utility.yul\":18084:18086   */\n      0x20\n        /* \"Contracts/Hackathon.sol\":7270:7362  require(agreements[whichAgreement_].middleman == address(0), \"You already have a middleman\") */\n      0x04\n      dup3\n      add\n        /* \"#utility.yul\":18066:18087   */\n      mstore\n        /* \"#utility.yul\":18123:18125   */\n      0x1c\n        /* \"#utility.yul\":18103:18121   */\n      0x24\n      dup3\n      add\n        /* \"#utility.yul\":18096:18126   */\n      mstore\n        /* \"#utility.yul\":18162:18192   */\n      0x596f7520616c726561647920686176652061206d6964646c656d616e00000000\n        /* \"#utility.yul\":18142:18160   */\n      0x44\n      dup3\n      add\n        /* \"#utility.yul\":18135:18193   */\n      mstore\n        /* \"#utility.yul\":18210:18228   */\n      0x64\n      add\n        /* \"Contracts/Hackathon.sol\":7270:7362  require(agreements[whichAgreement_].middleman == address(0), \"You already have a middleman\") */\n      tag_145\n        /* \"#utility.yul\":17882:18234   */\n      jump\n        /* \"Contracts/Hackathon.sol\":7270:7362  require(agreements[whichAgreement_].middleman == address(0), \"You already have a middleman\") */\n    tag_302:\n      sub(shl(0xa0, 0x01), 0x01)\n        /* \"Contracts/Hackathon.sol\":7381:7401  accounts[middleman_] */\n      dup2\n      and\n      0x00\n      swap1\n      dup2\n      mstore\n        /* \"Contracts/Hackathon.sol\":7381:7389  accounts */\n      0x07\n        /* \"Contracts/Hackathon.sol\":7381:7401  accounts[middleman_] */\n      0x20\n      mstore\n      0x40\n      swap1\n      keccak256\n        /* \"Contracts/Hackathon.sol\":7381:7413  accounts[middleman_].isMiddleman */\n      sload\n      0x010000\n      swap1\n      div\n      0xff\n      and\n        /* \"Contracts/Hackathon.sol\":7373:7449  require(accounts[middleman_].isMiddleman, \"This address is not a middleman\") */\n      tag_305\n      jumpi\n      mload(0x40)\n      shl(0xe5, 0x461bcd)\n      dup2\n      mstore\n        /* \"#utility.yul\":18441:18443   */\n      0x20\n        /* \"Contracts/Hackathon.sol\":7373:7449  require(accounts[middleman_].isMiddleman, \"This address is not a middleman\") */\n      0x04\n      dup3\n      add\n        /* \"#utility.yul\":18423:18444   */\n      mstore\n        /* \"#utility.yul\":18480:18482   */\n      0x1f\n        /* \"#utility.yul\":18460:18478   */\n      0x24\n      dup3\n      add\n        /* \"#utility.yul\":18453:18483   */\n      mstore\n        /* \"#utility.yul\":18519:18552   */\n      0x546869732061646472657373206973206e6f742061206d6964646c656d616e00\n        /* \"#utility.yul\":18499:18517   */\n      0x44\n      dup3\n      add\n        /* \"#utility.yul\":18492:18553   */\n      mstore\n        /* \"#utility.yul\":18570:18588   */\n      0x64\n      add\n        /* \"Contracts/Hackathon.sol\":7373:7449  require(accounts[middleman_].isMiddleman, \"This address is not a middleman\") */\n      tag_145\n        /* \"#utility.yul\":18239:18594   */\n      jump\n        /* \"Contracts/Hackathon.sol\":7373:7449  require(accounts[middleman_].isMiddleman, \"This address is not a middleman\") */\n    tag_305:\n        /* \"Contracts/Hackathon.sol\":7462:7496  middleManVotePool[whichAgreement_] */\n      0x00\n      dup3\n      dup2\n      mstore\n        /* \"Contracts/Hackathon.sol\":7462:7479  middleManVotePool */\n      0x08\n        /* \"Contracts/Hackathon.sol\":7462:7496  middleManVotePool[whichAgreement_] */\n      0x20\n      swap1\n      dup2\n      mstore\n      0x40\n      dup1\n      dup4\n      keccak256\n      sub(shl(0xa0, 0x01), 0x01)\n        /* \"Contracts/Hackathon.sol\":7462:7508  middleManVotePool[whichAgreement_][middleman_] */\n      dup6\n      and\n      dup1\n      dup6\n      mstore\n      swap1\n      dup4\n      mstore\n      dup2\n      dup5\n      keccak256\n        /* \"Contracts/Hackathon.sol\":7509:7519  msg.sender */\n      caller\n        /* \"Contracts/Hackathon.sol\":7462:7520  middleManVotePool[whichAgreement_][middleman_][msg.sender] */\n      dup6\n      mstore\n      dup4\n      mstore\n      dup2\n      dup5\n      keccak256\n        /* \"Contracts/Hackathon.sol\":7462:7527  middleManVotePool[whichAgreement_][middleman_][msg.sender] = true */\n      dup1\n      sload\n      not(0xff)\n      and\n        /* \"Contracts/Hackathon.sol\":7523:7527  true */\n      0x01\n        /* \"Contracts/Hackathon.sol\":7462:7527  middleManVotePool[whichAgreement_][middleman_][msg.sender] = true */\n      or\n      swap1\n      sstore\n        /* \"Contracts/Hackathon.sol\":7538:7574  middleManVoteNumber[whichAgreement_] */\n      dup6\n      dup5\n      mstore\n        /* \"Contracts/Hackathon.sol\":7538:7557  middleManVoteNumber */\n      0x09\n        /* \"Contracts/Hackathon.sol\":7538:7574  middleManVoteNumber[whichAgreement_] */\n      dup4\n      mstore\n      dup2\n      dup5\n      keccak256\n        /* \"Contracts/Hackathon.sol\":7538:7586  middleManVoteNumber[whichAgreement_][middleman_] */\n      swap1\n      dup5\n      mstore\n      swap1\n      swap2\n      mstore\n      dup2\n      keccak256\n        /* \"Contracts/Hackathon.sol\":7538:7588  middleManVoteNumber[whichAgreement_][middleman_]++ */\n      dup1\n      sload\n      swap2\n      tag_308\n      dup4\n      tag_157\n      jump\t// in\n    tag_308:\n      swap1\n      swap2\n      sstore\n      pop\n      pop\n        /* \"Contracts/Hackathon.sol\":7649:7676  agreements[whichAgreement_] */\n      0x00\n      dup3\n      dup2\n      mstore\n        /* \"Contracts/Hackathon.sol\":7649:7659  agreements */\n      0x05\n        /* \"Contracts/Hackathon.sol\":7649:7676  agreements[whichAgreement_] */\n      0x20\n      mstore\n      0x40\n      swap1\n      dup2\n      swap1\n      keccak256\n        /* \"Contracts/Hackathon.sol\":7606:7677  suggestedMiddleman(msg.sender, middleman_, agreements[whichAgreement_]) */\n      swap1\n      mload\n      0xf9130ec99c57e242455fa6af989447a84bbe8fe52a70cbcaf13a9652aa089b50\n      swap2\n      tag_309\n      swap2\n        /* \"Contracts/Hackathon.sol\":7625:7635  msg.sender */\n      caller\n      swap2\n        /* \"Contracts/Hackathon.sol\":7637:7647  middleman_ */\n      dup6\n      swap2\n        /* \"Contracts/Hackathon.sol\":7606:7677  suggestedMiddleman(msg.sender, middleman_, agreements[whichAgreement_]) */\n      tag_310\n      jump\t// in\n    tag_309:\n      mload(0x40)\n      dup1\n      swap2\n      sub\n      swap1\n      log1\n        /* \"Contracts/Hackathon.sol\":7693:7729  middleManVoteNumber[whichAgreement_] */\n      0x00\n      dup3\n      dup2\n      mstore\n        /* \"Contracts/Hackathon.sol\":7693:7712  middleManVoteNumber */\n      0x09\n        /* \"Contracts/Hackathon.sol\":7693:7729  middleManVoteNumber[whichAgreement_] */\n      0x20\n      swap1\n      dup2\n      mstore\n      0x40\n      dup1\n      dup4\n      keccak256\n      sub(shl(0xa0, 0x01), 0x01)\n        /* \"Contracts/Hackathon.sol\":7693:7741  middleManVoteNumber[whichAgreement_][middleman_] */\n      dup6\n      and\n      dup5\n      mstore\n      swap1\n      swap2\n      mstore\n      swap1\n      keccak256\n      sload\n        /* \"Contracts/Hackathon.sol\":7745:7746  2 */\n      0x02\n        /* \"Contracts/Hackathon.sol\":7693:7746  middleManVoteNumber[whichAgreement_][middleman_] == 2 */\n      sub\n        /* \"Contracts/Hackathon.sol\":7690:7816  if(middleManVoteNumber[whichAgreement_][middleman_] == 2) {... */\n      tag_312\n      jumpi\n        /* \"Contracts/Hackathon.sol\":7763:7804  askMiddleman(whichAgreement_, middleman_) */\n      tag_312\n        /* \"Contracts/Hackathon.sol\":7776:7791  whichAgreement_ */\n      dup3\n        /* \"Contracts/Hackathon.sol\":7793:7803  middleman_ */\n      dup3\n        /* \"Contracts/Hackathon.sol\":7763:7775  askMiddleman */\n      tag_313\n        /* \"Contracts/Hackathon.sol\":7763:7804  askMiddleman(whichAgreement_, middleman_) */\n      jump\t// in\n    tag_312:\n        /* \"Contracts/Hackathon.sol\":6899:7823  function suggestMiddleman(uint whichAgreement_, address middleman_) public {... */\n      pop\n      pop\n      jump\t// out\n        /* \"Contracts/Hackathon.sol\":7831:8315  function askMiddleman(uint whichAgreement_, address middleman_) private {... */\n    tag_313:\n        /* \"Contracts/Hackathon.sol\":7922:7949  agreements[whichAgreement_] */\n      0x00\n      dup3\n      dup2\n      mstore\n        /* \"Contracts/Hackathon.sol\":7922:7932  agreements */\n      0x05\n        /* \"Contracts/Hackathon.sol\":7922:7949  agreements[whichAgreement_] */\n      0x20\n      mstore\n      0x40\n      swap1\n      keccak256\n        /* \"Contracts/Hackathon.sol\":7922:7958  agreements[whichAgreement_].employee */\n      0x01\n      add\n      sload\n      sub(shl(0xa0, 0x01), 0x01)\n      and\n        /* \"Contracts/Hackathon.sol\":7962:7972  msg.sender */\n      caller\n        /* \"Contracts/Hackathon.sol\":7922:7972  agreements[whichAgreement_].employee == msg.sender */\n      eq\n      dup1\n        /* \"Contracts/Hackathon.sol\":7922:8026  agreements[whichAgreement_].employee == msg.sender || agreements[whichAgreement_].employer == msg.sender */\n      tag_316\n      jumpi\n      pop\n        /* \"Contracts/Hackathon.sol\":7976:8003  agreements[whichAgreement_] */\n      0x00\n      dup3\n      dup2\n      mstore\n        /* \"Contracts/Hackathon.sol\":7976:7986  agreements */\n      0x05\n        /* \"Contracts/Hackathon.sol\":7976:8003  agreements[whichAgreement_] */\n      0x20\n      mstore\n      0x40\n      swap1\n      keccak256\n        /* \"Contracts/Hackathon.sol\":7976:8012  agreements[whichAgreement_].employer */\n      sload\n      sub(shl(0xa0, 0x01), 0x01)\n      and\n        /* \"Contracts/Hackathon.sol\":8016:8026  msg.sender */\n      caller\n        /* \"Contracts/Hackathon.sol\":7976:8026  agreements[whichAgreement_].employer == msg.sender */\n      eq\n        /* \"Contracts/Hackathon.sol\":7922:8026  agreements[whichAgreement_].employee == msg.sender || agreements[whichAgreement_].employer == msg.sender */\n    tag_316:\n        /* \"Contracts/Hackathon.sol\":7914:8067  require(agreements[whichAgreement_].employee == msg.sender || agreements[whichAgreement_].employer == msg.sender, \"You are not allowed to set middleman\") */\n      tag_317\n      jumpi\n      mload(0x40)\n      shl(0xe5, 0x461bcd)\n      dup2\n      mstore\n        /* \"#utility.yul\":19256:19258   */\n      0x20\n        /* \"Contracts/Hackathon.sol\":7914:8067  require(agreements[whichAgreement_].employee == msg.sender || agreements[whichAgreement_].employer == msg.sender, \"You are not allowed to set middleman\") */\n      0x04\n      dup3\n      add\n        /* \"#utility.yul\":19238:19259   */\n      mstore\n        /* \"#utility.yul\":19295:19297   */\n      0x24\n        /* \"#utility.yul\":19275:19293   */\n      dup1\n      dup3\n      add\n        /* \"#utility.yul\":19268:19298   */\n      mstore\n        /* \"#utility.yul\":19334:19368   */\n      0x596f7520617265206e6f7420616c6c6f77656420746f20736574206d6964646c\n        /* \"#utility.yul\":19314:19332   */\n      0x44\n      dup3\n      add\n        /* \"#utility.yul\":19307:19369   */\n      mstore\n      shl(0xe1, 0x32b6b0b7)\n        /* \"#utility.yul\":19385:19403   */\n      0x64\n      dup3\n      add\n        /* \"#utility.yul\":19378:19412   */\n      mstore\n        /* \"#utility.yul\":19429:19448   */\n      0x84\n      add\n        /* \"Contracts/Hackathon.sol\":7914:8067  require(agreements[whichAgreement_].employee == msg.sender || agreements[whichAgreement_].employer == msg.sender, \"You are not allowed to set middleman\") */\n      tag_145\n        /* \"#utility.yul\":19054:19454   */\n      jump\n        /* \"Contracts/Hackathon.sol\":7914:8067  require(agreements[whichAgreement_].employee == msg.sender || agreements[whichAgreement_].employer == msg.sender, \"You are not allowed to set middleman\") */\n    tag_317:\n        /* \"Contracts/Hackathon.sol\":8078:8105  agreements[whichAgreement_] */\n      0x00\n      dup3\n      dup2\n      mstore\n        /* \"Contracts/Hackathon.sol\":8078:8088  agreements */\n      0x05\n        /* \"Contracts/Hackathon.sol\":8078:8105  agreements[whichAgreement_] */\n      0x20\n      mstore\n      0x40\n      dup2\n      keccak256\n        /* \"Contracts/Hackathon.sol\":8078:8126  agreements[whichAgreement_].askedMiddlemanNumber */\n      0x04\n      add\n        /* \"Contracts/Hackathon.sol\":8078:8128  agreements[whichAgreement_].askedMiddlemanNumber++ */\n      dup1\n      sload\n      swap2\n      tag_320\n      dup4\n      tag_157\n      jump\t// in\n    tag_320:\n      swap1\n      swap2\n      sstore\n      pop\n      pop\n        /* \"Contracts/Hackathon.sol\":8139:8171  askedMiddlemans[whichAgreement_] */\n      0x00\n      dup3\n      dup2\n      mstore\n        /* \"Contracts/Hackathon.sol\":8139:8154  askedMiddlemans */\n      0x0a\n        /* \"Contracts/Hackathon.sol\":8139:8171  askedMiddlemans[whichAgreement_] */\n      0x20\n      swap1\n      dup2\n      mstore\n      0x40\n      dup1\n      dup4\n      keccak256\n        /* \"Contracts/Hackathon.sol\":8172:8182  agreements */\n      0x05\n        /* \"Contracts/Hackathon.sol\":8172:8199  agreements[whichAgreement_] */\n      dup1\n      dup5\n      mstore\n      dup3\n      dup6\n      keccak256\n        /* \"Contracts/Hackathon.sol\":8172:8220  agreements[whichAgreement_].askedMiddlemanNumber */\n      0x04\n      dup2\n      add\n      sload\n        /* \"Contracts/Hackathon.sol\":8139:8221  askedMiddlemans[whichAgreement_][agreements[whichAgreement_].askedMiddlemanNumber] */\n      dup7\n      mstore\n      swap2\n      dup5\n      mstore\n      dup3\n      dup6\n      keccak256\n        /* \"Contracts/Hackathon.sol\":8139:8234  askedMiddlemans[whichAgreement_][agreements[whichAgreement_].askedMiddlemanNumber] = middleman_ */\n      dup1\n      sload\n      not(sub(shl(0xa0, 0x01), 0x01))\n      and\n      sub(shl(0xa0, 0x01), 0x01)\n      dup9\n      and\n      or\n      swap1\n      sstore\n        /* \"Contracts/Hackathon.sol\":8267:8294  agreements[whichAgreement_] */\n      swap4\n      dup7\n      swap1\n      mstore\n      swap3\n      swap1\n      swap2\n      mstore\n        /* \"Contracts/Hackathon.sol\":8252:8307  askedMiddleman(agreements[whichAgreement_], middleman_) */\n      mload\n      0xa5bbda7fa17282c4725e052ae921aa2682773044aee6155c8eba5622f7800c09\n      swap2\n      tag_204\n      swap2\n        /* \"Contracts/Hackathon.sol\":8139:8234  askedMiddlemans[whichAgreement_][agreements[whichAgreement_].askedMiddlemanNumber] = middleman_ */\n      dup5\n      swap1\n        /* \"Contracts/Hackathon.sol\":8252:8307  askedMiddleman(agreements[whichAgreement_], middleman_) */\n      tag_322\n      jump\t// in\n    tag_155:\n      0x40\n      dup1\n      mload\n      0x0120\n      dup2\n      add\n      dup3\n      mstore\n      0x00\n      dup1\n      dup3\n      mstore\n      0x20\n      dup3\n      add\n      dup2\n      swap1\n      mstore\n      swap2\n      dup2\n      add\n      dup3\n      swap1\n      mstore\n      0x60\n      dup2\n      add\n      dup3\n      swap1\n      mstore\n      0x80\n      dup2\n      add\n      dup3\n      swap1\n      mstore\n      0xa0\n      dup2\n      add\n      dup3\n      swap1\n      mstore\n      0xc0\n      dup2\n      add\n      dup3\n      swap1\n      mstore\n      0xe0\n      dup2\n      add\n      dup3\n      swap1\n      mstore\n      0x0100\n      dup2\n      add\n      swap2\n      swap1\n      swap2\n      mstore\n      swap1\n      jump\t// out\n        /* \"#utility.yul\":14:360   */\n    tag_36:\n        /* \"#utility.yul\":82:88   */\n      0x00\n        /* \"#utility.yul\":90:96   */\n      dup1\n        /* \"#utility.yul\":143:145   */\n      0x40\n        /* \"#utility.yul\":131:140   */\n      dup4\n        /* \"#utility.yul\":122:129   */\n      dup6\n        /* \"#utility.yul\":118:141   */\n      sub\n        /* \"#utility.yul\":114:146   */\n      slt\n        /* \"#utility.yul\":111:163   */\n      iszero\n      tag_332\n      jumpi\n        /* \"#utility.yul\":159:160   */\n      0x00\n        /* \"#utility.yul\":156:157   */\n      dup1\n        /* \"#utility.yul\":149:161   */\n      revert\n        /* \"#utility.yul\":111:163   */\n    tag_332:\n      pop\n      pop\n        /* \"#utility.yul\":204:227   */\n      dup1\n      calldataload\n      swap3\n        /* \"#utility.yul\":324:326   */\n      0x20\n        /* \"#utility.yul\":309:327   */\n      swap1\n      swap2\n      add\n        /* \"#utility.yul\":296:328   */\n      calldataload\n      swap2\n      pop\n        /* \"#utility.yul\":14:360   */\n      jump\t// out\n        /* \"#utility.yul\":365:831   */\n    tag_41:\n        /* \"#utility.yul\":442:448   */\n      0x00\n        /* \"#utility.yul\":450:456   */\n      dup1\n        /* \"#utility.yul\":458:464   */\n      0x00\n        /* \"#utility.yul\":511:513   */\n      0x60\n        /* \"#utility.yul\":499:508   */\n      dup5\n        /* \"#utility.yul\":490:497   */\n      dup7\n        /* \"#utility.yul\":486:509   */\n      sub\n        /* \"#utility.yul\":482:514   */\n      slt\n        /* \"#utility.yul\":479:531   */\n      iszero\n      tag_334\n      jumpi\n        /* \"#utility.yul\":527:528   */\n      0x00\n        /* \"#utility.yul\":524:525   */\n      dup1\n        /* \"#utility.yul\":517:529   */\n      revert\n        /* \"#utility.yul\":479:531   */\n    tag_334:\n      pop\n      pop\n        /* \"#utility.yul\":572:595   */\n      dup2\n      calldataload\n      swap4\n        /* \"#utility.yul\":692:694   */\n      0x20\n        /* \"#utility.yul\":677:695   */\n      dup4\n      add\n        /* \"#utility.yul\":664:696   */\n      calldataload\n      swap4\n      pop\n        /* \"#utility.yul\":795:797   */\n      0x40\n        /* \"#utility.yul\":780:798   */\n      swap1\n      swap3\n      add\n        /* \"#utility.yul\":767:799   */\n      calldataload\n      swap2\n        /* \"#utility.yul\":365:831   */\n      swap1\n      pop\n      jump\t// out\n        /* \"#utility.yul\":1567:1793   */\n    tag_62:\n        /* \"#utility.yul\":1626:1632   */\n      0x00\n        /* \"#utility.yul\":1679:1681   */\n      0x20\n        /* \"#utility.yul\":1667:1676   */\n      dup3\n        /* \"#utility.yul\":1658:1665   */\n      dup5\n        /* \"#utility.yul\":1654:1677   */\n      sub\n        /* \"#utility.yul\":1650:1682   */\n      slt\n        /* \"#utility.yul\":1647:1699   */\n      iszero\n      tag_340\n      jumpi\n        /* \"#utility.yul\":1695:1696   */\n      0x00\n        /* \"#utility.yul\":1692:1693   */\n      dup1\n        /* \"#utility.yul\":1685:1697   */\n      revert\n        /* \"#utility.yul\":1647:1699   */\n    tag_340:\n      pop\n        /* \"#utility.yul\":1740:1763   */\n      calldataload\n      swap2\n        /* \"#utility.yul\":1567:1793   */\n      swap1\n      pop\n      jump\t// out\n        /* \"#utility.yul\":1894:2968   */\n    tag_65:\n        /* \"#utility.yul\":2115:2128   */\n      dup2\n      mload\n      sub(shl(0xa0, 0x01), 0x01)\n        /* \"#utility.yul\":2111:2150   */\n      swap1\n      dup2\n      and\n        /* \"#utility.yul\":2093:2151   */\n      dup3\n      mstore\n        /* \"#utility.yul\":2211:2215   */\n      0x20\n        /* \"#utility.yul\":2199:2216   */\n      dup1\n      dup5\n      add\n        /* \"#utility.yul\":2193:2217   */\n      mload\n        /* \"#utility.yul\":2189:2239   */\n      dup3\n      and\n        /* \"#utility.yul\":2167:2187   */\n      swap1\n      dup4\n      add\n        /* \"#utility.yul\":2160:2240   */\n      mstore\n        /* \"#utility.yul\":2287:2291   */\n      0x40\n        /* \"#utility.yul\":2275:2292   */\n      dup1\n      dup5\n      add\n        /* \"#utility.yul\":2269:2293   */\n      mload\n        /* \"#utility.yul\":1092:1123   */\n      swap2\n      dup3\n      and\n        /* \"#utility.yul\":2343:2363   */\n      swap1\n      dup4\n      add\n        /* \"#utility.yul\":1080:1124   */\n      mstore\n        /* \"#utility.yul\":2080:2083   */\n      0x0120\n        /* \"#utility.yul\":2065:2084   */\n      dup3\n      add\n      swap1\n        /* \"#utility.yul\":2302:2364   */\n      pop\n        /* \"#utility.yul\":2420:2424   */\n      0x60\n        /* \"#utility.yul\":2412:2418   */\n      dup4\n        /* \"#utility.yul\":2408:2425   */\n      add\n        /* \"#utility.yul\":2402:2426   */\n      mload\n        /* \"#utility.yul\":2395:2399   */\n      0x60\n        /* \"#utility.yul\":2384:2393   */\n      dup4\n        /* \"#utility.yul\":2380:2400   */\n      add\n        /* \"#utility.yul\":2373:2427   */\n      mstore\n        /* \"#utility.yul\":2483:2487   */\n      0x80\n        /* \"#utility.yul\":2475:2481   */\n      dup4\n        /* \"#utility.yul\":2471:2488   */\n      add\n        /* \"#utility.yul\":2465:2489   */\n      mload\n        /* \"#utility.yul\":2458:2462   */\n      0x80\n        /* \"#utility.yul\":2447:2456   */\n      dup4\n        /* \"#utility.yul\":2443:2463   */\n      add\n        /* \"#utility.yul\":2436:2490   */\n      mstore\n        /* \"#utility.yul\":2539:2543   */\n      0xa0\n        /* \"#utility.yul\":2531:2537   */\n      dup4\n        /* \"#utility.yul\":2527:2544   */\n      add\n        /* \"#utility.yul\":2521:2545   */\n      mload\n        /* \"#utility.yul\":2554:2607   */\n      tag_344\n        /* \"#utility.yul\":2601:2605   */\n      0xa0\n        /* \"#utility.yul\":2590:2599   */\n      dup5\n        /* \"#utility.yul\":2586:2606   */\n      add\n        /* \"#utility.yul\":2570:2584   */\n      dup3\n        /* \"#utility.yul\":1868:1881   */\n      iszero\n        /* \"#utility.yul\":1861:1882   */\n      iszero\n        /* \"#utility.yul\":1849:1883   */\n      swap1\n      mstore\n        /* \"#utility.yul\":1798:1889   */\n      jump\n        /* \"#utility.yul\":2554:2607   */\n    tag_344:\n      pop\n        /* \"#utility.yul\":2656:2660   */\n      0xc0\n        /* \"#utility.yul\":2648:2654   */\n      dup4\n        /* \"#utility.yul\":2644:2661   */\n      add\n        /* \"#utility.yul\":2638:2662   */\n      mload\n        /* \"#utility.yul\":2671:2724   */\n      tag_345\n        /* \"#utility.yul\":2718:2722   */\n      0xc0\n        /* \"#utility.yul\":2707:2716   */\n      dup5\n        /* \"#utility.yul\":2703:2723   */\n      add\n        /* \"#utility.yul\":2687:2701   */\n      dup3\n        /* \"#utility.yul\":1868:1881   */\n      iszero\n        /* \"#utility.yul\":1861:1882   */\n      iszero\n        /* \"#utility.yul\":1849:1883   */\n      swap1\n      mstore\n        /* \"#utility.yul\":1798:1889   */\n      jump\n        /* \"#utility.yul\":2671:2724   */\n    tag_345:\n      pop\n        /* \"#utility.yul\":2773:2777   */\n      0xe0\n        /* \"#utility.yul\":2765:2771   */\n      dup4\n        /* \"#utility.yul\":2761:2778   */\n      add\n        /* \"#utility.yul\":2755:2779   */\n      mload\n        /* \"#utility.yul\":2788:2841   */\n      tag_346\n        /* \"#utility.yul\":2835:2839   */\n      0xe0\n        /* \"#utility.yul\":2824:2833   */\n      dup5\n        /* \"#utility.yul\":2820:2840   */\n      add\n        /* \"#utility.yul\":2804:2818   */\n      dup3\n        /* \"#utility.yul\":1868:1881   */\n      iszero\n        /* \"#utility.yul\":1861:1882   */\n      iszero\n        /* \"#utility.yul\":1849:1883   */\n      swap1\n      mstore\n        /* \"#utility.yul\":1798:1889   */\n      jump\n        /* \"#utility.yul\":2788:2841   */\n    tag_346:\n      pop\n        /* \"#utility.yul\":2890:2896   */\n      0x0100\n        /* \"#utility.yul\":2882:2888   */\n      dup4\n        /* \"#utility.yul\":2878:2897   */\n      add\n        /* \"#utility.yul\":2872:2898   */\n      mload\n        /* \"#utility.yul\":2907:2962   */\n      tag_347\n        /* \"#utility.yul\":2954:2960   */\n      0x0100\n        /* \"#utility.yul\":2943:2952   */\n      dup5\n        /* \"#utility.yul\":2939:2961   */\n      add\n        /* \"#utility.yul\":2923:2937   */\n      dup3\n        /* \"#utility.yul\":1868:1881   */\n      iszero\n        /* \"#utility.yul\":1861:1882   */\n      iszero\n        /* \"#utility.yul\":1849:1883   */\n      swap1\n      mstore\n        /* \"#utility.yul\":1798:1889   */\n      jump\n        /* \"#utility.yul\":2907:2962   */\n    tag_347:\n      pop\n        /* \"#utility.yul\":1894:2968   */\n      swap3\n      swap2\n      pop\n      pop\n      jump\t// out\n        /* \"#utility.yul\":3405:3578   */\n    tag_325:\n        /* \"#utility.yul\":3473:3493   */\n      dup1\n      calldataload\n      sub(shl(0xa0, 0x01), 0x01)\n        /* \"#utility.yul\":3522:3553   */\n      dup2\n      and\n        /* \"#utility.yul\":3512:3554   */\n      dup2\n      eq\n        /* \"#utility.yul\":3502:3572   */\n      tag_350\n      jumpi\n        /* \"#utility.yul\":3568:3569   */\n      0x00\n        /* \"#utility.yul\":3565:3566   */\n      dup1\n        /* \"#utility.yul\":3558:3570   */\n      revert\n        /* \"#utility.yul\":3502:3572   */\n    tag_350:\n        /* \"#utility.yul\":3405:3578   */\n      swap2\n      swap1\n      pop\n      jump\t// out\n        /* \"#utility.yul\":3583:3883   */\n    tag_94:\n        /* \"#utility.yul\":3651:3657   */\n      0x00\n        /* \"#utility.yul\":3659:3665   */\n      dup1\n        /* \"#utility.yul\":3712:3714   */\n      0x40\n        /* \"#utility.yul\":3700:3709   */\n      dup4\n        /* \"#utility.yul\":3691:3698   */\n      dup6\n        /* \"#utility.yul\":3687:3710   */\n      sub\n        /* \"#utility.yul\":3683:3715   */\n      slt\n        /* \"#utility.yul\":3680:3732   */\n      iszero\n      tag_352\n      jumpi\n        /* \"#utility.yul\":3728:3729   */\n      0x00\n        /* \"#utility.yul\":3725:3726   */\n      dup1\n        /* \"#utility.yul\":3718:3730   */\n      revert\n        /* \"#utility.yul\":3680:3732   */\n    tag_352:\n        /* \"#utility.yul\":3773:3796   */\n      dup3\n      calldataload\n      swap2\n      pop\n        /* \"#utility.yul\":3839:3877   */\n      tag_353\n        /* \"#utility.yul\":3873:3875   */\n      0x20\n        /* \"#utility.yul\":3858:3876   */\n      dup5\n      add\n        /* \"#utility.yul\":3839:3877   */\n      tag_325\n      jump\t// in\n    tag_353:\n        /* \"#utility.yul\":3829:3877   */\n      swap1\n      pop\n        /* \"#utility.yul\":3583:3883   */\n      swap3\n      pop\n      swap3\n      swap1\n      pop\n      jump\t// out\n        /* \"#utility.yul\":4762:4922   */\n    tag_326:\n        /* \"#utility.yul\":4827:4847   */\n      dup1\n      calldataload\n        /* \"#utility.yul\":4883:4896   */\n      dup1\n      iszero\n        /* \"#utility.yul\":4876:4897   */\n      iszero\n        /* \"#utility.yul\":4866:4898   */\n      dup2\n      eq\n        /* \"#utility.yul\":4856:4916   */\n      tag_350\n      jumpi\n        /* \"#utility.yul\":4912:4913   */\n      0x00\n        /* \"#utility.yul\":4909:4910   */\n      dup1\n        /* \"#utility.yul\":4902:4914   */\n      revert\n        /* \"#utility.yul\":4927:5243   */\n    tag_105:\n        /* \"#utility.yul\":4995:5001   */\n      0x00\n        /* \"#utility.yul\":5003:5009   */\n      dup1\n        /* \"#utility.yul\":5011:5017   */\n      0x00\n        /* \"#utility.yul\":5064:5066   */\n      0x60\n        /* \"#utility.yul\":5052:5061   */\n      dup5\n        /* \"#utility.yul\":5043:5050   */\n      dup7\n        /* \"#utility.yul\":5039:5062   */\n      sub\n        /* \"#utility.yul\":5035:5067   */\n      slt\n        /* \"#utility.yul\":5032:5084   */\n      iszero\n      tag_358\n      jumpi\n        /* \"#utility.yul\":5080:5081   */\n      0x00\n        /* \"#utility.yul\":5077:5078   */\n      dup1\n        /* \"#utility.yul\":5070:5082   */\n      revert\n        /* \"#utility.yul\":5032:5084   */\n    tag_358:\n        /* \"#utility.yul\":5103:5129   */\n      tag_359\n        /* \"#utility.yul\":5119:5128   */\n      dup5\n        /* \"#utility.yul\":5103:5129   */\n      tag_326\n      jump\t// in\n    tag_359:\n        /* \"#utility.yul\":5093:5129   */\n      swap3\n      pop\n        /* \"#utility.yul\":5148:5183   */\n      tag_360\n        /* \"#utility.yul\":5179:5181   */\n      0x20\n        /* \"#utility.yul\":5168:5177   */\n      dup6\n        /* \"#utility.yul\":5164:5182   */\n      add\n        /* \"#utility.yul\":5148:5183   */\n      tag_326\n      jump\t// in\n    tag_360:\n        /* \"#utility.yul\":5138:5183   */\n      swap2\n      pop\n        /* \"#utility.yul\":5202:5237   */\n      tag_361\n        /* \"#utility.yul\":5233:5235   */\n      0x40\n        /* \"#utility.yul\":5222:5231   */\n      dup6\n        /* \"#utility.yul\":5218:5236   */\n      add\n        /* \"#utility.yul\":5202:5237   */\n      tag_326\n      jump\t// in\n    tag_361:\n        /* \"#utility.yul\":5192:5237   */\n      swap1\n      pop\n        /* \"#utility.yul\":4927:5243   */\n      swap3\n      pop\n      swap3\n      pop\n      swap3\n      jump\t// out\n        /* \"#utility.yul\":5248:5434   */\n    tag_130:\n        /* \"#utility.yul\":5307:5313   */\n      0x00\n        /* \"#utility.yul\":5360:5362   */\n      0x20\n        /* \"#utility.yul\":5348:5357   */\n      dup3\n        /* \"#utility.yul\":5339:5346   */\n      dup5\n        /* \"#utility.yul\":5335:5358   */\n      sub\n        /* \"#utility.yul\":5331:5363   */\n      slt\n        /* \"#utility.yul\":5328:5380   */\n      iszero\n      tag_363\n      jumpi\n        /* \"#utility.yul\":5376:5377   */\n      0x00\n        /* \"#utility.yul\":5373:5374   */\n      dup1\n        /* \"#utility.yul\":5366:5378   */\n      revert\n        /* \"#utility.yul\":5328:5380   */\n    tag_363:\n        /* \"#utility.yul\":5399:5428   */\n      tag_364\n        /* \"#utility.yul\":5418:5427   */\n      dup3\n        /* \"#utility.yul\":5399:5428   */\n      tag_325\n      jump\t// in\n    tag_364:\n        /* \"#utility.yul\":5389:5428   */\n      swap4\n        /* \"#utility.yul\":5248:5434   */\n      swap3\n      pop\n      pop\n      pop\n      jump\t// out\n        /* \"#utility.yul\":5930:6331   */\n    tag_146:\n        /* \"#utility.yul\":6132:6134   */\n      0x20\n        /* \"#utility.yul\":6114:6135   */\n      dup1\n      dup3\n      mstore\n        /* \"#utility.yul\":6171:6173   */\n      0x25\n        /* \"#utility.yul\":6151:6169   */\n      swap1\n      dup3\n      add\n        /* \"#utility.yul\":6144:6174   */\n      mstore\n        /* \"#utility.yul\":6210:6244   */\n      0x596f75206e65656420746f20626520616e20656d706c6f79657220746f20646f\n        /* \"#utility.yul\":6205:6207   */\n      0x40\n        /* \"#utility.yul\":6190:6208   */\n      dup3\n      add\n        /* \"#utility.yul\":6183:6245   */\n      mstore\n      shl(0xda, 0x081d1a185d)\n        /* \"#utility.yul\":6276:6278   */\n      0x60\n        /* \"#utility.yul\":6261:6279   */\n      dup3\n      add\n        /* \"#utility.yul\":6254:6289   */\n      mstore\n        /* \"#utility.yul\":6321:6324   */\n      0x80\n        /* \"#utility.yul\":6306:6325   */\n      add\n      swap1\n        /* \"#utility.yul\":5930:6331   */\n      jump\t// out\n        /* \"#utility.yul\":6336:6737   */\n    tag_150:\n        /* \"#utility.yul\":6538:6540   */\n      0x20\n        /* \"#utility.yul\":6520:6541   */\n      dup1\n      dup3\n      mstore\n        /* \"#utility.yul\":6577:6579   */\n      0x25\n        /* \"#utility.yul\":6557:6575   */\n      swap1\n      dup3\n      add\n        /* \"#utility.yul\":6550:6580   */\n      mstore\n        /* \"#utility.yul\":6616:6650   */\n      0x596f7520617265206e6f742074686520656d706c6f796572206f662074686973\n        /* \"#utility.yul\":6611:6613   */\n      0x40\n        /* \"#utility.yul\":6596:6614   */\n      dup3\n      add\n        /* \"#utility.yul\":6589:6651   */\n      mstore\n      shl(0xd8, 0x20776f726b)\n        /* \"#utility.yul\":6682:6684   */\n      0x60\n        /* \"#utility.yul\":6667:6685   */\n      dup3\n      add\n        /* \"#utility.yul\":6660:6695   */\n      mstore\n        /* \"#utility.yul\":6727:6730   */\n      0x80\n        /* \"#utility.yul\":6712:6731   */\n      add\n      swap1\n        /* \"#utility.yul\":6336:6737   */\n      jump\t// out\n        /* \"#utility.yul\":6742:7086   */\n    tag_153:\n        /* \"#utility.yul\":6944:6946   */\n      0x20\n        /* \"#utility.yul\":6926:6947   */\n      dup1\n      dup3\n      mstore\n        /* \"#utility.yul\":6983:6985   */\n      0x14\n        /* \"#utility.yul\":6963:6981   */\n      swap1\n      dup3\n      add\n        /* \"#utility.yul\":6956:6986   */\n      mstore\n      shl(0x61, 0x2a3434b9903a30b9b59034b9903737bb9037b333)\n        /* \"#utility.yul\":7017:7019   */\n      0x40\n        /* \"#utility.yul\":7002:7020   */\n      dup3\n      add\n        /* \"#utility.yul\":6995:7045   */\n      mstore\n        /* \"#utility.yul\":7077:7079   */\n      0x60\n        /* \"#utility.yul\":7062:7080   */\n      add\n      swap1\n        /* \"#utility.yul\":6742:7086   */\n      jump\t// out\n        /* \"#utility.yul\":7091:7218   */\n    tag_327:\n        /* \"#utility.yul\":7152:7162   */\n      0x4e487b71\n        /* \"#utility.yul\":7147:7150   */\n      0xe0\n        /* \"#utility.yul\":7143:7163   */\n      shl\n        /* \"#utility.yul\":7140:7141   */\n      0x00\n        /* \"#utility.yul\":7133:7164   */\n      mstore\n        /* \"#utility.yul\":7183:7187   */\n      0x11\n        /* \"#utility.yul\":7180:7181   */\n      0x04\n        /* \"#utility.yul\":7173:7188   */\n      mstore\n        /* \"#utility.yul\":7207:7211   */\n      0x24\n        /* \"#utility.yul\":7204:7205   */\n      0x00\n        /* \"#utility.yul\":7197:7212   */\n      revert\n        /* \"#utility.yul\":7223:7358   */\n    tag_157:\n        /* \"#utility.yul\":7262:7265   */\n      0x00\n        /* \"#utility.yul\":7283:7300   */\n      0x01\n      dup3\n      add\n        /* \"#utility.yul\":7280:7323   */\n      tag_372\n      jumpi\n        /* \"#utility.yul\":7303:7321   */\n      tag_372\n      tag_327\n      jump\t// in\n    tag_372:\n      pop\n        /* \"#utility.yul\":7350:7351   */\n      0x01\n        /* \"#utility.yul\":7339:7352   */\n      add\n      swap1\n        /* \"#utility.yul\":7223:7358   */\n      jump\t// out\n        /* \"#utility.yul\":7363:7770   */\n    tag_162:\n        /* \"#utility.yul\":7565:7567   */\n      0x20\n        /* \"#utility.yul\":7547:7568   */\n      dup1\n      dup3\n      mstore\n        /* \"#utility.yul\":7604:7606   */\n      0x2b\n        /* \"#utility.yul\":7584:7602   */\n      swap1\n      dup3\n      add\n        /* \"#utility.yul\":7577:7607   */\n      mstore\n        /* \"#utility.yul\":7643:7677   */\n      0x596f7520617265206e6f7420616c6c6f77656420746f207265736f6c76652074\n        /* \"#utility.yul\":7638:7640   */\n      0x40\n        /* \"#utility.yul\":7623:7641   */\n      dup3\n      add\n        /* \"#utility.yul\":7616:7678   */\n      mstore\n      shl(0xa8, 0x6869732064697370757465)\n        /* \"#utility.yul\":7709:7711   */\n      0x60\n        /* \"#utility.yul\":7694:7712   */\n      dup3\n      add\n        /* \"#utility.yul\":7687:7728   */\n      mstore\n        /* \"#utility.yul\":7760:7763   */\n      0x80\n        /* \"#utility.yul\":7745:7764   */\n      add\n      swap1\n        /* \"#utility.yul\":7363:7770   */\n      jump\t// out\n        /* \"#utility.yul\":7775:8182   */\n    tag_165:\n        /* \"#utility.yul\":7977:7979   */\n      0x20\n        /* \"#utility.yul\":7959:7980   */\n      dup1\n      dup3\n      mstore\n        /* \"#utility.yul\":8016:8018   */\n      0x2b\n        /* \"#utility.yul\":7996:8014   */\n      swap1\n      dup3\n      add\n        /* \"#utility.yul\":7989:8019   */\n      mstore\n        /* \"#utility.yul\":8055:8089   */\n      0x5468657265206973206e6f206469737075746520726169656420696e20746869\n        /* \"#utility.yul\":8050:8052   */\n      0x40\n        /* \"#utility.yul\":8035:8053   */\n      dup3\n      add\n        /* \"#utility.yul\":8028:8090   */\n      mstore\n      shl(0xaa, 0x1cc81859dc99595b595b9d)\n        /* \"#utility.yul\":8121:8123   */\n      0x60\n        /* \"#utility.yul\":8106:8124   */\n      dup3\n      add\n        /* \"#utility.yul\":8099:8140   */\n      mstore\n        /* \"#utility.yul\":8172:8175   */\n      0x80\n        /* \"#utility.yul\":8157:8176   */\n      add\n      swap1\n        /* \"#utility.yul\":7775:8182   */\n      jump\t// out\n        /* \"#utility.yul\":8546:8671   */\n    tag_170:\n        /* \"#utility.yul\":8611:8620   */\n      dup1\n      dup3\n      add\n        /* \"#utility.yul\":8632:8642   */\n      dup1\n      dup3\n      gt\n        /* \"#utility.yul\":8629:8665   */\n      iszero\n      tag_188\n      jumpi\n        /* \"#utility.yul\":8645:8663   */\n      tag_188\n      tag_327\n      jump\t// in\n        /* \"#utility.yul\":9024:9192   */\n    tag_175:\n        /* \"#utility.yul\":9097:9106   */\n      dup1\n      dup3\n      mul\n        /* \"#utility.yul\":9128:9137   */\n      dup2\n      iszero\n        /* \"#utility.yul\":9145:9160   */\n      dup3\n      dup3\n      div\n        /* \"#utility.yul\":9139:9161   */\n      dup5\n      eq\n        /* \"#utility.yul\":9125:9162   */\n      or\n        /* \"#utility.yul\":9115:9186   */\n      tag_188\n      jumpi\n        /* \"#utility.yul\":9166:9184   */\n      tag_188\n      tag_327\n      jump\t// in\n        /* \"#utility.yul\":9197:9414   */\n    tag_177:\n        /* \"#utility.yul\":9237:9238   */\n      0x00\n        /* \"#utility.yul\":9263:9264   */\n      dup3\n        /* \"#utility.yul\":9253:9385   */\n      tag_384\n      jumpi\n        /* \"#utility.yul\":9307:9317   */\n      0x4e487b71\n        /* \"#utility.yul\":9302:9305   */\n      0xe0\n        /* \"#utility.yul\":9298:9318   */\n      shl\n        /* \"#utility.yul\":9295:9296   */\n      0x00\n        /* \"#utility.yul\":9288:9319   */\n      mstore\n        /* \"#utility.yul\":9342:9346   */\n      0x12\n        /* \"#utility.yul\":9339:9340   */\n      0x04\n        /* \"#utility.yul\":9332:9347   */\n      mstore\n        /* \"#utility.yul\":9370:9374   */\n      0x24\n        /* \"#utility.yul\":9367:9368   */\n      0x00\n        /* \"#utility.yul\":9360:9375   */\n      revert\n        /* \"#utility.yul\":9253:9385   */\n    tag_384:\n      pop\n        /* \"#utility.yul\":9399:9408   */\n      div\n      swap1\n        /* \"#utility.yul\":9197:9414   */\n      jump\t// out\n        /* \"#utility.yul\":9419:9547   */\n    tag_185:\n        /* \"#utility.yul\":9486:9495   */\n      dup2\n      dup2\n      sub\n        /* \"#utility.yul\":9507:9518   */\n      dup2\n      dup2\n      gt\n        /* \"#utility.yul\":9504:9541   */\n      iszero\n      tag_188\n      jumpi\n        /* \"#utility.yul\":9521:9539   */\n      tag_188\n      tag_327\n      jump\t// in\n        /* \"#utility.yul\":9695:10624   */\n    tag_329:\n        /* \"#utility.yul\":9766:9855   */\n      tag_390\n        /* \"#utility.yul\":9851:9854   */\n      dup3\n        /* \"#utility.yul\":9793:9849   */\n      tag_391\n        /* \"#utility.yul\":9842:9847   */\n      dup4\n        /* \"#utility.yul\":9836:9848   */\n      sload\n      sub(shl(0xa0, 0x01), 0x01)\n        /* \"#utility.yul\":9648:9684   */\n      and\n      swap1\n        /* \"#utility.yul\":9552:9690   */\n      jump\n        /* \"#utility.yul\":9793:9849   */\n    tag_391:\n      sub(shl(0xa0, 0x01), 0x01)\n        /* \"#utility.yul\":1092:1123   */\n      and\n        /* \"#utility.yul\":1080:1124   */\n      swap1\n      mstore\n        /* \"#utility.yul\":1018:1130   */\n      jump\n        /* \"#utility.yul\":9766:9855   */\n    tag_390:\n        /* \"#utility.yul\":9944:9948   */\n      0x01\n        /* \"#utility.yul\":9933:9949   */\n      dup2\n      add\n        /* \"#utility.yul\":9927:9950   */\n      sload\n      sub(shl(0xa0, 0x01), 0x01)\n        /* \"#utility.yul\":9648:9684   */\n      swap1\n      dup2\n      and\n        /* \"#utility.yul\":10010:10014   */\n      0x20\n        /* \"#utility.yul\":10001:10015   */\n      dup5\n      add\n        /* \"#utility.yul\":1080:1124   */\n      mstore\n        /* \"#utility.yul\":10107:10111   */\n      0x02\n        /* \"#utility.yul\":10096:10112   */\n      dup3\n      add\n        /* \"#utility.yul\":10090:10113   */\n      sload\n        /* \"#utility.yul\":9648:9684   */\n      and\n        /* \"#utility.yul\":10175:10179   */\n      0x40\n        /* \"#utility.yul\":10166:10180   */\n      dup4\n      add\n        /* \"#utility.yul\":1080:1124   */\n      mstore\n        /* \"#utility.yul\":10230:10234   */\n      0x03\n        /* \"#utility.yul\":10219:10235   */\n      dup2\n      add\n        /* \"#utility.yul\":10213:10236   */\n      sload\n        /* \"#utility.yul\":10206:10210   */\n      0x60\n        /* \"#utility.yul\":10197:10211   */\n      dup4\n      add\n        /* \"#utility.yul\":10190:10237   */\n      mstore\n        /* \"#utility.yul\":10286:10290   */\n      0x04\n        /* \"#utility.yul\":10275:10291   */\n      dup2\n      add\n        /* \"#utility.yul\":10269:10292   */\n      sload\n        /* \"#utility.yul\":10262:10266   */\n      0x80\n        /* \"#utility.yul\":10253:10267   */\n      dup4\n      add\n        /* \"#utility.yul\":10246:10293   */\n      mstore\n        /* \"#utility.yul\":10336:10340   */\n      0x05\n        /* \"#utility.yul\":10325:10341   */\n      dup2\n      add\n        /* \"#utility.yul\":10319:10342   */\n      sload\n        /* \"#utility.yul\":10382:10386   */\n      0xff\n        /* \"#utility.yul\":10367:10387   */\n      dup1\n      dup3\n      and\n        /* \"#utility.yul\":1868:1881   */\n      iszero\n        /* \"#utility.yul\":1861:1882   */\n      iszero\n        /* \"#utility.yul\":10398:10402   */\n      0xa0\n        /* \"#utility.yul\":10389:10403   */\n      dup6\n      add\n        /* \"#utility.yul\":1849:1883   */\n      mstore\n        /* \"#utility.yul\":10437:10438   */\n      0x08\n        /* \"#utility.yul\":10433:10450   */\n      dup3\n      swap1\n      shr\n        /* \"#utility.yul\":10429:10457   */\n      and\n        /* \"#utility.yul\":1868:1881   */\n      iszero\n        /* \"#utility.yul\":1861:1882   */\n      iszero\n        /* \"#utility.yul\":10468:10472   */\n      0xc0\n        /* \"#utility.yul\":10459:10473   */\n      dup5\n      add\n        /* \"#utility.yul\":1849:1883   */\n      mstore\n        /* \"#utility.yul\":10483:10545   */\n      tag_398\n        /* \"#utility.yul\":10539:10543   */\n      0xe0\n        /* \"#utility.yul\":10534:10537   */\n      dup5\n        /* \"#utility.yul\":10530:10544   */\n      add\n        /* \"#utility.yul\":10523:10527   */\n      0xff\n        /* \"#utility.yul\":10511:10520   */\n      dup4\n        /* \"#utility.yul\":10507:10509   */\n      0x10\n        /* \"#utility.yul\":10503:10521   */\n      shr\n        /* \"#utility.yul\":10499:10528   */\n      and\n        /* \"#utility.yul\":1868:1881   */\n      iszero\n        /* \"#utility.yul\":1861:1882   */\n      iszero\n        /* \"#utility.yul\":1849:1883   */\n      swap1\n      mstore\n        /* \"#utility.yul\":1798:1889   */\n      jump\n        /* \"#utility.yul\":10483:10545   */\n    tag_398:\n        /* \"#utility.yul\":10554:10618   */\n      tag_399\n        /* \"#utility.yul\":10610:10616   */\n      0x0100\n        /* \"#utility.yul\":10605:10608   */\n      dup5\n        /* \"#utility.yul\":10601:10617   */\n      add\n        /* \"#utility.yul\":10594:10598   */\n      0xff\n        /* \"#utility.yul\":10582:10591   */\n      dup4\n        /* \"#utility.yul\":10578:10580   */\n      0x18\n        /* \"#utility.yul\":10574:10592   */\n      shr\n        /* \"#utility.yul\":10570:10599   */\n      and\n        /* \"#utility.yul\":1868:1881   */\n      iszero\n        /* \"#utility.yul\":1861:1882   */\n      iszero\n        /* \"#utility.yul\":1849:1883   */\n      swap1\n      mstore\n        /* \"#utility.yul\":1798:1889   */\n      jump\n        /* \"#utility.yul\":10554:10618   */\n    tag_399:\n      pop\n        /* \"#utility.yul\":9695:10624   */\n      pop\n      pop\n      jump\t// out\n        /* \"#utility.yul\":10629:10885   */\n    tag_187:\n        /* \"#utility.yul\":10812:10815   */\n      0x0120\n        /* \"#utility.yul\":10797:10816   */\n      dup2\n      add\n        /* \"#utility.yul\":10825:10879   */\n      tag_188\n        /* \"#utility.yul\":10801:10810   */\n      dup3\n        /* \"#utility.yul\":10861:10867   */\n      dup5\n        /* \"#utility.yul\":10825:10879   */\n      tag_329\n      jump\t// in\n        /* \"#utility.yul\":11237:11717   */\n    tag_205:\n        /* \"#utility.yul\":11459:11472   */\n      dup2\n      sload\n      sub(shl(0xa0, 0x01), 0x01)\n        /* \"#utility.yul\":11455:11494   */\n      and\n        /* \"#utility.yul\":11437:11495   */\n      dup2\n      mstore\n        /* \"#utility.yul\":11491:11492   */\n      0x01\n        /* \"#utility.yul\":11539:11556   */\n      dup3\n      add\n        /* \"#utility.yul\":11533:11557   */\n      sload\n        /* \"#utility.yul\":11526:11530   */\n      0x20\n        /* \"#utility.yul\":11511:11531   */\n      dup3\n      add\n        /* \"#utility.yul\":11504:11558   */\n      mstore\n        /* \"#utility.yul\":11614:11618   */\n      0x02\n        /* \"#utility.yul\":11602:11619   */\n      dup3\n      add\n        /* \"#utility.yul\":11596:11620   */\n      sload\n        /* \"#utility.yul\":11589:11593   */\n      0x40\n        /* \"#utility.yul\":11574:11594   */\n      dup3\n      add\n        /* \"#utility.yul\":11567:11621   */\n      mstore\n        /* \"#utility.yul\":11695:11699   */\n      0x03\n        /* \"#utility.yul\":11683:11700   */\n      swap1\n      swap2\n      add\n        /* \"#utility.yul\":11677:11701   */\n      sload\n        /* \"#utility.yul\":11703:11707   */\n      0xff\n        /* \"#utility.yul\":11673:11708   */\n      and\n        /* \"#utility.yul\":11666:11709   */\n      iszero\n        /* \"#utility.yul\":11659:11710   */\n      iszero\n        /* \"#utility.yul\":11652:11656   */\n      0x60\n        /* \"#utility.yul\":11637:11657   */\n      dup3\n      add\n        /* \"#utility.yul\":11630:11711   */\n      mstore\n        /* \"#utility.yul\":11424:11427   */\n      0x80\n        /* \"#utility.yul\":11409:11428   */\n      add\n      swap1\n        /* \"#utility.yul\":11237:11717   */\n      jump\t// out\n        /* \"#utility.yul\":18599:19049   */\n    tag_310:\n      sub(shl(0xa0, 0x01), 0x01)\n        /* \"#utility.yul\":18869:18901   */\n      dup5\n      dup2\n      and\n        /* \"#utility.yul\":18851:18902   */\n      dup3\n      mstore\n        /* \"#utility.yul\":18938:18970   */\n      dup4\n      and\n        /* \"#utility.yul\":18933:18935   */\n      0x20\n        /* \"#utility.yul\":18918:18936   */\n      dup3\n      add\n        /* \"#utility.yul\":18911:18971   */\n      mstore\n        /* \"#utility.yul\":18838:18841   */\n      0x0160\n        /* \"#utility.yul\":18823:18842   */\n      dup2\n      add\n        /* \"#utility.yul\":18980:19043   */\n      tag_423\n        /* \"#utility.yul\":19039:19041   */\n      0x40\n        /* \"#utility.yul\":19024:19042   */\n      dup4\n      add\n        /* \"#utility.yul\":19016:19022   */\n      dup5\n        /* \"#utility.yul\":18980:19043   */\n      tag_329\n      jump\t// in\n    tag_423:\n        /* \"#utility.yul\":18599:19049   */\n      swap5\n      swap4\n      pop\n      pop\n      pop\n      pop\n      jump\t// out\n        /* \"#utility.yul\":19459:19813   */\n    tag_322:\n        /* \"#utility.yul\":19670:19673   */\n      0x0140\n        /* \"#utility.yul\":19655:19674   */\n      dup2\n      add\n        /* \"#utility.yul\":19683:19737   */\n      tag_426\n        /* \"#utility.yul\":19659:19668   */\n      dup3\n        /* \"#utility.yul\":19719:19725   */\n      dup6\n        /* \"#utility.yul\":19683:19737   */\n      tag_329\n      jump\t// in\n    tag_426:\n      sub(shl(0xa0, 0x01), 0x01)\n        /* \"#utility.yul\":19774:19806   */\n      swap3\n      swap1\n      swap3\n      and\n        /* \"#utility.yul\":19768:19771   */\n      0x0120\n        /* \"#utility.yul\":19753:19772   */\n      swap2\n      swap1\n      swap2\n      add\n        /* \"#utility.yul\":19746:19807   */\n      mstore\n        /* \"#utility.yul\":19459:19813   */\n      swap2\n      swap1\n      pop\n      jump\t// out\n\n    auxdata: 0xa2646970667358221220720f2899153076180102134667ad70884a57bac25894238551eb2c244fc0b86164736f6c634300081a0033\n}\n",
				"bytecode": {
					"linkReferences": {},
					"object": "6080604052348015600e575f80fd5b50600180546001600160a01b031916331790556121798061002e5f395ff3fe608060405260043610610137575f3560e01c8063a5c1674e116100af578063d4c06b8d1161006b578063d4c06b8d14610478578063e43caa911461048c578063ef32fc51146104ab578063fbcbc0f1146104c0578063ff4db8981461059a578063ff69d8df146105b957005b8063a5c1674e14610306578063b1ae266b14610325578063bd14de9614610344578063c0d588351461041b578063c7a488a11461043a578063cf3b8fc71461045957005b80634f9f6fe6116100fe5780634f9f6fe6146101fc5780635ec448c7146102285780638589c725146102a1578063880b5212146102c057806388945938146102c8578063a151bc22146102e757005b806304bf66c6146101405780630de37bf61461015f5780630fe629ee1461017e5780631cefaf22146101a65780633d6b56e9146101dd57005b3661013e57005b005b34801561014b575f80fd5b5061013e61015a366004611c80565b6105f0565b34801561016a575f80fd5b5061013e610179366004611ca0565b610825565b348015610189575f80fd5b5061019360035481565b6040519081526020015b60405180910390f35b3480156101b1575f80fd5b506001546101c5906001600160a01b031681565b6040516001600160a01b03909116815260200161019d565b3480156101e8575f80fd5b506101c56101f7366004611c80565b610a92565b348015610207575f80fd5b5061021b610216366004611cc9565b610abb565b60405161019d9190611ce0565b348015610233575f80fd5b50610275610242366004611cc9565b60046020525f908152604090208054600182015460028301546003909301546001600160a01b0390921692909160ff1684565b604080516001600160a01b0390951685526020850193909352918301521515606082015260800161019d565b3480156102ac575f80fd5b5061013e6102bb366004611cc9565b610b5d565b61013e610ce3565b3480156102d3575f80fd5b5061013e6102e2366004611cc9565b610e70565b3480156102f2575f80fd5b506101c5610301366004611c80565b610faf565b348015610311575f80fd5b5061013e610320366004611cc9565b611050565b348015610330575f80fd5b5061013e61033f366004611d96565b61112b565b34801561034f575f80fd5b506103c061035e366004611cc9565b600560208190525f91825260409091208054600182015460028301546003840154600485015494909501546001600160a01b039384169592841694919093169260ff808216916101008104821691620100008204811691630100000090041689565b604080516001600160a01b039a8b168152988a1660208a0152969098169587019590955260608601939093526080850191909152151560a0840152151560c0830152151560e08201529015156101008201526101200161019d565b348015610426575f80fd5b5061013e610435366004611dcf565b611379565b348015610445575f80fd5b5061013e610454366004611cc9565b611502565b348015610464575f80fd5b5061013e610473366004611c80565b6115d2565b348015610483575f80fd5b506101935f5481565b348015610497575f80fd5b5061013e6104a6366004611cc9565b6116b8565b3480156104b6575f80fd5b5061019360025481565b3480156104cb575f80fd5b5061055f6104da366004611e0f565b604080516080810182525f808252602082018190529181018290526060810191909152506001600160a01b03165f908152600760209081526040918290208251608081018452905460ff808216151583526101008204811615159383019390935262010000810483161515938201939093526301000000909204161515606082015290565b60405161019d919081511515815260208083015115159082015260408083015115159082015260609182015115159181019190915260800190565b3480156105a5575f80fd5b5061013e6105b4366004611d96565b611852565b3480156105c4575f80fd5b506101c56105d3366004611cc9565b5f908152600560205260409020600201546001600160a01b031690565b335f9081526007602052604090205460ff16151560011461062c5760405162461bcd60e51b815260040161062390611e2f565b60405180910390fd5b5f828152600460205260409020546001600160a01b031633146106615760405162461bcd60e51b815260040161062390611e74565b5f8281526004602052604090206003015460ff16156106925760405162461bcd60e51b815260040161062390611eb9565b61069a611c35565b3381525f8381526006602090815260408083208584528252808320546001600160a01b0316828501528583526004909152812060029081015460608401528054916106e483611efb565b9091555050600280545f908152600560208181526040808420865181546001600160a01b03199081166001600160a01b039283161783558885018051600180860180548516928616929092179091558a860151998501805490931699841699909917909155606089015160038085019190915560808a015160048086019190915560a08b015194909701805460c08c015160e08d0151610100808f015161ffff1990941698151561ff001916989098179115159097021763ffff00001916620100009615159690960263ff000000191695909517630100000095151595909502949094179093558a87529490935293819020909301805460ff19169094179093555190519116907f6f90f2cb171bda4337d0bf803c1d78800ec0908f0e1ae7539c944d55166506dc90610818908490611ce0565b60405180910390a2505050565b5f838152600560205260409020600201546001600160a01b0316331461085d5760405162461bcd60e51b815260040161062390611f13565b5f838152600560208190526040909120015462010000900460ff1615156001146108995760405162461bcd60e51b815260040161062390611f5e565b5f83815260056020819052604090912001546301000000900460ff16156109025760405162461bcd60e51b815260206004820152601e60248201527f54686973206469737075746520686173206265656e207265736f6c76656400006044820152606401610623565b61090c8183611fa9565b6064146109515760405162461bcd60e51b8152602060048201526013602482015272496e76616c69642070657263656e746167657360681b6044820152606401610623565b5f8381526005602081905260408220908101805463ff00000019166301000000179055600301549060646109858584611fbc565b61098f9190611fd3565b90505f606461099e8585611fbc565b6109a89190611fd3565b5f878152600560205260408082206001015490519293506001600160a01b03169184156108fc0291859190818181858888f193505050501580156109ee573d5f803e3d5ffd5b505f868152600560205260408082205490516001600160a01b039091169183156108fc02918491818181858888f19350505050158015610a30573d5f803e3d5ffd5b50825f80828254610a419190611ff2565b90915550505f868152600560205260409081902090517fe990074bc649f32546aa103bec609bbe502737d71777a6037c3014540965022d91610a82916120a7565b60405180910390a1505050505050565b5f828152600a602090815260408083208484529091529020546001600160a01b03165b92915050565b610ac3611c35565b505f9081526005602081815260409283902083516101208101855281546001600160a01b0390811682526001830154811693820193909352600282015490921693820193909352600383015460608201526004830154608082015291015460ff808216151560a08401526101008083048216151560c08501526201000083048216151560e085015263010000009092041615159082015290565b335f9081526007602052604090205460ff161515600114610b905760405162461bcd60e51b815260040161062390611e2f565b5f818152600460205260409020546001600160a01b03163314610bc55760405162461bcd60e51b815260040161062390611e74565b5f8181526004602052604090206003015460ff1615610bf65760405162461bcd60e51b815260040161062390611eb9565b5f8181526004602052604081206002015490541015610c4c5760405162461bcd60e51b81526020600482015260126024820152714e6f7420656e6f7567682062616c616e636560701b6044820152606401610623565b5f8181526004602052604080822060028101546003909101805460ff1916600117905590519091339183156108fc0291849190818181858888f19350505050158015610c9a573d5f803e3d5ffd5b505f828152600460205260409081902090517fe5c60e6208ca49d9d44a816d227cdb520b6a0fa42101047e8154b3c348279a8191610cd7916120b6565b60405180910390a15050565b335f9081526007602052604090205460ff161515600114610d165760405162461bcd60e51b815260040161062390611e2f565b64e8d4a51000341015610d6b5760405162461bcd60e51b815260206004820152601960248201527f496e73756666696369656e74207374616b6520616d6f756e74000000000000006044820152606401610623565b604080516080810182525f60208201819052606082018190523382523492820183905280549192918291908190610da3908490611fa9565b909155505060038054905f610db783611efb565b9091555050600380545f90815260046020908152604091829020855181546001600160a01b0319166001600160a01b03909116908117825586830180516001840155878501805160028501556060808a01805195909801805460ff1916951515959095179094558551928352905193820193909352915192820192909252915115159082015233907f895c597c2d3a11527efbca5886dfe0f80c120de0f56aeefa770e2360dfd279559060800160405180910390a25050565b335f9081526007602052604090205460ff610100909104161515600114610ee75760405162461bcd60e51b815260206004820152602560248201527f596f75206e65656420746f20626520616e20656d706c6f79656520746f20646f604482015264081d1a185d60da1b6064820152608401610623565b5f8181526004602052604090206003015460ff1615610f185760405162461bcd60e51b815260040161062390611eb9565b5f818152600460205260408120600101805491610f3483611efb565b90915550505f81815260066020908152604080832060048084528285206001810154865291845282852080546001600160a01b0319163390811790915594869052909252517f4f3464a1af62143857ad68d2002715db4c011db3a046f5a7321e3d70ad1e529291610fa4916120b6565b60405180910390a250565b5f828152600460205260408120546001600160a01b0316331461102a5760405162461bcd60e51b815260206004820152602d60248201527f596f7520617265206e6f742074686520656d706c6f796572206f66207468697360448201526c206f66666572656420576f726b60981b6064820152608401610623565b505f9182526006602090815260408084209284529190529020546001600160a01b031690565b5f818152600560205260409020600101546001600160a01b031633148061108c57505f818152600560205260409020546001600160a01b031633145b6110d85760405162461bcd60e51b815260206004820152601b60248201527f596f7520646f206e6f7420706f7373657320617574686f7269747900000000006044820152606401610623565b5f81815260056020819052604091829020908101805462ff0000191662010000179055905133917f105ed52343dc940b3bdbdbdcc2e60c1dc6839b1381ceaedda9dadc75ecf8f0b591610fa491906120a7565b6001546001600160a01b031633146111555760405162461bcd60e51b815260040161062390611f13565b5f828152600560208190526040909120015462010000900460ff1615156001146111915760405162461bcd60e51b815260040161062390611f5e565b5f828152600560205260409020600101546001600160a01b03828116911614806111d357505f828152600560205260409020546001600160a01b038281169116145b6112535760405162461bcd60e51b8152602060048201526044602482018190527f5468652062656e6566696369617279206973206e6f7420616e20656d706c6f79908201527f6565206e6f7220616e20656d706c6f796572206f6620746869732061677265656064820152631b595b9d60e21b608482015260a401610623565b5f82815260056020819052604090912001546301000000900460ff16156112bc5760405162461bcd60e51b815260206004820152601e60248201527f54686973206469737075746520686173206265656e207265736f6c76656400006044820152606401610623565b5f828152600560208190526040808320918201805463ff00000019166301000000179055600390910154905190916001600160a01b0384169183156108fc0291849190818181858888f1935050505015801561131a573d5f803e3d5ffd5b50805f8082825461132b9190611ff2565b90915550505f838152600560205260409081902090517fe990074bc649f32546aa103bec609bbe502737d71777a6037c3014540965022d9161136c916120a7565b60405180910390a1505050565b5f831561138e578061138a81611efb565b9150505b82156113a2578061139e81611efb565b9150505b81156113b657806113b281611efb565b9150505b806001146114065760405162461bcd60e51b815260206004820152601860248201527f506c656173652063686f6f7365206f6e65206f7074696f6e00000000000000006044820152606401610623565b335f908152600760205260409020546301000000900460ff161561146c5760405162461bcd60e51b815260206004820152601a60248201527f596f752061726520616c726561647920726567697374657265640000000000006044820152606401610623565b60408051608080820183525f80835260208084018290528385018290526060938401829052339182905260078152845192830185528615158386018190528815158085528a1515858401819052600186880152875190815292830152818601529351919390927fd57b2b801ec598b0ff16aa0e5b33857b32ac2725fde743b6b641d8826fda041f92918290030190a25050505050565b5f818152600560205260409020600101546001600160a01b0316331461157d5760405162461bcd60e51b815260206004820152602a60248201527f596f7520617265206e6f742074686520656d706c6f796565206f662074686973604482015269081859dc99595b595b9d60b21b6064820152608401610623565b5f81815260056020818152604092839020909101805460ff1916600190811790915591519182527f6b5b92d1755824b841015b7514f1ac495070c0c43a54e1910906802b69d8ef1a910160405180910390a150565b5f828152600a602090815260408083208484529091529020546001600160a01b031633146116685760405162461bcd60e51b815260206004820152603760248201527f596f7520617265206e6f742061736b656420746f20626520746865206d69646460448201527f6c656d616e206f6620746869732061677265656d656e740000000000000000006064820152608401610623565b5f82815260056020526040908190206002810180546001600160a01b0319163317905590517fd217779db836ec8fbee3cbc07d88c8444ed736420f831b8cbfb107ce43bc653291610cd7916120a7565b5f818152600560205260409020546001600160a01b031633146117305760405162461bcd60e51b815260206004820152602a60248201527f596f7520617265206e6f742074686520656d706c6f796572206f662074686973604482015269081859dc99595b595b9d60b21b6064820152608401610623565b5f818152600560208190526040909120015460ff1615156001146117aa5760405162461bcd60e51b815260206004820152602b60248201527f54686520656d706c6f796565206973206e6f7420646f6e65207769746820746860448201526a1a5cc81d185cdac81e595d60aa1b6064820152608401610623565b5f818152600560208190526040808320918201805461ff001916610100179055600382015460019290920154905191926001600160a01b039091169183156108fc0291849190818181858888f1935050505015801561180b573d5f803e3d5ffd5b50805f8082825461181c9190611ff2565b9091555050604051600181527fa4ede5d74c01c87599cae178018f06f538ed1c40ac51ee85cbe677e1f750174190602001610cd7565b5f828152600560205260409020600101546001600160a01b031633148061188e57505f828152600560205260409020546001600160a01b031633145b6118da5760405162461bcd60e51b815260206004820152601e60248201527f596f7520617265206e6f7420616c6c6f77656420746f207375676765737400006044820152606401610623565b5f8281526008602090815260408083206001600160a01b0385168452825280832033845290915290205460ff16156119605760405162461bcd60e51b8152602060048201526024808201527f596f7520616c726561647920766f74656420666f722074686973206d6964646c60448201526332b6b0b760e11b6064820152608401610623565b5f828152600560205260409020600201546001600160a01b0316156119c75760405162461bcd60e51b815260206004820152601c60248201527f596f7520616c726561647920686176652061206d6964646c656d616e000000006044820152606401610623565b6001600160a01b0381165f9081526007602052604090205462010000900460ff16611a345760405162461bcd60e51b815260206004820152601f60248201527f546869732061646472657373206973206e6f742061206d6964646c656d616e006044820152606401610623565b5f8281526008602090815260408083206001600160a01b0385168085529083528184203385528352818420805460ff19166001179055858452600983528184209084529091528120805491611a8883611efb565b90915550505f828152600560205260409081902090517ff9130ec99c57e242455fa6af989447a84bbe8fe52a70cbcaf13a9652aa089b5091611acd91339185916120ed565b60405180910390a15f8281526009602090815260408083206001600160a01b0385168452909152902054600203611b0857611b088282611b0c565b5050565b5f828152600560205260409020600101546001600160a01b0316331480611b4857505f828152600560205260409020546001600160a01b031633145b611ba05760405162461bcd60e51b8152602060048201526024808201527f596f7520617265206e6f7420616c6c6f77656420746f20736574206d6964646c60448201526332b6b0b760e11b6064820152608401610623565b5f828152600560205260408120600401805491611bbc83611efb565b90915550505f828152600a6020908152604080832060058084528285206004810154865291845282852080546001600160a01b0319166001600160a01b0388161790559386905292909152517fa5bbda7fa17282c4725e052ae921aa2682773044aee6155c8eba5622f7800c0991610cd791849061211b565b60408051610120810182525f80825260208201819052918101829052606081018290526080810182905260a0810182905260c0810182905260e0810182905261010081019190915290565b5f8060408385031215611c91575f80fd5b50508035926020909101359150565b5f805f60608486031215611cb2575f80fd5b505081359360208301359350604090920135919050565b5f60208284031215611cd9575f80fd5b5035919050565b81516001600160a01b0390811682526020808401518216908301526040808401519182169083015261012082019050606083015160608301526080830151608083015260a0830151611d3660a084018215159052565b5060c0830151611d4a60c084018215159052565b5060e0830151611d5e60e084018215159052565b50610100830151611d7461010084018215159052565b5092915050565b80356001600160a01b0381168114611d91575f80fd5b919050565b5f8060408385031215611da7575f80fd5b82359150611db760208401611d7b565b90509250929050565b80358015158114611d91575f80fd5b5f805f60608486031215611de1575f80fd5b611dea84611dc0565b9250611df860208501611dc0565b9150611e0660408501611dc0565b90509250925092565b5f60208284031215611e1f575f80fd5b611e2882611d7b565b9392505050565b60208082526025908201527f596f75206e65656420746f20626520616e20656d706c6f79657220746f20646f604082015264081d1a185d60da1b606082015260800190565b60208082526025908201527f596f7520617265206e6f742074686520656d706c6f796572206f66207468697360408201526420776f726b60d81b606082015260800190565b6020808252601490820152732a3434b9903a30b9b59034b9903737bb9037b33360611b604082015260600190565b634e487b7160e01b5f52601160045260245ffd5b5f60018201611f0c57611f0c611ee7565b5060010190565b6020808252602b908201527f596f7520617265206e6f7420616c6c6f77656420746f207265736f6c7665207460408201526a686973206469737075746560a81b606082015260800190565b6020808252602b908201527f5468657265206973206e6f206469737075746520726169656420696e2074686960408201526a1cc81859dc99595b595b9d60aa1b606082015260800190565b80820180821115610ab557610ab5611ee7565b8082028115828204841417610ab557610ab5611ee7565b5f82611fed57634e487b7160e01b5f52601260045260245ffd5b500490565b81810381811115610ab557610ab5611ee7565b6120278261201a83546001600160a01b031690565b6001600160a01b03169052565b60018101546001600160a01b03908116602084015260028201541660408301526003810154606083015260048101546080830152600581015460ff808216151560a0850152600882901c16151560c084015261208d60e0840160ff8360101c1615159052565b6120a2610100840160ff8360181c1615159052565b505050565b6101208101610ab58284612005565b81546001600160a01b03168152600182015460208201526002820154604082015260039091015460ff161515606082015260800190565b6001600160a01b0384811682528316602082015261016081016121136040830184612005565b949350505050565b610140810161212a8285612005565b6001600160a01b0392909216610120919091015291905056fea2646970667358221220720f2899153076180102134667ad70884a57bac25894238551eb2c244fc0b86164736f6c634300081a0033",
					"opcodes": "PUSH1 0x80 PUSH1 0x40 MSTORE CALLVALUE DUP1 ISZERO PUSH1 0xE JUMPI PUSH0 DUP1 REVERT JUMPDEST POP PUSH1 0x1 DUP1 SLOAD PUSH1 0x1 PUSH1 0x1 PUSH1 0xA0 SHL SUB NOT AND CALLER OR SWAP1 SSTORE PUSH2 0x2179 DUP1 PUSH2 0x2E PUSH0 CODECOPY PUSH0 RETURN INVALID PUSH1 0x80 PUSH1 0x40 MSTORE PUSH1 0x4 CALLDATASIZE LT PUSH2 0x137 JUMPI PUSH0 CALLDATALOAD PUSH1 0xE0 SHR DUP1 PUSH4 0xA5C1674E GT PUSH2 0xAF JUMPI DUP1 PUSH4 0xD4C06B8D GT PUSH2 0x6B JUMPI DUP1 PUSH4 0xD4C06B8D EQ PUSH2 0x478 JUMPI DUP1 PUSH4 0xE43CAA91 EQ PUSH2 0x48C JUMPI DUP1 PUSH4 0xEF32FC51 EQ PUSH2 0x4AB JUMPI DUP1 PUSH4 0xFBCBC0F1 EQ PUSH2 0x4C0 JUMPI DUP1 PUSH4 0xFF4DB898 EQ PUSH2 0x59A JUMPI DUP1 PUSH4 0xFF69D8DF EQ PUSH2 0x5B9 JUMPI STOP JUMPDEST DUP1 PUSH4 0xA5C1674E EQ PUSH2 0x306 JUMPI DUP1 PUSH4 0xB1AE266B EQ PUSH2 0x325 JUMPI DUP1 PUSH4 0xBD14DE96 EQ PUSH2 0x344 JUMPI DUP1 PUSH4 0xC0D58835 EQ PUSH2 0x41B JUMPI DUP1 PUSH4 0xC7A488A1 EQ PUSH2 0x43A JUMPI DUP1 PUSH4 0xCF3B8FC7 EQ PUSH2 0x459 JUMPI STOP JUMPDEST DUP1 PUSH4 0x4F9F6FE6 GT PUSH2 0xFE JUMPI DUP1 PUSH4 0x4F9F6FE6 EQ PUSH2 0x1FC JUMPI DUP1 PUSH4 0x5EC448C7 EQ PUSH2 0x228 JUMPI DUP1 PUSH4 0x8589C725 EQ PUSH2 0x2A1 JUMPI DUP1 PUSH4 0x880B5212 EQ PUSH2 0x2C0 JUMPI DUP1 PUSH4 0x88945938 EQ PUSH2 0x2C8 JUMPI DUP1 PUSH4 0xA151BC22 EQ PUSH2 0x2E7 JUMPI STOP JUMPDEST DUP1 PUSH4 0x4BF66C6 EQ PUSH2 0x140 JUMPI DUP1 PUSH4 0xDE37BF6 EQ PUSH2 0x15F JUMPI DUP1 PUSH4 0xFE629EE EQ PUSH2 0x17E JUMPI DUP1 PUSH4 0x1CEFAF22 EQ PUSH2 0x1A6 JUMPI DUP1 PUSH4 0x3D6B56E9 EQ PUSH2 0x1DD JUMPI STOP JUMPDEST CALLDATASIZE PUSH2 0x13E JUMPI STOP JUMPDEST STOP JUMPDEST CALLVALUE DUP1 ISZERO PUSH2 0x14B JUMPI PUSH0 DUP1 REVERT JUMPDEST POP PUSH2 0x13E PUSH2 0x15A CALLDATASIZE PUSH1 0x4 PUSH2 0x1C80 JUMP JUMPDEST PUSH2 0x5F0 JUMP JUMPDEST CALLVALUE DUP1 ISZERO PUSH2 0x16A JUMPI PUSH0 DUP1 REVERT JUMPDEST POP PUSH2 0x13E PUSH2 0x179 CALLDATASIZE PUSH1 0x4 PUSH2 0x1CA0 JUMP JUMPDEST PUSH2 0x825 JUMP JUMPDEST CALLVALUE DUP1 ISZERO PUSH2 0x189 JUMPI PUSH0 DUP1 REVERT JUMPDEST POP PUSH2 0x193 PUSH1 0x3 SLOAD DUP2 JUMP JUMPDEST PUSH1 0x40 MLOAD SWAP1 DUP2 MSTORE PUSH1 0x20 ADD JUMPDEST PUSH1 0x40 MLOAD DUP1 SWAP2 SUB SWAP1 RETURN JUMPDEST CALLVALUE DUP1 ISZERO PUSH2 0x1B1 JUMPI PUSH0 DUP1 REVERT JUMPDEST POP PUSH1 0x1 SLOAD PUSH2 0x1C5 SWAP1 PUSH1 0x1 PUSH1 0x1 PUSH1 0xA0 SHL SUB AND DUP2 JUMP JUMPDEST PUSH1 0x40 MLOAD PUSH1 0x1 PUSH1 0x1 PUSH1 0xA0 SHL SUB SWAP1 SWAP2 AND DUP2 MSTORE PUSH1 0x20 ADD PUSH2 0x19D JUMP JUMPDEST CALLVALUE DUP1 ISZERO PUSH2 0x1E8 JUMPI PUSH0 DUP1 REVERT JUMPDEST POP PUSH2 0x1C5 PUSH2 0x1F7 CALLDATASIZE PUSH1 0x4 PUSH2 0x1C80 JUMP JUMPDEST PUSH2 0xA92 JUMP JUMPDEST CALLVALUE DUP1 ISZERO PUSH2 0x207 JUMPI PUSH0 DUP1 REVERT JUMPDEST POP PUSH2 0x21B PUSH2 0x216 CALLDATASIZE PUSH1 0x4 PUSH2 0x1CC9 JUMP JUMPDEST PUSH2 0xABB JUMP JUMPDEST PUSH1 0x40 MLOAD PUSH2 0x19D SWAP2 SWAP1 PUSH2 0x1CE0 JUMP JUMPDEST CALLVALUE DUP1 ISZERO PUSH2 0x233 JUMPI PUSH0 DUP1 REVERT JUMPDEST POP PUSH2 0x275 PUSH2 0x242 CALLDATASIZE PUSH1 0x4 PUSH2 0x1CC9 JUMP JUMPDEST PUSH1 0x4 PUSH1 0x20 MSTORE PUSH0 SWAP1 DUP2 MSTORE PUSH1 0x40 SWAP1 KECCAK256 DUP1 SLOAD PUSH1 0x1 DUP3 ADD SLOAD PUSH1 0x2 DUP4 ADD SLOAD PUSH1 0x3 SWAP1 SWAP4 ADD SLOAD PUSH1 0x1 PUSH1 0x1 PUSH1 0xA0 SHL SUB SWAP1 SWAP3 AND SWAP3 SWAP1 SWAP2 PUSH1 0xFF AND DUP5 JUMP JUMPDEST PUSH1 0x40 DUP1 MLOAD PUSH1 0x1 PUSH1 0x1 PUSH1 0xA0 SHL SUB SWAP1 SWAP6 AND DUP6 MSTORE PUSH1 0x20 DUP6 ADD SWAP4 SWAP1 SWAP4 MSTORE SWAP2 DUP4 ADD MSTORE ISZERO ISZERO PUSH1 0x60 DUP3 ADD MSTORE PUSH1 0x80 ADD PUSH2 0x19D JUMP JUMPDEST CALLVALUE DUP1 ISZERO PUSH2 0x2AC JUMPI PUSH0 DUP1 REVERT JUMPDEST POP PUSH2 0x13E PUSH2 0x2BB CALLDATASIZE PUSH1 0x4 PUSH2 0x1CC9 JUMP JUMPDEST PUSH2 0xB5D JUMP JUMPDEST PUSH2 0x13E PUSH2 0xCE3 JUMP JUMPDEST CALLVALUE DUP1 ISZERO PUSH2 0x2D3 JUMPI PUSH0 DUP1 REVERT JUMPDEST POP PUSH2 0x13E PUSH2 0x2E2 CALLDATASIZE PUSH1 0x4 PUSH2 0x1CC9 JUMP JUMPDEST PUSH2 0xE70 JUMP JUMPDEST CALLVALUE DUP1 ISZERO PUSH2 0x2F2 JUMPI PUSH0 DUP1 REVERT JUMPDEST POP PUSH2 0x1C5 PUSH2 0x301 CALLDATASIZE PUSH1 0x4 PUSH2 0x1C80 JUMP JUMPDEST PUSH2 0xFAF JUMP JUMPDEST CALLVALUE DUP1 ISZERO PUSH2 0x311 JUMPI PUSH0 DUP1 REVERT JUMPDEST POP PUSH2 0x13E PUSH2 0x320 CALLDATASIZE PUSH1 0x4 PUSH2 0x1CC9 JUMP JUMPDEST PUSH2 0x1050 JUMP JUMPDEST CALLVALUE DUP1 ISZERO PUSH2 0x330 JUMPI PUSH0 DUP1 REVERT JUMPDEST POP PUSH2 0x13E PUSH2 0x33F CALLDATASIZE PUSH1 0x4 PUSH2 0x1D96 JUMP JUMPDEST PUSH2 0x112B JUMP JUMPDEST CALLVALUE DUP1 ISZERO PUSH2 0x34F JUMPI PUSH0 DUP1 REVERT JUMPDEST POP PUSH2 0x3C0 PUSH2 0x35E CALLDATASIZE PUSH1 0x4 PUSH2 0x1CC9 JUMP JUMPDEST PUSH1 0x5 PUSH1 0x20 DUP2 SWAP1 MSTORE PUSH0 SWAP2 DUP3 MSTORE PUSH1 0x40 SWAP1 SWAP2 KECCAK256 DUP1 SLOAD PUSH1 0x1 DUP3 ADD SLOAD PUSH1 0x2 DUP4 ADD SLOAD PUSH1 0x3 DUP5 ADD SLOAD PUSH1 0x4 DUP6 ADD SLOAD SWAP5 SWAP1 SWAP6 ADD SLOAD PUSH1 0x1 PUSH1 0x1 PUSH1 0xA0 SHL SUB SWAP4 DUP5 AND SWAP6 SWAP3 DUP5 AND SWAP5 SWAP2 SWAP1 SWAP4 AND SWAP3 PUSH1 0xFF DUP1 DUP3 AND SWAP2 PUSH2 0x100 DUP2 DIV DUP3 AND SWAP2 PUSH3 0x10000 DUP3 DIV DUP2 AND SWAP2 PUSH4 0x1000000 SWAP1 DIV AND DUP10 JUMP JUMPDEST PUSH1 0x40 DUP1 MLOAD PUSH1 0x1 PUSH1 0x1 PUSH1 0xA0 SHL SUB SWAP11 DUP12 AND DUP2 MSTORE SWAP9 DUP11 AND PUSH1 0x20 DUP11 ADD MSTORE SWAP7 SWAP1 SWAP9 AND SWAP6 DUP8 ADD SWAP6 SWAP1 SWAP6 MSTORE PUSH1 0x60 DUP7 ADD SWAP4 SWAP1 SWAP4 MSTORE PUSH1 0x80 DUP6 ADD SWAP2 SWAP1 SWAP2 MSTORE ISZERO ISZERO PUSH1 0xA0 DUP5 ADD MSTORE ISZERO ISZERO PUSH1 0xC0 DUP4 ADD MSTORE ISZERO ISZERO PUSH1 0xE0 DUP3 ADD MSTORE SWAP1 ISZERO ISZERO PUSH2 0x100 DUP3 ADD MSTORE PUSH2 0x120 ADD PUSH2 0x19D JUMP JUMPDEST CALLVALUE DUP1 ISZERO PUSH2 0x426 JUMPI PUSH0 DUP1 REVERT JUMPDEST POP PUSH2 0x13E PUSH2 0x435 CALLDATASIZE PUSH1 0x4 PUSH2 0x1DCF JUMP JUMPDEST PUSH2 0x1379 JUMP JUMPDEST CALLVALUE DUP1 ISZERO PUSH2 0x445 JUMPI PUSH0 DUP1 REVERT JUMPDEST POP PUSH2 0x13E PUSH2 0x454 CALLDATASIZE PUSH1 0x4 PUSH2 0x1CC9 JUMP JUMPDEST PUSH2 0x1502 JUMP JUMPDEST CALLVALUE DUP1 ISZERO PUSH2 0x464 JUMPI PUSH0 DUP1 REVERT JUMPDEST POP PUSH2 0x13E PUSH2 0x473 CALLDATASIZE PUSH1 0x4 PUSH2 0x1C80 JUMP JUMPDEST PUSH2 0x15D2 JUMP JUMPDEST CALLVALUE DUP1 ISZERO PUSH2 0x483 JUMPI PUSH0 DUP1 REVERT JUMPDEST POP PUSH2 0x193 PUSH0 SLOAD DUP2 JUMP JUMPDEST CALLVALUE DUP1 ISZERO PUSH2 0x497 JUMPI PUSH0 DUP1 REVERT JUMPDEST POP PUSH2 0x13E PUSH2 0x4A6 CALLDATASIZE PUSH1 0x4 PUSH2 0x1CC9 JUMP JUMPDEST PUSH2 0x16B8 JUMP JUMPDEST CALLVALUE DUP1 ISZERO PUSH2 0x4B6 JUMPI PUSH0 DUP1 REVERT JUMPDEST POP PUSH2 0x193 PUSH1 0x2 SLOAD DUP2 JUMP JUMPDEST CALLVALUE DUP1 ISZERO PUSH2 0x4CB JUMPI PUSH0 DUP1 REVERT JUMPDEST POP PUSH2 0x55F PUSH2 0x4DA CALLDATASIZE PUSH1 0x4 PUSH2 0x1E0F JUMP JUMPDEST PUSH1 0x40 DUP1 MLOAD PUSH1 0x80 DUP2 ADD DUP3 MSTORE PUSH0 DUP1 DUP3 MSTORE PUSH1 0x20 DUP3 ADD DUP2 SWAP1 MSTORE SWAP2 DUP2 ADD DUP3 SWAP1 MSTORE PUSH1 0x60 DUP2 ADD SWAP2 SWAP1 SWAP2 MSTORE POP PUSH1 0x1 PUSH1 0x1 PUSH1 0xA0 SHL SUB AND PUSH0 SWAP1 DUP2 MSTORE PUSH1 0x7 PUSH1 0x20 SWAP1 DUP2 MSTORE PUSH1 0x40 SWAP2 DUP3 SWAP1 KECCAK256 DUP3 MLOAD PUSH1 0x80 DUP2 ADD DUP5 MSTORE SWAP1 SLOAD PUSH1 0xFF DUP1 DUP3 AND ISZERO ISZERO DUP4 MSTORE PUSH2 0x100 DUP3 DIV DUP2 AND ISZERO ISZERO SWAP4 DUP4 ADD SWAP4 SWAP1 SWAP4 MSTORE PUSH3 0x10000 DUP2 DIV DUP4 AND ISZERO ISZERO SWAP4 DUP3 ADD SWAP4 SWAP1 SWAP4 MSTORE PUSH4 0x1000000 SWAP1 SWAP3 DIV AND ISZERO ISZERO PUSH1 0x60 DUP3 ADD MSTORE SWAP1 JUMP JUMPDEST PUSH1 0x40 MLOAD PUSH2 0x19D SWAP2 SWAP1 DUP2 MLOAD ISZERO ISZERO DUP2 MSTORE PUSH1 0x20 DUP1 DUP4 ADD MLOAD ISZERO ISZERO SWAP1 DUP3 ADD MSTORE PUSH1 0x40 DUP1 DUP4 ADD MLOAD ISZERO ISZERO SWAP1 DUP3 ADD MSTORE PUSH1 0x60 SWAP2 DUP3 ADD MLOAD ISZERO ISZERO SWAP2 DUP2 ADD SWAP2 SWAP1 SWAP2 MSTORE PUSH1 0x80 ADD SWAP1 JUMP JUMPDEST CALLVALUE DUP1 ISZERO PUSH2 0x5A5 JUMPI PUSH0 DUP1 REVERT JUMPDEST POP PUSH2 0x13E PUSH2 0x5B4 CALLDATASIZE PUSH1 0x4 PUSH2 0x1D96 JUMP JUMPDEST PUSH2 0x1852 JUMP JUMPDEST CALLVALUE DUP1 ISZERO PUSH2 0x5C4 JUMPI PUSH0 DUP1 REVERT JUMPDEST POP PUSH2 0x1C5 PUSH2 0x5D3 CALLDATASIZE PUSH1 0x4 PUSH2 0x1CC9 JUMP JUMPDEST PUSH0 SWAP1 DUP2 MSTORE PUSH1 0x5 PUSH1 0x20 MSTORE PUSH1 0x40 SWAP1 KECCAK256 PUSH1 0x2 ADD SLOAD PUSH1 0x1 PUSH1 0x1 PUSH1 0xA0 SHL SUB AND SWAP1 JUMP JUMPDEST CALLER PUSH0 SWAP1 DUP2 MSTORE PUSH1 0x7 PUSH1 0x20 MSTORE PUSH1 0x40 SWAP1 KECCAK256 SLOAD PUSH1 0xFF AND ISZERO ISZERO PUSH1 0x1 EQ PUSH2 0x62C JUMPI PUSH1 0x40 MLOAD PUSH3 0x461BCD PUSH1 0xE5 SHL DUP2 MSTORE PUSH1 0x4 ADD PUSH2 0x623 SWAP1 PUSH2 0x1E2F JUMP JUMPDEST PUSH1 0x40 MLOAD DUP1 SWAP2 SUB SWAP1 REVERT JUMPDEST PUSH0 DUP3 DUP2 MSTORE PUSH1 0x4 PUSH1 0x20 MSTORE PUSH1 0x40 SWAP1 KECCAK256 SLOAD PUSH1 0x1 PUSH1 0x1 PUSH1 0xA0 SHL SUB AND CALLER EQ PUSH2 0x661 JUMPI PUSH1 0x40 MLOAD PUSH3 0x461BCD PUSH1 0xE5 SHL DUP2 MSTORE PUSH1 0x4 ADD PUSH2 0x623 SWAP1 PUSH2 0x1E74 JUMP JUMPDEST PUSH0 DUP3 DUP2 MSTORE PUSH1 0x4 PUSH1 0x20 MSTORE PUSH1 0x40 SWAP1 KECCAK256 PUSH1 0x3 ADD SLOAD PUSH1 0xFF AND ISZERO PUSH2 0x692 JUMPI PUSH1 0x40 MLOAD PUSH3 0x461BCD PUSH1 0xE5 SHL DUP2 MSTORE PUSH1 0x4 ADD PUSH2 0x623 SWAP1 PUSH2 0x1EB9 JUMP JUMPDEST PUSH2 0x69A PUSH2 0x1C35 JUMP JUMPDEST CALLER DUP2 MSTORE PUSH0 DUP4 DUP2 MSTORE PUSH1 0x6 PUSH1 0x20 SWAP1 DUP2 MSTORE PUSH1 0x40 DUP1 DUP4 KECCAK256 DUP6 DUP5 MSTORE DUP3 MSTORE DUP1 DUP4 KECCAK256 SLOAD PUSH1 0x1 PUSH1 0x1 PUSH1 0xA0 SHL SUB AND DUP3 DUP6 ADD MSTORE DUP6 DUP4 MSTORE PUSH1 0x4 SWAP1 SWAP2 MSTORE DUP2 KECCAK256 PUSH1 0x2 SWAP1 DUP2 ADD SLOAD PUSH1 0x60 DUP5 ADD MSTORE DUP1 SLOAD SWAP2 PUSH2 0x6E4 DUP4 PUSH2 0x1EFB JUMP JUMPDEST SWAP1 SWAP2 SSTORE POP POP PUSH1 0x2 DUP1 SLOAD PUSH0 SWAP1 DUP2 MSTORE PUSH1 0x5 PUSH1 0x20 DUP2 DUP2 MSTORE PUSH1 0x40 DUP1 DUP5 KECCAK256 DUP7 MLOAD DUP2 SLOAD PUSH1 0x1 PUSH1 0x1 PUSH1 0xA0 SHL SUB NOT SWAP1 DUP2 AND PUSH1 0x1 PUSH1 0x1 PUSH1 0xA0 SHL SUB SWAP3 DUP4 AND OR DUP4 SSTORE DUP9 DUP6 ADD DUP1 MLOAD PUSH1 0x1 DUP1 DUP7 ADD DUP1 SLOAD DUP6 AND SWAP3 DUP7 AND SWAP3 SWAP1 SWAP3 OR SWAP1 SWAP2 SSTORE DUP11 DUP7 ADD MLOAD SWAP10 DUP6 ADD DUP1 SLOAD SWAP1 SWAP4 AND SWAP10 DUP5 AND SWAP10 SWAP1 SWAP10 OR SWAP1 SWAP2 SSTORE PUSH1 0x60 DUP10 ADD MLOAD PUSH1 0x3 DUP1 DUP6 ADD SWAP2 SWAP1 SWAP2 SSTORE PUSH1 0x80 DUP11 ADD MLOAD PUSH1 0x4 DUP1 DUP7 ADD SWAP2 SWAP1 SWAP2 SSTORE PUSH1 0xA0 DUP12 ADD MLOAD SWAP5 SWAP1 SWAP8 ADD DUP1 SLOAD PUSH1 0xC0 DUP13 ADD MLOAD PUSH1 0xE0 DUP14 ADD MLOAD PUSH2 0x100 DUP1 DUP16 ADD MLOAD PUSH2 0xFFFF NOT SWAP1 SWAP5 AND SWAP9 ISZERO ISZERO PUSH2 0xFF00 NOT AND SWAP9 SWAP1 SWAP9 OR SWAP2 ISZERO ISZERO SWAP1 SWAP8 MUL OR PUSH4 0xFFFF0000 NOT AND PUSH3 0x10000 SWAP7 ISZERO ISZERO SWAP7 SWAP1 SWAP7 MUL PUSH4 0xFF000000 NOT AND SWAP6 SWAP1 SWAP6 OR PUSH4 0x1000000 SWAP6 ISZERO ISZERO SWAP6 SWAP1 SWAP6 MUL SWAP5 SWAP1 SWAP5 OR SWAP1 SWAP4 SSTORE DUP11 DUP8 MSTORE SWAP5 SWAP1 SWAP4 MSTORE SWAP4 DUP2 SWAP1 KECCAK256 SWAP1 SWAP4 ADD DUP1 SLOAD PUSH1 0xFF NOT AND SWAP1 SWAP5 OR SWAP1 SWAP4 SSTORE MLOAD SWAP1 MLOAD SWAP2 AND SWAP1 PUSH32 0x6F90F2CB171BDA4337D0BF803C1D78800EC0908F0E1AE7539C944D55166506DC SWAP1 PUSH2 0x818 SWAP1 DUP5 SWAP1 PUSH2 0x1CE0 JUMP JUMPDEST PUSH1 0x40 MLOAD DUP1 SWAP2 SUB SWAP1 LOG2 POP POP POP JUMP JUMPDEST PUSH0 DUP4 DUP2 MSTORE PUSH1 0x5 PUSH1 0x20 MSTORE PUSH1 0x40 SWAP1 KECCAK256 PUSH1 0x2 ADD SLOAD PUSH1 0x1 PUSH1 0x1 PUSH1 0xA0 SHL SUB AND CALLER EQ PUSH2 0x85D JUMPI PUSH1 0x40 MLOAD PUSH3 0x461BCD PUSH1 0xE5 SHL DUP2 MSTORE PUSH1 0x4 ADD PUSH2 0x623 SWAP1 PUSH2 0x1F13 JUMP JUMPDEST PUSH0 DUP4 DUP2 MSTORE PUSH1 0x5 PUSH1 0x20 DUP2 SWAP1 MSTORE PUSH1 0x40 SWAP1 SWAP2 KECCAK256 ADD SLOAD PUSH3 0x10000 SWAP1 DIV PUSH1 0xFF AND ISZERO ISZERO PUSH1 0x1 EQ PUSH2 0x899 JUMPI PUSH1 0x40 MLOAD PUSH3 0x461BCD PUSH1 0xE5 SHL DUP2 MSTORE PUSH1 0x4 ADD PUSH2 0x623 SWAP1 PUSH2 0x1F5E JUMP JUMPDEST PUSH0 DUP4 DUP2 MSTORE PUSH1 0x5 PUSH1 0x20 DUP2 SWAP1 MSTORE PUSH1 0x40 SWAP1 SWAP2 KECCAK256 ADD SLOAD PUSH4 0x1000000 SWAP1 DIV PUSH1 0xFF AND ISZERO PUSH2 0x902 JUMPI PUSH1 0x40 MLOAD PUSH3 0x461BCD PUSH1 0xE5 SHL DUP2 MSTORE PUSH1 0x20 PUSH1 0x4 DUP3 ADD MSTORE PUSH1 0x1E PUSH1 0x24 DUP3 ADD MSTORE PUSH32 0x54686973206469737075746520686173206265656E207265736F6C7665640000 PUSH1 0x44 DUP3 ADD MSTORE PUSH1 0x64 ADD PUSH2 0x623 JUMP JUMPDEST PUSH2 0x90C DUP2 DUP4 PUSH2 0x1FA9 JUMP JUMPDEST PUSH1 0x64 EQ PUSH2 0x951 JUMPI PUSH1 0x40 MLOAD PUSH3 0x461BCD PUSH1 0xE5 SHL DUP2 MSTORE PUSH1 0x20 PUSH1 0x4 DUP3 ADD MSTORE PUSH1 0x13 PUSH1 0x24 DUP3 ADD MSTORE PUSH19 0x496E76616C69642070657263656E7461676573 PUSH1 0x68 SHL PUSH1 0x44 DUP3 ADD MSTORE PUSH1 0x64 ADD PUSH2 0x623 JUMP JUMPDEST PUSH0 DUP4 DUP2 MSTORE PUSH1 0x5 PUSH1 0x20 DUP2 SWAP1 MSTORE PUSH1 0x40 DUP3 KECCAK256 SWAP1 DUP2 ADD DUP1 SLOAD PUSH4 0xFF000000 NOT AND PUSH4 0x1000000 OR SWAP1 SSTORE PUSH1 0x3 ADD SLOAD SWAP1 PUSH1 0x64 PUSH2 0x985 DUP6 DUP5 PUSH2 0x1FBC JUMP JUMPDEST PUSH2 0x98F SWAP2 SWAP1 PUSH2 0x1FD3 JUMP JUMPDEST SWAP1 POP PUSH0 PUSH1 0x64 PUSH2 0x99E DUP6 DUP6 PUSH2 0x1FBC JUMP JUMPDEST PUSH2 0x9A8 SWAP2 SWAP1 PUSH2 0x1FD3 JUMP JUMPDEST PUSH0 DUP8 DUP2 MSTORE PUSH1 0x5 PUSH1 0x20 MSTORE PUSH1 0x40 DUP1 DUP3 KECCAK256 PUSH1 0x1 ADD SLOAD SWAP1 MLOAD SWAP3 SWAP4 POP PUSH1 0x1 PUSH1 0x1 PUSH1 0xA0 SHL SUB AND SWAP2 DUP5 ISZERO PUSH2 0x8FC MUL SWAP2 DUP6 SWAP2 SWAP1 DUP2 DUP2 DUP2 DUP6 DUP9 DUP9 CALL SWAP4 POP POP POP POP ISZERO DUP1 ISZERO PUSH2 0x9EE JUMPI RETURNDATASIZE PUSH0 DUP1 RETURNDATACOPY RETURNDATASIZE PUSH0 REVERT JUMPDEST POP PUSH0 DUP7 DUP2 MSTORE PUSH1 0x5 PUSH1 0x20 MSTORE PUSH1 0x40 DUP1 DUP3 KECCAK256 SLOAD SWAP1 MLOAD PUSH1 0x1 PUSH1 0x1 PUSH1 0xA0 SHL SUB SWAP1 SWAP2 AND SWAP2 DUP4 ISZERO PUSH2 0x8FC MUL SWAP2 DUP5 SWAP2 DUP2 DUP2 DUP2 DUP6 DUP9 DUP9 CALL SWAP4 POP POP POP POP ISZERO DUP1 ISZERO PUSH2 0xA30 JUMPI RETURNDATASIZE PUSH0 DUP1 RETURNDATACOPY RETURNDATASIZE PUSH0 REVERT JUMPDEST POP DUP3 PUSH0 DUP1 DUP3 DUP3 SLOAD PUSH2 0xA41 SWAP2 SWAP1 PUSH2 0x1FF2 JUMP JUMPDEST SWAP1 SWAP2 SSTORE POP POP PUSH0 DUP7 DUP2 MSTORE PUSH1 0x5 PUSH1 0x20 MSTORE PUSH1 0x40 SWAP1 DUP2 SWAP1 KECCAK256 SWAP1 MLOAD PUSH32 0xE990074BC649F32546AA103BEC609BBE502737D71777A6037C3014540965022D SWAP2 PUSH2 0xA82 SWAP2 PUSH2 0x20A7 JUMP JUMPDEST PUSH1 0x40 MLOAD DUP1 SWAP2 SUB SWAP1 LOG1 POP POP POP POP POP POP JUMP JUMPDEST PUSH0 DUP3 DUP2 MSTORE PUSH1 0xA PUSH1 0x20 SWAP1 DUP2 MSTORE PUSH1 0x40 DUP1 DUP4 KECCAK256 DUP5 DUP5 MSTORE SWAP1 SWAP2 MSTORE SWAP1 KECCAK256 SLOAD PUSH1 0x1 PUSH1 0x1 PUSH1 0xA0 SHL SUB AND JUMPDEST SWAP3 SWAP2 POP POP JUMP JUMPDEST PUSH2 0xAC3 PUSH2 0x1C35 JUMP JUMPDEST POP PUSH0 SWAP1 DUP2 MSTORE PUSH1 0x5 PUSH1 0x20 DUP2 DUP2 MSTORE PUSH1 0x40 SWAP3 DUP4 SWAP1 KECCAK256 DUP4 MLOAD PUSH2 0x120 DUP2 ADD DUP6 MSTORE DUP2 SLOAD PUSH1 0x1 PUSH1 0x1 PUSH1 0xA0 SHL SUB SWAP1 DUP2 AND DUP3 MSTORE PUSH1 0x1 DUP4 ADD SLOAD DUP2 AND SWAP4 DUP3 ADD SWAP4 SWAP1 SWAP4 MSTORE PUSH1 0x2 DUP3 ADD SLOAD SWAP1 SWAP3 AND SWAP4 DUP3 ADD SWAP4 SWAP1 SWAP4 MSTORE PUSH1 0x3 DUP4 ADD SLOAD PUSH1 0x60 DUP3 ADD MSTORE PUSH1 0x4 DUP4 ADD SLOAD PUSH1 0x80 DUP3 ADD MSTORE SWAP2 ADD SLOAD PUSH1 0xFF DUP1 DUP3 AND ISZERO ISZERO PUSH1 0xA0 DUP5 ADD MSTORE PUSH2 0x100 DUP1 DUP4 DIV DUP3 AND ISZERO ISZERO PUSH1 0xC0 DUP6 ADD MSTORE PUSH3 0x10000 DUP4 DIV DUP3 AND ISZERO ISZERO PUSH1 0xE0 DUP6 ADD MSTORE PUSH4 0x1000000 SWAP1 SWAP3 DIV AND ISZERO ISZERO SWAP1 DUP3 ADD MSTORE SWAP1 JUMP JUMPDEST CALLER PUSH0 SWAP1 DUP2 MSTORE PUSH1 0x7 PUSH1 0x20 MSTORE PUSH1 0x40 SWAP1 KECCAK256 SLOAD PUSH1 0xFF AND ISZERO ISZERO PUSH1 0x1 EQ PUSH2 0xB90 JUMPI PUSH1 0x40 MLOAD PUSH3 0x461BCD PUSH1 0xE5 SHL DUP2 MSTORE PUSH1 0x4 ADD PUSH2 0x623 SWAP1 PUSH2 0x1E2F JUMP JUMPDEST PUSH0 DUP2 DUP2 MSTORE PUSH1 0x4 PUSH1 0x20 MSTORE PUSH1 0x40 SWAP1 KECCAK256 SLOAD PUSH1 0x1 PUSH1 0x1 PUSH1 0xA0 SHL SUB AND CALLER EQ PUSH2 0xBC5 JUMPI PUSH1 0x40 MLOAD PUSH3 0x461BCD PUSH1 0xE5 SHL DUP2 MSTORE PUSH1 0x4 ADD PUSH2 0x623 SWAP1 PUSH2 0x1E74 JUMP JUMPDEST PUSH0 DUP2 DUP2 MSTORE PUSH1 0x4 PUSH1 0x20 MSTORE PUSH1 0x40 SWAP1 KECCAK256 PUSH1 0x3 ADD SLOAD PUSH1 0xFF AND ISZERO PUSH2 0xBF6 JUMPI PUSH1 0x40 MLOAD PUSH3 0x461BCD PUSH1 0xE5 SHL DUP2 MSTORE PUSH1 0x4 ADD PUSH2 0x623 SWAP1 PUSH2 0x1EB9 JUMP JUMPDEST PUSH0 DUP2 DUP2 MSTORE PUSH1 0x4 PUSH1 0x20 MSTORE PUSH1 0x40 DUP2 KECCAK256 PUSH1 0x2 ADD SLOAD SWAP1 SLOAD LT ISZERO PUSH2 0xC4C JUMPI PUSH1 0x40 MLOAD PUSH3 0x461BCD PUSH1 0xE5 SHL DUP2 MSTORE PUSH1 0x20 PUSH1 0x4 DUP3 ADD MSTORE PUSH1 0x12 PUSH1 0x24 DUP3 ADD MSTORE PUSH18 0x4E6F7420656E6F7567682062616C616E6365 PUSH1 0x70 SHL PUSH1 0x44 DUP3 ADD MSTORE PUSH1 0x64 ADD PUSH2 0x623 JUMP JUMPDEST PUSH0 DUP2 DUP2 MSTORE PUSH1 0x4 PUSH1 0x20 MSTORE PUSH1 0x40 DUP1 DUP3 KECCAK256 PUSH1 0x2 DUP2 ADD SLOAD PUSH1 0x3 SWAP1 SWAP2 ADD DUP1 SLOAD PUSH1 0xFF NOT AND PUSH1 0x1 OR SWAP1 SSTORE SWAP1 MLOAD SWAP1 SWAP2 CALLER SWAP2 DUP4 ISZERO PUSH2 0x8FC MUL SWAP2 DUP5 SWAP2 SWAP1 DUP2 DUP2 DUP2 DUP6 DUP9 DUP9 CALL SWAP4 POP POP POP POP ISZERO DUP1 ISZERO PUSH2 0xC9A JUMPI RETURNDATASIZE PUSH0 DUP1 RETURNDATACOPY RETURNDATASIZE PUSH0 REVERT JUMPDEST POP PUSH0 DUP3 DUP2 MSTORE PUSH1 0x4 PUSH1 0x20 MSTORE PUSH1 0x40 SWAP1 DUP2 SWAP1 KECCAK256 SWAP1 MLOAD PUSH32 0xE5C60E6208CA49D9D44A816D227CDB520B6A0FA42101047E8154B3C348279A81 SWAP2 PUSH2 0xCD7 SWAP2 PUSH2 0x20B6 JUMP JUMPDEST PUSH1 0x40 MLOAD DUP1 SWAP2 SUB SWAP1 LOG1 POP POP JUMP JUMPDEST CALLER PUSH0 SWAP1 DUP2 MSTORE PUSH1 0x7 PUSH1 0x20 MSTORE PUSH1 0x40 SWAP1 KECCAK256 SLOAD PUSH1 0xFF AND ISZERO ISZERO PUSH1 0x1 EQ PUSH2 0xD16 JUMPI PUSH1 0x40 MLOAD PUSH3 0x461BCD PUSH1 0xE5 SHL DUP2 MSTORE PUSH1 0x4 ADD PUSH2 0x623 SWAP1 PUSH2 0x1E2F JUMP JUMPDEST PUSH5 0xE8D4A51000 CALLVALUE LT ISZERO PUSH2 0xD6B JUMPI PUSH1 0x40 MLOAD PUSH3 0x461BCD PUSH1 0xE5 SHL DUP2 MSTORE PUSH1 0x20 PUSH1 0x4 DUP3 ADD MSTORE PUSH1 0x19 PUSH1 0x24 DUP3 ADD MSTORE PUSH32 0x496E73756666696369656E74207374616B6520616D6F756E7400000000000000 PUSH1 0x44 DUP3 ADD MSTORE PUSH1 0x64 ADD PUSH2 0x623 JUMP JUMPDEST PUSH1 0x40 DUP1 MLOAD PUSH1 0x80 DUP2 ADD DUP3 MSTORE PUSH0 PUSH1 0x20 DUP3 ADD DUP2 SWAP1 MSTORE PUSH1 0x60 DUP3 ADD DUP2 SWAP1 MSTORE CALLER DUP3 MSTORE CALLVALUE SWAP3 DUP3 ADD DUP4 SWAP1 MSTORE DUP1 SLOAD SWAP2 SWAP3 SWAP2 DUP3 SWAP2 SWAP1 DUP2 SWAP1 PUSH2 0xDA3 SWAP1 DUP5 SWAP1 PUSH2 0x1FA9 JUMP JUMPDEST SWAP1 SWAP2 SSTORE POP POP PUSH1 0x3 DUP1 SLOAD SWAP1 PUSH0 PUSH2 0xDB7 DUP4 PUSH2 0x1EFB JUMP JUMPDEST SWAP1 SWAP2 SSTORE POP POP PUSH1 0x3 DUP1 SLOAD PUSH0 SWAP1 DUP2 MSTORE PUSH1 0x4 PUSH1 0x20 SWAP1 DUP2 MSTORE PUSH1 0x40 SWAP2 DUP3 SWAP1 KECCAK256 DUP6 MLOAD DUP2 SLOAD PUSH1 0x1 PUSH1 0x1 PUSH1 0xA0 SHL SUB NOT AND PUSH1 0x1 PUSH1 0x1 PUSH1 0xA0 SHL SUB SWAP1 SWAP2 AND SWAP1 DUP2 OR DUP3 SSTORE DUP7 DUP4 ADD DUP1 MLOAD PUSH1 0x1 DUP5 ADD SSTORE DUP8 DUP6 ADD DUP1 MLOAD PUSH1 0x2 DUP6 ADD SSTORE PUSH1 0x60 DUP1 DUP11 ADD DUP1 MLOAD SWAP6 SWAP1 SWAP9 ADD DUP1 SLOAD PUSH1 0xFF NOT AND SWAP6 ISZERO ISZERO SWAP6 SWAP1 SWAP6 OR SWAP1 SWAP5 SSTORE DUP6 MLOAD SWAP3 DUP4 MSTORE SWAP1 MLOAD SWAP4 DUP3 ADD SWAP4 SWAP1 SWAP4 MSTORE SWAP2 MLOAD SWAP3 DUP3 ADD SWAP3 SWAP1 SWAP3 MSTORE SWAP2 MLOAD ISZERO ISZERO SWAP1 DUP3 ADD MSTORE CALLER SWAP1 PUSH32 0x895C597C2D3A11527EFBCA5886DFE0F80C120DE0F56AEEFA770E2360DFD27955 SWAP1 PUSH1 0x80 ADD PUSH1 0x40 MLOAD DUP1 SWAP2 SUB SWAP1 LOG2 POP POP JUMP JUMPDEST CALLER PUSH0 SWAP1 DUP2 MSTORE PUSH1 0x7 PUSH1 0x20 MSTORE PUSH1 0x40 SWAP1 KECCAK256 SLOAD PUSH1 0xFF PUSH2 0x100 SWAP1 SWAP2 DIV AND ISZERO ISZERO PUSH1 0x1 EQ PUSH2 0xEE7 JUMPI PUSH1 0x40 MLOAD PUSH3 0x461BCD PUSH1 0xE5 SHL DUP2 MSTORE PUSH1 0x20 PUSH1 0x4 DUP3 ADD MSTORE PUSH1 0x25 PUSH1 0x24 DUP3 ADD MSTORE PUSH32 0x596F75206E65656420746F20626520616E20656D706C6F79656520746F20646F PUSH1 0x44 DUP3 ADD MSTORE PUSH5 0x81D1A185D PUSH1 0xDA SHL PUSH1 0x64 DUP3 ADD MSTORE PUSH1 0x84 ADD PUSH2 0x623 JUMP JUMPDEST PUSH0 DUP2 DUP2 MSTORE PUSH1 0x4 PUSH1 0x20 MSTORE PUSH1 0x40 SWAP1 KECCAK256 PUSH1 0x3 ADD SLOAD PUSH1 0xFF AND ISZERO PUSH2 0xF18 JUMPI PUSH1 0x40 MLOAD PUSH3 0x461BCD PUSH1 0xE5 SHL DUP2 MSTORE PUSH1 0x4 ADD PUSH2 0x623 SWAP1 PUSH2 0x1EB9 JUMP JUMPDEST PUSH0 DUP2 DUP2 MSTORE PUSH1 0x4 PUSH1 0x20 MSTORE PUSH1 0x40 DUP2 KECCAK256 PUSH1 0x1 ADD DUP1 SLOAD SWAP2 PUSH2 0xF34 DUP4 PUSH2 0x1EFB JUMP JUMPDEST SWAP1 SWAP2 SSTORE POP POP PUSH0 DUP2 DUP2 MSTORE PUSH1 0x6 PUSH1 0x20 SWAP1 DUP2 MSTORE PUSH1 0x40 DUP1 DUP4 KECCAK256 PUSH1 0x4 DUP1 DUP5 MSTORE DUP3 DUP6 KECCAK256 PUSH1 0x1 DUP2 ADD SLOAD DUP7 MSTORE SWAP2 DUP5 MSTORE DUP3 DUP6 KECCAK256 DUP1 SLOAD PUSH1 0x1 PUSH1 0x1 PUSH1 0xA0 SHL SUB NOT AND CALLER SWAP1 DUP2 OR SWAP1 SWAP2 SSTORE SWAP5 DUP7 SWAP1 MSTORE SWAP1 SWAP3 MSTORE MLOAD PUSH32 0x4F3464A1AF62143857AD68D2002715DB4C011DB3A046F5A7321E3D70AD1E5292 SWAP2 PUSH2 0xFA4 SWAP2 PUSH2 0x20B6 JUMP JUMPDEST PUSH1 0x40 MLOAD DUP1 SWAP2 SUB SWAP1 LOG2 POP JUMP JUMPDEST PUSH0 DUP3 DUP2 MSTORE PUSH1 0x4 PUSH1 0x20 MSTORE PUSH1 0x40 DUP2 KECCAK256 SLOAD PUSH1 0x1 PUSH1 0x1 PUSH1 0xA0 SHL SUB AND CALLER EQ PUSH2 0x102A JUMPI PUSH1 0x40 MLOAD PUSH3 0x461BCD PUSH1 0xE5 SHL DUP2 MSTORE PUSH1 0x20 PUSH1 0x4 DUP3 ADD MSTORE PUSH1 0x2D PUSH1 0x24 DUP3 ADD MSTORE PUSH32 0x596F7520617265206E6F742074686520656D706C6F796572206F662074686973 PUSH1 0x44 DUP3 ADD MSTORE PUSH13 0x206F66666572656420576F726B PUSH1 0x98 SHL PUSH1 0x64 DUP3 ADD MSTORE PUSH1 0x84 ADD PUSH2 0x623 JUMP JUMPDEST POP PUSH0 SWAP2 DUP3 MSTORE PUSH1 0x6 PUSH1 0x20 SWAP1 DUP2 MSTORE PUSH1 0x40 DUP1 DUP5 KECCAK256 SWAP3 DUP5 MSTORE SWAP2 SWAP1 MSTORE SWAP1 KECCAK256 SLOAD PUSH1 0x1 PUSH1 0x1 PUSH1 0xA0 SHL SUB AND SWAP1 JUMP JUMPDEST PUSH0 DUP2 DUP2 MSTORE PUSH1 0x5 PUSH1 0x20 MSTORE PUSH1 0x40 SWAP1 KECCAK256 PUSH1 0x1 ADD SLOAD PUSH1 0x1 PUSH1 0x1 PUSH1 0xA0 SHL SUB AND CALLER EQ DUP1 PUSH2 0x108C JUMPI POP PUSH0 DUP2 DUP2 MSTORE PUSH1 0x5 PUSH1 0x20 MSTORE PUSH1 0x40 SWAP1 KECCAK256 SLOAD PUSH1 0x1 PUSH1 0x1 PUSH1 0xA0 SHL SUB AND CALLER EQ JUMPDEST PUSH2 0x10D8 JUMPI PUSH1 0x40 MLOAD PUSH3 0x461BCD PUSH1 0xE5 SHL DUP2 MSTORE PUSH1 0x20 PUSH1 0x4 DUP3 ADD MSTORE PUSH1 0x1B PUSH1 0x24 DUP3 ADD MSTORE PUSH32 0x596F7520646F206E6F7420706F7373657320617574686F726974790000000000 PUSH1 0x44 DUP3 ADD MSTORE PUSH1 0x64 ADD PUSH2 0x623 JUMP JUMPDEST PUSH0 DUP2 DUP2 MSTORE PUSH1 0x5 PUSH1 0x20 DUP2 SWAP1 MSTORE PUSH1 0x40 SWAP2 DUP3 SWAP1 KECCAK256 SWAP1 DUP2 ADD DUP1 SLOAD PUSH3 0xFF0000 NOT AND PUSH3 0x10000 OR SWAP1 SSTORE SWAP1 MLOAD CALLER SWAP2 PUSH32 0x105ED52343DC940B3BDBDBDCC2E60C1DC6839B1381CEAEDDA9DADC75ECF8F0B5 SWAP2 PUSH2 0xFA4 SWAP2 SWAP1 PUSH2 0x20A7 JUMP JUMPDEST PUSH1 0x1 SLOAD PUSH1 0x1 PUSH1 0x1 PUSH1 0xA0 SHL SUB AND CALLER EQ PUSH2 0x1155 JUMPI PUSH1 0x40 MLOAD PUSH3 0x461BCD PUSH1 0xE5 SHL DUP2 MSTORE PUSH1 0x4 ADD PUSH2 0x623 SWAP1 PUSH2 0x1F13 JUMP JUMPDEST PUSH0 DUP3 DUP2 MSTORE PUSH1 0x5 PUSH1 0x20 DUP2 SWAP1 MSTORE PUSH1 0x40 SWAP1 SWAP2 KECCAK256 ADD SLOAD PUSH3 0x10000 SWAP1 DIV PUSH1 0xFF AND ISZERO ISZERO PUSH1 0x1 EQ PUSH2 0x1191 JUMPI PUSH1 0x40 MLOAD PUSH3 0x461BCD PUSH1 0xE5 SHL DUP2 MSTORE PUSH1 0x4 ADD PUSH2 0x623 SWAP1 PUSH2 0x1F5E JUMP JUMPDEST PUSH0 DUP3 DUP2 MSTORE PUSH1 0x5 PUSH1 0x20 MSTORE PUSH1 0x40 SWAP1 KECCAK256 PUSH1 0x1 ADD SLOAD PUSH1 0x1 PUSH1 0x1 PUSH1 0xA0 SHL SUB DUP3 DUP2 AND SWAP2 AND EQ DUP1 PUSH2 0x11D3 JUMPI POP PUSH0 DUP3 DUP2 MSTORE PUSH1 0x5 PUSH1 0x20 MSTORE PUSH1 0x40 SWAP1 KECCAK256 SLOAD PUSH1 0x1 PUSH1 0x1 PUSH1 0xA0 SHL SUB DUP3 DUP2 AND SWAP2 AND EQ JUMPDEST PUSH2 0x1253 JUMPI PUSH1 0x40 MLOAD PUSH3 0x461BCD PUSH1 0xE5 SHL DUP2 MSTORE PUSH1 0x20 PUSH1 0x4 DUP3 ADD MSTORE PUSH1 0x44 PUSH1 0x24 DUP3 ADD DUP2 SWAP1 MSTORE PUSH32 0x5468652062656E6566696369617279206973206E6F7420616E20656D706C6F79 SWAP1 DUP3 ADD MSTORE PUSH32 0x6565206E6F7220616E20656D706C6F796572206F662074686973206167726565 PUSH1 0x64 DUP3 ADD MSTORE PUSH4 0x1B595B9D PUSH1 0xE2 SHL PUSH1 0x84 DUP3 ADD MSTORE PUSH1 0xA4 ADD PUSH2 0x623 JUMP JUMPDEST PUSH0 DUP3 DUP2 MSTORE PUSH1 0x5 PUSH1 0x20 DUP2 SWAP1 MSTORE PUSH1 0x40 SWAP1 SWAP2 KECCAK256 ADD SLOAD PUSH4 0x1000000 SWAP1 DIV PUSH1 0xFF AND ISZERO PUSH2 0x12BC JUMPI PUSH1 0x40 MLOAD PUSH3 0x461BCD PUSH1 0xE5 SHL DUP2 MSTORE PUSH1 0x20 PUSH1 0x4 DUP3 ADD MSTORE PUSH1 0x1E PUSH1 0x24 DUP3 ADD MSTORE PUSH32 0x54686973206469737075746520686173206265656E207265736F6C7665640000 PUSH1 0x44 DUP3 ADD MSTORE PUSH1 0x64 ADD PUSH2 0x623 JUMP JUMPDEST PUSH0 DUP3 DUP2 MSTORE PUSH1 0x5 PUSH1 0x20 DUP2 SWAP1 MSTORE PUSH1 0x40 DUP1 DUP4 KECCAK256 SWAP2 DUP3 ADD DUP1 SLOAD PUSH4 0xFF000000 NOT AND PUSH4 0x1000000 OR SWAP1 SSTORE PUSH1 0x3 SWAP1 SWAP2 ADD SLOAD SWAP1 MLOAD SWAP1 SWAP2 PUSH1 0x1 PUSH1 0x1 PUSH1 0xA0 SHL SUB DUP5 AND SWAP2 DUP4 ISZERO PUSH2 0x8FC MUL SWAP2 DUP5 SWAP2 SWAP1 DUP2 DUP2 DUP2 DUP6 DUP9 DUP9 CALL SWAP4 POP POP POP POP ISZERO DUP1 ISZERO PUSH2 0x131A JUMPI RETURNDATASIZE PUSH0 DUP1 RETURNDATACOPY RETURNDATASIZE PUSH0 REVERT JUMPDEST POP DUP1 PUSH0 DUP1 DUP3 DUP3 SLOAD PUSH2 0x132B SWAP2 SWAP1 PUSH2 0x1FF2 JUMP JUMPDEST SWAP1 SWAP2 SSTORE POP POP PUSH0 DUP4 DUP2 MSTORE PUSH1 0x5 PUSH1 0x20 MSTORE PUSH1 0x40 SWAP1 DUP2 SWAP1 KECCAK256 SWAP1 MLOAD PUSH32 0xE990074BC649F32546AA103BEC609BBE502737D71777A6037C3014540965022D SWAP2 PUSH2 0x136C SWAP2 PUSH2 0x20A7 JUMP JUMPDEST PUSH1 0x40 MLOAD DUP1 SWAP2 SUB SWAP1 LOG1 POP POP POP JUMP JUMPDEST PUSH0 DUP4 ISZERO PUSH2 0x138E JUMPI DUP1 PUSH2 0x138A DUP2 PUSH2 0x1EFB JUMP JUMPDEST SWAP2 POP POP JUMPDEST DUP3 ISZERO PUSH2 0x13A2 JUMPI DUP1 PUSH2 0x139E DUP2 PUSH2 0x1EFB JUMP JUMPDEST SWAP2 POP POP JUMPDEST DUP2 ISZERO PUSH2 0x13B6 JUMPI DUP1 PUSH2 0x13B2 DUP2 PUSH2 0x1EFB JUMP JUMPDEST SWAP2 POP POP JUMPDEST DUP1 PUSH1 0x1 EQ PUSH2 0x1406 JUMPI PUSH1 0x40 MLOAD PUSH3 0x461BCD PUSH1 0xE5 SHL DUP2 MSTORE PUSH1 0x20 PUSH1 0x4 DUP3 ADD MSTORE PUSH1 0x18 PUSH1 0x24 DUP3 ADD MSTORE PUSH32 0x506C656173652063686F6F7365206F6E65206F7074696F6E0000000000000000 PUSH1 0x44 DUP3 ADD MSTORE PUSH1 0x64 ADD PUSH2 0x623 JUMP JUMPDEST CALLER PUSH0 SWAP1 DUP2 MSTORE PUSH1 0x7 PUSH1 0x20 MSTORE PUSH1 0x40 SWAP1 KECCAK256 SLOAD PUSH4 0x1000000 SWAP1 DIV PUSH1 0xFF AND ISZERO PUSH2 0x146C JUMPI PUSH1 0x40 MLOAD PUSH3 0x461BCD PUSH1 0xE5 SHL DUP2 MSTORE PUSH1 0x20 PUSH1 0x4 DUP3 ADD MSTORE PUSH1 0x1A PUSH1 0x24 DUP3 ADD MSTORE PUSH32 0x596F752061726520616C72656164792072656769737465726564000000000000 PUSH1 0x44 DUP3 ADD MSTORE PUSH1 0x64 ADD PUSH2 0x623 JUMP JUMPDEST PUSH1 0x40 DUP1 MLOAD PUSH1 0x80 DUP1 DUP3 ADD DUP4 MSTORE PUSH0 DUP1 DUP4 MSTORE PUSH1 0x20 DUP1 DUP5 ADD DUP3 SWAP1 MSTORE DUP4 DUP6 ADD DUP3 SWAP1 MSTORE PUSH1 0x60 SWAP4 DUP5 ADD DUP3 SWAP1 MSTORE CALLER SWAP2 DUP3 SWAP1 MSTORE PUSH1 0x7 DUP2 MSTORE DUP5 MLOAD SWAP3 DUP4 ADD DUP6 MSTORE DUP7 ISZERO ISZERO DUP4 DUP7 ADD DUP2 SWAP1 MSTORE DUP9 ISZERO ISZERO DUP1 DUP6 MSTORE DUP11 ISZERO ISZERO DUP6 DUP5 ADD DUP2 SWAP1 MSTORE PUSH1 0x1 DUP7 DUP9 ADD MSTORE DUP8 MLOAD SWAP1 DUP2 MSTORE SWAP3 DUP4 ADD MSTORE DUP2 DUP7 ADD MSTORE SWAP4 MLOAD SWAP2 SWAP4 SWAP1 SWAP3 PUSH32 0xD57B2B801EC598B0FF16AA0E5B33857B32AC2725FDE743B6B641D8826FDA041F SWAP3 SWAP2 DUP3 SWAP1 SUB ADD SWAP1 LOG2 POP POP POP POP POP JUMP JUMPDEST PUSH0 DUP2 DUP2 MSTORE PUSH1 0x5 PUSH1 0x20 MSTORE PUSH1 0x40 SWAP1 KECCAK256 PUSH1 0x1 ADD SLOAD PUSH1 0x1 PUSH1 0x1 PUSH1 0xA0 SHL SUB AND CALLER EQ PUSH2 0x157D JUMPI PUSH1 0x40 MLOAD PUSH3 0x461BCD PUSH1 0xE5 SHL DUP2 MSTORE PUSH1 0x20 PUSH1 0x4 DUP3 ADD MSTORE PUSH1 0x2A PUSH1 0x24 DUP3 ADD MSTORE PUSH32 0x596F7520617265206E6F742074686520656D706C6F796565206F662074686973 PUSH1 0x44 DUP3 ADD MSTORE PUSH10 0x81859DC99595B595B9D PUSH1 0xB2 SHL PUSH1 0x64 DUP3 ADD MSTORE PUSH1 0x84 ADD PUSH2 0x623 JUMP JUMPDEST PUSH0 DUP2 DUP2 MSTORE PUSH1 0x5 PUSH1 0x20 DUP2 DUP2 MSTORE PUSH1 0x40 SWAP3 DUP4 SWAP1 KECCAK256 SWAP1 SWAP2 ADD DUP1 SLOAD PUSH1 0xFF NOT AND PUSH1 0x1 SWAP1 DUP2 OR SWAP1 SWAP2 SSTORE SWAP2 MLOAD SWAP2 DUP3 MSTORE PUSH32 0x6B5B92D1755824B841015B7514F1AC495070C0C43A54E1910906802B69D8EF1A SWAP2 ADD PUSH1 0x40 MLOAD DUP1 SWAP2 SUB SWAP1 LOG1 POP JUMP JUMPDEST PUSH0 DUP3 DUP2 MSTORE PUSH1 0xA PUSH1 0x20 SWAP1 DUP2 MSTORE PUSH1 0x40 DUP1 DUP4 KECCAK256 DUP5 DUP5 MSTORE SWAP1 SWAP2 MSTORE SWAP1 KECCAK256 SLOAD PUSH1 0x1 PUSH1 0x1 PUSH1 0xA0 SHL SUB AND CALLER EQ PUSH2 0x1668 JUMPI PUSH1 0x40 MLOAD PUSH3 0x461BCD PUSH1 0xE5 SHL DUP2 MSTORE PUSH1 0x20 PUSH1 0x4 DUP3 ADD MSTORE PUSH1 0x37 PUSH1 0x24 DUP3 ADD MSTORE PUSH32 0x596F7520617265206E6F742061736B656420746F20626520746865206D696464 PUSH1 0x44 DUP3 ADD MSTORE PUSH32 0x6C656D616E206F6620746869732061677265656D656E74000000000000000000 PUSH1 0x64 DUP3 ADD MSTORE PUSH1 0x84 ADD PUSH2 0x623 JUMP JUMPDEST PUSH0 DUP3 DUP2 MSTORE PUSH1 0x5 PUSH1 0x20 MSTORE PUSH1 0x40 SWAP1 DUP2 SWAP1 KECCAK256 PUSH1 0x2 DUP2 ADD DUP1 SLOAD PUSH1 0x1 PUSH1 0x1 PUSH1 0xA0 SHL SUB NOT AND CALLER OR SWAP1 SSTORE SWAP1 MLOAD PUSH32 0xD217779DB836EC8FBEE3CBC07D88C8444ED736420F831B8CBFB107CE43BC6532 SWAP2 PUSH2 0xCD7 SWAP2 PUSH2 0x20A7 JUMP JUMPDEST PUSH0 DUP2 DUP2 MSTORE PUSH1 0x5 PUSH1 0x20 MSTORE PUSH1 0x40 SWAP1 KECCAK256 SLOAD PUSH1 0x1 PUSH1 0x1 PUSH1 0xA0 SHL SUB AND CALLER EQ PUSH2 0x1730 JUMPI PUSH1 0x40 MLOAD PUSH3 0x461BCD PUSH1 0xE5 SHL DUP2 MSTORE PUSH1 0x20 PUSH1 0x4 DUP3 ADD MSTORE PUSH1 0x2A PUSH1 0x24 DUP3 ADD MSTORE PUSH32 0x596F7520617265206E6F742074686520656D706C6F796572206F662074686973 PUSH1 0x44 DUP3 ADD MSTORE PUSH10 0x81859DC99595B595B9D PUSH1 0xB2 SHL PUSH1 0x64 DUP3 ADD MSTORE PUSH1 0x84 ADD PUSH2 0x623 JUMP JUMPDEST PUSH0 DUP2 DUP2 MSTORE PUSH1 0x5 PUSH1 0x20 DUP2 SWAP1 MSTORE PUSH1 0x40 SWAP1 SWAP2 KECCAK256 ADD SLOAD PUSH1 0xFF AND ISZERO ISZERO PUSH1 0x1 EQ PUSH2 0x17AA JUMPI PUSH1 0x40 MLOAD PUSH3 0x461BCD PUSH1 0xE5 SHL DUP2 MSTORE PUSH1 0x20 PUSH1 0x4 DUP3 ADD MSTORE PUSH1 0x2B PUSH1 0x24 DUP3 ADD MSTORE PUSH32 0x54686520656D706C6F796565206973206E6F7420646F6E652077697468207468 PUSH1 0x44 DUP3 ADD MSTORE PUSH11 0x1A5CC81D185CDAC81E595D PUSH1 0xAA SHL PUSH1 0x64 DUP3 ADD MSTORE PUSH1 0x84 ADD PUSH2 0x623 JUMP JUMPDEST PUSH0 DUP2 DUP2 MSTORE PUSH1 0x5 PUSH1 0x20 DUP2 SWAP1 MSTORE PUSH1 0x40 DUP1 DUP4 KECCAK256 SWAP2 DUP3 ADD DUP1 SLOAD PUSH2 0xFF00 NOT AND PUSH2 0x100 OR SWAP1 SSTORE PUSH1 0x3 DUP3 ADD SLOAD PUSH1 0x1 SWAP3 SWAP1 SWAP3 ADD SLOAD SWAP1 MLOAD SWAP2 SWAP3 PUSH1 0x1 PUSH1 0x1 PUSH1 0xA0 SHL SUB SWAP1 SWAP2 AND SWAP2 DUP4 ISZERO PUSH2 0x8FC MUL SWAP2 DUP5 SWAP2 SWAP1 DUP2 DUP2 DUP2 DUP6 DUP9 DUP9 CALL SWAP4 POP POP POP POP ISZERO DUP1 ISZERO PUSH2 0x180B JUMPI RETURNDATASIZE PUSH0 DUP1 RETURNDATACOPY RETURNDATASIZE PUSH0 REVERT JUMPDEST POP DUP1 PUSH0 DUP1 DUP3 DUP3 SLOAD PUSH2 0x181C SWAP2 SWAP1 PUSH2 0x1FF2 JUMP JUMPDEST SWAP1 SWAP2 SSTORE POP POP PUSH1 0x40 MLOAD PUSH1 0x1 DUP2 MSTORE PUSH32 0xA4EDE5D74C01C87599CAE178018F06F538ED1C40AC51EE85CBE677E1F7501741 SWAP1 PUSH1 0x20 ADD PUSH2 0xCD7 JUMP JUMPDEST PUSH0 DUP3 DUP2 MSTORE PUSH1 0x5 PUSH1 0x20 MSTORE PUSH1 0x40 SWAP1 KECCAK256 PUSH1 0x1 ADD SLOAD PUSH1 0x1 PUSH1 0x1 PUSH1 0xA0 SHL SUB AND CALLER EQ DUP1 PUSH2 0x188E JUMPI POP PUSH0 DUP3 DUP2 MSTORE PUSH1 0x5 PUSH1 0x20 MSTORE PUSH1 0x40 SWAP1 KECCAK256 SLOAD PUSH1 0x1 PUSH1 0x1 PUSH1 0xA0 SHL SUB AND CALLER EQ JUMPDEST PUSH2 0x18DA JUMPI PUSH1 0x40 MLOAD PUSH3 0x461BCD PUSH1 0xE5 SHL DUP2 MSTORE PUSH1 0x20 PUSH1 0x4 DUP3 ADD MSTORE PUSH1 0x1E PUSH1 0x24 DUP3 ADD MSTORE PUSH32 0x596F7520617265206E6F7420616C6C6F77656420746F20737567676573740000 PUSH1 0x44 DUP3 ADD MSTORE PUSH1 0x64 ADD PUSH2 0x623 JUMP JUMPDEST PUSH0 DUP3 DUP2 MSTORE PUSH1 0x8 PUSH1 0x20 SWAP1 DUP2 MSTORE PUSH1 0x40 DUP1 DUP4 KECCAK256 PUSH1 0x1 PUSH1 0x1 PUSH1 0xA0 SHL SUB DUP6 AND DUP5 MSTORE DUP3 MSTORE DUP1 DUP4 KECCAK256 CALLER DUP5 MSTORE SWAP1 SWAP2 MSTORE SWAP1 KECCAK256 SLOAD PUSH1 0xFF AND ISZERO PUSH2 0x1960 JUMPI PUSH1 0x40 MLOAD PUSH3 0x461BCD PUSH1 0xE5 SHL DUP2 MSTORE PUSH1 0x20 PUSH1 0x4 DUP3 ADD MSTORE PUSH1 0x24 DUP1 DUP3 ADD MSTORE PUSH32 0x596F7520616C726561647920766F74656420666F722074686973206D6964646C PUSH1 0x44 DUP3 ADD MSTORE PUSH4 0x32B6B0B7 PUSH1 0xE1 SHL PUSH1 0x64 DUP3 ADD MSTORE PUSH1 0x84 ADD PUSH2 0x623 JUMP JUMPDEST PUSH0 DUP3 DUP2 MSTORE PUSH1 0x5 PUSH1 0x20 MSTORE PUSH1 0x40 SWAP1 KECCAK256 PUSH1 0x2 ADD SLOAD PUSH1 0x1 PUSH1 0x1 PUSH1 0xA0 SHL SUB AND ISZERO PUSH2 0x19C7 JUMPI PUSH1 0x40 MLOAD PUSH3 0x461BCD PUSH1 0xE5 SHL DUP2 MSTORE PUSH1 0x20 PUSH1 0x4 DUP3 ADD MSTORE PUSH1 0x1C PUSH1 0x24 DUP3 ADD MSTORE PUSH32 0x596F7520616C726561647920686176652061206D6964646C656D616E00000000 PUSH1 0x44 DUP3 ADD MSTORE PUSH1 0x64 ADD PUSH2 0x623 JUMP JUMPDEST PUSH1 0x1 PUSH1 0x1 PUSH1 0xA0 SHL SUB DUP2 AND PUSH0 SWAP1 DUP2 MSTORE PUSH1 0x7 PUSH1 0x20 MSTORE PUSH1 0x40 SWAP1 KECCAK256 SLOAD PUSH3 0x10000 SWAP1 DIV PUSH1 0xFF AND PUSH2 0x1A34 JUMPI PUSH1 0x40 MLOAD PUSH3 0x461BCD PUSH1 0xE5 SHL DUP2 MSTORE PUSH1 0x20 PUSH1 0x4 DUP3 ADD MSTORE PUSH1 0x1F PUSH1 0x24 DUP3 ADD MSTORE PUSH32 0x546869732061646472657373206973206E6F742061206D6964646C656D616E00 PUSH1 0x44 DUP3 ADD MSTORE PUSH1 0x64 ADD PUSH2 0x623 JUMP JUMPDEST PUSH0 DUP3 DUP2 MSTORE PUSH1 0x8 PUSH1 0x20 SWAP1 DUP2 MSTORE PUSH1 0x40 DUP1 DUP4 KECCAK256 PUSH1 0x1 PUSH1 0x1 PUSH1 0xA0 SHL SUB DUP6 AND DUP1 DUP6 MSTORE SWAP1 DUP4 MSTORE DUP2 DUP5 KECCAK256 CALLER DUP6 MSTORE DUP4 MSTORE DUP2 DUP5 KECCAK256 DUP1 SLOAD PUSH1 0xFF NOT AND PUSH1 0x1 OR SWAP1 SSTORE DUP6 DUP5 MSTORE PUSH1 0x9 DUP4 MSTORE DUP2 DUP5 KECCAK256 SWAP1 DUP5 MSTORE SWAP1 SWAP2 MSTORE DUP2 KECCAK256 DUP1 SLOAD SWAP2 PUSH2 0x1A88 DUP4 PUSH2 0x1EFB JUMP JUMPDEST SWAP1 SWAP2 SSTORE POP POP PUSH0 DUP3 DUP2 MSTORE PUSH1 0x5 PUSH1 0x20 MSTORE PUSH1 0x40 SWAP1 DUP2 SWAP1 KECCAK256 SWAP1 MLOAD PUSH32 0xF9130EC99C57E242455FA6AF989447A84BBE8FE52A70CBCAF13A9652AA089B50 SWAP2 PUSH2 0x1ACD SWAP2 CALLER SWAP2 DUP6 SWAP2 PUSH2 0x20ED JUMP JUMPDEST PUSH1 0x40 MLOAD DUP1 SWAP2 SUB SWAP1 LOG1 PUSH0 DUP3 DUP2 MSTORE PUSH1 0x9 PUSH1 0x20 SWAP1 DUP2 MSTORE PUSH1 0x40 DUP1 DUP4 KECCAK256 PUSH1 0x1 PUSH1 0x1 PUSH1 0xA0 SHL SUB DUP6 AND DUP5 MSTORE SWAP1 SWAP2 MSTORE SWAP1 KECCAK256 SLOAD PUSH1 0x2 SUB PUSH2 0x1B08 JUMPI PUSH2 0x1B08 DUP3 DUP3 PUSH2 0x1B0C JUMP JUMPDEST POP POP JUMP JUMPDEST PUSH0 DUP3 DUP2 MSTORE PUSH1 0x5 PUSH1 0x20 MSTORE PUSH1 0x40 SWAP1 KECCAK256 PUSH1 0x1 ADD SLOAD PUSH1 0x1 PUSH1 0x1 PUSH1 0xA0 SHL SUB AND CALLER EQ DUP1 PUSH2 0x1B48 JUMPI POP PUSH0 DUP3 DUP2 MSTORE PUSH1 0x5 PUSH1 0x20 MSTORE PUSH1 0x40 SWAP1 KECCAK256 SLOAD PUSH1 0x1 PUSH1 0x1 PUSH1 0xA0 SHL SUB AND CALLER EQ JUMPDEST PUSH2 0x1BA0 JUMPI PUSH1 0x40 MLOAD PUSH3 0x461BCD PUSH1 0xE5 SHL DUP2 MSTORE PUSH1 0x20 PUSH1 0x4 DUP3 ADD MSTORE PUSH1 0x24 DUP1 DUP3 ADD MSTORE PUSH32 0x596F7520617265206E6F7420616C6C6F77656420746F20736574206D6964646C PUSH1 0x44 DUP3 ADD MSTORE PUSH4 0x32B6B0B7 PUSH1 0xE1 SHL PUSH1 0x64 DUP3 ADD MSTORE PUSH1 0x84 ADD PUSH2 0x623 JUMP JUMPDEST PUSH0 DUP3 DUP2 MSTORE PUSH1 0x5 PUSH1 0x20 MSTORE PUSH1 0x40 DUP2 KECCAK256 PUSH1 0x4 ADD DUP1 SLOAD SWAP2 PUSH2 0x1BBC DUP4 PUSH2 0x1EFB JUMP JUMPDEST SWAP1 SWAP2 SSTORE POP POP PUSH0 DUP3 DUP2 MSTORE PUSH1 0xA PUSH1 0x20 SWAP1 DUP2 MSTORE PUSH1 0x40 DUP1 DUP4 KECCAK256 PUSH1 0x5 DUP1 DUP5 MSTORE DUP3 DUP6 KECCAK256 PUSH1 0x4 DUP2 ADD SLOAD DUP7 MSTORE SWAP2 DUP5 MSTORE DUP3 DUP6 KECCAK256 DUP1 SLOAD PUSH1 0x1 PUSH1 0x1 PUSH1 0xA0 SHL SUB NOT AND PUSH1 0x1 PUSH1 0x1 PUSH1 0xA0 SHL SUB DUP9 AND OR SWAP1 SSTORE SWAP4 DUP7 SWAP1 MSTORE SWAP3 SWAP1 SWAP2 MSTORE MLOAD PUSH32 0xA5BBDA7FA17282C4725E052AE921AA2682773044AEE6155C8EBA5622F7800C09 SWAP2 PUSH2 0xCD7 SWAP2 DUP5 SWAP1 PUSH2 0x211B JUMP JUMPDEST PUSH1 0x40 DUP1 MLOAD PUSH2 0x120 DUP2 ADD DUP3 MSTORE PUSH0 DUP1 DUP3 MSTORE PUSH1 0x20 DUP3 ADD DUP2 SWAP1 MSTORE SWAP2 DUP2 ADD DUP3 SWAP1 MSTORE PUSH1 0x60 DUP2 ADD DUP3 SWAP1 MSTORE PUSH1 0x80 DUP2 ADD DUP3 SWAP1 MSTORE PUSH1 0xA0 DUP2 ADD DUP3 SWAP1 MSTORE PUSH1 0xC0 DUP2 ADD DUP3 SWAP1 MSTORE PUSH1 0xE0 DUP2 ADD DUP3 SWAP1 MSTORE PUSH2 0x100 DUP2 ADD SWAP2 SWAP1 SWAP2 MSTORE SWAP1 JUMP JUMPDEST PUSH0 DUP1 PUSH1 0x40 DUP4 DUP6 SUB SLT ISZERO PUSH2 0x1C91 JUMPI PUSH0 DUP1 REVERT JUMPDEST POP POP DUP1 CALLDATALOAD SWAP3 PUSH1 0x20 SWAP1 SWAP2 ADD CALLDATALOAD SWAP2 POP JUMP JUMPDEST PUSH0 DUP1 PUSH0 PUSH1 0x60 DUP5 DUP7 SUB SLT ISZERO PUSH2 0x1CB2 JUMPI PUSH0 DUP1 REVERT JUMPDEST POP POP DUP2 CALLDATALOAD SWAP4 PUSH1 0x20 DUP4 ADD CALLDATALOAD SWAP4 POP PUSH1 0x40 SWAP1 SWAP3 ADD CALLDATALOAD SWAP2 SWAP1 POP JUMP JUMPDEST PUSH0 PUSH1 0x20 DUP3 DUP5 SUB SLT ISZERO PUSH2 0x1CD9 JUMPI PUSH0 DUP1 REVERT JUMPDEST POP CALLDATALOAD SWAP2 SWAP1 POP JUMP JUMPDEST DUP2 MLOAD PUSH1 0x1 PUSH1 0x1 PUSH1 0xA0 SHL SUB SWAP1 DUP2 AND DUP3 MSTORE PUSH1 0x20 DUP1 DUP5 ADD MLOAD DUP3 AND SWAP1 DUP4 ADD MSTORE PUSH1 0x40 DUP1 DUP5 ADD MLOAD SWAP2 DUP3 AND SWAP1 DUP4 ADD MSTORE PUSH2 0x120 DUP3 ADD SWAP1 POP PUSH1 0x60 DUP4 ADD MLOAD PUSH1 0x60 DUP4 ADD MSTORE PUSH1 0x80 DUP4 ADD MLOAD PUSH1 0x80 DUP4 ADD MSTORE PUSH1 0xA0 DUP4 ADD MLOAD PUSH2 0x1D36 PUSH1 0xA0 DUP5 ADD DUP3 ISZERO ISZERO SWAP1 MSTORE JUMP JUMPDEST POP PUSH1 0xC0 DUP4 ADD MLOAD PUSH2 0x1D4A PUSH1 0xC0 DUP5 ADD DUP3 ISZERO ISZERO SWAP1 MSTORE JUMP JUMPDEST POP PUSH1 0xE0 DUP4 ADD MLOAD PUSH2 0x1D5E PUSH1 0xE0 DUP5 ADD DUP3 ISZERO ISZERO SWAP1 MSTORE JUMP JUMPDEST POP PUSH2 0x100 DUP4 ADD MLOAD PUSH2 0x1D74 PUSH2 0x100 DUP5 ADD DUP3 ISZERO ISZERO SWAP1 MSTORE JUMP JUMPDEST POP SWAP3 SWAP2 POP POP JUMP JUMPDEST DUP1 CALLDATALOAD PUSH1 0x1 PUSH1 0x1 PUSH1 0xA0 SHL SUB DUP2 AND DUP2 EQ PUSH2 0x1D91 JUMPI PUSH0 DUP1 REVERT JUMPDEST SWAP2 SWAP1 POP JUMP JUMPDEST PUSH0 DUP1 PUSH1 0x40 DUP4 DUP6 SUB SLT ISZERO PUSH2 0x1DA7 JUMPI PUSH0 DUP1 REVERT JUMPDEST DUP3 CALLDATALOAD SWAP2 POP PUSH2 0x1DB7 PUSH1 0x20 DUP5 ADD PUSH2 0x1D7B JUMP JUMPDEST SWAP1 POP SWAP3 POP SWAP3 SWAP1 POP JUMP JUMPDEST DUP1 CALLDATALOAD DUP1 ISZERO ISZERO DUP2 EQ PUSH2 0x1D91 JUMPI PUSH0 DUP1 REVERT JUMPDEST PUSH0 DUP1 PUSH0 PUSH1 0x60 DUP5 DUP7 SUB SLT ISZERO PUSH2 0x1DE1 JUMPI PUSH0 DUP1 REVERT JUMPDEST PUSH2 0x1DEA DUP5 PUSH2 0x1DC0 JUMP JUMPDEST SWAP3 POP PUSH2 0x1DF8 PUSH1 0x20 DUP6 ADD PUSH2 0x1DC0 JUMP JUMPDEST SWAP2 POP PUSH2 0x1E06 PUSH1 0x40 DUP6 ADD PUSH2 0x1DC0 JUMP JUMPDEST SWAP1 POP SWAP3 POP SWAP3 POP SWAP3 JUMP JUMPDEST PUSH0 PUSH1 0x20 DUP3 DUP5 SUB SLT ISZERO PUSH2 0x1E1F JUMPI PUSH0 DUP1 REVERT JUMPDEST PUSH2 0x1E28 DUP3 PUSH2 0x1D7B JUMP JUMPDEST SWAP4 SWAP3 POP POP POP JUMP JUMPDEST PUSH1 0x20 DUP1 DUP3 MSTORE PUSH1 0x25 SWAP1 DUP3 ADD MSTORE PUSH32 0x596F75206E65656420746F20626520616E20656D706C6F79657220746F20646F PUSH1 0x40 DUP3 ADD MSTORE PUSH5 0x81D1A185D PUSH1 0xDA SHL PUSH1 0x60 DUP3 ADD MSTORE PUSH1 0x80 ADD SWAP1 JUMP JUMPDEST PUSH1 0x20 DUP1 DUP3 MSTORE PUSH1 0x25 SWAP1 DUP3 ADD MSTORE PUSH32 0x596F7520617265206E6F742074686520656D706C6F796572206F662074686973 PUSH1 0x40 DUP3 ADD MSTORE PUSH5 0x20776F726B PUSH1 0xD8 SHL PUSH1 0x60 DUP3 ADD MSTORE PUSH1 0x80 ADD SWAP1 JUMP JUMPDEST PUSH1 0x20 DUP1 DUP3 MSTORE PUSH1 0x14 SWAP1 DUP3 ADD MSTORE PUSH20 0x2A3434B9903A30B9B59034B9903737BB9037B333 PUSH1 0x61 SHL PUSH1 0x40 DUP3 ADD MSTORE PUSH1 0x60 ADD SWAP1 JUMP JUMPDEST PUSH4 0x4E487B71 PUSH1 0xE0 SHL PUSH0 MSTORE PUSH1 0x11 PUSH1 0x4 MSTORE PUSH1 0x24 PUSH0 REVERT JUMPDEST PUSH0 PUSH1 0x1 DUP3 ADD PUSH2 0x1F0C JUMPI PUSH2 0x1F0C PUSH2 0x1EE7 JUMP JUMPDEST POP PUSH1 0x1 ADD SWAP1 JUMP JUMPDEST PUSH1 0x20 DUP1 DUP3 MSTORE PUSH1 0x2B SWAP1 DUP3 ADD MSTORE PUSH32 0x596F7520617265206E6F7420616C6C6F77656420746F207265736F6C76652074 PUSH1 0x40 DUP3 ADD MSTORE PUSH11 0x6869732064697370757465 PUSH1 0xA8 SHL PUSH1 0x60 DUP3 ADD MSTORE PUSH1 0x80 ADD SWAP1 JUMP JUMPDEST PUSH1 0x20 DUP1 DUP3 MSTORE PUSH1 0x2B SWAP1 DUP3 ADD MSTORE PUSH32 0x5468657265206973206E6F206469737075746520726169656420696E20746869 PUSH1 0x40 DUP3 ADD MSTORE PUSH11 0x1CC81859DC99595B595B9D PUSH1 0xAA SHL PUSH1 0x60 DUP3 ADD MSTORE PUSH1 0x80 ADD SWAP1 JUMP JUMPDEST DUP1 DUP3 ADD DUP1 DUP3 GT ISZERO PUSH2 0xAB5 JUMPI PUSH2 0xAB5 PUSH2 0x1EE7 JUMP JUMPDEST DUP1 DUP3 MUL DUP2 ISZERO DUP3 DUP3 DIV DUP5 EQ OR PUSH2 0xAB5 JUMPI PUSH2 0xAB5 PUSH2 0x1EE7 JUMP JUMPDEST PUSH0 DUP3 PUSH2 0x1FED JUMPI PUSH4 0x4E487B71 PUSH1 0xE0 SHL PUSH0 MSTORE PUSH1 0x12 PUSH1 0x4 MSTORE PUSH1 0x24 PUSH0 REVERT JUMPDEST POP DIV SWAP1 JUMP JUMPDEST DUP2 DUP2 SUB DUP2 DUP2 GT ISZERO PUSH2 0xAB5 JUMPI PUSH2 0xAB5 PUSH2 0x1EE7 JUMP JUMPDEST PUSH2 0x2027 DUP3 PUSH2 0x201A DUP4 SLOAD PUSH1 0x1 PUSH1 0x1 PUSH1 0xA0 SHL SUB AND SWAP1 JUMP JUMPDEST PUSH1 0x1 PUSH1 0x1 PUSH1 0xA0 SHL SUB AND SWAP1 MSTORE JUMP JUMPDEST PUSH1 0x1 DUP2 ADD SLOAD PUSH1 0x1 PUSH1 0x1 PUSH1 0xA0 SHL SUB SWAP1 DUP2 AND PUSH1 0x20 DUP5 ADD MSTORE PUSH1 0x2 DUP3 ADD SLOAD AND PUSH1 0x40 DUP4 ADD MSTORE PUSH1 0x3 DUP2 ADD SLOAD PUSH1 0x60 DUP4 ADD MSTORE PUSH1 0x4 DUP2 ADD SLOAD PUSH1 0x80 DUP4 ADD MSTORE PUSH1 0x5 DUP2 ADD SLOAD PUSH1 0xFF DUP1 DUP3 AND ISZERO ISZERO PUSH1 0xA0 DUP6 ADD MSTORE PUSH1 0x8 DUP3 SWAP1 SHR AND ISZERO ISZERO PUSH1 0xC0 DUP5 ADD MSTORE PUSH2 0x208D PUSH1 0xE0 DUP5 ADD PUSH1 0xFF DUP4 PUSH1 0x10 SHR AND ISZERO ISZERO SWAP1 MSTORE JUMP JUMPDEST PUSH2 0x20A2 PUSH2 0x100 DUP5 ADD PUSH1 0xFF DUP4 PUSH1 0x18 SHR AND ISZERO ISZERO SWAP1 MSTORE JUMP JUMPDEST POP POP POP JUMP JUMPDEST PUSH2 0x120 DUP2 ADD PUSH2 0xAB5 DUP3 DUP5 PUSH2 0x2005 JUMP JUMPDEST DUP2 SLOAD PUSH1 0x1 PUSH1 0x1 PUSH1 0xA0 SHL SUB AND DUP2 MSTORE PUSH1 0x1 DUP3 ADD SLOAD PUSH1 0x20 DUP3 ADD MSTORE PUSH1 0x2 DUP3 ADD SLOAD PUSH1 0x40 DUP3 ADD MSTORE PUSH1 0x3 SWAP1 SWAP2 ADD SLOAD PUSH1 0xFF AND ISZERO ISZERO PUSH1 0x60 DUP3 ADD MSTORE PUSH1 0x80 ADD SWAP1 JUMP JUMPDEST PUSH1 0x1 PUSH1 0x1 PUSH1 0xA0 SHL SUB DUP5 DUP2 AND DUP3 MSTORE DUP4 AND PUSH1 0x20 DUP3 ADD MSTORE PUSH2 0x160 DUP2 ADD PUSH2 0x2113 PUSH1 0x40 DUP4 ADD DUP5 PUSH2 0x2005 JUMP JUMPDEST SWAP5 SWAP4 POP POP POP POP JUMP JUMPDEST PUSH2 0x140 DUP2 ADD PUSH2 0x212A DUP3 DUP6 PUSH2 0x2005 JUMP JUMPDEST PUSH1 0x1 PUSH1 0x1 PUSH1 0xA0 SHL SUB SWAP3 SWAP1 SWAP3 AND PUSH2 0x120 SWAP2 SWAP1 SWAP2 ADD MSTORE SWAP2 SWAP1 POP JUMP INVALID LOG2 PUSH5 0x6970667358 0x22 SLT KECCAK256 PUSH19 0xF2899153076180102134667AD70884A57BAC2 PC SWAP5 0x23 DUP6 MLOAD 0xEB 0x2C 0x24 0x4F 0xC0 0xB8 PUSH2 0x6473 PUSH16 0x6C634300081A00330000000000000000 "
				},
				"gasEstimates": {
					"creation": {
						"codeDepositCost": "1713800",
						"executionCost": "26032",
						"totalCost": "1739832"
					},
					"external": {
						"": "206",
						"AIaddress()": "2426",
						"agreements(uint256)": "13404",
						"applyOfferedWork(uint256)": "66401",
						"balanceRecieved()": "2304",
						"deleteWork(uint256)": "infinite",
						"getAccount(address)": "3058",
						"getAgreement(uint256)": "13967",
						"getAskedMiddleman(uint256,uint256)": "2701",
						"getCandidates(uint256,uint256)": "4921",
						"getMiddleman(uint256)": "2612",
						"middleManValidate(uint256,uint256)": "43121",
						"newAccount(bool,bool,bool)": "infinite",
						"numOfAgreements()": "2349",
						"numOfOfferedWorks()": "2351",
						"offerWork()": "131301",
						"offeredWorks(uint256)": "8936",
						"raiseDispute(uint256)": "45508",
						"reqruitEmployee(uint256,uint256)": "190650",
						"resolveDispluteAI(uint256,address)": "infinite",
						"resolveDispluteMiddleman(uint256,uint256,uint256)": "infinite",
						"setEmployeeDone(uint256)": "27916",
						"setEmployerValidate(uint256)": "infinite",
						"suggestMiddleman(uint256,address)": "infinite"
					},
					"internal": {
						"askMiddleman(uint256,address)": "infinite"
					}
				},
				"methodIdentifiers": {
					"AIaddress()": "1cefaf22",
					"agreements(uint256)": "bd14de96",
					"applyOfferedWork(uint256)": "88945938",
					"balanceRecieved()": "d4c06b8d",
					"deleteWork(uint256)": "8589c725",
					"getAccount(address)": "fbcbc0f1",
					"getAgreement(uint256)": "4f9f6fe6",
					"getAskedMiddleman(uint256,uint256)": "3d6b56e9",
					"getCandidates(uint256,uint256)": "a151bc22",
					"getMiddleman(uint256)": "ff69d8df",
					"middleManValidate(uint256,uint256)": "cf3b8fc7",
					"newAccount(bool,bool,bool)": "c0d58835",
					"numOfAgreements()": "ef32fc51",
					"numOfOfferedWorks()": "0fe629ee",
					"offerWork()": "880b5212",
					"offeredWorks(uint256)": "5ec448c7",
					"raiseDispute(uint256)": "a5c1674e",
					"reqruitEmployee(uint256,uint256)": "04bf66c6",
					"resolveDispluteAI(uint256,address)": "b1ae266b",
					"resolveDispluteMiddleman(uint256,uint256,uint256)": "0de37bf6",
					"setEmployeeDone(uint256)": "c7a488a1",
					"setEmployerValidate(uint256)": "e43caa91",
					"suggestMiddleman(uint256,address)": "ff4db898"
				}
			},
			"storageLayout": {
				"storage": [
					{
						"astId": 3,
						"contract": "Contracts/Hackathon.sol:ChainLance",
						"label": "balanceRecieved",
						"offset": 0,
						"slot": "0",
						"type": "t_uint256"
					},
					{
						"astId": 5,
						"contract": "Contracts/Hackathon.sol:ChainLance",
						"label": "AIaddress",
						"offset": 0,
						"slot": "1",
						"type": "t_address_payable"
					},
					{
						"astId": 7,
						"contract": "Contracts/Hackathon.sol:ChainLance",
						"label": "numOfAgreements",
						"offset": 0,
						"slot": "2",
						"type": "t_uint256"
					},
					{
						"astId": 9,
						"contract": "Contracts/Hackathon.sol:ChainLance",
						"label": "numOfOfferedWorks",
						"offset": 0,
						"slot": "3",
						"type": "t_uint256"
					},
					{
						"astId": 14,
						"contract": "Contracts/Hackathon.sol:ChainLance",
						"label": "offeredWorks",
						"offset": 0,
						"slot": "4",
						"type": "t_mapping(t_uint256,t_struct(OfferedWork)157_storage)"
					},
					{
						"astId": 19,
						"contract": "Contracts/Hackathon.sol:ChainLance",
						"label": "agreements",
						"offset": 0,
						"slot": "5",
						"type": "t_mapping(t_uint256,t_struct(Agreement)176_storage)"
					},
					{
						"astId": 25,
						"contract": "Contracts/Hackathon.sol:ChainLance",
						"label": "candidates",
						"offset": 0,
						"slot": "6",
						"type": "t_mapping(t_uint256,t_mapping(t_uint256,t_address))"
					},
					{
						"astId": 30,
						"contract": "Contracts/Hackathon.sol:ChainLance",
						"label": "accounts",
						"offset": 0,
						"slot": "7",
						"type": "t_mapping(t_address,t_struct(Account)148_storage)"
					},
					{
						"astId": 38,
						"contract": "Contracts/Hackathon.sol:ChainLance",
						"label": "middleManVotePool",
						"offset": 0,
						"slot": "8",
						"type": "t_mapping(t_uint256,t_mapping(t_address,t_mapping(t_address,t_bool)))"
					},
					{
						"astId": 44,
						"contract": "Contracts/Hackathon.sol:ChainLance",
						"label": "middleManVoteNumber",
						"offset": 0,
						"slot": "9",
						"type": "t_mapping(t_uint256,t_mapping(t_address,t_uint256))"
					},
					{
						"astId": 50,
						"contract": "Contracts/Hackathon.sol:ChainLance",
						"label": "askedMiddlemans",
						"offset": 0,
						"slot": "10",
						"type": "t_mapping(t_uint256,t_mapping(t_uint256,t_address))"
					}
				],
				"types": {
					"t_address": {
						"encoding": "inplace",
						"label": "address",
						"numberOfBytes": "20"
					},
					"t_address_payable": {
						"encoding": "inplace",
						"label": "address payable",
						"numberOfBytes": "20"
					},
					"t_bool": {
						"encoding": "inplace",
						"label": "bool",
						"numberOfBytes": "1"
					},
					"t_mapping(t_address,t_bool)": {
						"encoding": "mapping",
						"key": "t_address",
						"label": "mapping(address => bool)",
						"numberOfBytes": "32",
						"value": "t_bool"
					},
					"t_mapping(t_address,t_mapping(t_address,t_bool))": {
						"encoding": "mapping",
						"key": "t_address",
						"label": "mapping(address => mapping(address => bool))",
						"numberOfBytes": "32",
						"value": "t_mapping(t_address,t_bool)"
					},
					"t_mapping(t_address,t_struct(Account)148_storage)": {
						"encoding": "mapping",
						"key": "t_address",
						"label": "mapping(address => struct ChainLance.Account)",
						"numberOfBytes": "32",
						"value": "t_struct(Account)148_storage"
					},
					"t_mapping(t_address,t_uint256)": {
						"encoding": "mapping",
						"key": "t_address",
						"label": "mapping(address => uint256)",
						"numberOfBytes": "32",
						"value": "t_uint256"
					},
					"t_mapping(t_uint256,t_address)": {
						"encoding": "mapping",
						"key": "t_uint256",
						"label": "mapping(uint256 => address)",
						"numberOfBytes": "32",
						"value": "t_address"
					},
					"t_mapping(t_uint256,t_mapping(t_address,t_mapping(t_address,t_bool)))": {
						"encoding": "mapping",
						"key": "t_uint256",
						"label": "mapping(uint256 => mapping(address => mapping(address => bool)))",
						"numberOfBytes": "32",
						"value": "t_mapping(t_address,t_mapping(t_address,t_bool))"
					},
					"t_mapping(t_uint256,t_mapping(t_address,t_uint256))": {
						"encoding": "mapping",
						"key": "t_uint256",
						"label": "mapping(uint256 => mapping(address => uint256))",
						"numberOfBytes": "32",
						"value": "t_mapping(t_address,t_uint256)"
					},
					"t_mapping(t_uint256,t_mapping(t_uint256,t_address))": {
						"encoding": "mapping",
						"key": "t_uint256",
						"label": "mapping(uint256 => mapping(uint256 => address))",
						"numberOfBytes": "32",
						"value": "t_mapping(t_uint256,t_address)"
					},
					"t_mapping(t_uint256,t_struct(Agreement)176_storage)": {
						"encoding": "mapping",
						"key": "t_uint256",
						"label": "mapping(uint256 => struct ChainLance.Agreement)",
						"numberOfBytes": "32",
						"value": "t_struct(Agreement)176_storage"
					},
					"t_mapping(t_uint256,t_struct(OfferedWork)157_storage)": {
						"encoding": "mapping",
						"key": "t_uint256",
						"label": "mapping(uint256 => struct ChainLance.OfferedWork)",
						"numberOfBytes": "32",
						"value": "t_struct(OfferedWork)157_storage"
					},
					"t_struct(Account)148_storage": {
						"encoding": "inplace",
						"label": "struct ChainLance.Account",
						"members": [
							{
								"astId": 141,
								"contract": "Contracts/Hackathon.sol:ChainLance",
								"label": "isEmployer",
								"offset": 0,
								"slot": "0",
								"type": "t_bool"
							},
							{
								"astId": 143,
								"contract": "Contracts/Hackathon.sol:ChainLance",
								"label": "isEmployee",
								"offset": 1,
								"slot": "0",
								"type": "t_bool"
							},
							{
								"astId": 145,
								"contract": "Contracts/Hackathon.sol:ChainLance",
								"label": "isMiddleman",
								"offset": 2,
								"slot": "0",
								"type": "t_bool"
							},
							{
								"astId": 147,
								"contract": "Contracts/Hackathon.sol:ChainLance",
								"label": "registered",
								"offset": 3,
								"slot": "0",
								"type": "t_bool"
							}
						],
						"numberOfBytes": "32"
					},
					"t_struct(Agreement)176_storage": {
						"encoding": "inplace",
						"label": "struct ChainLance.Agreement",
						"members": [
							{
								"astId": 159,
								"contract": "Contracts/Hackathon.sol:ChainLance",
								"label": "employer",
								"offset": 0,
								"slot": "0",
								"type": "t_address"
							},
							{
								"astId": 161,
								"contract": "Contracts/Hackathon.sol:ChainLance",
								"label": "employee",
								"offset": 0,
								"slot": "1",
								"type": "t_address"
							},
							{
								"astId": 163,
								"contract": "Contracts/Hackathon.sol:ChainLance",
								"label": "middleman",
								"offset": 0,
								"slot": "2",
								"type": "t_address"
							},
							{
								"astId": 165,
								"contract": "Contracts/Hackathon.sol:ChainLance",
								"label": "amountForEmployee",
								"offset": 0,
								"slot": "3",
								"type": "t_uint256"
							},
							{
								"astId": 167,
								"contract": "Contracts/Hackathon.sol:ChainLance",
								"label": "askedMiddlemanNumber",
								"offset": 0,
								"slot": "4",
								"type": "t_uint256"
							},
							{
								"astId": 169,
								"contract": "Contracts/Hackathon.sol:ChainLance",
								"label": "employeeDone",
								"offset": 0,
								"slot": "5",
								"type": "t_bool"
							},
							{
								"astId": 171,
								"contract": "Contracts/Hackathon.sol:ChainLance",
								"label": "employerValidate",
								"offset": 1,
								"slot": "5",
								"type": "t_bool"
							},
							{
								"astId": 173,
								"contract": "Contracts/Hackathon.sol:ChainLance",
								"label": "disputeRaised",
								"offset": 2,
								"slot": "5",
								"type": "t_bool"
							},
							{
								"astId": 175,
								"contract": "Contracts/Hackathon.sol:ChainLance",
								"label": "resolveCheck",
								"offset": 3,
								"slot": "5",
								"type": "t_bool"
							}
						],
						"numberOfBytes": "192"
					},
					"t_struct(OfferedWork)157_storage": {
						"encoding": "inplace",
						"label": "struct ChainLance.OfferedWork",
						"members": [
							{
								"astId": 150,
								"contract": "Contracts/Hackathon.sol:ChainLance",
								"label": "employer",
								"offset": 0,
								"slot": "0",
								"type": "t_address"
							},
							{
								"astId": 152,
								"contract": "Contracts/Hackathon.sol:ChainLance",
								"label": "numOfCandidates",
								"offset": 0,
								"slot": "1",
								"type": "t_uint256"
							},
							{
								"astId": 154,
								"contract": "Contracts/Hackathon.sol:ChainLance",
								"label": "amountToStake",
								"offset": 0,
								"slot": "2",
								"type": "t_uint256"
							},
							{
								"astId": 156,
								"contract": "Contracts/Hackathon.sol:ChainLance",
								"label": "isSealed",
								"offset": 0,
								"slot": "3",
								"type": "t_bool"
							}
						],
						"numberOfBytes": "128"
					},
					"t_uint256": {
						"encoding": "inplace",
						"label": "uint256",
						"numberOfBytes": "32"
					}
				}
			},
			"userdoc": {
				"kind": "user",
				"methods": {},
				"version": 1
			}
		}
	}
}