{
	"Contracts/SmartWallet.sol": {
		"SmartContractWallet": {
			"abi": [
				{
					"inputs": [],
					"stateMutability": "nonpayable",
					"type": "constructor"
				},
				{
					"inputs": [
						{
							"internalType": "address payable",
							"name": "to_",
							"type": "address"
						},
						{
							"internalType": "uint256",
							"name": "amount_",
							"type": "uint256"
						},
						{
							"internalType": "bytes",
							"name": "payload",
							"type": "bytes"
						}
					],
					"name": "Transfer",
					"outputs": [
						{
							"internalType": "bytes",
							"name": "",
							"type": "bytes"
						}
					],
					"stateMutability": "nonpayable",
					"type": "function"
				},
				{
					"inputs": [
						{
							"internalType": "address",
							"name": "",
							"type": "address"
						}
					],
					"name": "allowance",
					"outputs": [
						{
							"internalType": "uint256",
							"name": "",
							"type": "uint256"
						}
					],
					"stateMutability": "view",
					"type": "function"
				},
				{
					"inputs": [],
					"name": "confirmationFromGuardiansForReset",
					"outputs": [
						{
							"internalType": "uint256",
							"name": "",
							"type": "uint256"
						}
					],
					"stateMutability": "view",
					"type": "function"
				},
				{
					"inputs": [
						{
							"internalType": "address",
							"name": "",
							"type": "address"
						}
					],
					"name": "guardians",
					"outputs": [
						{
							"internalType": "bool",
							"name": "",
							"type": "bool"
						}
					],
					"stateMutability": "view",
					"type": "function"
				},
				{
					"inputs": [
						{
							"internalType": "address",
							"name": "",
							"type": "address"
						}
					],
					"name": "isAllowedToSend",
					"outputs": [
						{
							"internalType": "bool",
							"name": "",
							"type": "bool"
						}
					],
					"stateMutability": "view",
					"type": "function"
				},
				{
					"inputs": [],
					"name": "owner",
					"outputs": [
						{
							"internalType": "address payable",
							"name": "",
							"type": "address"
						}
					],
					"stateMutability": "view",
					"type": "function"
				},
				{
					"inputs": [
						{
							"internalType": "address payable",
							"name": "newOwner_",
							"type": "address"
						}
					],
					"name": "proposeNewOwner",
					"outputs": [],
					"stateMutability": "nonpayable",
					"type": "function"
				},
				{
					"inputs": [
						{
							"internalType": "address",
							"name": "for_",
							"type": "address"
						},
						{
							"internalType": "uint256",
							"name": "amount_",
							"type": "uint256"
						}
					],
					"name": "setAllowance",
					"outputs": [],
					"stateMutability": "nonpayable",
					"type": "function"
				},
				{
					"inputs": [
						{
							"internalType": "address",
							"name": "guardian_",
							"type": "address"
						},
						{
							"internalType": "bool",
							"name": "isGuardian",
							"type": "bool"
						}
					],
					"name": "setGuardian",
					"outputs": [],
					"stateMutability": "nonpayable",
					"type": "function"
				},
				{
					"stateMutability": "payable",
					"type": "receive"
				}
			],
			"devdoc": {
				"kind": "dev",
				"methods": {},
				"version": 1
			},
			"evm": {
				"assembly": "    /* \"Contracts/SmartWallet.sol\":459:2900  contract SmartContractWallet {... */\n  mstore(0x40, 0x80)\n    /* \"Contracts/SmartWallet.sol\":897:957  constructor() {... */\n  callvalue\n  dup1\n  iszero\n  tag_1\n  jumpi\n  0x00\n  dup1\n  revert\ntag_1:\n  pop\n    /* \"Contracts/SmartWallet.sol\":922:927  owner */\n  0x00\n    /* \"Contracts/SmartWallet.sol\":922:949  owner = payable(msg.sender) */\n  dup1\n  sload\n  not(sub(shl(0xa0, 0x01), 0x01))\n  and\n    /* \"Contracts/SmartWallet.sol\":938:948  msg.sender */\n  caller\n    /* \"Contracts/SmartWallet.sol\":922:949  owner = payable(msg.sender) */\n  or\n  swap1\n  sstore\n    /* \"Contracts/SmartWallet.sol\":459:2900  contract SmartContractWallet {... */\n  dataSize(sub_0)\n  dup1\n  dataOffset(sub_0)\n  0x00\n  codecopy\n  0x00\n  return\nstop\n\nsub_0: assembly {\n        /* \"Contracts/SmartWallet.sol\":459:2900  contract SmartContractWallet {... */\n      mstore(0x40, 0x80)\n      jumpi(tag_1, lt(calldatasize, 0x04))\n      shr(0xe0, calldataload(0x00))\n      dup1\n      0x3e5beab9\n      gt\n      tag_12\n      jumpi\n      dup1\n      0x3e5beab9\n      eq\n      tag_7\n      jumpi\n      dup1\n      0x58e404b1\n      eq\n      tag_8\n      jumpi\n      dup1\n      0x850a6919\n      eq\n      tag_9\n      jumpi\n      dup1\n      0x8da5cb5b\n      eq\n      tag_10\n      jumpi\n      dup1\n      0xb1f8100d\n      eq\n      tag_11\n      jumpi\n      0x00\n      dup1\n      revert\n    tag_12:\n      dup1\n      0x0633b14a\n      eq\n      tag_3\n      jumpi\n      dup1\n      0x0bc605ad\n      eq\n      tag_4\n      jumpi\n      dup1\n      0x2b8a1c5a\n      eq\n      tag_5\n      jumpi\n      dup1\n      0x310ec4a7\n      eq\n      tag_6\n      jumpi\n      0x00\n      dup1\n      revert\n    tag_1:\n      jumpi(tag_2, calldatasize)\n      stop\n    tag_2:\n      0x00\n      dup1\n      revert\n        /* \"Contracts/SmartWallet.sol\":638:680  mapping (address => bool) public guardians */\n    tag_3:\n      callvalue\n      dup1\n      iszero\n      tag_15\n      jumpi\n      0x00\n      dup1\n      revert\n    tag_15:\n      pop\n      tag_16\n      tag_17\n      calldatasize\n      0x04\n      tag_18\n      jump\t// in\n    tag_17:\n      mstore(0x20, 0x03)\n      0x00\n      swap1\n      dup2\n      mstore\n      0x40\n      swap1\n      keccak256\n      sload\n      0xff\n      and\n      dup2\n      jump\n    tag_16:\n      mload(0x40)\n        /* \"#utility.yul\":567:581   */\n      swap1\n      iszero\n        /* \"#utility.yul\":560:582   */\n      iszero\n        /* \"#utility.yul\":542:583   */\n      dup2\n      mstore\n        /* \"#utility.yul\":530:532   */\n      0x20\n        /* \"#utility.yul\":515:533   */\n      add\n        /* \"Contracts/SmartWallet.sol\":638:680  mapping (address => bool) public guardians */\n    tag_20:\n      mload(0x40)\n      dup1\n      swap2\n      sub\n      swap1\n      return\n        /* \"Contracts/SmartWallet.sol\":583:631  mapping (address => bool) public isAllowedToSend */\n    tag_4:\n      callvalue\n      dup1\n      iszero\n      tag_22\n      jumpi\n      0x00\n      dup1\n      revert\n    tag_22:\n      pop\n      tag_16\n      tag_24\n      calldatasize\n      0x04\n      tag_18\n      jump\t// in\n    tag_24:\n      mstore(0x20, 0x02)\n      0x00\n      swap1\n      dup2\n      mstore\n      0x40\n      swap1\n      keccak256\n      sload\n      0xff\n      and\n      dup2\n      jump\n        /* \"Contracts/SmartWallet.sol\":965:1156  function setGuardian(address guardian_, bool isGuardian) public {... */\n    tag_5:\n      callvalue\n      dup1\n      iszero\n      tag_27\n      jumpi\n      0x00\n      dup1\n      revert\n    tag_27:\n      pop\n      tag_28\n      tag_29\n      calldatasize\n      0x04\n      tag_30\n      jump\t// in\n    tag_29:\n      tag_31\n      jump\t// in\n    tag_28:\n      stop\n        /* \"Contracts/SmartWallet.sol\":1760:2082  function setAllowance(address for_, uint amount_) public {... */\n    tag_6:\n      callvalue\n      dup1\n      iszero\n      tag_32\n      jumpi\n      0x00\n      dup1\n      revert\n    tag_32:\n      pop\n      tag_28\n      tag_34\n      calldatasize\n      0x04\n      tag_35\n      jump\t// in\n    tag_34:\n      tag_36\n      jump\t// in\n        /* \"Contracts/SmartWallet.sol\":534:576  mapping (address => uint) public allowance */\n    tag_7:\n      callvalue\n      dup1\n      iszero\n      tag_37\n      jumpi\n      0x00\n      dup1\n      revert\n    tag_37:\n      pop\n      tag_38\n      tag_39\n      calldatasize\n      0x04\n      tag_18\n      jump\t// in\n    tag_39:\n      mstore(0x20, 0x01)\n      0x00\n      swap1\n      dup2\n      mstore\n      0x40\n      swap1\n      keccak256\n      sload\n      dup2\n      jump\n    tag_38:\n      mload(0x40)\n        /* \"#utility.yul\":1533:1558   */\n      swap1\n      dup2\n      mstore\n        /* \"#utility.yul\":1521:1523   */\n      0x20\n        /* \"#utility.yul\":1506:1524   */\n      add\n        /* \"Contracts/SmartWallet.sol\":534:576  mapping (address => uint) public allowance */\n      tag_20\n        /* \"#utility.yul\":1387:1564   */\n      jump\n        /* \"Contracts/SmartWallet.sol\":830:888  uint public constant confirmationFromGuardiansForReset = 3 */\n    tag_8:\n      callvalue\n      dup1\n      iszero\n      tag_43\n      jumpi\n      0x00\n      dup1\n      revert\n    tag_43:\n      pop\n      tag_38\n        /* \"Contracts/SmartWallet.sol\":887:888  3 */\n      0x03\n        /* \"Contracts/SmartWallet.sol\":830:888  uint public constant confirmationFromGuardiansForReset = 3 */\n      dup2\n      jump\n        /* \"Contracts/SmartWallet.sol\":2090:2859  function Transfer(address payable to_, uint amount_, bytes memory payload) public returns(bytes memory){... */\n    tag_9:\n      callvalue\n      dup1\n      iszero\n      tag_47\n      jumpi\n      0x00\n      dup1\n      revert\n    tag_47:\n      pop\n      tag_48\n      tag_49\n      calldatasize\n      0x04\n      tag_50\n      jump\t// in\n    tag_49:\n      tag_51\n      jump\t// in\n    tag_48:\n      mload(0x40)\n      tag_20\n      swap2\n      swap1\n      tag_53\n      jump\t// in\n        /* \"Contracts/SmartWallet.sol\":497:525  address payable public owner */\n    tag_10:\n      callvalue\n      dup1\n      iszero\n      tag_54\n      jumpi\n      0x00\n      dup1\n      revert\n    tag_54:\n      pop\n      sload(0x00)\n      tag_55\n      swap1\n      sub(shl(0xa0, 0x01), 0x01)\n      and\n      dup2\n      jump\n    tag_55:\n      mload(0x40)\n      sub(shl(0xa0, 0x01), 0x01)\n        /* \"#utility.yul\":3514:3546   */\n      swap1\n      swap2\n      and\n        /* \"#utility.yul\":3496:3547   */\n      dup2\n      mstore\n        /* \"#utility.yul\":3484:3486   */\n      0x20\n        /* \"#utility.yul\":3469:3487   */\n      add\n        /* \"Contracts/SmartWallet.sol\":497:525  address payable public owner */\n      tag_20\n        /* \"#utility.yul\":3334:3553   */\n      jump\n        /* \"Contracts/SmartWallet.sol\":1164:1752  function proposeNewOwner(address payable newOwner_) public {... */\n    tag_11:\n      callvalue\n      dup1\n      iszero\n      tag_59\n      jumpi\n      0x00\n      dup1\n      revert\n    tag_59:\n      pop\n      tag_28\n      tag_61\n      calldatasize\n      0x04\n      tag_18\n      jump\t// in\n    tag_61:\n      tag_63\n      jump\t// in\n        /* \"Contracts/SmartWallet.sol\":965:1156  function setGuardian(address guardian_, bool isGuardian) public {... */\n    tag_31:\n        /* \"Contracts/SmartWallet.sol\":1062:1067  owner */\n      and(sub(shl(0xa0, 0x01), 0x01), sload(0x00))\n        /* \"Contracts/SmartWallet.sol\":1048:1058  msg.sender */\n      caller\n        /* \"Contracts/SmartWallet.sol\":1048:1067  msg.sender == owner */\n      eq\n        /* \"Contracts/SmartWallet.sol\":1040:1104  require(msg.sender == owner, \"you are not the owner, aborting!\") */\n      tag_65\n      jumpi\n      mload(0x40)\n      shl(0xe5, 0x461bcd)\n      dup2\n      mstore\n        /* \"#utility.yul\":4020:4022   */\n      0x20\n        /* \"Contracts/SmartWallet.sol\":1040:1104  require(msg.sender == owner, \"you are not the owner, aborting!\") */\n      0x04\n      dup3\n      add\n        /* \"#utility.yul\":4002:4023   */\n      dup2\n      swap1\n      mstore\n        /* \"#utility.yul\":4039:4057   */\n      0x24\n      dup3\n      add\n        /* \"#utility.yul\":4032:4062   */\n      mstore\n        /* \"#utility.yul\":4098:4132   */\n      0x796f7520617265206e6f7420746865206f776e65722c2061626f7274696e6721\n        /* \"#utility.yul\":4078:4096   */\n      0x44\n      dup3\n      add\n        /* \"#utility.yul\":4071:4133   */\n      mstore\n        /* \"#utility.yul\":4150:4168   */\n      0x64\n      add\n        /* \"Contracts/SmartWallet.sol\":1040:1104  require(msg.sender == owner, \"you are not the owner, aborting!\") */\n    tag_66:\n      mload(0x40)\n      dup1\n      swap2\n      sub\n      swap1\n      revert\n    tag_65:\n      sub(shl(0xa0, 0x01), 0x01)\n        /* \"Contracts/SmartWallet.sol\":1115:1135  guardians[guardian_] */\n      swap2\n      swap1\n      swap2\n      and\n      0x00\n      swap1\n      dup2\n      mstore\n        /* \"Contracts/SmartWallet.sol\":1115:1124  guardians */\n      0x03\n        /* \"Contracts/SmartWallet.sol\":1115:1135  guardians[guardian_] */\n      0x20\n      mstore\n      0x40\n      swap1\n      keccak256\n        /* \"Contracts/SmartWallet.sol\":1115:1148  guardians[guardian_] = isGuardian */\n      dup1\n      sload\n      not(0xff)\n      and\n      swap2\n      iszero\n      iszero\n      swap2\n      swap1\n      swap2\n      or\n      swap1\n      sstore\n        /* \"Contracts/SmartWallet.sol\":965:1156  function setGuardian(address guardian_, bool isGuardian) public {... */\n      jump\t// out\n        /* \"Contracts/SmartWallet.sol\":1760:2082  function setAllowance(address for_, uint amount_) public {... */\n    tag_36:\n        /* \"Contracts/SmartWallet.sol\":1850:1855  owner */\n      and(sub(shl(0xa0, 0x01), 0x01), sload(0x00))\n        /* \"Contracts/SmartWallet.sol\":1836:1846  msg.sender */\n      caller\n        /* \"Contracts/SmartWallet.sol\":1836:1855  msg.sender == owner */\n      eq\n        /* \"Contracts/SmartWallet.sol\":1828:1892  require(msg.sender == owner, \"you are not the owner, aborting!\") */\n      tag_69\n      jumpi\n      mload(0x40)\n      shl(0xe5, 0x461bcd)\n      dup2\n      mstore\n        /* \"#utility.yul\":4020:4022   */\n      0x20\n        /* \"Contracts/SmartWallet.sol\":1828:1892  require(msg.sender == owner, \"you are not the owner, aborting!\") */\n      0x04\n      dup3\n      add\n        /* \"#utility.yul\":4002:4023   */\n      dup2\n      swap1\n      mstore\n        /* \"#utility.yul\":4039:4057   */\n      0x24\n      dup3\n      add\n        /* \"#utility.yul\":4032:4062   */\n      mstore\n        /* \"#utility.yul\":4098:4132   */\n      0x796f7520617265206e6f7420746865206f776e65722c2061626f7274696e6721\n        /* \"#utility.yul\":4078:4096   */\n      0x44\n      dup3\n      add\n        /* \"#utility.yul\":4071:4133   */\n      mstore\n        /* \"#utility.yul\":4150:4168   */\n      0x64\n      add\n        /* \"Contracts/SmartWallet.sol\":1828:1892  require(msg.sender == owner, \"you are not the owner, aborting!\") */\n      tag_66\n        /* \"#utility.yul\":3818:4174   */\n      jump\n        /* \"Contracts/SmartWallet.sol\":1828:1892  require(msg.sender == owner, \"you are not the owner, aborting!\") */\n    tag_69:\n      sub(shl(0xa0, 0x01), 0x01)\n        /* \"Contracts/SmartWallet.sol\":1903:1918  allowance[for_] */\n      dup3\n      and\n      0x00\n      swap1\n      dup2\n      mstore\n        /* \"Contracts/SmartWallet.sol\":1903:1912  allowance */\n      0x01\n        /* \"Contracts/SmartWallet.sol\":1903:1918  allowance[for_] */\n      0x20\n      mstore\n      0x40\n      swap1\n      keccak256\n        /* \"Contracts/SmartWallet.sol\":1903:1928  allowance[for_] = amount_ */\n      dup2\n      swap1\n      sstore\n        /* \"Contracts/SmartWallet.sol\":1945:1956  amount_ > 0 */\n      dup1\n      iszero\n        /* \"Contracts/SmartWallet.sol\":1941:2075  if (amount_ > 0) {... */\n      tag_71\n      jumpi\n      sub(shl(0xa0, 0x01), 0x01)\n        /* \"Contracts/SmartWallet.sol\":1973:1994  isAllowedToSend[for_] */\n      dup3\n      and\n      0x00\n      swap1\n      dup2\n      mstore\n        /* \"Contracts/SmartWallet.sol\":1973:1988  isAllowedToSend */\n      0x02\n        /* \"Contracts/SmartWallet.sol\":1973:1994  isAllowedToSend[for_] */\n      0x20\n      mstore\n      0x40\n      swap1\n      keccak256\n        /* \"Contracts/SmartWallet.sol\":1973:2001  isAllowedToSend[for_] = true */\n      dup1\n      sload\n      not(0xff)\n      and\n        /* \"Contracts/SmartWallet.sol\":1997:2001  true */\n      0x01\n        /* \"Contracts/SmartWallet.sol\":1973:2001  isAllowedToSend[for_] = true */\n      or\n      swap1\n      sstore\n        /* \"Contracts/SmartWallet.sol\":1760:2082  function setAllowance(address for_, uint amount_) public {... */\n      pop\n      pop\n      jump\t// out\n        /* \"Contracts/SmartWallet.sol\":1941:2075  if (amount_ > 0) {... */\n    tag_71:\n      pop\n      sub(shl(0xa0, 0x01), 0x01)\n        /* \"Contracts/SmartWallet.sol\":2034:2055  isAllowedToSend[for_] */\n      and\n        /* \"Contracts/SmartWallet.sol\":2058:2063  false */\n      0x00\n        /* \"Contracts/SmartWallet.sol\":2034:2055  isAllowedToSend[for_] */\n      swap1\n      dup2\n      mstore\n        /* \"Contracts/SmartWallet.sol\":2034:2049  isAllowedToSend */\n      0x02\n        /* \"Contracts/SmartWallet.sol\":2034:2055  isAllowedToSend[for_] */\n      0x20\n      mstore\n      0x40\n      swap1\n      keccak256\n        /* \"Contracts/SmartWallet.sol\":2034:2063  isAllowedToSend[for_] = false */\n      dup1\n      sload\n      not(0xff)\n      and\n      swap1\n      sstore\n        /* \"Contracts/SmartWallet.sol\":1760:2082  function setAllowance(address for_, uint amount_) public {... */\n      jump\t// out\n        /* \"Contracts/SmartWallet.sol\":2090:2859  function Transfer(address payable to_, uint amount_, bytes memory payload) public returns(bytes memory){... */\n    tag_51:\n        /* \"Contracts/SmartWallet.sol\":2180:2192  bytes memory */\n      0x60\n        /* \"Contracts/SmartWallet.sol\":2223:2244  address(this).balance */\n      selfbalance\n        /* \"Contracts/SmartWallet.sol\":2212:2219  amount_ */\n      dup4\n        /* \"Contracts/SmartWallet.sol\":2212:2244  amount_ <= address(this).balance */\n      gt\n      iszero\n        /* \"Contracts/SmartWallet.sol\":2204:2298  require(amount_ <= address(this).balance, \"Can't send more than the contract owns, aborting.\") */\n      tag_74\n      jumpi\n      mload(0x40)\n      shl(0xe5, 0x461bcd)\n      dup2\n      mstore\n        /* \"#utility.yul\":4381:4383   */\n      0x20\n        /* \"Contracts/SmartWallet.sol\":2204:2298  require(amount_ <= address(this).balance, \"Can't send more than the contract owns, aborting.\") */\n      0x04\n      dup3\n      add\n        /* \"#utility.yul\":4363:4384   */\n      mstore\n        /* \"#utility.yul\":4420:4422   */\n      0x31\n        /* \"#utility.yul\":4400:4418   */\n      0x24\n      dup3\n      add\n        /* \"#utility.yul\":4393:4423   */\n      mstore\n        /* \"#utility.yul\":4459:4493   */\n      0x43616e27742073656e64206d6f7265207468616e2074686520636f6e74726163\n        /* \"#utility.yul\":4439:4457   */\n      0x44\n      dup3\n      add\n        /* \"#utility.yul\":4432:4494   */\n      mstore\n      shl(0x79, 0x3a1037bbb739961030b137b93a34b73397)\n        /* \"#utility.yul\":4510:4528   */\n      0x64\n      dup3\n      add\n        /* \"#utility.yul\":4503:4550   */\n      mstore\n        /* \"#utility.yul\":4567:4586   */\n      0x84\n      add\n        /* \"Contracts/SmartWallet.sol\":2204:2298  require(amount_ <= address(this).balance, \"Can't send more than the contract owns, aborting.\") */\n      tag_66\n        /* \"#utility.yul\":4179:4592   */\n      jump\n        /* \"Contracts/SmartWallet.sol\":2204:2298  require(amount_ <= address(this).balance, \"Can't send more than the contract owns, aborting.\") */\n    tag_74:\n        /* \"Contracts/SmartWallet.sol\":2326:2331  owner */\n      and(sub(shl(0xa0, 0x01), 0x01), sload(0x00))\n        /* \"Contracts/SmartWallet.sol\":2312:2322  msg.sender */\n      caller\n        /* \"Contracts/SmartWallet.sol\":2312:2331  msg.sender == owner */\n      sub\n        /* \"Contracts/SmartWallet.sol\":2309:2672  if(msg.sender == owner) {... */\n      tag_77\n      jumpi\n        /* \"Contracts/SmartWallet.sol\":2377:2387  msg.sender */\n      caller\n        /* \"Contracts/SmartWallet.sol\":2367:2388  allowance[msg.sender] */\n      0x00\n      swap1\n      dup2\n      mstore\n        /* \"Contracts/SmartWallet.sol\":2367:2376  allowance */\n      0x01\n        /* \"Contracts/SmartWallet.sol\":2367:2388  allowance[msg.sender] */\n      0x20\n      mstore\n      0x40\n      swap1\n      keccak256\n      sload\n        /* \"Contracts/SmartWallet.sol\":2356:2388  amount_ <= allowance[msg.sender] */\n      dup4\n      gt\n      iszero\n        /* \"Contracts/SmartWallet.sol\":2348:2455  require(amount_ <= allowance[msg.sender], \"You are trying to send more than you are allowed to, aborting!\") */\n      tag_78\n      jumpi\n      mload(0x40)\n      shl(0xe5, 0x461bcd)\n      dup2\n      mstore\n        /* \"#utility.yul\":4799:4801   */\n      0x20\n        /* \"Contracts/SmartWallet.sol\":2348:2455  require(amount_ <= allowance[msg.sender], \"You are trying to send more than you are allowed to, aborting!\") */\n      0x04\n      dup3\n      add\n        /* \"#utility.yul\":4781:4802   */\n      mstore\n        /* \"#utility.yul\":4838:4840   */\n      0x3e\n        /* \"#utility.yul\":4818:4836   */\n      0x24\n      dup3\n      add\n        /* \"#utility.yul\":4811:4841   */\n      mstore\n        /* \"#utility.yul\":4877:4911   */\n      0x596f752061726520747279696e6720746f2073656e64206d6f7265207468616e\n        /* \"#utility.yul\":4857:4875   */\n      0x44\n      dup3\n      add\n        /* \"#utility.yul\":4850:4912   */\n      mstore\n        /* \"#utility.yul\":4948:4980   */\n      0x20796f752061726520616c6c6f77656420746f2c2061626f7274696e67210000\n        /* \"#utility.yul\":4928:4946   */\n      0x64\n      dup3\n      add\n        /* \"#utility.yul\":4921:4981   */\n      mstore\n        /* \"#utility.yul\":4998:5017   */\n      0x84\n      add\n        /* \"Contracts/SmartWallet.sol\":2348:2455  require(amount_ <= allowance[msg.sender], \"You are trying to send more than you are allowed to, aborting!\") */\n      tag_66\n        /* \"#utility.yul\":4597:5023   */\n      jump\n        /* \"Contracts/SmartWallet.sol\":2348:2455  require(amount_ <= allowance[msg.sender], \"You are trying to send more than you are allowed to, aborting!\") */\n    tag_78:\n        /* \"Contracts/SmartWallet.sol\":2494:2504  msg.sender */\n      caller\n        /* \"Contracts/SmartWallet.sol\":2478:2505  isAllowedToSend[msg.sender] */\n      0x00\n      swap1\n      dup2\n      mstore\n        /* \"Contracts/SmartWallet.sol\":2478:2493  isAllowedToSend */\n      0x02\n        /* \"Contracts/SmartWallet.sol\":2478:2505  isAllowedToSend[msg.sender] */\n      0x20\n      mstore\n      0x40\n      swap1\n      keccak256\n      sload\n      0xff\n      and\n        /* \"Contracts/SmartWallet.sol\":2470:2580  require(isAllowedToSend[msg.sender], \"You are not allowed to send anything on this smart contract, aborting!\") */\n      tag_81\n      jumpi\n      mload(0x40)\n      shl(0xe5, 0x461bcd)\n      dup2\n      mstore\n        /* \"#utility.yul\":5230:5232   */\n      0x20\n        /* \"Contracts/SmartWallet.sol\":2470:2580  require(isAllowedToSend[msg.sender], \"You are not allowed to send anything on this smart contract, aborting!\") */\n      0x04\n      dup3\n      add\n        /* \"#utility.yul\":5212:5233   */\n      mstore\n        /* \"#utility.yul\":5269:5271   */\n      0x46\n        /* \"#utility.yul\":5249:5267   */\n      0x24\n      dup3\n      add\n        /* \"#utility.yul\":5242:5272   */\n      mstore\n        /* \"#utility.yul\":5308:5342   */\n      0x596f7520617265206e6f7420616c6c6f77656420746f2073656e6420616e7974\n        /* \"#utility.yul\":5288:5306   */\n      0x44\n      dup3\n      add\n        /* \"#utility.yul\":5281:5343   */\n      mstore\n        /* \"#utility.yul\":5379:5413   */\n      0x68696e67206f6e207468697320736d61727420636f6e74726163742c2061626f\n        /* \"#utility.yul\":5359:5377   */\n      0x64\n      dup3\n      add\n        /* \"#utility.yul\":5352:5414   */\n      mstore\n      shl(0xd0, 0x7274696e6721)\n        /* \"#utility.yul\":5430:5449   */\n      0x84\n      dup3\n      add\n        /* \"#utility.yul\":5423:5460   */\n      mstore\n        /* \"#utility.yul\":5477:5496   */\n      0xa4\n      add\n        /* \"Contracts/SmartWallet.sol\":2470:2580  require(isAllowedToSend[msg.sender], \"You are not allowed to send anything on this smart contract, aborting!\") */\n      tag_66\n        /* \"#utility.yul\":5028:5502   */\n      jump\n        /* \"Contracts/SmartWallet.sol\":2470:2580  require(isAllowedToSend[msg.sender], \"You are not allowed to send anything on this smart contract, aborting!\") */\n    tag_81:\n        /* \"Contracts/SmartWallet.sol\":2607:2617  msg.sender */\n      caller\n        /* \"Contracts/SmartWallet.sol\":2597:2618  allowance[msg.sender] */\n      0x00\n      swap1\n      dup2\n      mstore\n        /* \"Contracts/SmartWallet.sol\":2597:2606  allowance */\n      0x01\n        /* \"Contracts/SmartWallet.sol\":2597:2618  allowance[msg.sender] */\n      0x20\n      mstore\n      0x40\n      dup2\n      keccak256\n        /* \"Contracts/SmartWallet.sol\":2597:2629  allowance[msg.sender] -= amount_ */\n      dup1\n      sload\n        /* \"Contracts/SmartWallet.sol\":2622:2629  amount_ */\n      dup6\n      swap3\n        /* \"Contracts/SmartWallet.sol\":2597:2618  allowance[msg.sender] */\n      swap1\n        /* \"Contracts/SmartWallet.sol\":2597:2629  allowance[msg.sender] -= amount_ */\n      tag_84\n      swap1\n        /* \"Contracts/SmartWallet.sol\":2622:2629  amount_ */\n      dup5\n      swap1\n        /* \"Contracts/SmartWallet.sol\":2597:2629  allowance[msg.sender] -= amount_ */\n      tag_85\n      jump\t// in\n    tag_84:\n      swap1\n      swap2\n      sstore\n      pop\n      pop\n        /* \"Contracts/SmartWallet.sol\":2309:2672  if(msg.sender == owner) {... */\n    tag_77:\n        /* \"Contracts/SmartWallet.sol\":2685:2697  bool success */\n      0x00\n        /* \"Contracts/SmartWallet.sol\":2699:2722  bytes memory returnData */\n      dup1\n        /* \"Contracts/SmartWallet.sol\":2726:2729  to_ */\n      dup6\n      sub(shl(0xa0, 0x01), 0x01)\n        /* \"Contracts/SmartWallet.sol\":2726:2734  to_.call */\n      and\n        /* \"Contracts/SmartWallet.sol\":2742:2749  amount_ */\n      dup6\n        /* \"Contracts/SmartWallet.sol\":2751:2758  payload */\n      dup6\n        /* \"Contracts/SmartWallet.sol\":2726:2759  to_.call{value: amount_}(payload) */\n      mload(0x40)\n      tag_86\n      swap2\n      swap1\n      tag_87\n      jump\t// in\n    tag_86:\n      0x00\n      mload(0x40)\n      dup1\n      dup4\n      sub\n      dup2\n      dup6\n      dup8\n      gas\n      call\n      swap3\n      pop\n      pop\n      pop\n      returndatasize\n      dup1\n      0x00\n      dup2\n      eq\n      tag_90\n      jumpi\n      mload(0x40)\n      swap2\n      pop\n      and(add(returndatasize, 0x3f), not(0x1f))\n      dup3\n      add\n      0x40\n      mstore\n      returndatasize\n      dup3\n      mstore\n      returndatasize\n      0x00\n      0x20\n      dup5\n      add\n      returndatacopy\n      jump(tag_89)\n    tag_90:\n      0x60\n      swap2\n      pop\n    tag_89:\n      pop\n        /* \"Contracts/SmartWallet.sol\":2684:2759  (bool success, bytes memory returnData) = to_.call{value: amount_}(payload) */\n      swap2\n      pop\n      swap2\n      pop\n        /* \"Contracts/SmartWallet.sol\":2778:2785  success */\n      dup2\n        /* \"Contracts/SmartWallet.sol\":2770:2823  require(success, \"Aborting, call was not successful\") */\n      tag_91\n      jumpi\n      mload(0x40)\n      shl(0xe5, 0x461bcd)\n      dup2\n      mstore\n        /* \"#utility.yul\":6280:6282   */\n      0x20\n        /* \"Contracts/SmartWallet.sol\":2770:2823  require(success, \"Aborting, call was not successful\") */\n      0x04\n      dup3\n      add\n        /* \"#utility.yul\":6262:6283   */\n      mstore\n        /* \"#utility.yul\":6319:6321   */\n      0x21\n        /* \"#utility.yul\":6299:6317   */\n      0x24\n      dup3\n      add\n        /* \"#utility.yul\":6292:6322   */\n      mstore\n        /* \"#utility.yul\":6358:6392   */\n      0x41626f7274696e672c2063616c6c20776173206e6f7420737563636573736675\n        /* \"#utility.yul\":6338:6356   */\n      0x44\n      dup3\n      add\n        /* \"#utility.yul\":6331:6393   */\n      mstore\n      shl(0xfa, 0x1b)\n        /* \"#utility.yul\":6409:6427   */\n      0x64\n      dup3\n      add\n        /* \"#utility.yul\":6402:6433   */\n      mstore\n        /* \"#utility.yul\":6450:6469   */\n      0x84\n      add\n        /* \"Contracts/SmartWallet.sol\":2770:2823  require(success, \"Aborting, call was not successful\") */\n      tag_66\n        /* \"#utility.yul\":6078:6475   */\n      jump\n        /* \"Contracts/SmartWallet.sol\":2770:2823  require(success, \"Aborting, call was not successful\") */\n    tag_91:\n        /* \"Contracts/SmartWallet.sol\":2841:2851  returnData */\n      swap6\n        /* \"Contracts/SmartWallet.sol\":2090:2859  function Transfer(address payable to_, uint amount_, bytes memory payload) public returns(bytes memory){... */\n      swap5\n      pop\n      pop\n      pop\n      pop\n      pop\n      jump\t// out\n        /* \"Contracts/SmartWallet.sol\":1164:1752  function proposeNewOwner(address payable newOwner_) public {... */\n    tag_63:\n        /* \"Contracts/SmartWallet.sol\":1252:1262  msg.sender */\n      caller\n        /* \"Contracts/SmartWallet.sol\":1242:1263  guardians[msg.sender] */\n      0x00\n      swap1\n      dup2\n      mstore\n        /* \"Contracts/SmartWallet.sol\":1242:1251  guardians */\n      0x03\n        /* \"Contracts/SmartWallet.sol\":1242:1263  guardians[msg.sender] */\n      0x20\n      mstore\n      0x40\n      swap1\n      keccak256\n      sload\n      0xff\n      and\n        /* \"Contracts/SmartWallet.sol\":1234:1314  require(guardians[msg.sender], \"You are not guardian of this wallet, aborting!\") */\n      tag_95\n      jumpi\n      mload(0x40)\n      shl(0xe5, 0x461bcd)\n      dup2\n      mstore\n        /* \"#utility.yul\":6682:6684   */\n      0x20\n        /* \"Contracts/SmartWallet.sol\":1234:1314  require(guardians[msg.sender], \"You are not guardian of this wallet, aborting!\") */\n      0x04\n      dup3\n      add\n        /* \"#utility.yul\":6664:6685   */\n      mstore\n        /* \"#utility.yul\":6721:6723   */\n      0x2e\n        /* \"#utility.yul\":6701:6719   */\n      0x24\n      dup3\n      add\n        /* \"#utility.yul\":6694:6724   */\n      mstore\n        /* \"#utility.yul\":6760:6794   */\n      0x596f7520617265206e6f7420677561726469616e206f6620746869732077616c\n        /* \"#utility.yul\":6740:6758   */\n      0x44\n      dup3\n      add\n        /* \"#utility.yul\":6733:6795   */\n      mstore\n      shl(0x90, 0x6c65742c2061626f7274696e6721)\n        /* \"#utility.yul\":6811:6829   */\n      0x64\n      dup3\n      add\n        /* \"#utility.yul\":6804:6848   */\n      mstore\n        /* \"#utility.yul\":6865:6884   */\n      0x84\n      add\n        /* \"Contracts/SmartWallet.sol\":1234:1314  require(guardians[msg.sender], \"You are not guardian of this wallet, aborting!\") */\n      tag_66\n        /* \"#utility.yul\":6480:6890   */\n      jump\n        /* \"Contracts/SmartWallet.sol\":1234:1314  require(guardians[msg.sender], \"You are not guardian of this wallet, aborting!\") */\n    tag_95:\n      sub(shl(0xa0, 0x01), 0x01)\n        /* \"Contracts/SmartWallet.sol\":1333:1369  nextOwnerGuardianVoteBool[newOwner_] */\n      dup2\n      and\n      0x00\n      swap1\n      dup2\n      mstore\n        /* \"Contracts/SmartWallet.sol\":1333:1358  nextOwnerGuardianVoteBool */\n      0x04\n        /* \"Contracts/SmartWallet.sol\":1333:1369  nextOwnerGuardianVoteBool[newOwner_] */\n      0x20\n      swap1\n      dup2\n      mstore\n      0x40\n      dup1\n      dup4\n      keccak256\n        /* \"Contracts/SmartWallet.sol\":1370:1380  msg.sender */\n      caller\n        /* \"Contracts/SmartWallet.sol\":1333:1381  nextOwnerGuardianVoteBool[newOwner_][msg.sender] */\n      dup5\n      mstore\n      swap1\n      swap2\n      mstore\n      swap1\n      keccak256\n      sload\n      0xff\n      and\n        /* \"Contracts/SmartWallet.sol\":1333:1390  nextOwnerGuardianVoteBool[newOwner_][msg.sender] == false */\n      iszero\n        /* \"Contracts/SmartWallet.sol\":1325:1423  require(nextOwnerGuardianVoteBool[newOwner_][msg.sender] == false, \"You already voted, aborting!\") */\n      tag_98\n      jumpi\n      mload(0x40)\n      shl(0xe5, 0x461bcd)\n      dup2\n      mstore\n        /* \"#utility.yul\":7097:7099   */\n      0x20\n        /* \"Contracts/SmartWallet.sol\":1325:1423  require(nextOwnerGuardianVoteBool[newOwner_][msg.sender] == false, \"You already voted, aborting!\") */\n      0x04\n      dup3\n      add\n        /* \"#utility.yul\":7079:7100   */\n      mstore\n        /* \"#utility.yul\":7136:7138   */\n      0x1c\n        /* \"#utility.yul\":7116:7134   */\n      0x24\n      dup3\n      add\n        /* \"#utility.yul\":7109:7139   */\n      mstore\n        /* \"#utility.yul\":7175:7205   */\n      0x596f7520616c726561647920766f7465642c2061626f7274696e672100000000\n        /* \"#utility.yul\":7155:7173   */\n      0x44\n      dup3\n      add\n        /* \"#utility.yul\":7148:7206   */\n      mstore\n        /* \"#utility.yul\":7223:7241   */\n      0x64\n      add\n        /* \"Contracts/SmartWallet.sol\":1325:1423  require(nextOwnerGuardianVoteBool[newOwner_][msg.sender] == false, \"You already voted, aborting!\") */\n      tag_66\n        /* \"#utility.yul\":6895:7247   */\n      jump\n        /* \"Contracts/SmartWallet.sol\":1325:1423  require(nextOwnerGuardianVoteBool[newOwner_][msg.sender] == false, \"You already voted, aborting!\") */\n    tag_98:\n        /* \"Contracts/SmartWallet.sol\":1450:1459  nextOwner */\n      sload(0x05)\n      sub(shl(0xa0, 0x01), 0x01)\n        /* \"Contracts/SmartWallet.sol\":1437:1459  newOwner_ != nextOwner */\n      dup3\n      dup2\n      and\n        /* \"Contracts/SmartWallet.sol\":1450:1459  nextOwner */\n      swap2\n      and\n        /* \"Contracts/SmartWallet.sol\":1437:1459  newOwner_ != nextOwner */\n      eq\n        /* \"Contracts/SmartWallet.sol\":1434:1547  if(newOwner_ != nextOwner) {... */\n      tag_101\n      jumpi\n        /* \"Contracts/SmartWallet.sol\":1476:1485  nextOwner */\n      0x05\n        /* \"Contracts/SmartWallet.sol\":1476:1497  nextOwner = newOwner_ */\n      dup1\n      sload\n      not(sub(shl(0xa0, 0x01), 0x01))\n      and\n      sub(shl(0xa0, 0x01), 0x01)\n      dup4\n      and\n      or\n      swap1\n      sstore\n      0x00\n        /* \"Contracts/SmartWallet.sol\":1512:1531  guardiansResetCount */\n      0x06\n        /* \"Contracts/SmartWallet.sol\":1512:1535  guardiansResetCount = 0 */\n      sstore\n        /* \"Contracts/SmartWallet.sol\":1434:1547  if(newOwner_ != nextOwner) {... */\n    tag_101:\n        /* \"Contracts/SmartWallet.sol\":1559:1578  guardiansResetCount */\n      0x06\n        /* \"Contracts/SmartWallet.sol\":1559:1580  guardiansResetCount++ */\n      dup1\n      sload\n      swap1\n        /* \"Contracts/SmartWallet.sol\":1559:1578  guardiansResetCount */\n      0x00\n        /* \"Contracts/SmartWallet.sol\":1559:1580  guardiansResetCount++ */\n      tag_102\n      dup4\n      tag_103\n      jump\t// in\n    tag_102:\n      swap2\n      swap1\n      pop\n      sstore\n      pop\n        /* \"Contracts/SmartWallet.sol\":887:888  3 */\n      0x03\n        /* \"Contracts/SmartWallet.sol\":1596:1615  guardiansResetCount */\n      sload(0x06)\n        /* \"Contracts/SmartWallet.sol\":1596:1652  guardiansResetCount >= confirmationFromGuardiansForReset */\n      lt\n        /* \"Contracts/SmartWallet.sol\":1593:1745  if(guardiansResetCount >= confirmationFromGuardiansForReset) {... */\n      tag_104\n      jumpi\n        /* \"Contracts/SmartWallet.sol\":1677:1686  nextOwner */\n      0x05\n      dup1\n      sload\n      0x00\n        /* \"Contracts/SmartWallet.sol\":1669:1686  owner = nextOwner */\n      dup1\n      sload\n      not(sub(shl(0xa0, 0x01), 0x01))\n      swap1\n      dup2\n      and\n      sub(shl(0xa0, 0x01), 0x01)\n        /* \"Contracts/SmartWallet.sol\":1677:1686  nextOwner */\n      dup5\n      and\n        /* \"Contracts/SmartWallet.sol\":1669:1686  owner = nextOwner */\n      or\n      swap1\n      swap2\n      sstore\n        /* \"Contracts/SmartWallet.sol\":1701:1733  nextOwner = payable (address(0)) */\n      and\n      swap1\n      sstore\n        /* \"Contracts/SmartWallet.sol\":1593:1745  if(guardiansResetCount >= confirmationFromGuardiansForReset) {... */\n    tag_104:\n        /* \"Contracts/SmartWallet.sol\":1164:1752  function proposeNewOwner(address payable newOwner_) public {... */\n      pop\n      jump\t// out\n        /* \"#utility.yul\":14:145   */\n    tag_105:\n      sub(shl(0xa0, 0x01), 0x01)\n        /* \"#utility.yul\":89:120   */\n      dup2\n      and\n        /* \"#utility.yul\":79:121   */\n      dup2\n      eq\n        /* \"#utility.yul\":69:139   */\n      tag_104\n      jumpi\n        /* \"#utility.yul\":135:136   */\n      0x00\n        /* \"#utility.yul\":132:133   */\n      dup1\n        /* \"#utility.yul\":125:137   */\n      revert\n        /* \"#utility.yul\":150:397   */\n    tag_18:\n        /* \"#utility.yul\":209:215   */\n      0x00\n        /* \"#utility.yul\":262:264   */\n      0x20\n        /* \"#utility.yul\":250:259   */\n      dup3\n        /* \"#utility.yul\":241:248   */\n      dup5\n        /* \"#utility.yul\":237:260   */\n      sub\n        /* \"#utility.yul\":233:265   */\n      slt\n        /* \"#utility.yul\":230:282   */\n      iszero\n      tag_112\n      jumpi\n        /* \"#utility.yul\":278:279   */\n      0x00\n        /* \"#utility.yul\":275:276   */\n      dup1\n        /* \"#utility.yul\":268:280   */\n      revert\n        /* \"#utility.yul\":230:282   */\n    tag_112:\n        /* \"#utility.yul\":317:326   */\n      dup2\n        /* \"#utility.yul\":304:327   */\n      calldataload\n        /* \"#utility.yul\":336:367   */\n      tag_113\n        /* \"#utility.yul\":361:366   */\n      dup2\n        /* \"#utility.yul\":336:367   */\n      tag_105\n      jump\t// in\n    tag_113:\n        /* \"#utility.yul\":386:391   */\n      swap4\n        /* \"#utility.yul\":150:397   */\n      swap3\n      pop\n      pop\n      pop\n      jump\t// out\n        /* \"#utility.yul\":594:1010   */\n    tag_30:\n        /* \"#utility.yul\":659:665   */\n      0x00\n        /* \"#utility.yul\":667:673   */\n      dup1\n        /* \"#utility.yul\":720:722   */\n      0x40\n        /* \"#utility.yul\":708:717   */\n      dup4\n        /* \"#utility.yul\":699:706   */\n      dup6\n        /* \"#utility.yul\":695:718   */\n      sub\n        /* \"#utility.yul\":691:723   */\n      slt\n        /* \"#utility.yul\":688:740   */\n      iszero\n      tag_116\n      jumpi\n        /* \"#utility.yul\":736:737   */\n      0x00\n        /* \"#utility.yul\":733:734   */\n      dup1\n        /* \"#utility.yul\":726:738   */\n      revert\n        /* \"#utility.yul\":688:740   */\n    tag_116:\n        /* \"#utility.yul\":775:784   */\n      dup3\n        /* \"#utility.yul\":762:785   */\n      calldataload\n        /* \"#utility.yul\":794:825   */\n      tag_117\n        /* \"#utility.yul\":819:824   */\n      dup2\n        /* \"#utility.yul\":794:825   */\n      tag_105\n      jump\t// in\n    tag_117:\n        /* \"#utility.yul\":844:849   */\n      swap2\n      pop\n        /* \"#utility.yul\":901:903   */\n      0x20\n        /* \"#utility.yul\":886:904   */\n      dup4\n      add\n        /* \"#utility.yul\":873:905   */\n      calldataload\n        /* \"#utility.yul\":943:958   */\n      dup1\n      iszero\n        /* \"#utility.yul\":936:959   */\n      iszero\n        /* \"#utility.yul\":924:960   */\n      dup2\n      eq\n        /* \"#utility.yul\":914:978   */\n      tag_118\n      jumpi\n        /* \"#utility.yul\":974:975   */\n      0x00\n        /* \"#utility.yul\":971:972   */\n      dup1\n        /* \"#utility.yul\":964:976   */\n      revert\n        /* \"#utility.yul\":914:978   */\n    tag_118:\n        /* \"#utility.yul\":997:1004   */\n      dup1\n        /* \"#utility.yul\":987:1004   */\n      swap2\n      pop\n      pop\n        /* \"#utility.yul\":594:1010   */\n      swap3\n      pop\n      swap3\n      swap1\n      pop\n      jump\t// out\n        /* \"#utility.yul\":1015:1382   */\n    tag_35:\n        /* \"#utility.yul\":1083:1089   */\n      0x00\n        /* \"#utility.yul\":1091:1097   */\n      dup1\n        /* \"#utility.yul\":1144:1146   */\n      0x40\n        /* \"#utility.yul\":1132:1141   */\n      dup4\n        /* \"#utility.yul\":1123:1130   */\n      dup6\n        /* \"#utility.yul\":1119:1142   */\n      sub\n        /* \"#utility.yul\":1115:1147   */\n      slt\n        /* \"#utility.yul\":1112:1164   */\n      iszero\n      tag_120\n      jumpi\n        /* \"#utility.yul\":1160:1161   */\n      0x00\n        /* \"#utility.yul\":1157:1158   */\n      dup1\n        /* \"#utility.yul\":1150:1162   */\n      revert\n        /* \"#utility.yul\":1112:1164   */\n    tag_120:\n        /* \"#utility.yul\":1199:1208   */\n      dup3\n        /* \"#utility.yul\":1186:1209   */\n      calldataload\n        /* \"#utility.yul\":1218:1249   */\n      tag_121\n        /* \"#utility.yul\":1243:1248   */\n      dup2\n        /* \"#utility.yul\":1218:1249   */\n      tag_105\n      jump\t// in\n    tag_121:\n        /* \"#utility.yul\":1268:1273   */\n      swap5\n        /* \"#utility.yul\":1346:1348   */\n      0x20\n        /* \"#utility.yul\":1331:1349   */\n      swap4\n      swap1\n      swap4\n      add\n        /* \"#utility.yul\":1318:1350   */\n      calldataload\n      swap4\n      pop\n      pop\n      pop\n        /* \"#utility.yul\":1015:1382   */\n      jump\t// out\n        /* \"#utility.yul\":1569:1696   */\n    tag_106:\n        /* \"#utility.yul\":1630:1640   */\n      0x4e487b71\n        /* \"#utility.yul\":1625:1628   */\n      0xe0\n        /* \"#utility.yul\":1621:1641   */\n      shl\n        /* \"#utility.yul\":1618:1619   */\n      0x00\n        /* \"#utility.yul\":1611:1642   */\n      mstore\n        /* \"#utility.yul\":1661:1665   */\n      0x41\n        /* \"#utility.yul\":1658:1659   */\n      0x04\n        /* \"#utility.yul\":1651:1666   */\n      mstore\n        /* \"#utility.yul\":1685:1689   */\n      0x24\n        /* \"#utility.yul\":1682:1683   */\n      0x00\n        /* \"#utility.yul\":1675:1690   */\n      revert\n        /* \"#utility.yul\":1701:2908   */\n    tag_50:\n        /* \"#utility.yul\":1795:1801   */\n      0x00\n        /* \"#utility.yul\":1803:1809   */\n      dup1\n        /* \"#utility.yul\":1811:1817   */\n      0x00\n        /* \"#utility.yul\":1864:1866   */\n      0x60\n        /* \"#utility.yul\":1852:1861   */\n      dup5\n        /* \"#utility.yul\":1843:1850   */\n      dup7\n        /* \"#utility.yul\":1839:1862   */\n      sub\n        /* \"#utility.yul\":1835:1867   */\n      slt\n        /* \"#utility.yul\":1832:1884   */\n      iszero\n      tag_125\n      jumpi\n        /* \"#utility.yul\":1880:1881   */\n      0x00\n        /* \"#utility.yul\":1877:1878   */\n      dup1\n        /* \"#utility.yul\":1870:1882   */\n      revert\n        /* \"#utility.yul\":1832:1884   */\n    tag_125:\n        /* \"#utility.yul\":1919:1928   */\n      dup4\n        /* \"#utility.yul\":1906:1929   */\n      calldataload\n        /* \"#utility.yul\":1938:1969   */\n      tag_126\n        /* \"#utility.yul\":1963:1968   */\n      dup2\n        /* \"#utility.yul\":1938:1969   */\n      tag_105\n      jump\t// in\n    tag_126:\n        /* \"#utility.yul\":1988:1993   */\n      swap3\n      pop\n        /* \"#utility.yul\":2066:2068   */\n      0x20\n        /* \"#utility.yul\":2051:2069   */\n      dup5\n      add\n        /* \"#utility.yul\":2038:2070   */\n      calldataload\n      swap2\n      pop\n        /* \"#utility.yul\":2147:2149   */\n      0x40\n        /* \"#utility.yul\":2132:2150   */\n      dup5\n      add\n        /* \"#utility.yul\":2119:2151   */\n      calldataload\n        /* \"#utility.yul\":2174:2192   */\n      0xffffffffffffffff\n        /* \"#utility.yul\":2163:2193   */\n      dup2\n      gt\n        /* \"#utility.yul\":2160:2210   */\n      iszero\n      tag_127\n      jumpi\n        /* \"#utility.yul\":2206:2207   */\n      0x00\n        /* \"#utility.yul\":2203:2204   */\n      dup1\n        /* \"#utility.yul\":2196:2208   */\n      revert\n        /* \"#utility.yul\":2160:2210   */\n    tag_127:\n        /* \"#utility.yul\":2229:2251   */\n      dup5\n      add\n        /* \"#utility.yul\":2282:2286   */\n      0x1f\n        /* \"#utility.yul\":2274:2287   */\n      dup2\n      add\n        /* \"#utility.yul\":2270:2297   */\n      dup7\n      sgt\n        /* \"#utility.yul\":2260:2315   */\n      tag_128\n      jumpi\n        /* \"#utility.yul\":2311:2312   */\n      0x00\n        /* \"#utility.yul\":2308:2309   */\n      dup1\n        /* \"#utility.yul\":2301:2313   */\n      revert\n        /* \"#utility.yul\":2260:2315   */\n    tag_128:\n        /* \"#utility.yul\":2351:2353   */\n      dup1\n        /* \"#utility.yul\":2338:2354   */\n      calldataload\n        /* \"#utility.yul\":2377:2395   */\n      0xffffffffffffffff\n        /* \"#utility.yul\":2369:2375   */\n      dup2\n        /* \"#utility.yul\":2366:2396   */\n      gt\n        /* \"#utility.yul\":2363:2419   */\n      iszero\n      tag_130\n      jumpi\n        /* \"#utility.yul\":2399:2417   */\n      tag_130\n      tag_106\n      jump\t// in\n    tag_130:\n        /* \"#utility.yul\":2448:2450   */\n      0x40\n        /* \"#utility.yul\":2442:2451   */\n      mload\n        /* \"#utility.yul\":2540:2542   */\n      0x1f\n        /* \"#utility.yul\":2502:2519   */\n      dup3\n      add\n      not(0x1f)\n        /* \"#utility.yul\":2498:2529   */\n      swap1\n      dup2\n      and\n        /* \"#utility.yul\":2531:2533   */\n      0x3f\n        /* \"#utility.yul\":2494:2534   */\n      add\n        /* \"#utility.yul\":2490:2544   */\n      and\n        /* \"#utility.yul\":2478:2545   */\n      dup2\n      add\n        /* \"#utility.yul\":2575:2593   */\n      0xffffffffffffffff\n        /* \"#utility.yul\":2560:2594   */\n      dup2\n      gt\n        /* \"#utility.yul\":2596:2618   */\n      dup3\n      dup3\n      lt\n        /* \"#utility.yul\":2557:2619   */\n      or\n        /* \"#utility.yul\":2554:2642   */\n      iszero\n      tag_132\n      jumpi\n        /* \"#utility.yul\":2622:2640   */\n      tag_132\n      tag_106\n      jump\t// in\n    tag_132:\n        /* \"#utility.yul\":2658:2660   */\n      0x40\n        /* \"#utility.yul\":2651:2673   */\n      mstore\n        /* \"#utility.yul\":2682:2704   */\n      dup2\n      dup2\n      mstore\n        /* \"#utility.yul\":2723:2738   */\n      dup3\n      dup3\n      add\n        /* \"#utility.yul\":2740:2742   */\n      0x20\n        /* \"#utility.yul\":2719:2743   */\n      add\n        /* \"#utility.yul\":2716:2753   */\n      dup9\n      lt\n        /* \"#utility.yul\":2713:2770   */\n      iszero\n      tag_133\n      jumpi\n        /* \"#utility.yul\":2766:2767   */\n      0x00\n        /* \"#utility.yul\":2763:2764   */\n      dup1\n        /* \"#utility.yul\":2756:2768   */\n      revert\n        /* \"#utility.yul\":2713:2770   */\n    tag_133:\n        /* \"#utility.yul\":2822:2828   */\n      dup2\n        /* \"#utility.yul\":2817:2819   */\n      0x20\n        /* \"#utility.yul\":2813:2815   */\n      dup5\n        /* \"#utility.yul\":2809:2820   */\n      add\n        /* \"#utility.yul\":2804:2806   */\n      0x20\n        /* \"#utility.yul\":2796:2802   */\n      dup4\n        /* \"#utility.yul\":2792:2807   */\n      add\n        /* \"#utility.yul\":2779:2829   */\n      calldatacopy\n        /* \"#utility.yul\":2875:2876   */\n      0x00\n        /* \"#utility.yul\":2870:2872   */\n      0x20\n        /* \"#utility.yul\":2861:2867   */\n      dup4\n        /* \"#utility.yul\":2853:2859   */\n      dup4\n        /* \"#utility.yul\":2849:2868   */\n      add\n        /* \"#utility.yul\":2845:2873   */\n      add\n        /* \"#utility.yul\":2838:2877   */\n      mstore\n        /* \"#utility.yul\":2896:2902   */\n      dup1\n        /* \"#utility.yul\":2886:2902   */\n      swap4\n      pop\n      pop\n      pop\n      pop\n        /* \"#utility.yul\":1701:2908   */\n      swap3\n      pop\n      swap3\n      pop\n      swap3\n      jump\t// out\n        /* \"#utility.yul\":2913:3329   */\n    tag_53:\n        /* \"#utility.yul\":3060:3062   */\n      0x20\n        /* \"#utility.yul\":3049:3058   */\n      dup2\n        /* \"#utility.yul\":3042:3063   */\n      mstore\n        /* \"#utility.yul\":3023:3027   */\n      0x00\n        /* \"#utility.yul\":3092:3098   */\n      dup3\n        /* \"#utility.yul\":3086:3099   */\n      mload\n        /* \"#utility.yul\":3135:3141   */\n      dup1\n        /* \"#utility.yul\":3130:3132   */\n      0x20\n        /* \"#utility.yul\":3119:3128   */\n      dup5\n        /* \"#utility.yul\":3115:3133   */\n      add\n        /* \"#utility.yul\":3108:3142   */\n      mstore\n        /* \"#utility.yul\":3194:3200   */\n      dup1\n        /* \"#utility.yul\":3189:3191   */\n      0x20\n        /* \"#utility.yul\":3181:3187   */\n      dup6\n        /* \"#utility.yul\":3177:3192   */\n      add\n        /* \"#utility.yul\":3172:3174   */\n      0x40\n        /* \"#utility.yul\":3161:3170   */\n      dup6\n        /* \"#utility.yul\":3157:3175   */\n      add\n        /* \"#utility.yul\":3151:3201   */\n      mcopy\n        /* \"#utility.yul\":3250:3251   */\n      0x00\n        /* \"#utility.yul\":3245:3247   */\n      0x40\n        /* \"#utility.yul\":3236:3242   */\n      dup3\n        /* \"#utility.yul\":3225:3234   */\n      dup6\n        /* \"#utility.yul\":3221:3243   */\n      add\n        /* \"#utility.yul\":3217:3248   */\n      add\n        /* \"#utility.yul\":3210:3252   */\n      mstore\n        /* \"#utility.yul\":3320:3322   */\n      0x40\n        /* \"#utility.yul\":3313:3315   */\n      0x1f\n        /* \"#utility.yul\":3309:3316   */\n      not\n        /* \"#utility.yul\":3304:3306   */\n      0x1f\n        /* \"#utility.yul\":3296:3302   */\n      dup4\n        /* \"#utility.yul\":3292:3307   */\n      add\n        /* \"#utility.yul\":3288:3317   */\n      and\n        /* \"#utility.yul\":3277:3286   */\n      dup5\n        /* \"#utility.yul\":3273:3318   */\n      add\n        /* \"#utility.yul\":3269:3323   */\n      add\n        /* \"#utility.yul\":3261:3323   */\n      swap2\n      pop\n      pop\n        /* \"#utility.yul\":2913:3329   */\n      swap3\n      swap2\n      pop\n      pop\n      jump\t// out\n        /* \"#utility.yul\":5507:5634   */\n    tag_107:\n        /* \"#utility.yul\":5568:5578   */\n      0x4e487b71\n        /* \"#utility.yul\":5563:5566   */\n      0xe0\n        /* \"#utility.yul\":5559:5579   */\n      shl\n        /* \"#utility.yul\":5556:5557   */\n      0x00\n        /* \"#utility.yul\":5549:5580   */\n      mstore\n        /* \"#utility.yul\":5599:5603   */\n      0x11\n        /* \"#utility.yul\":5596:5597   */\n      0x04\n        /* \"#utility.yul\":5589:5604   */\n      mstore\n        /* \"#utility.yul\":5623:5627   */\n      0x24\n        /* \"#utility.yul\":5620:5621   */\n      0x00\n        /* \"#utility.yul\":5613:5628   */\n      revert\n        /* \"#utility.yul\":5639:5767   */\n    tag_85:\n        /* \"#utility.yul\":5706:5715   */\n      dup2\n      dup2\n      sub\n        /* \"#utility.yul\":5727:5738   */\n      dup2\n      dup2\n      gt\n        /* \"#utility.yul\":5724:5761   */\n      iszero\n      tag_146\n      jumpi\n        /* \"#utility.yul\":5741:5759   */\n      tag_146\n      tag_107\n      jump\t// in\n    tag_146:\n        /* \"#utility.yul\":5639:5767   */\n      swap3\n      swap2\n      pop\n      pop\n      jump\t// out\n        /* \"#utility.yul\":5772:6073   */\n    tag_87:\n        /* \"#utility.yul\":5901:5904   */\n      0x00\n        /* \"#utility.yul\":5939:5945   */\n      dup3\n        /* \"#utility.yul\":5933:5946   */\n      mload\n        /* \"#utility.yul\":5985:5991   */\n      dup1\n        /* \"#utility.yul\":5978:5982   */\n      0x20\n        /* \"#utility.yul\":5970:5976   */\n      dup6\n        /* \"#utility.yul\":5966:5983   */\n      add\n        /* \"#utility.yul\":5961:5964   */\n      dup5\n        /* \"#utility.yul\":5955:5992   */\n      mcopy\n        /* \"#utility.yul\":6047:6048   */\n      0x00\n        /* \"#utility.yul\":6011:6027   */\n      swap3\n      add\n        /* \"#utility.yul\":6036:6049   */\n      swap2\n      dup3\n      mstore\n      pop\n        /* \"#utility.yul\":6011:6027   */\n      swap2\n        /* \"#utility.yul\":5772:6073   */\n      swap1\n      pop\n      jump\t// out\n        /* \"#utility.yul\":7252:7387   */\n    tag_103:\n        /* \"#utility.yul\":7291:7294   */\n      0x00\n        /* \"#utility.yul\":7312:7329   */\n      0x01\n      dup3\n      add\n        /* \"#utility.yul\":7309:7352   */\n      tag_153\n      jumpi\n        /* \"#utility.yul\":7332:7350   */\n      tag_153\n      tag_107\n      jump\t// in\n    tag_153:\n      pop\n        /* \"#utility.yul\":7379:7380   */\n      0x01\n        /* \"#utility.yul\":7368:7381   */\n      add\n      swap1\n        /* \"#utility.yul\":7252:7387   */\n      jump\t// out\n\n    auxdata: 0xa264697066735822122078ca23f873dc3faa3e5dcd9cb102bbe8513d2db0caccf0a61c39bccbe4e349fb64736f6c634300081a0033\n}\n",
				"bytecode": {
					"linkReferences": {},
					"object": "6080604052348015600e575f80fd5b505f80546001600160a01b031916331790556109768061002d5f395ff3fe608060405260043610610087575f3560e01c80633e5beab9116100575780633e5beab91461014357806358e404b11461017c578063850a6919146101905780638da5cb5b146101bc578063b1f8100d146101f2575f80fd5b80630633b14a146100925780630bc605ad146100d55780632b8a1c5a14610103578063310ec4a714610124575f80fd5b3661008e57005b5f80fd5b34801561009d575f80fd5b506100c06100ac366004610747565b60036020525f908152604090205460ff1681565b60405190151581526020015b60405180910390f35b3480156100e0575f80fd5b506100c06100ef366004610747565b60026020525f908152604090205460ff1681565b34801561010e575f80fd5b5061012261011d366004610769565b610211565b005b34801561012f575f80fd5b5061012261013e3660046107a4565b610299565b34801561014e575f80fd5b5061016e61015d366004610747565b60016020525f908152604090205481565b6040519081526020016100cc565b348015610187575f80fd5b5061016e600381565b34801561019b575f80fd5b506101af6101aa3660046107e2565b610359565b6040516100cc91906108b0565b3480156101c7575f80fd5b505f546101da906001600160a01b031681565b6040516001600160a01b0390911681526020016100cc565b3480156101fd575f80fd5b5061012261020c366004610747565b6105d0565b5f546001600160a01b0316331461026f5760405162461bcd60e51b815260206004820181905260248201527f796f7520617265206e6f7420746865206f776e65722c2061626f7274696e672160448201526064015b60405180910390fd5b6001600160a01b03919091165f908152600360205260409020805460ff1916911515919091179055565b5f546001600160a01b031633146102f25760405162461bcd60e51b815260206004820181905260248201527f796f7520617265206e6f7420746865206f776e65722c2061626f7274696e67216044820152606401610266565b6001600160a01b0382165f9081526001602052604090208190558015610338576001600160a01b0382165f908152600260205260409020805460ff191660011790555050565b506001600160a01b03165f908152600260205260409020805460ff19169055565b6060478311156103c55760405162461bcd60e51b815260206004820152603160248201527f43616e27742073656e64206d6f7265207468616e2074686520636f6e747261636044820152703a1037bbb739961030b137b93a34b7339760791b6064820152608401610266565b5f546001600160a01b0316330361051157335f9081526001602052604090205483111561045a5760405162461bcd60e51b815260206004820152603e60248201527f596f752061726520747279696e6720746f2073656e64206d6f7265207468616e60448201527f20796f752061726520616c6c6f77656420746f2c2061626f7274696e672100006064820152608401610266565b335f9081526002602052604090205460ff166104ed5760405162461bcd60e51b815260206004820152604660248201527f596f7520617265206e6f7420616c6c6f77656420746f2073656e6420616e797460448201527f68696e67206f6e207468697320736d61727420636f6e74726163742c2061626f6064820152657274696e672160d01b608482015260a401610266565b335f908152600160205260408120805485929061050b9084906108f9565b90915550505b5f80856001600160a01b0316858560405161052c9190610912565b5f6040518083038185875af1925050503d805f8114610566576040519150601f19603f3d011682016040523d82523d5f602084013e61056b565b606091505b5091509150816105c75760405162461bcd60e51b815260206004820152602160248201527f41626f7274696e672c2063616c6c20776173206e6f74207375636365737366756044820152601b60fa1b6064820152608401610266565b95945050505050565b335f9081526003602052604090205460ff166106455760405162461bcd60e51b815260206004820152602e60248201527f596f7520617265206e6f7420677561726469616e206f6620746869732077616c60448201526d6c65742c2061626f7274696e672160901b6064820152608401610266565b6001600160a01b0381165f90815260046020908152604080832033845290915290205460ff16156106b85760405162461bcd60e51b815260206004820152601c60248201527f596f7520616c726561647920766f7465642c2061626f7274696e6721000000006044820152606401610266565b6005546001600160a01b038281169116146106ed57600580546001600160a01b0319166001600160a01b0383161790555f6006555b60068054905f6106fc83610928565b919050555060036006541061073057600580545f80546001600160a01b03199081166001600160a01b038416179091551690555b50565b6001600160a01b0381168114610730575f80fd5b5f60208284031215610757575f80fd5b813561076281610733565b9392505050565b5f806040838503121561077a575f80fd5b823561078581610733565b915060208301358015158114610799575f80fd5b809150509250929050565b5f80604083850312156107b5575f80fd5b82356107c081610733565b946020939093013593505050565b634e487b7160e01b5f52604160045260245ffd5b5f805f606084860312156107f4575f80fd5b83356107ff81610733565b925060208401359150604084013567ffffffffffffffff811115610821575f80fd5b8401601f81018613610831575f80fd5b803567ffffffffffffffff81111561084b5761084b6107ce565b604051601f8201601f19908116603f0116810167ffffffffffffffff8111828210171561087a5761087a6107ce565b604052818152828201602001881015610891575f80fd5b816020840160208301375f602083830101528093505050509250925092565b602081525f82518060208401528060208501604085015e5f604082850101526040601f19601f83011684010191505092915050565b634e487b7160e01b5f52601160045260245ffd5b8181038181111561090c5761090c6108e5565b92915050565b5f82518060208501845e5f920191825250919050565b5f60018201610939576109396108e5565b506001019056fea264697066735822122078ca23f873dc3faa3e5dcd9cb102bbe8513d2db0caccf0a61c39bccbe4e349fb64736f6c634300081a0033",
					"opcodes": "PUSH1 0x80 PUSH1 0x40 MSTORE CALLVALUE DUP1 ISZERO PUSH1 0xE JUMPI PUSH0 DUP1 REVERT JUMPDEST POP PUSH0 DUP1 SLOAD PUSH1 0x1 PUSH1 0x1 PUSH1 0xA0 SHL SUB NOT AND CALLER OR SWAP1 SSTORE PUSH2 0x976 DUP1 PUSH2 0x2D PUSH0 CODECOPY PUSH0 RETURN INVALID PUSH1 0x80 PUSH1 0x40 MSTORE PUSH1 0x4 CALLDATASIZE LT PUSH2 0x87 JUMPI PUSH0 CALLDATALOAD PUSH1 0xE0 SHR DUP1 PUSH4 0x3E5BEAB9 GT PUSH2 0x57 JUMPI DUP1 PUSH4 0x3E5BEAB9 EQ PUSH2 0x143 JUMPI DUP1 PUSH4 0x58E404B1 EQ PUSH2 0x17C JUMPI DUP1 PUSH4 0x850A6919 EQ PUSH2 0x190 JUMPI DUP1 PUSH4 0x8DA5CB5B EQ PUSH2 0x1BC JUMPI DUP1 PUSH4 0xB1F8100D EQ PUSH2 0x1F2 JUMPI PUSH0 DUP1 REVERT JUMPDEST DUP1 PUSH4 0x633B14A EQ PUSH2 0x92 JUMPI DUP1 PUSH4 0xBC605AD EQ PUSH2 0xD5 JUMPI DUP1 PUSH4 0x2B8A1C5A EQ PUSH2 0x103 JUMPI DUP1 PUSH4 0x310EC4A7 EQ PUSH2 0x124 JUMPI PUSH0 DUP1 REVERT JUMPDEST CALLDATASIZE PUSH2 0x8E JUMPI STOP JUMPDEST PUSH0 DUP1 REVERT JUMPDEST CALLVALUE DUP1 ISZERO PUSH2 0x9D JUMPI PUSH0 DUP1 REVERT JUMPDEST POP PUSH2 0xC0 PUSH2 0xAC CALLDATASIZE PUSH1 0x4 PUSH2 0x747 JUMP JUMPDEST PUSH1 0x3 PUSH1 0x20 MSTORE PUSH0 SWAP1 DUP2 MSTORE PUSH1 0x40 SWAP1 KECCAK256 SLOAD PUSH1 0xFF AND DUP2 JUMP JUMPDEST PUSH1 0x40 MLOAD SWAP1 ISZERO ISZERO DUP2 MSTORE PUSH1 0x20 ADD JUMPDEST PUSH1 0x40 MLOAD DUP1 SWAP2 SUB SWAP1 RETURN JUMPDEST CALLVALUE DUP1 ISZERO PUSH2 0xE0 JUMPI PUSH0 DUP1 REVERT JUMPDEST POP PUSH2 0xC0 PUSH2 0xEF CALLDATASIZE PUSH1 0x4 PUSH2 0x747 JUMP JUMPDEST PUSH1 0x2 PUSH1 0x20 MSTORE PUSH0 SWAP1 DUP2 MSTORE PUSH1 0x40 SWAP1 KECCAK256 SLOAD PUSH1 0xFF AND DUP2 JUMP JUMPDEST CALLVALUE DUP1 ISZERO PUSH2 0x10E JUMPI PUSH0 DUP1 REVERT JUMPDEST POP PUSH2 0x122 PUSH2 0x11D CALLDATASIZE PUSH1 0x4 PUSH2 0x769 JUMP JUMPDEST PUSH2 0x211 JUMP JUMPDEST STOP JUMPDEST CALLVALUE DUP1 ISZERO PUSH2 0x12F JUMPI PUSH0 DUP1 REVERT JUMPDEST POP PUSH2 0x122 PUSH2 0x13E CALLDATASIZE PUSH1 0x4 PUSH2 0x7A4 JUMP JUMPDEST PUSH2 0x299 JUMP JUMPDEST CALLVALUE DUP1 ISZERO PUSH2 0x14E JUMPI PUSH0 DUP1 REVERT JUMPDEST POP PUSH2 0x16E PUSH2 0x15D CALLDATASIZE PUSH1 0x4 PUSH2 0x747 JUMP JUMPDEST PUSH1 0x1 PUSH1 0x20 MSTORE PUSH0 SWAP1 DUP2 MSTORE PUSH1 0x40 SWAP1 KECCAK256 SLOAD DUP2 JUMP JUMPDEST PUSH1 0x40 MLOAD SWAP1 DUP2 MSTORE PUSH1 0x20 ADD PUSH2 0xCC JUMP JUMPDEST CALLVALUE DUP1 ISZERO PUSH2 0x187 JUMPI PUSH0 DUP1 REVERT JUMPDEST POP PUSH2 0x16E PUSH1 0x3 DUP2 JUMP JUMPDEST CALLVALUE DUP1 ISZERO PUSH2 0x19B JUMPI PUSH0 DUP1 REVERT JUMPDEST POP PUSH2 0x1AF PUSH2 0x1AA CALLDATASIZE PUSH1 0x4 PUSH2 0x7E2 JUMP JUMPDEST PUSH2 0x359 JUMP JUMPDEST PUSH1 0x40 MLOAD PUSH2 0xCC SWAP2 SWAP1 PUSH2 0x8B0 JUMP JUMPDEST CALLVALUE DUP1 ISZERO PUSH2 0x1C7 JUMPI PUSH0 DUP1 REVERT JUMPDEST POP PUSH0 SLOAD PUSH2 0x1DA SWAP1 PUSH1 0x1 PUSH1 0x1 PUSH1 0xA0 SHL SUB AND DUP2 JUMP JUMPDEST PUSH1 0x40 MLOAD PUSH1 0x1 PUSH1 0x1 PUSH1 0xA0 SHL SUB SWAP1 SWAP2 AND DUP2 MSTORE PUSH1 0x20 ADD PUSH2 0xCC JUMP JUMPDEST CALLVALUE DUP1 ISZERO PUSH2 0x1FD JUMPI PUSH0 DUP1 REVERT JUMPDEST POP PUSH2 0x122 PUSH2 0x20C CALLDATASIZE PUSH1 0x4 PUSH2 0x747 JUMP JUMPDEST PUSH2 0x5D0 JUMP JUMPDEST PUSH0 SLOAD PUSH1 0x1 PUSH1 0x1 PUSH1 0xA0 SHL SUB AND CALLER EQ PUSH2 0x26F JUMPI PUSH1 0x40 MLOAD PUSH3 0x461BCD PUSH1 0xE5 SHL DUP2 MSTORE PUSH1 0x20 PUSH1 0x4 DUP3 ADD DUP2 SWAP1 MSTORE PUSH1 0x24 DUP3 ADD MSTORE PUSH32 0x796F7520617265206E6F7420746865206F776E65722C2061626F7274696E6721 PUSH1 0x44 DUP3 ADD MSTORE PUSH1 0x64 ADD JUMPDEST PUSH1 0x40 MLOAD DUP1 SWAP2 SUB SWAP1 REVERT JUMPDEST PUSH1 0x1 PUSH1 0x1 PUSH1 0xA0 SHL SUB SWAP2 SWAP1 SWAP2 AND PUSH0 SWAP1 DUP2 MSTORE PUSH1 0x3 PUSH1 0x20 MSTORE PUSH1 0x40 SWAP1 KECCAK256 DUP1 SLOAD PUSH1 0xFF NOT AND SWAP2 ISZERO ISZERO SWAP2 SWAP1 SWAP2 OR SWAP1 SSTORE JUMP JUMPDEST PUSH0 SLOAD PUSH1 0x1 PUSH1 0x1 PUSH1 0xA0 SHL SUB AND CALLER EQ PUSH2 0x2F2 JUMPI PUSH1 0x40 MLOAD PUSH3 0x461BCD PUSH1 0xE5 SHL DUP2 MSTORE PUSH1 0x20 PUSH1 0x4 DUP3 ADD DUP2 SWAP1 MSTORE PUSH1 0x24 DUP3 ADD MSTORE PUSH32 0x796F7520617265206E6F7420746865206F776E65722C2061626F7274696E6721 PUSH1 0x44 DUP3 ADD MSTORE PUSH1 0x64 ADD PUSH2 0x266 JUMP JUMPDEST PUSH1 0x1 PUSH1 0x1 PUSH1 0xA0 SHL SUB DUP3 AND PUSH0 SWAP1 DUP2 MSTORE PUSH1 0x1 PUSH1 0x20 MSTORE PUSH1 0x40 SWAP1 KECCAK256 DUP2 SWAP1 SSTORE DUP1 ISZERO PUSH2 0x338 JUMPI PUSH1 0x1 PUSH1 0x1 PUSH1 0xA0 SHL SUB DUP3 AND PUSH0 SWAP1 DUP2 MSTORE PUSH1 0x2 PUSH1 0x20 MSTORE PUSH1 0x40 SWAP1 KECCAK256 DUP1 SLOAD PUSH1 0xFF NOT AND PUSH1 0x1 OR SWAP1 SSTORE POP POP JUMP JUMPDEST POP PUSH1 0x1 PUSH1 0x1 PUSH1 0xA0 SHL SUB AND PUSH0 SWAP1 DUP2 MSTORE PUSH1 0x2 PUSH1 0x20 MSTORE PUSH1 0x40 SWAP1 KECCAK256 DUP1 SLOAD PUSH1 0xFF NOT AND SWAP1 SSTORE JUMP JUMPDEST PUSH1 0x60 SELFBALANCE DUP4 GT ISZERO PUSH2 0x3C5 JUMPI PUSH1 0x40 MLOAD PUSH3 0x461BCD PUSH1 0xE5 SHL DUP2 MSTORE PUSH1 0x20 PUSH1 0x4 DUP3 ADD MSTORE PUSH1 0x31 PUSH1 0x24 DUP3 ADD MSTORE PUSH32 0x43616E27742073656E64206D6F7265207468616E2074686520636F6E74726163 PUSH1 0x44 DUP3 ADD MSTORE PUSH17 0x3A1037BBB739961030B137B93A34B73397 PUSH1 0x79 SHL PUSH1 0x64 DUP3 ADD MSTORE PUSH1 0x84 ADD PUSH2 0x266 JUMP JUMPDEST PUSH0 SLOAD PUSH1 0x1 PUSH1 0x1 PUSH1 0xA0 SHL SUB AND CALLER SUB PUSH2 0x511 JUMPI CALLER PUSH0 SWAP1 DUP2 MSTORE PUSH1 0x1 PUSH1 0x20 MSTORE PUSH1 0x40 SWAP1 KECCAK256 SLOAD DUP4 GT ISZERO PUSH2 0x45A JUMPI PUSH1 0x40 MLOAD PUSH3 0x461BCD PUSH1 0xE5 SHL DUP2 MSTORE PUSH1 0x20 PUSH1 0x4 DUP3 ADD MSTORE PUSH1 0x3E PUSH1 0x24 DUP3 ADD MSTORE PUSH32 0x596F752061726520747279696E6720746F2073656E64206D6F7265207468616E PUSH1 0x44 DUP3 ADD MSTORE PUSH32 0x20796F752061726520616C6C6F77656420746F2C2061626F7274696E67210000 PUSH1 0x64 DUP3 ADD MSTORE PUSH1 0x84 ADD PUSH2 0x266 JUMP JUMPDEST CALLER PUSH0 SWAP1 DUP2 MSTORE PUSH1 0x2 PUSH1 0x20 MSTORE PUSH1 0x40 SWAP1 KECCAK256 SLOAD PUSH1 0xFF AND PUSH2 0x4ED JUMPI PUSH1 0x40 MLOAD PUSH3 0x461BCD PUSH1 0xE5 SHL DUP2 MSTORE PUSH1 0x20 PUSH1 0x4 DUP3 ADD MSTORE PUSH1 0x46 PUSH1 0x24 DUP3 ADD MSTORE PUSH32 0x596F7520617265206E6F7420616C6C6F77656420746F2073656E6420616E7974 PUSH1 0x44 DUP3 ADD MSTORE PUSH32 0x68696E67206F6E207468697320736D61727420636F6E74726163742C2061626F PUSH1 0x64 DUP3 ADD MSTORE PUSH6 0x7274696E6721 PUSH1 0xD0 SHL PUSH1 0x84 DUP3 ADD MSTORE PUSH1 0xA4 ADD PUSH2 0x266 JUMP JUMPDEST CALLER PUSH0 SWAP1 DUP2 MSTORE PUSH1 0x1 PUSH1 0x20 MSTORE PUSH1 0x40 DUP2 KECCAK256 DUP1 SLOAD DUP6 SWAP3 SWAP1 PUSH2 0x50B SWAP1 DUP5 SWAP1 PUSH2 0x8F9 JUMP JUMPDEST SWAP1 SWAP2 SSTORE POP POP JUMPDEST PUSH0 DUP1 DUP6 PUSH1 0x1 PUSH1 0x1 PUSH1 0xA0 SHL SUB AND DUP6 DUP6 PUSH1 0x40 MLOAD PUSH2 0x52C SWAP2 SWAP1 PUSH2 0x912 JUMP JUMPDEST PUSH0 PUSH1 0x40 MLOAD DUP1 DUP4 SUB DUP2 DUP6 DUP8 GAS CALL SWAP3 POP POP POP RETURNDATASIZE DUP1 PUSH0 DUP2 EQ PUSH2 0x566 JUMPI PUSH1 0x40 MLOAD SWAP2 POP PUSH1 0x1F NOT PUSH1 0x3F RETURNDATASIZE ADD AND DUP3 ADD PUSH1 0x40 MSTORE RETURNDATASIZE DUP3 MSTORE RETURNDATASIZE PUSH0 PUSH1 0x20 DUP5 ADD RETURNDATACOPY PUSH2 0x56B JUMP JUMPDEST PUSH1 0x60 SWAP2 POP JUMPDEST POP SWAP2 POP SWAP2 POP DUP2 PUSH2 0x5C7 JUMPI PUSH1 0x40 MLOAD PUSH3 0x461BCD PUSH1 0xE5 SHL DUP2 MSTORE PUSH1 0x20 PUSH1 0x4 DUP3 ADD MSTORE PUSH1 0x21 PUSH1 0x24 DUP3 ADD MSTORE PUSH32 0x41626F7274696E672C2063616C6C20776173206E6F7420737563636573736675 PUSH1 0x44 DUP3 ADD MSTORE PUSH1 0x1B PUSH1 0xFA SHL PUSH1 0x64 DUP3 ADD MSTORE PUSH1 0x84 ADD PUSH2 0x266 JUMP JUMPDEST SWAP6 SWAP5 POP POP POP POP POP JUMP JUMPDEST CALLER PUSH0 SWAP1 DUP2 MSTORE PUSH1 0x3 PUSH1 0x20 MSTORE PUSH1 0x40 SWAP1 KECCAK256 SLOAD PUSH1 0xFF AND PUSH2 0x645 JUMPI PUSH1 0x40 MLOAD PUSH3 0x461BCD PUSH1 0xE5 SHL DUP2 MSTORE PUSH1 0x20 PUSH1 0x4 DUP3 ADD MSTORE PUSH1 0x2E PUSH1 0x24 DUP3 ADD MSTORE PUSH32 0x596F7520617265206E6F7420677561726469616E206F6620746869732077616C PUSH1 0x44 DUP3 ADD MSTORE PUSH14 0x6C65742C2061626F7274696E6721 PUSH1 0x90 SHL PUSH1 0x64 DUP3 ADD MSTORE PUSH1 0x84 ADD PUSH2 0x266 JUMP JUMPDEST PUSH1 0x1 PUSH1 0x1 PUSH1 0xA0 SHL SUB DUP2 AND PUSH0 SWAP1 DUP2 MSTORE PUSH1 0x4 PUSH1 0x20 SWAP1 DUP2 MSTORE PUSH1 0x40 DUP1 DUP4 KECCAK256 CALLER DUP5 MSTORE SWAP1 SWAP2 MSTORE SWAP1 KECCAK256 SLOAD PUSH1 0xFF AND ISZERO PUSH2 0x6B8 JUMPI PUSH1 0x40 MLOAD PUSH3 0x461BCD PUSH1 0xE5 SHL DUP2 MSTORE PUSH1 0x20 PUSH1 0x4 DUP3 ADD MSTORE PUSH1 0x1C PUSH1 0x24 DUP3 ADD MSTORE PUSH32 0x596F7520616C726561647920766F7465642C2061626F7274696E672100000000 PUSH1 0x44 DUP3 ADD MSTORE PUSH1 0x64 ADD PUSH2 0x266 JUMP JUMPDEST PUSH1 0x5 SLOAD PUSH1 0x1 PUSH1 0x1 PUSH1 0xA0 SHL SUB DUP3 DUP2 AND SWAP2 AND EQ PUSH2 0x6ED JUMPI PUSH1 0x5 DUP1 SLOAD PUSH1 0x1 PUSH1 0x1 PUSH1 0xA0 SHL SUB NOT AND PUSH1 0x1 PUSH1 0x1 PUSH1 0xA0 SHL SUB DUP4 AND OR SWAP1 SSTORE PUSH0 PUSH1 0x6 SSTORE JUMPDEST PUSH1 0x6 DUP1 SLOAD SWAP1 PUSH0 PUSH2 0x6FC DUP4 PUSH2 0x928 JUMP JUMPDEST SWAP2 SWAP1 POP SSTORE POP PUSH1 0x3 PUSH1 0x6 SLOAD LT PUSH2 0x730 JUMPI PUSH1 0x5 DUP1 SLOAD PUSH0 DUP1 SLOAD PUSH1 0x1 PUSH1 0x1 PUSH1 0xA0 SHL SUB NOT SWAP1 DUP2 AND PUSH1 0x1 PUSH1 0x1 PUSH1 0xA0 SHL SUB DUP5 AND OR SWAP1 SWAP2 SSTORE AND SWAP1 SSTORE JUMPDEST POP JUMP JUMPDEST PUSH1 0x1 PUSH1 0x1 PUSH1 0xA0 SHL SUB DUP2 AND DUP2 EQ PUSH2 0x730 JUMPI PUSH0 DUP1 REVERT JUMPDEST PUSH0 PUSH1 0x20 DUP3 DUP5 SUB SLT ISZERO PUSH2 0x757 JUMPI PUSH0 DUP1 REVERT JUMPDEST DUP2 CALLDATALOAD PUSH2 0x762 DUP2 PUSH2 0x733 JUMP JUMPDEST SWAP4 SWAP3 POP POP POP JUMP JUMPDEST PUSH0 DUP1 PUSH1 0x40 DUP4 DUP6 SUB SLT ISZERO PUSH2 0x77A JUMPI PUSH0 DUP1 REVERT JUMPDEST DUP3 CALLDATALOAD PUSH2 0x785 DUP2 PUSH2 0x733 JUMP JUMPDEST SWAP2 POP PUSH1 0x20 DUP4 ADD CALLDATALOAD DUP1 ISZERO ISZERO DUP2 EQ PUSH2 0x799 JUMPI PUSH0 DUP1 REVERT JUMPDEST DUP1 SWAP2 POP POP SWAP3 POP SWAP3 SWAP1 POP JUMP JUMPDEST PUSH0 DUP1 PUSH1 0x40 DUP4 DUP6 SUB SLT ISZERO PUSH2 0x7B5 JUMPI PUSH0 DUP1 REVERT JUMPDEST DUP3 CALLDATALOAD PUSH2 0x7C0 DUP2 PUSH2 0x733 JUMP JUMPDEST SWAP5 PUSH1 0x20 SWAP4 SWAP1 SWAP4 ADD CALLDATALOAD SWAP4 POP POP POP JUMP JUMPDEST PUSH4 0x4E487B71 PUSH1 0xE0 SHL PUSH0 MSTORE PUSH1 0x41 PUSH1 0x4 MSTORE PUSH1 0x24 PUSH0 REVERT JUMPDEST PUSH0 DUP1 PUSH0 PUSH1 0x60 DUP5 DUP7 SUB SLT ISZERO PUSH2 0x7F4 JUMPI PUSH0 DUP1 REVERT JUMPDEST DUP4 CALLDATALOAD PUSH2 0x7FF DUP2 PUSH2 0x733 JUMP JUMPDEST SWAP3 POP PUSH1 0x20 DUP5 ADD CALLDATALOAD SWAP2 POP PUSH1 0x40 DUP5 ADD CALLDATALOAD PUSH8 0xFFFFFFFFFFFFFFFF DUP2 GT ISZERO PUSH2 0x821 JUMPI PUSH0 DUP1 REVERT JUMPDEST DUP5 ADD PUSH1 0x1F DUP2 ADD DUP7 SGT PUSH2 0x831 JUMPI PUSH0 DUP1 REVERT JUMPDEST DUP1 CALLDATALOAD PUSH8 0xFFFFFFFFFFFFFFFF DUP2 GT ISZERO PUSH2 0x84B JUMPI PUSH2 0x84B PUSH2 0x7CE JUMP JUMPDEST PUSH1 0x40 MLOAD PUSH1 0x1F DUP3 ADD PUSH1 0x1F NOT SWAP1 DUP2 AND PUSH1 0x3F ADD AND DUP2 ADD PUSH8 0xFFFFFFFFFFFFFFFF DUP2 GT DUP3 DUP3 LT OR ISZERO PUSH2 0x87A JUMPI PUSH2 0x87A PUSH2 0x7CE JUMP JUMPDEST PUSH1 0x40 MSTORE DUP2 DUP2 MSTORE DUP3 DUP3 ADD PUSH1 0x20 ADD DUP9 LT ISZERO PUSH2 0x891 JUMPI PUSH0 DUP1 REVERT JUMPDEST DUP2 PUSH1 0x20 DUP5 ADD PUSH1 0x20 DUP4 ADD CALLDATACOPY PUSH0 PUSH1 0x20 DUP4 DUP4 ADD ADD MSTORE DUP1 SWAP4 POP POP POP POP SWAP3 POP SWAP3 POP SWAP3 JUMP JUMPDEST PUSH1 0x20 DUP2 MSTORE PUSH0 DUP3 MLOAD DUP1 PUSH1 0x20 DUP5 ADD MSTORE DUP1 PUSH1 0x20 DUP6 ADD PUSH1 0x40 DUP6 ADD MCOPY PUSH0 PUSH1 0x40 DUP3 DUP6 ADD ADD MSTORE PUSH1 0x40 PUSH1 0x1F NOT PUSH1 0x1F DUP4 ADD AND DUP5 ADD ADD SWAP2 POP POP SWAP3 SWAP2 POP POP JUMP JUMPDEST PUSH4 0x4E487B71 PUSH1 0xE0 SHL PUSH0 MSTORE PUSH1 0x11 PUSH1 0x4 MSTORE PUSH1 0x24 PUSH0 REVERT JUMPDEST DUP2 DUP2 SUB DUP2 DUP2 GT ISZERO PUSH2 0x90C JUMPI PUSH2 0x90C PUSH2 0x8E5 JUMP JUMPDEST SWAP3 SWAP2 POP POP JUMP JUMPDEST PUSH0 DUP3 MLOAD DUP1 PUSH1 0x20 DUP6 ADD DUP5 MCOPY PUSH0 SWAP3 ADD SWAP2 DUP3 MSTORE POP SWAP2 SWAP1 POP JUMP JUMPDEST PUSH0 PUSH1 0x1 DUP3 ADD PUSH2 0x939 JUMPI PUSH2 0x939 PUSH2 0x8E5 JUMP JUMPDEST POP PUSH1 0x1 ADD SWAP1 JUMP INVALID LOG2 PUSH5 0x6970667358 0x22 SLT KECCAK256 PUSH25 0xCA23F873DC3FAA3E5DCD9CB102BBE8513D2DB0CACCF0A61C39 0xBC 0xCB 0xE4 0xE3 BLOBHASH 0xFB PUSH5 0x736F6C6343 STOP ADDMOD BYTE STOP CALLER "
				},
				"gasEstimates": {
					"creation": {
						"codeDepositCost": "484400",
						"executionCost": "24750",
						"totalCost": "509150"
					},
					"external": {
						"Transfer(address,uint256,bytes)": "infinite",
						"allowance(address)": "2510",
						"confirmationFromGuardiansForReset()": "216",
						"guardians(address)": "2512",
						"isAllowedToSend(address)": "2534",
						"owner()": "2401",
						"proposeNewOwner(address)": "infinite",
						"setAllowance(address,uint256)": "49049",
						"setGuardian(address,bool)": "26869"
					}
				},
				"methodIdentifiers": {
					"Transfer(address,uint256,bytes)": "850a6919",
					"allowance(address)": "3e5beab9",
					"confirmationFromGuardiansForReset()": "58e404b1",
					"guardians(address)": "0633b14a",
					"isAllowedToSend(address)": "0bc605ad",
					"owner()": "8da5cb5b",
					"proposeNewOwner(address)": "b1f8100d",
					"setAllowance(address,uint256)": "310ec4a7",
					"setGuardian(address,bool)": "2b8a1c5a"
				}
			},
			"storageLayout": {
				"storage": [
					{
						"astId": 3,
						"contract": "Contracts/SmartWallet.sol:SmartContractWallet",
						"label": "owner",
						"offset": 0,
						"slot": "0",
						"type": "t_address_payable"
					},
					{
						"astId": 7,
						"contract": "Contracts/SmartWallet.sol:SmartContractWallet",
						"label": "allowance",
						"offset": 0,
						"slot": "1",
						"type": "t_mapping(t_address,t_uint256)"
					},
					{
						"astId": 11,
						"contract": "Contracts/SmartWallet.sol:SmartContractWallet",
						"label": "isAllowedToSend",
						"offset": 0,
						"slot": "2",
						"type": "t_mapping(t_address,t_bool)"
					},
					{
						"astId": 15,
						"contract": "Contracts/SmartWallet.sol:SmartContractWallet",
						"label": "guardians",
						"offset": 0,
						"slot": "3",
						"type": "t_mapping(t_address,t_bool)"
					},
					{
						"astId": 21,
						"contract": "Contracts/SmartWallet.sol:SmartContractWallet",
						"label": "nextOwnerGuardianVoteBool",
						"offset": 0,
						"slot": "4",
						"type": "t_mapping(t_address,t_mapping(t_address,t_bool))"
					},
					{
						"astId": 23,
						"contract": "Contracts/SmartWallet.sol:SmartContractWallet",
						"label": "nextOwner",
						"offset": 0,
						"slot": "5",
						"type": "t_address_payable"
					},
					{
						"astId": 25,
						"contract": "Contracts/SmartWallet.sol:SmartContractWallet",
						"label": "guardiansResetCount",
						"offset": 0,
						"slot": "6",
						"type": "t_uint256"
					}
				],
				"types": {
					"t_address": {
						"encoding": "inplace",
						"label": "address",
						"numberOfBytes": "20"
					},
					"t_address_payable": {
						"encoding": "inplace",
						"label": "address payable",
						"numberOfBytes": "20"
					},
					"t_bool": {
						"encoding": "inplace",
						"label": "bool",
						"numberOfBytes": "1"
					},
					"t_mapping(t_address,t_bool)": {
						"encoding": "mapping",
						"key": "t_address",
						"label": "mapping(address => bool)",
						"numberOfBytes": "32",
						"value": "t_bool"
					},
					"t_mapping(t_address,t_mapping(t_address,t_bool))": {
						"encoding": "mapping",
						"key": "t_address",
						"label": "mapping(address => mapping(address => bool))",
						"numberOfBytes": "32",
						"value": "t_mapping(t_address,t_bool)"
					},
					"t_mapping(t_address,t_uint256)": {
						"encoding": "mapping",
						"key": "t_address",
						"label": "mapping(address => uint256)",
						"numberOfBytes": "32",
						"value": "t_uint256"
					},
					"t_uint256": {
						"encoding": "inplace",
						"label": "uint256",
						"numberOfBytes": "32"
					}
				}
			},
			"userdoc": {
				"kind": "user",
				"methods": {},
				"version": 1
			}
		}
	}
}