{
	"data": {
		"bytecode": {
			"linkReferences": {},
			"object": "6080604052348015600e575f80fd5b50600180546001600160a01b031916331790556121798061002e5f395ff3fe608060405260043610610137575f3560e01c8063a5c1674e116100af578063d4c06b8d1161006b578063d4c06b8d14610478578063e43caa911461048c578063ef32fc51146104ab578063fbcbc0f1146104c0578063ff4db8981461059a578063ff69d8df146105b957005b8063a5c1674e14610306578063b1ae266b14610325578063bd14de9614610344578063c0d588351461041b578063c7a488a11461043a578063cf3b8fc71461045957005b80634f9f6fe6116100fe5780634f9f6fe6146101fc5780635ec448c7146102285780638589c725146102a1578063880b5212146102c057806388945938146102c8578063a151bc22146102e757005b806304bf66c6146101405780630de37bf61461015f5780630fe629ee1461017e5780631cefaf22146101a65780633d6b56e9146101dd57005b3661013e57005b005b34801561014b575f80fd5b5061013e61015a366004611c80565b6105f0565b34801561016a575f80fd5b5061013e610179366004611ca0565b610825565b348015610189575f80fd5b5061019360035481565b6040519081526020015b60405180910390f35b3480156101b1575f80fd5b506001546101c5906001600160a01b031681565b6040516001600160a01b03909116815260200161019d565b3480156101e8575f80fd5b506101c56101f7366004611c80565b610a92565b348015610207575f80fd5b5061021b610216366004611cc9565b610abb565b60405161019d9190611ce0565b348015610233575f80fd5b50610275610242366004611cc9565b60046020525f908152604090208054600182015460028301546003909301546001600160a01b0390921692909160ff1684565b604080516001600160a01b0390951685526020850193909352918301521515606082015260800161019d565b3480156102ac575f80fd5b5061013e6102bb366004611cc9565b610b5d565b61013e610ce3565b3480156102d3575f80fd5b5061013e6102e2366004611cc9565b610e70565b3480156102f2575f80fd5b506101c5610301366004611c80565b610faf565b348015610311575f80fd5b5061013e610320366004611cc9565b611050565b348015610330575f80fd5b5061013e61033f366004611d96565b61112b565b34801561034f575f80fd5b506103c061035e366004611cc9565b600560208190525f91825260409091208054600182015460028301546003840154600485015494909501546001600160a01b039384169592841694919093169260ff808216916101008104821691620100008204811691630100000090041689565b604080516001600160a01b039a8b168152988a1660208a0152969098169587019590955260608601939093526080850191909152151560a0840152151560c0830152151560e08201529015156101008201526101200161019d565b348015610426575f80fd5b5061013e610435366004611dcf565b611379565b348015610445575f80fd5b5061013e610454366004611cc9565b611502565b348015610464575f80fd5b5061013e610473366004611c80565b6115d2565b348015610483575f80fd5b506101935f5481565b348015610497575f80fd5b5061013e6104a6366004611cc9565b6116b8565b3480156104b6575f80fd5b5061019360025481565b3480156104cb575f80fd5b5061055f6104da366004611e0f565b604080516080810182525f808252602082018190529181018290526060810191909152506001600160a01b03165f908152600760209081526040918290208251608081018452905460ff808216151583526101008204811615159383019390935262010000810483161515938201939093526301000000909204161515606082015290565b60405161019d919081511515815260208083015115159082015260408083015115159082015260609182015115159181019190915260800190565b3480156105a5575f80fd5b5061013e6105b4366004611d96565b611852565b3480156105c4575f80fd5b506101c56105d3366004611cc9565b5f908152600560205260409020600201546001600160a01b031690565b335f9081526007602052604090205460ff16151560011461062c5760405162461bcd60e51b815260040161062390611e2f565b60405180910390fd5b5f828152600460205260409020546001600160a01b031633146106615760405162461bcd60e51b815260040161062390611e74565b5f8281526004602052604090206003015460ff16156106925760405162461bcd60e51b815260040161062390611eb9565b61069a611c35565b3381525f8381526006602090815260408083208584528252808320546001600160a01b0316828501528583526004909152812060029081015460608401528054916106e483611efb565b9091555050600280545f908152600560208181526040808420865181546001600160a01b03199081166001600160a01b039283161783558885018051600180860180548516928616929092179091558a860151998501805490931699841699909917909155606089015160038085019190915560808a015160048086019190915560a08b015194909701805460c08c015160e08d0151610100808f015161ffff1990941698151561ff001916989098179115159097021763ffff00001916620100009615159690960263ff000000191695909517630100000095151595909502949094179093558a87529490935293819020909301805460ff19169094179093555190519116907f6f90f2cb171bda4337d0bf803c1d78800ec0908f0e1ae7539c944d55166506dc90610818908490611ce0565b60405180910390a2505050565b5f838152600560205260409020600201546001600160a01b0316331461085d5760405162461bcd60e51b815260040161062390611f13565b5f838152600560208190526040909120015462010000900460ff1615156001146108995760405162461bcd60e51b815260040161062390611f5e565b5f83815260056020819052604090912001546301000000900460ff16156109025760405162461bcd60e51b815260206004820152601e60248201527f54686973206469737075746520686173206265656e207265736f6c76656400006044820152606401610623565b61090c8183611fa9565b6064146109515760405162461bcd60e51b8152602060048201526013602482015272496e76616c69642070657263656e746167657360681b6044820152606401610623565b5f8381526005602081905260408220908101805463ff00000019166301000000179055600301549060646109858584611fbc565b61098f9190611fd3565b90505f606461099e8585611fbc565b6109a89190611fd3565b5f878152600560205260408082206001015490519293506001600160a01b03169184156108fc0291859190818181858888f193505050501580156109ee573d5f803e3d5ffd5b505f868152600560205260408082205490516001600160a01b039091169183156108fc02918491818181858888f19350505050158015610a30573d5f803e3d5ffd5b50825f80828254610a419190611ff2565b90915550505f868152600560205260409081902090517fe990074bc649f32546aa103bec609bbe502737d71777a6037c3014540965022d91610a82916120a7565b60405180910390a1505050505050565b5f828152600a602090815260408083208484529091529020546001600160a01b03165b92915050565b610ac3611c35565b505f9081526005602081815260409283902083516101208101855281546001600160a01b0390811682526001830154811693820193909352600282015490921693820193909352600383015460608201526004830154608082015291015460ff808216151560a08401526101008083048216151560c08501526201000083048216151560e085015263010000009092041615159082015290565b335f9081526007602052604090205460ff161515600114610b905760405162461bcd60e51b815260040161062390611e2f565b5f818152600460205260409020546001600160a01b03163314610bc55760405162461bcd60e51b815260040161062390611e74565b5f8181526004602052604090206003015460ff1615610bf65760405162461bcd60e51b815260040161062390611eb9565b5f8181526004602052604081206002015490541015610c4c5760405162461bcd60e51b81526020600482015260126024820152714e6f7420656e6f7567682062616c616e636560701b6044820152606401610623565b5f8181526004602052604080822060028101546003909101805460ff1916600117905590519091339183156108fc0291849190818181858888f19350505050158015610c9a573d5f803e3d5ffd5b505f828152600460205260409081902090517fe5c60e6208ca49d9d44a816d227cdb520b6a0fa42101047e8154b3c348279a8191610cd7916120b6565b60405180910390a15050565b335f9081526007602052604090205460ff161515600114610d165760405162461bcd60e51b815260040161062390611e2f565b64e8d4a51000341015610d6b5760405162461bcd60e51b815260206004820152601960248201527f496e73756666696369656e74207374616b6520616d6f756e74000000000000006044820152606401610623565b604080516080810182525f60208201819052606082018190523382523492820183905280549192918291908190610da3908490611fa9565b909155505060038054905f610db783611efb565b9091555050600380545f90815260046020908152604091829020855181546001600160a01b0319166001600160a01b03909116908117825586830180516001840155878501805160028501556060808a01805195909801805460ff1916951515959095179094558551928352905193820193909352915192820192909252915115159082015233907f895c597c2d3a11527efbca5886dfe0f80c120de0f56aeefa770e2360dfd279559060800160405180910390a25050565b335f9081526007602052604090205460ff610100909104161515600114610ee75760405162461bcd60e51b815260206004820152602560248201527f596f75206e65656420746f20626520616e20656d706c6f79656520746f20646f604482015264081d1a185d60da1b6064820152608401610623565b5f8181526004602052604090206003015460ff1615610f185760405162461bcd60e51b815260040161062390611eb9565b5f818152600460205260408120600101805491610f3483611efb565b90915550505f81815260066020908152604080832060048084528285206001810154865291845282852080546001600160a01b0319163390811790915594869052909252517f4f3464a1af62143857ad68d2002715db4c011db3a046f5a7321e3d70ad1e529291610fa4916120b6565b60405180910390a250565b5f828152600460205260408120546001600160a01b0316331461102a5760405162461bcd60e51b815260206004820152602d60248201527f596f7520617265206e6f742074686520656d706c6f796572206f66207468697360448201526c206f66666572656420576f726b60981b6064820152608401610623565b505f9182526006602090815260408084209284529190529020546001600160a01b031690565b5f818152600560205260409020600101546001600160a01b031633148061108c57505f818152600560205260409020546001600160a01b031633145b6110d85760405162461bcd60e51b815260206004820152601b60248201527f596f7520646f206e6f7420706f7373657320617574686f7269747900000000006044820152606401610623565b5f81815260056020819052604091829020908101805462ff0000191662010000179055905133917f105ed52343dc940b3bdbdbdcc2e60c1dc6839b1381ceaedda9dadc75ecf8f0b591610fa491906120a7565b6001546001600160a01b031633146111555760405162461bcd60e51b815260040161062390611f13565b5f828152600560208190526040909120015462010000900460ff1615156001146111915760405162461bcd60e51b815260040161062390611f5e565b5f828152600560205260409020600101546001600160a01b03828116911614806111d357505f828152600560205260409020546001600160a01b038281169116145b6112535760405162461bcd60e51b8152602060048201526044602482018190527f5468652062656e6566696369617279206973206e6f7420616e20656d706c6f79908201527f6565206e6f7220616e20656d706c6f796572206f6620746869732061677265656064820152631b595b9d60e21b608482015260a401610623565b5f82815260056020819052604090912001546301000000900460ff16156112bc5760405162461bcd60e51b815260206004820152601e60248201527f54686973206469737075746520686173206265656e207265736f6c76656400006044820152606401610623565b5f828152600560208190526040808320918201805463ff00000019166301000000179055600390910154905190916001600160a01b0384169183156108fc0291849190818181858888f1935050505015801561131a573d5f803e3d5ffd5b50805f8082825461132b9190611ff2565b90915550505f838152600560205260409081902090517fe990074bc649f32546aa103bec609bbe502737d71777a6037c3014540965022d9161136c916120a7565b60405180910390a1505050565b5f831561138e578061138a81611efb565b9150505b82156113a2578061139e81611efb565b9150505b81156113b657806113b281611efb565b9150505b806001146114065760405162461bcd60e51b815260206004820152601860248201527f506c656173652063686f6f7365206f6e65206f7074696f6e00000000000000006044820152606401610623565b335f908152600760205260409020546301000000900460ff161561146c5760405162461bcd60e51b815260206004820152601a60248201527f596f752061726520616c726561647920726567697374657265640000000000006044820152606401610623565b60408051608080820183525f80835260208084018290528385018290526060938401829052339182905260078152845192830185528615158386018190528815158085528a1515858401819052600186880152875190815292830152818601529351919390927fd57b2b801ec598b0ff16aa0e5b33857b32ac2725fde743b6b641d8826fda041f92918290030190a25050505050565b5f818152600560205260409020600101546001600160a01b0316331461157d5760405162461bcd60e51b815260206004820152602a60248201527f596f7520617265206e6f742074686520656d706c6f796565206f662074686973604482015269081859dc99595b595b9d60b21b6064820152608401610623565b5f81815260056020818152604092839020909101805460ff1916600190811790915591519182527f6b5b92d1755824b841015b7514f1ac495070c0c43a54e1910906802b69d8ef1a910160405180910390a150565b5f828152600a602090815260408083208484529091529020546001600160a01b031633146116685760405162461bcd60e51b815260206004820152603760248201527f596f7520617265206e6f742061736b656420746f20626520746865206d69646460448201527f6c656d616e206f6620746869732061677265656d656e740000000000000000006064820152608401610623565b5f82815260056020526040908190206002810180546001600160a01b0319163317905590517fd217779db836ec8fbee3cbc07d88c8444ed736420f831b8cbfb107ce43bc653291610cd7916120a7565b5f818152600560205260409020546001600160a01b031633146117305760405162461bcd60e51b815260206004820152602a60248201527f596f7520617265206e6f742074686520656d706c6f796572206f662074686973604482015269081859dc99595b595b9d60b21b6064820152608401610623565b5f818152600560208190526040909120015460ff1615156001146117aa5760405162461bcd60e51b815260206004820152602b60248201527f54686520656d706c6f796565206973206e6f7420646f6e65207769746820746860448201526a1a5cc81d185cdac81e595d60aa1b6064820152608401610623565b5f818152600560208190526040808320918201805461ff001916610100179055600382015460019290920154905191926001600160a01b039091169183156108fc0291849190818181858888f1935050505015801561180b573d5f803e3d5ffd5b50805f8082825461181c9190611ff2565b9091555050604051600181527fa4ede5d74c01c87599cae178018f06f538ed1c40ac51ee85cbe677e1f750174190602001610cd7565b5f828152600560205260409020600101546001600160a01b031633148061188e57505f828152600560205260409020546001600160a01b031633145b6118da5760405162461bcd60e51b815260206004820152601e60248201527f596f7520617265206e6f7420616c6c6f77656420746f207375676765737400006044820152606401610623565b5f8281526008602090815260408083206001600160a01b0385168452825280832033845290915290205460ff16156119605760405162461bcd60e51b8152602060048201526024808201527f596f7520616c726561647920766f74656420666f722074686973206d6964646c60448201526332b6b0b760e11b6064820152608401610623565b5f828152600560205260409020600201546001600160a01b0316156119c75760405162461bcd60e51b815260206004820152601c60248201527f596f7520616c726561647920686176652061206d6964646c656d616e000000006044820152606401610623565b6001600160a01b0381165f9081526007602052604090205462010000900460ff16611a345760405162461bcd60e51b815260206004820152601f60248201527f546869732061646472657373206973206e6f742061206d6964646c656d616e006044820152606401610623565b5f8281526008602090815260408083206001600160a01b0385168085529083528184203385528352818420805460ff19166001179055858452600983528184209084529091528120805491611a8883611efb565b90915550505f828152600560205260409081902090517ff9130ec99c57e242455fa6af989447a84bbe8fe52a70cbcaf13a9652aa089b5091611acd91339185916120ed565b60405180910390a15f8281526009602090815260408083206001600160a01b0385168452909152902054600203611b0857611b088282611b0c565b5050565b5f828152600560205260409020600101546001600160a01b0316331480611b4857505f828152600560205260409020546001600160a01b031633145b611ba05760405162461bcd60e51b8152602060048201526024808201527f596f7520617265206e6f7420616c6c6f77656420746f20736574206d6964646c60448201526332b6b0b760e11b6064820152608401610623565b5f828152600560205260408120600401805491611bbc83611efb565b90915550505f828152600a6020908152604080832060058084528285206004810154865291845282852080546001600160a01b0319166001600160a01b0388161790559386905292909152517fa5bbda7fa17282c4725e052ae921aa2682773044aee6155c8eba5622f7800c0991610cd791849061211b565b60408051610120810182525f80825260208201819052918101829052606081018290526080810182905260a0810182905260c0810182905260e0810182905261010081019190915290565b5f8060408385031215611c91575f80fd5b50508035926020909101359150565b5f805f60608486031215611cb2575f80fd5b505081359360208301359350604090920135919050565b5f60208284031215611cd9575f80fd5b5035919050565b81516001600160a01b0390811682526020808401518216908301526040808401519182169083015261012082019050606083015160608301526080830151608083015260a0830151611d3660a084018215159052565b5060c0830151611d4a60c084018215159052565b5060e0830151611d5e60e084018215159052565b50610100830151611d7461010084018215159052565b5092915050565b80356001600160a01b0381168114611d91575f80fd5b919050565b5f8060408385031215611da7575f80fd5b82359150611db760208401611d7b565b90509250929050565b80358015158114611d91575f80fd5b5f805f60608486031215611de1575f80fd5b611dea84611dc0565b9250611df860208501611dc0565b9150611e0660408501611dc0565b90509250925092565b5f60208284031215611e1f575f80fd5b611e2882611d7b565b9392505050565b60208082526025908201527f596f75206e65656420746f20626520616e20656d706c6f79657220746f20646f604082015264081d1a185d60da1b606082015260800190565b60208082526025908201527f596f7520617265206e6f742074686520656d706c6f796572206f66207468697360408201526420776f726b60d81b606082015260800190565b6020808252601490820152732a3434b9903a30b9b59034b9903737bb9037b33360611b604082015260600190565b634e487b7160e01b5f52601160045260245ffd5b5f60018201611f0c57611f0c611ee7565b5060010190565b6020808252602b908201527f596f7520617265206e6f7420616c6c6f77656420746f207265736f6c7665207460408201526a686973206469737075746560a81b606082015260800190565b6020808252602b908201527f5468657265206973206e6f206469737075746520726169656420696e2074686960408201526a1cc81859dc99595b595b9d60aa1b606082015260800190565b80820180821115610ab557610ab5611ee7565b8082028115828204841417610ab557610ab5611ee7565b5f82611fed57634e487b7160e01b5f52601260045260245ffd5b500490565b81810381811115610ab557610ab5611ee7565b6120278261201a83546001600160a01b031690565b6001600160a01b03169052565b60018101546001600160a01b03908116602084015260028201541660408301526003810154606083015260048101546080830152600581015460ff808216151560a0850152600882901c16151560c084015261208d60e0840160ff8360101c1615159052565b6120a2610100840160ff8360181c1615159052565b505050565b6101208101610ab58284612005565b81546001600160a01b03168152600182015460208201526002820154604082015260039091015460ff161515606082015260800190565b6001600160a01b0384811682528316602082015261016081016121136040830184612005565b949350505050565b610140810161212a8285612005565b6001600160a01b0392909216610120919091015291905056fea2646970667358221220720f2899153076180102134667ad70884a57bac25894238551eb2c244fc0b86164736f6c634300081a0033",
			"opcodes": "PUSH1 0x80 PUSH1 0x40 MSTORE CALLVALUE DUP1 ISZERO PUSH1 0xE JUMPI PUSH0 DUP1 REVERT JUMPDEST POP PUSH1 0x1 DUP1 SLOAD PUSH1 0x1 PUSH1 0x1 PUSH1 0xA0 SHL SUB NOT AND CALLER OR SWAP1 SSTORE PUSH2 0x2179 DUP1 PUSH2 0x2E PUSH0 CODECOPY PUSH0 RETURN INVALID PUSH1 0x80 PUSH1 0x40 MSTORE PUSH1 0x4 CALLDATASIZE LT PUSH2 0x137 JUMPI PUSH0 CALLDATALOAD PUSH1 0xE0 SHR DUP1 PUSH4 0xA5C1674E GT PUSH2 0xAF JUMPI DUP1 PUSH4 0xD4C06B8D GT PUSH2 0x6B JUMPI DUP1 PUSH4 0xD4C06B8D EQ PUSH2 0x478 JUMPI DUP1 PUSH4 0xE43CAA91 EQ PUSH2 0x48C JUMPI DUP1 PUSH4 0xEF32FC51 EQ PUSH2 0x4AB JUMPI DUP1 PUSH4 0xFBCBC0F1 EQ PUSH2 0x4C0 JUMPI DUP1 PUSH4 0xFF4DB898 EQ PUSH2 0x59A JUMPI DUP1 PUSH4 0xFF69D8DF EQ PUSH2 0x5B9 JUMPI STOP JUMPDEST DUP1 PUSH4 0xA5C1674E EQ PUSH2 0x306 JUMPI DUP1 PUSH4 0xB1AE266B EQ PUSH2 0x325 JUMPI DUP1 PUSH4 0xBD14DE96 EQ PUSH2 0x344 JUMPI DUP1 PUSH4 0xC0D58835 EQ PUSH2 0x41B JUMPI DUP1 PUSH4 0xC7A488A1 EQ PUSH2 0x43A JUMPI DUP1 PUSH4 0xCF3B8FC7 EQ PUSH2 0x459 JUMPI STOP JUMPDEST DUP1 PUSH4 0x4F9F6FE6 GT PUSH2 0xFE JUMPI DUP1 PUSH4 0x4F9F6FE6 EQ PUSH2 0x1FC JUMPI DUP1 PUSH4 0x5EC448C7 EQ PUSH2 0x228 JUMPI DUP1 PUSH4 0x8589C725 EQ PUSH2 0x2A1 JUMPI DUP1 PUSH4 0x880B5212 EQ PUSH2 0x2C0 JUMPI DUP1 PUSH4 0x88945938 EQ PUSH2 0x2C8 JUMPI DUP1 PUSH4 0xA151BC22 EQ PUSH2 0x2E7 JUMPI STOP JUMPDEST DUP1 PUSH4 0x4BF66C6 EQ PUSH2 0x140 JUMPI DUP1 PUSH4 0xDE37BF6 EQ PUSH2 0x15F JUMPI DUP1 PUSH4 0xFE629EE EQ PUSH2 0x17E JUMPI DUP1 PUSH4 0x1CEFAF22 EQ PUSH2 0x1A6 JUMPI DUP1 PUSH4 0x3D6B56E9 EQ PUSH2 0x1DD JUMPI STOP JUMPDEST CALLDATASIZE PUSH2 0x13E JUMPI STOP JUMPDEST STOP JUMPDEST CALLVALUE DUP1 ISZERO PUSH2 0x14B JUMPI PUSH0 DUP1 REVERT JUMPDEST POP PUSH2 0x13E PUSH2 0x15A CALLDATASIZE PUSH1 0x4 PUSH2 0x1C80 JUMP JUMPDEST PUSH2 0x5F0 JUMP JUMPDEST CALLVALUE DUP1 ISZERO PUSH2 0x16A JUMPI PUSH0 DUP1 REVERT JUMPDEST POP PUSH2 0x13E PUSH2 0x179 CALLDATASIZE PUSH1 0x4 PUSH2 0x1CA0 JUMP JUMPDEST PUSH2 0x825 JUMP JUMPDEST CALLVALUE DUP1 ISZERO PUSH2 0x189 JUMPI PUSH0 DUP1 REVERT JUMPDEST POP PUSH2 0x193 PUSH1 0x3 SLOAD DUP2 JUMP JUMPDEST PUSH1 0x40 MLOAD SWAP1 DUP2 MSTORE PUSH1 0x20 ADD JUMPDEST PUSH1 0x40 MLOAD DUP1 SWAP2 SUB SWAP1 RETURN JUMPDEST CALLVALUE DUP1 ISZERO PUSH2 0x1B1 JUMPI PUSH0 DUP1 REVERT JUMPDEST POP PUSH1 0x1 SLOAD PUSH2 0x1C5 SWAP1 PUSH1 0x1 PUSH1 0x1 PUSH1 0xA0 SHL SUB AND DUP2 JUMP JUMPDEST PUSH1 0x40 MLOAD PUSH1 0x1 PUSH1 0x1 PUSH1 0xA0 SHL SUB SWAP1 SWAP2 AND DUP2 MSTORE PUSH1 0x20 ADD PUSH2 0x19D JUMP JUMPDEST CALLVALUE DUP1 ISZERO PUSH2 0x1E8 JUMPI PUSH0 DUP1 REVERT JUMPDEST POP PUSH2 0x1C5 PUSH2 0x1F7 CALLDATASIZE PUSH1 0x4 PUSH2 0x1C80 JUMP JUMPDEST PUSH2 0xA92 JUMP JUMPDEST CALLVALUE DUP1 ISZERO PUSH2 0x207 JUMPI PUSH0 DUP1 REVERT JUMPDEST POP PUSH2 0x21B PUSH2 0x216 CALLDATASIZE PUSH1 0x4 PUSH2 0x1CC9 JUMP JUMPDEST PUSH2 0xABB JUMP JUMPDEST PUSH1 0x40 MLOAD PUSH2 0x19D SWAP2 SWAP1 PUSH2 0x1CE0 JUMP JUMPDEST CALLVALUE DUP1 ISZERO PUSH2 0x233 JUMPI PUSH0 DUP1 REVERT JUMPDEST POP PUSH2 0x275 PUSH2 0x242 CALLDATASIZE PUSH1 0x4 PUSH2 0x1CC9 JUMP JUMPDEST PUSH1 0x4 PUSH1 0x20 MSTORE PUSH0 SWAP1 DUP2 MSTORE PUSH1 0x40 SWAP1 KECCAK256 DUP1 SLOAD PUSH1 0x1 DUP3 ADD SLOAD PUSH1 0x2 DUP4 ADD SLOAD PUSH1 0x3 SWAP1 SWAP4 ADD SLOAD PUSH1 0x1 PUSH1 0x1 PUSH1 0xA0 SHL SUB SWAP1 SWAP3 AND SWAP3 SWAP1 SWAP2 PUSH1 0xFF AND DUP5 JUMP JUMPDEST PUSH1 0x40 DUP1 MLOAD PUSH1 0x1 PUSH1 0x1 PUSH1 0xA0 SHL SUB SWAP1 SWAP6 AND DUP6 MSTORE PUSH1 0x20 DUP6 ADD SWAP4 SWAP1 SWAP4 MSTORE SWAP2 DUP4 ADD MSTORE ISZERO ISZERO PUSH1 0x60 DUP3 ADD MSTORE PUSH1 0x80 ADD PUSH2 0x19D JUMP JUMPDEST CALLVALUE DUP1 ISZERO PUSH2 0x2AC JUMPI PUSH0 DUP1 REVERT JUMPDEST POP PUSH2 0x13E PUSH2 0x2BB CALLDATASIZE PUSH1 0x4 PUSH2 0x1CC9 JUMP JUMPDEST PUSH2 0xB5D JUMP JUMPDEST PUSH2 0x13E PUSH2 0xCE3 JUMP JUMPDEST CALLVALUE DUP1 ISZERO PUSH2 0x2D3 JUMPI PUSH0 DUP1 REVERT JUMPDEST POP PUSH2 0x13E PUSH2 0x2E2 CALLDATASIZE PUSH1 0x4 PUSH2 0x1CC9 JUMP JUMPDEST PUSH2 0xE70 JUMP JUMPDEST CALLVALUE DUP1 ISZERO PUSH2 0x2F2 JUMPI PUSH0 DUP1 REVERT JUMPDEST POP PUSH2 0x1C5 PUSH2 0x301 CALLDATASIZE PUSH1 0x4 PUSH2 0x1C80 JUMP JUMPDEST PUSH2 0xFAF JUMP JUMPDEST CALLVALUE DUP1 ISZERO PUSH2 0x311 JUMPI PUSH0 DUP1 REVERT JUMPDEST POP PUSH2 0x13E PUSH2 0x320 CALLDATASIZE PUSH1 0x4 PUSH2 0x1CC9 JUMP JUMPDEST PUSH2 0x1050 JUMP JUMPDEST CALLVALUE DUP1 ISZERO PUSH2 0x330 JUMPI PUSH0 DUP1 REVERT JUMPDEST POP PUSH2 0x13E PUSH2 0x33F CALLDATASIZE PUSH1 0x4 PUSH2 0x1D96 JUMP JUMPDEST PUSH2 0x112B JUMP JUMPDEST CALLVALUE DUP1 ISZERO PUSH2 0x34F JUMPI PUSH0 DUP1 REVERT JUMPDEST POP PUSH2 0x3C0 PUSH2 0x35E CALLDATASIZE PUSH1 0x4 PUSH2 0x1CC9 JUMP JUMPDEST PUSH1 0x5 PUSH1 0x20 DUP2 SWAP1 MSTORE PUSH0 SWAP2 DUP3 MSTORE PUSH1 0x40 SWAP1 SWAP2 KECCAK256 DUP1 SLOAD PUSH1 0x1 DUP3 ADD SLOAD PUSH1 0x2 DUP4 ADD SLOAD PUSH1 0x3 DUP5 ADD SLOAD PUSH1 0x4 DUP6 ADD SLOAD SWAP5 SWAP1 SWAP6 ADD SLOAD PUSH1 0x1 PUSH1 0x1 PUSH1 0xA0 SHL SUB SWAP4 DUP5 AND SWAP6 SWAP3 DUP5 AND SWAP5 SWAP2 SWAP1 SWAP4 AND SWAP3 PUSH1 0xFF DUP1 DUP3 AND SWAP2 PUSH2 0x100 DUP2 DIV DUP3 AND SWAP2 PUSH3 0x10000 DUP3 DIV DUP2 AND SWAP2 PUSH4 0x1000000 SWAP1 DIV AND DUP10 JUMP JUMPDEST PUSH1 0x40 DUP1 MLOAD PUSH1 0x1 PUSH1 0x1 PUSH1 0xA0 SHL SUB SWAP11 DUP12 AND DUP2 MSTORE SWAP9 DUP11 AND PUSH1 0x20 DUP11 ADD MSTORE SWAP7 SWAP1 SWAP9 AND SWAP6 DUP8 ADD SWAP6 SWAP1 SWAP6 MSTORE PUSH1 0x60 DUP7 ADD SWAP4 SWAP1 SWAP4 MSTORE PUSH1 0x80 DUP6 ADD SWAP2 SWAP1 SWAP2 MSTORE ISZERO ISZERO PUSH1 0xA0 DUP5 ADD MSTORE ISZERO ISZERO PUSH1 0xC0 DUP4 ADD MSTORE ISZERO ISZERO PUSH1 0xE0 DUP3 ADD MSTORE SWAP1 ISZERO ISZERO PUSH2 0x100 DUP3 ADD MSTORE PUSH2 0x120 ADD PUSH2 0x19D JUMP JUMPDEST CALLVALUE DUP1 ISZERO PUSH2 0x426 JUMPI PUSH0 DUP1 REVERT JUMPDEST POP PUSH2 0x13E PUSH2 0x435 CALLDATASIZE PUSH1 0x4 PUSH2 0x1DCF JUMP JUMPDEST PUSH2 0x1379 JUMP JUMPDEST CALLVALUE DUP1 ISZERO PUSH2 0x445 JUMPI PUSH0 DUP1 REVERT JUMPDEST POP PUSH2 0x13E PUSH2 0x454 CALLDATASIZE PUSH1 0x4 PUSH2 0x1CC9 JUMP JUMPDEST PUSH2 0x1502 JUMP JUMPDEST CALLVALUE DUP1 ISZERO PUSH2 0x464 JUMPI PUSH0 DUP1 REVERT JUMPDEST POP PUSH2 0x13E PUSH2 0x473 CALLDATASIZE PUSH1 0x4 PUSH2 0x1C80 JUMP JUMPDEST PUSH2 0x15D2 JUMP JUMPDEST CALLVALUE DUP1 ISZERO PUSH2 0x483 JUMPI PUSH0 DUP1 REVERT JUMPDEST POP PUSH2 0x193 PUSH0 SLOAD DUP2 JUMP JUMPDEST CALLVALUE DUP1 ISZERO PUSH2 0x497 JUMPI PUSH0 DUP1 REVERT JUMPDEST POP PUSH2 0x13E PUSH2 0x4A6 CALLDATASIZE PUSH1 0x4 PUSH2 0x1CC9 JUMP JUMPDEST PUSH2 0x16B8 JUMP JUMPDEST CALLVALUE DUP1 ISZERO PUSH2 0x4B6 JUMPI PUSH0 DUP1 REVERT JUMPDEST POP PUSH2 0x193 PUSH1 0x2 SLOAD DUP2 JUMP JUMPDEST CALLVALUE DUP1 ISZERO PUSH2 0x4CB JUMPI PUSH0 DUP1 REVERT JUMPDEST POP PUSH2 0x55F PUSH2 0x4DA CALLDATASIZE PUSH1 0x4 PUSH2 0x1E0F JUMP JUMPDEST PUSH1 0x40 DUP1 MLOAD PUSH1 0x80 DUP2 ADD DUP3 MSTORE PUSH0 DUP1 DUP3 MSTORE PUSH1 0x20 DUP3 ADD DUP2 SWAP1 MSTORE SWAP2 DUP2 ADD DUP3 SWAP1 MSTORE PUSH1 0x60 DUP2 ADD SWAP2 SWAP1 SWAP2 MSTORE POP PUSH1 0x1 PUSH1 0x1 PUSH1 0xA0 SHL SUB AND PUSH0 SWAP1 DUP2 MSTORE PUSH1 0x7 PUSH1 0x20 SWAP1 DUP2 MSTORE PUSH1 0x40 SWAP2 DUP3 SWAP1 KECCAK256 DUP3 MLOAD PUSH1 0x80 DUP2 ADD DUP5 MSTORE SWAP1 SLOAD PUSH1 0xFF DUP1 DUP3 AND ISZERO ISZERO DUP4 MSTORE PUSH2 0x100 DUP3 DIV DUP2 AND ISZERO ISZERO SWAP4 DUP4 ADD SWAP4 SWAP1 SWAP4 MSTORE PUSH3 0x10000 DUP2 DIV DUP4 AND ISZERO ISZERO SWAP4 DUP3 ADD SWAP4 SWAP1 SWAP4 MSTORE PUSH4 0x1000000 SWAP1 SWAP3 DIV AND ISZERO ISZERO PUSH1 0x60 DUP3 ADD MSTORE SWAP1 JUMP JUMPDEST PUSH1 0x40 MLOAD PUSH2 0x19D SWAP2 SWAP1 DUP2 MLOAD ISZERO ISZERO DUP2 MSTORE PUSH1 0x20 DUP1 DUP4 ADD MLOAD ISZERO ISZERO SWAP1 DUP3 ADD MSTORE PUSH1 0x40 DUP1 DUP4 ADD MLOAD ISZERO ISZERO SWAP1 DUP3 ADD MSTORE PUSH1 0x60 SWAP2 DUP3 ADD MLOAD ISZERO ISZERO SWAP2 DUP2 ADD SWAP2 SWAP1 SWAP2 MSTORE PUSH1 0x80 ADD SWAP1 JUMP JUMPDEST CALLVALUE DUP1 ISZERO PUSH2 0x5A5 JUMPI PUSH0 DUP1 REVERT JUMPDEST POP PUSH2 0x13E PUSH2 0x5B4 CALLDATASIZE PUSH1 0x4 PUSH2 0x1D96 JUMP JUMPDEST PUSH2 0x1852 JUMP JUMPDEST CALLVALUE DUP1 ISZERO PUSH2 0x5C4 JUMPI PUSH0 DUP1 REVERT JUMPDEST POP PUSH2 0x1C5 PUSH2 0x5D3 CALLDATASIZE PUSH1 0x4 PUSH2 0x1CC9 JUMP JUMPDEST PUSH0 SWAP1 DUP2 MSTORE PUSH1 0x5 PUSH1 0x20 MSTORE PUSH1 0x40 SWAP1 KECCAK256 PUSH1 0x2 ADD SLOAD PUSH1 0x1 PUSH1 0x1 PUSH1 0xA0 SHL SUB AND SWAP1 JUMP JUMPDEST CALLER PUSH0 SWAP1 DUP2 MSTORE PUSH1 0x7 PUSH1 0x20 MSTORE PUSH1 0x40 SWAP1 KECCAK256 SLOAD PUSH1 0xFF AND ISZERO ISZERO PUSH1 0x1 EQ PUSH2 0x62C JUMPI PUSH1 0x40 MLOAD PUSH3 0x461BCD PUSH1 0xE5 SHL DUP2 MSTORE PUSH1 0x4 ADD PUSH2 0x623 SWAP1 PUSH2 0x1E2F JUMP JUMPDEST PUSH1 0x40 MLOAD DUP1 SWAP2 SUB SWAP1 REVERT JUMPDEST PUSH0 DUP3 DUP2 MSTORE PUSH1 0x4 PUSH1 0x20 MSTORE PUSH1 0x40 SWAP1 KECCAK256 SLOAD PUSH1 0x1 PUSH1 0x1 PUSH1 0xA0 SHL SUB AND CALLER EQ PUSH2 0x661 JUMPI PUSH1 0x40 MLOAD PUSH3 0x461BCD PUSH1 0xE5 SHL DUP2 MSTORE PUSH1 0x4 ADD PUSH2 0x623 SWAP1 PUSH2 0x1E74 JUMP JUMPDEST PUSH0 DUP3 DUP2 MSTORE PUSH1 0x4 PUSH1 0x20 MSTORE PUSH1 0x40 SWAP1 KECCAK256 PUSH1 0x3 ADD SLOAD PUSH1 0xFF AND ISZERO PUSH2 0x692 JUMPI PUSH1 0x40 MLOAD PUSH3 0x461BCD PUSH1 0xE5 SHL DUP2 MSTORE PUSH1 0x4 ADD PUSH2 0x623 SWAP1 PUSH2 0x1EB9 JUMP JUMPDEST PUSH2 0x69A PUSH2 0x1C35 JUMP JUMPDEST CALLER DUP2 MSTORE PUSH0 DUP4 DUP2 MSTORE PUSH1 0x6 PUSH1 0x20 SWAP1 DUP2 MSTORE PUSH1 0x40 DUP1 DUP4 KECCAK256 DUP6 DUP5 MSTORE DUP3 MSTORE DUP1 DUP4 KECCAK256 SLOAD PUSH1 0x1 PUSH1 0x1 PUSH1 0xA0 SHL SUB AND DUP3 DUP6 ADD MSTORE DUP6 DUP4 MSTORE PUSH1 0x4 SWAP1 SWAP2 MSTORE DUP2 KECCAK256 PUSH1 0x2 SWAP1 DUP2 ADD SLOAD PUSH1 0x60 DUP5 ADD MSTORE DUP1 SLOAD SWAP2 PUSH2 0x6E4 DUP4 PUSH2 0x1EFB JUMP JUMPDEST SWAP1 SWAP2 SSTORE POP POP PUSH1 0x2 DUP1 SLOAD PUSH0 SWAP1 DUP2 MSTORE PUSH1 0x5 PUSH1 0x20 DUP2 DUP2 MSTORE PUSH1 0x40 DUP1 DUP5 KECCAK256 DUP7 MLOAD DUP2 SLOAD PUSH1 0x1 PUSH1 0x1 PUSH1 0xA0 SHL SUB NOT SWAP1 DUP2 AND PUSH1 0x1 PUSH1 0x1 PUSH1 0xA0 SHL SUB SWAP3 DUP4 AND OR DUP4 SSTORE DUP9 DUP6 ADD DUP1 MLOAD PUSH1 0x1 DUP1 DUP7 ADD DUP1 SLOAD DUP6 AND SWAP3 DUP7 AND SWAP3 SWAP1 SWAP3 OR SWAP1 SWAP2 SSTORE DUP11 DUP7 ADD MLOAD SWAP10 DUP6 ADD DUP1 SLOAD SWAP1 SWAP4 AND SWAP10 DUP5 AND SWAP10 SWAP1 SWAP10 OR SWAP1 SWAP2 SSTORE PUSH1 0x60 DUP10 ADD MLOAD PUSH1 0x3 DUP1 DUP6 ADD SWAP2 SWAP1 SWAP2 SSTORE PUSH1 0x80 DUP11 ADD MLOAD PUSH1 0x4 DUP1 DUP7 ADD SWAP2 SWAP1 SWAP2 SSTORE PUSH1 0xA0 DUP12 ADD MLOAD SWAP5 SWAP1 SWAP8 ADD DUP1 SLOAD PUSH1 0xC0 DUP13 ADD MLOAD PUSH1 0xE0 DUP14 ADD MLOAD PUSH2 0x100 DUP1 DUP16 ADD MLOAD PUSH2 0xFFFF NOT SWAP1 SWAP5 AND SWAP9 ISZERO ISZERO PUSH2 0xFF00 NOT AND SWAP9 SWAP1 SWAP9 OR SWAP2 ISZERO ISZERO SWAP1 SWAP8 MUL OR PUSH4 0xFFFF0000 NOT AND PUSH3 0x10000 SWAP7 ISZERO ISZERO SWAP7 SWAP1 SWAP7 MUL PUSH4 0xFF000000 NOT AND SWAP6 SWAP1 SWAP6 OR PUSH4 0x1000000 SWAP6 ISZERO ISZERO SWAP6 SWAP1 SWAP6 MUL SWAP5 SWAP1 SWAP5 OR SWAP1 SWAP4 SSTORE DUP11 DUP8 MSTORE SWAP5 SWAP1 SWAP4 MSTORE SWAP4 DUP2 SWAP1 KECCAK256 SWAP1 SWAP4 ADD DUP1 SLOAD PUSH1 0xFF NOT AND SWAP1 SWAP5 OR SWAP1 SWAP4 SSTORE MLOAD SWAP1 MLOAD SWAP2 AND SWAP1 PUSH32 0x6F90F2CB171BDA4337D0BF803C1D78800EC0908F0E1AE7539C944D55166506DC SWAP1 PUSH2 0x818 SWAP1 DUP5 SWAP1 PUSH2 0x1CE0 JUMP JUMPDEST PUSH1 0x40 MLOAD DUP1 SWAP2 SUB SWAP1 LOG2 POP POP POP JUMP JUMPDEST PUSH0 DUP4 DUP2 MSTORE PUSH1 0x5 PUSH1 0x20 MSTORE PUSH1 0x40 SWAP1 KECCAK256 PUSH1 0x2 ADD SLOAD PUSH1 0x1 PUSH1 0x1 PUSH1 0xA0 SHL SUB AND CALLER EQ PUSH2 0x85D JUMPI PUSH1 0x40 MLOAD PUSH3 0x461BCD PUSH1 0xE5 SHL DUP2 MSTORE PUSH1 0x4 ADD PUSH2 0x623 SWAP1 PUSH2 0x1F13 JUMP JUMPDEST PUSH0 DUP4 DUP2 MSTORE PUSH1 0x5 PUSH1 0x20 DUP2 SWAP1 MSTORE PUSH1 0x40 SWAP1 SWAP2 KECCAK256 ADD SLOAD PUSH3 0x10000 SWAP1 DIV PUSH1 0xFF AND ISZERO ISZERO PUSH1 0x1 EQ PUSH2 0x899 JUMPI PUSH1 0x40 MLOAD PUSH3 0x461BCD PUSH1 0xE5 SHL DUP2 MSTORE PUSH1 0x4 ADD PUSH2 0x623 SWAP1 PUSH2 0x1F5E JUMP JUMPDEST PUSH0 DUP4 DUP2 MSTORE PUSH1 0x5 PUSH1 0x20 DUP2 SWAP1 MSTORE PUSH1 0x40 SWAP1 SWAP2 KECCAK256 ADD SLOAD PUSH4 0x1000000 SWAP1 DIV PUSH1 0xFF AND ISZERO PUSH2 0x902 JUMPI PUSH1 0x40 MLOAD PUSH3 0x461BCD PUSH1 0xE5 SHL DUP2 MSTORE PUSH1 0x20 PUSH1 0x4 DUP3 ADD MSTORE PUSH1 0x1E PUSH1 0x24 DUP3 ADD MSTORE PUSH32 0x54686973206469737075746520686173206265656E207265736F6C7665640000 PUSH1 0x44 DUP3 ADD MSTORE PUSH1 0x64 ADD PUSH2 0x623 JUMP JUMPDEST PUSH2 0x90C DUP2 DUP4 PUSH2 0x1FA9 JUMP JUMPDEST PUSH1 0x64 EQ PUSH2 0x951 JUMPI PUSH1 0x40 MLOAD PUSH3 0x461BCD PUSH1 0xE5 SHL DUP2 MSTORE PUSH1 0x20 PUSH1 0x4 DUP3 ADD MSTORE PUSH1 0x13 PUSH1 0x24 DUP3 ADD MSTORE PUSH19 0x496E76616C69642070657263656E7461676573 PUSH1 0x68 SHL PUSH1 0x44 DUP3 ADD MSTORE PUSH1 0x64 ADD PUSH2 0x623 JUMP JUMPDEST PUSH0 DUP4 DUP2 MSTORE PUSH1 0x5 PUSH1 0x20 DUP2 SWAP1 MSTORE PUSH1 0x40 DUP3 KECCAK256 SWAP1 DUP2 ADD DUP1 SLOAD PUSH4 0xFF000000 NOT AND PUSH4 0x1000000 OR SWAP1 SSTORE PUSH1 0x3 ADD SLOAD SWAP1 PUSH1 0x64 PUSH2 0x985 DUP6 DUP5 PUSH2 0x1FBC JUMP JUMPDEST PUSH2 0x98F SWAP2 SWAP1 PUSH2 0x1FD3 JUMP JUMPDEST SWAP1 POP PUSH0 PUSH1 0x64 PUSH2 0x99E DUP6 DUP6 PUSH2 0x1FBC JUMP JUMPDEST PUSH2 0x9A8 SWAP2 SWAP1 PUSH2 0x1FD3 JUMP JUMPDEST PUSH0 DUP8 DUP2 MSTORE PUSH1 0x5 PUSH1 0x20 MSTORE PUSH1 0x40 DUP1 DUP3 KECCAK256 PUSH1 0x1 ADD SLOAD SWAP1 MLOAD SWAP3 SWAP4 POP PUSH1 0x1 PUSH1 0x1 PUSH1 0xA0 SHL SUB AND SWAP2 DUP5 ISZERO PUSH2 0x8FC MUL SWAP2 DUP6 SWAP2 SWAP1 DUP2 DUP2 DUP2 DUP6 DUP9 DUP9 CALL SWAP4 POP POP POP POP ISZERO DUP1 ISZERO PUSH2 0x9EE JUMPI RETURNDATASIZE PUSH0 DUP1 RETURNDATACOPY RETURNDATASIZE PUSH0 REVERT JUMPDEST POP PUSH0 DUP7 DUP2 MSTORE PUSH1 0x5 PUSH1 0x20 MSTORE PUSH1 0x40 DUP1 DUP3 KECCAK256 SLOAD SWAP1 MLOAD PUSH1 0x1 PUSH1 0x1 PUSH1 0xA0 SHL SUB SWAP1 SWAP2 AND SWAP2 DUP4 ISZERO PUSH2 0x8FC MUL SWAP2 DUP5 SWAP2 DUP2 DUP2 DUP2 DUP6 DUP9 DUP9 CALL SWAP4 POP POP POP POP ISZERO DUP1 ISZERO PUSH2 0xA30 JUMPI RETURNDATASIZE PUSH0 DUP1 RETURNDATACOPY RETURNDATASIZE PUSH0 REVERT JUMPDEST POP DUP3 PUSH0 DUP1 DUP3 DUP3 SLOAD PUSH2 0xA41 SWAP2 SWAP1 PUSH2 0x1FF2 JUMP JUMPDEST SWAP1 SWAP2 SSTORE POP POP PUSH0 DUP7 DUP2 MSTORE PUSH1 0x5 PUSH1 0x20 MSTORE PUSH1 0x40 SWAP1 DUP2 SWAP1 KECCAK256 SWAP1 MLOAD PUSH32 0xE990074BC649F32546AA103BEC609BBE502737D71777A6037C3014540965022D SWAP2 PUSH2 0xA82 SWAP2 PUSH2 0x20A7 JUMP JUMPDEST PUSH1 0x40 MLOAD DUP1 SWAP2 SUB SWAP1 LOG1 POP POP POP POP POP POP JUMP JUMPDEST PUSH0 DUP3 DUP2 MSTORE PUSH1 0xA PUSH1 0x20 SWAP1 DUP2 MSTORE PUSH1 0x40 DUP1 DUP4 KECCAK256 DUP5 DUP5 MSTORE SWAP1 SWAP2 MSTORE SWAP1 KECCAK256 SLOAD PUSH1 0x1 PUSH1 0x1 PUSH1 0xA0 SHL SUB AND JUMPDEST SWAP3 SWAP2 POP POP JUMP JUMPDEST PUSH2 0xAC3 PUSH2 0x1C35 JUMP JUMPDEST POP PUSH0 SWAP1 DUP2 MSTORE PUSH1 0x5 PUSH1 0x20 DUP2 DUP2 MSTORE PUSH1 0x40 SWAP3 DUP4 SWAP1 KECCAK256 DUP4 MLOAD PUSH2 0x120 DUP2 ADD DUP6 MSTORE DUP2 SLOAD PUSH1 0x1 PUSH1 0x1 PUSH1 0xA0 SHL SUB SWAP1 DUP2 AND DUP3 MSTORE PUSH1 0x1 DUP4 ADD SLOAD DUP2 AND SWAP4 DUP3 ADD SWAP4 SWAP1 SWAP4 MSTORE PUSH1 0x2 DUP3 ADD SLOAD SWAP1 SWAP3 AND SWAP4 DUP3 ADD SWAP4 SWAP1 SWAP4 MSTORE PUSH1 0x3 DUP4 ADD SLOAD PUSH1 0x60 DUP3 ADD MSTORE PUSH1 0x4 DUP4 ADD SLOAD PUSH1 0x80 DUP3 ADD MSTORE SWAP2 ADD SLOAD PUSH1 0xFF DUP1 DUP3 AND ISZERO ISZERO PUSH1 0xA0 DUP5 ADD MSTORE PUSH2 0x100 DUP1 DUP4 DIV DUP3 AND ISZERO ISZERO PUSH1 0xC0 DUP6 ADD MSTORE PUSH3 0x10000 DUP4 DIV DUP3 AND ISZERO ISZERO PUSH1 0xE0 DUP6 ADD MSTORE PUSH4 0x1000000 SWAP1 SWAP3 DIV AND ISZERO ISZERO SWAP1 DUP3 ADD MSTORE SWAP1 JUMP JUMPDEST CALLER PUSH0 SWAP1 DUP2 MSTORE PUSH1 0x7 PUSH1 0x20 MSTORE PUSH1 0x40 SWAP1 KECCAK256 SLOAD PUSH1 0xFF AND ISZERO ISZERO PUSH1 0x1 EQ PUSH2 0xB90 JUMPI PUSH1 0x40 MLOAD PUSH3 0x461BCD PUSH1 0xE5 SHL DUP2 MSTORE PUSH1 0x4 ADD PUSH2 0x623 SWAP1 PUSH2 0x1E2F JUMP JUMPDEST PUSH0 DUP2 DUP2 MSTORE PUSH1 0x4 PUSH1 0x20 MSTORE PUSH1 0x40 SWAP1 KECCAK256 SLOAD PUSH1 0x1 PUSH1 0x1 PUSH1 0xA0 SHL SUB AND CALLER EQ PUSH2 0xBC5 JUMPI PUSH1 0x40 MLOAD PUSH3 0x461BCD PUSH1 0xE5 SHL DUP2 MSTORE PUSH1 0x4 ADD PUSH2 0x623 SWAP1 PUSH2 0x1E74 JUMP JUMPDEST PUSH0 DUP2 DUP2 MSTORE PUSH1 0x4 PUSH1 0x20 MSTORE PUSH1 0x40 SWAP1 KECCAK256 PUSH1 0x3 ADD SLOAD PUSH1 0xFF AND ISZERO PUSH2 0xBF6 JUMPI PUSH1 0x40 MLOAD PUSH3 0x461BCD PUSH1 0xE5 SHL DUP2 MSTORE PUSH1 0x4 ADD PUSH2 0x623 SWAP1 PUSH2 0x1EB9 JUMP JUMPDEST PUSH0 DUP2 DUP2 MSTORE PUSH1 0x4 PUSH1 0x20 MSTORE PUSH1 0x40 DUP2 KECCAK256 PUSH1 0x2 ADD SLOAD SWAP1 SLOAD LT ISZERO PUSH2 0xC4C JUMPI PUSH1 0x40 MLOAD PUSH3 0x461BCD PUSH1 0xE5 SHL DUP2 MSTORE PUSH1 0x20 PUSH1 0x4 DUP3 ADD MSTORE PUSH1 0x12 PUSH1 0x24 DUP3 ADD MSTORE PUSH18 0x4E6F7420656E6F7567682062616C616E6365 PUSH1 0x70 SHL PUSH1 0x44 DUP3 ADD MSTORE PUSH1 0x64 ADD PUSH2 0x623 JUMP JUMPDEST PUSH0 DUP2 DUP2 MSTORE PUSH1 0x4 PUSH1 0x20 MSTORE PUSH1 0x40 DUP1 DUP3 KECCAK256 PUSH1 0x2 DUP2 ADD SLOAD PUSH1 0x3 SWAP1 SWAP2 ADD DUP1 SLOAD PUSH1 0xFF NOT AND PUSH1 0x1 OR SWAP1 SSTORE SWAP1 MLOAD SWAP1 SWAP2 CALLER SWAP2 DUP4 ISZERO PUSH2 0x8FC MUL SWAP2 DUP5 SWAP2 SWAP1 DUP2 DUP2 DUP2 DUP6 DUP9 DUP9 CALL SWAP4 POP POP POP POP ISZERO DUP1 ISZERO PUSH2 0xC9A JUMPI RETURNDATASIZE PUSH0 DUP1 RETURNDATACOPY RETURNDATASIZE PUSH0 REVERT JUMPDEST POP PUSH0 DUP3 DUP2 MSTORE PUSH1 0x4 PUSH1 0x20 MSTORE PUSH1 0x40 SWAP1 DUP2 SWAP1 KECCAK256 SWAP1 MLOAD PUSH32 0xE5C60E6208CA49D9D44A816D227CDB520B6A0FA42101047E8154B3C348279A81 SWAP2 PUSH2 0xCD7 SWAP2 PUSH2 0x20B6 JUMP JUMPDEST PUSH1 0x40 MLOAD DUP1 SWAP2 SUB SWAP1 LOG1 POP POP JUMP JUMPDEST CALLER PUSH0 SWAP1 DUP2 MSTORE PUSH1 0x7 PUSH1 0x20 MSTORE PUSH1 0x40 SWAP1 KECCAK256 SLOAD PUSH1 0xFF AND ISZERO ISZERO PUSH1 0x1 EQ PUSH2 0xD16 JUMPI PUSH1 0x40 MLOAD PUSH3 0x461BCD PUSH1 0xE5 SHL DUP2 MSTORE PUSH1 0x4 ADD PUSH2 0x623 SWAP1 PUSH2 0x1E2F JUMP JUMPDEST PUSH5 0xE8D4A51000 CALLVALUE LT ISZERO PUSH2 0xD6B JUMPI PUSH1 0x40 MLOAD PUSH3 0x461BCD PUSH1 0xE5 SHL DUP2 MSTORE PUSH1 0x20 PUSH1 0x4 DUP3 ADD MSTORE PUSH1 0x19 PUSH1 0x24 DUP3 ADD MSTORE PUSH32 0x496E73756666696369656E74207374616B6520616D6F756E7400000000000000 PUSH1 0x44 DUP3 ADD MSTORE PUSH1 0x64 ADD PUSH2 0x623 JUMP JUMPDEST PUSH1 0x40 DUP1 MLOAD PUSH1 0x80 DUP2 ADD DUP3 MSTORE PUSH0 PUSH1 0x20 DUP3 ADD DUP2 SWAP1 MSTORE PUSH1 0x60 DUP3 ADD DUP2 SWAP1 MSTORE CALLER DUP3 MSTORE CALLVALUE SWAP3 DUP3 ADD DUP4 SWAP1 MSTORE DUP1 SLOAD SWAP2 SWAP3 SWAP2 DUP3 SWAP2 SWAP1 DUP2 SWAP1 PUSH2 0xDA3 SWAP1 DUP5 SWAP1 PUSH2 0x1FA9 JUMP JUMPDEST SWAP1 SWAP2 SSTORE POP POP PUSH1 0x3 DUP1 SLOAD SWAP1 PUSH0 PUSH2 0xDB7 DUP4 PUSH2 0x1EFB JUMP JUMPDEST SWAP1 SWAP2 SSTORE POP POP PUSH1 0x3 DUP1 SLOAD PUSH0 SWAP1 DUP2 MSTORE PUSH1 0x4 PUSH1 0x20 SWAP1 DUP2 MSTORE PUSH1 0x40 SWAP2 DUP3 SWAP1 KECCAK256 DUP6 MLOAD DUP2 SLOAD PUSH1 0x1 PUSH1 0x1 PUSH1 0xA0 SHL SUB NOT AND PUSH1 0x1 PUSH1 0x1 PUSH1 0xA0 SHL SUB SWAP1 SWAP2 AND SWAP1 DUP2 OR DUP3 SSTORE DUP7 DUP4 ADD DUP1 MLOAD PUSH1 0x1 DUP5 ADD SSTORE DUP8 DUP6 ADD DUP1 MLOAD PUSH1 0x2 DUP6 ADD SSTORE PUSH1 0x60 DUP1 DUP11 ADD DUP1 MLOAD SWAP6 SWAP1 SWAP9 ADD DUP1 SLOAD PUSH1 0xFF NOT AND SWAP6 ISZERO ISZERO SWAP6 SWAP1 SWAP6 OR SWAP1 SWAP5 SSTORE DUP6 MLOAD SWAP3 DUP4 MSTORE SWAP1 MLOAD SWAP4 DUP3 ADD SWAP4 SWAP1 SWAP4 MSTORE SWAP2 MLOAD SWAP3 DUP3 ADD SWAP3 SWAP1 SWAP3 MSTORE SWAP2 MLOAD ISZERO ISZERO SWAP1 DUP3 ADD MSTORE CALLER SWAP1 PUSH32 0x895C597C2D3A11527EFBCA5886DFE0F80C120DE0F56AEEFA770E2360DFD27955 SWAP1 PUSH1 0x80 ADD PUSH1 0x40 MLOAD DUP1 SWAP2 SUB SWAP1 LOG2 POP POP JUMP JUMPDEST CALLER PUSH0 SWAP1 DUP2 MSTORE PUSH1 0x7 PUSH1 0x20 MSTORE PUSH1 0x40 SWAP1 KECCAK256 SLOAD PUSH1 0xFF PUSH2 0x100 SWAP1 SWAP2 DIV AND ISZERO ISZERO PUSH1 0x1 EQ PUSH2 0xEE7 JUMPI PUSH1 0x40 MLOAD PUSH3 0x461BCD PUSH1 0xE5 SHL DUP2 MSTORE PUSH1 0x20 PUSH1 0x4 DUP3 ADD MSTORE PUSH1 0x25 PUSH1 0x24 DUP3 ADD MSTORE PUSH32 0x596F75206E65656420746F20626520616E20656D706C6F79656520746F20646F PUSH1 0x44 DUP3 ADD MSTORE PUSH5 0x81D1A185D PUSH1 0xDA SHL PUSH1 0x64 DUP3 ADD MSTORE PUSH1 0x84 ADD PUSH2 0x623 JUMP JUMPDEST PUSH0 DUP2 DUP2 MSTORE PUSH1 0x4 PUSH1 0x20 MSTORE PUSH1 0x40 SWAP1 KECCAK256 PUSH1 0x3 ADD SLOAD PUSH1 0xFF AND ISZERO PUSH2 0xF18 JUMPI PUSH1 0x40 MLOAD PUSH3 0x461BCD PUSH1 0xE5 SHL DUP2 MSTORE PUSH1 0x4 ADD PUSH2 0x623 SWAP1 PUSH2 0x1EB9 JUMP JUMPDEST PUSH0 DUP2 DUP2 MSTORE PUSH1 0x4 PUSH1 0x20 MSTORE PUSH1 0x40 DUP2 KECCAK256 PUSH1 0x1 ADD DUP1 SLOAD SWAP2 PUSH2 0xF34 DUP4 PUSH2 0x1EFB JUMP JUMPDEST SWAP1 SWAP2 SSTORE POP POP PUSH0 DUP2 DUP2 MSTORE PUSH1 0x6 PUSH1 0x20 SWAP1 DUP2 MSTORE PUSH1 0x40 DUP1 DUP4 KECCAK256 PUSH1 0x4 DUP1 DUP5 MSTORE DUP3 DUP6 KECCAK256 PUSH1 0x1 DUP2 ADD SLOAD DUP7 MSTORE SWAP2 DUP5 MSTORE DUP3 DUP6 KECCAK256 DUP1 SLOAD PUSH1 0x1 PUSH1 0x1 PUSH1 0xA0 SHL SUB NOT AND CALLER SWAP1 DUP2 OR SWAP1 SWAP2 SSTORE SWAP5 DUP7 SWAP1 MSTORE SWAP1 SWAP3 MSTORE MLOAD PUSH32 0x4F3464A1AF62143857AD68D2002715DB4C011DB3A046F5A7321E3D70AD1E5292 SWAP2 PUSH2 0xFA4 SWAP2 PUSH2 0x20B6 JUMP JUMPDEST PUSH1 0x40 MLOAD DUP1 SWAP2 SUB SWAP1 LOG2 POP JUMP JUMPDEST PUSH0 DUP3 DUP2 MSTORE PUSH1 0x4 PUSH1 0x20 MSTORE PUSH1 0x40 DUP2 KECCAK256 SLOAD PUSH1 0x1 PUSH1 0x1 PUSH1 0xA0 SHL SUB AND CALLER EQ PUSH2 0x102A JUMPI PUSH1 0x40 MLOAD PUSH3 0x461BCD PUSH1 0xE5 SHL DUP2 MSTORE PUSH1 0x20 PUSH1 0x4 DUP3 ADD MSTORE PUSH1 0x2D PUSH1 0x24 DUP3 ADD MSTORE PUSH32 0x596F7520617265206E6F742074686520656D706C6F796572206F662074686973 PUSH1 0x44 DUP3 ADD MSTORE PUSH13 0x206F66666572656420576F726B PUSH1 0x98 SHL PUSH1 0x64 DUP3 ADD MSTORE PUSH1 0x84 ADD PUSH2 0x623 JUMP JUMPDEST POP PUSH0 SWAP2 DUP3 MSTORE PUSH1 0x6 PUSH1 0x20 SWAP1 DUP2 MSTORE PUSH1 0x40 DUP1 DUP5 KECCAK256 SWAP3 DUP5 MSTORE SWAP2 SWAP1 MSTORE SWAP1 KECCAK256 SLOAD PUSH1 0x1 PUSH1 0x1 PUSH1 0xA0 SHL SUB AND SWAP1 JUMP JUMPDEST PUSH0 DUP2 DUP2 MSTORE PUSH1 0x5 PUSH1 0x20 MSTORE PUSH1 0x40 SWAP1 KECCAK256 PUSH1 0x1 ADD SLOAD PUSH1 0x1 PUSH1 0x1 PUSH1 0xA0 SHL SUB AND CALLER EQ DUP1 PUSH2 0x108C JUMPI POP PUSH0 DUP2 DUP2 MSTORE PUSH1 0x5 PUSH1 0x20 MSTORE PUSH1 0x40 SWAP1 KECCAK256 SLOAD PUSH1 0x1 PUSH1 0x1 PUSH1 0xA0 SHL SUB AND CALLER EQ JUMPDEST PUSH2 0x10D8 JUMPI PUSH1 0x40 MLOAD PUSH3 0x461BCD PUSH1 0xE5 SHL DUP2 MSTORE PUSH1 0x20 PUSH1 0x4 DUP3 ADD MSTORE PUSH1 0x1B PUSH1 0x24 DUP3 ADD MSTORE PUSH32 0x596F7520646F206E6F7420706F7373657320617574686F726974790000000000 PUSH1 0x44 DUP3 ADD MSTORE PUSH1 0x64 ADD PUSH2 0x623 JUMP JUMPDEST PUSH0 DUP2 DUP2 MSTORE PUSH1 0x5 PUSH1 0x20 DUP2 SWAP1 MSTORE PUSH1 0x40 SWAP2 DUP3 SWAP1 KECCAK256 SWAP1 DUP2 ADD DUP1 SLOAD PUSH3 0xFF0000 NOT AND PUSH3 0x10000 OR SWAP1 SSTORE SWAP1 MLOAD CALLER SWAP2 PUSH32 0x105ED52343DC940B3BDBDBDCC2E60C1DC6839B1381CEAEDDA9DADC75ECF8F0B5 SWAP2 PUSH2 0xFA4 SWAP2 SWAP1 PUSH2 0x20A7 JUMP JUMPDEST PUSH1 0x1 SLOAD PUSH1 0x1 PUSH1 0x1 PUSH1 0xA0 SHL SUB AND CALLER EQ PUSH2 0x1155 JUMPI PUSH1 0x40 MLOAD PUSH3 0x461BCD PUSH1 0xE5 SHL DUP2 MSTORE PUSH1 0x4 ADD PUSH2 0x623 SWAP1 PUSH2 0x1F13 JUMP JUMPDEST PUSH0 DUP3 DUP2 MSTORE PUSH1 0x5 PUSH1 0x20 DUP2 SWAP1 MSTORE PUSH1 0x40 SWAP1 SWAP2 KECCAK256 ADD SLOAD PUSH3 0x10000 SWAP1 DIV PUSH1 0xFF AND ISZERO ISZERO PUSH1 0x1 EQ PUSH2 0x1191 JUMPI PUSH1 0x40 MLOAD PUSH3 0x461BCD PUSH1 0xE5 SHL DUP2 MSTORE PUSH1 0x4 ADD PUSH2 0x623 SWAP1 PUSH2 0x1F5E JUMP JUMPDEST PUSH0 DUP3 DUP2 MSTORE PUSH1 0x5 PUSH1 0x20 MSTORE PUSH1 0x40 SWAP1 KECCAK256 PUSH1 0x1 ADD SLOAD PUSH1 0x1 PUSH1 0x1 PUSH1 0xA0 SHL SUB DUP3 DUP2 AND SWAP2 AND EQ DUP1 PUSH2 0x11D3 JUMPI POP PUSH0 DUP3 DUP2 MSTORE PUSH1 0x5 PUSH1 0x20 MSTORE PUSH1 0x40 SWAP1 KECCAK256 SLOAD PUSH1 0x1 PUSH1 0x1 PUSH1 0xA0 SHL SUB DUP3 DUP2 AND SWAP2 AND EQ JUMPDEST PUSH2 0x1253 JUMPI PUSH1 0x40 MLOAD PUSH3 0x461BCD PUSH1 0xE5 SHL DUP2 MSTORE PUSH1 0x20 PUSH1 0x4 DUP3 ADD MSTORE PUSH1 0x44 PUSH1 0x24 DUP3 ADD DUP2 SWAP1 MSTORE PUSH32 0x5468652062656E6566696369617279206973206E6F7420616E20656D706C6F79 SWAP1 DUP3 ADD MSTORE PUSH32 0x6565206E6F7220616E20656D706C6F796572206F662074686973206167726565 PUSH1 0x64 DUP3 ADD MSTORE PUSH4 0x1B595B9D PUSH1 0xE2 SHL PUSH1 0x84 DUP3 ADD MSTORE PUSH1 0xA4 ADD PUSH2 0x623 JUMP JUMPDEST PUSH0 DUP3 DUP2 MSTORE PUSH1 0x5 PUSH1 0x20 DUP2 SWAP1 MSTORE PUSH1 0x40 SWAP1 SWAP2 KECCAK256 ADD SLOAD PUSH4 0x1000000 SWAP1 DIV PUSH1 0xFF AND ISZERO PUSH2 0x12BC JUMPI PUSH1 0x40 MLOAD PUSH3 0x461BCD PUSH1 0xE5 SHL DUP2 MSTORE PUSH1 0x20 PUSH1 0x4 DUP3 ADD MSTORE PUSH1 0x1E PUSH1 0x24 DUP3 ADD MSTORE PUSH32 0x54686973206469737075746520686173206265656E207265736F6C7665640000 PUSH1 0x44 DUP3 ADD MSTORE PUSH1 0x64 ADD PUSH2 0x623 JUMP JUMPDEST PUSH0 DUP3 DUP2 MSTORE PUSH1 0x5 PUSH1 0x20 DUP2 SWAP1 MSTORE PUSH1 0x40 DUP1 DUP4 KECCAK256 SWAP2 DUP3 ADD DUP1 SLOAD PUSH4 0xFF000000 NOT AND PUSH4 0x1000000 OR SWAP1 SSTORE PUSH1 0x3 SWAP1 SWAP2 ADD SLOAD SWAP1 MLOAD SWAP1 SWAP2 PUSH1 0x1 PUSH1 0x1 PUSH1 0xA0 SHL SUB DUP5 AND SWAP2 DUP4 ISZERO PUSH2 0x8FC MUL SWAP2 DUP5 SWAP2 SWAP1 DUP2 DUP2 DUP2 DUP6 DUP9 DUP9 CALL SWAP4 POP POP POP POP ISZERO DUP1 ISZERO PUSH2 0x131A JUMPI RETURNDATASIZE PUSH0 DUP1 RETURNDATACOPY RETURNDATASIZE PUSH0 REVERT JUMPDEST POP DUP1 PUSH0 DUP1 DUP3 DUP3 SLOAD PUSH2 0x132B SWAP2 SWAP1 PUSH2 0x1FF2 JUMP JUMPDEST SWAP1 SWAP2 SSTORE POP POP PUSH0 DUP4 DUP2 MSTORE PUSH1 0x5 PUSH1 0x20 MSTORE PUSH1 0x40 SWAP1 DUP2 SWAP1 KECCAK256 SWAP1 MLOAD PUSH32 0xE990074BC649F32546AA103BEC609BBE502737D71777A6037C3014540965022D SWAP2 PUSH2 0x136C SWAP2 PUSH2 0x20A7 JUMP JUMPDEST PUSH1 0x40 MLOAD DUP1 SWAP2 SUB SWAP1 LOG1 POP POP POP JUMP JUMPDEST PUSH0 DUP4 ISZERO PUSH2 0x138E JUMPI DUP1 PUSH2 0x138A DUP2 PUSH2 0x1EFB JUMP JUMPDEST SWAP2 POP POP JUMPDEST DUP3 ISZERO PUSH2 0x13A2 JUMPI DUP1 PUSH2 0x139E DUP2 PUSH2 0x1EFB JUMP JUMPDEST SWAP2 POP POP JUMPDEST DUP2 ISZERO PUSH2 0x13B6 JUMPI DUP1 PUSH2 0x13B2 DUP2 PUSH2 0x1EFB JUMP JUMPDEST SWAP2 POP POP JUMPDEST DUP1 PUSH1 0x1 EQ PUSH2 0x1406 JUMPI PUSH1 0x40 MLOAD PUSH3 0x461BCD PUSH1 0xE5 SHL DUP2 MSTORE PUSH1 0x20 PUSH1 0x4 DUP3 ADD MSTORE PUSH1 0x18 PUSH1 0x24 DUP3 ADD MSTORE PUSH32 0x506C656173652063686F6F7365206F6E65206F7074696F6E0000000000000000 PUSH1 0x44 DUP3 ADD MSTORE PUSH1 0x64 ADD PUSH2 0x623 JUMP JUMPDEST CALLER PUSH0 SWAP1 DUP2 MSTORE PUSH1 0x7 PUSH1 0x20 MSTORE PUSH1 0x40 SWAP1 KECCAK256 SLOAD PUSH4 0x1000000 SWAP1 DIV PUSH1 0xFF AND ISZERO PUSH2 0x146C JUMPI PUSH1 0x40 MLOAD PUSH3 0x461BCD PUSH1 0xE5 SHL DUP2 MSTORE PUSH1 0x20 PUSH1 0x4 DUP3 ADD MSTORE PUSH1 0x1A PUSH1 0x24 DUP3 ADD MSTORE PUSH32 0x596F752061726520616C72656164792072656769737465726564000000000000 PUSH1 0x44 DUP3 ADD MSTORE PUSH1 0x64 ADD PUSH2 0x623 JUMP JUMPDEST PUSH1 0x40 DUP1 MLOAD PUSH1 0x80 DUP1 DUP3 ADD DUP4 MSTORE PUSH0 DUP1 DUP4 MSTORE PUSH1 0x20 DUP1 DUP5 ADD DUP3 SWAP1 MSTORE DUP4 DUP6 ADD DUP3 SWAP1 MSTORE PUSH1 0x60 SWAP4 DUP5 ADD DUP3 SWAP1 MSTORE CALLER SWAP2 DUP3 SWAP1 MSTORE PUSH1 0x7 DUP2 MSTORE DUP5 MLOAD SWAP3 DUP4 ADD DUP6 MSTORE DUP7 ISZERO ISZERO DUP4 DUP7 ADD DUP2 SWAP1 MSTORE DUP9 ISZERO ISZERO DUP1 DUP6 MSTORE DUP11 ISZERO ISZERO DUP6 DUP5 ADD DUP2 SWAP1 MSTORE PUSH1 0x1 DUP7 DUP9 ADD MSTORE DUP8 MLOAD SWAP1 DUP2 MSTORE SWAP3 DUP4 ADD MSTORE DUP2 DUP7 ADD MSTORE SWAP4 MLOAD SWAP2 SWAP4 SWAP1 SWAP3 PUSH32 0xD57B2B801EC598B0FF16AA0E5B33857B32AC2725FDE743B6B641D8826FDA041F SWAP3 SWAP2 DUP3 SWAP1 SUB ADD SWAP1 LOG2 POP POP POP POP POP JUMP JUMPDEST PUSH0 DUP2 DUP2 MSTORE PUSH1 0x5 PUSH1 0x20 MSTORE PUSH1 0x40 SWAP1 KECCAK256 PUSH1 0x1 ADD SLOAD PUSH1 0x1 PUSH1 0x1 PUSH1 0xA0 SHL SUB AND CALLER EQ PUSH2 0x157D JUMPI PUSH1 0x40 MLOAD PUSH3 0x461BCD PUSH1 0xE5 SHL DUP2 MSTORE PUSH1 0x20 PUSH1 0x4 DUP3 ADD MSTORE PUSH1 0x2A PUSH1 0x24 DUP3 ADD MSTORE PUSH32 0x596F7520617265206E6F742074686520656D706C6F796565206F662074686973 PUSH1 0x44 DUP3 ADD MSTORE PUSH10 0x81859DC99595B595B9D PUSH1 0xB2 SHL PUSH1 0x64 DUP3 ADD MSTORE PUSH1 0x84 ADD PUSH2 0x623 JUMP JUMPDEST PUSH0 DUP2 DUP2 MSTORE PUSH1 0x5 PUSH1 0x20 DUP2 DUP2 MSTORE PUSH1 0x40 SWAP3 DUP4 SWAP1 KECCAK256 SWAP1 SWAP2 ADD DUP1 SLOAD PUSH1 0xFF NOT AND PUSH1 0x1 SWAP1 DUP2 OR SWAP1 SWAP2 SSTORE SWAP2 MLOAD SWAP2 DUP3 MSTORE PUSH32 0x6B5B92D1755824B841015B7514F1AC495070C0C43A54E1910906802B69D8EF1A SWAP2 ADD PUSH1 0x40 MLOAD DUP1 SWAP2 SUB SWAP1 LOG1 POP JUMP JUMPDEST PUSH0 DUP3 DUP2 MSTORE PUSH1 0xA PUSH1 0x20 SWAP1 DUP2 MSTORE PUSH1 0x40 DUP1 DUP4 KECCAK256 DUP5 DUP5 MSTORE SWAP1 SWAP2 MSTORE SWAP1 KECCAK256 SLOAD PUSH1 0x1 PUSH1 0x1 PUSH1 0xA0 SHL SUB AND CALLER EQ PUSH2 0x1668 JUMPI PUSH1 0x40 MLOAD PUSH3 0x461BCD PUSH1 0xE5 SHL DUP2 MSTORE PUSH1 0x20 PUSH1 0x4 DUP3 ADD MSTORE PUSH1 0x37 PUSH1 0x24 DUP3 ADD MSTORE PUSH32 0x596F7520617265206E6F742061736B656420746F20626520746865206D696464 PUSH1 0x44 DUP3 ADD MSTORE PUSH32 0x6C656D616E206F6620746869732061677265656D656E74000000000000000000 PUSH1 0x64 DUP3 ADD MSTORE PUSH1 0x84 ADD PUSH2 0x623 JUMP JUMPDEST PUSH0 DUP3 DUP2 MSTORE PUSH1 0x5 PUSH1 0x20 MSTORE PUSH1 0x40 SWAP1 DUP2 SWAP1 KECCAK256 PUSH1 0x2 DUP2 ADD DUP1 SLOAD PUSH1 0x1 PUSH1 0x1 PUSH1 0xA0 SHL SUB NOT AND CALLER OR SWAP1 SSTORE SWAP1 MLOAD PUSH32 0xD217779DB836EC8FBEE3CBC07D88C8444ED736420F831B8CBFB107CE43BC6532 SWAP2 PUSH2 0xCD7 SWAP2 PUSH2 0x20A7 JUMP JUMPDEST PUSH0 DUP2 DUP2 MSTORE PUSH1 0x5 PUSH1 0x20 MSTORE PUSH1 0x40 SWAP1 KECCAK256 SLOAD PUSH1 0x1 PUSH1 0x1 PUSH1 0xA0 SHL SUB AND CALLER EQ PUSH2 0x1730 JUMPI PUSH1 0x40 MLOAD PUSH3 0x461BCD PUSH1 0xE5 SHL DUP2 MSTORE PUSH1 0x20 PUSH1 0x4 DUP3 ADD MSTORE PUSH1 0x2A PUSH1 0x24 DUP3 ADD MSTORE PUSH32 0x596F7520617265206E6F742074686520656D706C6F796572206F662074686973 PUSH1 0x44 DUP3 ADD MSTORE PUSH10 0x81859DC99595B595B9D PUSH1 0xB2 SHL PUSH1 0x64 DUP3 ADD MSTORE PUSH1 0x84 ADD PUSH2 0x623 JUMP JUMPDEST PUSH0 DUP2 DUP2 MSTORE PUSH1 0x5 PUSH1 0x20 DUP2 SWAP1 MSTORE PUSH1 0x40 SWAP1 SWAP2 KECCAK256 ADD SLOAD PUSH1 0xFF AND ISZERO ISZERO PUSH1 0x1 EQ PUSH2 0x17AA JUMPI PUSH1 0x40 MLOAD PUSH3 0x461BCD PUSH1 0xE5 SHL DUP2 MSTORE PUSH1 0x20 PUSH1 0x4 DUP3 ADD MSTORE PUSH1 0x2B PUSH1 0x24 DUP3 ADD MSTORE PUSH32 0x54686520656D706C6F796565206973206E6F7420646F6E652077697468207468 PUSH1 0x44 DUP3 ADD MSTORE PUSH11 0x1A5CC81D185CDAC81E595D PUSH1 0xAA SHL PUSH1 0x64 DUP3 ADD MSTORE PUSH1 0x84 ADD PUSH2 0x623 JUMP JUMPDEST PUSH0 DUP2 DUP2 MSTORE PUSH1 0x5 PUSH1 0x20 DUP2 SWAP1 MSTORE PUSH1 0x40 DUP1 DUP4 KECCAK256 SWAP2 DUP3 ADD DUP1 SLOAD PUSH2 0xFF00 NOT AND PUSH2 0x100 OR SWAP1 SSTORE PUSH1 0x3 DUP3 ADD SLOAD PUSH1 0x1 SWAP3 SWAP1 SWAP3 ADD SLOAD SWAP1 MLOAD SWAP2 SWAP3 PUSH1 0x1 PUSH1 0x1 PUSH1 0xA0 SHL SUB SWAP1 SWAP2 AND SWAP2 DUP4 ISZERO PUSH2 0x8FC MUL SWAP2 DUP5 SWAP2 SWAP1 DUP2 DUP2 DUP2 DUP6 DUP9 DUP9 CALL SWAP4 POP POP POP POP ISZERO DUP1 ISZERO PUSH2 0x180B JUMPI RETURNDATASIZE PUSH0 DUP1 RETURNDATACOPY RETURNDATASIZE PUSH0 REVERT JUMPDEST POP DUP1 PUSH0 DUP1 DUP3 DUP3 SLOAD PUSH2 0x181C SWAP2 SWAP1 PUSH2 0x1FF2 JUMP JUMPDEST SWAP1 SWAP2 SSTORE POP POP PUSH1 0x40 MLOAD PUSH1 0x1 DUP2 MSTORE PUSH32 0xA4EDE5D74C01C87599CAE178018F06F538ED1C40AC51EE85CBE677E1F7501741 SWAP1 PUSH1 0x20 ADD PUSH2 0xCD7 JUMP JUMPDEST PUSH0 DUP3 DUP2 MSTORE PUSH1 0x5 PUSH1 0x20 MSTORE PUSH1 0x40 SWAP1 KECCAK256 PUSH1 0x1 ADD SLOAD PUSH1 0x1 PUSH1 0x1 PUSH1 0xA0 SHL SUB AND CALLER EQ DUP1 PUSH2 0x188E JUMPI POP PUSH0 DUP3 DUP2 MSTORE PUSH1 0x5 PUSH1 0x20 MSTORE PUSH1 0x40 SWAP1 KECCAK256 SLOAD PUSH1 0x1 PUSH1 0x1 PUSH1 0xA0 SHL SUB AND CALLER EQ JUMPDEST PUSH2 0x18DA JUMPI PUSH1 0x40 MLOAD PUSH3 0x461BCD PUSH1 0xE5 SHL DUP2 MSTORE PUSH1 0x20 PUSH1 0x4 DUP3 ADD MSTORE PUSH1 0x1E PUSH1 0x24 DUP3 ADD MSTORE PUSH32 0x596F7520617265206E6F7420616C6C6F77656420746F20737567676573740000 PUSH1 0x44 DUP3 ADD MSTORE PUSH1 0x64 ADD PUSH2 0x623 JUMP JUMPDEST PUSH0 DUP3 DUP2 MSTORE PUSH1 0x8 PUSH1 0x20 SWAP1 DUP2 MSTORE PUSH1 0x40 DUP1 DUP4 KECCAK256 PUSH1 0x1 PUSH1 0x1 PUSH1 0xA0 SHL SUB DUP6 AND DUP5 MSTORE DUP3 MSTORE DUP1 DUP4 KECCAK256 CALLER DUP5 MSTORE SWAP1 SWAP2 MSTORE SWAP1 KECCAK256 SLOAD PUSH1 0xFF AND ISZERO PUSH2 0x1960 JUMPI PUSH1 0x40 MLOAD PUSH3 0x461BCD PUSH1 0xE5 SHL DUP2 MSTORE PUSH1 0x20 PUSH1 0x4 DUP3 ADD MSTORE PUSH1 0x24 DUP1 DUP3 ADD MSTORE PUSH32 0x596F7520616C726561647920766F74656420666F722074686973206D6964646C PUSH1 0x44 DUP3 ADD MSTORE PUSH4 0x32B6B0B7 PUSH1 0xE1 SHL PUSH1 0x64 DUP3 ADD MSTORE PUSH1 0x84 ADD PUSH2 0x623 JUMP JUMPDEST PUSH0 DUP3 DUP2 MSTORE PUSH1 0x5 PUSH1 0x20 MSTORE PUSH1 0x40 SWAP1 KECCAK256 PUSH1 0x2 ADD SLOAD PUSH1 0x1 PUSH1 0x1 PUSH1 0xA0 SHL SUB AND ISZERO PUSH2 0x19C7 JUMPI PUSH1 0x40 MLOAD PUSH3 0x461BCD PUSH1 0xE5 SHL DUP2 MSTORE PUSH1 0x20 PUSH1 0x4 DUP3 ADD MSTORE PUSH1 0x1C PUSH1 0x24 DUP3 ADD MSTORE PUSH32 0x596F7520616C726561647920686176652061206D6964646C656D616E00000000 PUSH1 0x44 DUP3 ADD MSTORE PUSH1 0x64 ADD PUSH2 0x623 JUMP JUMPDEST PUSH1 0x1 PUSH1 0x1 PUSH1 0xA0 SHL SUB DUP2 AND PUSH0 SWAP1 DUP2 MSTORE PUSH1 0x7 PUSH1 0x20 MSTORE PUSH1 0x40 SWAP1 KECCAK256 SLOAD PUSH3 0x10000 SWAP1 DIV PUSH1 0xFF AND PUSH2 0x1A34 JUMPI PUSH1 0x40 MLOAD PUSH3 0x461BCD PUSH1 0xE5 SHL DUP2 MSTORE PUSH1 0x20 PUSH1 0x4 DUP3 ADD MSTORE PUSH1 0x1F PUSH1 0x24 DUP3 ADD MSTORE PUSH32 0x546869732061646472657373206973206E6F742061206D6964646C656D616E00 PUSH1 0x44 DUP3 ADD MSTORE PUSH1 0x64 ADD PUSH2 0x623 JUMP JUMPDEST PUSH0 DUP3 DUP2 MSTORE PUSH1 0x8 PUSH1 0x20 SWAP1 DUP2 MSTORE PUSH1 0x40 DUP1 DUP4 KECCAK256 PUSH1 0x1 PUSH1 0x1 PUSH1 0xA0 SHL SUB DUP6 AND DUP1 DUP6 MSTORE SWAP1 DUP4 MSTORE DUP2 DUP5 KECCAK256 CALLER DUP6 MSTORE DUP4 MSTORE DUP2 DUP5 KECCAK256 DUP1 SLOAD PUSH1 0xFF NOT AND PUSH1 0x1 OR SWAP1 SSTORE DUP6 DUP5 MSTORE PUSH1 0x9 DUP4 MSTORE DUP2 DUP5 KECCAK256 SWAP1 DUP5 MSTORE SWAP1 SWAP2 MSTORE DUP2 KECCAK256 DUP1 SLOAD SWAP2 PUSH2 0x1A88 DUP4 PUSH2 0x1EFB JUMP JUMPDEST SWAP1 SWAP2 SSTORE POP POP PUSH0 DUP3 DUP2 MSTORE PUSH1 0x5 PUSH1 0x20 MSTORE PUSH1 0x40 SWAP1 DUP2 SWAP1 KECCAK256 SWAP1 MLOAD PUSH32 0xF9130EC99C57E242455FA6AF989447A84BBE8FE52A70CBCAF13A9652AA089B50 SWAP2 PUSH2 0x1ACD SWAP2 CALLER SWAP2 DUP6 SWAP2 PUSH2 0x20ED JUMP JUMPDEST PUSH1 0x40 MLOAD DUP1 SWAP2 SUB SWAP1 LOG1 PUSH0 DUP3 DUP2 MSTORE PUSH1 0x9 PUSH1 0x20 SWAP1 DUP2 MSTORE PUSH1 0x40 DUP1 DUP4 KECCAK256 PUSH1 0x1 PUSH1 0x1 PUSH1 0xA0 SHL SUB DUP6 AND DUP5 MSTORE SWAP1 SWAP2 MSTORE SWAP1 KECCAK256 SLOAD PUSH1 0x2 SUB PUSH2 0x1B08 JUMPI PUSH2 0x1B08 DUP3 DUP3 PUSH2 0x1B0C JUMP JUMPDEST POP POP JUMP JUMPDEST PUSH0 DUP3 DUP2 MSTORE PUSH1 0x5 PUSH1 0x20 MSTORE PUSH1 0x40 SWAP1 KECCAK256 PUSH1 0x1 ADD SLOAD PUSH1 0x1 PUSH1 0x1 PUSH1 0xA0 SHL SUB AND CALLER EQ DUP1 PUSH2 0x1B48 JUMPI POP PUSH0 DUP3 DUP2 MSTORE PUSH1 0x5 PUSH1 0x20 MSTORE PUSH1 0x40 SWAP1 KECCAK256 SLOAD PUSH1 0x1 PUSH1 0x1 PUSH1 0xA0 SHL SUB AND CALLER EQ JUMPDEST PUSH2 0x1BA0 JUMPI PUSH1 0x40 MLOAD PUSH3 0x461BCD PUSH1 0xE5 SHL DUP2 MSTORE PUSH1 0x20 PUSH1 0x4 DUP3 ADD MSTORE PUSH1 0x24 DUP1 DUP3 ADD MSTORE PUSH32 0x596F7520617265206E6F7420616C6C6F77656420746F20736574206D6964646C PUSH1 0x44 DUP3 ADD MSTORE PUSH4 0x32B6B0B7 PUSH1 0xE1 SHL PUSH1 0x64 DUP3 ADD MSTORE PUSH1 0x84 ADD PUSH2 0x623 JUMP JUMPDEST PUSH0 DUP3 DUP2 MSTORE PUSH1 0x5 PUSH1 0x20 MSTORE PUSH1 0x40 DUP2 KECCAK256 PUSH1 0x4 ADD DUP1 SLOAD SWAP2 PUSH2 0x1BBC DUP4 PUSH2 0x1EFB JUMP JUMPDEST SWAP1 SWAP2 SSTORE POP POP PUSH0 DUP3 DUP2 MSTORE PUSH1 0xA PUSH1 0x20 SWAP1 DUP2 MSTORE PUSH1 0x40 DUP1 DUP4 KECCAK256 PUSH1 0x5 DUP1 DUP5 MSTORE DUP3 DUP6 KECCAK256 PUSH1 0x4 DUP2 ADD SLOAD DUP7 MSTORE SWAP2 DUP5 MSTORE DUP3 DUP6 KECCAK256 DUP1 SLOAD PUSH1 0x1 PUSH1 0x1 PUSH1 0xA0 SHL SUB NOT AND PUSH1 0x1 PUSH1 0x1 PUSH1 0xA0 SHL SUB DUP9 AND OR SWAP1 SSTORE SWAP4 DUP7 SWAP1 MSTORE SWAP3 SWAP1 SWAP2 MSTORE MLOAD PUSH32 0xA5BBDA7FA17282C4725E052AE921AA2682773044AEE6155C8EBA5622F7800C09 SWAP2 PUSH2 0xCD7 SWAP2 DUP5 SWAP1 PUSH2 0x211B JUMP JUMPDEST PUSH1 0x40 DUP1 MLOAD PUSH2 0x120 DUP2 ADD DUP3 MSTORE PUSH0 DUP1 DUP3 MSTORE PUSH1 0x20 DUP3 ADD DUP2 SWAP1 MSTORE SWAP2 DUP2 ADD DUP3 SWAP1 MSTORE PUSH1 0x60 DUP2 ADD DUP3 SWAP1 MSTORE PUSH1 0x80 DUP2 ADD DUP3 SWAP1 MSTORE PUSH1 0xA0 DUP2 ADD DUP3 SWAP1 MSTORE PUSH1 0xC0 DUP2 ADD DUP3 SWAP1 MSTORE PUSH1 0xE0 DUP2 ADD DUP3 SWAP1 MSTORE PUSH2 0x100 DUP2 ADD SWAP2 SWAP1 SWAP2 MSTORE SWAP1 JUMP JUMPDEST PUSH0 DUP1 PUSH1 0x40 DUP4 DUP6 SUB SLT ISZERO PUSH2 0x1C91 JUMPI PUSH0 DUP1 REVERT JUMPDEST POP POP DUP1 CALLDATALOAD SWAP3 PUSH1 0x20 SWAP1 SWAP2 ADD CALLDATALOAD SWAP2 POP JUMP JUMPDEST PUSH0 DUP1 PUSH0 PUSH1 0x60 DUP5 DUP7 SUB SLT ISZERO PUSH2 0x1CB2 JUMPI PUSH0 DUP1 REVERT JUMPDEST POP POP DUP2 CALLDATALOAD SWAP4 PUSH1 0x20 DUP4 ADD CALLDATALOAD SWAP4 POP PUSH1 0x40 SWAP1 SWAP3 ADD CALLDATALOAD SWAP2 SWAP1 POP JUMP JUMPDEST PUSH0 PUSH1 0x20 DUP3 DUP5 SUB SLT ISZERO PUSH2 0x1CD9 JUMPI PUSH0 DUP1 REVERT JUMPDEST POP CALLDATALOAD SWAP2 SWAP1 POP JUMP JUMPDEST DUP2 MLOAD PUSH1 0x1 PUSH1 0x1 PUSH1 0xA0 SHL SUB SWAP1 DUP2 AND DUP3 MSTORE PUSH1 0x20 DUP1 DUP5 ADD MLOAD DUP3 AND SWAP1 DUP4 ADD MSTORE PUSH1 0x40 DUP1 DUP5 ADD MLOAD SWAP2 DUP3 AND SWAP1 DUP4 ADD MSTORE PUSH2 0x120 DUP3 ADD SWAP1 POP PUSH1 0x60 DUP4 ADD MLOAD PUSH1 0x60 DUP4 ADD MSTORE PUSH1 0x80 DUP4 ADD MLOAD PUSH1 0x80 DUP4 ADD MSTORE PUSH1 0xA0 DUP4 ADD MLOAD PUSH2 0x1D36 PUSH1 0xA0 DUP5 ADD DUP3 ISZERO ISZERO SWAP1 MSTORE JUMP JUMPDEST POP PUSH1 0xC0 DUP4 ADD MLOAD PUSH2 0x1D4A PUSH1 0xC0 DUP5 ADD DUP3 ISZERO ISZERO SWAP1 MSTORE JUMP JUMPDEST POP PUSH1 0xE0 DUP4 ADD MLOAD PUSH2 0x1D5E PUSH1 0xE0 DUP5 ADD DUP3 ISZERO ISZERO SWAP1 MSTORE JUMP JUMPDEST POP PUSH2 0x100 DUP4 ADD MLOAD PUSH2 0x1D74 PUSH2 0x100 DUP5 ADD DUP3 ISZERO ISZERO SWAP1 MSTORE JUMP JUMPDEST POP SWAP3 SWAP2 POP POP JUMP JUMPDEST DUP1 CALLDATALOAD PUSH1 0x1 PUSH1 0x1 PUSH1 0xA0 SHL SUB DUP2 AND DUP2 EQ PUSH2 0x1D91 JUMPI PUSH0 DUP1 REVERT JUMPDEST SWAP2 SWAP1 POP JUMP JUMPDEST PUSH0 DUP1 PUSH1 0x40 DUP4 DUP6 SUB SLT ISZERO PUSH2 0x1DA7 JUMPI PUSH0 DUP1 REVERT JUMPDEST DUP3 CALLDATALOAD SWAP2 POP PUSH2 0x1DB7 PUSH1 0x20 DUP5 ADD PUSH2 0x1D7B JUMP JUMPDEST SWAP1 POP SWAP3 POP SWAP3 SWAP1 POP JUMP JUMPDEST DUP1 CALLDATALOAD DUP1 ISZERO ISZERO DUP2 EQ PUSH2 0x1D91 JUMPI PUSH0 DUP1 REVERT JUMPDEST PUSH0 DUP1 PUSH0 PUSH1 0x60 DUP5 DUP7 SUB SLT ISZERO PUSH2 0x1DE1 JUMPI PUSH0 DUP1 REVERT JUMPDEST PUSH2 0x1DEA DUP5 PUSH2 0x1DC0 JUMP JUMPDEST SWAP3 POP PUSH2 0x1DF8 PUSH1 0x20 DUP6 ADD PUSH2 0x1DC0 JUMP JUMPDEST SWAP2 POP PUSH2 0x1E06 PUSH1 0x40 DUP6 ADD PUSH2 0x1DC0 JUMP JUMPDEST SWAP1 POP SWAP3 POP SWAP3 POP SWAP3 JUMP JUMPDEST PUSH0 PUSH1 0x20 DUP3 DUP5 SUB SLT ISZERO PUSH2 0x1E1F JUMPI PUSH0 DUP1 REVERT JUMPDEST PUSH2 0x1E28 DUP3 PUSH2 0x1D7B JUMP JUMPDEST SWAP4 SWAP3 POP POP POP JUMP JUMPDEST PUSH1 0x20 DUP1 DUP3 MSTORE PUSH1 0x25 SWAP1 DUP3 ADD MSTORE PUSH32 0x596F75206E65656420746F20626520616E20656D706C6F79657220746F20646F PUSH1 0x40 DUP3 ADD MSTORE PUSH5 0x81D1A185D PUSH1 0xDA SHL PUSH1 0x60 DUP3 ADD MSTORE PUSH1 0x80 ADD SWAP1 JUMP JUMPDEST PUSH1 0x20 DUP1 DUP3 MSTORE PUSH1 0x25 SWAP1 DUP3 ADD MSTORE PUSH32 0x596F7520617265206E6F742074686520656D706C6F796572206F662074686973 PUSH1 0x40 DUP3 ADD MSTORE PUSH5 0x20776F726B PUSH1 0xD8 SHL PUSH1 0x60 DUP3 ADD MSTORE PUSH1 0x80 ADD SWAP1 JUMP JUMPDEST PUSH1 0x20 DUP1 DUP3 MSTORE PUSH1 0x14 SWAP1 DUP3 ADD MSTORE PUSH20 0x2A3434B9903A30B9B59034B9903737BB9037B333 PUSH1 0x61 SHL PUSH1 0x40 DUP3 ADD MSTORE PUSH1 0x60 ADD SWAP1 JUMP JUMPDEST PUSH4 0x4E487B71 PUSH1 0xE0 SHL PUSH0 MSTORE PUSH1 0x11 PUSH1 0x4 MSTORE PUSH1 0x24 PUSH0 REVERT JUMPDEST PUSH0 PUSH1 0x1 DUP3 ADD PUSH2 0x1F0C JUMPI PUSH2 0x1F0C PUSH2 0x1EE7 JUMP JUMPDEST POP PUSH1 0x1 ADD SWAP1 JUMP JUMPDEST PUSH1 0x20 DUP1 DUP3 MSTORE PUSH1 0x2B SWAP1 DUP3 ADD MSTORE PUSH32 0x596F7520617265206E6F7420616C6C6F77656420746F207265736F6C76652074 PUSH1 0x40 DUP3 ADD MSTORE PUSH11 0x6869732064697370757465 PUSH1 0xA8 SHL PUSH1 0x60 DUP3 ADD MSTORE PUSH1 0x80 ADD SWAP1 JUMP JUMPDEST PUSH1 0x20 DUP1 DUP3 MSTORE PUSH1 0x2B SWAP1 DUP3 ADD MSTORE PUSH32 0x5468657265206973206E6F206469737075746520726169656420696E20746869 PUSH1 0x40 DUP3 ADD MSTORE PUSH11 0x1CC81859DC99595B595B9D PUSH1 0xAA SHL PUSH1 0x60 DUP3 ADD MSTORE PUSH1 0x80 ADD SWAP1 JUMP JUMPDEST DUP1 DUP3 ADD DUP1 DUP3 GT ISZERO PUSH2 0xAB5 JUMPI PUSH2 0xAB5 PUSH2 0x1EE7 JUMP JUMPDEST DUP1 DUP3 MUL DUP2 ISZERO DUP3 DUP3 DIV DUP5 EQ OR PUSH2 0xAB5 JUMPI PUSH2 0xAB5 PUSH2 0x1EE7 JUMP JUMPDEST PUSH0 DUP3 PUSH2 0x1FED JUMPI PUSH4 0x4E487B71 PUSH1 0xE0 SHL PUSH0 MSTORE PUSH1 0x12 PUSH1 0x4 MSTORE PUSH1 0x24 PUSH0 REVERT JUMPDEST POP DIV SWAP1 JUMP JUMPDEST DUP2 DUP2 SUB DUP2 DUP2 GT ISZERO PUSH2 0xAB5 JUMPI PUSH2 0xAB5 PUSH2 0x1EE7 JUMP JUMPDEST PUSH2 0x2027 DUP3 PUSH2 0x201A DUP4 SLOAD PUSH1 0x1 PUSH1 0x1 PUSH1 0xA0 SHL SUB AND SWAP1 JUMP JUMPDEST PUSH1 0x1 PUSH1 0x1 PUSH1 0xA0 SHL SUB AND SWAP1 MSTORE JUMP JUMPDEST PUSH1 0x1 DUP2 ADD SLOAD PUSH1 0x1 PUSH1 0x1 PUSH1 0xA0 SHL SUB SWAP1 DUP2 AND PUSH1 0x20 DUP5 ADD MSTORE PUSH1 0x2 DUP3 ADD SLOAD AND PUSH1 0x40 DUP4 ADD MSTORE PUSH1 0x3 DUP2 ADD SLOAD PUSH1 0x60 DUP4 ADD MSTORE PUSH1 0x4 DUP2 ADD SLOAD PUSH1 0x80 DUP4 ADD MSTORE PUSH1 0x5 DUP2 ADD SLOAD PUSH1 0xFF DUP1 DUP3 AND ISZERO ISZERO PUSH1 0xA0 DUP6 ADD MSTORE PUSH1 0x8 DUP3 SWAP1 SHR AND ISZERO ISZERO PUSH1 0xC0 DUP5 ADD MSTORE PUSH2 0x208D PUSH1 0xE0 DUP5 ADD PUSH1 0xFF DUP4 PUSH1 0x10 SHR AND ISZERO ISZERO SWAP1 MSTORE JUMP JUMPDEST PUSH2 0x20A2 PUSH2 0x100 DUP5 ADD PUSH1 0xFF DUP4 PUSH1 0x18 SHR AND ISZERO ISZERO SWAP1 MSTORE JUMP JUMPDEST POP POP POP JUMP JUMPDEST PUSH2 0x120 DUP2 ADD PUSH2 0xAB5 DUP3 DUP5 PUSH2 0x2005 JUMP JUMPDEST DUP2 SLOAD PUSH1 0x1 PUSH1 0x1 PUSH1 0xA0 SHL SUB AND DUP2 MSTORE PUSH1 0x1 DUP3 ADD SLOAD PUSH1 0x20 DUP3 ADD MSTORE PUSH1 0x2 DUP3 ADD SLOAD PUSH1 0x40 DUP3 ADD MSTORE PUSH1 0x3 SWAP1 SWAP2 ADD SLOAD PUSH1 0xFF AND ISZERO ISZERO PUSH1 0x60 DUP3 ADD MSTORE PUSH1 0x80 ADD SWAP1 JUMP JUMPDEST PUSH1 0x1 PUSH1 0x1 PUSH1 0xA0 SHL SUB DUP5 DUP2 AND DUP3 MSTORE DUP4 AND PUSH1 0x20 DUP3 ADD MSTORE PUSH2 0x160 DUP2 ADD PUSH2 0x2113 PUSH1 0x40 DUP4 ADD DUP5 PUSH2 0x2005 JUMP JUMPDEST SWAP5 SWAP4 POP POP POP POP JUMP JUMPDEST PUSH2 0x140 DUP2 ADD PUSH2 0x212A DUP3 DUP6 PUSH2 0x2005 JUMP JUMPDEST PUSH1 0x1 PUSH1 0x1 PUSH1 0xA0 SHL SUB SWAP3 SWAP1 SWAP3 AND PUSH2 0x120 SWAP2 SWAP1 SWAP2 ADD MSTORE SWAP2 SWAP1 POP JUMP INVALID LOG2 PUSH5 0x6970667358 0x22 SLT KECCAK256 PUSH19 0xF2899153076180102134667AD70884A57BAC2 PC SWAP5 0x23 DUP6 MLOAD 0xEB 0x2C 0x24 0x4F 0xC0 0xB8 PUSH2 0x6473 PUSH16 0x6C634300081A00330000000000000000 "
		},
		"gasEstimates": {
			"creation": {
				"codeDepositCost": "1713800",
				"executionCost": "26032",
				"totalCost": "1739832"
			},
			"external": {
				"": "206",
				"AIaddress()": "2426",
				"agreements(uint256)": "13404",
				"applyOfferedWork(uint256)": "66401",
				"balanceRecieved()": "2304",
				"deleteWork(uint256)": "infinite",
				"getAccount(address)": "3058",
				"getAgreement(uint256)": "13967",
				"getAskedMiddleman(uint256,uint256)": "2701",
				"getCandidates(uint256,uint256)": "4921",
				"getMiddleman(uint256)": "2612",
				"middleManValidate(uint256,uint256)": "43121",
				"newAccount(bool,bool,bool)": "infinite",
				"numOfAgreements()": "2349",
				"numOfOfferedWorks()": "2351",
				"offerWork()": "131301",
				"offeredWorks(uint256)": "8936",
				"raiseDispute(uint256)": "45508",
				"reqruitEmployee(uint256,uint256)": "190650",
				"resolveDispluteAI(uint256,address)": "infinite",
				"resolveDispluteMiddleman(uint256,uint256,uint256)": "infinite",
				"setEmployeeDone(uint256)": "27916",
				"setEmployerValidate(uint256)": "infinite",
				"suggestMiddleman(uint256,address)": "infinite"
			},
			"internal": {
				"askMiddleman(uint256,address)": "infinite"
			}
		},
		"methodIdentifiers": {
			"AIaddress()": "1cefaf22",
			"agreements(uint256)": "bd14de96",
			"applyOfferedWork(uint256)": "88945938",
			"balanceRecieved()": "d4c06b8d",
			"deleteWork(uint256)": "8589c725",
			"getAccount(address)": "fbcbc0f1",
			"getAgreement(uint256)": "4f9f6fe6",
			"getAskedMiddleman(uint256,uint256)": "3d6b56e9",
			"getCandidates(uint256,uint256)": "a151bc22",
			"getMiddleman(uint256)": "ff69d8df",
			"middleManValidate(uint256,uint256)": "cf3b8fc7",
			"newAccount(bool,bool,bool)": "c0d58835",
			"numOfAgreements()": "ef32fc51",
			"numOfOfferedWorks()": "0fe629ee",
			"offerWork()": "880b5212",
			"offeredWorks(uint256)": "5ec448c7",
			"raiseDispute(uint256)": "a5c1674e",
			"reqruitEmployee(uint256,uint256)": "04bf66c6",
			"resolveDispluteAI(uint256,address)": "b1ae266b",
			"resolveDispluteMiddleman(uint256,uint256,uint256)": "0de37bf6",
			"setEmployeeDone(uint256)": "c7a488a1",
			"setEmployerValidate(uint256)": "e43caa91",
			"suggestMiddleman(uint256,address)": "ff4db898"
		}
	},
	"abi": [
		{
			"inputs": [],
			"stateMutability": "nonpayable",
			"type": "constructor"
		},
		{
			"anonymous": false,
			"inputs": [
				{
					"indexed": true,
					"internalType": "address",
					"name": "acountAddress",
					"type": "address"
				},
				{
					"indexed": false,
					"internalType": "bool",
					"name": "isEmployee_",
					"type": "bool"
				},
				{
					"indexed": false,
					"internalType": "bool",
					"name": "isEmployer_",
					"type": "bool"
				},
				{
					"indexed": false,
					"internalType": "bool",
					"name": "isMiddleman_",
					"type": "bool"
				}
			],
			"name": "accountCreated",
			"type": "event"
		},
		{
			"anonymous": false,
			"inputs": [
				{
					"indexed": true,
					"internalType": "address",
					"name": "applicant",
					"type": "address"
				},
				{
					"components": [
						{
							"internalType": "address",
							"name": "employer",
							"type": "address"
						},
						{
							"internalType": "uint256",
							"name": "numOfCandidates",
							"type": "uint256"
						},
						{
							"internalType": "uint256",
							"name": "amountToStake",
							"type": "uint256"
						},
						{
							"internalType": "bool",
							"name": "isSealed",
							"type": "bool"
						}
					],
					"indexed": false,
					"internalType": "struct ChainLance.OfferedWork",
					"name": "offeredWork",
					"type": "tuple"
				}
			],
			"name": "appliedToWork",
			"type": "event"
		},
		{
			"anonymous": false,
			"inputs": [
				{
					"components": [
						{
							"internalType": "address",
							"name": "employer",
							"type": "address"
						},
						{
							"internalType": "address",
							"name": "employee",
							"type": "address"
						},
						{
							"internalType": "address",
							"name": "middleman",
							"type": "address"
						},
						{
							"internalType": "uint256",
							"name": "amountForEmployee",
							"type": "uint256"
						},
						{
							"internalType": "uint256",
							"name": "askedMiddlemanNumber",
							"type": "uint256"
						},
						{
							"internalType": "bool",
							"name": "employeeDone",
							"type": "bool"
						},
						{
							"internalType": "bool",
							"name": "employerValidate",
							"type": "bool"
						},
						{
							"internalType": "bool",
							"name": "disputeRaised",
							"type": "bool"
						},
						{
							"internalType": "bool",
							"name": "resolveCheck",
							"type": "bool"
						}
					],
					"indexed": false,
					"internalType": "struct ChainLance.Agreement",
					"name": "agreement",
					"type": "tuple"
				},
				{
					"indexed": false,
					"internalType": "address",
					"name": "middleman",
					"type": "address"
				}
			],
			"name": "askedMiddleman",
			"type": "event"
		},
		{
			"anonymous": false,
			"inputs": [
				{
					"indexed": true,
					"internalType": "address",
					"name": "employee",
					"type": "address"
				},
				{
					"components": [
						{
							"internalType": "address",
							"name": "employer",
							"type": "address"
						},
						{
							"internalType": "address",
							"name": "employee",
							"type": "address"
						},
						{
							"internalType": "address",
							"name": "middleman",
							"type": "address"
						},
						{
							"internalType": "uint256",
							"name": "amountForEmployee",
							"type": "uint256"
						},
						{
							"internalType": "uint256",
							"name": "askedMiddlemanNumber",
							"type": "uint256"
						},
						{
							"internalType": "bool",
							"name": "employeeDone",
							"type": "bool"
						},
						{
							"internalType": "bool",
							"name": "employerValidate",
							"type": "bool"
						},
						{
							"internalType": "bool",
							"name": "disputeRaised",
							"type": "bool"
						},
						{
							"internalType": "bool",
							"name": "resolveCheck",
							"type": "bool"
						}
					],
					"indexed": false,
					"internalType": "struct ChainLance.Agreement",
					"name": "agreement",
					"type": "tuple"
				}
			],
			"name": "disputeRaised",
			"type": "event"
		},
		{
			"anonymous": false,
			"inputs": [
				{
					"components": [
						{
							"internalType": "address",
							"name": "employer",
							"type": "address"
						},
						{
							"internalType": "address",
							"name": "employee",
							"type": "address"
						},
						{
							"internalType": "address",
							"name": "middleman",
							"type": "address"
						},
						{
							"internalType": "uint256",
							"name": "amountForEmployee",
							"type": "uint256"
						},
						{
							"internalType": "uint256",
							"name": "askedMiddlemanNumber",
							"type": "uint256"
						},
						{
							"internalType": "bool",
							"name": "employeeDone",
							"type": "bool"
						},
						{
							"internalType": "bool",
							"name": "employerValidate",
							"type": "bool"
						},
						{
							"internalType": "bool",
							"name": "disputeRaised",
							"type": "bool"
						},
						{
							"internalType": "bool",
							"name": "resolveCheck",
							"type": "bool"
						}
					],
					"indexed": false,
					"internalType": "struct ChainLance.Agreement",
					"name": "agreement",
					"type": "tuple"
				}
			],
			"name": "disputeResolved",
			"type": "event"
		},
		{
			"anonymous": false,
			"inputs": [
				{
					"indexed": false,
					"internalType": "bool",
					"name": "employeeDone",
					"type": "bool"
				}
			],
			"name": "employeeDone",
			"type": "event"
		},
		{
			"anonymous": false,
			"inputs": [
				{
					"indexed": false,
					"internalType": "bool",
					"name": "employerValidated",
					"type": "bool"
				}
			],
			"name": "employerValidated",
			"type": "event"
		},
		{
			"anonymous": false,
			"inputs": [
				{
					"components": [
						{
							"internalType": "address",
							"name": "employer",
							"type": "address"
						},
						{
							"internalType": "address",
							"name": "employee",
							"type": "address"
						},
						{
							"internalType": "address",
							"name": "middleman",
							"type": "address"
						},
						{
							"internalType": "uint256",
							"name": "amountForEmployee",
							"type": "uint256"
						},
						{
							"internalType": "uint256",
							"name": "askedMiddlemanNumber",
							"type": "uint256"
						},
						{
							"internalType": "bool",
							"name": "employeeDone",
							"type": "bool"
						},
						{
							"internalType": "bool",
							"name": "employerValidate",
							"type": "bool"
						},
						{
							"internalType": "bool",
							"name": "disputeRaised",
							"type": "bool"
						},
						{
							"internalType": "bool",
							"name": "resolveCheck",
							"type": "bool"
						}
					],
					"indexed": false,
					"internalType": "struct ChainLance.Agreement",
					"name": "agreement",
					"type": "tuple"
				}
			],
			"name": "middlemanValidated",
			"type": "event"
		},
		{
			"anonymous": false,
			"inputs": [
				{
					"indexed": true,
					"internalType": "address",
					"name": "employee",
					"type": "address"
				},
				{
					"components": [
						{
							"internalType": "address",
							"name": "employer",
							"type": "address"
						},
						{
							"internalType": "address",
							"name": "employee",
							"type": "address"
						},
						{
							"internalType": "address",
							"name": "middleman",
							"type": "address"
						},
						{
							"internalType": "uint256",
							"name": "amountForEmployee",
							"type": "uint256"
						},
						{
							"internalType": "uint256",
							"name": "askedMiddlemanNumber",
							"type": "uint256"
						},
						{
							"internalType": "bool",
							"name": "employeeDone",
							"type": "bool"
						},
						{
							"internalType": "bool",
							"name": "employerValidate",
							"type": "bool"
						},
						{
							"internalType": "bool",
							"name": "disputeRaised",
							"type": "bool"
						},
						{
							"internalType": "bool",
							"name": "resolveCheck",
							"type": "bool"
						}
					],
					"indexed": false,
					"internalType": "struct ChainLance.Agreement",
					"name": "agreement",
					"type": "tuple"
				}
			],
			"name": "reqruitedEmployee",
			"type": "event"
		},
		{
			"anonymous": false,
			"inputs": [
				{
					"indexed": false,
					"internalType": "address",
					"name": "suggested",
					"type": "address"
				},
				{
					"indexed": false,
					"internalType": "address",
					"name": "middleman",
					"type": "address"
				},
				{
					"components": [
						{
							"internalType": "address",
							"name": "employer",
							"type": "address"
						},
						{
							"internalType": "address",
							"name": "employee",
							"type": "address"
						},
						{
							"internalType": "address",
							"name": "middleman",
							"type": "address"
						},
						{
							"internalType": "uint256",
							"name": "amountForEmployee",
							"type": "uint256"
						},
						{
							"internalType": "uint256",
							"name": "askedMiddlemanNumber",
							"type": "uint256"
						},
						{
							"internalType": "bool",
							"name": "employeeDone",
							"type": "bool"
						},
						{
							"internalType": "bool",
							"name": "employerValidate",
							"type": "bool"
						},
						{
							"internalType": "bool",
							"name": "disputeRaised",
							"type": "bool"
						},
						{
							"internalType": "bool",
							"name": "resolveCheck",
							"type": "bool"
						}
					],
					"indexed": false,
					"internalType": "struct ChainLance.Agreement",
					"name": "agreement",
					"type": "tuple"
				}
			],
			"name": "suggestedMiddleman",
			"type": "event"
		},
		{
			"anonymous": false,
			"inputs": [
				{
					"components": [
						{
							"internalType": "address",
							"name": "employer",
							"type": "address"
						},
						{
							"internalType": "uint256",
							"name": "numOfCandidates",
							"type": "uint256"
						},
						{
							"internalType": "uint256",
							"name": "amountToStake",
							"type": "uint256"
						},
						{
							"internalType": "bool",
							"name": "isSealed",
							"type": "bool"
						}
					],
					"indexed": false,
					"internalType": "struct ChainLance.OfferedWork",
					"name": "offeredWork",
					"type": "tuple"
				}
			],
			"name": "workDeleted",
			"type": "event"
		},
		{
			"anonymous": false,
			"inputs": [
				{
					"indexed": true,
					"internalType": "address",
					"name": "offeredBy",
					"type": "address"
				},
				{
					"components": [
						{
							"internalType": "address",
							"name": "employer",
							"type": "address"
						},
						{
							"internalType": "uint256",
							"name": "numOfCandidates",
							"type": "uint256"
						},
						{
							"internalType": "uint256",
							"name": "amountToStake",
							"type": "uint256"
						},
						{
							"internalType": "bool",
							"name": "isSealed",
							"type": "bool"
						}
					],
					"indexed": false,
					"internalType": "struct ChainLance.OfferedWork",
					"name": "offeredWork",
					"type": "tuple"
				}
			],
			"name": "workOffered",
			"type": "event"
		},
		{
			"stateMutability": "payable",
			"type": "fallback"
		},
		{
			"inputs": [],
			"name": "AIaddress",
			"outputs": [
				{
					"internalType": "address payable",
					"name": "",
					"type": "address"
				}
			],
			"stateMutability": "view",
			"type": "function"
		},
		{
			"inputs": [
				{
					"internalType": "uint256",
					"name": "",
					"type": "uint256"
				}
			],
			"name": "agreements",
			"outputs": [
				{
					"internalType": "address",
					"name": "employer",
					"type": "address"
				},
				{
					"internalType": "address",
					"name": "employee",
					"type": "address"
				},
				{
					"internalType": "address",
					"name": "middleman",
					"type": "address"
				},
				{
					"internalType": "uint256",
					"name": "amountForEmployee",
					"type": "uint256"
				},
				{
					"internalType": "uint256",
					"name": "askedMiddlemanNumber",
					"type": "uint256"
				},
				{
					"internalType": "bool",
					"name": "employeeDone",
					"type": "bool"
				},
				{
					"internalType": "bool",
					"name": "employerValidate",
					"type": "bool"
				},
				{
					"internalType": "bool",
					"name": "disputeRaised",
					"type": "bool"
				},
				{
					"internalType": "bool",
					"name": "resolveCheck",
					"type": "bool"
				}
			],
			"stateMutability": "view",
			"type": "function"
		},
		{
			"inputs": [
				{
					"internalType": "uint256",
					"name": "which_",
					"type": "uint256"
				}
			],
			"name": "applyOfferedWork",
			"outputs": [],
			"stateMutability": "nonpayable",
			"type": "function"
		},
		{
			"inputs": [],
			"name": "balanceRecieved",
			"outputs": [
				{
					"internalType": "uint256",
					"name": "",
					"type": "uint256"
				}
			],
			"stateMutability": "view",
			"type": "function"
		},
		{
			"inputs": [
				{
					"internalType": "uint256",
					"name": "which_",
					"type": "uint256"
				}
			],
			"name": "deleteWork",
			"outputs": [],
			"stateMutability": "nonpayable",
			"type": "function"
		},
		{
			"inputs": [
				{
					"internalType": "address",
					"name": "address_",
					"type": "address"
				}
			],
			"name": "getAccount",
			"outputs": [
				{
					"components": [
						{
							"internalType": "bool",
							"name": "isEmployer",
							"type": "bool"
						},
						{
							"internalType": "bool",
							"name": "isEmployee",
							"type": "bool"
						},
						{
							"internalType": "bool",
							"name": "isMiddleman",
							"type": "bool"
						},
						{
							"internalType": "bool",
							"name": "registered",
							"type": "bool"
						}
					],
					"internalType": "struct ChainLance.Account",
					"name": "",
					"type": "tuple"
				}
			],
			"stateMutability": "view",
			"type": "function"
		},
		{
			"inputs": [
				{
					"internalType": "uint256",
					"name": "which_",
					"type": "uint256"
				}
			],
			"name": "getAgreement",
			"outputs": [
				{
					"components": [
						{
							"internalType": "address",
							"name": "employer",
							"type": "address"
						},
						{
							"internalType": "address",
							"name": "employee",
							"type": "address"
						},
						{
							"internalType": "address",
							"name": "middleman",
							"type": "address"
						},
						{
							"internalType": "uint256",
							"name": "amountForEmployee",
							"type": "uint256"
						},
						{
							"internalType": "uint256",
							"name": "askedMiddlemanNumber",
							"type": "uint256"
						},
						{
							"internalType": "bool",
							"name": "employeeDone",
							"type": "bool"
						},
						{
							"internalType": "bool",
							"name": "employerValidate",
							"type": "bool"
						},
						{
							"internalType": "bool",
							"name": "disputeRaised",
							"type": "bool"
						},
						{
							"internalType": "bool",
							"name": "resolveCheck",
							"type": "bool"
						}
					],
					"internalType": "struct ChainLance.Agreement",
					"name": "",
					"type": "tuple"
				}
			],
			"stateMutability": "view",
			"type": "function"
		},
		{
			"inputs": [
				{
					"internalType": "uint256",
					"name": "whichAgreement_",
					"type": "uint256"
				},
				{
					"internalType": "uint256",
					"name": "whichMiddleman_",
					"type": "uint256"
				}
			],
			"name": "getAskedMiddleman",
			"outputs": [
				{
					"internalType": "address",
					"name": "",
					"type": "address"
				}
			],
			"stateMutability": "view",
			"type": "function"
		},
		{
			"inputs": [
				{
					"internalType": "uint256",
					"name": "offeredWorkNumber_",
					"type": "uint256"
				},
				{
					"internalType": "uint256",
					"name": "candidateNumber_",
					"type": "uint256"
				}
			],
			"name": "getCandidates",
			"outputs": [
				{
					"internalType": "address",
					"name": "",
					"type": "address"
				}
			],
			"stateMutability": "view",
			"type": "function"
		},
		{
			"inputs": [
				{
					"internalType": "uint256",
					"name": "whichAgreement_",
					"type": "uint256"
				}
			],
			"name": "getMiddleman",
			"outputs": [
				{
					"internalType": "address",
					"name": "",
					"type": "address"
				}
			],
			"stateMutability": "view",
			"type": "function"
		},
		{
			"inputs": [
				{
					"internalType": "uint256",
					"name": "whichAgreement_",
					"type": "uint256"
				},
				{
					"internalType": "uint256",
					"name": "whichMiddleman_",
					"type": "uint256"
				}
			],
			"name": "middleManValidate",
			"outputs": [],
			"stateMutability": "nonpayable",
			"type": "function"
		},
		{
			"inputs": [
				{
					"internalType": "bool",
					"name": "isEmployee_",
					"type": "bool"
				},
				{
					"internalType": "bool",
					"name": "isEmployer_",
					"type": "bool"
				},
				{
					"internalType": "bool",
					"name": "isMiddleman_",
					"type": "bool"
				}
			],
			"name": "newAccount",
			"outputs": [],
			"stateMutability": "nonpayable",
			"type": "function"
		},
		{
			"inputs": [],
			"name": "numOfAgreements",
			"outputs": [
				{
					"internalType": "uint256",
					"name": "",
					"type": "uint256"
				}
			],
			"stateMutability": "view",
			"type": "function"
		},
		{
			"inputs": [],
			"name": "numOfOfferedWorks",
			"outputs": [
				{
					"internalType": "uint256",
					"name": "",
					"type": "uint256"
				}
			],
			"stateMutability": "view",
			"type": "function"
		},
		{
			"inputs": [],
			"name": "offerWork",
			"outputs": [],
			"stateMutability": "payable",
			"type": "function"
		},
		{
			"inputs": [
				{
					"internalType": "uint256",
					"name": "",
					"type": "uint256"
				}
			],
			"name": "offeredWorks",
			"outputs": [
				{
					"internalType": "address",
					"name": "employer",
					"type": "address"
				},
				{
					"internalType": "uint256",
					"name": "numOfCandidates",
					"type": "uint256"
				},
				{
					"internalType": "uint256",
					"name": "amountToStake",
					"type": "uint256"
				},
				{
					"internalType": "bool",
					"name": "isSealed",
					"type": "bool"
				}
			],
			"stateMutability": "view",
			"type": "function"
		},
		{
			"inputs": [
				{
					"internalType": "uint256",
					"name": "whichAgreement_",
					"type": "uint256"
				}
			],
			"name": "raiseDispute",
			"outputs": [],
			"stateMutability": "nonpayable",
			"type": "function"
		},
		{
			"inputs": [
				{
					"internalType": "uint256",
					"name": "whichOffer_",
					"type": "uint256"
				},
				{
					"internalType": "uint256",
					"name": "whichCandidate_",
					"type": "uint256"
				}
			],
			"name": "reqruitEmployee",
			"outputs": [],
			"stateMutability": "nonpayable",
			"type": "function"
		},
		{
			"inputs": [
				{
					"internalType": "uint256",
					"name": "whichAgreement_",
					"type": "uint256"
				},
				{
					"internalType": "address",
					"name": "beneficiary",
					"type": "address"
				}
			],
			"name": "resolveDispluteAI",
			"outputs": [],
			"stateMutability": "nonpayable",
			"type": "function"
		},
		{
			"inputs": [
				{
					"internalType": "uint256",
					"name": "whichAgreement_",
					"type": "uint256"
				},
				{
					"internalType": "uint256",
					"name": "employeePercent",
					"type": "uint256"
				},
				{
					"internalType": "uint256",
					"name": "employerPercent",
					"type": "uint256"
				}
			],
			"name": "resolveDispluteMiddleman",
			"outputs": [],
			"stateMutability": "nonpayable",
			"type": "function"
		},
		{
			"inputs": [
				{
					"internalType": "uint256",
					"name": "whichAgreement_",
					"type": "uint256"
				}
			],
			"name": "setEmployeeDone",
			"outputs": [],
			"stateMutability": "nonpayable",
			"type": "function"
		},
		{
			"inputs": [
				{
					"internalType": "uint256",
					"name": "whichAgreement_",
					"type": "uint256"
				}
			],
			"name": "setEmployerValidate",
			"outputs": [],
			"stateMutability": "nonpayable",
			"type": "function"
		},
		{
			"inputs": [
				{
					"internalType": "uint256",
					"name": "whichAgreement_",
					"type": "uint256"
				},
				{
					"internalType": "address",
					"name": "middleman_",
					"type": "address"
				}
			],
			"name": "suggestMiddleman",
			"outputs": [],
			"stateMutability": "nonpayable",
			"type": "function"
		},
		{
			"stateMutability": "payable",
			"type": "receive"
		}
	]
}